:020000021000EC
:108000000080002049250200AD250200AF250200B6
:108010000000000000000000000000000000000060
:10802000000000000000000000000000B125020078
:108030000000000000000000B3250200B52502008A
:10804000B7250200B72502006DEB0100B72502003D
:10805000B7250200000000005DDD0100B725020029
:10806000B7250200B725020049CD0100B72502005F
:10807000B7250200B7250200B7250200B725020088
:10808000B725020035E10100B7250200B72502003F
:108090003DE201002118020055F00100B725020061
:1080A000B7250200B7250200000000000000000014
:1080B00000000000000000000000000000000000C0
:1080C000164B002B00D1144B9D46402292029A1A67
:1080D000924600218B460F461348144A121A0BF0A1
:1080E000EBF90F4B002B00D098470E4B002B00D024
:1080F00098470020002104000D000D48002802D000
:108100000C4800E000BF0BF049F92000290005F001
:1081100083F90AF035FFC046000008000080002007
:108120000000000000000000E02900207C43002047
:10813000000000000000000030B583B0041C0D1CDE
:10814000019001A900220BF065FD019BA34206D01E
:108150001A780023002A03D12860012300E00023BD
:10816000181C03B030BDC04630B583B0041C0D1CD4
:10817000019001A900220BF0D7FD019BA34206D07C
:108180001A780023002A03D12860012300E000238D
:10819000181C03B030BDC04610B582B00C1C01A93C
:1081A000FFF7CAFF002805D0019BFF2B01D82370E1
:1081B00000E0002002B010BD10B582B00C1C01A977
:1081C000FFF7BAFF002807D0019B1A1C8032FF2A54
:1081D00001D8237000E0002002B010BD10B582B0BD
:1081E0000C1C01A9FFF7A8FF002806D0019B044A38
:1081F000934201D8238000E0002002B010BDC046A9
:10820000FFFF0000F0B583B0041C0D1C171C0378A1
:10821000202B03D101342378202BFBD0201C01A973
:1082200010220BF0F7FC019BA34221D91C1B022C4E
:1082300020DC6E1C28701A782D2A1DD1012F22D91E
:10824000012508E030700135EDB21A782D2A14D1DD
:108250000136BD4217D05C1C201C01A910220BF076
:10826000D9FC019BA34208D91C1B022CEADD04E0C7
:10827000002502E0002500E001251878434258411E
:108280004042284000E0002003B0F0BDF0B55F465A
:108290004E464546E0B486B0041C9046002A00D104
:1082A000C4E0002800D1C3E00D1C0026201C2C21B6
:1082B0000BF098FB002803D0471C0023037000E05C
:1082C000071C2378002B00D1A7E0A9462A78082AAA
:1082D00000D9AFE092005D4882589746202B03D129
:1082E00001342378202BFBD049464B681C6094E076
:1082F0006A78201C6968FFF785FF031C6B7000D04B
:108300008BE09CE0201C04A9FFF716FF002800D199
:1083100095E04F4B049A9A4203D1201C04A9FFF721
:1083200023FF4B46586804A904220BF0BCF874E004
:108330006968201CFFF752FF00286ED17FE0696852
:10834000201CFFF729FF002867D178E06968201C0E
:10835000FFF732FF002860D171E0201C6968FFF749
:10836000EBFE002859D12378202B03D10134237848
:10837000202BFBD04B465A78201C996805F02CFC2A
:108380000490002801DA002059E04946486804A911
:1083900004220BF088F840E0201C6968FFF7FCFE1F
:1083A00000283AD104AB2B4905C905C32378202BFB
:1083B00003D101342378202BFBD0201C04A90222F6
:1083C00005F00AFC0390002801DA002037E04B4654
:1083D000586803A901220BF066F81EE01E480068E9
:1083E000C3185B78590716D4201C05F0DFFBAA6878
:1083F0009346201C0BF014FB021C5846211C05F070
:108400001FFB0490154B984205D068686A7804A950
:108410000BF049F801E0002011E00136F6B24645C4
:108420000AD00C35002F09D03C1C3FE7002006E0A5
:10843000002004E0002002E0301C00E0301C06B008
:108440001CBC90469946A346F0BDC0465C55020050
:10845000FFFFFF7F8055020078290020DFFDEF7EBF
:10846000F8B5051C0E1C171C0A7808490AF0E8FD2F
:10847000012F0AD9741CF719054E2278281C311CCB
:108480000AF0DEFD0134BC42F7D1F8BD8855020088
:1084900090550200F0B5474680B4141C002921D144
:1084A000134B1B689A421FD01248111C0AF060FE41
:1084B000114B1D1DDC339846104F114E381C211CEA
:1084C0000AF056FE301C211C0AF052FE01CD211C80
:1084D0000AF04EFE4545F1D10A48211C0AF048FE3B
:1084E000002002E0084800E0084804BC9046F0BDC7
:1084F000EC3A00209C5502009C580200A055020056
:10850000A4550200C85E0200628000006380000083
:1085100010B5044C201C0021A0220AF0CDFF024B14
:108520001C6010BDE4290020E0290020F0B547467A
:1085300080B4071C88464C490BF060FA002831D003
:108540003B78002B13D03D2B11D03A1C474D032410
:108550002868C11848782040191C022800D1203909
:10856000117001321378002B01D03D2BF0D1381C53
:108570000BF056FA012805D93B78412B02D17B78C4
:10858000542B05D03A4841460AF0F2FD394868E0DC
:10859000BB780237002B05D1374841460AF0E8FD89
:1085A00000205EE0354E00243568281C0BF038FAB8
:1085B000021C381C291C0BF05FFA002805D001347E
:1085C000E4B20436372CEFD101E0372C05D128482E
:1085D00041460AF0CDFD2A4843E0251CA400274B64
:1085E000E0580BF01DFAFF2318403F18381C2549AE
:1085F0000BF004FA002805D11F4841460AF0B8FDE7
:1086000000202EE0381C20490BF0F8F9002802D198
:10861000013701210EE03B783D2B02D101370221C9
:1086200008E00021002B05D0114841460AF0A0FDCA
:10863000134816E0AD00154BEB58381C42469847DE
:10864000041C134B1B78002B07D1002801D10A48CA
:1086500000E0074841460AF08BFD00220C4B1A70DF
:10866000201C04BC9046F0BD9C55020078290020D7
:10867000B055020060800000A85502009C5802001E
:1086800061800000B8550200BC5502007859020014
:108690008C2A0020F8B54F464646C0B4041C514B06
:1086A0001B68C31A5A425341DBB298469B004E4F97
:1086B000FF18381C0BF0B4F98146C6B2201C311CDF
:1086C00005F034F9051C431C03D1731E9E41F0B222
:1086D00084E00D2801D00A2861D1381C43490BF0F1
:1086E0008DF900285BD104256368013B6360002B92
:1086F00005DA3F4A1068211C0AF0ECFF02E023680B
:1087000001332360013DEDB2002DEDD1012009F0D0
:10871000FBFE201C002105F009F90D2801D00A28D4
:108720000DD16368013B6360002B05DA304B18689C
:10873000211C0AF0CFFF02E0236801332360434687
:10874000002B0FD003F016FD264C256803F00CFD1E
:10875000021C281C27490AF073FC216826480AF0ED
:1087600007FD15E002F0C2FA0123181AC0B202F0A8
:10877000C3FA1F4C23689D6802F0B8FA021C281C3B
:108780001C490AF05DFC236899681B480AF0F0FC5C
:10879000381C002104220AF08FFE01201EE02B2D40
:1087A00013D1002E0AD0022E12D8FF224B461A40B7
:1087B000381C12490AF068FE002809D1FF234A46F6
:1087C00013402B22FA54012008E00020002E05D08F
:1087D000381C002104220AF06FFE00200CBC9046D9
:1087E0009946F8BDEC3A0020842A00209C550200EE
:1087F000DC290020C0550200A8550200C85502001F
:10880000F0B54F4680B4051C0F1C564EA03692E0C2
:108810000A2C04D00D2C02D0082C58D140E0524B29
:108820001A68504B9A4200D885E0504B1B689B68F1
:108830009F4207D14E4B1B7A002B03D04D48391C69
:108840000AF096FC484B002219680A70454C1C60DF
:10885000201C391CFFF76AFE8146201C46490BF09C
:10886000CDF8002867D14A46002A64D1012009F0DA
:108870004BFE281C002105F059F80D2801D00A28CC
:1088800059D16B68013B6B60002B05DA374B1868D8
:10889000291C0AF01FFF4EE02B6801332B604AE0D1
:1088A000314B1A682F4B9A4245D9304B1B689B6855
:1088B0009F4207D12E4B1B7A002B03D02F48391C27
:1088C0000AF056FC284B1A68013A1A6033E0264B2E
:1088D0001B68B3422FD2254B186883689F4225D16D
:1088E000234B1B7A002B21D0BB68013BBB60002BC4
:1088F00017DAB9698B420FDB3A6814703B681A7853
:108900000A2A02D001333B6010E0184B18680A2194
:108910003A1C0CF075F909E0211C3A1C0CF070F9B6
:1089200004E03B681C703B6801333B600E4A1368EF
:10893000591C11601C706B68013B6B60002B06DAE0
:108940000A490868291C0AF0C5FE041C03E02B68CC
:10895000581C28601C78621C00D059E7002004BC19
:108960009146F0BDE4290020E0290020DC29002008
:10897000903B0020C85E02009C550200CC550200CE
:1089800008B5011C0122034B1A7003480AF0F0FBE2
:1089900008BDC0468C2A0020A855020071DF704730
:1089A00074DF704776DF704777DF704700B583B0BC
:1089B000012902D902290AD042E0234BDB7A5BB2BB
:1089C000101C22491A1C0AF03BFB002039E001234D
:1089D0005B4201931E4901AA0AF070FF00282BD0C8
:1089E00001982023021C9A43131C28330DD0102316
:1089F000021C9A43131C143307D00423021C9A430D
:108A0000131C103201D0002B18D140B2FFF7CCFF5D
:108A100083B2181E15D10C4B019ADA7204F0D0FD06
:108A2000FFF7BEFF02F076FE0A4B984202D100200B
:108A300002F098FB002004E0074802E0064800E04E
:108A4000054803B000BDC046903B0020C055020061
:108A5000545A0200FFFF00006280000030B587B06A
:108A6000151C012913D804AC201CFFF797FFA2792D
:108A7000637921790091E1780191A178029161787F
:108A80000391281C03490AF0DBFA002000E00248A9
:108A900007B030BD585A02006280000010B5141CA7
:108AA00001290FD8A02380225205D35801221A4051
:108AB000201C05490AF0C4FA0448211C0AF058FB9E
:108AC000002000E0024810BD785A0200C85E020093
:108AD0006280000030B587B0141C012916D804A8A4
:108AE00002F092FE051C002D11D104A98A794B7960
:108AF00008790090C87801908878029049780391AD
:108B0000201C04490AF09CFA281C00E0024807B027
:108B100030BDC046585A02006280000070B58AB06D
:108B2000041C022900D09EE004A8002115220AF0AE
:108B3000C3FC201C2C210AF055FF002803D0451C43
:108B40000023037000E0051C201C69460E31FFF76E
:108B500045FB002800D188E06B46D9898223484A2A
:108B6000D152281C2C210AF03DFF002803D0441CC0
:108B70000023037000E0041C281C04A91022FFF746
:108B800041FB102873D1201C2C210AF02BFF061E5C
:108B900002D0002303700136201C08A9FFF71EFB3A
:108BA000002866D004AB1A8A52BA04AB1A82301C71
:108BB0002C210AF017FF051E02D000230370013597
:108BC000301C69462231FFF709FB002853D004AB63
:108BD0005A8A52BA04AB5A82281C2C210AF002FF8E
:108BE000041E02D0002303700134281C254902AA68
:108BF0000AF064FE002840D004AB02981875002CDF
:108C00000FD000230193201C01A9FFF795FA00283B
:108C100002D0019B012B01D91B482FE04A221849A1
:108C20008B54174904AA0B1C6C3331CA31C330CAA8
:108C300030C312781A7001224923CA5404F0C0FCD0
:108C4000FFF7AEFE02F066FD104B984206D002F030
:108C500061FD1321FFF7A6FE00200FE0002002F0C7
:108C600081FA00200AE0084808E0074806E00648C4
:108C700004E0054802E0044800E003480AB070BD83
:108C8000903B00207C5A020062800000FFFF000041
:108C900010B5141C012913D802F03CFD0022094B29
:108CA000984202D002F03CFD021C52B2201C064940
:108CB0000AF0C6F90548211C0AF05AFA002000E023
:108CC000034810BDFFFF0000545A0200C85E0200B6
:108CD0006280000000B585B0012902D9022909D0BF
:108CE0002EE0194B1B7D101C18491A1C0AF0A8F91C
:108CF000002026E06A460023D370033201A90193C5
:108D00008B6007230B704A600122FFF7BFFA01282E
:108D100001D00F4815E06B4603331B780A4A127DD9
:108D20009A420BD0084A1375002B03D00021492327
:108D3000D15401E002F058FD04F042FC002000E0B4
:108D4000034805B000BDC046903B0020C05502005E
:108D50006280000010B582B0041C02291CD1124BA5
:108D60001B7D002B1AD002F0D5FC031C08200F4AF3
:108D7000934216D06846002108220AF09DFB201C71
:108D800069460822FFF73EFA431EDBB2072B07D8DD
:108D9000684603F009FD04E0054802E0054800E0EC
:108DA000034802B010BDC046903B0020FFFF00000A
:108DB0006280000063800000F0B557464E4645468D
:108DC000E0B48AB0041C022961D1364B1B7D002B14
:108DD0005FD00378002B5ED0101CFFF7D1FD04A9F3
:108DE000314A0B1C61CA61C303CA03C312881A80CB
:108DF0002E4B1A6802929A8802AB9A802C4B1D68FF
:108E000000959B886E46B38002A882462949894610
:108E10000322904635E066785C2D0BD15046311C1C
:108E20000AF0E0FD002805D05346C01A6E46355CB6
:108E3000A71CA6784846006843195B7841460B405A
:108E40000221012B07D004A8291C0AF0CBFD011C2C
:108E5000481E81414900281C03F04EFC00281BD10C
:108E60000F2009F051FBAE4201D0002E08D10020A6
:108E7000002103F041FC00280ED10F2009F044FB33
:108E80003C1C671C2578002DC5D1002004E00A4851
:108E900002E00A4800E008480AB01CBC9046994627
:108EA000A246F0BD903B0020A45A0200BC5A02002A
:108EB000C45A02007829002062800000638000000C
:108EC00010B588B0041C02293CD1224B1B7D002B1D
:108ED0003AD002F01FFC021C08201F4B9A4236D0E9
:108EE00007A900230B800F230693201CFFF776F9B8
:108EF000002819D1002300930393059308236A46A1
:108F000013700223537007AA0192144A02926A4610
:108F1000137306AB0493201C69460222FFF7B6F9CF
:108F2000431EDBB2012B11D807AC201C03F078FCE8
:108F3000069809F0E9FA00232380201C03F070FC56
:108F4000002004E0064802E0064800E0044808B0BB
:108F500010BDC046903B0020FFFF0000D85C02001F
:108F6000628000006380000000B58FB0022925D127
:108F70000CAA00230C931371FF211170009302932C
:108F8000039305930693089309930B93052369466E
:108F90000B70013201920B73013204920B76013295
:108FA000079224228B540DAB0A930422FFF76EF92B
:108FB0000138C0B2032803D9044804E0034802E0A2
:108FC0000CA803F005FC0FB000BDC0466280000095
:108FD000F0B5474680B492B0022900D0EFE00EA968
:108FE0007E4B0A1C70CB70C21B6813600CAD002254
:108FF0000C922A710B926C460F2363852A3401ABC5
:109000000192039204920792099204221A70029527
:1090100006251D735A730BAA0592069103221A7630
:10902000089403786E4A1268D3185B78590774D491
:109030000023009301A90B7000AA4A600322FFF7E6
:1090400025F9031C0138C0B2022800D8BBE062E059
:109050000B9B032B5FD1009800286CD00AF0E0FC3A
:10906000052858D800245E4E03275E4DA84614E01C
:109070000098021913783068C11848783840191CD4
:10908000022800D120391170009A515D40460AF043
:10909000A9FC00283FD00134E4B2251C00980AF056
:1090A000BFFC8442E4D300984C210AF09BFC0028CA
:1090B00004D00CAB197801220A431A70009852218F
:1090C0000AF090FC002804D00CAB197802220A4365
:1090D0001A7000984D210AF085FC002804D00CABD2
:1090E000197804220A431A70009842210AF07AFC87
:1090F000002804D00CAB197808220A431A70009893
:1091000046210AF06FFC002815D00CAB197810220C
:109110000A431A700FE034485CE001A90322FFF70C
:10912000B5F8031C0138C0B2022850D92E4851E0CE
:109130000B9B032B45D10CA803F04AFB031C002B0F
:1091400048D10CAB1C780020002C43D00B9B022B89
:109150000DD0032B29D00020012B3BD10F2009F08B
:10916000D3F90CA80023037003F032FB32E00F2088
:1091700009F0CAF90CA80023037003F029FB031CB3
:10918000002B27D10F2009F0BFF90CA8047003F0C1
:109190001FFB031C002B1DD10F2009F0B5F90CA8F3
:1091A0000023037003F014FB14E06B46588D09F0A4
:1091B000ABF90CA80023037003F00AFB0AE00A488D
:1091C00008E0094806E0032B00D044E740E7032B02
:1091D000B1D1ADE712B004BC9046F0BD945A020084
:1091E00078290020CC5A02006280000010B5041CCF
:1091F000022916D102F0B8F9031C0820DA0711D5AC
:1092000002F088FA031C0820074A93420AD0201C67
:1092100004F086FC054B1968201C09F0A9FF00200A
:1092200000E0034810BDC046FFFF0000EC3A0020FC
:109230006280000070B5141C002933D102F094F94B
:10924000031C0820DA0730D5184B19684B68013B1E
:109250004B60002B04DA164B18680AF03BFA03E067
:109260000B685A1C0A601878431C1DD00F4E104D15
:10927000211C09F01DFF33685A68013A5A60002A20
:1092800004DA2868191C0AF025FA03E01A68511C50
:1092900019601078421CEBD10648211C09F068FFC8
:1092A000002002E0044800E0002070BDEC3A0020FD
:1092B000DC290020C85E020062800000F0B557463D
:1092C0004E464546E0B484B0061C0D1C171C1C1C01
:1092D000274B1B68984203D1231C5343102B40DCBF
:1092E00002AA24490B6802938B8893807B00303359
:1092F00093701020391C09F0ADF9A046002C2ADD2E
:109300000024FF23034099461B4B9A4600230193F8
:10931000201C494609F0F4F900290AD1002C03D099
:109320001648311C09F024FF301C51462A1C09F054
:1093300087FE01A8291C3A1C0AF0B5F8ED19202077
:10934000311C09F0B5FE301C02A9019A09F078FE23
:1093500001344445DADB0948311C09F009FF0020DB
:1093600000E0074804B01CBC90469946A246F0BDF8
:10937000EC3A0020EC5C0200E05C0200C85E0200F7
:1093800063800000F0B587B0141C022932D100239D
:1093900005930493039303AB00931D4905AA04AB03
:1093A0000AF08CFA032827D1059D002D26D0049AB7
:1093B000002A25DD039E002E24DD531E012B01D93A
:1093C000042A21D1D7B2391C042F00D90421C9B2F3
:1093D000281C09F035F9002905D00E48211C09F098
:1093E000C7FE0D4811E0B3B2201C291C3A1CFFF740
:1093F00065FF0AE0084808E0074806E0064804E080
:10940000054802E0044800E0034807B0F0BDC0464C
:10941000F45C0200005D02006280000008B50229D1
:1094200007D0101C04490122FD23DB00FFF746FF93
:1094300000E0024808BDC046903B0020628000006A
:1094400038B501291DD8114B1968114B994209D122
:1094500004230F4C80252D010C4819180968A142DE
:109460000BD000E0002380210901CB1A101C094910
:109470001A1C09F0E5FD002006E00433AB42EBD1F5
:1094800001E0054800E0032038BDC0460078002018
:109490000DF0FECA145D02006280000008B50029CC
:1094A00007D1101C0449042280239B00FFF706FF0C
:1094B00000E0024808BDC04600780020628000003D
:1094C00074DF704776DF704708B5FFF7F9FF02F0E9
:1094D00021F9064B984205D002F01CF91321FFF741
:1094E000F1FF02E0002001F03DFE08BDFFFF00009B
:1094F000F0B5474680B4071C00240D4EA3B2984631
:10950000A3009D59281C0AF08BFA021C281C391C48
:1095100009F0BAFF002803D00134052CEED101E098
:10952000404600E0034800B204BC9046F0BDC0468F
:109530001C5D0200FFFF0000F8B5061C0F1C084D63
:109540000024301C29680AF0C1FA002801D03C70C0
:1095500005E00134E4B204350E2CF2D10020F8BD50
:10956000285E0200F0B55F4656464D464446F0B4CC
:109570008FB0141C022900D08CE000230D930C93B3
:1095800006A906938B60CB604B610DAB4B60022349
:109590000B730CAB0B610222FEF778FE824601389A
:1095A000C0B2012878D80D98FFF7A2FF002805DA8D
:1095B0003E48211C09F0DCFD3D4870E001AB18700D
:1095C0000D9D80003B4BC0580AF02AFA28180D90D8
:1095D0000378002B43D001261222934669460331BB
:1095E000FFF7AAFF071E03D00D9BC51AEDB203E0DB
:1095F0000D980AF015FAC5B23B1C5A1E9341DBB216
:109600009846F3185A46D31A9D4205DD2A48211C74
:1096100009F0AEFD092042E001AB98190D992A1C12
:1096200009F041FF0D9A521991460D92AD19EDB214
:109630004346002B0DD06E1CF6B26A46D37801AAC1
:1096400053559B001D4A98580AF0EAF948440D907A
:1096500000E02E1C0D980378002BBFD100E00126FE
:109660005346022B05D10C9B012B17D84A221449D3
:109670008B5401A8311C02F003FC041C002C0ED1F9
:10968000032149230E4AD15403F09AFFFFF71CFF30
:10969000201C04E0064802E0054800E004480FB042
:1096A0003CBC90469946A246AB46F0BD305D0200F8
:1096B000628000001C5D02005C5D0200285E02000A
:1096C000903B002038B5051C4923204CE35C033B4C
:1096D00058424341DCB2012906D8101C1C49221C07
:1096E00009F0AEFC00202FE0022922D1281C1949E4
:1096F0000AF084F9002823D0281C17490AF054F9ED
:1097000000281DD0281C15490AF078F9002812D02D
:10971000281C13490AF048F900280CD0114813E01E
:1097200049230A4AD15403F04BFFFFF7CDFE002036
:109730000AE00C4808E00021081C8C4204D0EFE746
:109740000321012CECD1002038BDC046903B002005
:10975000C0550200705D0200F8560200745D020000
:10976000785D02006280000000B585B0002902D05B
:10977000022903D020E0B423039312E000230093D6
:10978000029302236A46137003AB019369460122D8
:10979000FEF77CFD012802D1039B002B01DC084869
:1097A0000BE0039802F08CFB03214923054AD154B6
:1097B000FFF78AFE002000E0014805B000BDC0466A
:1097C00062800000903B002074DF704776DF7047B6
:1097D0007CDF704730B583B0031C141C012902D90B
:1097E000022909D032E01B48111C09F0C1FC1A48BB
:1097F000211C09F0BDFC27E0164D281C191C1F2256
:109800000AF050F903F0DCFE01AC23780F229343F9
:10981000012213430F221340102213432370281CEC
:109820000AF0FEF882B2201C291CFFF7D1FF83B298
:10983000181E0CD1FFF7C8FF01F06CFF074B9842D0
:1098400002D1002001F08EFC002000E0044803B0AB
:1098500030BDC046DC3B0020C85E0200FFFF0000B8
:109860006280000010B5141C012910D801F052FFCD
:10987000084A8318584243413120C01A211C09F07C
:1098800017FC0548211C09F073FC002000E0034888
:1098900010BDC0460100FFFFC85E020062800000EC
:1098A00008B500290DD101F035FF021C0020064B40
:1098B0009A4207D001F02EFF1321FFF787FF80B2F5
:1098C00000E0024808BDC046FFFF000062800000C3
:1098D00008B5002902D101F087FF00E0004808BD6B
:1098E00062800000F0B587B0061C0C1C151C02A895
:1098F0002949102209F0D7FD012C02D9022C20D0D1
:109900003EE001260024254F02E001340136F6B284
:10991000E3B2002B36D0381C291C09F029FCFF22A9
:1099200022401C3252001E4BD25A281C1D4909F0FD
:1099300087FB032EE9D91C48291C09F019FC0020DB
:1099400027E01A4C6D460A35271C0837301C01A940
:109950000A220AF05FF9019E0136002809D0AA1EEA
:109960001288904202DB2A88904201DD104810E004
:10997000208002340435BC42E8D103F021FE08E027
:109980000B4806E0064B1A8F281C064909F058FBC5
:10999000BBE707B0F0BDC046605E0200A055020004
:1099A000903B0020545A0200C85E0200C83B0020D1
:1099B0006280000008B5002901D0022903D10020EF
:1099C00001F0D0FB00E0014808BDC0466280000005
:1099D00008B5002903D1FFF7F7FE80B200E0014887
:1099E00008BDC0466280000010B582B0141C012979
:1099F00002D902290DD024E04823134AD05C30302C
:109A0000211C09F055FB1148211C09F0B1FB002075
:109A100018E00F4901AA09F051FF012802D1019B6A
:109A2000012B01D90B480DE0482207498A5C93427B
:109A300005D05A1E934148228B5403F0C1FD0020EB
:109A400000E0044802B010BD903B0020C85E020058
:109A5000545A02006280000030B591B0022942D110
:109A600000230F9301A901938B60CB604B6101230D
:109A70000B701F234B7007AB4B6002230B730FABB4
:109A80000B610222FEF702FC041C0138C0B201285F
:109A90002BD801AB5A78174D8B23EA54281C6C3015
:109AA00007A909F000FD02224923EA54022C05D13E
:109AB0000F9B012B1BD84A220E498B5403F080FDCB
:109AC000FFF782FE01F026FE0B4B984206D001F014
:109AD00021FE1321FFF77AFE002009E0002001F0AB
:109AE00041FB002004E0054802E0044800E0034890
:109AF00011B030BD903B0020FFFF000062800000ED
:109B0000A4DF7047A5DF7047A6DF7047F8B54F4662
:109B10004646C0B480468946171E15DD002600243F
:109B200063B29B004A469D58281C09F079FF021C2D
:109B30004046291C09F07CFF002807D00134E4B21C
:109B400066B2BE42ECDB01E000260024B7420BD037
:109B500063B29B004A46985809F062FF4246135C84
:109B60003D2B02D0FF2400E0FF2460B20CBC9046E5
:109B70009946F8BDF0B5474680B486B0051C0E1C6A
:109B8000171C1C1C05A9FEF7D7FA00281BD0214B77
:109B9000059A9A4203D1281C05A9FEF7E5FA059A11
:109BA00013BA0593032C06D9301C05A9042209F029
:109BB0007AFC201C2AE006AB191B301C221C09F081
:109BC00072FC201C22E0281C6946221CFEF71AFBAE
:109BD0008046011E0BD00020B94217D3444515D34F
:109BE000301C6946424609F05EFC40460EE0281CE7
:109BF00009F016FF031CC0B2A04200D9231CDCB23E
:109C0000301C291C221C09F04EFC201C06B004BC90
:109C10009046F0BDFFFFFF7F10B5141C002802D056
:109C2000012810D01EE0081C111C1022FEF7EAFAD1
:109C3000102819D100232375A3781B02E27813435F
:109C40002382002015E0131C1033081C191CFEF79A
:109C5000C5FA00280AD0238A002B09D001232375D6
:109C6000002006E0034804E0024802E0014800E06A
:109C7000004810BD62800000F0B5474680B48046C1
:109C80000E1C171E042F19D9002F23D00978002984
:109C900020D0154B1B6859184978682081430DD096
:109CA0000024682103E05D196D788D4306D00134EE
:109CB000A2420FD9355D002DF5D10BE0012F03D164
:109CC0000A48414609F054FA4046311C3A1CFEF756
:109CD000C7FB05E0301C01213A1C434609F04EFB4E
:109CE00004BC9046F0BDC04678290020A05E02006A
:109CF00008B504480021044A09F0DEFB03F060FCCB
:109D0000002008BD483C00200C070000F0B5574675
:109D10004E464546E0B486B0041C171C022972D199
:109D2000B8233D4AD35C04200A2B6FD0684600213B
:109D3000182209F0C1FB201C2C2109F053FE002839
:109D400003D0451C0023037000E0051C002C38D014
:109D500032488046814630E001342378202BFBD006
:109D6000201C41460222FFF7D1FE061E0EDB8300B7
:109D70004A46985809F054FEF6B2411C6118301C4E
:109D80006A46FFF749FF061E08D000E0244E381C43
:109D90002449221C09F054F9301C37E0281C2C21DE
:109DA00009F020FE002803D0431C0022027000E0CE
:109DB000031C002D05D02C1C1D1C2378202BCBD080
:109DC000CEE76E46338A002B1FD0134CB825605D5A
:109DD000824641005144C9006118BC316A4649CAF3
:109DE00049C149CA49C150460130605503F0E8FBFA
:109DF000625D381C0C4909F023F90C48391C09F044
:109E0000B7F9002002E0064800E0054806B01CBC97
:109E100090469946A246F0BD903B0020745F020038
:109E200062800000A45E0200545A0200C85E020074
:109E3000F0B557464E464546E0B48EB0041C151C9E
:109E4000022900D0DEE0B8237B4AD35C0420002B3B
:109E500000D1EBE0B923D35C1E2B00D1E6E001A8D2
:109E60000021342209F028FB201C2C2109F0BAFD26
:109E7000002803D0471C0023037000E0071C002CBF
:109E800000D18BE06D4A904691466D4A924680E043
:109E900001342378202BFBD0201C41460622FFF7FB
:109EA00035FE061E67DB83004A46985809F0B8FD68
:109EB00001302018F3B2052B5DD89E00524693590D
:109EC0009F4669460631FEF789F9002853D001AB59
:109ED0005B88002B4FD0012201AB1A759FE002A9CD
:109EE0001022FEF78FF9102845D101AB00221A7518
:109EF0009A791202D9790A435A8090E0694603316F
:109F0000FEF74AF9002836D06B4603331B78002B46
:109F100031D06846053069460331012209F0C3FAA1
:109F20007DE069461931FEF737F9002823D001ABEF
:109F30005B7D013B132B1ED871E069461A31FEF799
:109F40002BF9002817D001AB9B7D013B132B12D8B6
:109F500065E001AB5A7D002A5CD19B7D0122002B7C
:109F600002D1142300E0131C07A9FFF703FE01AB85
:109F7000D875002853D1281C3249221C09F060F8FA
:109F8000314853E0431C00220270002F06D03C1CD5
:109F90001F1C2378202B00D17AE77DE701AB9B7D46
:109FA000002B02D101AB5A7D9A7501AB5B7D002B72
:109FB0002AD001AA927D9A4228D301AB5B88002B5C
:109FC00026D01D4CB823E35C013BDBB29846B92692
:109FD000A75D34225743E019AD30FF3001A909F0E5
:109FE00062FAE719AD37FF3743463B70A35D013393
:109FF000A35503F0E5FAA25D281C144909F020F8E6
:10A00000002013E0104811E00F480FE00E480DE06B
:10A010000D480BE001AB9B7D002BA5D1A3E7381CBD
:10A020002C2109F0DFFC031EAFD0ABE70EB01CBC47
:10A0300090469946A246F0BD903B0020885E020003
:10A04000705E0200B85E020062800000C05502002F
:10A05000F0B5474680B48AB0041C151C022900D014
:10A0600096E0574905AA09F029FC002800D191E0A3
:10A07000059B002B00DC8FE0B92252498A5C934299
:10A0800000DD8BE0013B34267343CE18AD36FF363E
:10A09000201C2C2109F0A6FC041E0BD1311C183108
:10A0A000F27D281CFFF7E8FD4748291C09F060F8FD
:10A0B000002081E00378002B72D001F02BFB051CFF
:10A0C000371C1837601C727DB37D391CFFF752FDB9
:10A0D0006A461080727D824256D8B27D824255D344
:10A0E000F07503F06DFAB38D0020834264D0374BD6
:10A0F0009D4237D0727830231A4233D06B46588055
:10A100000233318E06AA0224148050805360281C2A
:10A11000FFF7F8FC7478E406E40F04D06B460233D2
:10A120001B88D8073ED473789A061BD56B4602333A
:10A130001B88980716D501AA9046101C00211022F2
:10A1400009F0BAF9B38D4046038063425C410134A3
:10A1500001A98C7000AA8A60CF60281CFFF7D4FC8C
:10A1600080B229E0727DB37D00209A4224D0B18D67
:10A1700008AA684603881380002353805360281C74
:10A18000FFF7BEFC80B217E0114815E0104813E05D
:10A190000F4811E00E480FE00D480DE00C480BE0B1
:10A1A0000B4809E001AC201C0021102209F084F9C1
:10A1B000B38D23800124CBE70AB004BC9046F0BDE8
:10A1C0007C5A0200903B0020C85E0200FFFF0000A6
:10A1D00062800000F0B55F4656464D464446F0B4F6
:10A1E00083B0171C00296FD13E4B1B689A426DD07B
:10A1F000B8233D4AD35C002B6AD0002692463B4BE5
:10A2000099463B4B9B467400A419E4005444BC346B
:10A21000721C238A381C494608F012FF237D012B4B
:10A2200008D05846391C08F0A3FF381C211C102206
:10A23000FEF716F92F48391C08F09AFFB9232A4A6D
:10A24000D35C002B38D00024904634256543454428
:10A25000AD35FF352B78B34227D1621C6B88381C93
:10A26000254908F0EDFE2B7D012B0CD02348391C2D
:10A2700008F07EFF291D381C1022FEF7F1F8204857
:10A28000391C08F075FF6A786B7DA97D0091381C38
:10A290001C4908F0D5FE291C1831EA7D381CFFF74F
:10A2A000EBFC1448391C08F063FF0134E4B2B92315
:10A2B0000D4AD35CA342C8D80136F6B2B8230A4A85
:10A2C000D35CB3429FD805E00F4804E00F4802E09A
:10A2D000002000E0002003B03CBC90469946A24616
:10A2E000AB46F0BDEC3A0020903B0020CC5E020073
:10A2F000E05E0200C85E0200EC5E0200045F020045
:10A30000A0550200105F0200628000006380000020
:10A31000F0B5474680B4011C1D4808F029FF1D4BCD
:10A320001D4AD058410CC003184B174A08F0F4F9E5
:10A33000061C194A9046174F144D134C03F030F980
:10A3400000280CD04246D359590CD803221C2B1C90
:10A3500008F0E2F9801B2C23FF339842EED90D4B15
:10A360000D4AD058410CC003084B074A08F0D4F9F5
:10A37000861B312E03D83220801B08F0C5F804BCA0
:10A380009046F0BDC046C046E880000000000000D6
:10A39000A85502000405000000100140C046C04658
:10A3A000F0B5474680B494B080460F1C151C80233E
:10A3B0005B055A6E1B6E0FAC201C264909F05CFA37
:10A3C00003F064FB021C0AAE301C234909F054FA66
:10A3D00000230293214B039304960594204B06938C
:10A3E0000793204B089303F06BFB0990002F02D0DA
:10A3F000022F0ED026E003AC0AAF1B4E01CC291C65
:10A4000008F0B6FE301C291C08F0B2FEBC42F5D1A3
:10A410001AE04046154901AA09F050FA002803D075
:10A42000019B5A1E062A01D911480EE09B0002AA80
:10A430009858291C08F09CFE0B48291C08F098FE2F
:10A44000002002E00A4800E0002014B004BC90465E
:10A45000F0BDC0467C5F0200885F0200945F02008E
:10A46000A05F0200A85F0200C85E0200545A02000A
:10A470006280000038B5051C141C012902D902298C
:10A480000CD01FE0124B187A3030111C08F010FE6F
:10A490001048211C08F06CFE002018E009F0C0FAFA
:10A4A000012811D12B78303BDBB2012B0ED8084AA2
:10A4B000127A00209A420AD0054A137203F080F8FB
:10A4C000002004E0044802E0034800E0024838BDF0
:10A4D000903B0020C85E02006280000008B50029A1
:10A4E0000AD1101CFFF714FFBFF34F8F034A044B30
:10A4F000DA60BFF34F8FFEE7024808BD0400FA059B
:10A5000000ED00E06280000010B5141C00290ED19F
:10A5100003F0BAF801F068F9201CFFF7F9FEBFF369
:10A520004F8F044A044BDA60BFF34F8FFEE70348B6
:10A5300010BDC0460400FA0500ED00E06280000096
:10A5400008B5002906D1101CFFF7E2FE01F0D8F98A
:10A55000002000E0004808BD6280000010B500291E
:10A5600023D1134B1B689A420CD101F003FE104B10
:10A570001C6801F0F9FD021C201C0E4908F060FD6A
:10A58000002013E000F0B2FB0123181AC0B200F063
:10A59000B3FB094B1B689C6800F0A8FB021C201C45
:10A5A000044908F04DFD002000E0044810BDC046FD
:10A5B000EC3A0020C0550200DC2900206280000037
:10A5C00010B582B0141C022918D1114901AA09F052
:10A5D00075F9002814D00199072913D8022913D03E
:10A5E000C9B20220002202F02DFA02F065FA021C24
:10A5F000201C084908F024FD002006E0064804E07D
:10A60000054802E0044800E0034802B010BDC0461F
:10A61000545A0200B45F02006280000010B5141C9E
:10A6200000290AD102F036FA02F05AFA021C201C64
:10A63000034908F005FD002000E0024810BDC046B7
:10A64000B45F02006280000039DF70473ADF704774
:10A6500052DF704710B582B0141C012918D801A828
:10A66000FFF7F6FF002811D1019BD917890FCB18EE
:10A670009A10032003405B1A9900CB1899005B18CD
:10A68000201C054908F0DCFC002002E080B200E05C
:10A69000024802B010BDC046E05F020062800000C8
:10A6A00010B582B0141C02292AD101235B42019308
:10A6B000174901AA09F002F9002823D0019B1F2B9A
:10A6C00022D8C133FF339B0080218902A022D2050A
:10A6D00099501048211C08F04BFD322007F014FF60
:10A6E0000020002100F00EFB0120002100F00AFBF9
:10A6F0000121A023DB008022D205D150002004E0FC
:10A70000054802E0044800E0034802B010BDC0461E
:10A71000545A0200A855020062800000F0B5474676
:10A7200080B486B09046002902D0022904D056E0B9
:10A7300004226B46DA750BE069461731FDF72CFDF4
:10A7400000284ED06B4617331B78013B0F2B4AD89D
:10A7500000256C46033400276E4617362770201CF0
:10A76000FFF772FF83B2002B19D12378002B12D090
:10A770003178491B0A1CC9B2994200D91A1CD1B2BE
:10A78000227001AB5819FFF761FF80B200282BD16E
:10A790002378ED18EDB23378AB42DFD801E0181C16
:10A7A00022E01348414608F0E3FC6B4617331B7860
:10A7B000002B0ED000240F4E6D46173501AB1A5DED
:10A7C0004046311C08F03CFC0134E4B22B78A34233
:10A7D000F4D80948414608F0CBFC002004E00748C3
:10A7E00002E0064800E0054806B004BC9046F0BD13
:10A7F000A05E020088550200C85E02006280000070
:10A8000010B582B0002902D0022909D034E01C4BD7
:10A810009B7A101C1B491A1C08F012FC00202CE02B
:10A8200069460731FDF7B8FC002804D06B460733B2
:10A830001B78012B01D914481FE0114A927A9A42E1
:10A8400018D0002B03D10120002100F05BFA6C46E8
:10A85000E2790B4B9A7202F0B3FEE379012B09D136
:10A8600000F058FF094BC1184B1E9941C9B2012095
:10A8700000F048FA002000E0034802B010BDC046D6
:10A88000903B0020C0550200628000000100FFFFE5
:10A89000F0B5474680B492B094460CAA354B141CD0
:10A8A0001D1CC4CDC4C4C4CDC4C409AC1833C4CBAE
:10A8B000C4C4002902D002290CD055E02E4B597A8D
:10A8C00089000CABCB5860462C491A1C08F0B8FB29
:10A8D00000204AE0012301930023029303A90623E9
:10A8E0000B704B7001AA4A600CAA8A600B73032399
:10A8F0004B7302AB0B6109AB4B610222FDF7C6FC47
:10A9000000282FD0012803D9019B052B2AD102E072
:10A91000019B052B26DC184A527ADBB29A4208D0FA
:10A920000020002100F0EEF9134B019E5E7202F050
:10A9300047FE019F052F13D1029B022B0AD1002055
:10A9400000F0EAFA0123011C5940C9B2002000F0CE
:10A95000D9F905E05A1E9341D9B2002000F0D2F98E
:10A96000002002E0064800E0054812B004BC904612
:10A97000F0BDC046BC5F0200903B0020EC5F0200CF
:10A9800062800000F0B54F464646C0B483B0161C46
:10A99000002902D0022924D038E003240125224BCB
:10A9A00098460027214B9946E0B201F0E1FF0028CC
:10A9B0000BD0002D03D14846311C08F0D9FB301CC8
:10A9C0004146221C08F03CFB3D1C0134782CEBD1A5
:10A9D0000020002D22D11648311C08F0C9FB0020B0
:10A9E0001CE000230193134901AA08F067FF002827
:10A9F00003D00198C31E742B0AD90F480EE0301CF7
:10AA00000E49019A08F01CFB002007E00A4805E007
:10AA1000C0B201F0ADFF0028F6D0F0E703B00CBCE7
:10AA200090469946F0BDC04628600200A05502003D
:10AA3000C85E0200306002006280000034600200E4
:10AA4000011C00201F2919D80D4B1878002810D0A0
:10AA50000C4B1B788B420ED00B4B0138C0B2181830
:10AA600003E01A7801338A4207D08342F9D10120EA
:10AA700004E0012002E0002000E000207047C04612
:10AA80004C600200406002004160020030B583B0BB
:10AA9000141C022941D1264901AA6B4608F00EFF79
:10AAA000012805D002283AD1009D012D39D812E0A5
:10AAB000A223DB00A022D205D358019AD340012063
:10AAC00018403030211C08F0F3FA1A48211C08F015
:10AAD0004FFB00202AE0184BA022D205D358019C3E
:10AAE000E340DA071FD5201CFFF7AAFF00281CD07F
:10AAF000002D08D10123A3401C1C104BA022D2051D
:10AB0000D450002012E00123A3401C1CA123DB0031
:10AB1000A022D205D450002008E0094806E00848E9
:10AB200004E0074802E0064800E0054803B030BDF5
:10AB3000F85C0200C85E0200140500000C0500006D
:10AB40006280000030B583B0141C022964D13849FA
:10AB500001AA6B4608F0B2FE012805D002285DD19B
:10AB6000009D032D5CD823E0324BA022D205D258A1
:10AB7000019BDA400120D1070FD49B00A022D2050F
:10AB80009B18E022D2009A580320510705D4E022F6
:10AB9000D20098580007C00F400000903030211CB0
:10ABA00008F086FA2448211C08F0E2FA00203CE074
:10ABB000019C201CFFF744FF002833D0012D08D052
:10ABC00002DC002D0ED02FE0022D13D0032D1AD061
:10ABD0002AE0C134FF34A4000322A023DB05E250A5
:10ABE000002022E0C134FF34A4000020A023DB05B4
:10ABF000E0501AE0C134FF34A4000C22A023DB058E
:10AC0000E250002011E0C134FF34A4000422A0234C
:10AC1000DB05E250002008E0084806E0074804E0B1
:10AC2000064802E0054800E0002003B030BDC04601
:10AC3000F85C020014050000C85E0200628000009B
:10AC400010B586B0022925D1174905AA04AB08F032
:10AC500035FE022820D1059C201CFFF7F1FE0028BC
:10AC60001CD0049A642A1BD8684600210E2208F0E2
:10AC700023FC01236A46137054701371022353712D
:10AC80009372684601F04CFF0020049902F038F8F6
:10AC9000002006E0054804E0044802E0034800E024
:10ACA000024806B010BDC046F85C02006280000099
:10ACB00048DF70477047C046830702D50122044B26
:10ACC0001A708B0702D50022014B1A707047C046DC
:10ACD000902A0020014B18887047C0468E2A002019
:10ACE000014B18887047C04654300020014B18783B
:10ACF0007047C046902A0020014B18707047C0462C
:10AD0000902A0020012805D10E4B9B7A1320002B9E
:10AD100004D115E0434243411320C01A002908D052
:10AD200001238340181CA123DB00A022D205D050B0
:10AD300006E001238340181C034BA022D205D0500B
:10AD40007047C046903B00200C05000030B58DB028
:10AD5000A823DB005C4AD15800235C4A914204D806
:10AD6000A823DB00584AD3589BB2594A1380A82322
:10AD7000DB00584AD1580023544A914204D8A823F2
:10AD8000DB00544AD3589BB2534A138000230093EC
:10AD9000202008210622514B03F0AEFC002803D0EE
:10ADA0000021002200F0E2FB02204D4903F048F8A8
:10ADB000002803D00021002200F0D8FB09A80B23B3
:10ADC000037009234370082383700A23C37001238F
:10ADD000037100224271434B83606B46DA810E336C
:10ADE000414A0492802252000592404906910792FE
:10ADF000009304A93E4A012303F018FF80B2002803
:10AE000060D13C4B1B689868002108F0A5FC092024
:10AE100039494822002304F0E3F8002803D0002138
:10AE2000002200F0A3FB354804F00AF980B20028A4
:10AE300048D105F07FFF80B2002843D102F0C0FC6A
:10AE400000283FD1A023DB050C21E822D200995035
:10AE5000A222D2009B58DA030BD4294807F054FBF6
:10AE6000A223DB00A022D205D358DA0301D402F0DA
:10AE70000BFCA024E4050C25224BE55001F0A0FDBD
:10AE8000214BE55068462330022102221F4B03F07C
:10AE900015F880B2002815D16B462333187803F0DB
:10AEA00039F8A222D200A1588907C90F184A117097
:10AEB0000322E921C9006250164962500120002195
:10AEC000FFF720FF0DB030BD00900040FEFF0000F6
:10AED0008E2A002000A0004054300020DC2A0020F0
:10AEE0002C2F002000502700542F00202C2E002053
:10AEF000B5AC0100DC290020942A0020A10B02003F
:10AF0000DC0500001C07000004070000B9AC0100CC
:10AF1000902A00204C070000431E98411230044B39
:10AF2000A022D205D358C340181C012318407047F3
:10AF300004050000014B587A7047C046903B002042
:10AF4000031C0020002B08D1A223DB00A022D20585
:10AF5000D058C009012358401840704708B5FFF782
:10AF6000A7FE08BD00000000F8B54F464646C0B435
:10AF7000071C254D254C2859410CC003214B204A64
:10AF800007F0CAFB061C2859410CC0031D4B1C4A84
:10AF900007F0C2FB801BF423FF33984216D8A94662
:10AFA000A046184D164C381C03F08CFF00280DD01D
:10AFB0004A4642441368590CD803221C2B1C07F044
:10AFC000ABFB801BF423FF339842ECD90F4B0E4AA6
:10AFD000D058410CC0030B4B094A07F09DFB861B60
:10AFE000381CF423FF339E4203D903F077FF01207E
:10AFF00040420CBC90469946F8BDC046C046C0468B
:10B00000E88000000000000000100140040500007E
:10B0100000B583B06846073003F040FF002802D136
:10B020006B46D87901E00120404203B000BDC04624
:10B0300000B583B06946073103F060FF002802D1F4
:10B040006B46D87901E00120404203B000BDC04604
:10B0500072DF704773DF704774DF7047A0DF70479F
:10B0600060DF704768DF704708B505F099FD08BDDF
:10B0700038B50024064D2B19DA79002A03D01B6954
:10B08000002B00D0984714343C2CF4D1002038BD5C
:10B090000029002030B58FB002282CD869463731FE
:10B0A000164BDB7A0B700CAA154B84002518AD00EB
:10B0B0005D19AD8815802418A4001B199B79937025
:10B0C0000023009302930493059306930793089338
:10B0D00009930A930B9306236C46E37001910123B5
:10B0E00023810392022800D1A3706846002104F056
:10B0F000CBF980B200E003480FB030BD903B002098
:10B10000002900206280000030B597B010AC022307
:10B11000237015236370124D291C6C316846423030
:10B12000152208F0C0F90DAA8223EB5A13801723C9
:10B1300093800F9401A80023019343608360C36050
:10B14000036143618361C36103628362C362042359
:10B15000C3704262002104F097F980B217B030BD8D
:10B16000903B002070B59AB0061C14AC00231493D9
:10B1700015931693179319934E4DA88FC000052170
:10B1800007F068FA2082EB8F6382002E04D014ABA4
:10B19000494A1A8200225A824923464AD35C012B2B
:10B1A0001BD0002B04D0022B0DD0032B20D07DE030
:10B1B000404B187D431E98414000FFF76BFF031C76
:10B1C000002B48D073E03D48C17F00220023FFF7E9
:10B1D0003FFF83B2181E3ED069E014ABA0221A8252
:10B1E00000225A82FFF790FF031C002B33D05EE051
:10B1F00000F08AFE002803D00120FFF74BFF2AE071
:10B2000001AC002303930493059306930793032350
:10B21000237063702A4B63802649A5228A5C05321D
:10B22000227116226271E38010232372CB7A63723B
:10B23000A63168460E30122208F035F921782379BC
:10B24000C9180231C9B2201C00220023FFF700FFF9
:10B2500080B200282BD10023089309930A930B9303
:10B260000C930D930E930F931093119312931393CA
:10B27000144808F0D5FB00231D2282425B410133B4
:10B2800008AA13700F4808F0CBFB00231D2800D933
:10B290001D2308A94B70002004F0F6F883B2181E95
:10B2A00005D114A8FFF7D6FE80B200E007201AB03F
:10B2B00070BDC046903B00206A030000FC3B0020AC
:10B2C000AAFEFFFFDC3B0020F0B55F4656464D4628
:10B2D0004446F0B48BB008A8724B021C12CB12C2C9
:10B2E000FFF7BEFE83B2181E00D0D3E06E4803F015
:10B2F0009DFE83B2181E00D0CCE06C4803F0A0FE87
:10B3000083B2181E00D0C5E080235B055B6B022B67
:10B3100011D101AC201C0021082208F0CDF82278C0
:10B320000123134323700120211CFFF79BFE80B2F1
:10B33000002800D0AEE000F05BF900F099FA01F0CF
:10B340008FF85B4B5B4A117D2F2299541C1C1E1CED
:10B350003C360127251CE379002B0FD020680028FC
:10B3600001D1A77105E000F0A9FFA071012800D864
:10B370008FE0AB68002B01D0A87998471434B44211
:10B38000E8D1B8234B4AD35C002B78D000269346F3
:10B39000914673009B19DB005B44BC339A461B7DCE
:10B3A000012B06D0504600F089FF5346187501283E
:10B3B00065D95446238A69460B80237D8B70012012
:10B3C00052461232FFF74AFE80B2002857D1B92305
:10B3D000384CE35C002B4BD000253427A0463C1CA6
:10B3E0006C434C44AD34FF342378B34239D1237DD0
:10B3F000012B05D0201D00F061FF2075012830D9F8
:10B4000001A80023019343608360C360036143612B
:10B4100083615246538A0380637883706388838094
:10B42000237D8371037A0322934302221343037221
:10B43000231C1833C360637D0382A37D4382E37DB5
:10B440008382C3780F229343012213430F221340B8
:10B4500010221343C370211C2C3100F059FF002827
:10B460000DD10135EDB2B9234446E35CAB42B6D809
:10B470000136F6B2B8230F4AD35CB34289D84823C9
:10B480000C4AD35C0020002B04D0FFF76BFE002099
:10B4900000E007200BB03CBC90469946A246AB4664
:10B4A000F0BDC04650600200B9B4010069B00100AF
:10B4B00000290020903B002070B586B0051C00F0EC
:10B4C00057F9281C05F0AAF9281C00F0EDF92B8883
:10B4D000112B1FD0192B27D0102B3BD1012001217C
:10B4E000FFF710FC4A231E4AD35C002B32D0002306
:10B4F00000930193029303930493059303236A46F5
:10B500001370A02313826846FFF7A4FD80B20028C1
:10B5100020D022E001200021FFF7F4FBFFF79CFD83
:10B520000020FFF71FFE15E0AB79002B12D1FFF7CB
:10B5300093FD0120FFF716FE0CE03319DA79002A9B
:10B5400004D0DB68002B01D0281C984714343C2C15
:10B55000F3D102E00024034EEFE706B070BDC04611
:10B56000903B00200029002001207047BFF34F8F3F
:10B57000024A034BDA60BFF34F8FFEE70400FA057F
:10B5800000ED00E077DF704778DF70477ADF7047C3
:10B590007CDF704784DF7047A7DF70477047C04685
:10B5A00008B5021C0B78122B10D0D9B2122902D880
:10B5B000112B05D016E0142B0FD0212B0DD011E04C
:10B5C0000948111C042207F06EFF0BE0064804F046
:10B5D00025FC064804F022FC04E00448111C042267
:10B5E00007F061FF002008BD6030002058300020C7
:10B5F00030B58BB03F4804F011FC3F4804F00EFC1E
:10B60000FFF7B2FF40080124204001AB187003ABE4
:10B6100000220592394A039201221A710D225A71B1
:10B6200007229A711022DA71FFF79EFF044209D0B7
:10B6300001A804F04DFA80B2002803D1304803A9D4
:10B6400004F0E2FA2F4B0B201856FFF79BFF83B252
:10B65000181E4DD1FFF788FF031C0020D90747D5DE
:10B660006A4613780F229343012213430F2213409B
:10B67000102213436C462370234C201C08F0D0F991
:10B6800082B26846211CFFF783FF83B2181E2FD1B8
:10B690001C4B1B7D0020002B00D01C48FFF774FFC3
:10B6A00083B2181E24D101AC164D288F80000521CD
:10B6B00006F082FF2080688F8000052106F07CFF65
:10B6C00060800023A380C8235B00E380201CFFF779
:10B6D0005DFF83B2181E0BD103A80D4A031C32CAAA
:10B6E00032C332CA32C312681A6005F051F880B210
:10B6F0000BB030BD6030002058300020A1B50100F3
:10B700005C300020903B0020DC3B0020C1030000A7
:10B7100080600200014B18887047C0463C29002019
:10B72000014B00201856704756300020054B1B78FF
:10B73000FF2B05D0034B9878FF38431E984100E05B
:10B74000002070475830002000B585B000230093DA
:10B7500001930293039301236A46137003486946D9
:10B7600004F0F0FA80B205B000BDC04658300020A9
:10B7700010B5041CFFF7F8FEC30702D5201C04F027
:10B780004DFC2388182B21D004D8102B07D0112B67
:10B7900013D021E01A2B15D0522B17D01CE0A28811
:10B7A0000E4B1A80FFF7E0FEC30715D50B4B188828
:10B7B00001210022FFF7EEFE0EE001225242074B6C
:10B7C0001A8009E0A279064B1A7005E0034B18882D
:10B7D0000C21044AFFF7E0FE10BDC0463C290020C2
:10B7E00056300020FFFF000008B5FFF7BDFEC3077D
:10B7F00004D5034804F04CFA80B200E0014808BDCB
:10B800005C3000206380000008B5011C054B1A88DD
:10B810000820054B9A4203D0044804F00DFB80B287
:10B8200008BDC0463C290020FFFF0000603000201A
:10B8300044DF704711DF704713DF704774DF7047D4
:10B8400076DF704708B5FFF765FF084B984204D0D4
:10B85000FFF760FF1321FFF7F3FFFFF7EFFF012072
:10B860000021FFF74FFA04F0D1FF08BDFFFF0000F1
:10B8700010B584B0FFF72EFA01A90880074B4B6082
:10B8800000238B60064805F065FD84B2002C02D1D0
:10B89000044805F04DFD201C04B010BDC11102008C
:10B8A0006430002045B8010008B5011C014805F0CE
:10B8B000C9FE08BD64300020064C064D061C064F2C
:10B8C000F0B40024002500260027F0B40348004708
:10B8D00070470000FFFFFFFF00000021F9FFFFFF9E
:10B8E000016881F3088840680022EFF305839A42DB
:10B8F000E2D1024CA646004770470000FFFFFFFF61
:10B9000010B5FFF79FFFB120FFF792FF83B2181E1B
:10B9100019D1FFF78FFF83B2181E14D10A4B586953
:10B92000FFF78AFF84B2201E0DD1084B8021C90386
:10B93000C02252009950196880229950024B5869D0
:10B94000FFF7CEFF201C10BD0010001000E100E04A
:10B9500074DF704777DF7047A0DF7047A4DF704760
:10B96000A8DF704730B589B0051C844C201C00212D
:10B970004C2207F0A1FD0023A370814A137007A990
:10B9800082239B010B808D700120221CFFF7E4FFB6
:10B9900083B2181E00D0EEE0019302930593069344
:10B9A00076490B886846038007AB9B788371012337
:10B9B0001122C270734A82800622027202228270B1
:10B9C0008A1C0392838243820382043100F0A0FC2C
:10B9D000031C002B00D0CEE06B4B68468380037ABB
:10B9E0000322934302221343037208238370674B9D
:10B9F00003930123038210234382002383825F4940
:10BA00000C3100F085FC031C002B00D0B3E0604B30
:10BA100069468B800B7A03229343012213430B72F6
:10BA2000002308228A700393012268460A821022AA
:10BA30004A828B825149143100F06AFC031C002BAE
:10BA400000D098E0534B68468380027A03239A43E0
:10BA500002231A4302720822134383704E4B03934E
:10BA60000122028212224282A63BA5229B5C838293
:10BA700042491C3100F04CFC031C002B7BD1474B8E
:10BA80006A469380127A03239A4302231A43684634
:10BA90000272082213438370414B03930123838274
:10BAA000438203823549243100F032FC031C002B11
:10BAB00061D13C4B69468B800A7A03239A43022367
:10BAC0001A430A72082213438B70374B03930423E3
:10BAD0008B8268464B820B8228492C3100F018FC7F
:10BAE000031C002B47D1314B6A469380127A032303
:10BAF0009A4302231A436846027208221343837052
:10BB00002B4B039301238382438203821B493431ED
:10BB100000F0FEFB031C002B2DD1264B69468B80C9
:10BB20000A7A03239A4302231A430A7208221A4309
:10BB30008A70214A03928B8268464B820B820F499E
:10BB40003C3100F0E5FB031C002B14D11B4B6A4673
:10BB50009380127A03239A4301231A4368460272A0
:10BB60000822827000220392838243820382034967
:10BB7000443100F0CDFB09B030BDC0469430002008
:10BB8000E830002081200000822000001C3C0020C2
:10BB90008320000084200000363C00208520000027
:10BBA0002D3C002086200000303C00208720000033
:10BBB000343C002088200000CC3B0020892000007D
:10BBC000F0B5474680B484B0041C0388512B00D0E4
:10BBD00007E18379022B00D003E1028B834B1B88A2
:10BBE0009A4200D0FDE0837A012B00D0F9E0038A6D
:10BBF0007F481A1892B2012A26D87C4A9278002AE5
:10BC000016D09C237B4AD25C238C934200D0E0E088
:10BC1000201C2230784907F037FC002800D0D8E0FB
:10BC2000228A7349521853425A41704B9A70C6E0A7
:10BC3000724A934200D0CCE0238C013B9BB200229D
:10BC40000E2B00D8ADE0C4E0684B9B78002B00D0F1
:10BC5000BFE0B4E0258C00239D420DD1BFE0218CD4
:10BC6000A523644AD15401F0ABFC0022644B1A7046
:10BC7000B5E001F0A5FCB2E020261022944604278E
:10BC8000B846E21820329178CAB2101CB04340B2D4
:10BC900028300DD0101C6746B84340B2143007D08E
:10BCA0004046824352B2103202D0814300D093E02A
:10BCB0000133DBB29D42E4D8A4234E4AD35C9D42BB
:10BCC00000D88CE0E31820339D78131C0B229A5681
:10BCD0006BB29A4200D182E0181CFFF73BFE80B2A3
:10BCE000002879D1434BDD7201F06AFC77E0222312
:10BCF000E35C032B70D8A4223E498A5C9A426ED042
:10BD0000CB1898331D7ACA7A52B26BB29A4266D077
:10BD1000181CFFF71FFE80B200285DD1354BDD7285
:10BD200001F04EFC5BE06846211C2231022207F044
:10BD3000BAFB69460B88191C143989B2314A914201
:10BD40004AD82C4A928F9A4249D001F039FC46E0F9
:10BD5000284D281C8C3000212C2207F0ADFB10222E
:10BD60009C23EA540422A023EA54FC22A223EA548E
:10BD7000F422A323EA540122A423EA540A22A5238D
:10BD8000EA54281CA63020490B2207F08CFB281C03
:10BD9000B1300021072207F08FFB01F011FC1EE0FB
:10BDA00000220023009301930293039302236F4622
:10BDB0003B70BA80A0886946FFF7D2FD11E0238A64
:10BDC00012495B189AB2052AEAD89300104AD35850
:10BDD0009F4684225200E4E784225200E1E70022D9
:10BDE000DFE704B004BC9046F0BDC04694300020AC
:10BDF0007EDFFFFF903B00201C3C002082200000E3
:10BE0000E8300020EC270000B46002007CDFFFFF78
:10BE10009C6002000000000008B5134B1B78002B4B
:10BE20001BD0124B124AD058410CC0030D4B0C4A88
:10BE300006F072FC0F4B1A68801A5B6898420CD3AC
:10BE40000022094B1A70FFF783FDFFF763FC0A4BD2
:10BE5000984202D10020FFF785F9002008BDC046B6
:10BE6000E880000000000000E83000200405000029
:10BE700000100140E0300020FFFF0000C046C04637
:10BE800030B583B0031C0C1C0B4D281C191C221C44
:10BE900007F009FBA63DA523EC54FFF73BFC074B3D
:10BEA000998B0023009301936B461C806A46FFF731
:10BEB00055FD80B203B030BD363C002094300020E8
:10BEC00010B5002811D001220B4B1A700B4CFA232D
:10BED0009B00584360600A4B0A4AD058410CC0038B
:10BEE000044B034A06F018FC206010BDC046C04653
:10BEF000E880000000000000E8300020E030002072
:10BF00000405000000100140014B18787047C0463E
:10BF1000E8300020A0DF7047A6DF704730B589B059
:10BF2000051C2F4C201C0021282207F0C5FAA57003
:10BF300007A901230B808D700120221CFFF7EAFF67
:10BF400083B2181E4AD101930293059324490B88AA
:10BF50006A46138007AB9B78937102231372012307
:10BF60001382142353822123D3700323938010233D
:10BF700093700B1C143303931A4B069304316846D9
:10BF800000F0C6F9031C002B28D102236A469380D7
:10BF90000823937000230393134B069368461049BC
:10BFA0000C3100F0B5F9031C002B17D10F481049D4
:10BFB00007F03AF8031C0F4A10600520002B0DD043
:10BFC000181C002107F0C8FB0B4801F069F80B486A
:10BFD00001F066F800220A4B1A70002009B030BD4B
:10BFE000EC300020C8600200CC600200D06002008B
:10BFF000D8600200EC3A0020402900205829002097
:10C00000E930002000B583B006486946073100F0EA
:10C0100067FF002802D06B46D87901E0012040423A
:10C0200003B000BD5829002000B583B0011C0748AB
:10C030006A46073200F0B2FF002802D06B46D8797A
:10C0400001E00120404203B000BDC0465829002055
:10C05000014B188980B27047582900200000000069
:10C06000F0B583B06B46D8711D4B1E4AD058410CB9
:10C07000C0031A4B184A06F04FFB061C1A4F174D07
:10C08000154C381C6946073100F0B4FF00280CD16C
:10C09000134B144AD358590CD803221C2B1C06F0FE
:10C0A0003BFB801B114B9842EBD90D4B0D4AD058EE
:10C0B000410CC003094B084A06F02EFB861B0B4BB4
:10C0C0009E4202D86B46D87901E00120404203B07D
:10C0D000F0BDC046C046C046E88000000000000039
:10C0E000040500000010014040290020B70B0000AB
:10C0F00070B50388012B1FD0502B2DD1C288174B50
:10C100009B899A4228D1C38B002B0CD00024144E5B
:10C11000851D29191A31301C00F06CFF0134A4B2BE
:10C120002B8BA342F5D8FEF705FF022814D100207F
:10C130000121FEF7E7FD0FE0027A0A4B1B789A42D5
:10C140000AD1FEF7F7FE022803D100200021FEF7F6
:10C15000D9FD0022034B1A7070BDC046EC300020A0
:10C160005829002014310020014B18787047C04630
:10C17000E930002008B5064B1A7801218A1A1A7096
:10C18000044800F08DFF044800F08AFF08BDC04657
:10C19000E93000204029002058290020000000003C
:10C1A00010B586B0FFF7B6FA394B98420DD1394831
:10C1B00000F076FFFEF7BEFE031C0020022B5FD1CD
:10C1C0000021FEF79FFD00205AE0334B334AD05840
:10C1D000410CC0032D4B2C4A06F09EFA304B1968D7
:10C1E000421A5B6800209A424AD32B4B2B4AD05804
:10C1F000410CC003254B244A06F08EFA284B1860E8
:10C20000FEF798FE022811D1224B1B899BB2002B0E
:10C2100004D0244B1B899BB2002B07D1FEF78AFE6A
:10C22000022803D100200021FEF76CFD19481E49A9
:10C230001431142200F098FE031C6A46D0800020BE
:10C24000002B1DD0194A1370FEF774FE022803D18B
:10C2500000200121FEF756FD02AC00230293039358
:10C26000114B9A8822800122A2706A4606320492FB
:10C2700014330593FFF74EFA211CFFF74DFE80B2F1
:10C2800006B010BDC046C046E880000000000000B7
:10C29000FFFF0000402900200405000000100140BD
:10C2A0005029002058290020EC30002014310020B3
:10C2B000A2DF704763DF704764DF704710B586B058
:10C2C00000226B46DA7100235942C218D47B02AABD
:10C2D0008C54013B1A1C1032F6D102A80023437380
:10C2E000037369460731FFF7E5FF83B20F2B08D1CF
:10C2F000102002A96A46FFF7DFFF6B469A78DA71D1
:10C3000002E00020002B01D16B46D87906B010BDA9
:10C31000F0B5474680B490B0041C0D1CC378002BC8
:10C3200008D10F229343012213430F2213401022FE
:10C330001343C370484B5B7B002B09D1E3780F227A
:10C340009343012213430F22134010221343E3703F
:10C35000A37830221A4217D00FAE301C00210322DE
:10C3600007F0AAF8B3780622934302221343B3706E
:10C3700033780F229343012213430F2213401022DC
:10C3800013433370E378737008AA00200890099073
:10C390000A900B900C900E90A3781370002230211D
:10C3A000194200D00FAA0D9207AA0023138011236F
:10C3B000137002239370A06900280BD00378002B20
:10C3C00008D008AE099007F02BFB80B23081708155
:10C3D00007AB336106AB00221A80618A268A761A7F
:10C3E000771EBE4101221640207A032707407F00B6
:10C3F000F6B2B446C6081640F600B0466646374365
:10C4000080080240100142463A4302439A70A378E2
:10C4100032221A4202D0E27806AB1A70A3781A07C9
:10C4200002D5E27806AB5A7001AA00239360D3606C
:10C43000231D019306AB5360A38A13819181E368A6
:10C440001361208808A92B1CFFF732FF80B210B0BF
:10C4500004BC9046F0BDC046903B0020A0DF704772
:10C4600010B594B012A83C49042207F01CF8012032
:10C4700012A96A464E32FFF7F1FF83B2181E68D147
:10C480000BAC0C930D930F93109311936B464E339B
:10C490001B8823800223A3700122A271237211231F
:10C4A000E3702E4BA3802E480E9007F0B9FA80B2AD
:10C4B000A08260822082201C09A9FFF729FF031CAB
:10C4C000002B46D10BAC274BA38027480E9007F0DA
:10C4D000A7FA80B2A08260822082201C07A9FFF701
:10C4E00017FF031C002B34D10BAC204BA38020483A
:10C4F0000E9007F095FA80B2A08260822082201C04
:10C5000005A9FFF705FF031C002B22D10BAC194B2B
:10C51000A38001F0D5FAE06007F082FA80B2A08231
:10C5200060822082201C03A9FFF7F2FE031C002B6F
:10C530000FD10BAC104BA38001F0A8FAE06007F01C
:10C540006FFA80B2A08260822082201C01A9FFF7CE
:10C55000DFFE14B010BDC046DC600200292A0000D6
:10C56000E0600200242A000008610200282A00007E
:10C57000F4600200262A0000272A000010B50C1CD7
:10C580000B78022B0DD1FFF7D1F8002801D0FFF76F
:10C59000DBF8E379022B04D102480021052206F0E2
:10C5A0008BFF10BD18310020F0B54F464646C0B491
:10C5B0009BB014AC00226260E260626108232380B9
:10C5C0000123A370E3702121217161710221218176
:10C5D000A172E3722121217361730521218203215C
:10C5E0008946A174E37421212175617512AF1392FC
:10C5F0003B80BB700223FB7021237B7101250F223E
:10C6000090462026BB7168460021482206F054FF60
:10C610002F4B00932F4B1B7D69460B724B724A4682
:10C620008A7203940D7405972B4B0893A9238B846E
:10C6300042462A4032432C23CA540223FF336A461F
:10C640000B8633234946D15442462A403243342391
:10C650006946CA5442462A4032433C23CA544246A1
:10C660002A4032433D23CA5442462A4032433F23A4
:10C67000CA5442462A4032434023CA5442462A40C2
:10C6800032434123CA5442462A4032434323CA54C8
:10C6900042462A4032434423CA5442462A40324347
:10C6A0004623CA54424615402E434723CE540B48D6
:10C6B00005F0A4FB84B2002C04D109480021052216
:10C6C00006F0FAFE201C1BB00CBC90469946F0BD4B
:10C6D0007DC50100903B0020146102002031002044
:10C6E0001831002008B5011C014805F07DFA08BD8D
:10C6F0002031002000000000F0B583B0041C0D1CA8
:10C70000FFF708F80823224A904237D068460021F4
:10C71000082206F0D1FE6A46157063B2002B02DBD8
:10C720001C4B1B5D00E000236A4693701A4B1B4AAA
:10C73000D058410CC003154B134A05F0EDFF071C00
:10C74000174E124D104C02E0192005F0DDFE301C92
:10C75000002108226B4605F099FE83B2114A9342EC
:10C760000CD10D4B0D4AD358590CD803221C2B1C4D
:10C7700005F0D2FFC01BC728E6D90A4B181C03B02E
:10C78000F0BDC046C046C046E88000000000000082
:10C79000FFFF0000C061020004050000001001401E
:10C7A000203100200430000010B5041CFEF7B2FF59
:10C7B00008220549884205D004480021231C05F0C1
:10C7C00065FE82B2101C10BDFFFF0000203100206A
:10C7D00070B5041CFEF79EFF08230E4A904217D046
:10C7E0002378FF2B08D10C4D2E78281C211C052204
:10C7F00006F059FE2E7004E00748211C052206F0C1
:10C8000052FE064802210522034B05F03FFE83B28B
:10C81000181C70BDFFFF00001831002020310020DF
:10C8200010B5041CFEF776FF08220649884206D0A0
:10C83000054801210222231C05F028FE82B2101CAB
:10C8400010BDC046FFFF00002031002022DF7047EE
:10C8500023DF7047F0B54F464646C0B4404AA02398
:10C86000DB00D05884460021D150A023DB05E6220E
:10C87000D200995889463B4999503B4A985880467E
:10C880009950A122D200802189019950802149012B
:10C89000995004200138C046C046C046C046C04634
:10C8A000C046C046C046C046C046C046C046F1D19C
:10C8B000A223DB00A022D205D358990407D5A223D6
:10C8C000DB00A022D205D3580120DA0435D412228D
:10C8D000A023DB05254F80214901A126F600A225D2
:10C8E000ED008024A401D95104200138C046C0467F
:10C8F000C046C046C046C046C046C046C046C04608
:10C90000C046C046F1D1995104200138C046C04606
:10C91000C046C046C046C046C046C046C046C046E7
:10C92000C046C046F1D15859204203D1013A002AED
:10C93000D9D101E0012000E00020A023DB05E622A0
:10C94000D20049469950084A41469950A023DB003D
:10C95000034A6146D1500CBC90469946F0BDC04692
:10C96000003000400D060000340700000C050000F8
:10C9700010B5114BB122D200985001229A600020CC
:10C980008221490058505A61191C822252008B584A
:10C99000002BFCD0084B0022822149005A50074945
:10C9A000585802245C50922149005A5040080123F3
:10C9B0005840184010BDC04600300040C40400007C
:10C9C00008B5A023DB05184AE621C9005A501749CB
:10C9D0005A50174B0022842149005A508E21490099
:10C9E0005A500C21A122D20099500D21114A995080
:10C9F000CC214904104A995000201049104AFFF7F1
:10CA000027FF002300280DD10120FFF71FFF00237F
:10CA1000002807D10521A023DB00054AD150FFF7EC
:10CA200019FF031C181C08BD0C0600003407000089
:10CA3000003000400C0500002405000038310040A3
:10CA40001C30004030B507291CD80124231C8B4022
:10CA500019020823184308430B4B0C4D5851A021D1
:10CA6000C9005C50002A0DD0C122920001219950CA
:10CA7000074B98580002000A8021C90501439950CC
:10CA800080221A6030BDC0460070004004050000DE
:10CA900000E100E0054B1A21054A99508022054922
:10CAA0008A500121A022D2009950704700700040A6
:10CAB0000405000000E100E00122084B1A60191C87
:10CAC000802252008B58002BFCD0044B0021802286
:10CAD00052009950A122D20098587047007000402F
:10CAE00008B5FFF7E9FFE1231B015843800A08BDA1
:10CAF0002EDF704733DF704721DF704723DF704739
:10CB000010B5041E0F2C08D8C0B2FFF7F7FF0120A4
:10CB1000A040FFF7F1FF201C01E00120404210BDC2
:10CB2000F8B55F4656464D464446F0B40378013B9F
:10CB3000022B00D9A0E0437B042B00D99FE09B008F
:10CB4000634AD3589F460921A223DB00614AD15092
:10CB50006422614B1A6023E00821A223DB005D4AB6
:10CB6000D150FF225C4B1A601AE00521A223DB00A2
:10CB7000584AD150FA229200574B1A6010E0022115
:10CB8000A223DB00534AD1506422534B1A6007E0C2
:10CB90000021A223DB004F4AD150FF224E4B1A60E6
:10CBA00006784E4B1E60002E6CD0021C00234C49B0
:10CBB0008A46A021C90589460324A046494DAC46B2
:10CBC0009B465478990055464C51C134FF34A4001B
:10CBD00045464F46E5515C466746CC51917A424DF9
:10CBE0005955013301329E42EBD83A4B0122DA60AB
:10CBF0000022A121C9005A5037490C6864003B4902
:10CC00005C503B495A500824802189005C50A62181
:10CC100049005A50A42149005A50A22149005A50B3
:10CC2000A02149005A50051C002300242E4FB9466C
:10CC3000304988464A46A75CBF002F497F182879AB
:10CC40009B002E4A99183A1CFFF75AFF6879414613
:10CC50003A1CFFF755FF0134231C0235A642E9D8E0
:10CC60000A200321FFF746FF0A20FFF741FF0122B8
:10CC7000184B1A60002024E00120404221E00120EE
:10CC800040421EE0134B0122DA600022A121C900BC
:10CC90005A501149086840001449585014495A50D4
:10CCA0000820802189005850A62149005A50A4210B
:10CCB00049005A50A22149005A50A02149005A5017
:10CCC000CEE73CBC90469946A246AB46F8BDC0466E
:10CCD0004062020000A00040C8320020A0320020C4
:10CCE000B0320020BC3200209C3200204C050000F5
:10CCF000040500004CA100400060004040A100403D
:10CD000080000E4BC1500E4B0021A62252009950BC
:10CD10000C49802292009950C12292009B581A031C
:10CD200007D4074B01225A6080210903C1229200D7
:10CD300099500122024B1A607047C046A43200206D
:10CD400000A0004008080000F0B5454A0023A621D5
:10CD50004900535001204042C22189005050414AAD
:10CD60001360414B1B68002B72D000233F4D404E97
:10CD7000141C9A005259002A15D13E4AD75C4537F7
:10CD8000FF37BF003C493D4AB9509B003C4A9A5886
:10CD90000127391C91403B4AA027FF05B9500027C5
:10CDA000394A9F504CE03068824216D33149CF5CFB
:10CDB0004537FF37BF003049304AB9509B00304AF1
:10CDC0009A580127391C9140A122D200A027FF05C3
:10CDD000B95000272C4A9F5032E05100A820400053
:10CDE0001A1892001E4FD1519A0027495258002A12
:10CDF00026D1204AD75C9B0021481A580123181CD1
:10CE00009040A123DB00A021C905C850BB001B49ED
:10CE10005B181E49A227FF00D951C046C046C04634
:10CE200001271F6012021A4F3A43A227FF00DA516E
:10CE3000C046C046C04622689300012212481A50DC
:10CE4000084A136801331360074A12689A4290D85F
:10CE5000034B082180229200995001221A60F0BDF4
:10CE600000A0004098320020A0320020A432002010
:10CE7000C83200209C320020001F030000600040E8
:10CE8000B03200200C050000BC320020031F01005E
:10CE90000300130010B5074C0123A122D200A350B8
:10CEA000054AA350C003FA21890005F085FB034B16
:10CEB000E05010BD000001400C050000040500001A
:10CEC0000122014B1A607047000001400249C02353
:10CED000DB00024AD15070473546526E00000140D7
:10CEE00010B5041C0068002837D0A3880020002B50
:10CEF00036D0E388002B33D023899BB2002B2FD070
:10CF0000A37B5AB2002A07DD1F22134001229A4058
:10CF1000131C802213488350A389E288534320685E
:10CF2000C318081C191C06F0BEFAA0890130A1889C
:10CF300005F0E6FB89B2A1812389013B9BB22381E5
:10CF4000A37B5AB2002A0ADD1F22134001229A4015
:10CF5000131C044A1360012002E0002000E00120BD
:10CF600010BDC04600E100E0F8B5061C0C1C171C03
:10CF700000200025002A06D10EE00135ADB2F3886D
:10CF8000E418BD4207D0301C211CFFF7A9FF002880
:10CF9000F3D1281C00E0281CF8BDC046F0B5474678
:10CFA00080B4031C171C0468002C1FD08588002047
:10CFB000002D1CD0DA889046002A18D01E89B6B2FF
:10CFC000002E14D01A8992B28A4210D9988940183A
:10CFD000291C05F095FB0904090C434659436118C7
:10CFE000381C424606F05FFA012000E0002004BC35
:10CFF0009046F0BD70B5041C0E1C0368002B46D093
:10D0000083880020002B45D0E288002A42D0228964
:10D0100092B2934202D1E07B00283BD0A37B5AB26C
:10D02000002A07DD1F22134001229A40131C802290
:10D0300019498B506089E288504323681818311CC5
:10D0400006F031FA6089A5880130291C05F058FBEB
:10D0500089B2618123899BB29D4207D131780F4803
:10D0600006F0E2FA63899BB2A38103E023890133CE
:10D070009BB22381A37B5AB2002A0ADD1F221340F0
:10D0800001229A40131C044A1360012002E0002090
:10D0900000E0012070BDC04600E100E054620200E3
:10D0A000837B5AB2002A07DD1F22134001229A40D7
:10D0B000131C802208498B50002303814381838104
:10D0C000837B5AB2002A06DD1F22134001229A40B8
:10D0D000131C014A1360704700E100E000000000EB
:10D0E00010B5FDF727FF012849D1414B414AD058DF
:10D0F000410CC0033D4B3C4A05F00EFB3E4B1A6809
:10D10000801A5B6898423AD33C4B1A7801321A7005
:10D110000020FDF701FF0123011C5940C9B2002086
:10D12000FDF7F0FDFDF7E2FD002806D1334B1B783B
:10D13000032B02D90022314B1A70FDF7D7FD0128CD
:10D1400007D12E4B1B78052B03D900222B4B1A70CD
:10D1500003E02A4B1B78002B11D100200021FDF7A2
:10D16000D1FD254CFA23DB006360214B214AD058C6
:10D17000410CC0031D4B1C4A05F0CEFA20601C4B2D
:10D180001C4AD058410CC003184B174A05F0C4FA8A
:10D190001B4B1A68801A5B68984212D30120FDF776
:10D1A000BBFE0123011C5940C9B20120FDF7AAFDB5
:10D1B0000020FDF7C5FE002813D10122114B1A7083
:10D1C0000FE00020FDF7BCFE00280AD1084B094AF9
:10D1D000D058410CC003054B034A05F09DFA084B9B
:10D1E000186010BDC046C046E88000000000000086
:10D1F0000405000000100140D0320020CC32002095
:10D2000068290020D832002070B5FDF76FFD002896
:10D2100008D001284ED17B4B1B6858689968FBF7F2
:10D22000EFFA47E0774B1B685868FBF733FA0028A2
:10D2300040D1744B186842685368013B5360002B1F
:10D2400004DA416806F046FA041C04E042681368F8
:10D25000591C11601C78611C2CD0FEF75BFA6A4BDC
:10D26000984227D0694B1A689368013B9360002B62
:10D2700019DA91698B4210DB13681C70634B1A68D2
:10D28000136819780A2902D00133136012E05D4B4C
:10D2900018680A2107F0B4FC0CE05A4B1868211CEE
:10D2A00007F0AEFC06E013681C70584B1B681A6848
:10D2B00001321A60FEF758FF00280ED0012800D076
:10D2C0009DE0FEF727FA504B984200D197E04F4B74
:10D2D0001968081CFBF794FA91E0FDF707FD002898
:10D2E00043D14A4B1868FBF7D5F9002800D086E0F7
:10D2F000464B19684B68013B4B60002B05DA414BEC
:10D30000186806F0E7F9011C03E00B685A1C0A6074
:10D3100019784A1C73D03B4B186882689368013BAC
:10D320009360002B17DA826893689469A3420FDB3D
:10D3300013681970334B18688268136819780A29C2
:10D3400002D0013313605AE00A2107F059FC56E07D
:10D3500007F056FC53E083681B681970294B1B6863
:10D360009B681A6801321A6049E0FEF771FEC4B288
:10D37000032C44D9FF250540244B1868691E89B247
:10D3800000F0D4FA0D2801D00A2838D1023DADB200
:10D390001E4B1868291C00F0C9FA2B282AD0042C2F
:10D3A0002DD90D2828D003240A2826D027E02B1BAE
:10D3B00099B2306800F0BAFA2B2804D1013CE4B2EB
:10D3C000002CF4D101E0002C19D1FEF7D3FEFEF7BA
:10D3D000A1F90D4B984212D00C4C2568FEF7C4FE03
:10D3E000021C281C0A4905F02BFE2168094805F09B
:10D3F000BFFE04E0022400E00324044ED7E700202F
:10D4000070BDC046DC290020FFFF0000EC3A002080
:10D41000C0550200A855020070B582B0FDF796FC19
:10D42000FDF752FFFBF774F801A80121184A01F03B
:10D43000F1F983B2002B02D00004000C25E0019822
:10D44000F821002201F01EFA83B2181E1DD11148E6
:10D45000FFF720FDFFF734FD0F4D104E0124FFF7BD
:10D4600035FD2B78002B03D0301C0021FBF75EF834
:10D47000FDF7FEFDFEF778F8FEF776F8044201D0DE
:10D48000FFF7C2FEFDF76AFDE9E702B070BDC046D6
:10D49000E1D0010010270000D832002064620200B1
:10D4A0002BDF70472CDF70472DDF7047074B9B68E1
:10D4B00002689A4209D14268044BDB689A4204D15F
:10D4C000022902D10022024B1A707047DC32002080
:10D4D000D932002030B583B0294B1B78002B4DD0BA
:10D4E000284C294B6360FD23DB006380274D201C03
:10D4F000291C002203F030FE6051254B1B78002BC5
:10D500003CD1019301A803F013FE1423019A9B1A46
:10D51000032B33D91F48FFF7C5FF00282ED11E4823
:10D520008021C90003F0CCFD80B2002826D11A4822
:10D5300008308021C90003F0C3FD80B200281DD14E
:10D54000154810498022D200002303F0DFFC80B28E
:10D55000002813D1104808301049FA229200002305
:10D5600003F0D4FC80B2002808D10122084B1A70C5
:10D570000022034B1A700748FFF796FF03B030BD37
:10D58000EC320020903B002006060000E40700007B
:10D59000D9320020ED320020DC320020903F002004
:10D5A000044B1B780120002B03D1034B1878404219
:10D5B000C00F7047EC320020D9320020000000007C
:10D5C000F0B5474680B4284B284A5A60FD22D20065
:10D5D0005A80274B274AD058410CC003214B204A80
:10D5E00005F09AF8061C244F224A90461D4D1C4C0B
:10D5F00002E00A2004F088FF381CFFF753FF0028E0
:10D600000CD01B4B4246D358590CD803221C2B1C60
:10D6100005F082F8801B194B9842EAD9144B154A41
:10D62000D058410CC0030F4B0D4A05F075F8861B0E
:10D630000D20124B9E420FD80B4C61880439201CE0
:10D64000002203F089FD0E4BE05001220D4B1A70B1
:10D650000948FFF729FF002004BC9046F0BDC046F2
:10D66000E880000000000000903B0020060600005B
:10D670000405000000100140ED320020E703000027
:10D68000E4070000EC320020F8B52E4CFD25ED003B
:10D69000201C00212A1C05F00FFF2B4B23806580E6
:10D6A0002A4B6360012626726672A6722673284F83
:10D6B000201C0E30391C062205F0F5FE14232387AA
:10D6C00064236387A3871E23E3874823E654231C30
:10D6D0004C333A1C083223CA23C303CA03C312883B
:10D6E0001A80002300256222A352221C623253803A
:10D6F0009380D380138110229C23E2540422A02320
:10D70000E254FC22A223E254F422A323E254A423F1
:10D71000E6540A22A523E254201CA630391C2831E5
:10D720000B2205F0C0FEB13425706570A570E57060
:10D7300025716571A571FFF743FF43425841C0B29F
:10D74000F8BDC046903B0020AFADFFFF06060000CD
:10D750007462020010B5164C201C0021FD22D2007C
:10D7600005F0AAFE201C13498022D200002303F0FA
:10D7700055FC0023002819D10F480E490831FA2220
:10D78000920003F04BFC002300280FD1084B1988AE
:10D7900000230A4A914209D1054B59880123FD22F1
:10D7A000D200914202D0FFF76FFF0123181C10BD79
:10D7B000903B0020DC320020903F0020AFAD000005
:10D7C00010B586B000231F4A13701F4A13701F48FC
:10D7D000FFF766FE04A81E4B3C33021C12CB12C29C
:10D7E00002A903F0EDFA83B2181E29D102A8002184
:10D7F000184A03F05BFB83B2181E21D102A8012155
:10D80000144A083203F052FB83B2181E18D101A843
:10D810000121114A00F0FEFF83B2181E10D10198B9
:10D820006321002201F02EF883B2181E08D1FFF701
:10D8300091FF031C0020002B02D1FFF725FF0020E1
:10D8400006B010BDD9320020EC320020ED320020AD
:10D8500074620200DC320020D5D40100F8B5031C4C
:10D860000F1C151C0020042B18DC5A00D3189B0039
:10D870000B4A9E58002E0AD0002D0ADD0024385D88
:10D88000B047013007D00134AC42F8D105E00020A8
:10D8900004E0281C02E0201C00E0281CF8BDC04663
:10D8A000C0620200F8B50F1C161C042818DC4300E7
:10D8B00018188000104B18184568002D13D0002A46
:10D8C00014D0002915D00024A847431C03D0385594
:10D8D0000134A642F8DC201E0DD1012040420AE0AE
:10D8E0000120404207E00120404204E00120404284
:10D8F00001E001204042F8BDC062020010B5041CE6
:10D90000084906F07BF8002807D0201C064906F0DD
:10D9100075F8002803D1042003E0032001E0012072
:10D92000404210BDD0600200B862020008B50E226D
:10D93000835E042B0ADC5A00D3189B00064AD318D6
:10D940009B68002B05D0081C984704E0012040424A
:10D9500001E00120404208BDC0620200224B1B785A
:10D96000012B3FD1214B1B681A0719D1204B1A6894
:10D97000F023134005D11F4B1A68F0231A420FD130
:10D980001EE0102B05D11B4B1A68F0231A4207D159
:10D9900016E0302B04D1174B1A68F0231A420FD02F
:10D9A000124B1B681A071DD1114B1A68F023134044
:10D9B000402B17D10F4B1A68F0231A4212D10BE0FB
:10D9C0000D4A0E4B1A60802212020D4B1A60064B54
:10D9D0001B78012BE4D005E00121C123DB0080226C
:10D9E000D205D1507047C046E00F00F0E40F00F0C0
:10D9F000E80F00F0EC0F00F0DFFF07C00405004067
:10DA0000186C004010B50288002A17D040680368DF
:10DA10008B4209D106E0181C08331A1C083A126818
:10DA20008A4207D140680AE0031C0833541EA4B29E
:10DA3000E4001C19A342EED1002000E0002010BD3C
:10DA4000F0B5474680B4051C0F1C90460388002B98
:10DA500013D00024E6006A6893195868391C4246BE
:10DA600005F012FD002802D16B68985908E00134D6
:10DA7000A4B22B88A342EDD801E0034800E002489D
:10DA800004BC9046F0BDC046DFFDEF7E38B5802374
:10DA90005B05DC6D2404240C0648211CFFF7B2FF53
:10DAA000002806D1044D281C0449221C05F0E4FE80
:10DAB000281C38BD1C630200043300202C630200C4
:10DAC00070B5124B1C881248211CFFF79BFF011EEA
:10DAD00005D110481049221C05F0CEFE02E00D4889
