:020000021000EC
:1080000000800020292602008D2602008F26020013
:108010000000000000000000000000000000000060
:108020000000000000000000000000009126020097
:1080300000000000000000009326020095260200C8
:10804000972602009726020035F7010097260200C6
:10805000972602000000000031EB01009726020085
:108060009726020097260200E5E701009726020006
:108070009726020097260200972602009726020004
:108080009726020079EE010097260200972602004B
:1080900059EF0100311B0200C9FB010097260200C5
:1080A0009726020097260200000000000000000052
:1080B00000000000000000000000000000000000C0
:1080C000402292029A1A92467047C046154B002BE6
:1080D00000D1114B9D46FFF7F3FF00218B460F4661
:1080E0001148124A121A0BF099FC0C4B002B00D0CD
:1080F00098470B4B002B00D098470020002104002C
:108100000D000B480AF0A0FD0BF082FD20002900B5
:1081100006F07CF90AF0A0FD000008000000000055
:108120000000000000800020202A002018560020B7
:10813000593C020048DF7047704700000123800768
:1081400001D5044A13704908194202D00022014B9C
:108150001A707047E42F0020014B18887047C04602
:10816000E22F0020014B18887047C046E02F002006
:10817000014B18787047C046E42F0020014B18705F
:108180007047C046E42F002001280ED1094B9B7A8E
:10819000002B09D00123A02212308340D2050029F0
:1081A00006D0A121C90053507047431E9841F1E702
:1081B0000149F8E7183000200C050000A822F0B5AE
:1081C0005949D2008C58594800238DB0844201D8B7
:1081D0008B589BB256490B80564900238C588442D9
:1081E00001D88B589BB20024534A082113802020C9
:1081F0000622524B009407F0B5F8A04203D02200AB
:10820000210004F02FFB02204D4906F0EDFC002870
:1082100003D00022110004F025FB0023482209208E
:10822000484907F099FC002803D00022110004F00F
:1082300019FB454807F0BEFC08F0D2FF00F036FD00
:10824000424B05A80593424B002503935A7D012319
:10825000D106C90F5940017112073E49520E8918C3
:108260004A680A21826002AA89183B4A3B4E08925A
:10827000802208AC52000D8045716260E260A66009
:10828000374A0091210007F0B7FA364B29001B68E6
:10829000A02598680BF01BF9E8230C22A227802662
:1082A000ED05DB00EA50FF00EB597602334207D1BF
:1082B0002D480AF09DF9EB59334201D100F0A6FC9C
:1082C000A025039BED05DA7D284B002A2AD0032246
:1082D000EA5006F06BF90C22254B2000EA500A3ACE
:1082E0001100244B06F0C0FC207806F0E7FCA22326
:1082F000DB00EB58204A9B07DB0F1370E9220323B6
:10830000D200AB501D4A0021AB500120FFF73CFFCB
:108310000120404200F096FA0120404200F0BAFAF3
:108320000DB0F0BD0C22D3E700900040FEFF00002E
:10833000E22F002000A00040E02F0020902C002021
:10834000682C0020202C0020C91002000B09080A0C
:108350001830002018550200202B0020202A002071
:1083600039810100C8290020DC0500001C0700003D
:10837000040700003D810100E42F00204C070000AD
:108380000300A0215A1E9341034AC905885812339D
:10839000D84001231840704704050000014B587A6B
:1083A0007047C0461830002010B5FFF7C3FE10BD5F
:1083B000F0B5204985B0002303901F4A086849683A
:1083C0000AF01EFB4B04C40B1C43CD0B194F0023BA
:1083D00038687968184A0AF013FB4B04C20B1A4339
:1083E000CB0B00920193009A019B121BAB41002B17
:1083F00019D1FA267600B24215D2039807F022FB73
:108400000028E3D10023386879680B4A0AF0F8FAAB
:108410004F04C20B3A43CB0B121BAB41002B02D1D2
:108420000398B24203D307F021FB0120404205B07C
:10843000F0BDC046784F0020E880000013B56B46C1
:10844000DC1D200007F0EAFA002801D1207816BDD3
:1084500001204042FBE713B56B46DC1D210007F00D
:1084600013FB002801D1207816BD01204042FBE714
:10847000002330B504889AB2944201D8002007E066
:108480004268DD005219156801338D42F3D15068FE
:1084900030BD0000F7B505001600002401912B88BF
:1084A000A34201D808480BE06B68E700DB193200F3
:1084B000019958680BF0A4FA002802D16B68D859CA
:1084C000FEBD0134A4B2EAE7DFFDEF7E80235B0549
:1084D00010B5DC6D0748A4B22100FFF7C9FF0028E2
:1084E00006D105482200040004490BF0AFF8200033
:1084F00010BDC046105E0200F92F0020125A020083
:1085000010B5FFF72FFE0400FFF72CFE220A044CE3
:10851000C3B20449200092B20BF098F8200010BDBD
:10852000E52F0020A3550200F0B5040087B0062215
:10853000144902A80BF0BAFB0622134904A80BF059
:10854000B5FB270000252678631C0193002E03D17C
:1085500028003E7007B0F0BD5C2E0ED1617802A8F5
:108560000BF080FA002808D0082202ABC01A9B1832
:108570001E5C0135A31C0193EDB23E70019C0137D6
:10858000E1E7C046B5550200BB55020010B5032413
:1085900006490378002B00D110BDCA5C2240022A94
:1085A00000D1203B03700130F3E7C0466165020053
:1085B000F8B506000F0015000024AC4202D10120DE
:1085C000404207E0A3003000F9580BF02FFA0028D2
:1085D00001D12000F8BD0134EFE700001B4910B5C0
:1085E0000B68DBB2012B03D1194803681B0700D0CD
:1085F00010BDE024174A1368234222D1164B1C6891
:10860000F0231C420DD1154B154C1C608024154BDA
:1086100024021C600B68DBB2012BE9D103681B0745
:10862000E6D11368F0221340402BE1D10A4B1B68BE
:108630001342DDD18022C1230121D205DB00D150BC
:10864000D6E7F0242340302BD8D0EAE7E00F00F043
:10865000E40F00F0E80F00F0EC0F00F0040500401C
:10866000DFFF07C0186C0040036870B504000D0000
:10867000181E26D0A388181E23D00020E38883422A
:108680001FD0238983421CD02369834200D098479E
:10869000E288A389216853432800C9180BF006FB20
:1086A000A089A18801300AF085F989B2A1812389C6
:1086B000013B9BB223812369002B01D00120984705
:1086C000012070BDF8B507000E0014000025002A37
:1086D00007D12000F8BDFB880135ADB2F618AC42D9
:1086E000F7D031003800FFF7BFFF0028F3D12C008E
:1086F000EFE7F8B5046803000F001500201E17D03F
:108700009988081E14D00020DE88864210D01A896D
:1087100082420DD01A89BA420AD99889C0190AF042
:1087200049F971433200280061180BF0BFFA0120AB
:10873000F8BD036870B504000D00181E2DD0A38885
:10874000181E2AD00020E288824226D02289934235
:1087500002D1A07B002820D02369002B01D000206B
:108760009847E2886389206853432900C0180BF0BA
:108770009DFA6089A588013029000AF01BF989B2A9
:10878000618123899D4209D163899BB2A3812369B9
:10879000002B01D001209847012070BD23890133AF
:1087A0009BB22381F3E7F8B507000E001400002503
:1087B000002A07D12000F8BDFB880135ADB2F618BC
:1087C000AC42F7D031003800FFF7B3FF0028F3D1F7
:1087D0002C00EFE7036910B50400002B01D0002046
:1087E0009847002323816381A3812369002B01D053
:1087F0000120984710BD0000054BDB7D002B05D004
:10880000A022A1238021D205DB00D1507047C046B1
:1088100018300020084A0949936918400B6803433F
:108820000B60002807D0D37D002B04D0A02280212C
:10883000034BD205D150704718300020043000207F
:108840000C050000054A10B5136883431360044A01
:108850001268134301D1FFF7CFFF10BD0430002091
:1088600000300020084A0949D36918400B680343C7
:108870000B60002807D0D37D002B04D0A0228021DC
:10888000034BD205D1507047183000200030002033
:108890000C050000054A10B5136883431360044AB1
:1088A0001268134301D1FFF7A7FF10BD003000206D
:1088B0000430002030B505000C00100089B00129FB
:1088C00004D902290AD0174809B030BD164C1749FF
:1088D000E369A2690AF056FC0020F5E7002118229E
:1088E00002A8009101910BF099F86A4603230392C4
:1088F00013721375280001AB220002A9069302F03F
:1089000039FF0138C0B20128DDD8074B00999A69B8
:108910000A439A610199DA690A43DA6100F0E8F8DA
:10892000DAE7C0466280000018300020D15502000E
:1089300070B506000D0088B0022902D0134808B0B7
:1089400070BD00241822210002A8009401940BF0AD
:1089500065F86A460323039213721375300001AB66
:108960002A0002A9069302F005FF0138C0B20128CF
:10897000E4D8074B00999A698A439A610199DA69A8
:108980008A43DA6100F0B4F82000D8E76280000082
:1089900018300020100070B501290DD80024074EB2
:1089A000074D084933682A680AF0ECFB34602C60F4
:1089B000FFF722FF200070BD0348FCE700300020D5
:1089C00004300020E3550200628000002BDF704776
:1089D0002CDF70472DDF7047F0B52B4F85B03B780B
:1089E000002B4FD0294E3378DAB2002B4AD103A89E
:1089F000039208F0BBFD1E23039A9B1A032B41D957
:108A0000234B18000093FFF7E3FF041E3AD1214DDA
:108A1000020069882800043908F0BAFDE823DB0069
:108A2000E8501D4B290018001C4A01930BF03EF939
:108A300080211B4DC90028003C7008F065FD80B204
:108A400000281FD18021174CC900200008F05CFDD0
:108A500083B2002B16D1802228000199D20008F0A1
:108A600091FC83B2002B0DD1D12220000E4992003F
:108A700008F088FC80B2002804D1012300983370EC
:108A8000FFF7A8FF05B0F0BDA13E0020A23E0020E8
:108A9000A03E0020183000205C3700204407000072
:108AA00008300020103000205C3B0020074B10B540
:108AB0009A680468944208D14268DB689A4204D1FB
:108AC000022902D10022024B1A7010BD083000208A
:108AD000A23E0020044B1B78D8B2002B02D1034BDE
:108AE0001878C0B27047C046A13E0020A23E0020C8
:108AF000214BF7B51B78002B3CD120490023086897
:108B000049681F4A09F07CFF4B04C40B1C43CD0B82
:108B10001C4B18000093FFF75BFF18490023184A0D
:108B200001900868496809F06BFF4B04C60B1E43AF
:108B3000CF0B32003B00121BAB4111001A00019B0E
:108B4000002B0BD0002A03D1FA239B00994201D3BA
:108B50000D2010E00A2009F04BFDD9E7002AF7D1DB
:108B6000FA239B009942F3D2034B013200981A700A
:108B7000FFF730FF0020FEBDA13E0020784F00200F
:108B8000E8800000A03E002073B5194C194E00216A
:108B9000320020000AF042FF802200232000164904
:108BA000D20008F063FC031E01D0002076BDD12264
:108BB00012491348920008F059FC051EF5D122888D
:108BC000104B9A42F1D16388B342EED104220E4990
:108BD00001A80BF06BF861882A002000043908F026
:108BE000D7FC019B181A42425041C0B2DEE7C04692
:108BF000183000204407000008300020103000200A
:108C000018340020AFAD00005837002070B51F4C5D
:108C1000002120001E4A0AF001FF1E4B20002360A5
:108C2000902301251B0163601B4B06221B490E305C
:108C3000A36025730BF03AF8D122194B5200A363BD
:108C4000184B2000E363A31CDA87230048331D7010
:108C5000154D8D3A2900FF3A4C300BF027F82000D3
:108C60000A22002162300AF0D9FE230029001022D6
:108C700020009C331A70203109329F300BF016F817
:108C8000FFF736FF43425841C0B270BD1830002094
:108C900044070000AFAD440701010100F155020097
:108CA0001400280014001E00285E0200002210B5E7
:108CB0001F4B86B01A701F4B1F481A70FFF786FEB5
:108CC00002A802001D4B12CB12C2110008F0BEFA1E
:108CD00084B2002C29D12100194A04A808F028FBED
:108CE00084B2002C21D10121164A04A808F020FBEF
:108CF00084B2002C19D10121134A01A806F0B2FB5D
:108D000084B2002C11D122006221019806F0D0FB20
:108D100084B2002C09D1FFF737FF002801D1FFF7FB
:108D200075FF9022094B12015A60200006B010BD59
:108D3000A23E0020A13E0020A03E0020645E020072
:108D40000830002010300020D989010018300020A0
:108D500070B5140000291FD1114B1B6893421DD020
:108D6000110010480AF0A0FA012521000E480AF06F
:108D70009BFA21000D480AF097FA0D4BAA0021003A
:108D8000985801350AF090FA4E2DEED1210009488D
:108D90000AF08AFA002070BD0748FCE70748FAE7A6
:108DA000B8400020F8550200385A0200025702006D
:108DB000A45F0200FE550200628000006380000094
:108DC000802210B5044C0021200052000AF026FE3B
:108DD000024B1C6010BDC046B03E0020AC3E0020DF
:108DE000F7B50D003E4904000AF04EFF27000028A9
:108DF0002BD0220003263B4808E03D2B09D0C15C64
:108E00003140022900D1203B137001321378002B2E
:108E1000F3D120000AF053FF012806D82900324878
:108E20000AF042FA314C2000FEBD2378412BF5D1E7
:108E30006378542BF2D1A378A71C002B05D129000D
:108E40002B480AF031FA0024EDE70024294E33685C
:108E5000180001930AF033FF0199020038000AF06C
:108E600033FE002813D00134E4B204364E2CEED188
:108E700029001D480AF018FA1F4CD4E731783D2923
:108E800002D101363B3917E0002915D0F0E7194B24
:108E9000A40018590AF013FFC6B2BE1930001749D2
:108EA0000AF0F2FE0028CAD0300015490AF0ECFEA4
:108EB0000028E3D101210136124B30001B592A0052
:108EC0009847114E04003378002B06D10648002C39
:108ED00000D1074829000AF0E7F900233370A2E720
:108EE000F855020061650200015602006080000032
:108EF000FC550200A45F02006180000009560200D8
:108F00000A5602006C5E0200B03F0020F7B54D4BE0
:108F1000060000931B681C1A019363425C414A4B94
:108F2000A400E41820000AF0CAFEC5B20700290018
:108F3000300003F08BFA431C03D16B1E9D41E8B255
:108F4000FEBD0D2801D00A2850D120003F490AF06B
:108F50009BFE071E71D130000AF02CFA30000AF097
:108F600029FA30000AF026FA30000AF023FA01202C
:108F700009F03EFB3900300003F068FA0D2801D0FB
:108F80000A2802D130000AF015FA019B304F314D0A
:108F9000B34216D103F0DEFD009B1E6803F0D4FD42
:108FA0003900020030000AF0EDF8009B1968280033
:108FB0000AF07AF90422002120000AF02FFD012096
:108FC000BEE7FFF7D5F80123181AC0B2FFF7D6F8AD
:108FD000214E33689B680093FFF7CAF839000200FE
:108FE00000980AF0CFF833689968E0E75C2804D16C
:108FF000002D0CD1FFB2E055E1E72B281DD1012D4A
:109000000BD123785C2B10D130000AF0D3F9042265
:10901000002120000AF002FD11E0002D03D12B22D7
:10902000FFB2E255CBE7022DF1D120000B49FAB295
:109030000AF0E6FC0028EAD1F1E7002DE7D1002094
:109040007EE7C046B8400020A33E0020F85502004D
:109050000C560200FC550200C8290020F9550200F8
:10906000F8B507000C0038000AF0A4F90500431C0D
:1090700001D10020F8BD304E33680A2D18D00D2DD7
:1090800016D0082D44D02D4A9342ECD22C4B1B68AD
:109090009B689C4207D12B4B1B7A002B03D02100ED
:1090A00028000AF0EFF933685A1C32601D70DAE7C5
:1090B000254DAB42D7D9224B1B689B689C4207D1F8
:1090C000204B1B7A002B03D0210020480AF0ECF83B
:1090D00000223368210028001A703560FFF780FEF7
:1090E0001B49060028000AF0CFFD0028BBD1002E46
:1090F000B9D1013009F07CFA3100380003F0A6F94B
:109100000D2801D00A28AED138000AF053F9AAE799
:109110000D4A9342A7D90A4B1B689B689C4207D112
:10912000084B1B7A002B03D021000A480AF0BCF838
:109130003368013B336096E7AC3E0020B03F00202F
:10914000C829002018300020B03E0020FE55020043
:10915000F855020011560200012210B5034B010020
:109160001A70034B18000AF09FF810BDB03F0020A2
:10917000FC55020071DF704776DF704777DF70477C
:10918000030007B51000012903D9022909D01B48A3
:1091900006E00B221A4B1B499A5609F0F3FF0020F8
:1091A0000EBD0122524201921800174901AA0AF08D
:1091B0006FFA0028EBD001980300283307D0020093
:1091C0001432102A14D8114BD340DB07DFD540B23C
:1091D000FFF7D4FF0A4B019ADA72FFF789FC04F01B
:1091E0004BFF0B4B9842DAD1002003F0C5F9D6E7CC
:1091F000042302009A43EAD0C9E7C0466280000017
:10920000183000200C560200AB5C02001111010066
:10921000FFFF000030B5150087B0012914D804AC59
:109220002000FFF7A7FF60786379A2790390A07808
:1092300006490290E078019020790090280009F01A
:10924000A1FF002007B030BD0148FBE7B75902007D
:109250006280000010B5140001290DD8074B0849A1
:109260001A68012320001A4009F08CFF21000548EC
:109270000AF01AF8002010BD0348FCE7A000001017
:10928000D7590200FE5502006280000030B515007B
:1092900087B0012914D804AC200004F05FFF607887
:1092A0006379A2790390A07806490290E078019052
:1092B00020790090280009F065FF002007B030BD3C
:1092C0000148FBE7B759020062800000F0B50500D5
:1092D0008BB0022900D091E004AC152200212000BF
:1092E0000AF09CFB2C2128000AF0BCFB061E02D0D1
:1092F0000023013603706B469F1D3900280002F0E1
:10930000DBF9002800D179E03A883D4B2C21300070
:109310003C4D1A800AF0A6FB071E02D0002301373D
:10932000037010222100300002F0F8F9102800D05C
:1093300064E02C2138000AF095FB061E02D00023C1
:1093400001360370380008A902F0B6F9002855D09C
:10935000238A5BBA2C21300023820AF083FB071E8C
:1093600002D000230137037022213000694402F04B
:10937000A3F9002842D0638A5BBA2C2138006382AB
:109380000AF070FB061E02D000230136037038007D
:109390001D4902AA0AF07CF900282FD0029B2375F0
:1093A000002E0DD00023300003A9039302F01EF914
:1093B000002823D0039B012B20D82A004A321370A7
:1093C0002B006C3307CC07C306CC06C32278493583
:1093D0001A7001232B70FFF78BFB04F04DFE0B4B33
:1093E000984207D004F048FE1321FFF7C5FE002085
:1093F0000BB0F0BD002003F0BFF8F8E70448F7E732
:109400009A30002018300020DB590200FFFF0000D6
:109410006280000010B51400012912D804F02CFE5F
:10942000094B0022984202D004F02CFE02000749AA
:10943000200009F0A7FE2100054809F035FF0020B3
:1094400010BD0448FCE7C046FFFF0000AB5C020013
:10945000FE55020062800000A0DF7047A4DF704765
:10946000A5DF7047A6DF704710B598240549A40012
:109470000A8813180020A34202DC03480B8010184E
:1094800010BDC046D2300020F8330020F7B50024CC
:109490000D00160027000190A3005B5918000093EF
:1094A0000AF00DFC0099020001980AF0E9FA002880
:1094B00004D0013464B22700B442EDDBBE4203D1D4
:1094C000012464422000FEBDA30058590AF0F7FBB6
:1094D000019B1B5C3D2BF5D0F2E7000070B5050049
:1094E00014000800002D03D0012D11D00D480EE00E
:1094F0001022216802F012F91028F7D12368A57113
:109500009A78DB781B0213435BBAA380002070BDFE
:10951000111D02F0D1F80028E8D0A388002BE5D077
:10952000A571F3E762800000F7B5019308AB0C006A
:109530001F78022305000E0000929C4308D03B00D8
:1095400031002800009A02F033FAC4B22000FEBDB8
:109550003A00210002F0E2F80028F0D0019B83429B
:10956000F4D8B842EBD9F1E7B12210B50021D2000E
:1095700003480AF053FAFFF7BBFA002010BDC046BB
:10958000D0300020F0B58BB00400029202294FD1F8
:10959000394B04200193394B1B780A2B49D004AE78
:1095A00006AD0822002130000AF038FA102200210E
:1095B00028000AF033FA2C21200004950AF052FA10
:1095C000051E02D0002301350370002C1FD1B38883
:1095D000002B2DD0019FB8373D780135ED007B1968
:1095E00006CE06C3019BBE33EB5C012B3BD1EC5195
:1095F000019CB834237801332370FFF779FA22787D
:109600001F49029809F0BEFD002012E001342378C2
:10961000202BFBD01B4B0222190020000393FFF7E5
:1096200035FF071E07DA22001749029809F0AAFD44
:1096300016480BB0F0BD039A830098580AF03FFB20
:10964000013021183200F8B2FFF748FF071EEAD1B7
:109650002C2128000AF006FA002801D007700130FA
:109660002C000500B1E71020FFF7FEFE1022049940
:10967000E8510AF01BFBBBE718300020D030002077
:109680000C56020000610200DF59020062800000F7
:10969000F0B59FB003900492022900D026E1C04AA1
:1096A00004201278BF4B002A00D120E1B9331B7887
:1096B0001E2B00D11BE110AC16AE18220021200099
:1096C0000AF0ACF90CAF2022002130000AF0A6F914
:1096D00007AD1022002138000AF0A0F9082200216D
:1096E00028000AF09BF92C210398E6606760656109
:1096F0000AF0B8F9061E02D0002301360370039B5E
:10970000002B00D082E0A27A637A002A00D1A372F3
:10971000E27A002A00D1E372002B00D1E6E0A27ABF
:109720009A4200D2E2E06388002B00D1DEE09C4B3D
:109730009C4D05931B782100013B9C462B00B933BF
:109740001F7818237B430393EB181133FF3345C96C
:1097500045C31A0049C949C2059A039B2E00D31874
:10976000624658331A701F22237ABC361340012BED
:1097700000D003E1039BF6180023B365149810ACE6
:1097800000280ED00AF09BFA0130C0B2FFF76CFE41
:1097900018222B007A43B8339B18216998660AF087
:1097A0007DFA66693178002900D1F2E00820FFF7E0
:1097B0005BFE18222B007A43BC339B183100072232
:1097C00098660AF073FA18267E43AB191B33FF33F1
:1097D0001878FFF749FE2B00BC339B19AE191C36D5
:1097E0001866FF363278E168B9350AF05FFA2B78EF
:1097F00001332B70FFF77CF92A786B49049809F044
:10980000C1FC002073E0039B01330393039B1B788F
:10981000202BF8D0654D092229000398FFF736FE6A
:10982000071E5EDB830058590AF049FA039B01309A
:109830001D18082F55D8380008F038FF1705354790
:109840005B7D65959700322104AB2800C91801F0B3
:1098500033FF002845D06388002B42D01F23227A93
:109860009A431E3B1343237211E0102228006168C3
:1098700001F054FF102834D11F22237A934323721E
:1098800063689A78DB781B0213435BBA63802C21F0
:1098900030000AF0E7F8002802D0002303700130FE
:1098A000039606002BE709AF3900280001F0E6FE19
:1098B000002816D03B78002B13D0312004AB0122B6
:1098C0003900C0180AF0F2F9E1E7392104AB2800A9
:1098D000C91801F0D3FE002803D0637A013B1F2B87
:1098E000D5D93349039A049809F04CFC31481FB08C
:1098F000F0BD3A2104AB2800C91801F0BFFE0028D2
:10990000EFD0A37AEAE70C22002109A80AF086F832
:109910000B270A2304AA1375BF182800012209A9DE
:109920000A9701F027FF0128DBD11F213A78237A1B
:1099300052010B4096E7617A0B1C002900D10123EC
:10994000A27ADBB2002A02D10A1E00D12032217A8B
:1099500000922800E2684909FFF7E6FDE07200285E
:1099600000D094E7BDE7256191E7072228006169EF
:1099700001F0D4FE072800D189E7B2E71020FFF7F5
:1099800073FD039B1022F6186168B0650AF08EF92A
:10999000F4E618222B007A43BC339B18996612E731
:1099A000D0300020183000200C560200DC6002008D
:1099B000F259020062800000F0B591B016000490E8
:1099C0000591022903D0884D280011B0F0BD8749C8
:1099D000049809AA09F05CFE0028F4D0099D002D26
:1099E000F1DD834C834F23789D42ECDC2C210498DD
:1099F000013D0AF037F8002817D1182238006A43D1
:109A0000BC308018BB18BA181932FF3211781C33D9
:109A1000FF33026E490930001B7801F08FFF3100DF
:109A2000754809F041FC0025CEE70378002BCAD029
:109A300018233A005D43641960347E19237879193C
:109A40001B361931FF360493FF3133780978BC3265
:109A500000935219049B126E49090130FFF764FD0F
:109A600023788342AFD833788342ACD37B191C333D
:109A7000FF33099C187004F0FFFA013C5F4FE4B219
:109A8000E300DB5B0490002BCDD05D4B984200D10E
:109A900094E018236343574DED182B001133FF3327
:109AA0005A7830231A4200D188E0002308AE338070
:109AB000E300FB18998802230AAAFF350A930B9644
:109AC000FFF7CEFCAB7C1022190011400791134226
:109AD00002D03288D20704D49B066FD533889B0707
:109AE0006CD50A2606ABF618424B1B2006931823AA
:109AF0006343069A0021D318FF331B7F052233806E
:109B000006ABC01809F08AFFE300FB5A0CAD2B80AE
:109B1000079B002B01D001230593059B069AAB7090
:109B200018236343D318FC331B6AAE60EB6004F068
:109B300029FB002812D004980CA9FFF793FC85B2EA
:109B4000002D00D040E7182363432E4A9B189B7CCE
:109B5000DB0600D438E704F01DFB35E72A49002373
:109B600008684968294A08F04BFF4B04C60B1E439E
:109B7000CF0B04F007FB24490023244A05000868A2
:109B8000496808F03DFF4B04C20B1A43CB0B02920D
:109B90000393029A039B921BBB41002D09D1002B1A
:109BA00001D1C72A01D904250EE7012008F020FDC4
:109BB000DFE7002BF7D1C72ABDD9F4E718236343A9
:109BC000104A9B18997EDA7E914200D12BE71B7FC9
:109BD0000CAA13800023E400395B0498538053607F
:109BE000FFF73CFC85B2EFE662800000DB59020023
:109BF000D130002018300020FE550200B23F002076
:109C0000FFFF000017310020784F0020E88000009F
:109C100073B51600022901D0114876BD6B460025A8
:109C2000DC1D2100DD7101F029FDA842F4D023786C
:109C3000AB42F1D00B4A0C4912789342ECD818226F
:109C4000013B5343CA181C32BC31CC18FF323300DD
:109C500001211278206E09F0A1FB2800DDE7C04643
:109C600062800000D130002018300020F0B51400D0
:109C700085B0002900D0B3E05B4B1B68934200D154
:109C8000B0E00291594F029A3B78594D934202D865
:109C9000002005B0F0BD029B20005A1C2B00D6000E
:109CA000BC33F35A5349BE3509F06CFA735D012B8E
:109CB00008D02100504809F0F7FA10222000F1598D
:109CC00001F024FE21004D4809F0EEFA00254C4B2E
:109CD000474E1B78AB4204D8029B0133DBB20293A0
:109CE000D0E7182733006F43B833DB190393583399
:109CF0001B78029A934270D1F3191333FF331B88F8
:109D00006A1C20003F4909F03DFA1F22039B603383
:109D10001B781340012B0ED0BC3621003A48F619AF
:109D200009F0C2FA2000B16D102201F0EFFD210010
:109D3000364809F0B9FA18276F432D4E344BF01905
:109D40001930FF300078334A4009FB5CD25D019046
:109D5000F0191B30FF3000782F490090200009F0E7
:109D600011FA3300B833DB199A6E002A03D02000B1
:109D70002A4909F007FA182337006B43BC37FF184C
:109D8000BB6E002B0FD01B78002B0CD02100244879
:109D900009F08AFA2000B96E072201F0B7FD210010
:109DA0001A4809F081FA21001E4809F07DFA1821AD
:109DB00032006943731876181936BC32FF365218D0
:109DC0001C333178FF33200049091B78126E01F0F3
:109DD000B5FD2100094809F067FA0135EDB276E7D3
:109DE000114856E7114854E7B8400020D030002011
:109DF00018300020055A0200195A0200FE550200D0
:109E0000D1300020235A02001A5A0200385A0200A8
:109E100031310020293100203A5A02006F5A0200E5
:109E20007F5A02008D5A02006280000063800000A9
:109E3000F8B503880500502B2DD1002426E0E7005B
:109E4000BC466646144AEF88B25A97421CD1182085
:109E5000604309186031EA8B0978914214D81918C7
:109E60001B31FF3109788A420ED819181C31FF3195
:109E70000A702900BC331B18186E203109F016FF38
:109E80000120A040FEF7EEFC0134E4B20349044B8C
:109E90000A78A242D3D8F8BDB23F0020D1300020CA
:109EA00018300020F0B500278FB0142200215C4844
:109EB00009F0B4FDF02200215A4809F0AFFD5A4BD9
:109EC00002935A4B0393029BB8331A78BA4201D8D3
:109ED00000200DE0029E7C1CBE36E500A85D012836
:109EE00008D0E85803F008FAA855012802D807203E
:109EF0000FB0F0BD039BE400E35A04A90B80484B6C
:109F00007A008870D2180120FFF7A6FA0023009388
:109F1000474B009A1B78444D934202D80137FFB259
:109F2000D1E718242B00009AB83354431B191A00A8
:109F300058321278BA426FD11F2660331B783340F3
:109F4000012B10D02B00BC331B19986D03F0D4F9F2
:109F500033002C191934FF3403402078B0431843E0
:109F60002070012B58D918252D4B7A00D35A009A0E
:109F700005AC554323802E4B2B4E5B190193583370
:109F80001B782122A37004AB0021D81D09F046FDE7
:109F900032001123BA32521911000320E37033004A
:109FA000583109886032A18071191931FF3109785F
:109FB000BC36C906C90EA171217A761981430138D0
:109FC00001432172316E1278E16001996282603141
:109FD0005A1909781C32B833FF325B1912789B6E1C
:109FE0002182B16EA282A36100290ED00B78002BD2
:109FF0000BD005220CA809F059FE2620B16E04AB47
:10A0000002220531C01809F051FE009B2000D90042
:10A01000044BC91803F099F9009B0133DBB276E7D2
:10A02000A2400020B23F002018300020D430002091
:10A03000D130002073B51400002903D002291FD0AD
:10A040001B481CE003250126E8B204F08FFA002823
:10A050000BD0002E03D12100164809F025F92A0063
:10A060002000154909F08EF800260135782DEBD136
:10A07000002E03D12100114809F016F9002076BD09
:10A0800000230F4901AA019309F002FB0028D7D051
:10A090000198C31E742BD3D8C0B204F067FA00280D
:10A0A000ECD020000749019A09F06CF8E6E7C046B9
:10A0B00062800000385A0200E45A0200FE55020095
:10A0C000EB5A0200EE5A0200020010B500201F2ACF
:10A0D00007D8074B074C19780300D8B2884201D340
:10A0E000012010BDE05C01338242F6D10020F8E788
:10A0F0009855020099550200F7B51400022901D0C5
:10A100001B48FEBD01AB6A461A4909F0C1FA0300BB
:10A11000012818D00228F3D1019E012EF0D8A025E5
:10A12000154BED05EB58009F0124FB402342E7D07F
:10A130003800FFF7C9FF0028E2D0BC40002E14D140
:10A140000E4BEC500FE0A021A222C905D200885886
:10A15000009A2100D0401840303009F049F8210021
:10A16000074809F0A1F80020CBE7A123DB00E8E7CE
:10A1700062800000A85C0200140500000C050000CD
:10A18000FE55020037B51400022901D025483EBD16
:10A190006A46254901AB09F07BFA012819D002284B
:10A1A000F4D1019D032DF1D8009C2000FFF78CFF16
:10A1B0000028EBD0A023C134DB05FF34022D29D0C9
:10A1C000032D2AD00322A400012D00D000221A5111
:10A1D0001EE0A022154BD205D258009BDA40024265
:10A1E0000DD1A0229B00D2059B18E022D2009958E5
:10A1F0000320490703D498580007C00F40002100EE
:10A200000190303008F0F4FF2100094809F04CF8C3
:10A210000020BCE70C22A400D9E70422A0001A50B9
:10A22000F6E7C04662800000A85C0200140500004A
:10A23000FE55020030B587B0022902D0154807B09C
:10A2400030BD6A46144901AB09F022FA0228F5D163
:10A25000009D2800FFF738FF0028EFD0019B642BFA
:10A26000ECD80A200C220021684409F0D7FB012316
:10A2700009220A4902AC03A82370657009F016FD93
:10A28000200004F0E9F90020019904F08BFA002085
:10A29000D5E7C04662800000A85C020008610200A9
:10A2A00070B504008CB0022902D016480CB070BD05
:10A2B0002422002103A809F0B1FB6A460523137389
:10A2C0000A23951D1376D61D02AB0322200003A995
:10A2D000049507960A9301F04DFA0328E5D13178E9
:10A2E0000029E2D080232A7807485B009B1A9BB2A2
:10A2F0001218029801F05CFB0028D6D0FEF7F8FB9C
:10A300000020D3E76280000058360020F0B58DB001
:10A3100014000190022902D015480DB0F0BD24228E
:10A32000002103A809F07AFB052302AA1371137414
:10A330000A23551C961CD71C13770198032203A9E6
:10A34000049507960A9701F015FA0328E4D13978A5
:10A350000029E1D007482A7833781218200001F04C
:10A36000EDFA2100044808F09FFF0020D5E7C04621
:10A370006280000058360020FE550200F0B58BB018
:10A3800005000C00019202291CD11822002104A80A
:10A3900009F044FB052302AA1372961D1375D71DFD
:10A3A00004A9220028000596089701F0E3F9064B5E
:10A3B00030780121C0183A78019B08F0EFFF0020A7
:10A3C0000BB0F0BD0148FBE758360020628000006A
:10A3D00030B5050085B01000012903D902290BD042
:10A3E0001B4807E01B4B1C491B7DDB07DA0F08F0FD
:10A3F000C9FE002005B030BD6B4600210C2201A82B
:10A40000DC1CD97009F00AFB6A4608232800137186
:10A4100001A90122029401F0ADF90128E0D10D4B10
:10A4200021781A7DD407E40F8C42E2D00C008243DD
:10A43000044022431A754933002904D004221A70BB
:10A44000FEF756FBD5E7197003F080FEF8E7C0462B
:10A4500062800000183000200C56020013B5040082
:10A46000022901D0104816BD104B1B7DDB0718D503
:10A4700003F002FE0E4B020008209A42F3D00200C5
:10A480000021684609F0CAFA08226946200001F056
:10A4900045F90138C0B20728E4D8684603F0E4FB68
:10A4A000E1E70448DFE7C046628000001830002082
:10A4B000FFFF000063800000F0B505000E001000F3
:10A4C0008DB002295AD12E4B1B7DDB0754D52B783A
:10A4D000002B53D0FEF740FE16222A4906A809F0A9
:10A4E000E5FB0622284902A809F0E0FB06222749DD
:10A4F00004A809F0DBFB2800254909F0C5FB43420D
:10A5000058412D182C786B1C0193002C02D120008F
:10A510000DB0F0BD6F785C2C0DD1390002A809F0A8
:10A52000A1FA002807D0082202ABC01A9B181C5CB5
:10A53000AF78AB1C01930322164B31001B5D134017
:10A54000012B06D0210006A809F08CFA431E984181
:10A550004100200003F024FB0F2008F049F8BC4222
:10A5600001D0002F06D10021080003F019FB0F20B5
:10A5700008F03EF8019DC5E70748C9E70748C7E767
:10A5800018300020FA5A0200B5550200BB550200EF
:10A59000F75A0200616502006380000062800000DB
:10A5A000F0B506000C0089B002292CD11F4B1B7D91
:10A5B000DB0739D503F060FD1D4A0823904223D004
:10A5C00000236D4669462B8030000F33019301F064
:10A5D00073F8011E1BD10A201622684409F01EFAE6
:10A5E000092302AF3B70134B22000493390001ABE7
:10A5F00030007C7003953C73069301F0BBF8013882
:10A60000C0B2012803D90C4B180009B0F0BD0024DA
:10A61000280003F0DFFB019807F0EAFF28002C80F8
:10A6200003F0D8FB2300EFE7044BEDE718300020E0
:10A63000FFFF0000146102006280000063800000E0
:10A6400030B504008FB0022902D019480FB030BDD8
:10A650006B465D1C04220021280009F0DFF9FF236E
:10A660006A460021137002A8302209F0D7F90623A8
:10A670006A46137213750232202106926A465218F6
:10A6800013706A46033209926A460C3152181370ED
:10A69000200001AB042202A903950C9301F06AF893
:10A6A0000138C0B20328D0D8684603F02DFBCDE7AF
:10A6B00062800000F0B595B00190022946D107AE46
:10A6C00032000527664B0BAD13CB13C21B6805ACDC
:10A6D000136000213A00200009F0A0F90F230021A7
:10A6E00002AA538028002422039109F097F902AAB4
:10A6F0000232EA61019A2F7012785A4F5A4BBA5CB3
:10A70000AB8103AB2B616E61042316006C602B766A
:10A710001E401A4200D06DE004AB032229000198CC
:10A720006B6004962E7001F025F8431EDBB2022BFD
:10A730000CD8032802D1039B032B07D104980028CF
:10A740004FD009F0BCFA0325052812D947484FE03D
:10A7500099199B5DFA5C2A40022A00D1203B0B70BC
:10A76000049B4348995D09F07DF90028EED001363D
:10A77000F6B2049809F0A3FA049B8642E8D34C2170
:10A78000180009F06FF9002803D001232278134341
:10A7900023705221049809F065F9002803D00223A0
:10A7A0002278134323704D21049809F05BF90028A7
:10A7B00003D004232278134323704221049809F024
:10A7C00051F9002803D0082322781343237046212F
:10A7D000049809F047F9002803D010232278134386
:10A7E0002370200003F090FA2578002D11D100206D
:10A7F00015B0F0BD03222900019800F0BBFF431EF5
:10A80000DBB2022BA2D80328EBD1039B032BE8D0A9
:10A810009CE7039B022B09D0032B1ED00F20012B9A
:10A82000E5D107F0E5FE0023237012E000260F209B
:10A8300007F0DEFE2000267003F066FA0F2007F016
:10A84000D7FE2000257003F05FFA0F2007F0D0FE3E
:10A850002670200003F058FAC9E702AB5888E0E7F9
:10A86000FC610200616502000704000062800000D4
:10A87000105B020030B5050085B01000012903D936
:10A8800002290BD0174807E0174B18491B7DDB0640
:10A89000DA0F08F077FC002005B030BD6B460021D0
:10A8A0000C2201A8DC1CD97009F0B8F86A4608230C
:10A8B0002800137101A90122029400F05BFF012816
:10A8C000E0D12278084C237DD906C90F9142E2D00D
:10A8D0001021024012018B4313432375FEF708F940
:10A8E000D9E7C04662800000183000200C560200F4
:10A8F000F0B506000D008DB0022902D023480DB03E
:10A90000F0BD1122224B1B7D134093423BD103F03B
:10A91000B3FB204B020008209A42F0D002AC2A0080
:10A920000021200009F07AF86B460021242203A8B8
:10A93000DF1DD9719D1D997109F070F806236A46D3
:10A940002421137313765218013B137004336B44A4
:10A950000322300003A9049507970A9300F00AFF29
:10A960000328CBD80C2203213B7820009B00134006
:10A970002A780A40134322780C318A431343237008
:10A9800003F078FABBE70448B9E7C04662800000EC
:10A9900018300020FFFF00006380000039DF70479F
:10A9A0003ADF704752DF704713B5140001291BD8F6
:10A9B00001A8FFF7F7FF030080B2002B13D1019825
:10A9C0000A49014003D50139043B194301311923D8
:10A9D0004B430321C2170A40121805492000921068
:10A9E00008F0D0FB002016BD0248FCE70300008001
:10A9F000145C02006280000013B51400022901D02B
:10AA0000164816BD012316495B4201AA019308F0BE
:10AA10003FFE0028F4D0019B1F2BF1D8A0228021FB
:10AA2000C133FF339B00D205890299500D482100A4
:10AA300008F03AFC322007F0DBFD00210800FDF7AA
:10AA4000A3FB00210120FDF79FFB8022A023012111
:10AA5000D205DB000020D150D3E7C0466280000061
:10AA6000AB5C0200FC550200F0B5150087B0002970
:10AA700004D0022933D0244807B0F0BD04236A462D
:10AA8000937100246B46DF1D002338003B70FFF7F5
:10AA900085FF6B4639789E1D00290FD033781B1B2C
:10AAA0001A1CDBB28B4200D90A1C02A80019D1B2D1
:10AAB0003A70FFF775FF3B78E418E4B23378A342AD
:10AAC000E0D82900114808F0EFFB00243378A342B6
:10AAD00011D829000E4808F0E7FB0020CCE76B46B0
:10AAE0009C1D210000F0CAFD0028C4D02378013B42
:10AAF0000F2BC6D9BFE702AB1A5D28000549013408
:10AB000008F040FBE4B2E1E7628000001E5C020056
:10AB1000FE550200C95C0200130037B5002903D0BE
:10AB2000022909D0174806E0174A1800927A1749F7
:10AB300008F028FB00203EBD6B46DC1D210000F024
:10AB40009DFD0028EED021780129EBD80E4DAB7A7F
:10AB50008B42EFD0002902D10120FDF715FB2378AD
:10AB6000AB72FDF7C5FF2478012CE3D103F084FA22
:10AB7000074BC1184B1E99412000C9B2FDF704FBD9
:10AB8000D8E7C04662800000183000200C56020052
:10AB90000100FFFFF0B52F4B95B008AC01922500E6
:10ABA0001A008446C1CAC1C5C1CAC1C505AD2A00C3
:10ABB0001833C1CBC1C2002904D002290CD02648C9
:10ABC00015B0F0BD254B26495B7A01989B001A59B8
:10ABD00008F0D8FA0020F3E701230393002304933D
:10ABE000204B02AA138603AB0F931F4B604693873B
:10ABF0000A0004AB0EA910941293139500F0BAFD4D
:10AC00000028DCD0039B01281ED0052BD7D1134C84
:10AC1000DBB2627A9A4207D000210800FDF7B4FA4D
:10AC2000039B6372FDF764FF039B052BD2D104994C
:10AC300002290CD10020FDF7A3FB01214140002097
:10AC4000C9B2FDF7A1FAC5E7052BE0DDB7E74B1E5A
:10AC50009941F4E70C620200628000001830002085
:10AC6000005A020007060000070300007FB5060037
:10AC70000C001000012903D902290BD01B4807E062
:10AC80001B4B1C491B7D9B07DA0F08F07BFA002049
:10AC900004B070BD6B4600210C2201A8DD1CD970E8
:10ACA00008F0BCFE6A4608233000137101A9012296
:10ACB000029500F05FFD0128E0D10D4B29781A7D47
:10ACC0009507ED0F8D42E2D008404000A2430243B9
:10ACD0001A754933002904D005221A70FDF708FFC0
:10ACE000D5E7197003F032FAF8E7C0466280000039
:10ACF000183000200C56020030B5040087B002293D
:10AD000002D0194807B030BD03F0B6F9174B020066
:10AD100008209A42F6D06B4614222000991D00F0BC
:10AD2000FDFCC4B2E31EDAB201AD0F2AE9D8DB079D
:10AD3000E7D40F490023086849680E4A07F060FE0F
:10AD40004904C00B084380227F21C30452420840BB
:10AD500002349B0E1343E1B2024328002B706A7049
:10AD600002F008FDCEE7C04662800000FFFF000051
:10AD7000784F0020E880000073B51500002932D11B
:10AD80006B461A4EDC1C217030002100FDF76CFC74
:10AD9000002801D1002076BD2378002BFAD03000A6
:10ADA00001A9FDF761FC0028F4D028001049019AA0
:10ADB00008F0E8F92378013B237023785A1E2270AB
:10ADC000002B04D129000B4808F06EFAE2E73000AE
:10ADD00001A9FDF749FC0028EFD028000649019A97
:10ADE00008F0D0F9E9E70548D5E7C0468C290020EE
:10ADF000475C0200FE550200465C020062800000D3
:10AE000073B5150000291ED16B46104EDC1C217055
:10AE100030002100FDF728FC002801D1002076BD7C
:10AE20002378002BFAD023785A1E2270002BF5D0FD
:10AE3000300001A9FDF718FC0028F4D02900019882
:10AE400008F0D6F9EFE70248E9E7C0468C29002070
:10AE50006280000073B51500012903D902290DD0C5
:10AE6000204876BD204B214A5B7D28001B075B0EE6
:10AE70001F499A5808F086F90020F2E701A900F06E
:10AE8000C9FB0028ECD00023019A1849DC006418A3
:10AE90002068824222D11448427D1107090F99424D
:10AEA000EAD00F2101260B408A431A43427528003D
:10AEB000104DFEF751F9142007F09AFBEE610520C2
:10AEC00007F096FB62680C4BEA5000220B4BDA60ED
:10AED0001A62AE602E60FDF70BFECDE70133102B3A
:10AEE000D4D1BDE762800000183000201855020060
:10AEF0004C5C02000020004024050000FC200040C3
:10AF0000F0B50500140085B0012903D902290ED03F
:10AF10002E480AE001222E4B20005B7D2D49DB06E6
:10AF2000DB0F5A4008F02EF9002005B0F0BD6B464B
:10AF300000210C2201A8DE1CD970082708F06EFD44
:10AF40006B462800012201A91F71029600F012FC35
:10AF500005000128DCD11E4933784A7D4340DBB22D
:10AF6000D0063370C00F9842DED010202B401B015A
:10AF700082431A432000184C4A75FEF7EDF814205E
:10AF800007F036FB0520E56107F032FBA220A12186
:10AF90003278124BC000C900002A10D0E258AA43F0
:10AFA000E25001235B422350635000220C4BDA60D5
:10AFB0001A620123A3602360FDF79AFDB4E7E2580B
:10AFC0001543E5500A2323506750EEE762800000E6
:10AFD000183000200C560200002000406C050000D4
:10AFE000FC20004037B50C001500022901D00D48A7
:10AFF0003EBD0D4901AA08F04BFB0028F7D001998E
:10B000000729F4D80229F2D00022C9B2200003F0A7
:10B01000A3FC03F0D9FC05490200280008F0B2F8AF
:10B020000020E5E762800000AB5C02004C5C02009F
:10B0300070B50C00150000290AD103F0B3FC03F031
:10B04000D5FC04490200280008F09CF8200070BDDF
:10B050000148FCE74C5C020062800000F7B5011E6D
:10B0600002D0194808F020F91849002308684968F7
:10B07000174A07F0C5FC4B04C40B1C43CD0BFDF76E
:10B0800029FD124900230190114A0868496807F018
:10B09000B7FC4B04C60B1E43019BCF0B002B0AD001
:10B0A00032003B00121BAB411100002B03D1FA23ED
:10B0B0005B009942E3D3331B632B03D86434A01B9A
:10B0C00007F096FAF7BDC046FC550200784F002005
:10B0D000E88000008023F0B55B0597B001900E007A
:10B0E000150024495A6E04A81B6E08F0AFFAFDF74C
:10B0F000EDF909AF02002049380008F0A7FA002353
:10B100000E931E4B10970F9304AB11931C4B0EAC78
:10B11000236163611B4BA361FDF7F2F9E061002E2F
:10B1200003D0022E11D018480DE00126B3002900EB
:10B13000E05808F0B9F801362900144808F0B4F8CE
:10B14000082EF3D1002017B0F0BD1149019803AAD1
:10B1500008F09EFA0028E6D0039B5A1E062AE2D881
:10B160009B002900185908F09FF82900074808F0AB
:10B170009BF8E7E7525C02005D5C0200695C02003C
:10B18000755C02007B5C020062800000FE550200DC
:10B19000AB5C020070B504001500012903D9022937
:10B1A0000DD00F480AE00F4B1100187A303008F02C
:10B1B0001FF829000C4808F077F8002070BD08F04F
:10B1C0007EFD0128EDD12378303BDBB2012BE8D89E
:10B1D000044A117A9942F0D01372FDF789FCECE72A
:10B1E0006280000018300020FE550200100010B5EB
:10B1F000002909D1FFF732FFBFF34F8F034B044AF9
:10B20000DA60BFF34F8FFEE7024810BD00ED00E0AB
:10B210000400FA056280000010B5140000290ED168
:10B22000FDF7F4FC02F092FF2000FFF717FFBFF3D9
:10B230004F8F044B044ADA60BFF34F8FFEE7034899
:10B2400010BDC04600ED00E00400FA056280000079
:10B2500010B510000C1E05D1FFF700FF02F06EF9CB
:10B26000200010BD0048FCE7628000007FB50500AB
:10B270001000012904D9022908D0002004B070BDB3
:10B28000164B1749DA7D07F07DFFF6E76B460C2673
:10B290000021320001A8DC1C217008F0BFFB6A46C7
:10B2A00008232800137101A90122029400F062FA18
:10B2B000012801D00B48E1E7084A2378D17D8B4271
:10B2C000DBD0A021D375C905074A002B04D0032386
:10B2D0008B50FDF70DFCD0E78E50FAE718300020B8
:10B2E0000C560200628000001C07000070B50029A7
:10B2F0001DD1104D104C2B6893420BD101F02AFC4C
:10B300002D6801F021FC02002100280007F03AFF1F
:10B31000002070BDFCF72CFF0123181AC0B2FCF707
:10B320002DFF064B1B689D68FCF722FFEBE70448E6
:10B33000EFE7C046B84000200C560200C8290020A4
:10B3400062800000F0B58DB00D00019000920229DE
:10B3500002D02B480DB0F0BD2A4B009A1B689342D7
:10B360004CD0002104AE320002ABDF1C264B03910F
:10B37000397011CB11C2122002AB1400C018162272
:10B3800008F04CFB0723237003AB636008232A00FB
:10B390002100019823736570A660276100F0EAF927
:10B3A000431EDBB2012BD4D8184B03995A7D0029D8
:10B3B0000AD1D243D2B2D209012808D11449009847
:10B3C00007F0E0FE0020C5E75206D20FF4E7387818
:10B3D0009042F7D00122002909D142407F20597DB7
:10B3E000D20101400A435A75FDF782FBEAE740218A
:10B3F00010405A7D80018A430243F4E70548A9E7DB
:10B4000062800000B8400020306202001830002046
:10B410000C56020063800000F0B589B002930EABB9
:10B420001B7804000393294B0F001B68150083420F
:10B4300003D1029B5343102B46DC06AE062230009C
:10B44000234908F033FC6B003033B370290010201F
:10B4500007F0CAF900260190029B9E4206DB2100FC
:10B460001C4807F021FF002009B0F0BD0023300088
:10B470000199059307F09EFA002911D1002E03D0FF
:10B480002100144807F010FF039B002B19D00199ED
:10B49000300107F0A9F902000F49200007F072FE01
:10B4A0002A00390005A808F001FC2100202007F03F
:10B4B0009FFE2000059A06A907F064FE7F19013659
:10B4C000CAE73A000549E8E70548CDE7B84000205B
:10B4D0009E5C0200FE5502008D5C0200955C02003D
:10B4E00063800000F0B5140087B0022924D1002346
:10B4F00003930493059305AB0093154904AB03AA8A
:10B5000008F0C6F8032817D1039E002E14D0049922
:10B51000002911DD059D002D0EDD4B1E012B01D9EB
:10B52000042909D13000CFB207F05AF9002906D01A
:10B530002100084807F0B8FE074807B0F0BD0091A9
:10B540003A0031002000ABB2FFF766FFF5E7C046D6
:10B55000A45C0200AE5C02006280000007B510002F
:10B56000022906D001220449044B0092FFF754FF40
:10B570000EBD0348FCE7C046183000204407000019
:10B5800062800000100070B5012912D880210023CC
:10B59000094A0A4C09019D58A54205D0CA1A084912
:10B5A00007F0F0FD002070BD04338B42F3D103207F
:10B5B000F9E70448F7E7C046007800200DF0FECA1E
:10B5C000C25C02006280000007B51000002907D1AC
:10B5D00080230091042203499B00FFF71DFF0EBD4D
:10B5E0000148FCE7007800206280000037B50025A4
:10B5F0000C002A0001A9019507F0D0FB019A030075
:10B600001000AA4205D012782800AA4201D1236076
:10B6100001303EBD37B500250C002A0001A9019577
:10B6200007F04CFC019A03001000AA4205D01278E2
:10B630002800AA4201D1236001303EBDF7B50E00BB
:10B6400001A9070015000024FFF7D0FFA04211D088
:10B65000094B019A9A4203D1380001A9FFF7DAFF9A
:10B660002C1C042D00D90424A4B22200300001A90E
:10B6700008F01CFB2000FEBDFFFFFF7F13B50C0090
:10B6800001A9FFF7B3FF002803D0019BFF2B01D8CE
:10B69000237016BD0020FCE713B50C0001A9FFF7CD
:10B6A000A5FF002805D0019B1A008032FF2A01D88F
:10B6B000237016BD0020FCE713B50C0001A9FFF7AD
:10B6C00095FF002805D08022019B5202934201D2AF
:10B6D000238016BD0020FCE703000022442130B582
:10B6E0000D4C1878002801D1100030BD255C2800D1
:10B6F00008400D42F9D05878255C280008400D42DA
:10B70000F3D098780132D2B20028EDD02D2801D1A3
:10B710000333E6E70020E8E761650200F7B50400BF
:10B720000E0017002378202B1ED02000FFF7D4FF37
:10B730000500002E1CD0002814D0B84212D81022C8
:10B74000200001A907F02AFB019BA34207D91C1B7B
:10B75000022C04DC30701A7801362D2A06D01B78B2
:10B76000002B05D00020FEBD0134DBE75C1CE6E7C2
:10B77000A8B2F8E70023F0B504000D008FB00592E1
:10B7800001936B46059A1879019B934247D0002C90
:10B7900045D02C21200008F065F9071E02D00023B7
:10B7A000013703702378002B12D02A7802920A2ADC
:10B7B00034D8100006F07AFF07121B2C353A3F44AC
:10B7C000598A590001342378202BFBD06B681C6008
:10B7D000019B3C00013301930C35D2E720006A78CD
:10B7E0006968FFF79BFF68700028F1D116E0200020
:10B7F0000AA9FFF7FBFE002810D0404B0A9A9A4294
:10B8000003D120000AA9FFF705FF04220AA959E085
:10B8100020000AA9FFF7FEFE0028F6D100200FB095
:10B82000F0BD20006968FFF747FFDDE72000696889
:10B83000FFF724FFD8E720006968FFF72DFFD3E763
:10B8400020006968FFF7D2FE0028C1D12378202BA1
:10B8500008D020006A78A968FCF7AAFE0A900028A0
:10B86000D3DADBE70134F1E701342378202BFBD076
:10B8700008AB9C466246224B42CB42C243CB43C2FA
:10B880001B681360042303930AAB0493029B082BE9
:10B8900003D1063B03936346049306ABDE1D3100E0
:10B8A0002000FFF7F9FE002805D12000039A049933
:10B8B000FCF77EFE30700023039AF3569342ADD816
:10B8C00001223100686808F0F1F981E70D4AD35C84
:10B8D0005B07A3D42000FCF759FE2000AE6808F0F7
:10B8E000EEF9210002003000FCF7D4FD064B0A906F
:10B8F000984200D192E76A7888E7C046FFFFFF7F51
:10B900003862020061650200DFFDEF7EF8B50E00CF
:10B9100017000A7807490500012407F033FCBC42F0
:10B9200000D3F8BD325D2800034907F02BFC013439
:10B93000F5E7C046C95C0200C85C0200F7B5040028
:10B9400010001A0002291ED0032921D0012914D089
:10B95000022B1DD90378002B13D003006827124E49
:10B9600015181978002905D0715CB94309D0013345
:10B97000AB42F6D12300012100E0230007F00EFDC9
:10B9800005E0042A04D901002000FFF7BFFFF7BD3E
:10B990000023010001A8019308F088F92000034961
:10B9A000019A07F0EFFBF2E761650200DB59020044
:10B9B000F8B5050017001E00022926D003291ED065
:10B9C00001290CD01A003900FFF738FE041E14D1EB
:10B9D000320039002800FFF7A1FE041E0DD1280017
:10B9E00008F06DF9041C80B2B04200D9341CA4B236
:10B9F000002C0FD1002301243B702000F8BD1A0059
:10BA00003900FFF71BFE0400F7E71A003900FFF7C3
:10BA100085FEF8E722002900380008F047F9ECE736
:10BA2000F8B5060000240B4D2F68380008F047F9E0
:10BA300031000200380007F0E3FF002807D001348E
:10BA4000A3B2043524B2052BEED1012464422000B8
:10BA5000F8BDC04688620200F8B506000F00002459
:10BA6000074D3000296808F054F8002801D03C70D8
:10BA7000F8BD0134E4B204350E2CF2D1F8E7C0462B
:10BA800050620200F0B595B007000D00160001935A
:10BA900001292BD8604A614B127831009200D058AE
:10BAA0005F4D012407F000FC68272B00A5331B78AD
:10BAB000A34207D831005B4807F0F6FB00242000C2
:10BAC00015B0F0BD2B19A6331878574B1B5CBB4340
:10BAD00005D0310007F08CFB0134E4B2E5E7534BAD
:10BAE00080003100C05807F0DFFBF5E7022901D0E4
:10BAF0004F4CE4E700210BAC242220000491059177
:10BB000007F08CFF04AB0C9305AB0F930623237651
:10BB100002AB063303222100380012932573FFF78E
:10BB200029FE0300013BDBB20090022BE0D8049811
:10BB3000FFF776FF431C04D131003E4807F0B4FB09
:10BB4000D6E706AB1870354B8000C05808F0B7F840
:10BB50000125049B1B18049304980378002B21D122
:10BB6000009B012B0DD0059A012AC1D832492C4BDC
:10BB70000A70009A032A04D102AA063212789F336F
:10BB80001A70290006A801F01BFB041E97D103229E
:10BB90002A4B1A702A4B019A1A70FCF7A9FF00F081
:10BBA0004FFE8CE702ABD91DFFF756FF071E049826
:10BBB0000FD0381A3B005A1E934112225B19C4B2AF
:10BBC000D31A9C4208DD31001E4807F06DFB0924A2
:10BBD00075E708F074F8EDE706AB581922000499F0
:10BBE00008F064F8049B2D191B190493EDB2002F83
:10BBF000B2D0102102ABDB7902AA521853550B4A7E
:10BC00009B00985808F05BF8049B6C1CE4B21B186E
:10BC100025000493A0E7C046BE30002088620200E1
:10BC200018300020FE5502006165020050620200DB
:10BC300062800000EC5C0200623000206130002075
:10BC4000B6300020155D020010B50023FFF71AFF83
:10BC500010BD10B50123FFF715FF10BDF0B51C4B4B
:10BC600087B001901C781000033C63425C41194F7F
:10BC7000E4B2012905D82200174907F083FA002011
:10BC800002E0022902D0154807B0F0BD002502AB42
:10BC90000C22290003A8DE1CDD7007F0BFFE08237C
:10BCA00002AA13710198012203A90496FFF762FD0D
:10BCB0000128E8D13378A342E1D0AB4200D003356C
:10BCC0003B0049331D70FCF713FF00F0B9FDD6E7C8
:10BCD00061300020183000200C5602006280000005
:10BCE0007FB506001000012909D8174B17491B7DA5
:10BCF0001B07DA0F07F046FA002004B070BD6B4650
:10BD000000210C2201A8DD1CD970082407F086FE52
:10BD10006B460122300001A91C710295FFF72AFD34
:10BD200001280ED108492A780B7D1D07ED0F954299
:10BD3000E2D00240D200A34313430B75FCF7D8FEB8
:10BD4000DAE70348D9E7C046183000200C56020055
:10BD500062800000F0B5174D07002B7D0C0085B008
:10BD60001B0725D5002904D002290DD0124805B0A3
:10BD7000F0BDB420009001F047FA032349352B7041
:10BD800000F05EFD0020F2E701AE0C220021300041
:10BD900007F044FE6B4601223100380034700293F4
:10BDA000FFF7E8FC0128E1D100980028E3DCDDE79B
:10BDB0000248DCE718300020628000006380000049
:10BDC00074DF704776DF70477CDF704713B514006F
:10BDD000012903D902290BD0134816BD11001348BD
:10BDE00007F062FA2100124807F05EFA0020F4E73B
:10BDF0000E4C01001F22200007F077FEFCF778FEB2
:10BE000011236A462000137107F059FF210082B206
:10BE100001A8FFF7D9FF02F02FF9064B9842E5D1B0
:10BE2000002000F0A9FBE1E7628000006430002000
:10BE3000FE550200FFFF000010B5140001290FD8C5
:10BE400002F01AF9074B2100C018431E9841303008
:10BE500007F0CEF92100044807F026FA002010BDB3
:10BE60000248FCE70100FFFFFE550200628000006F
:10BE700010B50C1E0CD102F0FFF8064B984205D00D
:10BE800002F0FAF81321FFF79DFF84B2200010BDE5
:10BE9000014CFBE7FFFF00006280000010B50029A5
:10BEA00002D102F053F910BD0048FCE762800000A7
:10BEB000F0B59BB00D00070014003849142206A805
:10BEC00007F0F4FE012D16D80025354E0135328FCE
:10BED00020003449EDB207F055F90236052D04D0A3
:10BEE0002100314807F0E0F9F0E721002F4807F082
:10BEF000DBF9002018E003AA0025140004212C4ED1
:10BF00000BAB705B02355A601080197002320C3333
:10BF10000A2DF6D1052238000BA9FFF72BFC0138BA
:10BF2000C0B2042802D923481BB0F0BD2A0031005A
:10BF3000200007F065FD002206AB9042D9D05100E9
:10BF4000615A18888842EED858888842EBD301326B
:10BF50000433052AF3D1124B20881A8F6588824258
:10BF600002D15B8FAB4210D00521800006F0B2FBFE
:10BF700001AF38800521A80006F0ACFB962378803D
:10BF80005B043800029304F02BFF0A2221003000EA
:10BF900007F08CFEFCF7ACFDABE7C0469C620200EC
:10BFA00018300020AB5C0200385A0200FE55020037
:10BFB000503000206280000002239943080010B531
:10BFC000002902D100F0D8FA10BD0148FCE7C046B4
:10BFD0006280000010B5002903D1FFF7F1FE80B2A6
:10BFE00010BD0148FCE7C0466280000013B5140094
:10BFF000012903D902290DD00F480AE00F4B110087
:10C000001878303007F0F4F821000D4807F04CF9AB
:10C01000002016BD0B4901AA07F03AFB0128EBD11D
:10C02000019B012BE8D8054A11788B42F0D00340E0
:10C030001370FCF75DFDEBE76280000060300020CC
:10C04000FE550200AB5C0200F0B506000D0091B099
:10C05000022902D0204811B0F0BD0A20002116228A
:10C060006844019107F0DAFC012302AC23701E330F
:10C07000300063702A0001AB210008AF06930397DC
:10C080002573FFF777FB431EDBB20600012BE1D8D7
:10C090006278124B124C390012481A7007F006FEF3
:10C0A000230049331D70022E04D1019B012BD1D8EE
:10C0B0004A342370FCF71CFD01F0DEFF0A4B984266
:10C0C00006D001F0D9FF1321FFF77CFE0020C2E764
:10C0D000002000F051FAF9E762800000A330002050
:10C0E0001830002084300020FFFF000030B505002C
:10C0F00085B0100001290BD8194B1A491A78012371
:10C10000D207D20F5A4007F03DF8002005B030BDED
:10C110006B4600210C2201A8DC1CD97007F07EFCC4
:10C120006A4608232800137101A901220294FFF72F
:10C1300021FB012812D123784340DBB22370084C45
:10C140002278D107C90F9942DFD0034082431A43B6
:10C150002270FCF7CDFC00F073FBD6E70248D5E770
:10C160005E3000200C5602006280000010B5040012
:10C17000022917D101F080FF0B4A082390420FD00B
:10C180000A49200007F080FD43425841241820004E
:10C19000FCF7CAF9064B2000196807F085F8002360
:10C1A000180010BD034BFBE7FFFF0000F75A020029
:10C1B000B84000206280000070B51400002914D13E
:10C1C0000B4D286807F0F6F8431C01D1002070BD24
:10C1D000210007F00DF8286807F0ECF8431CF7D1B0
:10C1E0002100044807F060F8F0E70348EFE7C04695
:10C1F000B8400020FE55020062800000F7B502231F
:10C2000014000A000E0001909A4301D01648FEBDAA
:10C21000802700F0DFFBFF00381A85B200F0D4FB66
:10C220003F1ABFB2002E0BD13B002A0020000F495D
:10C2300006F0A8FF21000E4807F036F80020E6E7D8
:10C240000C49019807F0F2FB2A00002806D00A49A1
:10C25000019807F0EBFB0028D8D13A0020000749ED
:10C2600006F090FFE6E7C04662800000A85C02008E
:10C27000FE550200735902008C590200DB5902007E
:10C2800070B50400022929D101F0F6FE144B0825EF
:10C29000984221D02000134907F0F6FC4342584150
:10C2A00024182000FCF740F9FCF778F8022803D1A5
:10C2B00001210020FBF768FF200007F000FD81B29C
:10C2C000200000F05BFC0500FCF768F8022803D1B1
:10C2D00000210800FBF758FF280070BD024DFBE766
:10C2E000FFFF0000F75A02006280000030B5050031
:10C2F00085B01000012909D8174B18491B7D5B0731
:10C30000DA0F06F03FFF002005B030BD6B4600217C
:10C310000C2201A8DC1CD97007F080FB6A460823B8
:10C320002800137101A901220294FFF723FA0128C2
:10C330000FD12278084C237D5907C90F9142E2D0D2
:10C340000421024092008B4313432375FCF7D0FB7A
:10C35000D9E70348D8E7C046183000200C56020041
:10C360006280000030B5040085B0022902D00C487C
:10C3700005B030BD0C22002101A807F04FFB6A4632
:10C380000523D51C13712000012201A90295FFF796
:10C39000F1F90128EBD1287801F0BAFAE8E7C046B4
:10C3A00062800000F8B50E0015000024042809DCA6
:10C3B0000C224243074BD7583C1E03D00024AC420A
:10C3C00002DB2C002000F8BD305DB8470130F9D009
:10C3D0000134F4E7B0620200F8B50E00150004283D
:10C3E00003DD012464422000F8BD0C2242430A4BC5
:10C3F0009B185F68002FF4D0002DF2D00029F0D0F8
:10C400000024B847431C04D030550134A542F8DC61
:10C41000E9E7002CE7D1E4E7B062020010B5094972
:10C42000040007F031FC0323002808D0200006494F
:10C4300007F02AFC01235B42002800D105331800D5
:10C4400010BDC046AA5D0200B25D020010B50E2309
:10C45000C05E042809DC0C224243054B9B189B68F4
:10C46000002B02D00800984710BD01204042FBE796
:10C47000B062020072DF704773DF704774DF70478D
:10C4800076DF704760DF704768DF704710B504F0F3
:10C490001BFE10BD70B5074C074DE379002B03D090
:10C4A0002369002B00D098471434AC42F5D100200A
:10C4B00070BDC046002900206429002070B504002A
:10C4C0008EB0042823D86B461422DE1C114B424345
:10C4D000DB7A01AD3370104B00219B189A889B7951
:10C4E0002A8002A83022AB7007F098FA06236A4629
:10C4F000D372053B039613820595032C00D19372EA
:10C50000002102A803F032FD80B20EB070BD0348D6
:10C51000FBE7C046183000200029002062800000A0
:10C52000122070B5114C96B0114B04AE1522114972
:10C5300068448234338007F0B9FB238801AD2B8037
:10C540001723302200210AA8AB80039607F066FA71
:10C550006A462B21042352180AA800211370139550
:10C5600003F004FD80B216B070BDC0461830002044
:10C570000215000084300020F0B593B00600FFF7EC
:10C580007DFF18220021684607F048FA444C052137
:10C59000A78F6D46F80006F027F92882E38F6B829B
:10C5A000230046331B78DB070BD50323381C2B7085
:10C5B000642F00D2642080B20521C00006F014F977
:10C5C0002882002E08D0A31CD88F0521C00006F0B9
:10C5D0000BF9002328826B82230049331B78072044
:10C5E000052B3FD8180006F061F8034B17503F4663
:10C5F000237D012218001040134204D022000421A0
:10C600000320493211709B0703D5052304204934C8
:10C610002370FFF753FF06E000238B341A002178C4
:10C620002048FFF727FF06AC30220021200007F04A
:10C63000F5F91D4E300007F042FB02231D2800D9FA
:10C64000013B3000237007F03AFB00231D2800D97E
:10C650001D3321000020637003F088FC2800FFF7E1
:10C660000BFF80B213B0F0BD0020104B1B7883424B
:10C67000CFD00330CDE70E4B18788000C0B2C8E7AA
:10C68000A0230493FFF74CFFCDE700236B8200F05B
:10C69000DDFD002801D00220BBE700F0DDFDC2E790
:10C6A000183000208430002064300020432900200E
:10C6B00057290020F0B585B06A462F4B684612CB4B
:10C6C00012C2FFF7DFFE2D4803F06AFA2C4803F090
:10C6D00071FA80235B055B6B022B0CD102AC00214D
:10C6E0000822200007F09AF9012023782100034353
:10C6F0002370FFF7C9FE01F041FC00F0D7FE01F006
:10C7000043F9204D204C2B7D2049DA07D20F0A70C7
:10C7100021009A07D20F57310A705A07D20FE276DA
:10C720002200260001271B07DB0F2F32137064360F
:10C73000E379002B08D02068002811D1A771A368E5
:10C74000002B01D0A07998471434B442F0D1483579
:10C75000FDF7A8FB2B78002B09D1002005B0F0BD18
:10C7600000F0CAFDA0710128E9D80720F6E70020F3
:10C77000FFF702FFF1E7C046EC62020091C701003B
:10C780008DC401001830002000290020432900201A
:10C7900070B5040086B001F095FC200004F0CAFAE0
:10C7A000200000F09BFE2388112B34D0192B3AD0A7
:10C7B000102B1ED101210800FBF7E6FC1C4B1D4E7F
:10C7C0001B78002B15D018220021684607F026F9A7
:10C7D0006D4603232B70B38F181C632B00D8642085
:10C7E00080B20521C00005F0FFFF28822800FFF776
:10C7F00043FE114D114EEB79002B04D0EB68002B5A
:10C8000001D0200098471435B542F4D12000FDF73F
:10C810000FFB06B070BD01200021FBF7B5FC002026
:10C82000FFF7AAFEE5E7A3790120002BE1D1F7E7A6
:10C8300062300020183000200029002064290020E8
:10C8400010B501F019FC064B984205D001F014FC1C
:10C850001321FFF715FE10BD0020FFF78DFEFAE74C
:10C86000FFFF0000704736DF704737DF7047A0DFFB
:10C870007047A6DF7047000010B5064C002803D1B2
:10C880002000FFF7F0FF10BD2078FFF7EEFF002338
:10C890002370F8E7B6400020F0B501268BB0040005
:10C8A0006F462A4D14220021280007F0B7F82A000D
:10C8B00069463000AC70BC703E80FFF7D8FF212283
:10C8C0000021F81D07F0AAF82B8801AC2380BB7863
:10C8D0000325A3711E4B1F4905932123E370113BD0
:10C8E000A3701D4B2000A5800793267200F02DFD3C
:10C8F0000C220223A270227AA380AA4300251343AC
:10C900002372164B164920000793049500F01DFD75
:10C910001449154806F02CFC144B18600523A84256
:10C9200010D0290006F0D3FD1148FBF753FF114842
:10C93000FBF750FF104B3100104A11481D7002F0F8
:10C9400091FD2B0018000BB0F0BDC046C440002084
:10C9500001001400C8400020B75D0200BB5D02006A
:10C96000D0400020BF5D0200AA5D0200B840002058
:10C970007829002064290020BD40002039CC010026
:10C98000C040002013B56B46DC1D21000448FBF7B6
:10C990006BFE002801D0207816BD01204042FBE745
:10C9A0006429002013B56B46DC1D064B01002200F4
:10C9B0001800FBF79EFE002801D0207816BD01204C
:10C9C0004042FBE764290020014B188980B2704780
:10C9D00064290020014B188980B270477829002013
:10C9E000F0B589B006ABD87101F046FB264B9842F2
:10C9F00003D10120404209B0F0BD2449002308685A
:10CA00004968234A05F0FCFF4B04C60B1E43CF0BBD
:10CA1000204B1E4905931B891D4A9BB2069308684B
:10CA20004968002305F0ECFF4B04C20B1A43CB0B03
:10CA300002920393029C039DA41BBD4100940195A7
:10CA4000059B069A9B88934209D1019B002BD0D16C
:10CA5000009BC72BCDD8052005F0CAFDD8E7019B68
:10CA6000002BC6D1009BC72BC3D801230A4C0598C5
:10CA7000237006ABDF1D3900FBF75BFE6B461B79AD
:10CA800038782370B7E7C046FFFF0000784F0020DA
:10CA9000E880000078290020BC40002003880100C5
:10CAA00010B5112B31D004D8012B35D0102B19D053
:10CAB00010BD502BFCD11D4BC0889B899842F7D1EB
:10CAC000CA8B1B482031FBF76EFEFBF767FC022880
:10CAD00003D101210020FBF757FB80204000FBF72A
:10CAE00099FEE5E7134B00211B8F134AD80300235F
:10CAF000801859410023114A05F062FF104B0100D4
:10CB00000022186802F0D4FCD2E70D4B186802F03E
:10CB100021FD0C48FBF75EFEFBF740FC0228C7D165
:10CB200000210800FBF730FBC2E7C046C4400020EC
:10CB3000642900201830002074400000E8800000C4
:10CB4000C040002078290020014B18787047C0466B
:10CB5000BD400020012310B5054A064811785B1A34
:10CB60001370FBF737FE0448FBF734FE10BDC046D8
:10CB7000BD4000207829002064290020F0B589B04C
:10CB800002AB0190D98014294BD8274900230868AB
:10CB90004968264A05F034FF4B04C40B1C43CD0BF7
:10CBA00001F0F0FA204900230290204A0868496801
:10CBB00005F026FF4B04C60B1E43CF0B3000390097
:10CBC000029B001BA941002B09D1002901D1C728D4
:10CBD00001D9042422E0012005F00AFDE0E7002944
:10CBE000F7D1C728F5D80B2002AB0522C01806F0F4
:10CBF00015FF0F4B04AC9B8823800123A37002AB6D
:10CC000006330693019B079301F036FA2100FFF7E4
:10CC100030FE84B2002C01D101F0BCFA200009B032
:10CC2000F0BD044CFAE7C046784F0020E8800000D1
:10CC3000C44000206280000030B5254B87B01B78CF
:10CC4000DCB2002B0FD101F017FA224B98420CD125
:10CC50002148FBF7BFFDFBF7A1FB022803D1210010
:10CC60002000FBF791FA07B030BDFBF797FB0228D5
:10CC70000FD1194B1B89002B03D0184B1B89002B9C
:10CC800007D1FBF78BFB022803D100210800FBF73B
:10CC90007BFA072401F076FA0028E4D014220E482B
:10CCA00001A9FBF70FFD051EDDD0FBF777FB02287E
:10CCB00003D101210020FBF767FA290001A8FFF743
:10CCC0005DFF0028CFD1013CE4B2002CE2D1CAE7DD
:10CCD000BC400020FFFF00007829002064290020CC
:10CCE00072DF704777DF7047A0DF7047A4DF7047BF
:10CCF000A8DF7047F0B5634E8DB004004E220021CE
:10CD0000300006F08BFE00225F4B327101939B8F47
:10CD100002AF73805D4B39001A70822332009B0191
:10CD20000120BC703B80FFF7DFFF21220021F81DAE
:10CD300006F074FE338803AC2380BB780226A3710F
:10CD40001123E370524B0325A38006232372514B1A
:10CD50002000E360504B514907930123A670A38242
:10CD600000F0F3FA082000224D4B4E4FA380237AA7
:10CD7000A070AB43334323724B4B20004B49E3601D
:10CD80000797A28200F0E1FA01210820002207970C
:10CD90000A27474BA070A380237A2000AB430B43A4
:10CDA0004449E260A282237200F0CFFA424BA7709E
:10CDB000A380237A2000AB43334323723F4B404987
:10CDC000E360404B0793019BA5331B78A38200F0DF
:10CDD000BCFA01213C4BA182A380237A2000AB4303
:10CDE00033432372394B3A49E3602B4BA7700793C7
:10CDF00000F0ABFA374B2000A380237A3649AB43CF
:10CE000033432372354BA770E360354B07930423FC
:10CE1000A38200F09AFA0121324BA182A380237AE7
:10CE20002000AB43334323722F4B3049E3601A4B4E
:10CE3000A770079300F089FA2D4B2000A380237A76
:10CE40002C49AB43334323722B4BA770E3602B4B2E
:10CE5000A682079300F079FA012108200022284BCE
:10CE6000A070A380237AA182AB430B4323720A4BA9
:10CE700020002449E260079300F067FA00200DB01B
:10CE8000F0BDC046F048002018300020D8480020EF
:10CE900081200000F448002001000100F648002035
:10CEA0008220000001001000A4300020FE48002075
:10CEB000832000000649002084200000BE300020AE
:10CEC0000E4900200100120085200000B53000202E
:10CED00016490020862000001E490020B83000209E
:10CEE0000400040087200000BC30002026490020F8
:10CEF000882000002E490020F24800200200020095
:10CF00008920000036490020F0B50388040085B070
:10CF1000512B4CD18379022B49D1804E028B33881F
:10CF20009A4244D1837A012B41D1008A7C4A3379D9
:10CF30008218012A3DD8002B1AD07A4B228C1B78FC
:10CF40009A4238D120007849223006F059FD002855
:10CF500031D1208A724BC3185A4253413371734BFB
:10CF6000C01805280BD805F0A1FB2963326677A508
:10CF70006F4B98421FD1238C013B0E2B1BD80025F1
:10CF800010220021684606F049FD6F460223BD804D
:10CF90003B706946A088FFF7ABFE664B228A9A4237
:10CFA00005D17388002B02D0634B9B8F738005B033
:10CFB000F0BD002BD3D084256D00E1E7228C5F4BC0
:10CFC0001A70FBF795FD00225D4B1A70D7E7238C92
:10CFD000042B00D09CE05B4A2300210094460125ED
:10CFE000223326310027DF571A78380028300DD039
:10CFF0003800143000DA8EE0042F00DD8BE0674645
:10D000001432D2B2D7402F4200D184E0013399428A
:10D01000E8D11F274C4B484D1B78E3180333DF57EB
:10D020000B23EB56BB42AAD03800FFF75BFEEF7232
:10D03000FBF75EFDA3E7238C012B69D1E31CDB7FAB
:10D04000032B68D8404A3C4D12789A4200D196E7AB
:10D05000EB180027A033E2E7228C022A58D12100E6
:10D060006D462231684606F021FE2988324B0029A0
:10D0700002D149331970DBE70A1C142900D21422AB
:10D08000A02190B28901884200D90A1C2A8091B25D
:10D0900000227088904204D11A0003204932107097
:10D0A0000122988F884201D09987C1E7002A00D1D8
:10D0B00065E7BDE7238C012B2AD1E31CDB7F002B26
:10D0C00000D15CE700271C4D174B204A1F602B0046
:10D0D00090331F602B0094331F602B0098331F6028
:10D0E0002B009C331A602B00194AA0331A602B00C6
:10D0F0002800184AA4331A8017490B22A63006F0DC
:10D10000D5FD280007223900B13006F087FC8FE7F3
:10D110000E25FF3534E70425FBE7C046F048002024
:10D120007EDFFFFFB4300020A43000207CDFFFFF53
:10D13000822000008820000018300020BD30002030
:10D14000D848002011111101BC300020100000EE61
:10D150000400FCF4010A000027630200F8B5134B39
:10D160001B78002B1FD01249002308684968114A18
:10D1700005F046FC104D4F04C20BCB0B3A43286818
:10D1800069680024121A8B41AE689C4201D1964214
:10D1900009D8064B1C7000F06FFF084B984202D173
:10D1A0000020FFF7E9F90020F8BDC046D84800206C
:10D1B000784F0020E8800000E0480020FFFF0000DA
:10D1C000F7B50C000D4B0A000100180006F06EFDCB
:10D1D0000B4B6E461C7000F04FFF0500094BB01C56
:10D1E000DF8B0622002106F019FC390028006A4670
:10D1F0003480FFF77BFD80B2FEBDC046BE3000200C
:10D20000BD300020F048002010B5002814D00122C5
:10D210000A4B0B4C1A70FA239B0043430949A36045
:10D22000094A00230868496805F0EAFB4B04C00B73
:10D230001843C90B2060616010BDC046D84800206B
:10D24000E0480020784F0020E8800000014B18786B
:10D250007047C046D84800200E2330B589B06B44D3
:10D2600018001222002106F0D9FB194B01AC0193E2
:10D27000184B194D1B780533237116236371174B17
:10D28000E3806733FF3323722B009F331B78637275
:10D290002B009E331B78002B04D0114BE38063805E
:10D2A000002323720E236B44122218000D4906F04E
:10D2B000FDFCAA8F0C4B21785A8023792000C918D5
:10D2C000002302311A00C9B2FFF70AFD09B030BDD0
:10D2D0000303AAFEBD30002018300020AAFEFFFF85
:10D2E000D8FEFFFFBE300020F0480020A2DF7047CC
:10D2F00063DF704764DF704730B587B06B4602006C
:10D30000DD1C00230F322B7002AB11781970110055
:10D310000133013A8842F8D16B460024290002A863
:10D320009C82FFF7E5FF83B20F2B09D101AC2200ED
:10D33000102002A9FFF7DEFFA3782B70287802E007
:10D340002000002BFAD007B030BDF0B530231126F5
:10D35000827893B004000191C6701A420ED003ADDA
:10D3600003220021280006F059FB0623AA782E701C
:10D370009A43043B1343AB70E3786B700BAD1C22F4
:10D380000021280006F04AFB3021A27800232A70F1
:10D390000A4200D003AB6B61112304AEA069338055
:10D3A0000F3BB370002809D00378002B06D06860CB
:10D3B00006F085FC80B2288168812E61237F002BD6
:10D3C00002D023001C33EB6005AF0322002138009C
:10D3D00006F024FB638A227A0093238A009891073F
:10D3E0001B1A581E8341490F0B431107C90F5207DF
:10D3F000C900D20F12010B4313433222BB70A37832
:10D40000134201D0E2783A700C22134201D0E37843
:10D410007B701A2002AB06220021C01806F0FEFA2B
:10D42000231D06930797A38A06AE3381009B320023
:10D43000B381E36829000A932088019BFFF756FF18
:10D4400080B213B0F0BD44DF704711DF704713DFC7
:10D45000704774DF704776DF7047000010B500F04A
:10D460000BFE084B984204D000F006FE1321FFF794
:10D47000F2FFFFF7EEFF00210120FAF785FE03F02F
:10D4800051FC10BDFFFF0000016881F3088840686F
:10D49000044AEFF305839A422AD1034CA64600477B
:10D4A0007047000000000000FFFFFFFF1FB5FAF704
:10D4B00053FE002401A9064B088006484B608C608F
:10D4C00004F060F9044804F04BF9200004B010BDEA
:10D4D000F9150200404900205DD4010010B5034B4E
:10D4E0000100180004F078FA10BDC0464049002041
:10D4F000064C064D061C064FF0B4064C054D054E75
:10D50000044FF0B40448004770470000FFFFFFFFDE
:10D510000000002100000000F9FFFFFF10B5054BDF
:10D52000054AD22189005A5040395A50FFF7ACFFC2
:10D5300010BDC046001001400100010010B50C4CA8
:10D54000FFF78CFFB120FFF77EFFFFF77EFF6069DA
:10D55000FFF77DFFC0228021064BC903520099507E
:10D5600004CBDA676069FFF7D9FF002010BDC04621
:10D570000010001000E100E0A0DF7047A5DF704759
:10D58000A6DF7047F0B58DB000F076FD1E4B9842D7
:10D590000AD01E4B1B78002B06D100F06DFD0190C8
:10D5A00000F0F0FD002801D10DB0F0BD184F02AB26
:10D5B0005C1C21003800FBF757F80028F4D02678CF
:10D5C00007AD320029003800FBF77CF88642EBD12A
:10D5D00002AB9E1C23780021338002ABD81D0522AC
:10D5E00006F01CFA0B4B03AC5B882100238001235F
:10D5F0000198A37005960695FFF7C2FF0028D3D1C6
:10D6000000F0C8FDCCE7C046FFFF000070490020D5
:10D61000A02900207849002070B51C4D8AB0040074
:10D620000A220021280006F0F9F96946184B2A0061
:10D6300001200B808C70FFF79FFF1648FFF75CFE00
:10D640002B8801AC23806B46060001252222002195
:10D65000981D06F0E3F9104B10496380104B200031
:10D66000A380104BA67105932572FFF76EFE0E483E
:10D67000FBF7B0F80D48FBF7ADF829000C4A0D4850
:10D6800001F0F0FE80B20AB070BDC04678490020BB
:10D690005A0E0000396302001E2100007A49002062
:10D6A000DBE5FFFF01001400A02900208C290020E9
:10D6B00085D5010074490020038873B50400112B3F
:10D6C0000AD0502B13D0102B05D11B4B00220B215D
:10D6D000186801F0EDFE73BD1848FBF77BF8184899
:10D6E000FBF778F8144B186801F034FFF3E7154A9C
:10D6F000C3885188861D994214D1338B042BEAD9F3
:10D700006A460F4DD11D28000B70FBF712F821005F
:10D710002800328B2031FBF746F88020C000FBF751
:10D7200079F8D8E7D2889A42D5D1338B022BD2D15F
:10D7300000F0AEFCCFE7C04674490020A0290020CD
:10D740008C290020784900201FB56B469C1D0023C2
:10D75000238000F091FC064B02AAD988022303948F
:10D760000293FFF70BFF01232088184004B010BD7F
:10D7700078490020F0B58DB004AB0390DC1D072084
:10D78000D971002932D000F077FC3D4B98422CD063
:10D79000FFF7DAFF03000820002B27D000F0F2FC8F
:10D7A000002825D0374B1B8999B2002B20D10E259C
:10D7B000132004ABED18237805222B8004ABC0188E
:10D7C00006F02CF9304B08AC5B880A9523800123C6
:10D7D000A370039B0B9300F04FFC2100FFF7D0FEDA
:10D7E00080B2002802D100F0D5FC00200DB0F0BDC1
:10D7F0002649002308684968254A05F001F94B04C9
:10D80000C40B1C43CD0B1F4B204902931B89204A9C
:10D810009BB2049308684968002305F0F1F84B04B3
:10D82000C20B1A43CB0B019304AB0092DA79029B33
:10D8300004999B88009E019F5B1A9BB2361BAF41E7
:10D840009A4209DB002F01D1C72E01D90420CDE770
:10D85000052004F0CDFED6E7002FF7D1C72EF5D86E
:10D8600001230C4C0298237004ABD91DFAF761FF19
:10D8700004ABDA7903990298FAF795FF2770B4E7B9
:10D88000FFFF0000A029002078490020784F0020E9
:10D89000E880000070490020A0DF7047A4DF7047D7
:10D8A000A6DF704770B58CB00422144902A806F0B8
:10D8B000FDF96B469E1D320002A90120FFF7ECFF27
:10D8C0006B465D1D64230E202B70338803AC22222F
:10D8D00000216844238006F0A1F8094B094A6380BF
:10D8E000094B2000049301230849237206950792EF
:10D8F000A382FFF72AFD0CB070BDC0464A63020048
:10D900001211000001000100192A0100824D0020BF
:10D91000F0B589B06A460300D71D38700720642B24
:10D9200011D800F0A9FB154B05001B8801260093B8
:10D93000134B04AC984208D104962200009967600A
:10D94000FFF7ACFF80B209B0F0BD13206B46002199
:10D9500005226844DE8106F061F8009B21002380E7
:10D960000E236B442800A670A360E760FFF798FFC2
:10D97000002801D100F00EFC0020E4E7824D0020D9
:10D98000FFFF0000A0DF704730B597B00422314997
:10D9900002A806F08BF96B469D1D2A0002A9012002
:10D9A000FFF7F0FF36202B880DAC222200216844BF
:10D9B000238006F033F8284B28486380284BE0602A
:10D9C0000E930223237206F07AF980B203A9A08293
:10D9D000608220822000FFF7B8FC224B2248A380FF
:10D9E000E06006F06CF980B205A9A0826082208216
:10D9F0002000FFF7AAFC1D4B1D48A380E06006F045
:10DA00005EF980B207A9A082608220822000FFF721
:10DA10009CFC184BA380FAF773FDE06006F04FF909
:10DA200080B209A9A082608220822000FFF78DFCCD
:10DA3000114BA380FAF74AFDE06006F040F980B28E
:10DA4000A082608220820BA92000FFF77EFC0020CC
:10DA500017B030BD82630200021100006E63020045
:10DA6000292A0100242A000062630200282A0000FB
:10DA70004E630200262A0000272A00000B7810B50A
:10DA80000C00022B02D0032B0BD010BD00F000FBCA
:10DA9000E379022BF9D105220021034805F0BEFFEE
:10DAA000F3E700F0F5FAF0E78A4D002030B59DB0BD
:10DAB00002AD20222C49280006F0F8F82B4B442216
:10DAC00000932B4B00210BA8019305F0A7FF294BD6
:10DAD00001210A93284B0AAC1A7DE56013000B4024
