:020000021000EC
:1080000000800020213602008536020087360200FB
:108010000000000000000000000000000000000060
:10802000000000000000000000000000893602008F
:1080300000000000000000008B3602008D360200B8
:108040008F3602008F36020045FC01008F36020099
:1080500041D501000000000035EE01008F3602001E
:108060008F3602008F3602001DD201008F360200CB
:108070008F3602008F3602008F3602008F360200E4
:108080008F3602000DF201008F3602008F3602009B
:1080900015F30100F92802002D0102008F360200BD
:1080A0008F3602008F360200000000000000000042
:1080B00000000000000000000000000000000000C0
:1080C000164B002B00D1144B9D46402292029A1A67
:1080D000924600218B460F461348144A121A0CF0A0
:1080E000D6FA0F4B002B00D098470E4B002B00D038
:1080F00098470020002104000D000D48002802D000
:108100000C4800E000BF0CF01BFA2000290005F02D
:1081100093FE0BF0A1FFC046000008000080002085
:108120000000000000000000042A0020C44F0020CE
:10813000000000000000000030B583B0041C0D1CDE
:10814000019001A900220CF0E5FE019BA34206D09C
:108150001A780023002A03D12860012300E00023BD
:10816000181C03B030BDC04630B583B0041C0D1CD4
:10817000019001A900220CF057FF019BA34206D0F9
:108180001A780023002A03D12860012300E000238D
:10819000181C03B030BDC04610B582B00C1C01A93C
:1081A000FFF7CAFF002805D0019BFF2B01D82370E1
:1081B00000E0002002B010BD10B582B00C1C01A977
:1081C000FFF7BAFF002807D0019B1A1C8032FF2A54
:1081D00001D8237000E0002002B010BD10B582B0BD
:1081E0000C1C01A9FFF7A8FF002806D0019B044A38
:1081F000934201D8238000E0002002B010BDC046A9
:10820000FFFF0000F0B583B0041C0D1C171C0378A1
:10821000202B03D101342378202BFBD0201C01A973
:1082200010220CF077FE019BA34221D91C1B022CCB
:1082300020DC6E1C28701A782D2A1DD1012F22D91E
:10824000012508E030700135EDB21A782D2A14D1DD
:108250000136BD4217D05C1C201C01A910220CF075
:1082600059FE019BA34208D91C1B022CEADD04E045
:10827000002502E0002500E001251878434258411E
:108280004042284000E0002003B0F0BDF0B55F465A
:108290004E464546E0B486B0041C9046002A00D104
:1082A000C4E0002800D1C3E00D1C0026201C2C21B6
:1082B0000CF018FD002803D0471C0023037000E0D9
:1082C000071C2378002B00D1A7E0A9462A78082AAA
:1082D00000D9AFE092005D4882589746202B03D129
:1082E00001342378202BFBD049464B681C6094E076
:1082F0006A78201C6968FFF785FF031C6B7000D04B
:108300008BE09CE0201C04A9FFF716FF002800D199
:1083100095E04F4B049A9A4203D1201C04A9FFF721
:1083200023FF4B46586804A904220CF08EF974E030
:108330006968201CFFF752FF00286ED17FE0696852
:10834000201CFFF729FF002867D178E06968201C0E
:10835000FFF732FF002860D171E0201C6968FFF749
:10836000EBFE002859D12378202B03D10134237848
:10837000202BFBD04B465A78201C996806F098FCBD
:108380000490002801DA002059E04946486804A911
:1083900004220CF05AF940E0201C6968FFF7FCFE4B
:1083A00000283AD104AB2B4905C905C32378202BFB
:1083B00003D101342378202BFBD0201C04A90222F6
:1083C00006F076FC0390002801DA002037E04B46E7
:1083D000586803A901220CF038F91EE01E48006815
:1083E000C3185B78590716D4201C06F04BFCAA680A
:1083F0009346201C0CF094FC021C5846211C06F0ED
:108400008BFB0490154B984205D068686A7804A9E4
:108410000CF01BF901E0002011E00136F6B24645F0
:108420000AD00C35002F09D03C1C3FE7002006E0A5
:10843000002004E0002002E0301C00E0301C06B008
:108440001CBC90469946A346F0BDC0460467020096
:10845000FFFFFF7F286702009C290020DFFDEF7EE1
:10846000F8B5051C0E1C171C0A7808490BF054FEC1
:10847000012F0AD9741CF719054E2278281C311CCB
:108480000BF04AFE0134BC42F7D1F8BD3067020060
:1084900038670200F0B5474680B4141C002921D18A
:1084A000134B1B689A421FD01248111C0BF0CCFED4
:1084B000114B1D1DE0339846104F114E381C211CE6
:1084C0000BF0C2FE301C211C0BF0BEFE01CD211CA6
:1084D0000BF0BAFE4545F1D10A48211C0BF0B4FE61
:1084E000002002E0084800E0084804BC9046F0BDC7
:1084F000D43B002044670200546A0200486702002F
:108500004C6702008C7002006280000063800000F3
:1085100010B5054C201C0021802252000CF0B7F849
:10852000024B1C6010BDC046102A00200C2A0020FF
:10853000F0B5474680B4071C88464C490CF0DEFB7A
:10854000002831D03B78002B13D03D2B11D03A1CA2
:10855000474D03242868C11848782040191C022878
:1085600000D12039117001321378002B01D03D2B3E
:10857000F0D1381C0CF0D4FB012805D93B78412BF5
:1085800002D17B78542B05D03A4841460BF05CFE73
:10859000394868E0BB780237002B05D1374841469F
:1085A0000BF052FE00205EE0354E00243568281C9A
:1085B0000CF0B6FB021C381C291C0CF0DDFB00285B
:1085C00005D00134E4B20436382CEFD101E0382C68
:1085D00005D1284841460BF037FE2A4843E0251CC8
:1085E000A400274BE0580CF09BFBFF2318403F18DA
:1085F000381C25490CF082FB002805D11F48414654
:108600000BF022FE00202EE0381C20490CF076FBF7
:10861000002802D1013701210EE03B783D2B02D129
:108620000137022108E00021002B05D01148414606
:108630000BF00AFE134816E0AD00154BEB58381C42
:1086400042469847041C134B1B78002B07D1002887
:1086500001D10A4800E0074841460BF0F5FD002231
:108660000C4B1A70201C04BC9046F0BD44670200FD
:108670009C290020586702006080000050670200BB
:10868000546A0200618000006067020064670200B3
:10869000346B0200102B0020F8B54F464646C0B49C
:1086A000041C514B1B68C31A5A425341DBB2984613
:1086B0009B004E4FFF18381C0CF032FB8146C6B2AF
:1086C000201C311C05F058FE051C431C03D1731EF1
:1086D0009E41F0B284E00D2801D00A2861D1381CF7
:1086E00043490CF00BFB00285BD104256368013B78
:1086F0006360002B05DA3F4A1068211C0CF06AF910
:1087000002E0236801332360013DEDB2002DEDD17D
:1087100001200AF065FF201C002105F02DFE0D2828
:1087200001D00A280DD16368013B6360002B05DA94
:10873000304B1868211C0CF04DF902E0236801331E
:1087400023604346002B0FD003F01CFF264C256806
:1087500003F012FF021C281C27490BF0DDFC2168E6
:1087600026480BF071FD15E002F0F8FB0123181A02
:10877000C0B202F0F9FB1F4C23689D6802F0EEFBCB
:10878000021C281C1C490BF0C7FC236899681B4875
:108790000BF05AFD381C002104220BF078FF012059
:1087A0001EE02B2D13D1002E0AD0022E12D8FF224C
:1087B0004B461A40381C12490BF038FF002809D1EB
:1087C000FF234A4613402B22FA54012008E00020E0
:1087D000002E05D0381C002104220BF058FF002089
:1087E0000CBC90469946F8BDD43B0020042A0020DA
:1087F00044670200002A00206867020050670200F8
:1088000070670200F0B54F4680B4051C0F1C574E30
:108810000136FF3692E00A2C04D00D2C02D0082C31
:1088200058D140E0524B1A68504B9A4200D885E02C
:10883000504B1B689B689F4207D14F4B1B7A002B04
:1088400003D04E48391C0BF0FFFC494B002219683D
:108850000A70464C1C60201C391CFFF769FE8146DB
:10886000201C47490CF04AFA002867D14A46002AE2
:1088700064D101200AF0B4FE281C002105F07CFD23
:108880000D2801D00A2859D16B68013B6B60002B81
:1088900005DA384B1868291C0CF09CF84EE02B6860
:1088A00001332B604AE0324B1A68304B9A4245D96B
:1088B000304B1B689B689F4207D12F4B1B7A002BC4
:1088C00003D03048391C0BF0BFFC294B1A68013A21
:1088D0001A6033E0264B1B68B3422FD2254B186831
:1088E00083689F4225D1244B1B7A002B21D0BB6883
:1088F000013BBB60002B17DAB9698B420FDB3A688A
:1089000014703B681A780A2A02D001333B6010E0E9
:10891000184B18680A213A1C0DF0F2FA09E0211CE4
:108920003A1C0DF0EDFA04E03B681C703B68013323
:108930003B600F4A1368591C11601C706B68013B47
:108940006B60002B06DA0B490868291C0CF042F812
:10895000041C03E02B68581C28601C78621C00D0A3
:1089600059E7002004BC9146F0BDC046102A002003
:108970000C2A0020002A0020D84700208C7002001A
:10898000446702007467020008B5011C0122034B12
:108990001A7003480BF058FC08BDC046102B00208D
:1089A0005067020071DF704774DF704776DF7047F1
:1089B00077DF704700B583B0012902D902290AD0B8
:1089C00042E0234BDB7A5BB2101C22491A1C0BF0ED
:1089D000A3FB002039E001235B4201931E4901AA59
:1089E0000CF0ECF800282BD001982023021C9A43AD
:1089F000131C28330DD01023021C9A43131C14336C
:108A000007D00423021C9A43131C103201D0002B00
:108A100018D140B2FFF7CCFF83B2181E15D10C4B12
:108A2000019ADA7205F0E4FAFFF7BEFF02F0C8FF20
:108A30000A4B984202D1002002F0CCFC002004E056
:108A4000074802E0064800E0054803B000BDC04604
:108A5000D847002068670200146C0200FFFF000086
:108A60006280000030B587B0151C012913D804AC12
:108A7000201CFFF797FFA279637921790091E178B3
:108A80000191A178029161780391281C03490BF0B0
:108A900043FB002000E0024807B030BD186C020024
:108AA0006280000010B5141C01290FD8A023802279
:108AB0005205D35801221A40201C05490BF02CFB0B
:108AC0000448211C0BF0C0FB002000E0024810BD50
:108AD000386C02008C7002006280000030B587B0F4
:108AE000141C012916D804A802F0FAFF051C002D59
:108AF00011D104A98A794B7908790090C87801903E
:108B00008878029049780391201C04490BF004FBFB
:108B1000281C00E0024807B030BDC046186C0200B7
:108B20006280000070B58AB0041C022900D09EE06B
:108B300004A8002115220BF0AAFD201C2C210CF00A
:108B4000D1F8002803D0451C0023037000E0051C69
:108B5000201C69460E31FFF741FB002800D188E058
:108B60006B46D9898223484AD152281C2C210CF00B
:108B7000B9F8002803D0441C0023037000E0041C53
:108B8000281C04A91022FFF73DFB102873D1201CDC
:108B90002C210CF0A7F8061E02D00023037001362A
:108BA000201C08A9FFF71AFB002866D004AB1A8A1C
:108BB00052BA04AB1A82301C2C210CF093F8051E1B
:108BC00002D0002303700135301C69462231FFF7C3
:108BD00005FB002853D004AB5A8A52BA04AB5A8220
:108BE000281C2C210CF07EF8041E02D000230370F8
:108BF0000134281C254902AA0BF0E0FF002840D0D0
:108C000004AB02981875002C0FD000230193201C90
:108C100001A9FFF791FA002802D0019B012B01D98D
:108C20001B482FE04A2218498B54174904AA0B1CF1
:108C30006C3331CA31C330CA30C312781A70012282
:108C40004923CA5405F0D4F9FFF7AEFE02F0B8FE8E
:108C5000104B984206D002F0B3FE1321FFF7A6FE98
:108C600000200FE0002002F0B5FB00200AE00848D9
:108C700008E0074806E0064804E0054802E004482A
:108C800000E003480AB070BDD84700203C6C0200E9
:108C900062800000FFFF000010B5141C012913D8EA
:108CA00002F08EFE0022094B984202D002F08EFEA6
:108CB000021C52B2201C06490BF02EFA0548211C5A
:108CC0000BF0C2FA002000E0034810BDFFFF0000D7
:108CD000146C02008C7002006280000000B585B048
:108CE000012902D9022909D02EE0194B1B7D101C45
:108CF00018491A1C0BF010FA002026E06A460023DF
:108D0000D370033201A901938B6007230B704A6073
:108D10000122FFF7BBFA012801D00F4815E06B468E
:108D200003331B780A4A127D9A420BD0084A137506
:108D3000002B03D000214923D15401E002F0C0FEF2
:108D400005F056F9002000E0034805B000BDC0461C
:108D5000D8470020686702006280000010B582B02A
:108D6000041C02291CD1124B1B7D002B1AD002F0CF
:108D700027FE031C08200F4A934216D068460021A4
:108D800008220BF084FC201C69460822FFF73AFAFF
:108D9000431EDBB2072B07D8684603F099FE04E0B8
:108DA000054802E0054800E0034802B010BDC04697
:108DB000D8470020FFFF00006280000063800000B1
:108DC000F0B557464E464546E0B48AB0041C022929
:108DD00068D13A4B1B7D002B66D00378002B65D001
:108DE000101CFFF7D1FD04A9354A0B1C61CA61C3F1
:108DF00003CA03C312881A80324B1A6802929A88F7
:108E000002AB9A80304B1D6800959B886E46B380FC
:108E1000201C2E490BF072FF43424341E41802A884
:108E200082462B4989460322904635E066785C2DC0
:108E30000BD15046311C0BF055FF002805D053468E
:108E4000C01A6E46355CA71CA678484600684319D0
:108E50005B7841460B400221012B07D004A8291C56
:108E60000BF040FF011C481E81414900281C03F003
:108E7000BFFD00281BD10F200AF0B2FBAE4201D08B
:108E8000002E08D10020002103F0B2FD00280ED1F1
:108E90000F200AF0A5FB3C1C671C2578002DC5D1CE
:108EA000002004E00B4802E00B4800E009480AB04B
:108EB0001CBC90469946A246F0BDC046D84700204B
:108EC000686C0200806C0200886C0200646C020016
:108ED0009C290020628000006380000010B588B0EB
:108EE000041C02293CD1224B1B7D002B3AD002F0FE
:108EF00067FD021C08201F4B9A4236D007A90023A9
:108F00000B800F230693201CFFF768F9002819D166
:108F1000002300930393059308236A4613700223EA
:108F2000537007AA0192144A02926A46137306AB61
:108F30000493201C69460222FFF7A8F9431EDBB206
:108F4000012B11D807AC201C03F08EFE06980AF006
:108F500047FB00232380201C03F086FE002004E052
:108F6000064802E0064800E0044808B010BDC046CC
:108F7000D8470020FFFF00009C6E020062800000C6
:108F80006380000000B58FB0022925D10CAA002310
:108F90000C931371FF2111700093029303930593B7
:108FA0000693089309930B93052369460B700132CE
:108FB00001920B73013204920B7601320792242244
:108FC0008B540DAB0A930422FFF760F90138C0B24D
:108FD000032803D9044804E0034802E00CA803F086
:108FE000D3FD0FB000BDC04662800000F0B547461B
:108FF00080B492B0022900D0EFE00EA97E4B0A1C8B
:1090000070CB70C21B6813600CAD00220C922A71E9
:109010000B926C460F2363852A3401AB01920392B5
:1090200004920792099204221A70029506251D7374
:109030005A730BAA0592069103221A7608940378B4
:109040006E4A1268D3185B78590774D400230093D2
:1090500001A90B7000AA4A600322FFF717F9031C4D
:109060000138C0B2022800D8BBE062E00B9B032BA2
:109070005FD1009800286CD00BF052FE052858D81C
:1090800000245E4E03275E4DA84614E000980219A6
:1090900013783068C11848783840191C022800D16C
:1090A00020391170009A515D40460BF01BFE0028DC
:1090B0003FD00134E4B2251C00980BF031FE84420D
:1090C000E4D300984C210BF00DFE002804D00CAB2B
:1090D000197801220A431A70009852210BF002FEFF
:1090E000002804D00CAB197802220A431A700098A9
:1090F0004D210BF0F7FD002804D00CAB19780422A9
:109100000A431A70009842210BF0ECFD002804D0AD
:109110000CAB197808220A431A70009846210BF00C
:10912000E1FD002815D00CAB197810220A431A7003
:109130000FE034485CE001A90322FFF7A7F8031C05
:109140000138C0B2022850D92E4851E00B9B032BA6
:1091500045D10CA803F018FD031C002B48D10CAB23
:109160001C780020002C43D00B9B022B0DD0032B2E
:1091700029D00020012B3BD10F200AF031FA0CA896
:109180000023037003F000FD32E00F200AF028FAFC
:109190000CA80023037003F0F7FC031C002B27D15D
:1091A0000F200AF01DFA0CA8047003F0EDFC031C5C
:1091B000002B1DD10F200AF013FA0CA80023037016
:1091C00003F0E2FC14E06B46588D0AF009FA0CA893
:1091D0000023037003F0D8FC0AE00A4808E00948BD
:1091E00006E0032B00D044E740E7032BB1D1ADE705
:1091F00012B004BC9046F0BD546C02009C290020C3
:10920000906C02006280000010B5041C02291DD180
:1092100002F0F2FA031C0820DA0718D502F0D0FB9E
:10922000031C08200A4A934211D0201C09490BF064
:1092300065FD43424341E418201C05F0DDFC064B6C
:109240001968201C0BF000F8002000E0034810BD56
:10925000FFFF0000646C0200D43B0020628000002D
:1092600070B5141C002933D102F0C6FA031C082083
:10927000DA0730D5184B19684B68013B4B60002B5F
:1092800004DA164B18680BF0A5FB03E00B685A1CB8
:109290000A601878431C1DD00F4E104D211C0AF097
:1092A00073FF33685A68013A5A60002A04DA286862
:1092B000191C0BF08FFB03E01A68511C1960107821
:1092C000421CEBD10648211C0AF0BEFF002002E040
:1092D000044800E0002070BDD43B0020002A00209C
:1092E0008C70020062800000F8B5071C0D1C161C73
:1092F00002F082FA041C0820E30741D5002D2FD08C
:10930000022D16D11BE0381C1E490BF0CDFC0028A5
:1093100011D18022D200521B92B2002A0DDB301CE8
:1093200019490AF0F9FE1948311C0AF08DFF002096
:1093300026E0174824E0164822E0154820E003F014
:109340007DF88024E400241AA4B203F071F8051C0F
:10935000381C10490BF0A8FC221C0028DDD0D2E7F5
:1093600003F06CF8041C03F063F88023DB001C1B83
:10937000A2B21B1A9BB2301C07490AF0CDFED2E7FD
:10938000F8BDC046806902003C6C02008C7002008F
:109390006280000074690200BC6E0200F0B557469E
:1093A0004E464546E0B484B0061C0D1C171C1C1C20
:1093B000274B1B68984203D1231C5343102B40DCDE
:1093C00002AA24490B6802938B8893807B00303378
:1093D00093701020391C0AF0A9F9A046002C2ADD50
:1093E0000024FF23034099461B4B9A460023019318
:1093F000201C49460AF0F0F900290AD1002C03D0BC
:109400001648311C0AF020FF301C51462A1C0AF075
:1094100083FE01A8291C3A1C0BF017F9ED19202036
:10942000311C0AF0B1FE301C02A9019A0AF074FE48
:1094300001344445DADB0948311C0AF005FF0020FD
:1094400000E0074804B01CBC90469946A246F0BD17
:10945000D43B0020B06E0200A46E02008C700200AB
:1094600063800000F0B587B0141C022932D10023BC
:1094700005930493039303AB00931D4905AA04AB22
:109480000BF09CFB032827D1059D002D26D0049AC4
:10949000002A25DD039E002E24DD531E012B01D959
:1094A000042A21D1D7B2391C042F00D90421C9B212
:1094B000281C0AF031F9002905D00E48211C0AF0B9
:1094C000C3FE0D4811E0B3B2201C291C3A1CFFF763
:1094D00065FF0AE0084808E0074806E0064804E09F
:1094E000054802E0044800E0034807B0F0BDC0466C
:1094F000B86E0200C46E02006280000008B5022946
:1095000007D0101C04490122FD23DB00FFF746FFB2
:1095100000E0024808BDC046D84700206280000035
:1095200038B501291DD8114B1968114B994209D141
:1095300004230F4C80252D010C4819180968A142FD
:109540000BD000E0002380210901CB1A101C09492F
:109550001A1C0AF0E1FD002006E00433AB42EBD117
:1095600001E0054800E0032038BDC0460078002037
:109570000DF0FECAD86E02006280000008B5002916
:1095800007D1101C0449042280239B00FFF706FF2B
:1095900000E0024808BDC04600780020628000005C
:1095A00074DF704776DF704708B5FFF7F9FF02F008
:1095B00007FA064B984205D002F002FA1321FFF792
:1095C000F1FF02E0002001F005FF08BDFFFF0000F1
:1095D000F0B5474680B4071C00240D4EA3B2984650
:1095E000A3009D59281C0BF09BFB021C281C391C56
:1095F0000BF01CF8002803D00134052CEED101E05B
:10960000404600E0034800B204BC9046F0BDC046AE
:10961000E06E0200FFFF0000F8B5061C0F1C084DAD
:109620000024301C29680BF0D1FB002801D03C70CD
:1096300005E00134E4B204350E2CF2D10020F8BD6F
:10964000EC6F0200F0B55F4656464D464446F0B416
:1096500093B0141C1D1C022900D0A0E0002311931C
:10966000109306A906938B60CB604B618B610B62F4
:1096700011AB4B6002230B7310AB0B6105230B7610
:109680006B463F33CB610322FEF700FE8046013874
:10969000C0B2022800D984E01198FFF799FF002892
:1096A00005DA4548211C0AF0CFFD44487CE001ABB7
:1096B0001870119E8000424BC0580BF031FB3018DF
:1096C00011900378002B44D001271222934669465B
:1096D0000331FFF7A1FF8146002803D0119BC61A72
:1096E000F6B203E011980BF01BFBC6B24B465A1EB4
:1096F0009341DBB29946FB185A46D31A9E4205DDC8
:109700003048211C0AF0A0FD09204DE001ABD8191A
:109710001199321C0AF099FF119A921992461192EE
:10972000F619F6B24B46002B0DD0731CDFB26A4619
:10973000D37801AA93559B00234A98580BF0F0FA6E
:109740005044119000E0371C11980378002BBED1D3
:1097500000E001274346012B05D9109B012B22D89D
:109760004A221A498B544246022A05D96B463F3396
:1097700019789F23154AD15401A8391C02F000FD25
:10978000041C002C10D1114B0321492299549E2214
:109790009D5404F02DFCFFF707FF201C04E0074850
:1097A00002E0064800E0054813B03CBC90469946EC
:1097B000A246AB46F0BDC046F46E020062800000D7
:1097C000E06E0200206F0200EC6F0200D84700201C
:1097D00008B50023FFF736FF08BDC04608B50123D2
:1097E000FFF730FF08BDC04638B5051C4923204CA3
:1097F000E35C033B58424341DCB2012906D8101C0C
:109800001C49221C0AF088FC00202FE0022922D1EA
:10981000281C19490BF072FA002823D0281C17497C
:109820000BF042FA00281DD0281C15490BF066FAEF
:10983000002812D0281C13490BF036FA00280CD04F
:10984000114813E049230A4AD15404F0D1FBFFF731
:10985000ABFE00200AE00C4808E00021081C8C4206
:1098600004D0EFE70321012CECD1002038BDC04625
:10987000D847002068670200346F0200A068020029
:10988000386F02003C6F02006280000000B585B0B6
:10989000002902D0022903D020E0B423039312E070
:1098A00000230093029302236A46137003AB0193D3
:1098B00069460122FEF7EAFC012802D1039B002B36
:1098C00001DC08480BE0039802F07AFC03214923ED
:1098D000054AD154FFF768FE002000E0014805B0BA
:1098E00000BDC04662800000D847002074DF70478A
:1098F00076DF70477CDF704730B583B0031C141CE3
:10990000012902D9022909D032E01B48111C0AF0B2
:109910009BFC1A48211C0AF097FC27E0164D281CD6
:10992000191C1F220BF03EFA04F062FB01AC2378F5
:109930000F229343012213430F221340102213439B
:109940002370281C0BF0ECF982B2201C291CFFF7B5
:10995000D1FF83B2181E0CD1FFF7C8FF02F030F818
:10996000074B984202D1002001F034FD002000E0B6
:10997000044803B030BDC046244800208C7002006B
:10998000FFFF00006280000010B5141C012910D8F0
:1099900002F016F8084A8318584243413120C01A91
:1099A000211C0AF0F1FB0548211C0AF04DFC0020A7
:1099B00000E0034810BDC0460100FFFF8C700200AC
:1099C0006280000008B500290DD101F0F9FF021CEA
:1099D0000020064B9A4207D001F0F2FF1321FFF757
:1099E00087FF80B200E0024808BDC046FFFF0000CC
:1099F0006280000008B5002902D102F061F800E0A1
:109A0000004808BD62800000F0B587B0061C0C1C41
:109A1000151C02A8294910220AF017FE012C02D9B0
:109A2000022C20D03EE001260024254F02E0013424
:109A30000136F6B2E3B2002B36D0381C291C0AF0EE
:109A400003FCFF2222401C3252001E4BD25A281C1B
:109A50001D490AF061FB032EE9D91C48291C0AF0B4
:109A6000F3FB002027E01A4C6D460A35271C083707
:109A7000301C01A90A220BF04DFA019E0136002884
:109A800009D0AA1E1288904202DB2A88904201DD8A
:109A9000104810E0208002340435BC42E8D104F0C4
:109AA000A7FA08E00B4806E0064B1A8F281C064967
:109AB0000AF032FBBBE707B0F0BDC04624700200DD
:109AC00048670200D8470020146C02008C70020026
:109AD000104800206280000008B5002901D002294A
:109AE00003D1002001F076FC00E0014808BDC0462B
:109AF0006280000008B5002903D1FFF7F7FE80B2AD
:109B000000E0014808BDC0466280000010B582B088
:109B1000141C012902D902290DD024E04823134A3C
:109B2000D05C3030211C0AF02FFB1148211C0AF0B8
:109B30008BFB002018E00F4901AA0BF03FF8012829
:109B400002D1019B012B01D90B480DE048220749A6
:109B50008A5C934205D05A1E934148228B5404F0EC
:109B600047FA002000E0044802B010BDD8470020AA
:109B70008C700200146C02006280000030B591B05D
:109B8000022942D100230F9301A901938B60CB607E
:109B90004B6101230B701F234B7007AB4B600223FB
:109BA0000B730FAB0B610222FEF770FB041C013834
:109BB000C0B201282BD801AB5A78174D8B23EA5439
:109BC000281C6C3007A90AF040FD02224923EA5400
:109BD000022C05D10F9B012B1BD84A220E498B5416
:109BE00004F006FAFFF782FE01F0EAFE0B4B984202
:109BF00006D001F0E5FE1321FFF77AFE002009E010
:109C0000002001F0E7FB002004E0054802E00448E2
:109C100000E0034811B030BDD8470020FFFF00002E
:109C200062800000A4DF7047A5DF7047A6DF7047A1
:109C3000F8B54F464646C0B480468946171E15DD26
:109C40000026002463B29B004A469D58281C0BF056
:109C500067F8021C4046291C0BF06AF8002807D060
:109C60000134E4B266B2BE42ECDB01E0002600241F
:109C7000B7420BD063B29B004A4698580BF050F89D
:109C80004246135C3D2B02D0FF2400E0FF2460B26B
:109C90000CBC90469946F8BDF0B5474680B486B0F6
:109CA000051C0E1C171C1C1C05A9FEF745FA0028F4
:109CB0001BD0214B059A9A4203D1281C05A9FEF717
:109CC00053FA059A13BA0593032C06D9301C05A93B
:109CD00004220AF0BAFC201C2AE006AB191B301C37
:109CE000221C0AF0B2FC201C22E0281C6946221C1F
:109CF000FEF788FA8046011E0BD00020B94217D328
:109D0000444515D3301C694642460AF09EFC404645
:109D10000EE0281C0BF004F8031CC0B2A04200D9CE
:109D2000231CDCB2301C291C221C0AF08EFC201CD7
:109D300006B004BC9046F0BDFFFFFF7F10B5141CB9
:109D4000002802D0012810D01EE0081C111C10228F
:109D5000FEF758FA102819D100232375A3781B02A7
:109D6000E27813432382002015E0131C1033081CF3
:109D7000191CFEF733FA00280AD0238A002B09D0D9
:109D800001232375002006E0034804E0024802E0B6
:109D9000014800E0004810BD62800000F0B5474671
:109DA00080B480460E1C171E042F19D9002F23D013
:109DB0000978002920D0154B1B685918497868206C
:109DC00081430DD00024682103E05D196D788D4337
:109DD00006D00134A2420FD9355D002DF5D10BE03C
:109DE000012F03D10A4841460AF02EFA4046311CA1
:109DF0003A1CFEF735FB05E0301C01213A1C4346B6
:109E00000AF08EFB04BC9046F0BDC0469C290020A1
:109E10006470020008B504480021044A0AF037FCC7
:109E200004F0E6F8002008BD904800200C07000070
:109E3000F0B557464E464546E0B486B0041C171CA4
:109E4000022972D1B8233D4AD35C04200A2B6FD07B
:109E50006846002118220AF01AFC201C2C210AF066
:109E600041FF002803D0451C0023037000E0051CBF
:109E7000002C38D032488046814630E001342378C7
:109E8000202BFBD0201C41460222FFF7D1FE061EEC
:109E90000EDB83004A4698580AF042FFF6B2411C96
:109EA0006118301C6A46FFF749FF061E08D000E023
:109EB000244E381C2449221C0AF02EF9301C37E0AD
:109EC000281C2C210AF00EFF002803D0431C00227E
:109ED000027000E0031C002D05D02C1C1D1C2378F3
:109EE000202BCBD0CEE76E46338A002B1FD0134CED
:109EF000B825605D824641005144C9006118BC31FB
:109F00006A4649CA49C149CA49C1504601306055EB
:109F100004F06EF8625D381C0C490AF0FDF80C483C
:109F2000391C0AF091F9002002E0064800E00548DB
:109F300006B01CBC90469946A246F0BDD84700200A
:109F4000387102006280000068700200146C020028
:109F50008C700200F0B557464E464546E0B48EB0D0
:109F6000041C151C022900D0DEE0B8237B4AD35C18
:109F70000420002B00D1EBE0B923D35C1E2B00D1D1
:109F8000E6E001A8002134220AF081FB201C2C21EC
:109F90000AF0A8FE002803D0471C0023037000E04D
:109FA000071C002C00D18BE06D4A904691466D4A0B
:109FB000924680E001342378202BFBD0201C4146C0
:109FC0000622FFF735FE061E67DB83004A469858D7
:109FD0000AF0A6FE01302018F3B2052B5DD89E00D2
:109FE000524693599F4669460631FEF7F7F8002816
:109FF00053D001AB5B88002B4FD0012201AB1A7507
:10A000009FE002A91022FEF7FDF8102845D101AB10
:10A0100000221A759A791202D9790A435A8090E07F
:10A0200069460331FEF7B8F8002836D06B46033393
:10A030001B78002B31D06846053069460331012278
:10A040000AF003FB7DE069461931FEF7A5F8002808
:10A0500023D001AB5B7D013B132B1ED871E0694619
:10A060001A31FEF799F8002817D001AB9B7D013B10
:10A07000132B12D865E001AB5A7D002A5CD19B7D81
:10A080000122002B02D1142300E0131C07A9FFF7C3
:10A0900003FE01ABD875002853D1281C3249221C7D
:10A0A0000AF03AF8314853E0431C00220270002FB6
:10A0B00006D03C1C1F1C2378202B00D17AE77DE7BB
:10A0C00001AB9B7D002B02D101AB5A7D9A7501AB90
:10A0D0005B7D002B2AD001AA927D9A4228D301AB46
:10A0E0005B88002B26D01D4CB823E35C013BDBB220
:10A0F0009846B926A75D34225743E019AD30FF30AA
:10A1000001A90AF0A2FAE719AD37FF3743463B70C1
:10A11000A35D0133A35503F06BFFA25D281C144916
:10A1200009F0FAFF002013E0104811E00F480FE09B
:10A130000E480DE00D480BE001AB9B7D002BA5D137
:10A14000A3E7381C2C210AF0CDFD031EAFD0ABE7EE
:10A150000EB01CBC90469946A246F0BDD8470020E0
:10A160004C700200347002007C70020062800000BB
:10A170006867020000000000F0B557464E464546AD
:10A18000E0B48AB0041C151C022900D0DDE07E4931
:10A1900005AA0AF013FD002800D1D8E0059B002B8A
:10A1A00000DCD6E0B92279498A5C934200DDD2E036
:10A1B000013B34267343CE18AD36FF36201C2C21CC
:10A1C0000AF090FD041E0BD1311C1831F27D281CC1
:10A1D000FFF7E4FD6E48291C0AF036F80020C8E0BD
:10A1E0000378002B00D1B8E001F0EAFB071C351C16
:10A1F0001835601C727DB37D291CFFF74DFD6A4642
:10A200001080727D824200D99BE0B27D824200D2F2
:10A2100099E0F07503F0ECFEB38D0020834200D18D
:10A22000A7E05C4B9F4200D179E0727830231A425C
:10A2300075D06B4658800233318E06AA02241480F2
:10A2400050805360381CFFF7EFFC7478E406E40F8D
:10A2500005D06B4602331B88D80700D57FE07378A2
:10A260009A065CD56B4602331B88980757D501AA1E
:10A270009046101C002110220AF009FAB38D4046C6
:10A28000038063425C41013401AB9C7000AA0392DD
:10A29000049501F039FC002832D13F4B3F4AD05899
:10A2A000410CC003374B364A09F0A2FA80463B4BBB
:10A2B0009A4639488146334D314C02E0012009F07D
:10A2C0008FF901F021FC00280CD152464A44106855
:10A2D000410CC003221C2B1C09F08AFA4346C01A09
:10A2E000C728EBD92C4B2D4AD058410CC003254B25
:10A2F000234A09F07DFA4246831A0420C72B38D836
:10A30000381C01A9FFF792FC83B2181E31D1737873
:10A310000020DA062DD501F0FFFB002029E0727D38
:10A32000B37D00209A4224D0B18D08AA68460388E4
:10A330001380002353805360381CFFF773FC80B2F6
:10A3400017E0174815E0164813E0154811E01448C7
:10A350000FE013480DE012480BE0114809E001AC92
:10A36000201C002110220AF092F9B38D23800124D1
:10A370008AE70AB01CBC90469946A246F0BDC0468A
:10A38000E8800000000000003C6C0200D84700207C
:10A390008C700200FFFF0000040500000010014067
:10A3A00062800000C046C046F0B55F4656464D4646
:10A3B0004446F0B483B0171C00296FD13E4B1B6894
:10A3C0009A426DD0B8233D4AD35C002B6AD0002658
:10A3D00092463B4B99463B4B9B467400A419E400C4
:10A3E0005444BC34721C238A381C494609F094FE3C
:10A3F000237D012B08D05846391C09F025FF381C55
:10A40000211C1022FEF72CF82F48391C09F01CFFE4
:10A41000B9232A4AD35C002B38D000249046342537
:10A4200065434544AD35FF352B78B34227D1621CD7
:10A430006B88381C254909F06FFE2B7D012B0CD051
:10A440002348391C09F000FF291D381C1022FEF793
:10A4500007F82048391C09F0F7FE6A786B7DA97D62
:10A460000091381C1C4909F057FE291C1831EA7D5F
:10A47000381CFFF793FC1448391C09F0E5FE013441
:10A48000E4B2B9230D4AD35CA342C8D80136F6B270
:10A49000B8230A4AD35CB3429FD805E00F4804E0D2
:10A4A0000F4802E0002000E0002003B03CBC9046D2
:10A4B0009946A246AB46F0BDD43B0020D8470020C9
:10A4C00090700200A47002008C700200B070020054
:10A4D000C870020048670200D47002006280000069
:10A4E0006380000000000000F8B55F4656464D4608
:10A4F0004446F0B4041C4248211C09F0A5FE414B1F
:10A50000414AD058410CC0033C4B3B4A09F070F91A
:10A51000061C3E4B1B689C4232D1A023DB059946AA
:10A52000384F80239B049846374A9346334D324C2C
:10A530002C23FF339A464A46D359424613420ED043
:10A54000A023DB0599462F4F80239B0498462E4B72
:10A550009B462A4D284C2C23FF339A460BE05A4643
:10A56000D059410CC003221C2B1C09F041F9801B5F
:10A570005045E0D9E4E74A46D3594246134205D153
:10A58000214B98461F4F1D4D1B4C0BE05A46D0598E
:10A59000410CC003221C2B1C09F02AF9801B5045DA
:10A5A000E9D9EDE703F014FD00280CD04246D35959
:10A5B000590CD803221C2B1C09F01AF9801B2C23E0
:10A5C000FF339842EED90F4B0F4AD058410CC003CD
:10A5D0000A4B094A09F00CF9861B312E03D83220A8
:10A5E000801B08F0FDFF3CBC90469946A246AB4656
:10A5F000F8BDC046C046C046E8800000000000002C
:10A600005067020004050000001001407432002071
:10A61000F0B5474680B494B080460F1C151C8023CB
:10A620005B055A6E1B6E0FAC201C26490AF0A4FA7B
:10A6300004F098FA021C0AAE301C23490AF09CFA76
:10A6400000230293214B039304960594204B069319
:10A650000793204B089304F09FFA0990002F02D033
:10A66000022F0ED026E003AC0AAF1B4E01CC291CF2
:10A6700009F0EAFD301C291C09F0E6FDBC42F5D1C9
:10A680001AE04046154901AA0AF098FA002803D0BA
:10A69000019B5A1E062A01D911480EE09B0002AA0E
:10A6A0009858291C09F0D0FD0B48291C09F0CCFD55
:10A6B000002002E00A4800E0002014B004BC9046EC
:10A6C000F0BDC046407102004C710200587102009A
:10A6D00068710200707102008C700200146C02003C
:10A6E0006280000038B5051C141C012902D902291A
:10A6F0000CD01FE0124B187A3030111C09F044FDC9
:10A700001048211C09F0A0FD002018E00AF008FB09
:10A71000012811D12B78303BDBB2012B0ED8084A2F
:10A72000127A00209A420AD0054A137203F060FCA4
:10A73000002004E0044802E0034800E0024838BD7D
:10A74000D84700208C7002006280000008B5002904
:10A750000AD1101CFFF7C8FEBFF34F8F034A044B0A
:10A76000DA60BFF34F8FFEE7024808BD0400FA0528
:10A7700000ED00E06280000010B5141C00290ED12D
:10A7800003F09AFC01F09CF9201CFFF7ADFEBFF32B
:10A790004F8F044A044BDA60BFF34F8FFEE7034844
:10A7A00010BDC0460400FA0500ED00E06280000024
:10A7B00008B5002906D1101CFFF796FE01F01CFA1F
:10A7C000002000E0004808BD6280000010B50029AC
:10A7D00023D1134B1B689A420CD101F0D3FE104BCE
:10A7E0001C6801F0C9FE021C201C0E4909F094FCF3
:10A7F000002013E000F0B2FB0123181AC0B200F0F1
:10A80000B3FB094B1B689C6800F0A8FB021C201CD2
:10A81000044909F081FC002000E0044810BDC04656
:10A82000D43B002068670200002A002062800000FC
:10A8300010B582B0141C022918D1114901AA0AF0DE
:10A84000BDF9002814D00199072913D8022913D083
:10A85000C9B20220002202F05FFB02F097FB021C4B
:10A86000201C084909F058FC002006E0064804E0D6
:10A87000054802E0044800E0034802B010BDC046AD
:10A88000146C02007C7102006280000010B5141C80
:10A8900000290AD102F068FB02F08CFB021C201C8C
:10A8A000034909F039FC002000E0024810BDC04611
:10A8B0007C7102006280000039DF70473ADF704728
:10A8C00052DF704710B582B0141C012918D801A8B6
:10A8D000FFF7F6FF002811D1019BD917890FCB187C
:10A8E0009A10032003405B1A9900CB1899005B185B
:10A8F000201C054909F010FC002002E080B200E0B5
:10A90000024802B010BDC046A8710200628000007B
:10A9100010B582B0141C02292AD101235B42019395
:10A92000174901AA0AF04AF9002823D0019B1F2BDE
:10A9300022D8C133FF339B0080218902A022D20597
:10A9400099501048211C09F07FFC322008F048FE85
:10A950000020002100F00EFB0120002100F00AFB86
:10A960000121A023DB008022D205D150002004E089
:10A97000054802E0044800E0034802B010BDC046AC
:10A98000146C02005067020062800000F0B5474678
:10A9900080B486B09046002902D0022904D056E047
:10A9A00004226B46DA750BE069461731FDF7F4FBBC
:10A9B00000284ED06B4617331B78013B0F2B4AD82B
:10A9C00000256C46033400276E4617362770201C7E
:10A9D000FFF772FF83B2002B19D12378002B12D01E
:10A9E0003178491B0A1CC9B2994200D91A1CD1B24C
:10A9F000227001AB5819FFF761FF80B200282BD1FC
:10AA00002378ED18EDB23378AB42DFD801E0181CA3
:10AA100022E01348414609F017FC6B4617331B78B8
:10AA2000002B0ED000240F4E6D46173501AB1A5D7A
:10AA30004046311C09F070FB0134E4B22B78A3428C
:10AA4000F4D80948414609F0FFFB002004E007481C
:10AA500002E0064800E0054806B004BC9046F0BDA0
:10AA600064700200306702008C7002006280000097
:10AA700010B582B0002902D0022909D034E01C4B65
:10AA80009B7A101C1B491A1C09F046FB00202CE085
:10AA900069460731FDF780FB002804D06B46073379
:10AAA0001B78012B01D914481FE0114A927A9A426F
:10AAB00018D0002B03D10120002100F05BFA6C4676
:10AAC000E2790B4B9A7203F093FAE379012B09D1E7
:10AAD00000F076FF094BC1184B1E9941C9B2012005
:10AAE00000F048FA002000E0034802B010BDC04664
:10AAF000D847002068670200628000000100FFFF65
:10AB0000F0B5474680B492B094460CAA354B141C5D
:10AB10001D1CC4CDC4C4C4CDC4C409AC1833C4CB3B
:10AB2000C4C4002902D002290CD055E02E4B597A1A
:10AB300089000CABCB5860462C491A1C09F0ECFA82
:10AB400000204AE0012301930023029303A9062376
:10AB50000B704B7001AA4A600CAA8A600B73032326
:10AB60004B7302AB0B6109AB4B610222FDF78EFB0D
:10AB700000282FD0012803D9019B052B2AD102E000
:10AB8000019B052B26DC184A527ADBB29A4208D088
:10AB90000020002100F0EEF9134B019E5E7203F0DD
:10ABA00027FA019F052F13D1029B022B0AD1002007
:10ABB00000F0ECFA0123011C5940C9B2002000F05A
:10ABC000D9F905E05A1E9341D9B2002000F0D2F91C
:10ABD000002002E0064800E0054812B004BC9046A0
:10ABE000F0BDC04684710200D8470020B471020055
:10ABF00062800000F0B54F464646C0B483B0161CD4
:10AC0000002902D0022924D038E003240125224B58
:10AC100098460027214B9946E0B202F013F900282C
:10AC20000BD0002D03D14846311C09F00DFB301C20
:10AC30004146221C09F070FA3D1C0134782CEBD1FE
:10AC40000020002D22D11648311C09F0FDFA002009
:10AC50001CE000230193134901AA09F0AFFF00286B
:10AC600003D00198C31E742B0AD90F480EE0301C84
:10AC70000E49019A09F050FA002007E00A4805E061
:10AC8000C0B202F0DFF80028F6D0F0E703B00CBC49
:10AC900090469946F0BDC046F07102004867020038
:10ACA0008C700200F871020062800000FC710200EA
:10ACB000011C00201F2919D80D4B1878002810D02E
:10ACC0000C4B1B788B420ED00B4B0138C0B21818BE
:10ACD00003E01A7801338A4207D08342F9D1012078
:10ACE00004E0012002E0002000E000207047C046A0
:10ACF00018720200087202000972020030B583B0B7
:10AD0000141C022941D1264901AA6B4609F056FFBD
:10AD1000012805D002283AD1009D012D39D812E032
:10AD2000A223DB00A022D205D358019AD3400120F0
:10AD300018403030211C09F027FA1A48211C09F06C
:10AD400083FA00202AE0184BA022D205D358019C98
:10AD5000E340DA071FD5201CFFF7AAFF00281CD00C
:10AD6000002D08D10123A3401C1C104BA022D205AA
:10AD7000D450002012E00123A3401C1CA123DB00BF
:10AD8000A022D205D450002008E0094806E0084877
:10AD900004E0074802E0064800E0054803B030BD83
:10ADA000BC6E02008C700200140500000C0500004F
:10ADB0006280000030B583B0141C022964D1384988
:10ADC00001AA6B4609F0FAFE012805D002285DD1E0
:10ADD000009D032D5CD823E0324BA022D205D2582F
:10ADE000019BDA400120D1070FD49B00A022D2059D
:10ADF0009B18E022D2009A580320510705D4E02284
:10AE0000D20098580007C00F400000903030211C3D
:10AE100009F0BAF92448211C09F016FA00203CE098
:10AE2000019C201CFFF744FF002833D0012D08D0DF
:10AE300002DC002D0ED02FE0022D13D0032D1AD0EE
:10AE40002AE0C134FF34A4000322A023DB05E25032
:10AE5000002022E0C134FF34A4000020A023DB0541
:10AE6000E0501AE0C134FF34A4000C22A023DB051B
:10AE7000E250002011E0C134FF34A4000422A023DA
:10AE8000DB05E250002008E0084806E0074804E03F
:10AE9000064802E0054800E0002003B030BDC0468F
:10AEA000BC6E0200140500008C700200628000007D
:10AEB00010B586B0022925D1174905AA04AB09F0BF
:10AEC0007DFE022820D1059C201CFFF7F1FE002802
:10AED0001CD0049A642A1BD8684600210E2209F06F
:10AEE000D6FB01236A461370547013710223537109
:10AEF0009372684602F07EF80020049902F06AF925
:10AF0000002006E0054804E0044802E0034800E0B1
:10AF1000024806B010BDC046BC6E02006280000050
:10AF200048DF70477047C046830702D50122044BB3
:10AF30001A708B0702D50022014B1A707047C04669
:10AF4000142B0020014B18887047C046122B00209C
:10AF5000014B18887047C046902E0020014B18788E
:10AF60007047C046142B0020014B18707047C04634
:10AF7000142B0020012805D10E4B9B7A1320002BA7
:10AF800004D115E0434243411320C01A002908D0E0
:10AF900001238340181CA123DB00A022D205D0503E
:10AFA00006E001238340181C034BA022D205D05099
:10AFB0007047C046D84700200C05000030B58DB062
:10AFC000A823DB005D4AD15800235D4A914204D892
:10AFD000A823DB00594AD3589BB25A4A1380A823AE
:10AFE000DB00594AD1580023554A914204D8A8237E
:10AFF000DB00554AD3589BB2544A13800023009378
:10B00000202008210622524B04F0E2FB002803D046
:10B010000021002200F0F2FB02204E4903F07CFFE9
:10B02000002803D00021002200F0E8FB09A80B2330
:10B03000037009234370082383700A23C37001231C
:10B04000037100224271444B83606B46DA810E33F8
:10B05000424A049280220592414906910792009348
:10B0600004A9404A012304F04DFE80B2002862D1B9
:10B070003D4B1B689868002109F0EEFC09203B4914
:10B080004822002305F018F8002803D000210022F0
:10B0900000F0B4FB364805F03FF880B200284AD1F2
:10B0A00006F0B4FE80B2002845D103F0A3F80028D2
:10B0B00041D1A023DB050C21E822D2009950A22225
:10B0C000D2009B58DA030BD42A4808F089FAA2234D
:10B0D000DB00A022D205D358DA0301D402F0ECFF42
:10B0E000A024E4050C25244BE55001F0D3FE02F02A
:10B0F0007FFB224BE5506846233002210222204B81
:10B1000003F048FF80B2002815D16B46233318782E
:10B1100003F06CFFA222D200A1588907C90F194A77
:10B1200011700322E921C9006250174962500120C1
:10B130000021FFF71FFF0DB030BDC046009000405A
:10B14000FEFF0000122B002000A00040902E0020E7
:10B15000182B0020682E002000502700DC2E002035
:10B160005C2F002025AF0100002A0020942E002033
:10B17000791C0200DC0500001C0700000407000029
:10B1800029AF0100142B00204C070000431E9841FA
:10B190001230044BA022D205D358C340181C0123FF
:10B1A0001840704704050000014B587A7047C046AC
:10B1B000D8470020031C0020002B08D1A223DB006D
:10B1C000A022D205D058C00901235840184070472A
:10B1D00008B5FFF7A5FE08BDF8B54F464646C0B412
:10B1E000071C254D254C2859410CC003214B204AF2
:10B1F00008F0FEFA061C2859410CC0031D4B1C4ADE
:10B2000008F0F6FA801BF423FF33984216D8A946BB
:10B21000A046184D164C381C04F0C0FE00280DD076
:10B220004A4642441368590CD803221C2B1C08F0D0
:10B23000DFFA801BF423FF339842ECD90F4B0E4A00
:10B24000D058410CC0030B4B094A08F0D1FA861BB9
:10B25000381CF423FF339E4203D904F0ABFE0120D7
:10B2600040420CBC90469946F8BDC046C046C04618
:10B27000E88000000000000000100140040500000C
:10B2800000B583B06846073004F074FE002802D190
:10B290006B46D87901E00120404203B000BDC046B2
:10B2A00000B583B06946073104F094FE002802D14E
:10B2B0006B46D87901E00120404203B000BDC04692
:10B2C00072DF704773DF704774DF7047A0DF70472D
:10B2D00060DF704768DF704708B506F0CDFC08BD39
:10B2E00038B50024064D2B19DA79002A03D01B69E2
:10B2F000002B00D0984714343C2CF4D1002038BDEA
:10B300000029002030B58FB002282CD8694637318B
:10B31000164BDB7A0B700CAA154B84002518AD0078
:10B320005D19AD8815802418A4001B199B799370B2
:10B3300000230093029304930593069307930893C5
:10B3400009930A930B9306236C46E3700191012342
:10B3500023810392022800D1A3706846002105F0E2
:10B36000FFF880B200E003480FB030BDD84700209E
:10B37000002900206280000030B597B010AC022395
:10B38000237015236370124D291C6C3168464230BE
:10B39000152209F05AF90DAA8223EB5A13801723BC
:10B3A00093800F9401A80023019343608360C360DE
:10B3B000036143618361C36103628362C3620423E7
:10B3C000C3704262002105F0CBF880B217B030BDE7
:10B3D000D847002070B59AB0061C14AC0023149313
:10B3E0001593169317931993544DA88FC0000521F8
:10B3F00008F09CF92082EB8F6382002E04D014ABFE
:10B400004F4A1A8200225A8249234C4AD35C012BAC
:10B410001BD0002B04D0022B0DD0032B20D089E0B1
:10B42000464B187D431E98414000FFF76BFF031CFD
:10B43000002B54D07FE04348C17F00220023FFF758
:10B440003FFF83B2181E4AD075E014ABA0221A82C7
:10B4500000225A82FFF790FF031C002B3FD06AE0C6
:10B4600000F0D2FE002803D00120FFF74BFF36E0AA
:10B4700001AB0022039204920592069207920322E6
:10B480001A705A70304959802C4AA520105C05303A
:10B49000187116205871D980102119729F21515CA2
:10B4A00059729E23D35C002B05D001AB274ADA806A
:10B4B0005A8000221A7201AC68460E3024491222CA
:10B4C00009F0C3F821782379C9180231C9B2201CC8
:10B4D00000220023FFF7F4FE80B200282BD10023C6
:10B4E000089309930A930B930C930D930E930F9368
:10B4F0001093119312931393164809F011FC002333
:10B500001D2282425B41013308AA1370114809F0E1
:10B5100007FC00231D2800D91D2308A94B7000201B
:10B5200005F01EF883B2181E05D114A8FFF7CAFE55
:10B5300080B200E007201AB070BDC046D847002096
:10B540006A03000044480020AAFEFFFFD8FEFFFF68
:10B550007E48002024480020F0B55F4656464D4600
:10B560004446F0B48BB008A8724B021C12CB12C236
:10B57000FFF7AEFE83B2181E00D0D3E06E4804F091
:10B58000C1FD83B2181E00D0CCE06C4804F0C4FDAD
:10B5900083B2181E00D0C5E080235B055B6B022BD5
:10B5A00011D101AC201C0021082209F070F822788A
:10B5B0000123134323700120211CFFF78BFE80B26F
:10B5C000002800D0AEE000F05DF900F0CDFA01F007
:10B5D000C5F85B4B5B4A117D2F2299541C1C1E1C25
:10B5E0003C360127251CE379002B0FD0206800286A
:10B5F00001D1A77105E000F0DFFFA071012800D89C
:10B600008FE0AB68002B01D0A87998471434B4427E
:10B61000E8D1B8234B4AD35C002B78D00026934660
:10B62000914673009B19DB005B44BC339A461B7D3B
:10B63000012B06D0504600F0BFFF53461875012875
:10B6400065D95446238A69460B80237D8B7001207F
:10B6500052461232FFF73AFE80B2002857D1B92382
:10B66000384CE35C002B4BD000253427A0463C1C13
:10B670006C434C44AD34FF342378B34239D1237D3D
:10B68000012B05D0201D00F097FF2075012830D92F
:10B6900001A80023019343608360C3600361436199
:10B6A00083615246538A0380637883706388838002
:10B6B000237D8371037A032293430222134303728F
:10B6C000231C1833C360637D0382A37D4382E37D23
:10B6D0008382C3780F229343012213430F22134026
:10B6E00010221343C370211C2C3100F08FFF00285F
:10B6F0000DD10135EDB2B9234446E35CAB42B6D877
:10B700000136F6B2B8230F4AD35CB34289D8482336
:10B710000C4AD35C0020002B04D0FFF75BFE002016
:10B7200000E007200BB03CBC90469946A246AB46D1
:10B73000F0BDC0461C72020049B70100D9B2010039
:10B7400000290020D847002070B586B0051C00F005
:10B7500065F9281C06F0CEF8281C00F021FA2B8889
:10B76000112B1FD0192B27D0102B3BD101200121E9
:10B77000FFF700FC4A231E4AD35C002B32D0002383
:10B7800000930193029303930493059303236A4662
:10B790001370A02313826846FFF794FD80B200283F
:10B7A00020D022E001200021FFF7E4FBFFF78CFD11
:10B7B0000020FFF70FFE15E0AB79002B12D1FFF749
:10B7C00083FD0120FFF706FE0CE03319DA79002A29
:10B7D00004D0DB68002B01D0281C984714343C2C83
:10B7E000F3D102E00024034EEFE706B070BDC0467F
:10B7F000D84700200029002001207047BFF34F8F59
:10B80000024A034BDA60BFF34F8FFEE70400FA05EC
:10B8100000ED00E077DF704778DF70477ADF704730
:10B820007CDF704784DF7047A7DF704762DF7047B7
:10B830007047C04608B5021C0B78122B10D0D9B245
:10B84000122902D8112B05D016E0142B0FD0212B72
:10B850000DD011E00948111C042208F0F6FE0BE09F
:10B86000064805F047FB064805F044FB04E00448A1
:10B87000111C042208F0E9FE002008BDE82F00207A
:10B88000E02F002030B58BB0434805F033FB434830
:10B8900005F030FBFFF7B0FF40080124204001AB6A
:10B8A000187003AB002205923D4A039201221A71DF
:10B8B0000D225A7107229A711022DA71FFF79CFF4C
:10B8C000044209D001A805F06FF980B2002803D125
:10B8D000344803A905F004FA334C201CFFF7A6FFF7
:10B8E0002278324B1A70324B0B201856FFF792FF1A
:10B8F00083B2181E4DD1FFF77FFF031C0020D9072C
:10B9000047D56A4613780F229343012213430F222F
:10B910001340102213436C462370264C201C09F060
:10B92000FFF982B26846211CFFF77AFF83B2181E26
:10B930002FD11F4B1B7D0020002B00D01E48FFF78E
:10B940006BFF83B2181E24D101AC194D288F8000E3
:10B95000052107F09DFE2080688F8000052107F0FB
:10B9600097FE60800023A380C8235B00E380201C37
:10B97000FFF754FF83B2181E0BD103A80F4A031C14
:10B9800032CA32C332CA32C312681A6005F06CFF81
:10B9900080B20BB030BDC046E82F0020E02F002061
:10B9A00035B80100E42F0020ED2F0020EC2F0020FF
:10B9B000D847002024480020C10300004C72020038
:10B9C000014B18887047C0463C290020014B0020DD
:10B9D00018567047DC2F0020054B1B78FF2B05D035
:10B9E000034B9878FF38431E984100E000207047D1
:10B9F000E02F002000B585B000230093019302934F
:10BA0000039301236A4613700348694605F006FA5A
:10BA100080B205B000BDC046E02F002010B5041C68
:10BA2000FFF7EAFEC30702D5201C05F063FB23885D
:10BA3000112B26D004D8012B09D0102B13D033E0C2
:10BA40001A2B27D0522B29D0182B2DD126E0174B9B
:10BA50001A78013216490878111CD2B2824200D9F4
:10BA6000011C197020E0A288124B1A80FFF7C4FE57
:10BA7000C30719D50F4B188801210022FFF7D2FE0A
:10BA800012E0012252420B4B1A80094B1A78074BE5
:10BA90001A7009E0A279084B1A7005E0054B188866
:10BAA0000C21064AFFF7C0FE10BDC046EC2F002057
:10BAB000ED2F00203C290020DC2F0020FFFF00009C
:10BAC00008B5FFF799FEC30704D5034805F04CF904
:10BAD00080B200E0014808BDE42F00206380000030
:10BAE00008B5011C054B1A880820054B9A4203D063
:10BAF000044805F00DFA80B208BDC0463C2900207C
:10BB0000FFFF0000E82F0020024B1878431E9841E9
:10BB1000C0B27047EC2F0020024B1A78013A1A701D
:10BB20007047C046EC2F002044DF704711DF70479C
:10BB300013DF704774DF704776DF704708B5FFF793
:10BB40003FFF084B984204D0FFF73AFF1321FFF75D
:10BB5000F3FFFFF7EFFF01200021FFF70BFA05F0DD
:10BB6000C1FE08BDFFFF000010B584B0FFF7EAF981
:10BB700001A90880074B4B6000238B60064806F044
:10BB800055FC84B2002C02D1044806F03DFC201C78
:10BB900004B010BD99220200F02F00203DBB01002F
:10BBA00008B5011C014806F0B9FD08BDF02F0020C2
:10BBB000064C064D061C064FF0B400240025002656
:10BBC0000027F0B40348004770470000FFFFFFFF65
:10BBD00000000021F9FFFFFF016881F30888406839
:10BBE0000022EFF305839A42E2D1024CA6460047B9
:10BBF00070470000FFFFFFFF10B5FFF79FFFB12068
:10BC0000FFF792FF83B2181E19D1FFF78FFF83B29F
:10BC1000181E14D10A4B5869FFF78AFF84B2201E00
:10BC20000DD1084B8021C903C022520099501968D8
:10BC300080229950024B5869FFF7CEFF201C10BD9F
:10BC40000010001000E100E074DF704777DF7047FC
:10BC5000A0DF7047A4DF7047A8DF704730B589B018
:10BC6000051C844C201C00214C2208F010FD0023F0
:10BC7000A370814A137007A982239B010B808D70EA
:10BC80000120221CFFF7E4FF83B2181E00D0EEE073
:10BC9000019302930593069376490B8868460380C7
:10BCA00007AB9B78837101231122C270734A828093
:10BCB00006220272022282708A1C039283824382CD
:10BCC0000382043100F0A2FC031C002B00D0CEE064
:10BCD0006B4B68468380037A03229343022213430B
:10BCE000037208238370674B03930123038210239D
:10BCF0004382002383825F490C3100F087FC031CE0
:10BD0000002B00D0B3E0604B69468B800B7A032296
:10BD10009343012213430B72002308228A7003937A
:10BD2000012268460A8210224A828B8251491431CC
:10BD300000F06CFC031C002B00D098E0534B6846CD
:10BD40008380027A03239A4302231A430272082251
:10BD5000134383704E4B03930122028212224282CC
:10BD6000A63BA5229B5C838242491C3100F04EFC1D
:10BD7000031C002B7BD1474B6A469380127A032326
:10BD80009A4302231A4368460272082213438370BF
:10BD9000414B03930123838243820382354924313B
:10BDA00000F034FC031C002B61D13C4B69468B80B6
:10BDB0000A7A03239A4302231A430A72082213437E
:10BDC0008B70374B039304238B8268464B820B8224
:10BDD00028492C3100F01AFC031C002B47D1314BB1
:10BDE0006A469380127A03239A4302231A436846D1
:10BDF00002720822134383702B4B03930123838227
:10BE0000438203821B49343100F000FC031C002BE9
:10BE10002DD1264B69468B800A7A03239A4302234D
:10BE20001A430A7208221A438A70214A03928B82AB
:10BE300068464B820B820F493C3100F0E7FB031C44
:10BE4000002B14D11B4B6A469380127A03239A432A
:10BE500001231A436846027208228270002203926C
:10BE60008382438203820349443100F0CFFB09B04F
:10BE700030BDC046203000207430002081200000FA
:10BE800082200000644800208320000084200000FD
:10BE90007E48002085200000754800208620000094
:10BEA00078480020872000007C480020882000007F
:10BEB0001448002089200000F0B5474680B484B0C3
:10BEC000041C0388512B00D00BE18379022B00D096
:10BED00007E1028B854B1B889A4200D001E1837AEF
:10BEE000012B00D0FDE0038A81481A1892B2012A82
:10BEF00026D87E4A9278002A16D09C237D4AD25CAE
:10BF0000238C934200D0E4E0201C22307A4908F0D0
:10BF10008DFB002800D0DCE0228A7549521853427C
:10BF20005A41724B9A70CAE0744A934200D0D0E0F2
:10BF3000238C013B9BB200220E2B00D8B1E0C8E05D
:10BF40006A4B9B78002B00D0C3E0B8E0258C00231F
:10BF50009D420DD1C3E0218CA523664AD15402F045
:10BF600047F80022664B1A70B9E002F041F8B6E0DB
:10BF70002026102294460427B846E21820329178F1
:10BF8000CAB2101CB04340B228300DD0101C674616
:10BF9000B84340B2143007D04046824352B2103208
:10BFA00002D0814300D097E00133DBB29D42E4D858
:10BFB000A423504AD35C9D4200D890E0E31820337C
:10BFC0009D78131C0B229A566BB29A4200D186E0E0
:10BFD000181CFFF73BFE80B2002800D07CE0454BE8
:10BFE000DD7202F005F87AE02223E35C032B73D8BC
:10BFF000A42240498A5C9A4271D0CB1898331D7AAA
:10C00000CA7A52B26BB29A4269D0181CFFF71EFE70
:10C0100080B2002860D1374BDD7201F0E9FF5EE0AD
:10C020006846211C2231022208F00FFB69460B886A
:10C03000191C143989B2334A91424DD82D4A928F36
:10C040009A424CD001F0D4FF49E02A4D281C8C3094
:10C0500000212C2208F01BFB10229C23EA54EE2224
:10C060009F23EA540422A023EA54FC22A223EA5488
:10C07000F422A323EA540122A423EA540A22A5238A
:10C08000EA54281CA63020490B2208F0DEFA281CAE
:10C09000B1300021072208F0FAFA01F0A9FF1EE0F2
:10C0A00000220023009301930293039302236F461F
:10C0B0003B70BA80A0886946FFF7CEFD11E0238A65
:10C0C00012495B189AB2052AEAD89300104AD3584D
:10C0D0009F4684225200E4E784225200E1E70022D6
:10C0E000DFE704B004BC9046F0BDC046203000201D
:10C0F0007EDFFFFFD8470020644800208220000038
:10C1000074300020EC270000807202007CDFFFFF0B
:10C11000687202000000000008B5134B1B78002B6A
:10C120001BD0124B124AD058410CC0030D4B0C4A85
:10C1300007F05EFB0F4B1A68801A5B6898420CD3BD
:10C140000022094B1A70FFF77FFDFFF739FC0A4BFD
:10C15000984202D10020FFF73DF9002008BDC046FB
:10C16000E88000000000000074300020040500009A
:10C17000001001406C300020FFFF0000C046C046A8
:10C1800030B583B0031C0C1C0B4D281C191C221C41
:10C1900008F05BFAA63DA523EC54FFF711FC074B12
:10C1A000998B0023009301936B461C806A46FFF72E
:10C1B00051FD80B203B030BD7E4800202030002009
:10C1C00010B5002811D001220B4B1A700B4CFA232A
:10C1D0009B00584360600A4B0A4AD058410CC00388
:10C1E000044B034A07F004FB206010BDC046C04664
:10C1F000E880000000000000743000206C30002057
:10C200000405000000100140014B18787047C0463B
:10C2100074300020A0DF7047A6DF704710B586B0ED
:10C22000FFF7CEFB2B4B98420BD12B4801F04AFC79
:10C23000FEF7BAFF02284AD100200021FEF79AFE3D
:10C2400045E0FEF7B1FF022811D1234B1B899BB2B9
:10C25000002B04D0214B1B899BB2002B07D1FEF78A
:10C26000A3FF022803D100200021FEF783FEFFF781
:10C270004BFC00282BD0184819491431142201F026
:10C280006BFB6B46D882002821D0164B1870FEF746
:10C290008BFF022803D100200121FEF76BFE01ACC9
:10C2A0000023019302930E4B9A8822800122A270F0
:10C2B0006A461632039214330493FFF781FB211C64
:10C2C000FFF7AAFF80B2002801D1FFF725FC06B0D6
:10C2D00010BDC046FFFF000040290020502900206B
:10C2E00078300020A430002030B589B0051C324CD5
:10C2F000201C0021282208F0CAF9A57007A90123F3
:10C300000B808D700120221CFFF784FF83B2181E62
:10C310004FD101930293059327490B886A461380F6
:10C3200007AB9B78937102231372012313821423AA
:10C3300053822123D37003239380102393700B1C0B
:10C34000143303931D4B06930431684600F05EF9E5
:10C35000031C002B2DD102236A469380082393707F
:10C3600000230393164B0693684613490C3100F0E3
:10C370004DF9031C002B1CD11248134907F0C0FED5
:10C38000031C124A10600520002B12D0181C00213B
:10C3900008F062FB0E4801F095FB0E4801F092FB9D
:10C3A00000220D4B1A700D4801210D4A03F09EFA30
:10C3B00080B209B030BDC0467830002094720200CF
:10C3C000987202009C720200A4720200D43B00200A
:10C3D000402900205029002075300020A030002086
:10C3E0001DC2010000B583B006486946073101F05F
:10C3F0006FFA002802D06B46D87901E00120404254
:10C4000003B000BD5029002000B583B0011C0748CF
:10C410006A46073201F0BAFA002802D06B46D87992
:10C4200001E00120404203B000BDC0465029002079
:10C43000014B188980B2704750290020014B1889A0
:10C4400080B2704740290020F0B583B06B46D871A8
:10C450001D4B1E4AD058410CC0031A4B184A07F016
:10C46000C7F9061C1A4F174D154C02E0012007F0C2
:10C47000B7F8381C6946073101F0B4FA00280BD12F
:10C48000114B124AD358590CD803221C2B1C07F00D
:10C49000AFF9831BC72BE9D90B4B0C4AD058410C81
:10C4A000C003084B064A07F0A3F9861BC72E02D823
:10C4B0006B46D87901E00120404203B0F0BDC04690
:10C4C000E8800000000000000405000000100140AA
:10C4D00040290020C046C04670B50388102B08D004
:10C4E00002D8012B2FD03EE0112B09D0502B0CD0BD
:10C4F00039E01D4B18686221002203F02FFA32E068
:10C50000194B186803F080FA2DE0C288174B9B89FD
:10C510009A4228D1C38B002B0CD00024144E851DC9
:10C5200029191A31301C01F05DFA0134A4B22B8BA9
:10C53000A342F5D8FEF738FE022814D100200121CD
:10C54000FEF718FD0FE0027A0A4B1B789A420AD1D7
:10C55000FEF72AFE022803D100200021FEF70AFD83
:10C560000022044B1A7070BDA030002078300020EB
:10C5700050290020A4300020014B18787047C04695
:10C580007530002008B5064B1A7801218A1A1A70F6
:10C59000044801F097FA044801F094FA08BDC04637
:10C5A000753000204029002050290020A2DF70476C
:10C5B00063DF704764DF704710B586B000226B46BA
:10C5C000DA7100235942C218D47B02AA8C54013B71
:10C5D0001A1C1032F6D102A8002343730373694674
:10C5E0000731FFF7E5FF83B20F2B08D1102002A916
:10C5F0006A46FFF7DFFF6B469A78DA7102E00020A7
:10C60000002B01D16B46D87906B010BDF0B5474676
:10C6100080B490B0041C0D1CC378002B08D10F22ED
:10C620009343012213430F22134010221343C3707C
:10C63000484B5B7B002B09D1E3780F229343012207
:10C6400013430F22134010221343E370A3783022C8
:10C650001A4217D00FAE301C0021032208F017F841
:10C66000B3780622934302221343B37033780F2228
:10C670009343012213430F221340102213433370BC
:10C68000E378737008AA0020089009900A900B9034
:10C690000C900E90A378137000223021194200D024
:10C6A0000FAA0D9207AA00231380112313700223EF
:10C6B0009370A06900280BD00378002B08D008AE37
:10C6C000099008F02DFB80B23081708107AB336197
:10C6D00006AB00221A80618A268A761A771EBE412E
:10C6E00001221640207A032707407F00F6B2B446A5
:10C6F000C6081640F600B04666463743800802403A
:10C70000100142463A4302439A70A37832221A42F9
:10C7100002D0E27806AB1A70A3781A0702D5E27845
:10C7200006AB5A7001AA00239360D360231D0193C6
:10C7300006AB5360A38A13819181E368136120885B
:10C7400008A92B1CFFF732FF80B210B004BC904642
:10C75000F0BDC046D8470020A0DF704710B594B0A8
:10C7600012A83C49042207F070FF012012A96A4672
:10C770004E32FFF7F1FF83B2181E68D10BAC0C9359
:10C780000D930F93109311936B464E331B882380A8
:10C790000223A3700122A27123721123E3702E4B96
:10C7A000A3802E480E9008F0BBFA80B2A08260826F
:10C7B0002082201C09A9FFF729FF031C002B46D16A
:10C7C0000BAC274BA38027480E9008F0A9FA80B243
:10C7D000A08260822082201C07A9FFF717FF031C9C
:10C7E000002B34D10BAC204BA38020480E9008F0D6
:10C7F00097FA80B2A08260822082201C05A9FFF7F0
:10C8000005FF031C002B22D10BAC194BA38002F0B7
:10C81000C3F9E06008F084FA80B2A08260822082CE
:10C82000201C03A9FFF7F2FE031C002B0FD10BAC59
:10C83000104BA38002F096F9E06008F071FA80B224
:10C84000A08260822082201C01A9FFF7DFFE14B0C5
:10C8500010BDC046A8720200292A0000AC72020076
:10C86000242A0000D4720200282A0000C0720200AC
:10C87000262A0000272A000010B50C1C0B78022B7A
:10C880000DD1FFF7A9F8002801D0FFF7B3F8E3793D
:10C89000022B04D102480021052207F0F8FE10BD4A
:10C8A000A8300020F0B54F464646C0B49BB014AC4B
:10C8B00000226260E2606261082323800123A3708A
:10C8C000E37021212171617102212181A172E37242
:10C8D0002121217361730521218203218946A174DD
:10C8E000E37421212175617512AF13923B80BB70F7
:10C8F0000223FB7021237B7101250F229046202605
:10C90000BB7168460021482207F0C1FE2F4B0093FF
:10C910002F4B1B7D69460B724B724A468A720394F9
:10C920000D7405972B4B0893A9238B8442462A400C
:10C9300032432C23CA540223FF336A460B86332327
:10C940004946D15442462A40324334236946CA54A8
:10C9500042462A4032433C23CA5442462A4032438C
:10C960003D23CA5442462A4032433F23CA544246DA
:10C970002A4032434023CA5442462A40324341238C
:10C98000CA5442462A4032434323CA5442462A40AC
:10C9900032434423CA5442462A4032434623CA54AF
:10C9A000424615402E434723CE540B4806F092FAD8
:10C9B00084B2002C04D109480021052207F067FE4B
:10C9C000201C1BB00CBC90469946F0BD79C80100F4
:10C9D000D8470020E4720200B0300020A8300020C8
:10C9E00008B5011C014806F06BF908BDB030002005
:10C9F000F0B5474680B482B0041C0D1CFEF7E0FF82
:10CA000008232D4A90424ED068460021082207F0A4
:10CA10003EFE6A46157063B2002B02DB274B1B5D9E
:10CA200000E000236A469370FFF76EF800282ED1CD
:10CA3000234B244AD058410CC0031E4B1C4A06F01D
:10CA4000D7FE061C1F4B98461D4F1A4D184C02E08E
:10CA5000192006F0C5FDFFF757F800280AD1424615
:10CA6000D359590CD803221C2B1C06F0C1FE801B85
:10CA7000C728EDD9124B134AD058410CC0030D4BB7
:10CA80000B4A06F0B5FE861B0423C72E0BD80E48B2
:10CA9000002108226B4606F065FD84B2231E02D1F8
:10CAA000FFF73AF8231C181C02B004BC9046F0BDF6
:10CAB000E880000000000000FFFF0000907302000B
:10CAC0000405000000100140B0300020C046C04600
:10CAD000F8B54F464646C0B48146FEF771FF0823BD
:10CAE000254A90423ED0FFF70FF800282ED1234B65
:10CAF000234AD058410CC0031E4B1D4A06F078FE55
:10CB0000061C1F4B98461D4F1A4D194C02E0192068
:10CB100006F066FDFEF7F8FF00280AD14346DA5911
:10CB2000510CD003221C2B1C06F062FE801BC72870
:10CB3000EDD9124B124AD058410CC0030D4B0C4A90
:10CB400006F056FE861B0423C72E0BD80D48002185
:10CB500008224B4606F006FD84B2231E02D1FEF7E2
:10CB6000DBFF231C181C0CBC90469946F8BDC04640
:10CB7000E880000000000000FFFF00000405000046
:10CB800000100140B0300020F0B5474680B4041CCE
:10CB9000FEF716FF08232E4A90424FD02378FF2B32
:10CBA00008D12C4D2E78281C211C052207F04DFDA4
:10CBB0002E7004E02748211C052207F046FDFEF7F1
:10CBC000A3FF00282ED1244B244AD058410CC00387
:10CBD0001E4B1D4A06F00CFE061C204A90461E4FB6
:10CBE0001A4D194C02E0192006F0FAFCFEF78CFFF2
:10CBF00000280AD14246D359590CD803221C2B1CB9
:10CC000006F0F6FD801BC728EDD9134B134AD05808
:10CC1000410CC0030D4B0C4A06F0EAFD861B0423B1
:10CC2000C72E0BD80E48022105220A4B06F09AFCAB
:10CC300084B2231E02D1FEF76FFF231C181C04BC14
:10CC40009046F0BDC046C046E880000000000000ED
:10CC5000FFFF0000A8300020040500000010014084
:10CC6000B0300020C046C046F8B54F464646C0B476
:10CC70008146FEF7A5FE0823254A90423ED0FEF7E6
:10CC800043FF00282ED1234B234AD058410CC00328
:10CC90001E4B1D4A06F0ACFD061C1F4B98461D4F4F
:10CCA0001A4D194C02E0192006F09AFCFEF72CFFF1
:10CCB00000280AD14346DA59510CD003221C2B1C00
:10CCC00006F096FD801BC728EDD9124B124AD058AA
:10CCD000410CC0030D4B0C4A06F08AFD861B042351
:10CCE000C72E0BD80D48012102224B4606F03AFC14
:10CCF00084B2231E02D1FEF70FFF231C181C0CBCAC
:10CD000090469946F8BDC046E8800000000000004B
:10CD1000FFFF00000405000000100140B0300020BB
:10CD200022DF704723DF7047F0B54F464646C0B458
:10CD3000404AA023DB00D05884460021D150A023D4
:10CD4000DB05E622D200995889463B4999503B4A77
:10CD5000985880469950A122D2008021890199508B
:10CD600080214901995004200138C046C046C04680
:10CD7000C046C046C046C046C046C046C046C04683
:10CD8000C046F1D1A223DB00A022D205D3589904DA
:10CD900007D5A223DB00A022D205D3580120DA0454
:10CDA00035D41222A023DB05254F80214901A1267D
:10CDB000F600A225ED008024A401D95104200138F9
:10CDC000C046C046C046C046C046C046C046C04633
:10CDD000C046C046C046C046F1D199510420013832
:10CDE000C046C046C046C046C046C046C046C04613
:10CDF000C046C046C046C046F1D15859204203D172
:10CE0000013A002AD9D101E0012000E00020A0234E
:10CE1000DB05E622D20049469950084A414699501E
:10CE2000A023DB00034A6146D1500CBC90469946D2
:10CE3000F0BDC046003000400D0600003407000081
:10CE40000C05000010B5114BB122D2009850012200
:10CE50009A6000208221490058505A61191C822290
:10CE600052008B58002BFCD0084B00228221490035
:10CE70005A500749585802245C50922149005A5090
:10CE8000400801235840184010BDC0460030004003
:10CE9000C404000008B5A023DB05184AE621C90038
:10CEA0005A5017495A50174B0022842149005A50B2
:10CEB0008E2149005A500C21A122D20099500D21F7
:10CEC000114A9950CC214904104A99500020104928
:10CED000104AFFF727FF002300280DD10120FFF79C
:10CEE0001FFF0023002807D10521A023DB00054AEE
:10CEF000D150FFF719FF031C181C08BD0C060000D9
:10CF000034070000003000400C050000240500003C
:10CF1000383100401C30004030B507291CD80124AE
:10CF2000231C8B4019020823184308430B4B0C4D5C
:10CF30005851A021C9005C50002A0DD0C122920096
:10CF400001219950074B98580002000A8021C90519
:10CF50000143995080221A6030BDC04600700040E5
:10CF60000405000000E100E0054B1A21054A995034
:10CF7000802205498A500121A022D2009950704791
:10CF8000007000400405000000E100E00122084BB1
:10CF90001A60191C802252008B58002BFCD0044BC5
:10CFA0000021802252009950A122D2009858704747
:10CFB0000070004008B5FFF7E9FFE1231B0158436B
:10CFC000800A08BD2EDF704733DF704721DF7047CE
:10CFD00023DF704710B5041E0F2C08D8C0B2FFF72E
:10CFE000F7FF0120A040FFF7F1FF201C01E0012026
:10CFF000404210BDF8B55F4656464D464446F0B433
:10D000000378013B022B00D9A0E0437B042B00D91D
:10D010009FE09B00634AD3589F460921A223DB006F
:10D02000614AD1506422614B1A6023E00821A22397
:10D03000DB005D4AD150FF225C4B1A601AE00521EB
:10D04000A223DB00584AD150FA229200574B1A60B3
:10D0500010E00221A223DB00534AD1506422534B3B
:10D060001A6007E00021A223DB004F4AD150FF22C3
:10D070004E4B1A6006784E4B1E60002E6CD0021C80
:10D0800000234C498A46A021C90589460324A046AD
:10D09000494DAC469B465478990055464C51C13495
:10D0A000FF34A40045464F46E5515C466746CC51E7
:10D0B000917A424D5955013301329E42EBD83A4B99
:10D0C0000122DA600022A121C9005A5037490C68B8
:10D0D00064003B495C503B495A5008248021890038
:10D0E0005C50A62149005A50A42149005A50A2215F
:10D0F00049005A50A02149005A50051C0023002421
:10D100002E4FB946304988464A46A75CBF002F4992
:10D110007F1828799B002E4A99183A1CFFF75AFF6E
:10D12000687941463A1CFFF755FF0134231C02354C
:10D13000A642E9D80A200321FFF746FF0A20FFF79D
:10D1400041FF0122184B1A60002024E001204042D8
:10D1500021E0012040421EE0134B0122DA60002250
:10D16000A121C9005A50114908684000144958507B
:10D1700014495A500820802189005850A62149009E
:10D180005A50A42149005A50A22149005A50A021C6
:10D1900049005A50CEE73CBC90469946A246AB4661
:10D1A000F8BDC0461074020000A0004058320020B4
:10D1B00030320020403200204C3200202C3200203F
:10D1C0004C050000040500004CA100400060004038
:10D1D00040A1004080000E4BC1500E4B0021A62202
:10D1E000520099500C49802292009950C12292001D
:10D1F0009B581A0307D4074B01225A608021090368
:10D20000C122920099500122024B1A607047C04619
:10D210003432002000A0004008080000F0B5454A64
:10D220000023A6214900535001204042C221890019
:10D230005050414A1360414B1B68002B72D00023B1
:10D240003F4D404E141C9A005259002A15D13E4AB7
:10D25000D75C4537FF37BF003C493D4AB9509B007A
:10D260003C4A9A580127391C91403B4AA027FF05A8
:10D27000B9500027394A9F504CE03068824216D39B
:10D280003149CF5C4537FF37BF003049304AB9508C
:10D290009B00304A9A580127391C9140A122D200A4
:10D2A000A027FF05B95000272C4A9F5032E05100BB
:10D2B000A82040001A1892001E4FD1519A00274909
:10D2C0005258002A26D1204AD75C9B0021481A5880
:10D2D0000123181C9040A123DB00A021C905C850E0
:10D2E000BB001B495B181E49A227FF00D951C0464D
:10D2F000C046C04601271F6012021A4F3A43A227B8
:10D30000FF00DA51C046C046C046226893000122A1
:10D3100012481A50084A136801331360074A12680A
:10D320009A4290D8034B0821802292009950012202
:10D330001A60F0BD00A000402832002030320020EA
:10D3400034320020583200202C320020001F03000D
:10D3500000600040403200200C0500004C320020EC
:10D36000031F01000300130010B5074C0123A12285
:10D37000D200A350054AA350C003FA21890006F049
:10D3800087F9034BE05010BD000001400C05000080
:10D39000040500000122014B1A60704700000140A3
:10D3A0000249C023DB00024AD15070473546526E15
:10D3B0000000014000000000F8B55F4656464D46AB
:10D3C0004446F0B483460C1C0020002948D02A4B68
:10D3D0002A4AD058410CC003264B254A06F008FAC9
:10D3E000051C274B9F881E1C244A9246224B9946B7
:10D3F000F423FF3398463389FB1A9BB29C420BD926
:10D4000052464A441068410CC0031A4B184A06F0B1
:10D41000EFF9401B4045EED9174B184AD058410C44
:10D42000C003144B124A06F0E3F9451B0020F42315
:10D43000FF339D4214D8A025ED050826A123DB006B
:10D44000EE50104F1023984680234246FA500C4865
:10D450005946221C00F01CFB43463B600A4BEE5031
:10D460003CBC90469946A246AB46F8BDC046C04675
:10D47000E8800000000000000405000000100140EA
:10D480006029002000E100E00C050000C046C04615
:10D4900038B5044C10258023E550034800F012FBFA
:10D4A000256038BD00E100E060290020014B1889AB
:10D4B00080B270476029002000B583B06B46D871F8
:10D4C0000733181C0121FFF777FF002802D06B46B5
:10D4D000D87901E00120404203B000BD00B583B01F
:10D4E0000C486946073100F0F3F900280AD1FDF72E
:10D4F0005BFE042809D100200021FDF73BFD01203F
:10D50000404204E06B46D87901E00120404203B07C
:10D5100000BDC0467429002000B583B0011C074837
:10D520006A46073200F032FA002802D06B46D879FA
:10D5300001E00120404203B000BDC0467429002034
:10D54000F0B5474680B482235B00564AD358002B7F
:10D5500056D0131C0021822252009950524A9A58E8
:10D56000A721C9005D58954200D9151C002D1CD07B
:10D57000FDF71AFE042800D08AE000200121FDF703
:10D58000F9FC85E0A923DB00464AD358002B03D0E1
:10D590004246135DFF2B03D07118381C00F022FAAD
:10D5A0000134E4B2211EA942ECD33E4B3F4A9958C4
:10D5B000A922D2009B58994212D21020A123DB004D
:10D5C000A022D205D050A923DB00364AD258521AE5
:10D5D000D2B2374B1A703748411807F03FF80AE0CB
:10D5E0000022334B1A70FDF7DFFD042803D1002021
:10D5F0000021FDF7BFFC10212F4BA022D205D150F6
:10D6000094235B00274AD358002B47D00021942352
:10D610005B00D150264C23782649C9181422D31A0E
:10D620009AB2264800F098F92378C018C0B220704A
:10D63000002807D01B4B224A1E499950A922D2002C
:10D64000985007E0174B1E4A1E4999500021A92205
:10D65000D2009950134B1C4A1C4999501421A722FF
:10D66000D200995001229A62114B1B78002B06D1EF
:10D6700080218904104BA022D205D1500EE0FDF785
:10D6800093FD04280AD100200121FDF773FC05E079
:10D69000002100240E4F0D4EB04673E704BC9046A7
:10D6A000F0BDC046004000403C0500004C050000B5
:10D6B000703200205C3200200C0500006029002040
:10D6C0004405000070290020340500007832002055
:10D6D0007429002010B5002873D0A023DB05016851
:10D6E000C131FF3189000022CA50C168C131FF3108
:10D6F0008900CA504168C131FF318900CA50816830
:10D70000C131FF318900CA50324B3349C4685C5083
:10D71000A121C90084685C50A221C90044685C5002
:10D720002E4904685C50A721C9005A50A921C9009C
:10D730005A50037C012B48D0002B05D0022B46D039
:10D74000032B40D1062300E00023427C002A0CD1A9
:10D75000012213431F4A22495350817C214BD1504F
:10D76000C17CB823DB00D15009E01A4A1C49535050
:10D77000817C1C4BD150C17CB823DB00D150154BB0
:10D780000022822149005A50942149005A50042114
:10D79000802292009950144AC12189005058FF24D8
:10D7A000A0434024204350501020C0246400105156
:10D7B0000E4C5C5010600221A022D2009950002033
:10D7C00007E00E2005E0072003E00223BDE7042365
:10D7D000BBE710BD00400040140500000C05000030
:10D7E000540500005C05000000E100E002040000B8
:10D7F00030B587B001A8274A031C32CA32C312CA07
:10D8000012C3FFF767FF83B2181E41D1A023DB05C7
:10D810000321214A995080218904204A9950204BA4
:10D820001B68002B0DD11F481F4906F069FC031C23
:10D830001B4A10600520002B2AD0181C002107F07D
:10D840000BF91A4800F03EF9194800F03BF90022A4
:10D85000184B1A70184B194919485850A921C9007A
:10D860005A50184A184999501421A722D2009950A9
:10D8700001229A62A023DB050321144A9950074A2A
:10D8800008209850E220C000195010219950002023
:10D8900007B030BD24740200640700000C050000CE
:10D8A0007432002038740200A47202006029002043
:10D8B0007429002070320020004000404405000020
:10D8C0007029002034050000783200200C07000089
:10D8D00010B5041C0068002837D0A3880020002B56
:10D8E00036D0E388002B33D023899BB2002B2FD076
:10D8F000A37B5AB2002A07DD1F22134001229A405F
:10D90000131C802213488350A389E2885343206864
:10D91000C318081C191C06F098FEA0890130A188C4
:10D9200005F05AFF89B2A1812389013B9BB2238173
:10D93000A37B5AB2002A0ADD1F22134001229A401B
:10D94000131C044A1360012002E0002000E00120C3
:10D9500010BDC04600E100E0F8B5061C0C1C171C09
:10D9600000200025002A06D10EE00135ADB2F38873
:10D97000E418BD4207D0301C211CFFF7A9FF002886
:10D98000F3D1281C00E0281CF8BDC046F0B547467E
:10D9900080B4031C171C0468002C1FD0858800204D
:10D9A000002D1CD0DA889046002A18D01E89B6B205
:10D9B000002E14D01A8992B28A4210D99889401840
:10D9C000291C05F009FF0904090C43465943611855
:10D9D000381C424606F039FE012000E0002004BC5D
:10D9E0009046F0BD70B5041C0E1C0368002B46D099
:10D9F00083880020002B45D0E288002A42D022896B
:10DA000092B2934202D1E07B00283BD0A37B5AB272
:10DA1000002A07DD1F22134001229A40131C802296
:10DA200019498B506089E288504323681818311CCB
:10DA300006F00BFE6089A5880130291C05F0CCFE9C
:10DA400089B2618123899BB29D4207D131780F4809
:10DA500006F0D6FE63899BB2A38103E023890133DC
:10DA60009BB22381A37B5AB2002A0ADD1F221340F6
:10DA700001229A40131C044A1360012002E0002096
:10DA800000E0012070BDC04600E100E040740200EB
:10DA9000F8B5061C0C1C171C00200025002A06D116
:10DAA0000EE00135ADB2F388E418BD4207D0301C5A
:10DAB000211CFFF797FF0028F3D1281C00E0281C49
:10DAC000F8BDC046837B5AB2002A07DD1F221340EF
:10DAD00001229A40131C802208498B5000230381A5
