:020000021000EC
:1080000000800020B5120200191302001B130200A9
:108010000000000000000000000000000000000060
:108020000000000000000000000000001D1302001E
:1080300000000000000000001F13020021130200D6
:108040002313020023130200F9D9010023130200B5
:10805000231302000000000009CC010023130200DA
:1080600023130200231302008DBE0100231302001C
:108070002313020023130200231302002313020020
:1080800023130200E1CF0100231302002313020097
:10809000E9D0010099050200B9DE010023130200B6
:1080A0002313020023130200000000000000000060
:1080B00000000000000000000000000000000000C0
:1080C000164B002B00D1144B9D46402292029A1A67
:1080D000924600218B460F461348144A121A0AF0A2
:1080E000A1F80F4B002B00D098470E4B002B00D06F
:1080F00098470020002104000D000D48002802D000
:108100000C4800E000BF09F0FFFF2000290004F048
:10811000BBF909F0EBFDC04600000800008000201C
:108120000000000000000000CC290020A83C002036
:10813000000000000000000030B583B0041C0D1CDE
:10814000019001A900220AF001FC019BA34206D084
:108150001A780023002A03D12860012300E00023BD
:10816000181C03B030BDC04630B583B0041C0D1CD4
:10817000019001A900220AF073FC019BA34206D0E2
:108180001A780023002A03D12860012300E000238D
:10819000181C03B030BDC04610B582B00C1C01A93C
:1081A000FFF7CAFF002805D0019BFF2B01D82370E1
:1081B00000E0002002B010BD10B582B00C1C01A977
:1081C000FFF7BAFF002806D0019B044A934201D86A
:1081D000238000E0002002B010BDC046FFFF000079
:1081E000F0B583B0041C0D1C171C0378202B03D1A1
:1081F00001342378202BFBD0201C01A910220AF087
:10820000A5FB019BA34221D91C1B022C20DC6E1C68
:1082100028701A782D2A1DD1012F22D9012508E0B6
:1082200030700135EDB21A782D2A14D10136BD42D5
:1082300017D05C1C201C01A910220AF087FB019BAF
:10824000A34208D91C1B022CEADD04E0002502E051
:10825000002500E00125187843425841404228405B
:1082600000E0002003B0F0BDF0B557464E4645464D
:10827000E0B4051C9046002A31D0002831D00C1CF7
:108280000026B146281C2C210AF048FA002803D009
:10829000471C4B46037000E0071C2378012B06D0D7
:1082A000002B02D0022B09D01DE065600EE0281CD7
:1082B0006168FFF741FF002808D119E0227A281CE5
:1082C0006168FFF78DFF031C237211D00136F6B2EF
:1082D00046450AD00C34002F09D03D1CD2E70020BF
:1082E00006E0002004E0002002E0301C00E0301C2A
:1082F0001CBC90469946A246F0BDC046F8B5051C88
:108300000E1C171C0A78084909F050FD012F0AD9E4
:10831000741CF719054E2278281C311C09F046FD03
:108320000134BC42F7D1F8BD944202009C420200E5
:10833000F0B5474680B4141C002921D1134B1B68AB
:108340009A421FD01248111C09F0C8FD114B1D1D87
:10835000BC339846104F114E381C211C09F0BEFD4D
:10836000301C211C09F0BAFD01CD211C09F0B6FD1D
:108370004545F1D10A48211C09F0B0FD002002E07A
:10838000084800E0084804BC9046F0BDF4350020E1
:10839000A44202000C450200A8420200AC420200C6
:1083A0009C470200628000006380000010B5044C0E
:1083B000201C0021A02209F035FF024B1C6010BDDB
:1083C000D0290020CC290020F0B5474680B4071CF6
:1083D000884648490AF0AEF9002831D03B78002B96
:1083E00013D03D2B11D03A1C434D03242868C118EB
:1083F00048782040191C022800D120391170013220
:108400001378002B01D03D2BF0D1381C0AF0A4F9D1
:10841000012805D93B78412B02D17B78542B05D01C
:108420003648414609F05AFD354860E0BB780237CE
:10843000002B05D13348414609F050FD002056E09D
:10844000314E00243568281C0AF086F9021C381CBD
:10845000291C0AF0ADF9002805D00134E4B2043635
:108460002F2CEFD101E02F2C05D12448414609F0F3
:1084700035FD26483BE0251CA400234BE0580AF0BC
:108480006BF9FF2318403F18381C21490AF052F9B4
:10849000002805D11B48414609F020FD002026E0B8
:1084A000381C1C490AF046F9002802D10137012185
:1084B0000EE03B783D2B02D10137022108E000217C
:1084C000002B05D00D48414609F008FD0F480EE08D
:1084D000AD00114BEB58381C42469847041E01D1A1
:1084E000084800E00548414609F0F8FC201C04BC9F
:1084F0009046F0BDA442020064290020B842020068
:1085000060800000B04202000C4502006180000063
:10851000C0420200C4420200C8450200F8B54F46FE
:108520004646C0B4041C474B1B68C31A5A42534109
:10853000DBB298469B00444FFF18381C0AF00CF938
:108540008146C6B2201C311C04F09AF9051C431C5C
:1085500003D1731E9E41F0B270E00D2801D00A28AD
:108560004DD1381C39490AF0E5F8002847D10425D7
:108570006368013B6360002B05DA354A1068211CF3
:1085800009F044FF02E0236801332360013DEDB2AE
:10859000002DEDD1012008F06DFE201C002104F01B
:1085A0006FF90D2801D00A280DD16368013B636083
:1085B000002B05DA264B1868211C09F027FF02E082
:1085C0002368013323604346002B04D002F0BCFE35
:1085D0001C4B196809E002F02DF80123181AC0B2EB
:1085E00002F02EF81A4B1B6899681A4809F076FCBD
:1085F000381C0021042209F015FE01201EE02B2D5D
:1086000013D1002E0AD0022E12D8FF224B461A4058
:10861000381C114909F0EEFD002809D1FF234A4614
:1086200013402B22FA54012008E00020002E05D030
:10863000381C0021042209F0F5FD00200CBC9046F6
:108640009946F8BDF4350020702A0020A4420200AB
:10865000C8290020B0420200C8420200F0B54F46CF
:1086600080B4051C0F1C564EA03692E00A2C04D094
:108670000D2C02D0082C58D140E0524B1A68504BB8
:108680009A4200D885E0504B1B689B689F4207D1F7
:108690004E4B1B7A002B03D04D48391C09F01EFCB1
:1086A000484B002219680A70454C1C60201C391C7C
:1086B000FFF78AFE8146201C46490AF03BF8002855
:1086C00067D14A46002A64D1012008F0D3FD281C56
:1086D000002104F0D5F80D2801D00A2859D16B6883
:1086E000013B6B60002B05DA374B1868291C09F039
:1086F0008DFE4EE02B6801332B604AE0314B1A6847
:108700002F4B9A4245D9304B1B689B689F4207D13B
:108710002E4B1B7A002B03D02F48391C09F0DEFBAF
:10872000284B1A68013A1A6033E0264B1B68B342A3
:108730002FD2254B186883689F4225D1234B1B7A83
:10874000002B21D0BB68013BBB60002B17DAB96955
:108750008B420FDB3A6814703B681A780A2A02D001
:1087600001333B6010E0184B18680A213A1C0BF0EB
:10877000E3F809E0211C3A1C0BF0DEF804E03B684A
:108780001C703B6801333B600E4A1368591C116032
:108790001C706B68013B6B60002B06DA0A490868A5
:1087A000291C09F033FE041C03E02B68581C2860C8
:1087B0001C78621C00D059E7002004BC9146F0BD33
:1087C000D0290020CC290020C8290020783600209C
:1087D0009C470200A4420200CC42020071DF7047B5
:1087E00074DF704776DF704777DF704700B583B07E
:1087F000012902D902290AD042E0234BDB7A5BB27D
:10880000101C22491A1C09F0D1FA002039E001237A
:108810005B4201931E4901AA09F0ECFE00282BD00F
:1088200001982023021C9A43131C28330DD01023D7
:10883000021C9A43131C143307D00423021C9A43CE
:10884000131C103201D0002B18D140B2FFF7CCFF1F
:1088500083B2181E15D10C4B019ADA7203F07AFE1E
:10886000FFF7BEFF02F07AFB0A4B984202D10020CC
:1088700002F01AF9002004E0074802E0064800E090
:10888000054803B000BDC04678360020844602008B
:108890008C460200FFFF00006280000030B587B008
:1088A000151C012913D804AC201CFFF797FFA279EF
:1088B000637921790091E1780191A1780291617841
:1088C0000391281C034909F071FA002000E00248D6
:1088D00007B030BD904602006280000010B5141C45
:1088E00001290FD8A02380225205D35801221A4013
:1088F000201C054909F05AFA0448211C09F0EEFA37
:10890000002000E0024810BDB04602009C47020073
:108910006280000070B58AB0041C022900D094E087
:1089200004A80021152209F07DFC201C2C2109F04F
:10893000F5FE002803D0451C0023037000E0051C51
:10894000201C69460E31FFF737FC002800D17EE07D
:108950006B46D9898223434AD152281C2C2109F025
:10896000DDFE002803D0441C0023037000E0041C3B
:10897000281C04A91022FFF733FC102869D1201C01
:108980002C2109F0CBFE061E02D000230370013615
:10899000201C08A9FFF710FC00285CD0301C2C21FB
:1089A00009F0BCFE051E02D0002303700135301C07
:1089B00069462231FFF700FC00284ED0281C2C21EC
:1089C00009F0ACFE041E02D0002303700134281C01
:1089D000254902AA09F00EFE002840D004AB0298F7
:1089E0001875002C0FD000230193201C01A9FFF75C
:1089F000A3FB002802D0019B012B01D91B482FE0CB
:108A00004A2218498B54174904AA0B1C6C3331CAEB
:108A100031C330CA30C312781A7001224923CA54B4
:108A200003F098FDFFF7DCFE02F098FA104B984235
:108A300006D002F093FA1321FFF7D4FE00200FE0D6
:108A4000002002F031F800200AE0084808E007485A
:108A500006E0064804E0054802E0044800E0034858
:108A60000AB070BD78360020B44602006280000073
:108A7000FFFF000010B5141C012913D802F06EFA94
:108A80000022094B984202D002F06EFA021C52B248
:108A9000201C064909F08AF90548211C09F01EFA34
:108AA000002000E0034810BDFFFF00008C460200DC
:108AB0009C4702006280000010B5041C02292CD1E2
:108AC000194909F037FE0123002814D0201C17494A
:108AD00009F006FE012300280DD0201C144909F0DE
:108AE00029FE0023002806D0201C124909F0F8FDB9
:108AF000002814D10023104A127D9A4211D00E4A48
:108B00001375002B03D000214923D15401E002F05A
:108B10006DFA03F01FFD002004E0084802E007485A
:108B200000E0002010BDC046CC460200DC4302003D
:108B3000D0460200D4460200783600206280000051
:108B400010B582B0041C02291CD1124B1B7D002BD6
:108B50001AD002F003FA031C08200F4A934216D0E1
:108B600068460021082209F05DFB201C69460822A6
:108B7000FFF736FB831EDBB2062B07D8684602F0F0
:108B8000F3FE04E0054802E0054800E0034802B0B7
:108B900010BDC04678360020FFFF00006280000054
:108BA00063800000F0B557464E464546E0B48AB0B3
:108BB000051C02295BD1324B1B7D002B59D004A927
:108BC000304A0B1C51CA51C303CA03C312881A800E
:108BD0002D4B1A6802929A8802AB9A802B4B1C6824
:108BE00000949B886E46B38002A882462849894635
:108BF0000322904635E06E785C2C0BD15046311C38
:108C000009F08CFD002805D05346C01A6E46345C2E
:108C1000AF1CAE784846006803195B7841460B40AC
:108C20000221012B07D004A8211C09F077FD011CAB
:108C3000481E81414900201C02F03EFE002819D147
:108C40000F2008F017FBA64201D0002E08D100200B
:108C5000002102F031FE00280CD10F2008F00AFBA1
:108C60003D1C6F1C2C78002CC5D1002002E0094867
:108C700000E009480AB01CBC90469946A246F0BDE7
:108C800078360020D8460200F0460200F84602007E
:108C900064290020628000006380000010B5041C7D
:108CA000022916D102F0B4F8031C0820DA0711D506
:108CB00002F054F9031C0820074A93420AD0201CF2
:108CC00003F0B4FE054B1968201C09F007F90020D9
:108CD00000E0034810BDC046FFFF0000F43500204F
:108CE0006280000070B5141C002933D102F090F8A6
:108CF000031C0820DA0730D5184B19684B68013B74
:108D00004B60002B04DA164B186809F07FFB03E078
:108D10000B685A1C0A601878431C1DD00F4E104D6A
:108D2000211C09F07BF833685A68013A5A60002A1E
:108D300004DA2868191C09F069FB03E01A68511C61
:108D400019601078421CEBD10648211C09F0C6F8C6
:108D5000002002E0044800E0002070BDF43500204F
:108D6000C82900209C47020062800000F0B55746E9
:108D70004E464546E0B484B0061C0D1C171C1C1C56
:108D8000274B1B68984203D1231C5343102B40DC14
:108D900002AA24490B6802938B8893807B003033AE
:108DA00093701020391C08F00BFBA046002C2ADD24
:108DB0000024FF23034099461B4B9A46002301934E
:108DC000201C494608F052FB00290AD1002C03D090
:108DD0001648311C09F082F8301C51462A1C08F054
:108DE000E5FF01A8291C3A1C09F013FAED1920200F
:108DF000311C09F013F8301C02A9019A08F0D6FFC3
:108E000001344445DADB0948311C09F067F80020D9
:108E100000E0074804B01CBC90469946A246F0BD4D
:108E2000F43500200C470200004702009C47020076
:108E300063800000F0B587B0141C022932D10023F2
:108E400005930493039303AB00931D4905AA04AB58
:108E500009F0D0FB032827D1059D002D26D0049AC8
:108E6000002A25DD039E002E24DD531E012B01D98F
:108E7000042A21D1D7B2391C042F00D90421C9B248
:108E8000281C08F093FA002905D00E48211C09F08F
:108E900025F80D4811E0B3B2201C291C3A1CFFF73D
:108EA00065FF0AE0084808E0074806E0064804E0D5
:108EB000054802E0044800E0034807B0F0BDC046A2
:108EC00014470200204702006280000008B5022912
:108ED00006D0101C03490122034BFFF747FF00E0B7
:108EE000024808BD783600202C0600006280000091
:108EF00038B501291DD8114B1968114B994209D178
:108F000004230F4C80252D010C4819180968A14233
:108F10000BD000E0002380210901CB1A101C094965
:108F20001A1C08F043FF002006E00433AB42EBD1EB
:108F300001E0054800E0032038BDC046007800206D
:108F40000DF0FECA344702006280000008B5002917
:108F500007D1101C0449042280239B00FFF706FF61
:108F600000E0024808BDC046007800206280000092
:108F700074DF704776DF70477CDF704730B583B0B1
:108F8000031C141C012902D9022909D032E01B4814
:108F9000111C08F0A3FF1A48211C08F09FFF27E0CE
:108FA000164D281C191C1F2209F018FC03F0D2FAD8
:108FB00001AC23780F229343012213430F22134065
:108FC000102213432370281C09F0C6FB82B2201C18
:108FD000291CFFF7D1FF83B2181E0CD1FFF7C8FF81
:108FE00001F0BCFF074B984202D1002001F05CFD6C
:108FF000002000E0044803B030BDC046C436002065
:109000009C470200FFFF00006280000010B5141CA6
:10901000012910D801F0A2FF084A831858424341A1
:109020003120C01A211C08F0F9FE0548211C08F067
:1090300055FF002000E0034810BDC0460100FFFFBF
:109040009C4702006280000008B500290DD101F0A4
:1090500085FF021C0020064B9A4207D001F07EFFDC
:109060001321FFF787FF80B200E0024808BDC04629
:10907000FFFF00006280000008B5002902D101F066
:10908000B5FF00E0004808BD62800000F0B587B081
:10909000061C0C1C151C02A82949102209F0B9F85D
:1090A000012C02D9022C20D03EE001260024254FBD
:1090B00002E001340136F6B2E3B2002B36D0381CA0
:1090C000291C08F00BFFFF2222401C3252001E4BCD
:1090D000D25A281C1D4908F069FE032EE9D91C4804
:1090E000291C08F0FBFE002027E01A4C6D460A35CB
:1090F000271C0837301C01A90A2209F027FC019E11
:109100000136002809D0AA1E1288904202DB2A8864
:10911000904201DD104810E0208002340435BC424A
:10912000E8D103F017FA08E00B4806E0064B1A8F67
:10913000281C064908F03AFEBBE707B0F0BDC04660
:109140003C470200A8420200783600208C4602000C
:109150009C470200B03600206280000008B500295C
:1091600001D0022903D1002001F09EFC00E001485B
:1091700008BDC0466280000008B5002903D1FFF792
:10918000F7FE80B200E0014808BDC04662800000E2
:1091900010B582B0141C012902D902290DD024E097
:1091A0004823134AD05C3030211C08F037FE1148A8
:1091B000211C08F093FE002018E00F4901AA09F0D5
:1091C00019FA012802D1019B012B01D90B480DE0AE
:1091D000482207498A5C934205D05A1E934148228F
:1091E0008B5403F0B7F9002000E0044802B010BD32
:1091F000783600209C4702008C4602006280000006
:1092000030B591B0022942D100230F9301A90193F7
:109210008B60CB604B6102230B7007AB4B601F234D
:109220000B7201230B730FAB0B610222FFF71CF8CB
:10923000041C0138C0B201282BD801AB1A7A174D93
:10924000A323EA54281C843007A908F0E2FF022275
:109250004923EA54022C05D10F9B012B1BD84A222B
:109260000E498B5403F076F9FFF782FE01F076FE8B
:109270000B4B984206D001F071FE1321FFF77AFEE6
:10928000002009E0002001F00FFC002004E0054868
:1092900002E0044800E0034811B030BD78360020F9
:1092A000FFFF000062800000A4DF7047A5DF704769
:1092B000A6DF7047F8B54F464646C0B4804689469B
:1092C000171E15DD0026002463B29B004A469D58F8
:1092D000281C09F041FA021C4046291C09F044FAF6
:1092E000002807D00134E4B266B2BE42ECDB01E0F4
:1092F00000260024B7420BD063B29B004A46985820
:1093000009F02AFA4246135C3D2B02D0FF2400E00C
:10931000FF2460B20CBC90469946F8BDF0B54746B4
:1093200080B486B0051C0E1C171C1C1C05A9FEF77A
:1093300003FF00281BD0214B059A9A4203D1281C19
:1093400005A9FEF711FF059A13BA0593032C06D958
:10935000301C05A9042208F05CFF201C2AE006ABA3
:10936000191B301C221C08F054FF201C22E0281C72
:109370006946221CFEF734FF8046011E0BD00020F8
:10938000B94217D3444515D3301C6946424608F00C
:1093900040FF40460EE0281C09F0DEF9031CC0B275
:1093A000A04200D9231CDCB2301C291C221C08F06E
:1093B00030FF201C06B004BC9046F0BDFFFFFF7FCD
:1093C00010B5141C002802D0012810D01CE0081C85
:1093D000111C1022FEF704FF102817D1002323755B
:1093E000A3781B02E27813432382002013E0131CAE
:1093F0001033081C191CFEF7DFFE002808D0238A52
:10940000002B07D1044806E0034804E0024802E0CC
:10941000014800E0002010BD62800000F0B5474622
:1094200080B480460E1C171E042F19D9002F23D09C
:109430000978002920D0154B1B68591849786820F5
:1094400081430DD00024682103E05D196D788D43C0
:1094500006D00134A2420FD9355D002DF5D10BE0C5
:10946000012F03D10A48414608F038FD4046311C1F
:109470003A1CFEF743FF05E0301C01213A1C43462D
:1094800008F032FE04BC9046F0BDC04664290020BE
:109490007447020008B504480021044A08F0C2FEDF
:1094A00003F058F8002008BD24370020DC04000039
:1094B000F0B54F464646C0B487B0041C171C0229BD
:1094C00071D1AC233C4AD35C04200A2B6ED0684691
:1094D0000021162208F0A6FE01236A461375201CFF
:1094E0002C2109F01BF9002803D0451C0023037030
:1094F00000E0051C002C38D0304B9846994630E0EF
:1095000001342378202BFBD0201C41460222FFF798
:10951000D1FE061E0EDB83004A46985809F01CF95E
:10952000F6B2411C6118301C6A46FFF749FF061E5F
:1095300008D000E0224E381C2249221C08F036FCDC
:10954000301C33E0281C2C2109F0E8F8002803D057
:10955000431C0022027000E0031C002D05D02C1CCF
:109560001D1C2378202BCBD0CEE76A46138A002B14
:109570001BD0114CAC25665D162070432018B0300E
:109580006946162208F045FE0136665502F0E2FFF4
:10959000625D381C0C4908F009FC0C48391C08F0C5
:1095A0009DFC002002E0064800E0054807B00CBC26
:1095B00090469946F0BDC046783600203C480200EF
:1095C00062800000784702008C4602009C4702003F
:1095D000F0B557464E464546E0B48AB0041C151C0B
:1095E000022900D0C8E0AC23704AD35C0420002BD1
:1095F00000D1D5E0AD23D35C1E2B00D1D0E001A873
:109600000021222208F00EFE201C2C2109F086F8F1
:10961000002803D0471C0023037000E0071C002C27
:1096200076D0634A90469146624A92466CE0013495
:109630002378202BFBD0201C41460522FFF73AFE61
:10964000061E53DB83004A46985809F085F801301E
:109650002018F3B2042B49D89E00524693599F46D6
:1096600069460631FEF7A8FD00283FD001AB5B88B4
:10967000002B3BD08DE069460331FEF78DFD0028BD
:1096800034D06B4603331B78002B2FD0684605304F
:1096900069460331012208F0BCFD7AE002A9FEF719
:1096A0007BFD002822D001AB1B79013B132B1DD879
:1096B0006FE069460931FEF76FFD002816D001AB57
:1096C0005B79013B132B11D863E001AB1A79002AB7
:1096D0005AD15B790122002B02D1142300E0131C24
:1096E00069460A31FFF71AFE002852D1281C324978
:1096F000221C08F05BFB314852E0431C0022027040
:10970000002F05D03C1C1F1C2378202B8FD092E704
:1097100001AB5B79002B02D101AB1A795A7101AB15
:109720001B79002B2AD001AA52799A4228D301AB87
:109730005B88002B26D01D4CAC23E35C013BDBB2E5
:109740009846AD26A75D22225743E0198D30FF30A1
:1097500001A908F05EFDE7198D37FF3743463B70DE
:10976000A35D0133A35502F0F5FEA25D281C144948
:1097700008F01CFB002013E0104811E00F480FE038
:109780000E480DE00D480BE001AB5B79002BA7D133
:10979000A5E7381C2C2108F0C1FF031EB0D0ACE7B0
:1097A0000AB01CBC90469946A246F0BD783600200F
:1097B000604702004C4702008C47020062800000B4
:1097C00084460200F0B5474680B48AB0041C151CDC
:1097D000022900D092E0554905AA08F00BFF0028A5
:1097E00000D18DE0059B002B00DC8BE0AD225049C1
:1097F0008A5C934200DD87E0013B1A01D3185B00CD
:10980000CE188D36FF36201C2C2108F087FF041E51
:109810000AD1B11D7279281CFFF700FE4548291CAA
:1098200008F05CFB00207DE00378002B6ED001F097
:1098300095FB051CB71D601C32797379391CFFF745
:109840006DFD6A4610803279824253D87279824225
:1098500052D3738B0020834264D0374B9D4237D064
:10986000727830231A4233D06B4658800233F18B22
:1098700006AA0224148050805360281CFFF716FDAE
:109880007478E406E40F04D06B4602331B88D807D3
:109890003ED473789A061BD56B4602331B88980713
:1098A00016D501AA9046101C0021102208F0BAFC1F
:1098B000738B4046038063425C41013401A98C7084
:1098C00000AA8A60CF60281CFFF7F2FC80B229E072
:1098D0003279737900209A4224D0718B08AA6846A5
:1098E00003881380002353805360281CFFF7DCFC9F
:1098F00080B217E0114815E0104813E00F4811E05E
:109900000E480FE00D480DE00C480BE00B4809E055
:1099100001AC201C0021102208F084FC738B2380F2
:109920000124CBE70AB004BC9046F0BDB446020067
:10993000783600209C470200FFFF00006280000094
:10994000F0B55F4656464D464446F0B485B0904665
:1099500000295CD1354B1B689A425AD0AC23344A5B
:10996000D35C002B57D000269246324B9946324B9F
:109970009B46162474435444B034721C238A4046D8
:10998000494608F013FA237D012B08D0584641467A
:1099900008F0A4FA4046211C1022FEF7AFFC27482D
:1099A000414608F09BFAAD23214AD35C002B26D018
:1099B0000024171C25012D196D007D198D35FF35EB
:1099C0002B78B34214D1621C6B8869780091297995
:1099D0000191697902914046194908F0E7F9A91DFA
:1099E0006A794046FFF71AFD1448414608F076FAB6
:1099F0000134E4B2AD230E4AD35CA342DAD8013677
:109A0000F6B2AC230A4AD35CB342B2D805E00D48A3
:109A100004E00D4802E0002000E0002005B03CBC5E
:109A200090469946A246AB46F0BDC046F4350020AC
:109A300078360020A0470200B44702009C4702008D
:109A4000C04702006280000063800000F0B5474616
:109A500080B494B080460F1C151C80235B055A6EA1
:109A60001B6E0FAC201C264908F0A2FD02F092FFED
:109A7000021C0AAE301C234908F09AFD0023029311
:109A8000214B039304960594204B06930793204B98
:109A9000089302F099FF0990002F02D0022F0ED0F8
:109AA00026E003AC0AAF1B4E01CC291C08F016FAC5
:109AB000301C291C08F012FABC42F5D11AE04046CD
:109AC000154901AA08F096FD002803D0019B5A1EF3
:109AD000062A01D911480EE09B0002AA9858291CB9
:109AE00008F0FCF90B48291C08F0F8F9002002E006
:109AF0000A4800E0002014B004BC9046F0BDC04607
:109B000044480200504802005C48020068480200D5
:109B1000704802009C4702008C46020062800000F0
:109B200038B5051C141C012902D902290CD01FE0EC
:109B3000124B187A3030111C08F070F91048211CB3
:109B400008F0CCF9002018E008F006FE012811D139
:109B50002B78303BDBB2012B0ED8084A127A00205A
:109B60009A420AD0054A137202F0F4FC002004E085
:109B7000044802E0034800E0024838BD783600207F
:109B80009C47020062800000F0B5474680B400297F
:109B90002DD11B48111C08F0A1F9322007F06AFBF7
:109BA000184B194AD058410CC003144B124A07F005
:109BB00069FC8046144F134E104D0F4C02F0C2FC4E
:109BC00000280CD0BB59590CD803221C2B1C07F0C1
:109BD00059FC4346C01A2C23FF339842EED9BFF3F9
:109BE0004F8F0A4A0A4BDA60BFF34F8FFEE70948EE
:109BF00004BC9046F0BDC046E880000000000000B4
:109C0000B042020004050000001001400400FA0503
:109C100000ED00E062800000F0B5474680B4141CFF
:109C2000002931D102F04CFD01F0E0F91A48211C65
:109C300008F054F9322007F01DFB184B184AD05891
:109C4000410CC003134B124A07F01CFC8046144F12
:109C5000124E104D0E4C02F075FC00280CD0BB5972
:109C6000590CD803221C2B1C07F00CFC4346C01ACD
:109C70002C23FF339842EED9BFF34F8F094A0A4B8A
:109C8000DA60BFF34F8FFEE7084804BC9046F0BD92
:109C9000E880000000000000B0420200040500005F
:109CA000001001400400FA0500ED00E062800000B1
:109CB000F0B5474680B4002929D11948111C08F095
:109CC0000DF9322007F0D6FA164B174AD058410C3E
:109CD000C003124B104A07F0D5FB8046124F114EBD
:109CE0000E4D0D4C02F02EFC00280CD0BB59590C27
:109CF000D803221C2B1C07F0C5FB4346C01A2C239B
:109D0000FF339842EED901F0E9F9002000E007485E
:109D100004BC9046F0BDC046E88000000000000092
:109D2000B042020004050000001001406280000003
:109D300008B5002910D1094B1B689A4203D101F0E4
:109D400003FB002009E000F075FC0123181AC0B2E3
:109D500000F076FC002000E0014808BDF43500204A
:109D60006280000010B582B0141C022918D111497C
:109D700001AA08F03FFC002814D00199072913D844
:109D8000022913D0C9B20220002201F0FDFE01F029
:109D900035FF021C201C084908F008F8002006E0E6
:109DA000064804E0054802E0044800E0034802B029
:109DB00010BDC0468C4602007C4802006280000054
:109DC00010B5141C00290AD101F006FF01F02AFF8A
:109DD000021C201C034907F0E9FF002000E00248B4
:109DE00010BDC0467C4802006280000039DF704729
:109DF0003ADF704752DF704710B582B0141C01295A
:109E000018D801A8FFF7F6FF002811D1019BD91738
:109E1000890FCB189A10032003405B1A9900CB18C6
:109E200099005B18201C054907F0C0FF002002E0E4
:109E300080B200E0024802B010BDC0468448020073
:109E40006280000010B582B0141C02292AD10123BF
:109E50005B420193174901AA08F0CCFB002823D0EC
:109E6000019B1F2B22D8C133FF339B008021890225
:109E7000A022D20599501048211C08F02FF832205A
:109E800007F0F8F90020002100F0E0FB012000219C
:109E900000F0DCFB0121A023DB008022D205D150A1
:109EA000002004E0054802E0044800E0034802B056
:109EB00010BDC0468C460200B04202006280000025
:109EC000F0B5474680B486B09046002902D00229FA
:109ED00004D056E004226B46DA750BE06946173170
:109EE000FEF75AF900284ED06B4617331B78013B1A
:109EF0000F2B4AD800256C46033400276E461736D0
:109F00002770201CFFF772FF83B2002B19D1237832
:109F1000002B12D03178491B0A1CC9B2994200D9D2
:109F20001A1CD1B2227001AB5819FFF761FF80B241
:109F300000282BD12378ED18EDB23378AB42DFD86F
:109F400001E0181C22E01348414607F0C7FF6B46AA
:109F500017331B78002B0ED000240F4E6D4617359B
:109F600001AB1A5D4046311C07F020FF0134E4B21A
:109F70002B78A342F4D80948414607F0AFFF0020F0
:109F800004E0074802E0064800E0054806B004BCCB
:109F90009046F0BD74470200944202009C470200C4
:109FA0006280000000B583B0002902D0022909D0E8
:109FB00027E0154B5B7A101C14491A1C07F0F6FEBB
:109FC00000201FE069460731FEF7E6F8002804D0BC
:109FD0006B4607331B78012B01D90D4812E00A4A62
:109FE000527A9A420BD0002B03D10020002100F0BE
:109FF0002DFB6B46DA79044B5A7202F0ABFA002063
:10A0000000E0034803B000BD78360020844602001B
:10A010006280000010B582B0002902D0022909D068
:10A0200034E01C4B9B7A101C1B491A1C07F0BEFE27
:10A0300000202CE069460731FEF7AEF8002804D076
:10A040006B4607331B78012B01D914481FE0114AD6
:10A05000927A9A4218D0002B03D10120002100F0FF
:10A06000F5FA6C46E2790B4B9A7202F073FAE379D7
:10A07000012B09D100F072FF094BC1184B1E994109
:10A08000C9B2012000F0E2FA002000E0034802B06B
:10A0900010BDC04678360020844602006280000071
:10A0A0000100FFFFF0B54F464646C0B483B0161C12
:10A0B000002902D0022924D038E003240125224BB4
:10A0C00098460027214B9946E0B201F0F3FC0028A6
:10A0D0000BD0002D03D14846311C07F0FFFE301C89
:10A0E0004146221C07F062FE3D1C0134782CEBD166
:10A0F0000020002D22D11648311C07F0EFFE002071
:10A100001CE000230193134901AA08F073FA002808
:10A1100003D00198C31E742B0AD90F480EE0301CDF
:10A120000E49019A07F042FE002007E00A4805E0C8
:10A13000C0B201F0BFFC0028F6D0F0E703B00CBCC1
:10A1400090469946F0BDC04690480200A8420200E1
:10A150009C47020098480200628000009C48020070
:10A16000011C00201F2919D80D4B1878002810D089
:10A170000C4B1B788B420ED00B4B0138C0B2181819
:10A1800003E01A7801338A4207D08342F9D10120D3
:10A1900004E0012002E0002000E000207047C046FB
:10A1A000E0490200E4490200E549020030B583B00D
:10A1B000141C022941D1264901AA6B4608F01AFA5B
:10A1C000012805D002283AD1009D012D39D812E08E
:10A1D000A223DB00A022D205D358019AD34001204C
:10A1E00018403030211C07F019FE1A48211C07F0D6
:10A1F00075FE00202AE0184BA022D205D358019CFE
:10A20000E340DA071FD5201CFFF7AAFF00281CD067
:10A21000002D08D10123A3401C1C104BA022D20505
:10A22000D450002012E00123A3401C1CA123DB001A
:10A23000A022D205D450002008E0094806E00848D2
:10A2400004E0074802E0064800E0054803B030BDDE
:10A25000184702009C470200140500000C0500008E
:10A260006280000030B583B0141C022964D13849E3
:10A2700001AA6B4608F0BEF9012805D002285DD17D
:10A28000009D032D5CD823E0324BA022D205D2588A
:10A29000019BDA400120D1070FD49B00A022D205F8
:10A2A0009B18E022D2009A580320510705D4E022DF
:10A2B000D20098580007C00F400000903030211C99
:10A2C00007F0ACFD2448211C07F008FE00203CE00C
:10A2D000019C201CFFF744FF002833D0012D08D03B
:10A2E00002DC002D0ED02FE0022D13D0032D1AD04A
:10A2F0002AE0C134FF34A4000322A023DB05E2508E
:10A30000002022E0C134FF34A4000020A023DB059C
:10A31000E0501AE0C134FF34A4000C22A023DB0576
:10A32000E250002011E0C134FF34A4000422A02335
:10A33000DB05E250002008E0084806E0074804E09A
:10A34000064802E0054800E0002003B030BDC046EA
:10A3500018470200140500009C47020062800000BC
:10A3600010B586B0022925D1174905AA04AB08F01B
:10A3700041F9022820D1059C201CFFF7F1FE00289E
:10A380001CD0049A642A1BD8684600210E2207F0CC
:10A3900049FF01236A4613705470137102235371ED
:10A3A0009372684601F05EFC0020049901F04AFDBA
:10A3B000002006E0054804E0044802E0034800E00D
:10A3C000024806B010BDC046184702006280000077
:10A3D00074DF704776DF7047F0B5474680B4071CDE
:10A3E00000240D4EA3B29846A3009D59281C08F0E6
:10A3F000B3F9021C281C391C07F0FCFE002803D00E
:10A400000134052CEED101E0404600E0034800B2E3
:10A4100004BC9046F0BDC046A8480200FFFF000003
:10A42000F8B5061C0F1C084D0024301C296808F0E4
:10A43000E9F9002801D03C7005E00134E4B20435AC
:10A440000E2CF2D10020F8BDA8490200F0B55F46FD
:10A450004E464546E0B490B0041C151C022900D0BD
:10A46000AEE009AB00220B920C920D920E920F926D
:10A470000321197059705849598006201871162007
:10A480005871D9805549C97A5972089202A9029225
:10A490004A608A60CA604A6101230B7308AB0B6192
:10A4A000201C0222FDF7E0FE81460138C0B20128DF
:10A4B00000D987E0201CFFF78FFF002805DA484805
:10A4C000291C07F00BFD47487FE009AB987280001C
:10A4D000454BC05808F040F924182378002B3FD092
:10A4E000002742498B46201C69460731FFF798FF39
:10A4F000061E03D0031BDBB2984604E0201C08F0C4
:10A500002BF9C0B28046F31959424B4110334345F1
:10A5100005DA3748291C07F0E1FC092055E009ABB2
:10A52000DA19101C0B30211C424607F072FE44441D
:10A530004146CB19DBB2002E0DD05A1CD7B269466A
:10A54000CA7909A9CB18DA7292005B46D05808F094
:10A5500003F9241800E01F1C2378002BC3D100E06E
:10A56000002709A90B79FB180B713A1C0B32D2B2E8
:10A570001A4CA323E254201C843007F04AFE022226
:10A580004923E2544946022905D1089B012B1BD8D7
:10A590004A2212498B5401F0DDFFFFF719FF00F04A
:10A5A000DDFC144B984206D000F0D8FC1321FFF7D5
:10A5B00011FF002009E0002000F076FA002004E0FE
:10A5C000084802E0074800E0064810B01CBC90466E
:10A5D0009946A346F0BDC046D8FEFFFF783600205E
:10A5E000BC48020062800000A8480200A84902009E
:10A5F000E8480200FFFF000048DF70477047C04690
:10A60000830702D50122044B1A708B0702D5002262
:10A61000014B1A707047C0467A2A0020014B1888F7
:10A620007047C046782A0020014B18887047C04602
:10A630003C2F0020014B18787047C0467A2A002032
:10A64000014B18707047C0467A2A0020002805D1B7
:10A65000104B5B7A002B1BD0122307E01323012839
:10A6600004D10C4B9B7A002B12D01323002908D065
:10A6700001229A40131CA122D200A021C9058B50AF
:10A6800006E001229A40131C034AA021C9058B5001
:10A690007047C046783600200C05000030B58DB0FC
:10A6A000A823DB005C4AD15800235C4A914204D8BD
:10A6B000A823DB00584AD3589BB2594A1380A823D9
:10A6C000DB00584AD1580023544A914204D8A823A9
:10A6D000DB00544AD3589BB2534A138000230093A3
:10A6E000202008210622514B02F05CFF002803D0F5
:10A6F0000021002200F08EFB02204D4902F0F6FA04
:10A70000002803D00021002200F084FB09A80B23BD
:10A71000037009234370082383700A23C370012345
:10A72000037100224271434B83606B46DA810E3322
:10A73000414A049280220592404906910792009373
:10A7400004A93F4A012303F0AFF980B2002860D189
:10A750003C4B1B689868002107F09AFE09203A4993
:10A760004822002303F06EFB002803D000210022C2
:10A7700000F050FB354803F095FB80B2002848D12B
:10A7800005F094F980B2002843D101F0DDFF0028E4
:10A790003FD1A023DB050C21E822D2009950A22250
:10A7A000D2009B58DA030BD4294806F063FDA2239C
:10A7B000DB00A022D205D358DA0301D401F080FFD8
:10A7C000A024E4050C25234BE55001F09BF9224B16
:10A7D000E5506846233002210222204B02F0C4FAE1
:10A7E00080B2002815D16B462333187802F0E8FABE
:10A7F000A222D200A1588907C90F194A1170032259
:10A80000E921C90062501749625001200021FFF779
:10A810001DFF0DB030BDC04600900040FEFF00009F
:10A82000782A002000A000403C2F0020A42B00200C
:10A830007C2B0020005027007C2A0020FC2A0020CE
:10A84000FDA50100C8290020F42E002019F90100FF
:10A85000DC0500001C0700000407000001A6010041
:10A860007A2A00204C070000431E98411230044B06
:10A87000A022D205D358C340181C012318407047AA
:10A8800004050000031C0020002B08D1A223DB00DC
:10A89000A022D205D058C009012358401840704763
:10A8A00008B5FFF7A9FE08BDF8B54F464646C0B447
:10A8B000071C254D254C2859410CC003214B204A2B
:10A8C00006F0E0FD061C2859410CC0031D4B1C4A34
:10A8D00006F0D8FD801BF423FF33984216D8A94612
:10A8E000A046184D164C381C03F01EFA00280DD057
:10A8F0004A4642441368590CD803221C2B1C06F00C
:10A90000C1FD801BF423FF339842ECD90F4B0E4A54
:10A91000D058410CC0030B4B094A06F0B3FD861B0F
:10A92000381CF423FF339E4203D903F009FA0120B7
:10A9300040420CBC90469946F8BDC046C046C04651
:10A94000E880000000000000001001400405000045
:10A9500000B583B06846073003F0DEF9002802D165
:10A960006B46D87901E00120404203B000BDC046EB
:10A9700000B583B06946073103F0F2F9002802D12F
:10A980006B46D87901E00120404203B000BDC046CB
:10A9900072DF704773DF704774DF7047A0DF704766
:10A9A00060DF704768DF704708B504F0B5FF08BD89
:10A9B00008B50A4BDB79002B04D0084B1B69002B30
:10A9C00000D09847054BDB7E002B04D0034B5B6A1D
:10A9D000002B00D09847002008BDC0460029002069
:10A9E00030B58FB068463730164BDA7A02701A7D70
:10A9F0000CA9154B9400A518AD005D19AD880D800C
:10AA0000A418A4001B199B798B7000230093029358
:10AA10000393049306930793089309930A930B9364
:10AA200006236C46E3700190012323820591002ADE
:10AA300000D0A3706846002103F058FC80B20FB02C
:10AA400030BDC046783600200029002030B597B0D0
:10AA500010AC0223237015236370124D291C6C3136
:10AA600068464230152207F0D4FB0DAA8223EB5A28
:10AA70001380172393800F9401A800230193436050
:10AA80008360C360036143618361C3610362836266
:10AA9000C3620423C3704262002103F027FC80B22A
:10AAA00017B030BD7836002070B592B0061C0CACE3
:10AAB00000230C930D930E930F931193314DA88F98
:10AAC000C000052106F07CFC2082EB8F6382002E03
:10AAD00004D00CAB2C4A1A8200225A824923294AFC
:10AAE000D35C012B0AD0002B02D0022B11D045E001
:10AAF000FFF776FF031C002B14D040E00CABA02224
:10AB00001A8200225A82FFF7A1FF031C002B09D0F2
:10AB100035E01E48C17F00220023FFF739FF83B2D2
:10AB2000181E2CD1002300930193029303930493E6
:10AB3000059306930793089309930A930B9314487C
:10AB400007F00AFE00231D2282425B4101336A4660
:10AB500013700F4807F000FE00231D2800D91D23A5
:10AB60006A4653700020694603F0C0FB83B2181E8A
:10AB700005D10CA8FFF70EFF80B200E0072012B04D
:10AB800070BDC046783600206A030000FC36002005
:10AB9000C4360020F0B55F4656464D464446F0B4F4
:10ABA0008BB008A8674B021C12CB12C2FFF7F8FE4D
:10ABB00083B2181E00D0BEE0634803F069F983B287
:10ABC000181E00D0B7E0614803F06CF983B2181E7C
:10ABD00000D0B0E080235B055B6B022B11D102AC8F
:10ABE000201C0021082207F01DFB227801231343BB
:10ABF00023700120211CFFF7D5FE80B2002800D071
:10AC000099E000F023F900F021FA00F0BFFC504B6E
:10AC1000504A127DDA761C1C1E1C28360127251C82
:10AC2000E279002A10D02068002801D1A77104E041
:10AC300000F0FEFBA07101287CD9AB68002B03D08B
:10AC4000A8799847002876D11434B442E7D1AC23D0
:10AC5000404AD35C002B63D0002692469346904630
:10AC6000162373435344B03399461B7D012B06D002
:10AC7000484600F0DDFB4C462075012850D901A95B
:10AC80004A46138A0B80137D8B7001201232FFF726
:10AC900085FE80B2002843D1AD235C46E35C002BE7
:10ACA00037D0002402AD2B4F21010919490041443E
:10ACB0008D31FF310B78B34225D100232B606B60BF
:10ACC000AB60EB602B616B614A46538A2B804B88EB
:10ACD0006B80137D2B714B78AB718B1DAB600B7947
:10ACE000AB814B79EB812B7D0F22934301221343E0
:10ACF0000F221340102213432B751A31281C00F029
:10AD0000B5FB00280CD10134E4B2AD23FB5CA342B7
:10AD1000CAD80136F6B2AC230E4AD35CB3429FD8F0
:10AD200048230C4AD35C0020002B04D0FFF7BCFE64
:10AD3000002000E007200BB03CBC90469946A2469C
:10AD4000AB46F0BDF049020059AD0100A9A90100D0
:10AD5000002900207836002010B586B0041C00F0D1
:10AD600009F9201C04F016FC201C00F08BF9238844
:10AD7000112B1FD0192B27D0102B35D101200121E9
:10AD8000FFF764FC4A23204AD35C002B2CD000231D
:10AD900000930193029303930493059303236A465C
:10ADA0001370A02313826846FFF7F4FD80B20028D9
:10ADB0001AD027E001200021FFF748FCFFF7ECFD47
:10ADC0000020FFF771FE0FE0A379002B0CD1FFF7F5
:10ADD000E3FD0120FFF768FE06E00C4B1B6A002B29
:10ADE00010D0201C98470DE0084BDB79002B05D0D4
:10ADF000064BDB68002B01D0201C9847034BDB7E01
:10AE0000002BEAD106B010BD7836002000290020C2
:10AE100001207047BFF34F8F024A034BDA60BFF344
:10AE20004F8FFEE70400FA0500ED00E077DF704782
:10AE300078DF70477ADF70477CDF704784DF7047C8
:10AE4000A7DF7047002070477047C04630B58BB011
:10AE5000FFF7DEFF40080124204001AB187003AB70
:10AE600000220592374A039201221A710D225A716B
:10AE700007229A711022DA71FFF7CAFF044209D043
:10AE800001A803F057FD80B2002803D12E4803A982
:10AE900003F0ECFD2D4B0B201856FFF7C7FF83B2D4
:10AEA000181E4DD1FFF7B4FF031C0020D90747D56A
:10AEB0006A4613780F229343012213430F22134053
:10AEC000102213436C462370214C201C07F044FCD5
:10AED00082B26846211CFFF7AFFF83B2181E2FD144
:10AEE0001A4B1B7D0020002B00D01A48FFF7A0FF53
:10AEF00083B2181E24D101AC144D288F8000052187
:10AF000006F010FA2080688F8000052106F00AFA0A
:10AF100060800023A380C8235B00E380201CFFF730
:10AF200089FF83B2181E0BD103A80B4A031C32CA37
:10AF300032C332CA32C312681A6004F0E5FA80B232
:10AF40000BB030BD45AE01003F2F00207836002009
:10AF5000C4360020C10300000C4A0200014B1888CF
:10AF60007047C04628290020014B00201856704722
:10AF70003E2F002010B5041CFFF74AFFC30702D57F
:10AF8000201C03F007FF2388182B21D004D8102B96
:10AF900007D0112B13D021E01A2B15D0522B17D02C
:10AFA0001CE0A2880E4B1A80FFF732FFC30715D5AD
:10AFB0000B4B188801210022FFF740FF0EE0012211
:10AFC0005242074B1A8009E0A279064B1A7005E03D
:10AFD000034B18880C21044AFFF732FF10BDC0460E
:10AFE000282900203E2F0020FFFF000008B5FFF7B2
:10AFF0000FFFC30704D5034803F07CFD80B200E0D7
:10B00000014808BD3F2F00206380000044DF7047E7
:10B0100011DF704713DF704774DF704776DF7047CA
:10B0200008B5FFF79BFF084B984204D0FFF796FF47
:10B030001321FFF7F3FFFFF7EFFF01200021FFF7D8
:10B0400005FB04F09FFA08BDFFFF000010B584B0B7
:10B05000FFF7E4FA01A90880074B4B6000238B60DF
:10B06000064805F033F884B2002C02D1044805F0FC
:10B070001BF8201C04B010BD39FF0100402F002038
:10B0800021B0010008B5011C014805F097F908BD81
:10B09000402F0020064C064D061C064FF0B400243D
:10B0A000002500260027F0B4034800477047000041
:10B0B000FFFFFFFF00000021F9FFFFFF016881F3A0
:10B0C000088840680022EFF305839A42E2D1024CDF
:10B0D000A646004770470000FFFFFFFF10B5FFF7CF
:10B0E0009FFFB120FFF792FF83B2181E19D1FFF71F
:10B0F0008FFF83B2181E14D10A4B5869FFF78AFFDD
:10B1000084B2201E0DD1084B8021C903C0225200F9
:10B110009950196880229950024B5869FFF7CEFF69
:10B12000201C10BD0010001000E100E0A0DF7047FF
:10B13000A6DF704730B589B0051C2D4C201C0021BE
:10B14000282207F06FF8A57007A901230B808D70E6
:10B150000120221CFFF7EAFF83B2181E45D101A887
:10B160004360436122490B88038007AB9B780371DE
:10B17000012383811423C381212303750323438087
:10B18000102383710B1C143383601A4B0361043149
:10B1900000F06CF9031C002B27D101A80223438087
:10B1A0000823837100238360134B036110490C3122
:10B1B00000F05CF9031C002B17D11048104906F071
:10B1C000E9FD031C0F4A10600520002B0DD0181C50
:10B1D000002107F05DF90C4800F0C2FF0B4800F0B9
:10B1E000BFFF00220A4B1A70002009B030BDC046D4
:10B1F000742F0020284A02002C4A0200304A020024
:10B20000384A0200F4350020342900204429002067
:10B21000702F002000B583B006486946073100F062
:10B2200001FF002802D06B46D87901E0012040429E
:10B2300003B000BD4429002000B583B0011C0748BD
:10B240006A46073200F02EFF002802D06B46D879FC
:10B2500001E00120404203B000BDC0464429002067
:10B26000014B188980B2704744290020000000007B
:10B27000F0B583B06B46D8711D4B1E4AD058410CB7
:10B28000C0031A4B184A06F0FDF8061C1A4F174D5A
:10B29000154C381C6946073100F030FF00280CD1EE
:10B2A000134B144AD358590CD803221C2B1C06F0FC
:10B2B000E9F8801B114B9842EBD90D4B0D4AD05841
:10B2C000410CC003094B084A06F0DCF8861B0B4B07
:10B2D0009E4202D86B46D87901E00120404203B07B
:10B2E000F0BDC046C046C046E88000000000000037
:10B2F000040500000010014034290020B70B0000B5
:10B3000070B50388502B14D1C2880A4B9B899A428E
:10B310000FD1C38B002B0CD00024074E851D29199B
:10B320001A31301C00F0EAFE0134A4B22B8BA34288
:10B33000F5D870BD742F002044290020014B1878E7
:10B340007047C046702F002008B5064B1A780121BF
:10B350008A1A1A70044800F003FF044800F000FF46
:10B3600008BDC046702F0020342900204429002049
:10B3700010B586B0FFF7F2FD254B984204D1254861
:10B3800000F0EEFE00203AE0234B244AD058410C56
:10B39000C0031E4B1C4A06F075F8214B1968421A6F
:10B3A0005B6800209A422AD31B4B1C4AD058410CA0
:10B3B000C003164B144A06F065F8194B186015487F
:10B3C00018491431142200F053FE031C6A46D08041
:10B3D0000020002B13D002AC002302930393114BE7
:10B3E0009A8822800122A2706A460632049214339F
:10B3F0000593FFF7B3FD211CFFF79AFE80B206B05C
:10B4000010BDC046C046C046E880000000000000F5
:10B41000FFFF000034290020040500000010014057
:10B420002C290020742F0020A2DF704763DF7047B3
:10B4300010B586B000226B46DA7100235942C2185B
:10B44000D47B02AA8C54013B1A1C1032F6D102A8FC
:10B4500069460731FFF7EAFF0023002802D16B4657
:10B4600007331B78181C06B010BDC04670B590B0ED
:10B47000041C0D1C037D002B08D10F2293430122D5
:10B4800013430F2213401022134303753D4B5B7B84
:10B49000002B09D1237D0F229343012213430F2256
:10B4A0001340102213432375A37930221A4217D078
:10B4B0000FAE301C0021032206F0B4FEB378062242
:10B4C000934302221343B37033780F229343012234
:10B4D00013430F221340102213433370237D7370E4
:10B4E00008AA0020089009900A900B900C900E90EA
:10B4F000A379137000223021194200D00FAA0D92B7
:10B5000007AA00231380112313700423937020696A
:10B5100000280BD00378002B08D008AE099007F064
:10B520001BF980B23081708107AB336106AA00231A
:10B530001380A189E389C81A461EB041042630430E
:10B540009070A2793220104202D0207D06AA10709D
:10B55000A279100702D5207D06AA507001AA00200A
:10B560009060D060A01C019006A85060118193816A
:10B57000A3681361208808A92B1CFFF755FF80B230
:10B5800010B070BD78360020A0DF704710B594B0C1
:10B5900012A84349042206F03CFE012012A96A4683
:10B5A0004E32FFF7F1FF83B2181E77D10CAC0D932A
:10B5B0000F93109311936B464E331B882380012306
:10B5C00023710223A37111232375364B6380364800
:10B5D0000E9007F0C1F880B2E081A081201C0AA97A
:10B5E000FFF744FF031C002B58D10CAC2F4B63809A
:10B5F0002F480E9007F0B0F880B2E081A081201CA7
:10B6000008A9FFF733FF031C002B47D180235B05FC
:10B610005A6E1B6E274C201C274906F0C9FF0CA848
:10B62000264A428084601022C281828106A9FFF7E7
:10B630001DFF031C002B31D10CAC214B6380214832
:10B640000E9007F089F880B2E081A081201C04A947
:10B65000FFF70CFF031C002B20D10CAC1A4B6380AE
:10B6600001F0B2F9A06007F077F880B2E081A08124
:10B67000201C02A9FFF7FAFE031C002B0ED10CAC14
:10B68000124B638001F086F9A06007F065F880B284
:10B69000E081A081201C6946FFF7E8FE14B010BDD0
:10B6A0003C4A0200292A0000404A0200242A0000E5
:10B6B000684A02009C2F002044480200252A00000E
:10B6C000282A0000544A0200262A0000272A0000E7
:10B6D0007047C046F0B557464E464546E0B496B072
:10B6E00002AF381C0021082206F09CFD68460021AC
:10B6F000082206F097FD08233B8000218A46B97096
:10B70000012301218846FB703A790F26B243414656
:10B710000A430F252A402021894649460A433A71A7
:10B720007A79B24341460A432A4049460A437A712C
:10B73000BA79B24341460A432A4049460A43BA719C
:10B740006A461380534693700223D3705379B343F0
:10B7500041460B432B404A46134369464B718B7954
:10B76000B343424613432B4049460B436A46937109
:10B7700004AC201C0021482206F054FD474B0493E2
:10B780005346636001232372514661724246A2729E
:10B79000E760227400AB636121765146E1614C237E
:10B7A000A3843F4B23620223FF3323863223E154D9
:10B7B00003223323E2543623E154A1632C23E25CB9
:10B7C000B24341460A432A4049460A43E2542D23E4
:10B7D000E25CB2432A40E2543423E25CB243414685
:10B7E0000A432A4049460A43E2543523E25CB24305
:10B7F0002A40E2544323E25CB24341460A432A40D2
:10B8000049460A43E2544423E25CB24341460A43B8
:10B810002A4049460A43E2544523E25CB2432A40A7
:10B82000E2544623E25CB24341460A432A40494679
:10B830000A43E2544723E25CB24341460A432A40AA
:10B8400049460A43E2543C23E25CB24341460A4380
:10B850002A4049460A43E2543D23E25CB243414652
:10B860000A432A4049460A43E2543E23E25CB2437B
:10B870002A40E2543F23E25CB24341460A4315406A
:10B880004A461543E5540748211C05F06DF980B27E
:10B8900016B01CBC90469946A246F0BDD1B6010038
:10B8A000744A0200AC2F002008B5011C014805F0C5
:10B8B00057F808BDAC2F0020F0B583B0041C0D1C58
:10B8C000FFF74CFB0823224A904237D068460021FC
:10B8D000082206F0A7FC6A46157063B2002B02DB53
:10B8E0001C4B1B5D00E000236A4693701A4B1B4AF9
:10B8F000D058410CC003154B134A05F0C3FD071C7B
:10B90000174E124D104C02E0192005F0B3FC301C0C
:10B91000002108226B4605F06FFC83B2114A934266
:10B920000CD10D4B0D4AD358590CD803221C2B1C9B
:10B9300005F0A8FDC01BC728E6D90A4B181C03B0A8
:10B94000F0BDC046C046C046E880000000000000D0
:10B95000FFFF0000C04A0200040500000010014083
:10B96000AC2F00200430000010B5041CFFF7F6FADD
:10B9700008220549884205D004480021231C05F00F
:10B980003BFC82B2101C10BDFFFF0000AC2F00205A
:10B9900022DF704723DF7047F0B54F464646C0B4FC
:10B9A000404AA023DB00D05884460021D150A02378
:10B9B000DB05E622D200995889463B4999503B4A1B
:10B9C000985880469950A122D2008021890199502F
:10B9D00080214901995004200138C046C046C04624
:10B9E000C046C046C046C046C046C046C046C04627
:10B9F000C046F1D1A223DB00A022D205D35899047E
:10BA000007D5A223DB00A022D205D3580120DA04F7
:10BA100035D41222A023DB05254F80214901A12620
:10BA2000F600A225ED008024A401D951042001389C
:10BA3000C046C046C046C046C046C046C046C046D6
:10BA4000C046C046C046C046F1D1995104200138D5
:10BA5000C046C046C046C046C046C046C046C046B6
:10BA6000C046C046C046C046F1D15859204203D115
:10BA7000013A002AD9D101E0012000E00020A023F2
:10BA8000DB05E622D20049469950084A41469950C2
:10BA9000A023DB00034A6146D1500CBC9046994676
:10BAA000F0BDC046003000400D0600003407000025
:10BAB0000C05000010B5114BB122D20098500122A4
:10BAC0009A6000208221490058505A61191C822234
:10BAD00052008B58002BFCD0084B002282214900D9
:10BAE0005A500749585802245C50922149005A5034
:10BAF000400801235840184010BDC04600300040A7
:10BB0000C404000008B5A023DB05184AE621C900DB
:10BB10005A5017495A50174B0022842149005A5055
:10BB20008E2149005A500C21A122D20099500D219A
:10BB3000114A9950CC214904104A995000201049CB
:10BB4000104AFFF727FF002300280DD10120FFF73F
:10BB50001FFF0023002807D10521A023DB00054A91
:10BB6000D150FFF719FF031C181C08BD0C0600007C
:10BB700034070000003000400C05000024050000E0
:10BB8000383100401C30004030B507291CD8012452
:10BB9000231C8B4019020823184308430B4B0C4D00
:10BBA0005851A021C9005C50002A0DD0C12292003A
:10BBB00001219950074B98580002000A8021C905BD
:10BBC0000143995080221A6030BDC0460070004089
:10BBD0000405000000E100E0054B1A21054A9950D8
:10BBE000802205498A500121A022D2009950704735
:10BBF000007000400405000000E100E00122084B55
:10BC00001A60191C802252008B58002BFCD0044B68
:10BC10000021802252009950A122D20098587047EA
:10BC20000070004008B5FFF7E9FFE1231B0158430E
:10BC3000800A08BD2EDF704733DF704721DF704771
:10BC400023DF704710B5041E0F2C08D8C0B2FFF7D1
:10BC5000F7FF0120A040FFF7F1FF201C01E00120C9
:10BC6000404210BDF8B55F4656464D464446F0B4D6
:10BC70000378013B022B00D9A0E0437B042B00D9C1
:10BC80009FE09B00634AD3589F460921A223DB0013
:10BC9000614AD1506422614B1A6023E00821A2233B
:10BCA000DB005D4AD150FF225C4B1A601AE005218F
:10BCB000A223DB00584AD150FA229200574B1A6057
:10BCC00010E00221A223DB00534AD1506422534BDF
:10BCD0001A6007E00021A223DB004F4AD150FF2267
:10BCE0004E4B1A6006784E4B1E60002E6CD0021C24
:10BCF00000234C498A46A021C90589460324A04651
:10BD0000494DAC469B465478990055464C51C13438
:10BD1000FF34A40045464F46E5515C466746CC518A
:10BD2000917A424D5955013301329E42EBD83A4B3C
:10BD30000122DA600022A121C9005A5037490C685B
:10BD400064003B495C503B495A50082480218900DB
:10BD50005C50A62149005A50A42149005A50A22102
:10BD600049005A50A02149005A50051C00230024C4
:10BD70002E4FB946304988464A46A75CBF002F4936
:10BD80007F1828799B002E4A99183A1CFFF75AFF12
:10BD9000687941463A1CFFF755FF0134231C0235F0
:10BDA000A642E9D80A200321FFF746FF0A20FFF741
:10BDB00041FF0122184B1A60002024E0012040427C
:10BDC00021E0012040421EE0134B0122DA600022F4
:10BDD000A121C9005A50114908684000144958501F
:10BDE00014495A500820802189005850A621490042
:10BDF0005A50A42149005A50A22149005A50A0216A
:10BE000049005A50CEE73CBC90469946A246AB4604
:10BE1000F8BDC046404B020000A000405431002055
:10BE20002C3100203C3100204831002028310020F6
:10BE30004C050000040500004CA1004000600040DB
:10BE400040A1004080000E4BC1500E4B0021A622A5
:10BE5000520099500C49802292009950C1229200C0
:10BE60009B581A0307D4074B01225A60802109030B
:10BE7000C122920099500122024B1A607047C046BD
:10BE80003031002000A0004008080000F0B5454A0D
:10BE90000023A6214900535001204042C2218900BD
:10BEA0005050414A1360414B1B68002B72D0002355
:10BEB0003F4D404E141C9A005259002A15D13E4A5B
:10BEC000D75C4537FF37BF003C493D4AB9509B001E
:10BED0003C4A9A580127391C91403B4AA027FF054C
:10BEE000B9500027394A9F504CE03068824216D33F
:10BEF0003149CF5C4537FF37BF003049304AB95030
:10BF00009B00304A9A580127391C9140A122D20047
:10BF1000A027FF05B95000272C4A9F5032E051005E
:10BF2000A82040001A1892001E4FD1519A002749AC
:10BF30005258002A26D1204AD75C9B0021481A5823
:10BF40000123181C9040A123DB00A021C905C85083
:10BF5000BB001B495B181E49A227FF00D951C046F0
:10BF6000C046C04601271F6012021A4F3A43A2275B
:10BF7000FF00DA51C046C046C04622689300012245
:10BF800012481A50084A136801331360074A1268AE
:10BF90009A4290D8034B08218022920099500122A6
:10BFA0001A60F0BD00A00040243100202C31002098
:10BFB000303100205431002028310020001F0300C0
:10BFC000006000403C3100200C050000483100209A
:10BFD000031F01000300130010B5074C0123A12229
:10BFE000D200A350054AA350C003FA21890005F0EE
:10BFF00099F9034BE05010BD000001400C05000012
:10C00000040500000122014B1A6070470000014046
:10C010000249C023DB00024AD15070473546526EB8
:10C020000000014038B5041C0368002B1ED0828834
:10C030000020002A1BD0E288002A18D02589ADB242
:10C04000002D14D0A08950431B18081C191C06F0A1
:10C05000E0F8A0890130A18805F008FA89B2A18131
:10C060002389013B9BB22381012000E0002038BDE1
:10C07000F8B5061C0C1C171C00200025002A06D150
:10C080000EE00135ADB2F388E418BD4207D0301C94
:10C09000211CFFF7C7FF0028F3D1281C00E0281C53
:10C0A000F8BDC046F0B5474680B4031C171C0468B1
:10C0B000002C1FD085880020002D1CD0DA889046E7
:10C0C000002A18D01E89B6B2002E14D01A8992B256
:10C0D0008A4210D998894018291C05F0C7F909042B
:10C0E000090C434659436118381C424606F091F842
:10C0F000012000E0002004BC9046F0BD38B5041CCF
:10C100000368002B29D085880020002D26D0E288E6
:10C11000002A23D0208980B2854202D1A07B00284A
:10C120001CD060895043181806F073F86089A58800
:10C130000130291C05F09AF989B2618123899BB2EB
:10C140009D4204D163899BB2A381012006E023892B
:10C1500001339BB22381012000E0002038BDC0469E
:10C1600000230381438183817047C04600000000A3
:10C1700010B5414B414AD058410CC0033D4B3C4A9D
:10C1800005F080F93E4B1A68801A5B6898423AD3F2
:10C190003C4B1A7801321A700020FEF765FB012330
:10C1A000011C5940C9B20020FEF750FAFEF742FACE
:10C1B000002806D1334B1B78032B02D90022314BC8
:10C1C0001A70FEF737FA012807D12E4B1B78052B82
:10C1D00003D900222B4B1A7003E02A4B1B78002B4B
:10C1E00011D100200021FEF731FA254CFA23DB00A3
:10C1F0006360214B214AD058410CC0031D4B1C4A9F
:10C2000005F040F920601C4B1C4AD058410CC0037B
:10C21000184B174A05F036F91B4B1A68801A5B68F1
:10C22000984212D30120FEF71FFB0123011C594045
:10C23000C9B20120FEF70AFA0020FEF723FB00280E
:10C2400013D10122114B1A700FE00020FEF71AFBE8
:10C2500000280AD1084B094AD058410CC003054BAD
:10C26000034A05F00FF9084B186010BDC046C046E0
:10C27000E8800000000000000405000000100140FC
:10C280005C31002058310020542900205931002011
:10C2900070B5FEF7CFF9002808D001284ED1764BB3
:10C2A0001B6858689968FCF7D9F947E0724B1B681E
:10C2B0005868FCF733F9002840D16F4B1868426882
:10C2C0005368013B5360002B04DA416806F09EF886
:10C2D000041C04E042681368591C11601C78611C3E
:10C2E0002CD0FEF73BFE654B984227D0644B1A6872
:10C2F0009368013B9360002B19DA91698B4210DB44
:10C3000013681C705E4B1A68136819780A2902D0EA
:10C310000133136012E0584B18680A2107F00CFB38
:10C320000CE0554B1868211C07F006FB06E013686B
:10C330001C70534B1B681A6801321A60FEF7FEFF2F
:10C3400000280ED0012800D094E0FEF707FE4B4BEA
:10C35000984200D18EE04A4B1968081CFCF77EF920
:10C3600088E0FEF767F9002842D1454B1868FCF7D2
:10C37000D5F800287ED1424B19684B68013B4B60D1
:10C38000002B05DA3C4B186806F040F8011C03E06E
:10C390000B685A1C0A6019784A1C6BD0364B186817
:10C3A00082689368013B9360002B17DA8268936878
:10C3B0009469A3420FDB136819702F4B18688268C9
:10C3C000136819780A2902D00133136052E00A2158
:10C3D00007F0B2FA4EE007F0AFFA4BE083681B6853
:10C3E0001970254B1B689B681A6801321A6041E07E
:10C3F000FEF736FFC4B2032C3CD9FF250540204B85
:10C400001868691E89B200F03BFA0D2801D00A288D
:10C4100030D1023DADB21A4B1868291C00F030FA39
:10C420002B2822D0042C25D90D2820D003240A281B
:10C430001ED01FE02B1B99B2306800F021FA2B2888
:10C4400004D1013CE4B2002CF4D101E0002C11D164
:10C45000FEF77AFFFEF782FD084B98420AD0084BA0
:10C460001968084805F03AFD04E0022400E00324BE
:10C47000034EDFE7002070BDC8290020FFFF000049
:10C48000F4350020B042020070B582B0FEF706F924
:10C49000FEF780FBFBF78AFF01A80121184A01F093
:10C4A0000FF983B2002B02D00004000C25E00198A4
:10C4B000F821002201F03CF983B2181E1DD1114869
:10C4C000FFF78AFDFFF79EFD0F4D104E0124FFF789
:10C4D0009FFD2B78002B03D0301C0021FBF774FF4D
:10C4E000FEF766FAFEF794FCFEF792FC044201D0D8
:10C4F000FFF7CEFEFEF7D4F9E9E702B070BDC04603
:10C5000071C101001027000059310020544B020076
:10C510000A4B9B6802689A420FD14268074BDB685E
:10C520009A420AD1022908D1054B1B78002B04D06E
:10C53000034B1A78013AD2B21A7070476431002066
:10C5400074310020024B1878431E9841C0B27047E6
:10C550007431002030B583B0234C244B6360244BEE
:10C560006380C525ED00201C291C002203F0B0FCCF
:10C570006051204B1B78DBB20020012B31D8002307
:10C58000019301A803F090FC019B142B02D16420BD
:10C5900004F070FE174B1A780132D2B21A701648A6
:10C5A0008021C90003F048FC83B2181E19D112483B
:10C5B00008308021C90003F03FFC83B2181E10D15F
:10C5C0000D4809498022D20003F05CFB83B2181E9B
:10C5D00007D10948083009498B22920003F052FB29
:10C5E00080B203B030BDC04678360020020600009D
:10C5F0002C0600007431002064310020783A0020BD
:10C6000010B582B0274C201C0021274A05F00AFEF5
:10C61000201C26498022D200002303F0BBFB00230C
:10C6200000283BD12248214908318B22920003F097
:10C63000B1FB0023002831D11A4B198800231D4A71
:10C6400091422BD1174B5A88174B9A4217D8043A6C
:10C65000144C111901A8042205F0DBFD618804398E
:10C66000201C002203F034FC019B834201D00023F4
:10C6700014E00C4B5A8801230B498A420ED00E4B12
:10C680009A4208D8131F074818180C49C918064BB6
:10C690009A1A05F0BEFDFFF75DFF0123181C02B0DA
:10C6A00010BDC046783600202C0600006431002002
:10C6B000783A0020AFAD00002B060000944B02003A
:10C6C00070B51C4C1C4D201C00212A1C05F0AAFD35
:10C6D0001A4B238065801A4B6360012525726572B1
:10C6E000A5722573174E201C0E30311C062205F052
:10C6F00090FD1423238764236387A3871E23E38786
:10C700004823E554231C4C33311C083125C925C36B
:10C7100005C905C30A881A8000236222A352623425
:10C720006380A380E3802381FFF714FF43425841D5
:10C73000C0B270BD783600202C060000AFADFFFF00
:10C7400002060000644B020010B584B00022154BB5
:10C750001A7002A8144B2833021C12CB12C269466D
:10C7600003F0EAF983B2181E19D1684600210F4A76
:10C7700003F058FA83B2181E11D1684601210B4A02
:10C78000083203F04FFA83B2181E08D1FFF738FFC2
:10C79000031C0020002B02D1FFF792FF002004B001
:10C7A00010BDC04674310020644B0200643100208B
:10C7B000F8B5031C0F1C151C0020042B18DC5A00B4
:10C7C000D3189B000B4A9E58002E0AD0002D0ADD7C
:10C7D0000024385DB047013007D00134AC42F8D1B5
:10C7E00005E0002004E0281C02E0201C00E0281CDA
:10C7F000F8BDC046C8510200F8B50F1C161C04282D
:10C8000018DC430018188000104B18184568002DDC
:10C8100013D0002A14D0002915D00024A847431CA7
:10C8200003D038550134A642F8DC201E0DD101207A
:10C8300040420AE00120404207E00120404204E07B
:10C840000120404201E001204042F8BDC8510200F1
:10C8500010B5041C084905F06DFF002807D0201C06
:10C86000064905F067FF002803D1042003E00320F8
:10C8700001E00120404210BD304A0200C0510200D8
:10C8800008B50E22835E042B0ADC5A00D3189B00E5
:10C89000064AD3189B68002B05D0081C984704E073
:10C8A0000120404201E00120404208BDC851020081
:10C8B000224B1B78012B3FD1214B1B681A0719D142
:10C8C000204B1A68F023134005D11F4B1A68F02340
:10C8D0001A420FD11EE0102B05D11B4B1A68F02312
:10C8E0001A4207D116E0302B04D1174B1A68F023F7
:10C8F0001A420FD0124B1B681A071DD1114B1A6830
:10C90000F0231340402B17D10F4B1A68F0231A4223
:10C9100012D10BE00D4A0E4B1A60802212020D4B11
:10C920001A60064B1B78012BE4D005E00121C123DE
:10C93000DB008022D205D1507047C046E00F00F0E6
:10C94000E40F00F0E80F00F0EC0F00F0DFFF07C08D
:10C9500004050040186C004010B5002917D003886A
:10C9600093420BD107E0041C0830031C083B1B88D2
:10C97000934208D100E0041C606809E008300139E6
:10C9800089B2C90041188842EDD1002000E00020A2
:10C9900010BDC04638B580235B05DC6DA2B20748E8
:10C9A0000421FFF7D9FF002807D1054D2404220CEC
:10C9B000281C044905F0FCFD281C38BD2452020047
:10C9C0008C3100204452020070B5134B1C68A2B297
:10C9D00012480421FFF7C0FF011E06D12404220CD7
:10C9E0000F48104905F0E4FD02E00D4805F0ACFEEB
:10C9F0000B4C201C05F0B0FE061CFDF715FE051CB7
:10CA0000FDF712FEA6192D0AEAB2C3B2301C064980
:10CA100005F0CEFD201C70BD0C3000000452020059
:10CA200078310020445202004C520200F0B54F46CB
:10CA30004646C0B485B0071C1D4B1A6802929A88FE
:10CA400002AB9A801B4B1A6800929B886A469380BF
:10CA5000451C0478002C1FD0061C0023984602AA0F
:10CA600091465C2C0ED17978484605F057FE002897
:10CA700008D04B46C01A6A46145CBD1C43460133BD
:10CA8000DBB298460136731E1C706B1C2C78002C90
:10CA900005D02F1C1D1CE4E7061C0023984600232C
:10CAA0003370404605B00CBC90469946F0BDC04678
:10CAB000F0460200F846020010B500290BD0092309
:10CAC000002A09D0541E224206D10160848000232E
:10CAD0008360C36000E00E23181C10BD10B5031C5A
:10CAE0008068DC689A88241A0420A24207D3D86898
:10CAF000024018688154DA680132DA60002010BD03
:10CB000010B5031C8468C2680520944209D0986857
:10CB10009A8802401868825C0A709A6801329A60AA
:10CB2000002010BDC36883600020704770B5041CEE
:10CB3000151C8368C068C31A052099420AD2A068F0
:10CB4000A6880818711C04F031FC0E4023689B5D18
:10CB50002B70002070BDC046F0B557464E46454686
:10CB6000E0B400230126E024E400154A9246C022E6
:10CB700092029046802292029446321C9A401142C0
:10CB800015D0C568154203D12A43C260E14602E0D0
:10CB90009543C560C1469A00A025ED055219155967
:10CBA00057463D40155115594F463D4315510133E8
:10CBB000202BE2D11CBC90469946A246F0BDC0464F
:10CBC000FFFFFCFF70B58300181880000C4B1C6839
:10CBD000241800230120E021C9000A4E021C9A40BB
:10CBE0002568154208D09A00A025ED055219555820
:10CBF00035405550555855500133202BEED170BD5E
:10CC00009C310020FFFFFCFFF0B55F4656464D46C5
:10CC10004446F0B483B0A223DB00A022D205D6584C
:10CC20000021BE235B002D4AD1502D4B1B78002BD9
:10CC30004DD000242B4882462B498946284A9046ED
:10CC400053461A680123A34048460068184238D06A
:10CC5000A5002D19AD005519EB6873402F689F434F
:10CC6000281C391CFFF778FFA223DB00A022D20585
:10CC7000D2582B6872401A4014D072409346EA682A
:10CC800059464A4093430193281C191CFFF764FF3F
:10CC9000AB685A4693430198034068681040019975
:10CCA000084001E000230020A968B143394019433E
:10CCB0006B6833401F403843031C0B4301D02B6982
:10CCC00098470134E4B242461378A342B8D803B07F
:10CCD0003CBC90469946A246AB46F0BD0060004081
:10CCE000943100209C3100209831002010B500299B
:10CCF00029D007238A0727D1144B1960144B1870C9
:10CD00000023144A1370144A136082001018820022
:10CD1000081C002105F086FA01214942C2239B002C
:10CD20000E4AD1500E4B4022C02149005A50C12119
:10CD300089005C580B4820408024E403204358506D
:10CD40001A60002300E00723181C10BD9C3100204E
:10CD5000953100209431002098310020006000407F
:10CD600000E100E0FFFF00FFF8B5124C2468002C42
:10CD70001BD0002B1BD0104D2E78104D2F78042582
:10CD8000B74215D9B500AD19AD0064190D1C154396
:10CD900025606160A2602361721C074B1A700670E7
:10CDA000301CFFF70FFF002502E0082500E00725F3
:10CDB000281CF8BD9C3100209431002095310020C2
:10CDC000F0B557464E464546E0B4031C2B4A126860
:10CDD000002A4BD02A4909780720994249D90024D2
:10CDE000BE21490027484450A221C900A020C00507
:10CDF0004458A04624490968002905D180252D06FC
:10CE0000C12080001F4C25500120984001431E483E
:10CE100001609800C018800010180023C36001252D
:10CE2000E021C900194EB446C027BF02BA4680228D
:10CE3000920291462A1C9A400768174212D0544623
:10CE40004646164203D1C7683A43C2604C469A0030
:10CE5000A026F6059219565867463E405650565839
:10CE6000344354500133202BE4D101E0082000E08A
:10CE700000201CBC90469946A246F0BD9C31002083
:10CE8000943100200060004098310020FFFFFCFF3B
:10CE900010B50C4B1B68002B11D00B4A14780722DD
:10CEA00084420DD9A222D200A024E405A258840015
:10CEB00020188000C35813400B60002200E00822B5
:10CEC000101C10BD9C31002094310020802189026B
:10CED0008023194AD150194B80225202D221890055
:10CEE0005A50C22189005A5001225A602F2001381D
:10CEF000C046C046C046C046C046C046C046C04602
:10CF0000C046C046C046C046F1D19A6000220C4BD4
:10CF10001A602F200138C046C046C046C046C046F1
:10CF2000C046C046C046C046C046C046C046F1D115
:10CF3000044B1A707047C04600E100E00010014049
:10CF4000A0310020C831002010B543780133827829
:10CF5000D21A541EA2415242134002789A4207D07C
:10CF60000B6043785A00D318DB004068C01800E01B
:10CF7000002010BD174B5B68DB05DB0D0220002B8A
:10CF800027D0103BDAB219060FD5131C0F221A4016
:10CF9000083A9208920010495218526803210B4037
:10CFA000DB00DA4013069B0F0BE052B29208C0324E
:10CFB00092000A49525803210B40DB00DA40130665
:10CFC0009B0F0020012B04D0033B58424341022019
:10CFD000C01A704700ED00E018ED00E000E100E04D
:10CFE000F0B5474680B4364B0022A02149005A5084
:10CFF000A22149005A50A42149005A50A6214900B3
:10D000005A50802149005A50822149005A502D4BD4
:10D010001B68591C50D02C4A29498D582B4A12683C
:10D02000AD1A2D022D0ADA00D3189B00284A126887
:10D03000D3185A68954223D30026264F24498846A0
:10D0400008E0E3001B199B0042461268D3185A6897
:10D05000AA4216D8AD1AB6181C6A3A68002A09D036
:10D060009869D9699047002807D000210022FDF770
:10D07000D1FE02E0D8699B699847631CE1D100E0CA
:10D080000026154B1B78154A12789A4209D10133B4
:10D09000DBB2022B02D0114A137002E000220F4BC8
:10D0A0001A700E4B1A7892000D4BD650802149030E
:10D0B00080235B000B4AD15004BC9046F0BDC046B3
:10D0C00000100140B831002004050000A03100200C
:10D0D000A8310020A4310020B4310020B531002057
:10D0E000C031002000E100E0F0B55F4656464D46F5
:10D0F0004446F0B489B0D24B1B680393D14B1B78E4
:10D10000D14A12789A4219D00133DBB2022B02D0F5
:10D11000CC4A137002E00022CA4B1A70C94B1A782D
:10D120009200CA4BD058834603990A1C5A441202F3
:10D13000120AC34B1A600122059203E000239B46AA
:10D1400000240594C24B1B680693C24B1B780293C4
:10D15000C14B1E68B246C14B1A68B94B1B68079396
:10D16000BF4B1B780493069E029F0020331CD446BD
:10D17000B8467CE04146CD00654429781E1C72E02B
:10D180004C006418E4006B681C190131C9B2AB781B
:10D190005B1A5F1EBB415B4219402378022B05D00E
:10D1A000032B5ED1331C741C52D15BE06768B94617
:10D1B000FB004B449B009B189A461C7D331C002CA3
:10D1C00050D0771C40D04E4512D0371C4B46894674
:10D1D000191C03E0A14200D1BEE1271CFB00DB19B2
:10D1E0009B00D3181C6A631CF4D14946331C2CE005
:10D1F000371C341CF3009B199B00D3181E6AB146E0
:10D20000331C013606D10123964EB3604B460126EE
:10D2100004960790E6003419A40014196668019674
:10D22000246AFE00B1464F44BF00D7193C62671C18
:10D230000BD0E7003C19A40014196668B146019EA2
:10D24000B1444F46676000E0331C5446207509E046
:10D25000DC00E3189B00D31818751B6A5E1C01D014
:10D26000F6E7331C1E1C6B788B4289D1331C474672
:10D27000013FFFB2B846FF2F00D07BE71E1C744B66
:10D280001E606F4B079F1F60754B049818700599BF
:10D29000002909D1069A961B331C5E1EB341DBB2EE
:10D2A000059301277F422EE06C4B1C6801277F42CB
:10D2B00000210020A0465D461FE0F3009B199B0063
:10D2C00043445A68AA4206D961490E60521B5A600B
:10D2D0000123059317E0AD1A8918586018751C6A68
:10D2E000A1461A69002A07D0039C64182402240A64
:10D2F0009C60DA601F62371C4E46721CDDD1544BB5
:10D300001E6001230593524B1B680693524B1B680A
:10D310000493524B1C68524B1B780393484B1E6876
:10D32000B346069E00208146ABE00299CB00049AEA
:10D33000D21892469CE0FB00DB199B00E318BC4628
:10D340001F6A2BE05900C918C900504640684118AF
:10D350000133DBB25246137092789A4202D14846AA
:10D36000534618704A6894460B78321C012B00D043
:10D370007DE06046C30063449B00E318187D0028ED
:10D3800075D18A689A60C868D8600A691A61496963
:10D39000D9610398002801D0494699609A68584697
:10D3A000111A0902090A3048814203D8DA6889183B
:10D3B00059600BE05846821A1202120AD9688A4252
:10D3C00002D28A1A5A6001E0494659604A469A6078
:10D3D000DA60012018750121494219626246D300C2
:10D3E00063449B001B199846731C3FD0404642681B
:10D3F000F1008919890061184868351C824205D8F6
:10D40000821A4A6041460E62624630E0121A0B6A86
:10D41000581C09D0D900C918890061184868904281
:10D4200000D39FE01D1CF1E741464A600B62EB0010
:10D430005D19AD00651962462A62321C17E0C046CC
:10D44000A0310020B4310020B5310020C0310020CF
:10D45000B8310020AC310020B0310020A8310020CC
:10D46000BC31002000100140FEFF7F006246161C08
:10D470007B1C00D05FE75046037842789A4200D088
:10D4800060E7029B013BDBB20293FF2B00D04CE72D
:10D490003C4B1E600699B14202D1059A002A57D032
:10D4A000731C53D0384B1B68F2009619B6009B19B9
:10D4B0005D68364B364AD358364A14681A1B120236
:10D4C000120A033234490978002923D130498020D7
:10D4D0004002D126B6008851C126B60088512F4897
:10D4E0008026B602C0277F00C65106600120086072
:10D4F0002F200138C046C046C046C046C046C04680
:10D50000C046C046C046C046C046C046F1D1012014
:10D5100021490870AA4200D22A1C12191202120ACA
:10D520001B49A820C0000A5018480958C91A090206
:10D53000090A0331D31A1B021B0A994208D9802118
:10D54000890280235B00154AD15001E0FFF7BEFC41
:10D550000022134B1A700DE04946A74200D149E65C
:10D56000331C57E6D900C918890061184868801A29
:10D57000486059E709B03CBC90469946A246AB4684
:10D58000F0BDC046B8310020A831002004050000DD
:10D5900000100140A0310020C831002000E100E06F
:10D5A000BC310020F0B557464E464546E0B48146B2
:10D5B0008A4690461F1C07209A0761D1002B5FD036
:10D5C000FFF784FC314B089D1D60314B50461870AD
:10D5D000304B1F605246002A0BDDD30053449B00A2
:10D5E0003C1C0025002626702675243524349D42D7
:10D5F000F9D15546EB0053449B00FB180321264A02
:10D600001170264A1360191C1831404644004444E6
:10D61000E400002200201870587045469D70596043
:10D62000091901320833032AF5D1012252421C4B59
:10D630001A6000231B4A13701B4A13701B4B802275
:10D640005203C02149005A50C52189005858FF246F
:10D65000A043C024204358501A60154AA121C90094
:10D6600048465050C42189005C5812482040C024CC
:10D67000240220435850104BD258104B1A600020FF
:10D680001CBC90469946A246F0BDC046A43100207D
:10D69000B6310020A8310020AC310020B03100208C
:10D6A000B8310020B4310020B531002000E100E0A5
:10D6B00000100140FF00FFFF04050000A031002022
:10D6C000F0B59446184B1C68002C25D0002A25D0B4
:10D6D000002825D0154B1E78002E23DD2378002B43
:10D6E00013D108E01A1C271C2434251C243D2D7856
:10D6F000002D0CD101E0271C002201233B70797022
:10D700006346BB61026000200DE024340023013336
:10D71000B342E7DB042006E0082004E0072002E033
:10D72000072000E00420F0BDA8310020B631002021
:10D73000F0B5474680B482B0051C0E1C171C214B67
:10D740001C68002C37D0204B18780723A84233D907
:10D75000042931D9EB005B199B00E41822780823D7
:10D76000012A29D16378012B02D00023984600E0DA
:10D770008846FFF7FFFBC000144B1C682418201CD0
:10D7800001A9FFF7E1FB0423002815D00123037052
:10D7900045600F4B0F4AD3588360C6604346036110
:10D7A0004761019B63708021490380235B000A4A23
:10D7B000D150002300E00823181C02B004BC90469E
:10D7C000F0BDC046A8310020B6310020B0310020A5
:10D7D000040500000010014000E100E030B583B016
:10D7E000041C174B1A68002A26D0164B19780720FC
:10D7F000A14222D9E3001B199B009A5C0820012A50
:10D800001BD1FFF7B7FBC0000F4B1D682D18281C5C
:10D8100001A9FFF799FB021C0420002A0DD0022366
:10D8200013705460019B6B708021490380235B005F
:10D83000064AD150002000E0082003B030BDC046A9
:10D84000A8310020B6310020B031002000E100E016
:10D850000022054B1A70054B0121D9605960A021A7
:10D86000C9005A507047C046E031002000200040F7
:10D8700008B5074B1B78DBB2012B02D0022B03D07B
:10D8800005E0FFF7E5FF02E00322014B1A7008BD37
:10D89000E031002000B583B00123064AD360064A78
:10D8A000137003236A461370044B1B68684698473D
:10D8B00003B000BD00200040E0310020CC3100204A
:10D8C00000B583B0104B1B78022B02D001220F4B06
:10D8D0009A600F4869460731FFF712F9002802D015
:10D8E000FFF7D8FF0EE0094B8022C22189005A5071
:10D8F0006946C87907495850022003490870C12178
:10D9000089005A5003B000BDE031002000200040E3
:10D91000D03100201C05000008B50F4B1B78DBB28E
:10D92000002B02D0032B13D015E00C4B0421A022B6
:10D93000D200995001221A60094B9A68DB689A421A
:10D9400002D0FFF7BDFF06E00122034B1A7002E090
:10D950000222014B1A7008BDE03100200020004077
:10D96000D031002008B5034B1B78012B01D1FFF704
:10D97000A7FF08BDE031002008B50B4B1B78DBB2D8
:10D98000002B10D0022B04D9032B0CD1FFF760FF22
:10D9900009E0064B9A68DB689A4202D0FFF790FFD5
:10D9A00001E0FFF777FF08BDE0310020D031002013
:10D9B00030B583B0051C0C1C0D4B1B68034019428D
:10D9C00009D00C4B187801A9FFF762FA00280DD195
:10D9D000019B1D409C43064B1B68234202D0FFF76E
:10D9E0009BFF03E02B4201D0FFF742FF03B030BDA5
:10D9F000E4310020F831002000B583B084235B00BF
:10DA0000264AD358002B23D0131C00218422520015
:10DA10009950A322D2009958C9B22148FFF75EF865
:10DA2000002808D0012369460B7001901D4B1B682C
:10DA3000684698470CE01A4B9A68DB689B1A012BE2
:10DA400006D100236A461370164B1B686846984738
:10DA50008E235B00114AD358002B05D000218E2362
:10DA60005B00D150FFF788FF92235B000B4AD3582D
:10DA7000002B10D0131C00219222520099509021AB
:10DA8000C9005A585A50022369460B700192054B3F
:10DA90001B686846984703B000BDC04600200040A0
:10DAA000E8310020CC31002070B582B0051C0C1C80
:10DAB0001E1C00208849087088490A600722002C33
:10DAC00000D105E1A28886482168FEF7F5FF021E15
:10DAD00000D0FDE0A168A2898248FEF7EDFF021E9A
