:020000021000EC
:1080000000800020CD14020031150200331502005B
:108010000000000000000000000000000000000060
:108020000000000000000000000000003515020004
:1080300000000000000000003715020039150200A2
:108040003B1502003B15020011DC01003B1502004C
:108050003B1502000000000021CE01003B1502008C
:108060003B1502003B1502004DBF01003B1502000D
:108070003B1502003B1502003B1502003B150200B8
:108080003B150200F9D101003B1502003B1502002F
:1080900001D30100B1070200D1E001003B1502004D
:1080A0003B1502003B15020000000000000000002C
:1080B00000000000000000000000000000000000C0
:1080C000164B002B00D1144B9D46402292029A1A67
:1080D000924600218B460F461348144A121A0AF0A2
:1080E000ADF90F4B002B00D098470E4B002B00D062
:1080F00098470020002104000D000D48002802D000
:108100000C4800E000BF0AF00BF92000290004F041
:108110007FFA09F0F7FEC04600000800008000204A
:108120000000000000000000CC2900209041002049
:10813000000000000000000030B583B0041C0D1CDE
:10814000019001A900220AF027FD019BA34206D05D
:108150001A780023002A03D12860012300E00023BD
:10816000181C03B030BDC04630B583B0041C0D1CD4
:10817000019001A900220AF099FD019BA34206D0BB
:108180001A780023002A03D12860012300E000238D
:10819000181C03B030BDC04610B582B00C1C01A93C
:1081A000FFF7CAFF002805D0019BFF2B01D82370E1
:1081B00000E0002002B010BD10B582B00C1C01A977
:1081C000FFF7BAFF002806D0019B044A934201D86A
:1081D000238000E0002002B010BDC046FFFF000079
:1081E000F0B583B0041C0D1C171C0378202B03D1A1
:1081F00001342378202BFBD0201C01A910220AF087
:10820000CBFC019BA34221D91C1B022C20DC6E1C41
:1082100028701A782D2A1DD1012F22D9012508E0B6
:1082200030700135EDB21A782D2A14D10136BD42D5
:1082300017D05C1C201C01A910220AF0ADFC019B88
:10824000A34208D91C1B022CEADD04E0002502E051
:10825000002500E00125187843425841404228405B
:1082600000E0002003B0F0BDF0B557464E4645464D
:10827000E0B4051C9046002A31D0002831D00C1CF7
:108280000026B146281C2C210AF06EFB002803D0E2
:10829000471C4B46037000E0071C2378012B06D0D7
:1082A000002B02D0022B09D01DE065600EE0281CD7
:1082B0006168FFF741FF002808D119E0227A281CE5
:1082C0006168FFF78DFF031C237211D00136F6B2EF
:1082D00046450AD00C34002F09D03D1CD2E70020BF
:1082E00006E0002004E0002002E0301C00E0301C2A
:1082F0001CBC90469946A246F0BDC046F8B5051C88
:108300000E1C171C0A78084909F05CFE012F0AD9D7
:10831000741CF719054E2278281C311C09F052FEF6
:108320000134BC42F7D1F8BDE0440200E844020049
:10833000F0B5474680B4141C002921D1134B1B68AB
:108340009A421FD01248111C09F0D4FE114B1D1D7A
:10835000C0339846104F114E381C211C09F0CAFE3C
:10836000301C211C09F0C6FE01CD211C09F0C2FE03
:108370004545F1D10A48211C09F0BCFE002002E06D
:10838000084800E0084804BC9046F0BD803A002050
:10839000F044020070470200F4440200F844020076
:1083A000004A0200628000006380000010B5044CA7
:1083B000201C0021A0220AF041F8024B1C6010BDD5
:1083C000D0290020CC290020F0B5474680B4071CF6
:1083D00088464C490AF0D4FA002831D03B78002B6B
:1083E00013D03D2B11D03A1C474D03242868C118E7
:1083F00048782040191C022800D120391170013220
:108400001378002B01D03D2BF0D1381C0AF0CAFAAA
:10841000012805D93B78412B02D17B78542B05D01C
:108420003A48414609F066FE394868E0BB780237B1
:10843000002B05D13748414609F05CFE00205EE084
:10844000354E00243568281C0AF0ACFA021C381C92
:10845000291C0AF0D3FA002805D00134E4B204360E
:10846000302CEFD101E0302C05D12848414609F0ED
:1084700041FE2A4843E0251CA400274BE0580AF09F
:1084800091FAFF2318403F18381C25490AF078FA62
:10849000002805D11F48414609F02CFE00202EE09F
:1084A000381C20490AF06CFA002802D1013701215A
:1084B0000EE03B783D2B02D10137022108E000217C
:1084C000002B05D01148414609F014FE134816E070
:1084D000AD00154BEB58381C42469847041C134B13
:1084E0001B78002B07D1002801D10A4800E007487B
:1084F000414609F0FFFD00220C4B1A70201C04BC01
:108500009046F0BDF04402006429002004450200BA
:1085100060800000FC44020070470200618000009F
:108520000C4502001045020030480200702A00206D
:10853000F8B54F464646C0B4041C514B1B68C31ADD
:108540005A425341DBB298469B004E4FFF18381CED
:108550000AF028FA8146C6B2201C311C04F09CFAAD
:10856000051C431C03D1731E9E41F0B284E00D280C
:1085700001D00A2861D1381C43490AF001FA0028C9
:108580005BD104256368013B6360002B05DA3F4A39
:108590001068211C0AF060F802E0236801332360B0
:1085A000013DEDB2002DEDD1012008F06FFF201C40
:1085B000002104F071FA0D2801D00A280DD163685A
:1085C000013B6360002B05DA304B1868211C0AF070
:1085D00043F802E02368013323604346002B0FD0A9
:1085E00002F00EFF264C256802F004FF021C281C36
:1085F000274909F0E7FC2168264809F07BFD15E0D2
:1086000002F04AF80123181AC0B202F04BF81F4CCE
:1086100023689D6802F040F8021C281C1C4909F0E0
:10862000D1FC236899681B4809F064FD381C0021BF
:10863000042209F003FF01201EE02B2D13D1002E90
:108640000AD0022E12D8FF224B461A40381C12497B
:1086500009F0DCFE002809D1FF234A4613402B22F3
:10866000FA54012008E00020002E05D0381C00211B
:10867000042209F0E3FE00200CBC90469946F8BDA8
:10868000803A0020742A0020F0440200C82900200B
:1086900014450200FC4402001C450200F0B54F46A0
:1086A00080B4051C0F1C564EA03692E00A2C04D054
:1086B0000D2C02D0082C58D140E0524B1A68504B78
:1086C0009A4200D885E0504B1B689B689F4207D1B7
:1086D0004E4B1B7A002B03D04D48391C09F00AFD84
:1086E000484B002219680A70454C1C60201C391C3C
:1086F000FFF76AFE8146201C46490AF041F900282E
:1087000067D14A46002A64D1012008F0BFFE281C28
:10871000002104F0C1F90D2801D00A2859D16B6855
:10872000013B6B60002B05DA374B1868291C09F0F8
:1087300093FF4EE02B6801332B604AE0314B1A68FF
:108740002F4B9A4245D9304B1B689B689F4207D1FB
:108750002E4B1B7A002B03D02F48391C09F0CAFC82
:10876000284B1A68013A1A6033E0264B1B68B34263
:108770002FD2254B186883689F4225D1234B1B7A43
:10878000002B21D0BB68013BBB60002B17DAB96915
:108790008B420FDB3A6814703B681A780A2A02D0C1
:1087A00001333B6010E0184B18680A213A1C0BF0AB
:1087B000E9F909E0211C3A1C0BF0E4F904E03B68FC
:1087C0001C703B6801333B600E4A1368591C1160F2
:1087D0001C706B68013B6B60002B06DA0A49086865
:1087E000291C09F039FF041C03E02B68581C286081
:1087F0001C78621C00D059E7002004BC9146F0BDF3
:10880000D0290020CC290020C8290020243B0020AA
:10881000004A0200F04402002045020008B5011C95
:108820000122034B1A70034809F064FC08BDC046DE
:10883000702A0020FC44020071DF704774DF70472B
:1088400076DF704777DF704700B583B0012902D922
:1088500002290AD042E0234BDB7A5BB2101C22498A
:108860001A1C09F0AFFB002039E001235B420193A1
:108870001E4901AA09F0E4FF00282BD0019820230B
:10888000021C9A43131C28330DD01023021C9A4358
:10889000131C143307D00423021C9A43131C1032F8
:1088A00001D0002B18D140B2FFF7CCFF83B2181EC5
:1088B00015D10C4B019ADA7203F07AFFFFF7BEFF75
:1088C00002F094FB0A4B984202D1002002F020F9FA
:1088D000002004E0074802E0064800E0054803B035
:1088E00000BDC046243B002014450200F0480200B1
:1088F000FFFF00006280000030B587B0151C012921
:1089000013D804AC201CFFF797FFA2796379217973
:108910000091E1780191A178029161780391281C7E
:10892000034909F04FFB002000E0024807B030BDCA
:10893000F44802006280000010B5141C01290FD811
:10894000A02380225205D35801221A40201C054939
:1089500009F038FB0448211C09F0CCFB002000E0A2
:10896000024810BD14490200004A02006280000063
:1089700030B587B0141C012916D804A802F08EFB6C
:10898000051C002D11D104A98A794B790879009032
:10899000C87801908878029049780391201C044996
:1089A00009F010FB281C00E0024807B030BDC046AB
:1089B000F44802006280000070B58AB0041C0229ED
:1089C00000D094E004A80021152209F037FD201CF6
:1089D0002C2109F0C9FF002803D0451C0023037097
:1089E00000E0051C201C69460E31FFF7E5FB00285E
:1089F00000D17EE06B46D9898223434AD152281C9C
:108A00002C2109F0B1FF002803D0441C002303707F
:108A100000E0041C281C04A91022FFF7E1FB102829
:108A200069D1201C2C2109F09FFF061E02D00023D3
:108A300003700136201C08A9FFF7BEFB00285CD09C
:108A4000301C2C2109F090FF051E02D0002303707A
:108A50000135301C69462231FFF7AEFB00284ED0AD
:108A6000281C2C2109F080FF041E02D00023037073
:108A70000134281C254902AA09F0E2FE002840D052
:108A800004AB02981875002C0FD000230193201C12
:108A900001A9FFF751FB002802D0019B012B01D94E
:108AA0001B482FE04A2218498B54174904AA0B1C73
:108AB0006C3331CA31C330CA30C312781A70012204
:108AC0004923CA5403F074FEFFF7B8FE02F08EFA91
:108AD000104B984206D002F089FA1321FFF7B0FE3E
:108AE00000200FE0002002F013F800200AE0084800
:108AF00008E0074806E0064804E0054802E00448AC
:108B000000E003480AB070BD243B00201849020071
:108B100062800000FFFF000010B5141C012913D86B
:108B200002F064FA0022094B984202D002F064FA83
:108B3000021C52B2201C064909F044FA0548211CC7
:108B400009F0D8FA002000E0034810BDFFFF000044
:108B5000F0480200004A02006280000010B5041CC8
:108B600002292CD1194909F00BFF0123002814D048
:108B7000201C174909F0DAFE012300280DD0201C23
:108B8000144909F0FDFE0023002806D0201C1249DC
:108B900009F0CCFE002814D10023104A127D9A421D
:108BA00011D00E4A1375002B03D000214923D15454
:108BB00001E002F063FA03F0FBFD002004E0084846
:108BC00002E0074800E0002010BDC0463049020026
:108BD000404602003449020038490200243B00208C
:108BE0006280000010B582B0041C02291CD1124B17
:108BF0001B7D002B1AD002F0F9F9031C08200F4A44
:108C0000934216D068460021082209F017FC201C68
:108C100069460822FFF7E4FA831EDBB2062B07D869
:108C2000684602F001FF04E0054802E0054800E064
:108C3000034802B010BDC046243B0020FFFF0000E7
:108C40006280000063800000F0B557464E464546FE
:108C5000E0B48AB0041C022961D1364B1B7D002B85
:108C60005FD00378002B5ED0101CFFF7D7FD04A95E
:108C7000314A0B1C61CA61C303CA03C312881A803C
:108C80002E4B1A6802929A8802AB9A802C4B1D6870
:108C900000959B886E46B38002A882462949894682
:108CA0000322904635E066785C2D0BD15046311C8E
:108CB00009F05AFE002805D05346C01A6E46355CAE
:108CC000A71CA6784846006843195B7841460B40CC
:108CD0000221012B07D004A8291C09F045FE011C24
:108CE000481E81414900281C02F046FE00281BD185
:108CF0000F2008F0CBFBAE4201D0002E08D100209F
:108D0000002102F039FE00280ED10F2008F0BEFB32
:108D10003C1C671C2578002DC5D1002004E00A48C2
:108D200002E00A4800E008480AB01CBC9046994698
:108D3000A246F0BD243B00203C49020054490200F9
:108D40005C4902006429002062800000638000000A
:108D500010B5041C022916D102F096F8031C082055
:108D6000DA0711D502F042F9031C0820074A9342A2
:108D70000AD0201C03F066FF054B1968201C09F07F
:108D8000B9F9002000E0034810BDC046FFFF000015
:108D9000803A00206280000070B5141C002933D195
:108DA00002F072F8031C0820DA0730D5184B196856
:108DB0004B68013B4B60002B04DA164B186809F036
:108DC0004BFC03E00B685A1C0A601878431C1DD04A
:108DD0000F4E104D211C09F02DF933685A68013AE5
:108DE0005A60002A04DA2868191C09F035FC03E0EF
:108DF0001A68511C19601078421CEBD10648211CDE
:108E000009F078F9002002E0044800E0002070BD7D
:108E1000803A0020C8290020004A02006280000039
:108E2000F0B557464E464546E0B484B0061C0D1CCE
:108E3000171C1C1C274B1B68984203D1231C53434F
:108E4000102B40DC02AA24490B6802938B88938084
:108E50007B00303393701020391C08F0BDFBA04616
:108E6000002C2ADD0024FF23034099461B4B9A4621
:108E700000230193201C494608F004FC00290AD174
:108E8000002C03D01648311C09F034F9301C51462F
:108E90002A1C09F097F801A8291C3A1C09F0C5FA08
:108EA000ED192020311C09F0C5F8301C02A9019AE7
:108EB00009F088F801344445DADB0948311C09F02F
:108EC00019F9002000E0074804B01CBC9046994600
:108ED000A246F0BD803A00207049020064490200B9
:108EE000004A020063800000F0B587B0141C02291C
:108EF00032D1002305930493039303AB00931D49E0
:108F000005AA04AB09F09CFC032827D1059D002D80
:108F100026D0049A002A25DD039E002E24DD531E50
:108F2000012B01D9042A21D1D7B2391C042F00D931
:108F30000421C9B2281C08F045FB002905D00E48C1
:108F4000211C09F0D7F80D4811E0B3B2201C291CF0
:108F50003A1CFFF765FF0AE0084808E0074806E00A
:108F6000064804E0054802E0044800E0034807B072
:108F7000F0BDC046784902008449020062800000CA
:108F800008B5022907D0101C04490122CD23DB00BB
:108F9000FFF746FF00E0024808BDC046243B002022
:108FA0006280000038B501291DD8114B1968114B9A
:108FB000994209D104230F4C80252D010C48191822
:108FC0000968A1420BD000E0002380210901CB1ADF
:108FD000101C09491A1C08F0F5FF002006E00433B4
:108FE000AB42EBD101E0054800E0032038BDC046AC
:108FF000007800200DF0FECA98490200628000004F
:1090000008B5002907D1101C0449042280239B00C5
:10901000FFF706FF00E0024808BDC04600780020C8
:109020006280000074DF704776DF70477CDF704736
:1090300030B583B0031C141C012902D9022909D0C0
:1090400032E01B48111C09F055F81A48211C09F0A0
:1090500051F827E0164D281C191C1F2209F0E4FCCA
:1090600003F0A6FB01AC23780F22934301221343A4
:109070000F221340102213432370281C09F092FC86
:1090800082B2201C291CFFF7D1FF83B2181E0CD11D
:10909000FFF7C8FF01F0AAFF074B984202D100205A
:1090A00001F036FD002000E0044803B030BDC046AA
:1090B000703B0020004A0200FFFF000062800000B9
:1090C00010B5141C012910D801F090FF084A83182C
:1090D000584243413120C01A211C08F0ABFF05481B
:1090E000211C09F007F8002000E0034810BDC0462D
:1090F0000100FFFF004A02006280000008B500295D
:109100000DD101F073FF021C0020064B9A4207D0DC
:1091100001F06CFF1321FFF787FF80B200E00248E7
:1091200008BDC046FFFF00006280000008B50029AE
:1091300002D101F0A3FF00E0004808BD62800000FA
:10914000F0B587B0061C0C1C151C02A8294910227A
:1091500009F06BF9012C02D9022C20D03EE0012647
:109160000024254F02E001340136F6B2E3B2002BB1
:1091700036D0381C291C08F0BDFFFF2222401C32CB
:1091800052001E4BD25A281C1D4908F01BFF032E0B
:10919000E9D91C48291C08F0ADFF002027E01A4C33
:1091A0006D460A35271C0837301C01A90A2209F030
:1091B000F3FC019E0136002809D0AA1E12889042B5
:1091C00002DB2A88904201DD104810E02080023442
:1091D0000435BC42E8D103F0EBFA08E00B4806E0A6
:1091E000064B1A8F281C064908F0ECFEBBE707B0B7
:1091F000F0BDC046A0490200F4440200243B002018
:10920000F0480200004A02005C3B0020628000003F
:1092100008B5002901D0022903D1002001F078FC13
:1092200000E0014808BDC0466280000008B5002982
:1092300003D1FFF7F7FE80B200E0014808BDC04649
:109240006280000010B582B0141C012902D90229E5
:109250000DD024E04823134AD05C3030211C08F0A4
:10926000E9FE1148211C08F045FF002018E00F49D5
:1092700001AA09F0E5FA012802D1019B012B01D9CD
:109280000B480DE0482207498A5C934205D05A1EDC
:10929000934148228B5403F08BFA002000E00448ED
:1092A00002B010BD243B0020004A0200F04802003A
:1092B0006280000030B591B0022942D100230F93A3
:1092C00001A901938B60CB604B6102230B7007AB4C
:1092D0004B601F230B7201230B730FAB0B61022238
:1092E000FEF7C2FF041C0138C0B201282BD801AB25
:1092F0001A7A174DA323EA54281C843007A909F0D1
:1093000094F802224923EA54022C05D10F9B012B29
:109310001BD84A220E498B5403F04AFAFFF782FE0B
:1093200001F064FE0B4B984206D001F05FFE132162
:10933000FFF77AFE002009E0002001F0E9FB0020A1
:1093400004E0054802E0044800E0034811B030BDE5
:10935000243B0020FFFF000062800000A4DF704774
:10936000A5DF7047A6DF7047F8B54F464646C0B444
:1093700080468946171E15DD0026002463B29B0037
:109380004A469D58281C09F00DFB021C4046291C2A
:1093900009F010FB002807D00134E4B266B2BE42E7
:1093A000ECDB01E000260024B7420BD063B29B0047
:1093B0004A46985809F0F6FA4246135C3D2B02D013
:1093C000FF2400E0FF2460B20CBC90469946F8BD33
:1093D000F0B5474680B486B0051C0E1C171C1C1C3B
:1093E00005A9FEF7A9FE00281BD0214B059A9A4239
:1093F00003D1281C05A9FEF7B7FE059A13BA0593F9
:10940000032C06D9301C05A9042209F00EF8201CF3
:109410002AE006AB191B301C221C09F006F8201CA0
:1094200022E0281C6946221CFEF7DAFE8046011E57
:109430000BD00020B94217D3444515D3301C6946E0
:10944000424608F0F2FF40460EE0281C09F0AAFA56
:10945000031CC0B2A04200D9231CDCB2301C291C62
:10946000221C08F0E2FF201C06B004BC9046F0BDB0
:10947000FFFFFF7F10B5141C002802D0012810D078
:109480001CE0081C111C1022FEF7AAFE102817D1A0
:1094900000232375A3781B02E27813432382002064
:1094A00013E0131C1033081C191CFEF785FE00285E
:1094B00008D0238A002B07D1044806E0034804E0C3
:1094C000024802E0014800E0002010BD6280000078
:1094D000F0B5474680B480460E1C171E042F19D9DC
:1094E000002F23D00978002920D0154B1B6859186C
:1094F0004978682081430DD00024682103E05D197C
:109500006D788D4306D00134A2420FD9355D002D10
:10951000F5D10BE0012F03D10A48414608F0EAFDDE
:109520004046311C3A1CFEF7E9FE05E0301C0121E3
:109530003A1C434608F0E4FE04BC9046F0BDC04629
:1095400064290020D849020008B505480021A3225B
:10955000D20008F073FF03F02BF9002008BDC046CD
:10956000D03B0020F0B54F464646C0B487B0041C3F
:10957000171C022971D1AC233C4AD35C04200A2B6E
:109580006ED068460021162208F058FF01236A4673
:109590001375201C2C2109F0E7F9002803D0451C85
:1095A0000023037000E0051C002C38D0304B984697
:1095B000994630E001342378202BFBD0201C414613
:1095C0000222FFF7D1FE061E0EDB83004A469858A2
:1095D00009F0E8F9F6B2411C6118301C6A46FFF741
:1095E00049FF061E08D000E0224E381C2249221CEA
:1095F00008F0E8FC301C33E0281C2C2109F0B4F9F9
:10960000002803D0431C0022027000E0031C002D40
:1096100005D02C1C1D1C2378202BCBD0CEE76A460E
:10962000138A002B1BD0114CAC25665D16207043AD
:109630002018B0306946162208F0F7FE013666554C
:1096400003F0B6F8625D381C0C4908F0BBFC0C480E
:10965000391C08F04FFD002002E0064800E00548F4
:1096600007B00CBC90469946F0BDC046243B002094
:10967000A04A020062800000DC490200F0480200BB
:10968000004A0200F0B557464E464546E0B48AB05F
:10969000041C151C022900D0CEE0AC23734AD35C15
:1096A0000420002B00D1DBE0AD23D35C1E2B00D1C6
:1096B000D6E001A80021242208F0C0FE201C2C21A5
:1096C00009F052F9002803D0471C0023037000E082
:1096D000071C002C77D0664880468146654A924632
:1096E0006DE001342378202BFBD0201C414605225D
:1096F000FFF73AFE061E54DB83004946585809F02E
:1097000051F901302018F3B2042B4AD89E0052467A
:1097100093599F4669460631FEF74EFD002840D01A
:1097200001AB5B88002B3CD093E069460331FEF728
:1097300033FD002835D06B4603331B78002B30D027
:109740006846053069460331012208F06EFE80E06C
:1097500002A9FEF721FD002823D001AB1B79013BB4
:10976000132B1ED875E069460931FEF715FD002858
:1097700017D001AB5B79013B132B12D869E001AB29
:109780001A79002A60D15B790122002B02D11423BF
:1097900000E0131C03A9FFF71BFE01AB9871002822
:1097A00057D1281C3449221C08F00CFC334857E0E0
:1097B000431C00220270002F05D03C1C1F1C237884
:1097C000202B8ED091E701AB5B79002B02D101AB4E
:1097D0001A795A7101AB1B79002B2FD001AA52794B
:1097E0009A422DD301AB5B88002B2BD01F4CAC23AE
:1097F000E05C01388046AD26A35D242159438C46A8
:10980000631801AA8D33FF3383CA83C383CA83C31A
:1098100083CA83C36246A1188D31FF3143460B7062
:10982000A35D0133A35502F0C3FFA25D281C1449B8
:1098300008F0C8FB002013E0104811E00F480FE0CB
:109840000E480DE00D480BE001AB5B79002BA1D178
:109850009FE7381C2C2109F087F8031EABD0A7E73F
:109860000AB01CBC90469946A246F0BD243B00209D
:10987000C4490200B0490200F049020062800000C1
:1098800014450200F0B5474680B48AB0041C151C8C
:10989000022900D097E0584905AA08F0D1FF002816
:1098A00000D192E0059B002B00DC90E0AD225349F3
:1098B0008A5C934200DD8CE0013BDA00D3189B0008
:1098C000CE188D36FF36201C2C2109F04DF8041ED1
:1098D0000BD1311C0831B279281CFFF7F9FD48483B
:1098E000291C08F007FC002081E00378002B72D0CF
:1098F00001F07CFB051C371C0837601C327973793A
:10990000391CFFF765FD6A4610803279824256D8CD
:109910007279824255D3B07102F04AFFB38B0020B6
:10992000834264D0374B9D4237D0727830231A423D
:1099300033D06B4658800233318C06AA022414803F
:1099400050805360281CFFF70BFD7478E406E40F89
:1099500004D06B4602331B88D8073ED473789A062E
:109960001BD56B4602331B88980716D501AA904673
:10997000101C0021102208F061FDB38B40460380CB
:1099800063425C41013401A98C7000AA8A60CF60F7
:10999000281CFFF7E7FC80B229E0327973790020B8
:1099A0009A4224D0B18B08AA68460388138000230A
:1099B00053805360281CFFF7D1FC80B217E0124897
:1099C00015E0114813E0104811E00F480FE00E4871
:1099D0000DE00D480BE00C4809E001AC201C002113
:1099E000102208F02BFDB38B23800124CBE70AB0B3
:1099F00004BC9046F0BDC04618490200243B00203C
:109A0000004A0200FFFF000062800000F0B55F46E0
:109A100056464D464446F0B485B0904600295DD187
:109A2000354B1B689A425BD0AC23344AD35C002B85
:109A300058D000269246324B9946324B9B4616240C
:109A400074435444B034721C238A4046494608F09B
:109A5000B9FA237D012B08D05846414608F04AFB4D
:109A60004046211C1022FEF749FC2748414608F0D9
:109A700041FBAD23214AD35C002B27D00024171CC7
:109A8000E5002D19AD007D198D35FF352B78B342DA
:109A900015D1621C6B8869780091297901916979E7
:109AA00002914046194908F08DFA291C0831AA791B
:109AB0004046FFF70DFD1448414608F01BFB0134FA
:109AC000E4B2AD230D4AD35CA342D9D80136F6B235
:109AD000AC230A4AD35CB342B1D805E00C4804E099
:109AE0000C4802E0002000E0002005B03CBC90469D
:109AF0009946A246AB46F0BD803A0020243B0020A8
:109B0000044A0200184A0200004A0200244A0200E5
:109B10006280000063800000F0B5474680B4011CFD
:109B20001D4808F0E7FA1D4B1D4AD058410CC003F0
:109B3000184B174A07F0B2FD061C194A9046174FFA
:109B4000144D134C02F026FE00280CD04246D35987
:109B5000590CD803221C2B1C07F0A0FD801B2C23C2
:109B6000FF339842EED90D4B0D4AD058410CC0033B
:109B7000084B074A07F092FD861B312E03D832208E
:109B8000801B07F083FC04BC9046F0BDC046C04675
:109B9000E880000000000000FC4402000405000012
:109BA00000100140C046C046F0B5474680B494B0AE
:109BB00080460F1C151C80235B055A6E1B6E0FAC74
:109BC000201C264908F01AFE02F0F0FF021C0AAE23
:109BD000301C234908F012FE00230293214B03930B
:109BE00004960594204B06930793204B089302F0AC
:109BF000F7FF0990002F02D0022F0ED026E003AC11
:109C00000AAF1B4E01CC291C08F074FA301C291C29
:109C100008F070FABC42F5D11AE04046154901AA95
:109C200008F00EFE002803D0019B5A1E062A01D917
:109C300011480EE09B0002AA9858291C08F05AFA15
:109C40000B48291C08F056FA002002E00A4800E000
:109C5000002014B004BC9046F0BDC046A84A0200E3
:109C6000B44A0200C04A0200CC4A0200D44A0200B0
:109C7000004A0200F04802006280000038B5051C6E
:109C8000141C012902D902290CD01FE0124B187AAA
:109C90003030111C08F0CEF91048211C08F02AFAC7
:109CA000002018E008F07EFE012811D12B78303B0F
:109CB000DBB2012B0ED8084A127A00209A420AD051
:109CC000054A137202F074FD002004E0044802E02B
:109CD000034800E0024838BD243B0020004A02004F
:109CE0006280000008B500290AD1101CFFF714FF9C
:109CF000BFF34F8F034A044BDA60BFF34F8FFEE789
:109D0000024808BD0400FA0500ED00E06280000092
:109D100010B5141C00290ED102F0C8FD01F0AEF9F7
:109D2000201CFFF7F9FEBFF34F8F044A044BDA60A3
:109D3000BFF34F8FFEE7034810BDC0460400FA058D
:109D400000ED00E06280000008B5002906D1101C7B
:109D5000FFF7E2FE01F01EFA002000E0004808BD17
:109D60006280000010B5002923D1134B1B689A4272
:109D70000CD101F045FB104B1C6801F03BFB021CB1
:109D8000201C0E4908F01EF9002013E000F084FCAE
:109D90000123181AC0B200F085FC094B1B689C68AF
:109DA00000F07AFC021C201C044908F00BF900208A
:109DB00000E0044810BDC046803A0020144502006F
:109DC000C82900206280000010B582B0141C02294E
:109DD00018D1114901AA08F033FD002814D00199C7
:109DE000072913D8022913D0C9B20220002201F09A
:109DF0002BFF01F063FF021C201C084908F0E2F869
:109E0000002006E0064804E0054802E0044800E0BF
:109E1000034802B010BDC046F0480200E04A02000C
:109E20006280000010B5141C00290AD101F034FF33
:109E300001F058FF021C201C034908F0C3F8002061
:109E400000E0024810BDC046E04A02006280000007
:109E500039DF70473ADF704752DF704710B582B084
:109E6000141C012918D801A8FFF7F6FF002811D10A
:109E7000019BD917890FCB189A10032003405B1A56
:109E80009900CB1899005B18201C054908F09AF836
:109E9000002002E080B200E0024802B010BDC046DF
:109EA000E84A02006280000010B582B0141C02294A
:109EB0002AD101235B420193174901AA08F0C0FC93
:109EC000002823D0019B1F2B22D8C133FF339B00D6
:109ED00080218902A022D20599501048211C08F047
:109EE00009F9322007F0D2FA0020002100F0E0FB4F
:109EF0000120002100F0DCFB0121A023DB008022F7
:109F0000D205D150002004E0054802E0044800E0FA
:109F1000034802B010BDC046F0480200FC440200F5
:109F200062800000F0B5474680B486B090460029B4
:109F300002D0022904D056E004226B46DA750BE009
:109F400069461731FEF728F900284ED06B461733C3
:109F50001B78013B0F2B4AD800256C4603340027A1
:109F60006E4617362770201CFFF772FF83B2002B56
:109F700019D12378002B12D03178491B0A1CC9B2A1
:109F8000994200D91A1CD1B2227001AB5819FFF7BF
:109F900061FF80B200282BD12378ED18EDB2337821
:109FA000AB42DFD801E0181C22E01348414608F01C
:109FB000A1F86B4617331B78002B0ED000240F4EF0
:109FC0006D46173501AB1A5D4046311C07F0FAFFAC
:109FD0000134E4B22B78A342F4D80948414608F092
:109FE00089F8002004E0074802E0064800E0054840
:109FF00006B004BC9046F0BDD8490200E04402001F
:10A00000004A02006280000000B583B0002902D03F
:10A01000022909D027E0154B5B7A101C14491A1C41
:10A0200007F0D0FF00201FE069460731FEF7B4F8C3
:10A03000002804D06B4607331B78012B01D90D484B
:10A0400012E00A4A527A9A420BD0002B03D1002028
:10A05000002100F02DFB6B46DA79044B5A7202F0B6
:10A06000A7FB002000E0034803B000BD243B002014
:10A07000144502006280000010B582B0002902D0B1
:10A08000022909D034E01C4B9B7A101C1B491A1C76
:10A0900007F098FF00202CE069460731FEF77CF8B6
:10A0A000002804D06B4607331B78012B01D91448D4
:10A0B0001FE0114A927A9A4218D0002B03D1012056
:10A0C000002100F0F5FA6C46E2790B4B9A7202F02F
:10A0D0006FFBE379012B09D100F088FF094BC11810
:10A0E0004B1E9941C9B2012000F0E2FA002000E0C5
:10A0F000034802B010BDC046243B002014450200B6
:10A10000628000000100FFFFF0B54F464646C0B434
:10A1100083B0161C002902D0022924D038E0032481
:10A120000125224B98460027214B9946E0B201F0C9
:10A1300021FD00280BD0002D03D14846311C07F02B
:10A14000D9FF301C4146221C07F03CFF3D1C013466
:10A15000782CEBD10020002D22D11648311C07F0BD
:10A16000C9FF00201CE000230193134901AA08F055
:10A1700067FB002803D00198C31E742B0AD90F482F
:10A180000EE0301C0E49019A07F01CFF002007E08A
:10A190000A4805E0C0B201F0EDFC0028F6D0F0E777
:10A1A00003B00CBC90469946F0BDC046F44A02008C
:10A1B000F4440200004A0200FC4A020062800000EF
:10A1C000004B0200011C00201F2919D80D4B1878E4
:10A1D000002810D00C4B1B788B420ED00B4B013853
:10A1E000C0B2181803E01A7801338A4207D08342BC
:10A1F000F9D1012004E0012002E0002000E000206D
:10A200007047C046504C0200444C0200454C0200CE
:10A2100030B583B0141C022941D1264901AA6B46EE
:10A2200008F00EFB012805D002283AD1009D012D2F
:10A2300039D812E0A223DB00A022D205D358019A1C
:10A24000D340012018403030211C07F0F3FE1A489B
:10A25000211C07F04FFF00202AE0184BA022D20556
:10A26000D358019CE340DA071FD5201CFFF7AAFF53
:10A2700000281CD0002D08D10123A3401C1C104B2A
:10A28000A022D205D450002012E00123A3401C1CC0
:10A29000A123DB00A022D205D450002008E0094809
:10A2A00006E0084804E0074802E0064800E00548E8
:10A2B00003B030BD7C490200004A020014050000D2
:10A2C0000C0500006280000030B583B0141C022928
:10A2D00064D1384901AA6B4608F0B2FA012805D0CA
:10A2E00002285DD1009D032D5CD823E0324BA022D3
:10A2F000D205D258019BDA400120D1070FD49B0030
:10A30000A022D2059B18E022D2009A5803205107C0
:10A3100005D4E022D20098580007C00F40000090FA
:10A320003030211C07F086FE2448211C07F0E2FE95
:10A3300000203CE0019C201CFFF744FF002833D0A4
:10A34000012D08D002DC002D0ED02FE0022D13D0FD
:10A35000032D1AD02AE0C134FF34A4000322A02325
:10A36000DB05E250002022E0C134FF34A4000020CD
:10A37000A023DB05E0501AE0C134FF34A4000C2216
:10A38000A023DB05E250002011E0C134FF34A4001B
:10A390000422A023DB05E250002008E0084806E084
:10A3A000074804E0064802E0054800E0002003B04A
:10A3B00030BDC0467C49020014050000004A02007E
:10A3C0006280000010B586B0022925D1174905AA80
:10A3D00004AB08F035FA022820D1059C201CFFF7B9
:10A3E000F1FE00281CD0049A642A1BD8684600217C
:10A3F0000E2208F023F801236A461370547013717B
:10A40000022353719372684601F08CFC002004997A
:10A4100001F078FD002006E0054804E0044802E071
:10A42000034800E0024806B010BDC0467C49020067
:10A430006280000074DF704776DF7047F0B54746F2
:10A4400080B4071C00240D4EA3B29846A3009D596A
:10A45000281C08F0A7FA021C281C391C07F0D6FF9C
:10A46000002803D00134052CEED101E0404600E085
:10A47000034800B204BC9046F0BDC0460C4B02003D
:10A48000FFFF0000F8B5061C0F1C084D0024301C0F
:10A49000296808F0DDFA002801D03C7005E001349D
:10A4A000E4B204350E2CF2D10020F8BD0C4C0200B1
:10A4B000F0B55F464E464546E0B490B0041C151C0E
:10A4C000022900D0AEE009AB00220B920C920D9253
:10A4D0000E920F9203211970597058495980062025
:10A4E000187116205871D9805549C97A5972089245
:10A4F00002A902924A608A60CA604A6101230B7312
:10A5000008AB0B61201C0222FDF7AEFE814601382C
:10A51000C0B2012800D987E0201CFFF78FFF002878
:10A5200005DA4848291C07F0E5FD47487FE009ABFC
:10A5300098728000454BC05808F034FA24182378EC
:10A54000002B3FD0002742498B46201C694607312B
:10A55000FFF798FF061E03D0031BDBB2984604E00A
:10A56000201C08F01FFAC0B28046F31959424B4133
:10A570001033434505DA3748291C07F0BBFD092095
:10A5800055E009ABDA19101C0B30211C424607F0CC
:10A590004CFF44444146CB19DBB2002E0DD05A1C6F
:10A5A000D7B26946CA7909A9CB18DA7292005B461C
:10A5B000D05808F0F7F9241800E01F1C2378002B6E
:10A5C000C3D100E0002709A90B79FB180B713A1CD5
:10A5D0000B32D2B21A4CA323E254201C843007F071
:10A5E00024FF02224923E2544946022905D1089B4F
:10A5F000012B1BD84A2212498B5402F0D9F8FFF7DD
:10A6000019FF00F0F3FC144B984206D000F0EEFC6A
:10A610001321FFF711FF002009E0002000F078FA75
:10A62000002004E0084802E0074800E0064810B0B7
:10A630001CBC90469946A346F0BDC046D8FEFFFF1D
:10A64000243B0020204B0200628000000C4B0200E3
:10A650000C4C02004C4B0200FFFF000048DF70472B
:10A660007047C046830702D50122044B1A708B073E
:10A6700002D50022014B1A707047C0467E2A002086
:10A68000014B18887047C0467C2A0020014B18886F
:10A690007047C046F82F0020014B18787047C0461D
:10A6A0007E2A0020014B18707047C0467E2A002089
:10A6B000002805D1104B5B7A002B1BD0122307E03A
:10A6C0001323012804D10C4B9B7A002B12D01323A7
:10A6D000002908D001229A40131CA122D200A021F7
:10A6E000C9058B5006E001229A40131C034AA021A1
:10A6F000C9058B507047C046243B00200C05000064
:10A7000030B58DB0A823DB005C4AD15800235C4AE9
:10A71000914204D8A823DB00584AD3589BB2594A27
:10A720001380A823DB00584AD1580023544A914291
:10A7300004D8A823DB00544AD3589BB2534A138051
:10A7400000230093202008210622514B03F036F805
:10A75000002803D00021002200F098FB02204D4980
:10A7600002F0D0FB002803D00021002200F08EFB75
:10A7700009A80B23037009234370082383700A235D
:10A78000C3700123037100224271434B83606B4607
:10A79000DA810E33414A04928022520005924049E8
:10A7A00006910792009304A93E4A012303F088FA18
:10A7B00080B2002860D13C4B1B689868002107F0EC
:10A7C0008DFF092039494822002303F047FC002867
:10A7D00003D00021002200F059FB354803F06EFC45
:10A7E00080B2002848D105F06DFA80B2002843D12C
:10A7F00002F0A0F800283FD1A023DB050C21E822BD
:10A80000D2009950A222D2009B58DA030BD42948D7
:10A8100006F03CFEA223DB00A022D205D358DA03C7
:10A8200001D402F043F8A024E4050C25224BE550A6
:10A8300001F0C8F9214BE55068462330022102227D
:10A840001F4B02F09DFB80B2002815D16B462333CD
:10A85000187802F0C1FBA222D200A1588907C90FC3
:10A86000184A11700322E921C9006250164962504A
:10A8700001200021FFF71CFF0DB030BD009000400B
:10A88000FEFF00007C2A002000A00040F82F0020DE
:10A89000802C0020D02F002000502700802A00208C
:10A8A000802B002061A60100C8290020FC2F002079
:10A8B00031FB0100DC0500001C070000040700005C
:10A8C00065A601007E2A00204C070000431E984127
:10A8D0001230044BA022D205D358C340181C0123C8
:10A8E0001840704704050000031C0020002B08D10D
:10A8F000A223DB00A022D205D058C0090123584072
:10A900001840704708B5FFF7A9FE08BD0000000019
:10A91000F8B54F464646C0B4071C254D254C28596E
:10A92000410CC003214B204A06F0B8FE061C2859F2
:10A93000410CC0031D4B1C4A06F0B0FE801BF423E3
:10A94000FF33984216D8A946A046184D164C381C1D
:10A9500003F0F6FA00280DD04A4642441368590C19
:10A96000D803221C2B1C06F099FE801BF423FF3316
:10A970009842ECD90F4B0E4AD058410CC0030B4BF8
:10A98000094A06F08BFE861B381CF423FF339E42D7
:10A9900003D903F0E1FA012040420CBC90469946ED
:10A9A000F8BDC046C046C046E88000000000000078
:10A9B000001001400405000000B583B06846073070
:10A9C00003F0B6FA002802D16B46D87901E00120E5
:10A9D000404203B000BDC04600B583B069460731B0
:10A9E00003F0CAFA002802D16B46D87901E00120B1
:10A9F000404203B000BDC04672DF704773DF70474E
:10AA000074DF7047A0DF704760DF704768DF704712
:10AA100008B505F08DF808BD08B50A4BDB79002BA9
:10AA200004D0084B1B69002B00D09847054BDB7EF8
:10AA3000002B04D0034B5B6A002B00D0984700200A
:10AA400008BDC0460029002030B58FB068463730B9
:10AA5000164BDA7A02701A7D0CA9154B9400A518D2
:10AA6000AD005D19AD880D80A418A4001B199B7959
:10AA70008B70002300930293039304930693079330
:10AA8000089309930A930B9306236C46E370019095
:10AA9000012323820591002A00D0A370684600217B
:10AAA00003F030FD80B20FB030BDC046243B002023
:10AAB0000029002030B597B010AC02232370152375
:10AAC0006370124D291C6C3168464230152207F024
:10AAD000ACFC0DAA8223EB5A1380172393800F94AA
:10AAE00001A80023019343608360C3600361436155
:10AAF0008361C36103628362C3620423C3704262E1
:10AB0000002103F0FFFC80B217B030BD243B0020D1
:10AB100070B592B0061C0CAC00230C930D930E93F1
:10AB20000F931193314DA88FC000052106F054FDFD
:10AB30002082EB8F6382002E04D00CAB2C4A1A8249
:10AB400000225A824923294AD35C012B0AD0002BC8
:10AB500002D0022B11D045E0FFF776FF031C002B3B
:10AB600014D040E00CABA0221A8200225A82FFF7D8
:10AB7000A1FF031C002B09D035E01E48C17F002235
:10AB80000023FFF739FF83B2181E2CD10023009356
:10AB900001930293039304930593069307930893F9
:10ABA00009930A930B93144807F0FCFE00231D221F
:10ABB00082425B4101336A4613700F4807F0F2FE90
:10ABC00000231D2800D91D236A46537000206946C2
:10ABD00003F098FC83B2181E05D10CA8FFF70EFFF6
:10ABE00080B200E0072012B070BDC046243B0020B8
:10ABF0006A030000A83B0020703B0020F0B55F46D0
:10AC000056464D464446F0B48BB008A86B4B021C28
:10AC100012CB12C2FFF7F8FE83B2181E00D0C5E0B7
:10AC2000674803F041FA83B2181E00D0BEE06548C1
:10AC300003F044FA83B2181E00D0B7E080235B050E
:10AC40005B6B022B11D101AC201C0021082207F004
:10AC5000F5FB22780123134323700120211CFFF709
:10AC6000D5FE80B2002800D0A0E000F037F900F057
:10AC700049FA00F0E9FC544B544A127DDA761C1C68
:10AC80001E1C28360127251CE279002A11D02068D5
:10AC9000002801D1A77105E000F026FCA071012871
:10ACA00000D882E0AB68002B03D0A8799847002831
:10ACB0007CD11434B442E6D1AC23444AD35C002B9B
:10ACC00069D0002692469346904616237343534418
:10ACD000B03399461B7D012B06D0484600F004FC9A
:10ACE0004C462075012856D949460B8A6A4613807E
:10ACF0000B7D9370012069464A461232FFF782FEAF
:10AD000080B2002847D1AD235C46E35C002B3BD0EA
:10AD1000002401AD2D4FE1000919890041448D3116
:10AD2000FF310B78B34229D100232B606B60AB60FD
:10AD3000EB602B616B61AB614A46538A2B804B8879
:10AD40006B80137D2B714B78AB710B1C0833AB60A0
:10AD50000B79AB814B79EB818B792B822B7E0F2288
:10AD60009343012213430F221340102213432B76E7
:10AD70001C31281C00F0D6FB00280CD10134E4B2B1
:10AD8000AD23FB5CA342C6D80136F6B2AC230F4A12
:10AD9000D35CB34299D848230C4AD35C0020002BE3
:10ADA00004D0FFF7B5FE002000E007200BB03CBC4C
:10ADB00090469946A246AB46F0BDC046544C0200B0
:10ADC000D1AD010011AA010000290020243B002080
:10ADD00010B586B0041C00F015F9201C04F0E6FC48
:10ADE000201C00F0ABF92388112B1FD0192B27D082
:10ADF000102B35D101200121FFF75AFC4A23204AAC
:10AE0000D35C002B2CD00023009301930293039377
:10AE10000493059303236A461370A02313826846A4
:10AE2000FFF7ECFD80B200281AD027E001200021B6
:10AE3000FFF73EFCFFF7E4FD0020FFF769FE0FE09F
:10AE4000A379002B0CD1FFF7DBFD0120FFF760FE9B
:10AE500006E00C4B1B6A002B10D0201C98470DE01D
:10AE6000084BDB79002B05D0064BDB68002B01D0AB
:10AE7000201C9847034BDB7E002BEAD106B010BDA7
:10AE8000243B00200029002001207047BFF34F8F92
:10AE9000024A034BDA60BFF34F8FFEE70400FA0566
:10AEA00000ED00E077DF704778DF70477ADF7047AA
:10AEB0007CDF704784DF7047A7DF704708B5021C4E
:10AEC0000B78112B04D10348111C042207F0ADFAB2
:10AED000002008BD483000207047C04630B58BB018
:10AEE000FFF7D2FF40080124204001AB187003ABEC
:10AEF00000220592374A039201221A710D225A71DB
:10AF000007229A711022DA71FFF7BEFF044209D0BE
:10AF100001A803F01BFE80B2002803D12E4803A92C
:10AF200003F0B0FE2D4B0B201856FFF7BBFF83B28A
:10AF3000181E4DD1FFF7A8FF031C0020D90747D5E5
:10AF40006A4613780F229343012213430F221340C2
:10AF5000102213436C462370214C201C07F022FD65
:10AF600082B26846211CFFF7A3FF83B2181E2FD1BF
:10AF70001A4B1B7D0020002B00D01A48FFF794FFCE
:10AF800083B2181E24D101AC144D288F80000521F6
:10AF900006F0D4FA2080688F8000052106F0CEFAF2
:10AFA00060800023A380C8235B00E380201CFFF7A0
:10AFB0007DFF83B2181E0BD103A80B4A031C32CAB3
:10AFC00032C332CA32C312681A6004F0A9FB80B2DD
:10AFD0000BB030BDBDAE010045300020243B002049
:10AFE000703B0020C1030000704C0200014B188828
:10AFF0007047C04628290020014B00201856704792
:10B000004430002010B5041CFFF73EFFC30702D5F3
:10B01000201C03F0CBFF2388182B21D004D8102B41
:10B0200007D0112B13D021E01A2B15D0522B17D09B
:10B030001CE0A2880E4B1A80FFF726FFC30715D528
:10B040000B4B188801210022FFF734FF0EE001228C
:10B050005242074B1A8009E0A279064B1A7005E0AC
:10B06000034B18880C21044AFFF726FF10BDC04689
:10B070002829002044300020FFFF000008B5FFF71A
:10B0800003FFC30704D5034803F040FE80B200E08D
:10B09000014808BD453000206380000008B5011C50
:10B0A000054B1A880820054B9A4203D0044803F048
:10B0B0008BFE80B208BDC04628290020FFFF00009B
:10B0C0004830002044DF704711DF704713DF7047BE
:10B0D00074DF704776DF704708B5FFF787FF084BCE
:10B0E000984204D0FFF782FF1321FFF7F3FFFFF729
:10B0F000EFFF01200021FFF7DBFA04F04FFB08BD52
:10B10000FFFF000010B584B0FFF7BAFA01A908806C
:10B11000074B4B6000238B60064805F0E3F884B2D0
:10B12000002C02D1044805F0CBF8201C04B010BD5F
:10B13000510102004C300020D9B0010008B5011CBB
:10B14000014805F047FA08BD4C300020064C064D7A
:10B15000061C064FF0B40024002500260027F0B49A
:10B160000348004770470000FFFFFFFF0000002179
:10B17000F9FFFFFF016881F3088840680022EFF3C0
:10B1800005839A42E2D1024CA64600477047000070
:10B19000FFFFFFFF10B5FFF79FFFB120FFF792FF02
:10B1A00083B2181E19D1FFF78FFF83B2181E14D176
:10B1B0000A4B5869FFF78AFF84B2201E0DD1084B55
:10B1C0008021C903C02252009950196880229950E9
:10B1D000024B5869FFF7CEFF201C10BD0010001075
:10B1E00000E100E0A0DF7047A6DF704730B589B00E
:10B1F000051C2E4C201C0021282207F01FF9A570E9
:10B2000007A901230B808D700120221CFFF7EAFFA4
:10B2100083B2181E48D101930493069323490B88E7
:10B220006A46138007AB9B78137101239381142323
:10B23000D3812123137603235380102393710B1C96
:10B24000143302931A4B05930431684600F06AF9EF
:10B25000031C002B28D102236A46538008239371D4
:10B2600000230293134B0593684610490C3100F0FC
:10B2700059F9031C002B17D10F48104906F096FE10
:10B28000031C0F4A10600520002B0DD0181C002154
:10B2900007F024FA0B4801F005F80B4801F002F81A
:10B2A00000220A4B1A70002009B030BD8030002007
:10B2B0008C4C0200904C0200944C02009C4C02000A
:10B2C000803A002034290020442900207C300020CE
:10B2D00000B583B006486946073100F003FF002837
:10B2E00002D06B46D87901E00120404203B000BD96
:10B2F0004429002000B583B0011C07486A46073284
:10B3000000F04EFF002802D06B46D87901E0012002
:10B31000404203B000BDC04644290020014B1889BB
:10B3200080B2704744290020F0B583B06B46D871D5
:10B330001D4B1E4AD058410CC0031A4B184A06F048
:10B34000ADF9061C1A4F174D154C381C69460731CC
:10B3500000F052FF00280CD1134B144AD358590C5B
:10B36000D803221C2B1C06F099F9801B114B984224
:10B37000EBD90D4B0D4AD058410CC003094B084A7C
:10B3800006F08CF9861B0B4B9E4202D86B46D8798F
:10B3900001E00120404203B0F0BDC046C046C046B7
:10B3A000E8800000000000000405000000100140DB
:10B3B00034290020B70B000070B50388502B14D13E
:10B3C000C2880A4B9B899A420FD1C38B002B0CD0A9
:10B3D0000024074E851D29191A31301C00F00CFF7E
:10B3E0000134A4B22B8BA342F5D870BD803000206D
:10B3F00044290020014B18787047C0467C3000205B
:10B4000008B5064B1A7801218A1A1A70044800F010
:10B4100049FF044800F046FF08BDC0467C300020CC
:10B42000342900204429002010B586B0FFF7DEFD46
:10B43000254B984204D1254800F034FF00203AE023
:10B44000234B244AD058410CC0031E4B1C4A06F023
:10B4500025F9214B1968421A5B6800209A422AD3C9
:10B460001B4B1C4AD058410CC003164B144A06F023
:10B4700015F9194B1860154818491431142200F0B9
:10B4800075FE031C6A46D0800020002B13D002AC4E
:10B49000002302930393114B9A8822800122A27009
:10B4A0006A460632049214330593FFF79FFD211C70
:10B4B000FFF79AFE80B206B010BDC046C046C04637
:10B4C000E880000000000000FFFF00003429002099
:10B4D00004050000001001402C29002080300020CD
:10B4E000A2DF704763DF704710B586B000226B465D
:10B4F000DA7100235942C218D47B02AA8C54013B52
:10B500001A1C1032F6D102A869460731FFF7EAFF8C
:10B510000023002802D16B4607331B78181C06B0A5
:10B5200010BDC04670B590B0041C0D1C037E002BEE
:10B5300008D10F229343012213430F2213401022FC
:10B54000134303763E4B5B7B002B09D1237E0F22F6
:10B550009343012213430F221340102213432376F7
:10B56000A37930221A4217D00FAE301C00210322DB
:10B5700006F064FFB3780622934302221343B370AC
:10B5800033780F229343012213430F2213401022DA
:10B5900013433370237E737008AA0020089009902B
:10B5A0000A900B900C900E90A3791370002230211A
:10B5B000194200D00FAA0D9207AA0023138011236D
:10B5C000137004239370606900280BD00378002B5C
:10B5D00008D008AE099007F0E5F980B2308170819B
:10B5E00007AB336106AA00231380E389A189C91A36
:10B5F000481E8141042001439170A27932211142F9
:10B6000002D0217E06AA1170A279110702D5217EEF
:10B6100006AA517001AA00219160D160A11C01917C
:10B6200006A95160218A11819381A3681361208842
:10B6300008A92B1CFFF754FF80B210B070BDC046A4
:10B64000243B0020A0DF704710B596B014A84449F1
:10B65000042206F0EAFE012014A96A465632FFF7DA
:10B66000F1FF83B2181E78D10DAC0E931093119395
:10B67000129313936B4656331B8823800123237147
:10B680000223A37111232376364B638036480F9033
:10B6900007F088F980B2E081A081201C0BA9FFF798
:10B6A00041FF031C002B58D10DAC304B6380304858
:10B6B0000F9007F077F980B2E081A081201C09A9E2
:10B6C000FFF730FF031C002B47D180235B055A6E28
:10B6D0001B6E284C201C284907F090F80DA8274A1B
:10B6E000428084601022C281828107A9FFF71AFF7D
:10B6F000031C002B31D10DAC214B638021480F90EE
:10B7000007F050F980B2E081A081201C05A9FFF765
:10B7100009FF031C002B20D10DAC1B4B638001F0F3
:10B720005FFAA06007F03EF980B2E081A081201CA2
:10B7300003A9FFF7F7FE031C002B0ED10DAC134B32
:10B74000638001F033FAA06007F02CF980B2E08149
:10B75000A081201C01A9FFF7E5FE16B010BDC04670
:10B76000A04C0200292A0000A44C0200242A000058
:10B77000CC4C0200A8300020A84A0200252A000074
:10B78000282A0000B84C0200262A0000272A0000C0
:10B790007047C046F0B557464E464546E0B496B0B1
:10B7A00002AF381C0021082206F048FE684600213E
:10B7B000082206F043FE08233B8000218A46B97028
:10B7C000012301218846FB703A790F26B243414696
:10B7D0000A430F252A402021894649460A433A71E7
:10B7E0007A79B24341460A432A4049460A437A716C
:10B7F000BA79B24341460A432A4049460A43BA71DC
:10B800006A461380534693700223D3705379B3432F
:10B8100041460B432B404A46134369464B718B7993
:10B82000B343424613432B4049460B436A46937148
:10B8300004AC201C0021482206F000FE474B049374
:10B840005346636001232372514661724246A272DD
:10B85000E760227400AB636121765146E1614C23BD
:10B86000A3843F4B23620223FF3323863223E15418
:10B8700003223323E2543623E154A1632C23E25CF8
:10B88000B24341460A432A4049460A43E2542D2323
:10B89000E25CB2432A40E2543423E25CB2434146C4
:10B8A0000A432A4049460A43E2543523E25CB24344
:10B8B0002A40E2544323E25CB24341460A432A4011
:10B8C00049460A43E2544423E25CB24341460A43F8
:10B8D0002A4049460A43E2544523E25CB2432A40E7
:10B8E000E2544623E25CB24341460A432A404946B9
:10B8F0000A43E2544723E25CB24341460A432A40EA
:10B9000049460A43E2543C23E25CB24341460A43BF
:10B910002A4049460A43E2543D23E25CB243414691
:10B920000A432A4049460A43E2543E23E25CB243BA
:10B930002A40E2543F23E25CB24341460A431540A9
:10B940004A461543E5540748211C05F019FA80B210
:10B9500016B01CBC90469946A246F0BD91B70100B6
:10B96000D84C0200B830002008B5011C014805F091
:10B9700003F908BDB8300020F0B583B0041C0D1CDD
:10B98000FFF734FB0823224A904237D06846002153
:10B99000082206F053FD6A46157063B2002B02DBE5
:10B9A0001C4B1B5D00E000236A4693701A4B1B4A38
:10B9B000D058410CC003154B134A05F06FFE071C0D
:10B9C000174E124D104C02E0192005F05FFD301C9F
:10B9D000002108226B4605F01BFD83B2114A9342F9
:10B9E0000CD10D4B0D4AD358590CD803221C2B1CDB
:10B9F00005F054FEC01BC728E6D90A4B181C03B03B
:10BA0000F0BDC046C046C046E8800000000000000F
:10BA1000FFFF0000244D020004050000001001405B
:10BA2000B83000200430000010B5041CFFF7DEFA27
:10BA300008220549884205D004480021231C05F04E
:10BA4000E7FC82B2101C10BDFFFF0000B8300020E0
:10BA500022DF704723DF7047F0B54F464646C0B43B
:10BA6000404AA023DB00D05884460021D150A023B7
:10BA7000DB05E622D200995889463B4999503B4A5A
:10BA8000985880469950A122D2008021890199506E
:10BA900080214901995004200138C046C046C04663
:10BAA000C046C046C046C046C046C046C046C04666
:10BAB000C046F1D1A223DB00A022D205D3589904BD
:10BAC00007D5A223DB00A022D205D3580120DA0437
:10BAD00035D41222A023DB05254F80214901A12660
:10BAE000F600A225ED008024A401D95104200138DC
:10BAF000C046C046C046C046C046C046C046C04616
:10BB0000C046C046C046C046F1D199510420013814
:10BB1000C046C046C046C046C046C046C046C046F5
:10BB2000C046C046C046C046F1D15859204203D154
:10BB3000013A002AD9D101E0012000E00020A02331
:10BB4000DB05E622D20049469950084A4146995001
:10BB5000A023DB00034A6146D1500CBC90469946B5
:10BB6000F0BDC046003000400D0600003407000064
:10BB70000C05000010B5114BB122D20098500122E3
:10BB80009A6000208221490058505A61191C822273
:10BB900052008B58002BFCD0084B00228221490018
:10BBA0005A500749585802245C50922149005A5073
:10BBB000400801235840184010BDC04600300040E6
:10BBC000C404000008B5A023DB05184AE621C9001B
:10BBD0005A5017495A50174B0022842149005A5095
:10BBE0008E2149005A500C21A122D20099500D21DA
:10BBF000114A9950CC214904104A9950002010490B
:10BC0000104AFFF727FF002300280DD10120FFF77E
:10BC10001FFF0023002807D10521A023DB00054AD0
:10BC2000D150FFF719FF031C181C08BD0C060000BB
:10BC300034070000003000400C050000240500001F
:10BC4000383100401C30004030B507291CD8012491
:10BC5000231C8B4019020823184308430B4B0C4D3F
:10BC60005851A021C9005C50002A0DD0C122920079
:10BC700001219950074B98580002000A8021C905FC
:10BC80000143995080221A6030BDC04600700040C8
:10BC90000405000000E100E0054B1A21054A995017
:10BCA000802205498A500121A022D2009950704774
:10BCB000007000400405000000E100E00122084B94
:10BCC0001A60191C802252008B58002BFCD0044BA8
:10BCD0000021802252009950A122D200985870472A
:10BCE0000070004008B5FFF7E9FFE1231B0158434E
:10BCF000800A08BD2EDF704733DF704721DF7047B1
:10BD000023DF704710B5041E0F2C08D8C0B2FFF710
:10BD1000F7FF0120A040FFF7F1FF201C01E0012008
:10BD2000404210BDF8B55F4656464D464446F0B415
:10BD30000378013B022B00D9A0E0437B042B00D900
:10BD40009FE09B00634AD3589F460921A223DB0052
:10BD5000614AD1506422614B1A6023E00821A2237A
:10BD6000DB005D4AD150FF225C4B1A601AE00521CE
:10BD7000A223DB00584AD150FA229200574B1A6096
:10BD800010E00221A223DB00534AD1506422534B1E
:10BD90001A6007E00021A223DB004F4AD150FF22A6
:10BDA0004E4B1A6006784E4B1E60002E6CD0021C63
:10BDB00000234C498A46A021C90589460324A04690
:10BDC000494DAC469B465478990055464C51C13478
:10BDD000FF34A40045464F46E5515C466746CC51CA
:10BDE000917A424D5955013301329E42EBD83A4B7C
:10BDF0000122DA600022A121C9005A5037490C689B
:10BE000064003B495C503B495A500824802189001A
:10BE10005C50A62149005A50A42149005A50A22141
:10BE200049005A50A02149005A50051C0023002403
:10BE30002E4FB946304988464A46A75CBF002F4975
:10BE40007F1828799B002E4A99183A1CFFF75AFF51
:10BE5000687941463A1CFFF755FF0134231C02352F
:10BE6000A642E9D80A200321FFF746FF0A20FFF780
:10BE700041FF0122184B1A60002024E001204042BB
:10BE800021E0012040421EE0134B0122DA60002233
:10BE9000A121C9005A50114908684000144958505E
:10BEA00014495A500820802189005850A621490081
:10BEB0005A50A42149005A50A22149005A50A021A9
:10BEC00049005A50CEE73CBC90469946A246AB4644
:10BED000F8BDC046A44D020000A000406032002022
:10BEE0003832002048320020543200203432002002
:10BEF0004C050000040500004CA10040006000401B
:10BF000040A1004080000E4BC1500E4B0021A622E4
:10BF1000520099500C49802292009950C1229200FF
:10BF20009B581A0307D4074B01225A60802109034A
:10BF3000C122920099500122024B1A607047C046FC
:10BF40003C32002000A0004008080000F0B5454A3F
:10BF50000023A6214900535001204042C2218900FC
:10BF60005050414A1360414B1B68002B72D0002394
:10BF70003F4D404E141C9A005259002A15D13E4A9A
:10BF8000D75C4537FF37BF003C493D4AB9509B005D
:10BF90003C4A9A580127391C91403B4AA027FF058B
:10BFA000B9500027394A9F504CE03068824216D37E
:10BFB0003149CF5C4537FF37BF003049304AB9506F
:10BFC0009B00304A9A580127391C9140A122D20087
:10BFD000A027FF05B95000272C4A9F5032E051009E
:10BFE000A82040001A1892001E4FD1519A002749EC
:10BFF0005258002A26D1204AD75C9B0021481A5863
:10C000000123181C9040A123DB00A021C905C850C2
:10C01000BB001B495B181E49A227FF00D951C0462F
:10C02000C046C04601271F6012021A4F3A43A2279A
:10C03000FF00DA51C046C046C04622689300012284
:10C0400012481A50084A136801331360074A1268ED
:10C050009A4290D8034B08218022920099500122E5
:10C060001A60F0BD00A000403032002038320020BD
:10C070003C3200206032002034320020001F0300D8
:10C0800000600040483200200C05000054320020BF
:10C09000031F01000300130010B5074C0123A12268
:10C0A000D200A350054AA350C003FA21890005F02D
:10C0B00045FA034BE05010BD000001400C050000A4
:10C0C000040500000122014B1A6070470000014086
:10C0D0000249C023DB00024AD15070473546526EF8
:10C0E0000000014010B5041C0068002837D0A38868
:10C0F0000020002B36D0E388002B33D023899BB25D
:10C10000002B2FD0A37B5AB2002A07DD1F22134039
:10C1100001229A40131C802213488350A389E2888D
:10C1200053432068C318081C191C06F07EF9A08927
:10C130000130A18805F0A6FA89B2A1812389013BCB
:10C140009BB22381A37B5AB2002A0ADD1F2213402F
:10C1500001229A40131C044A1360012002E00020CF
:10C1600000E0012010BDC04600E100E0F8B5061C6B
:10C170000C1C171C00200025002A06D10EE00135FA
:10C18000ADB2F388E418BD4207D0301C211CFFF784
:10C19000A9FF0028F3D1281C00E0281CF8BDC046E8
:10C1A000F0B5474680B4031C171C0468002C1FD050
:10C1B00085880020002D1CD0DA889046002A18D0EF
:10C1C0001E89B6B2002E14D01A8992B28A4210D9B2
:10C1D00098894018291C05F055FA0904090C4346B2
:10C1E00059436118381C424606F01FF9012000E04F
:10C1F000002004BC9046F0BD70B5041C0E1C036802
:10C20000002B46D083880020002B45D0E288002AEE
:10C2100042D0228992B2934202D1E07B00283BD0E7
:10C22000A37B5AB2002A07DD1F22134001229A4045
:10C23000131C802219498B506089E288504323687F
:10C240001818311C06F0F1F86089A5880130291C06
:10C2500005F018FA89B2618123899BB29D4207D10A
:10C2600031780F4806F0A2F963899BB2A38103E0FD
:10C27000238901339BB22381A37B5AB2002A0ADDB2
:10C280001F22134001229A40131C044A136001200C
:10C2900002E0002000E0012070BDC04600E100E0A7
:10C2A000B84D0200837B5AB2002A07DD1F221340DB
:10C2B00001229A40131C802208498B5000230381DD
:10C2C00043818381837B5AB2002A06DD1F221340FB
:10C2D00001229A40131C014A1360704700E100E0FC
:10C2E00010B5414B414AD058410CC0033D4B3C4A2C
:10C2F00005F0D4F93E4B1A68801A5B6898423AD32D
:10C300003C4B1A7801321A700020FEF7DFFA012345
:10C31000011C5940C9B20020FEF7CAF9FEF7BCF96A
:10C32000002806D1334B1B78032B02D90022314B56
:10C330001A70FEF7B1F9012807D12E4B1B78052B97
:10C3400003D900222B4B1A7003E02A4B1B78002BD9
:10C3500011D100200021FEF7ABF9254CFA23DB00B8
:10C360006360214B214AD058410CC0031D4B1C4A2D
:10C3700005F094F920601C4B1C4AD058410CC003B6
:10C38000184B174A05F08AF91B4B1A68801A5B682C
:10C39000984212D30120FEF799FA0123011C59405B
:10C3A000C9B20120FEF784F90020FEF79DFA0028AB
:10C3B00013D10122114B1A700FE00020FEF794FAFE
:10C3C00000280AD1084B094AD058410CC003054B3C
:10C3D000034A05F063F9084B186010BDC046C0461B
:10C3E000E88000000000000004050000001001408B
:10C3F000643200206D320020542900206C3200206D
:10C4000070B5FEF749F9002808D001284ED17B4BC2
:10C410001B6858689968FCF741F947E0774B1B683F
:10C420005868FCF785F8002840D1744B18684268BA
:10C430005368013B5360002B04DA416806F00CF9A5
:10C44000041C04E042681368591C11601C78611CCC
:10C450002CD0FEF7CBFD6A4B984227D0694B1A6867
:10C460009368013B9360002B19DA91698B4210DBD2
:10C4700013681C70634B1A68136819780A2902D074
:10C480000133136012E05D4B18680A2107F07AFB54
:10C490000CE05A4B1868211C07F074FB06E0136887
:10C4A0001C70584B1B681A6801321A60FEF7A2FF15
:10C4B00000280ED0012800D09DE0FEF797FD504BDC
:10C4C000984200D197E04F4B1968081CFCF7E6F83A
:10C4D00091E0FEF7E1F8002843D14A4B1868FCF7D9
:10C4E00027F8002800D086E0464B19684B68013BCE
:10C4F0004B60002B05DA414B186806F0ADF8011CC3
:10C5000003E00B685A1C0A6019784A1C73D03B4B35
:10C51000186882689368013B9360002B17DA826881
:10C5200093689469A3420FDB13681970334B186842
:10C530008268136819780A2902D0013313605AE01F
:10C540000A2107F01FFB56E007F01CFB53E083684D
:10C550001B681970294B1B689B681A6801321A60A6
:10C5600049E0FEF7DBFEC4B2032C44D9FF250540A9
:10C57000244B1868691E89B200F08EFA0D2801D08C
:10C580000A2838D1023DADB21E4B1868291C00F0B4
:10C5900083FA2B282AD0042C2DD90D2828D0032447
:10C5A0000A2826D027E02B1B99B2306800F074FAD5
:10C5B0002B2804D1013CE4B2002CF4D101E0002C82
:10C5C00019D1FEF71DFFFEF711FD0D4B984212D059
:10C5D0000C4C2568FEF70EFF021C281C0A4905F0CA
:10C5E000F1FC2168094805F085FD04E0022400E023
:10C5F0000324044ED7E7002070BDC046C8290020A0
:10C60000FFFF0000803A002014450200FC440200B5
:10C6100070B582B0FEF774F8FEF7F0FAFBF7C6FECD
:10C6200001A80121184A01F057F983B2002B02D06A
:10C630000004000C25E00198F821002201F084F9A3
:10C6400083B2181E1DD11148FFF726FDFFF73AFDF2
:10C650000F4D104E0124FFF73BFD2B78002B03D02C
:10C66000301C0021FBF7B0FEFEF7D6F9FEF70CFCFC
:10C67000FEF70AFC044201D0FFF7C2FEFEF742F9C2
:10C68000E9E702B070BDC046E1C20100102700001A
:10C690006C320020C84D02000A4B9B6802689A4227
:10C6A0000FD14268074BDB689A420AD1022908D1B0
:10C6B000054B1B78002B04D0034B1A78013AD2B2F9
:10C6C0001A707047703200208132002030B583B07C
:10C6D000294B1B78002B4DD0284C294B6360CD2370
:10C6E000DB006380274D201C291C002203F0FCFC8A
:10C6F0006051254B1B78DBB2012B03D900221E4B66
:10C700001A7037E00023019301A803F0D9FC142329
:10C71000019A9B1A032B2DD91C488021C90003F0D4
:10C7200097FC80B2002825D1184808308021C90024
:10C7300003F08EFC80B200281CD114480F498022DF
:10C74000D200002303F0AAFB80B2002812D10F48C8
:10C7500008300F499A229200002303F09FFB80B219
:10C76000002807D1084B1A780132D2B21A70002281
:10C77000014B1A7003B030BD80320020243B0020F2
:10C78000050600006406000081320020703200209F
:10C79000243F0020044B1B780120002B03D1034BC6
:10C7A0001878431E98417047803200208132002063
:10C7B00038B5094C094B6360CD23DB006380084D1D
:10C7C000201C291C002203F08FFC60510122054B24
:10C7D0001A70002038BDC046243B0020050600002A
:10C7E000640600008032002010B582B0294C201C65
:10C7F0000021CD22D20005F021FE201C26498022F6
:10C80000D200002303F0D2FB002300283ED12348AE
:10C81000214908319A22920003F0C8FB0023002826
:10C8200034D11C4B198800231D4A91422ED1194B3B
:10C830005A88CD23DB009A4218D8043A154C1119B6
:10C8400001A8042205F0F1FD61880439201C0022B2
:10C8500003F04AFC019B834201D0002316E00D4BFC
:10C860005A880123CD21C9008A420FD00D4B9A422C
:10C8700009D8131F074818180B49C918CD23DB0026
:10C880009A1A05F0D2FDFFF793FF0123181C02B09E
:10C8900010BDC046243B002070320020243F002001
:10C8A000AFAD000067060000084E020070B51D4CD9
:10C8B000CD25ED00201C00212A1C05F0BFFD1A4BE0
:10C8C00023806580194B6360012525726572A5720E
:10C8D0002573174E201C0E30311C062205F0A5FDD5
:10C8E0001423238764236387A3871E23E3874823B6
:10C8F000E554231C4C33311C083125C925C305C917
:10C9000005C30A881A8000236222A352623463801E
:10C91000A380E3802381FFF74BFF43425841C0B21D
:10C9200070BDC046243B0020AFADFFFF05060000F0
:10C93000D84D020010B586B000231E4A13701E4A5F
:10C94000137004A81D4B2833021C12CB12C202A97B
:10C9500003F0FEF983B2181E29D102A80021184A5B
:10C9600003F06CFA83B2181E21D102A80121144AE7
:10C97000083203F063FA83B2181E18D101A801210E
:10C98000104A00F0A9FF83B2181E10D1019863214C
:10C99000002200F0D9FF83B2181E08D1FFF724FF50
:10C9A000031C0020002B02D1FFF780FF002006B0FF
:10C9B00010BDC0468132002080320020D84D0200D8
:10C9C00070320020CDC60100F8B5031C0F1C151CE9
:10C9D0000020042B18DC5A00D3189B000B4A9E58E9
:10C9E000002E0AD0002D0ADD0024385DB04701304A
:10C9F00007D00134AC42F8D105E0002004E0281C47
:10CA000002E0201C00E0281CF8BDC046785402005B
:10CA1000F8B50F1C161C042818DC430018188000F9
:10CA2000104B18184568002D13D0002A14D0002987
:10CA300015D00024A847431C03D038550134A64222
:10CA4000F8DC201E0DD1012040420AE001204042C6
:10CA500007E00120404204E00120404201E00120C3
:10CA60004042F8BD7854020010B5041C084905F096
:10CA700087FF002807D0201C064905F081FF002809
:10CA800003D1042003E0032001E00120404210BD57
:10CA9000944C02007054020008B50E22835E042BF1
:10CAA0000ADC5A00D3189B00064AD3189B68002B57
:10CAB00005D0081C984704E00120404201E0012015
:10CAC000404208BD78540200224B1B78012B3FD115
:10CAD000214B1B681A0719D1204B1A68F023134009
:10CAE00005D11F4B1A68F0231A420FD11EE0102BFC
:10CAF00005D11B4B1A68F0231A4207D116E0302BE0
:10CB000004D1174B1A68F0231A420FD0124B1B683E
:10CB10001A071DD1114B1A68F0231340402B17D16F
:10CB20000F4B1A68F0231A4212D10BE00D4A0E4B3C
:10CB30001A60802212020D4B1A60064B1B78012BE3
:10CB4000E4D005E00121C123DB008022D205D150D1
:10CB50007047C046E00F00F0E40F00F0E80F00F06F
:10CB6000EC0F00F0DFFF07C004050040186C004028
:10CB700010B5002917D0038893420BD107E0041C9D
:10CB80000830031C083B1B88934208D100E0041CBA
:10CB9000606809E00830013989B2C900411888424B
:10CBA000EDD1002000E0002010BDC04638B5802344
:10CBB0005B05DC6DA2B207480421FFF7D9FF00280E
:10CBC00007D1054D2404220C281C044905F016FE4B
:10CBD000281C38BDD454020098320020F4540200BE
:10CBE00070B5134B1C68A2B212480421FFF7C0FFB6
:10CBF000011E06D12404220C0F48104905F0FEFD49
:10CC000002E00D4805F0C6FE0B4C201C05F0CAFEE4
:10CC1000061CFDF73BFD051CFDF738FDA6192D0A86
:10CC2000EAB2C3B2301C064905F0E8FD201C70BD15
:10CC30000C300000B454020084320020F45402008E
:10CC4000FC540200F0B54F464646C0B485B0071C00
:10CC50001D4B1A6802929A8802AB9A801B4B1A6885
:10CC600000929B886A469380451C0478002C1FD054
:10CC7000061C0023984602AA91465C2C0ED17978B6
:10CC8000484605F071FE002808D04B46C01A6A4697
:10CC9000145CBD1C43460133DBB298460136731E5B
:10CCA0001C706B1C2C78002C05D02F1C1D1CE4E77D
:10CCB000061C0023984600233370404605B00CBC88
:10CCC00090469946F0BDC046544902005C490200B6
:10CCD00010B500290BD00923002A09D0541E224286
:10CCE00006D10160848000238360C36000E00E23CE
:10CCF000181C10BD10B5031C8068DC689A88241AC3
:10CD00000420A24207D3D868024018688154DA6828
:10CD10000132DA60002010BD10B5031C8468C268BF
:10CD20000520944209D098689A8802401868825C6D
:10CD30000A709A6801329A60002010BDC36883604F
:10CD40000020704770B5041C151C8368C068C31AA6
:10CD5000052099420AD2A068A6880818711C04F020
:10CD600031FC0E4023689B5D2B70002070BDC046D7
:10CD7000F0B557464E464546E0B400230126E02470
:10CD8000E400154A9246C022920290468022920206
:10CD90009446321C9A40114215D0C568154203D101
:10CDA0002A43C260E14602E09543C560C1469A004D
:10CDB000A025ED055219155957463D4015511559F5
:10CDC0004F463D4315510133202BE2D11CBC904608
:10CDD0009946A246F0BDC046FFFFFCFF70B5830038
:10CDE000181880000C4B1C68241800230120E02137
:10CDF000C9000A4E021C9A402568154208D09A00C4
:10CE0000A025ED05521955583540555055585550E7
:10CE10000133202BEED170BDA8320020FFFFFCFFB4
:10CE2000F0B55F4656464D464446F0B483B0A22363
:10CE3000DB00A022D205D6580021BE235B002D4A7C
:10CE4000D1502D4B1B78002B4DD000242B4882460F
:10CE50002B498946284A904653461A680123A34025
:10CE600048460068184238D0A5002D19AD00551964
:10CE7000EB6873402F689F43281C391CFFF778FF2D
:10CE8000A223DB00A022D205D2582B6872401A40A0
:10CE900014D072409346EA6859464A40934301933E
:10CEA000281C191CFFF764FFAB685A46934301988E
:10CEB0000340686810400199084001E00023002009
:10CEC000A968B143394019436B6833401F40384368
:10CED000031C0B4301D02B6998470134E4B242464E
:10CEE0001378A342B8D803B03CBC90469946A246FA
:10CEF000AB46F0BD00600040A0320020A832002008
:10CF0000A432002010B5002929D007238A0727D191
:10CF1000144B1960144B18700023144A1370144AF0
:10CF20001360820010188200081C002105F086FAA8
:10CF300001214942C2239B000E4AD1500E4B402290
:10CF4000C02149005A50C12189005C580B4820403B
:10CF50008024E403204358501A60002300E0072394
:10CF6000181C10BDA8320020A1320020A0320020E1
:10CF7000A43200200060004000E100E0FFFF00FF5D
:10CF8000F8B5124C2468002C1BD0002B1BD0104D80
:10CF90002E78104D2F780425B74215D9B500AD195C
:10CFA000AD0064190D1C154325606160A26023610A
:10CFB000721C074B1A700670301CFFF70FFF00251C
:10CFC00002E0082500E00725281CF8BDA832002053
:10CFD000A0320020A1320020F0B557464E4645460B
:10CFE000E0B4031C2B4A1268002A4BD02A49097866
:10CFF0000720994249D90024BE21490027484450BE
:10D00000A221C900A020C0054458A04624490968AF
:10D01000002905D180252D06C12080001F4C2550F8
:10D020000120984001431E4801609800C01880000C
:10D0300010180023C3600125E021C900194EB44631
:10D04000C027BF02BA468022920291462A1C9A400B
:10D050000768174212D054464646164203D1C768A5
:10D060003A43C2604C469A00A026F60592195658DB
:10D0700067463E4056505658344354500133202B97
:10D08000E4D101E0082000E000201CBC9046994655
:10D09000A246F0BDA8320020A0320020006000406F
:10D0A000A4320020FFFFFCFF10B50C4B1B68002BC7
:10D0B00011D00B4A1478072284420DD9A222D20043
:10D0C000A024E405A258840020188000C35813400F
:10D0D0000B60002200E00822101C10BDA8320020C6
:10D0E000A0320020802189028023194AD150194B97
:10D0F00080225202D22189005A50C22189005A50FE
:10D1000001225A602F200138C046C046C046C046A2
:10D11000C046C046C046C046C046C046C046C046DF
:10D12000F1D19A6000220C4B1A602F200138C046C2
:10D13000C046C046C046C046C046C046C046C046BF
:10D14000C046C046C046F1D1044B1A707047C04675
:10D1500000E100E000100140AC320020D432002099
:10D1600010B5437801338278D21A541EA24152423C
:10D17000134002789A4207D00B6043785A00D318C4
:10D18000DB004068C01800E0002010BD174B5B6852
:10D19000DB05DB0D0220002B27D0103BDAB219068D
:10D1A0000FD5131C0F221A40083A9208920010491A
:10D1B0005218526803210B40DB00DA4013069B0F24
:10D1C0000BE052B29208C03292000A495258032131
:10D1D0000B40DB00DA4013069B0F0020012B04D02C
:10D1E000033B584243410220C01A704700ED00E063
:10D1F00018ED00E000E100E0F0B5474680B4364BA2
:10D200000022A02149005A50A22149005A50A421CD
:10D2100049005A50A62149005A50802149005A50CD
:10D22000822149005A502D4B1B68591C50D02C4A62
:10D2300029498D582B4A1268AD1A2D022D0ADA00A1
:10D24000D3189B00284A1268D3185A68954223D3F2
:10D250000026264F2449884608E0E3001B199B005E
:10D2600042461268D3185A68AA4216D8AD1AB618A0
:10D270001C6A3A68002A09D09869D9699047002841
:10D2800007D000210022FDF701FE02E0D8699B696A
:10D290009847631CE1D100E00026154B1B78154A26
:10D2A00012789A4209D10133DBB2022B02D0114A23
:10D2B000137002E000220F4B1A700E4B1A78920086
:10D2C0000D4BD6508021490380235B000B4AD1507F
:10D2D00004BC9046F0BDC04600100140C43200209E
:10D2E00004050000AC320020B4320020B03200202F
:10D2F000C0320020C1320020CC32002000E100E02A
:10D30000F0B55F4656464D464446F0B489B0D24B20
:10D310001B680393D14B1B78D14A12789A4219D0DB
:10D320000133DBB2022B02D0CC4A137002E00022A0
:10D33000CA4B1A70C94B1A789200CA4BD058834610
:10D3400003990A1C5A441202120AC34B1A600122A2
:10D35000059203E000239B4600240594C24B1B6802
:10D360000693C24B1B780293C14B1E68B246C14B59
:10D370001A68B94B1B680793BF4B1B780493069E32
:10D38000029F0020331CD446B8467CE04146CD00C5
:10D39000654429781E1C72E04C006418E4006B6838
:10D3A0001C190131C9B2AB785B1A5F1EBB415B42ED
:10D3B00019402378022B05D0032B5ED1331C741C3B
:10D3C00052D15BE06768B946FB004B449B009B1859
:10D3D0009A461C7D331C002C50D0771C40D04E4503
:10D3E00012D0371C4B468946191C03E0A14200D1DC
:10D3F000BEE1271CFB00DB199B00D3181C6A631CD1
:10D40000F4D14946331C2CE0371C341CF3009B1923
:10D410009B00D3181E6AB146331C013606D1012386
:10D42000964EB3604B46012604960790E6003419E9
:10D43000A400141966680196246AFE00B1464F44A0
:10D44000BF00D7193C62671C0BD0E7003C19A40051
:10D4500014196668B146019EB1444F46676000E00A
:10D46000331C5446207509E0DC00E3189B00D318F8
:10D4700018751B6A5E1C01D0F6E7331C1E1C6B7806
:10D480008B4289D1331C4746013FFFB2B846FF2F7C
:10D4900000D07BE71E1C744B1E606F4B079F1F6004
:10D4A000754B049818700599002909D1069A961BA6
:10D4B000331C5E1EB341DBB2059301277F422EE091
:10D4C0006C4B1C6801277F4200210020A0465D466E
:10D4D0001FE0F3009B199B0043445A68AA4206D9F7
:10D4E00061490E60521B5A600123059317E0AD1A83
:10D4F0008918586018751C6AA1461A69002A07D055
:10D50000039C64182402240A9C60DA601F62371CA2
:10D510004E46721CDDD1544B1E6001230593524BC5
:10D520001B680693524B1B680493524B1C68524B6A
:10D530001B780393484B1E68B346069E0020814625
:10D54000ABE00299CB00049AD21892469CE0FB0013
:10D55000DB199B00E318BC461F6A2BE05900C91871
:10D56000C9005046406841180133DBB2524613707F
:10D5700092789A4202D14846534618704A689446B7
:10D580000B78321C012B00D07DE06046C300634461
:10D590009B00E318187D002875D18A689A60C868D6
:10D5A000D8600A691A614969D9610398002801D0D5
:10D5B000494699609A685846111A0902090A304882
:10D5C000814203D8DA68891859600BE05846821AFC
:10D5D0001202120AD9688A4202D28A1A5A6001E0FB
:10D5E000494659604A469A60DA600120187501215F
:10D5F000494219626246D30063449B001B19984656
:10D60000731C3FD040464268F100891989006118B7
:10D610004868351C824205D8821A4A6041460E622B
:10D62000624630E0121A0B6A581C09D0D900C9189A
:10D63000890061184868904200D39FE01D1CF1E703
:10D6400041464A600B62EB005D19AD006519624608
:10D650002A62321C17E0C046AC320020C0320020E3
:10D66000C1320020CC320020C4320020B832002069
:10D67000BC320020B4320020C8320020001001402B
:10D68000FEFF7F006246161C7B1C00D05FE7504601
:10D69000037842789A4200D060E7029B013BDBB2FC
:10D6A0000293FF2B00D04CE73C4B1E600699B14221
:10D6B00002D1059A002A57D0731C53D0384B1B68EF
:10D6C000F2009619B6009B195D68364B364AD3585E
:10D6D000364A14681A1B1202120A033234490978B6
:10D6E000002923D1304980204002D126B60088513C
:10D6F000C126B60088512F488026B602C0277F0079
:10D70000C6510660012008602F200138C046C0467F
:10D71000C046C046C046C046C046C046C046C046D9
:10D72000C046C046F1D1012021490870AA4200D26A
:10D730002A1C12191202120A1B49A820C0000A5002
:10D7400018480958C91A0902090A0331D31A1B02D9
:10D750001B0A994208D98021890280235B00154A5F
:10D76000D15001E0FFF7BEFC0022134B1A700DE010
:10D770004946A74200D149E6331C57E6D900C918EB
:10D78000890061184868801A486059E709B03CBCB4
:10D7900090469946A246AB46F0BDC046C432002032
:10D7A000B43200200405000000100140AC3200201B
:10D7B000D432002000E100E0C8320020F0B5574626
:10D7C0004E464546E0B481468A4690461F1C0720D7
:10D7D0009A0761D1002B5FD0FFF784FC314B089D85
:10D7E0001D60314B50461870304B1F605246002A66
:10D7F0000BDDD30053449B003C1C00250026267003
:10D800002675243524349D42F9D15546EB00534406
:10D810009B00FB180321264A1170264A1360191C2D
:10D820001831404644004444E400002200201870AF
:10D83000587045469D705960091901320833032A12
:10D84000F5D1012252421C4B1A6000231B4A13706F
:10D850001B4A13701B4B80225203C02149005A50AF
:10D86000C52189005858FF24A043C02420435850A4
:10D870001A60154AA121C90048465050C4218900A8
:10D880005C5812482040C024240220435850104BBA
:10D89000D258104B1A6000201CBC90469946A246F4
:10D8A000F0BDC046B0320020C2320020B4320020A9
:10D8B000B8320020BC320020C4320020C032002028
:10D8C000C132002000E100E000100140FF00FFFF36
:10D8D00004050000AC320020F0B59446184B1C68DB
:10D8E000002C25D0002A25D0002825D0154B1E78E5
:10D8F000002E23DD2378002B13D108E01A1C271CEF
:10D900002434251C243D2D78002D0CD101E0271C4A
:10D91000002201233B7079706346BB6102600020E6
:10D920000DE0243400230133B342E7DB042006E09A
:10D93000082004E0072002E0072000E00420F0BDFA
:10D94000B4320020C2320020F0B5474680B482B025
:10D95000051C0E1C171C214B1C68002C37D0204BBB
:10D9600018780723A84233D9042931D9EB005B1971
:10D970009B00E41822780823012A29D16378012B1F
:10D9800002D00023984600E08846FFF7FFFBC00066
:10D99000144B1C682418201C01A9FFF7E1FB042389
:10D9A000002815D00123037045600F4B0F4AD35850
:10D9B0008360C660434603614761019B63708021B9
:10D9C000490380235B000A4AD150002300E008236A
:10D9D000181C02B004BC9046F0BDC046B432002012
:10D9E000C2320020BC3200200405000000100140BB
:10D9F00000E100E030B583B0041C174B1A68002A20
:10DA000026D0164B19780720A14222D9E3001B1912
:10DA10009B009A5C0820012A1BD1FFF7B7FBC000CE
:10DA20000F4B1D682D18281C01A9FFF799FB021C3C
:10DA30000420002A0DD0022313705460019B6B70E8
:10DA40008021490380235B00064AD150002000E07A
:10DA5000082003B030BDC046B4320020C2320020DE
:10DA6000BC32002000E100E00022054B1A70054B9B
:10DA70000121D9605960A021C9005A507047C046A1
:10DA8000EC3200200020004008B5074B1B78DBB2C9
:10DA9000012B02D0022B03D005E0FFF7E5FF02E0E7
:10DAA0000322014B1A7008BDEC32002000B583B090
:10DAB0000123064AD360064A137003236A46137093
:10DAC000044B1B686846984703B000BD0020004027
:10DAD000EC320020D832002000B583B0104B1B7808
