:020000021000EC
:1080000000800020992B0200FD2B0200FF2B0200B4
:108010000000000000000000000000000000000060
:10802000000000000000000000000000012C020021
:108030000000000000000000032C0200052C0200DC
:10804000072C0200072C0200BDF10100072C0200E2
:10805000072C02000000000071E30100072C020061
:10806000072C0200072C02000DD30100072C020090
:10807000072C0200072C0200072C0200072C02002C
:10808000072C020049E70100072C0200072C020020
:1080900081E80100711E0200A5F60100072C020014
:1080A000072C0200072C0200000000000000000066
:1080B00000000000000000000000000000000000C0
:1080C000164B002B00D1144B9D46402292029A1A67
:1080D000924600218B460F461348144A121A0BF0A1
:1080E00013FD0F4B002B00D098470E4B002B00D0F8
:1080F00098470020002104000D000D48002802D000
:108100000C4800E000BF0BF071FC2000290005F0D6
:1081100073FC0BF05DFAC0460000080000800020F0
:108120000000000000000000E0290020644700205B
:10813000000000000000000030B583B0041C0D1CDE
:10814000019001A900220CF08DF8019BA34206D0FA
:108150001A780023002A03D12860012300E00023BD
:10816000181C03B030BDC04630B583B0041C0D1CD4
:10817000019001A900220CF0FFF8019BA34206D058
:108180001A780023002A03D12860012300E000238D
:10819000181C03B030BDC04610B582B00C1C01A93C
:1081A000FFF7CAFF002805D0019BFF2B01D82370E1
:1081B00000E0002002B010BD10B582B00C1C01A977
:1081C000FFF7BAFF002807D0019B1A1C8032FF2A54
:1081D00001D8237000E0002002B010BD10B582B0BD
:1081E0000C1C01A9FFF7A8FF002806D0019B044A38
:1081F000934201D8238000E0002002B010BDC046A9
:10820000FFFF0000F0B583B0041C0D1C171C0378A1
:10821000202B03D101342378202BFBD0201C01A973
:1082200010220CF01FF8019BA34221D91C1B022C29
:1082300020DC6E1C28701A782D2A1DD1012F22D91E
:10824000012508E030700135EDB21A782D2A14D1DD
:108250000136BD4217D05C1C201C01A910220CF075
:1082600001F8019BA34208D91C1B022CEADD04E0A3
:10827000002502E0002500E001251878434258411E
:108280004042284000E0002003B0F0BDF0B55F465A
:108290004E464546E0B486B0041C9046002A00D104
:1082A000C4E0002800D1C3E00D1C0026201C2C21B6
:1082B0000BF0C0FE002803D0471C0023037000E031
:1082C000071C2378002B00D1A7E0A9462A78082AAA
:1082D00000D9AFE092005D4882589746202B03D129
:1082E00001342378202BFBD049464B681C6094E076
:1082F0006A78201C6968FFF785FF031C6B7000D04B
:108300008BE09CE0201C04A9FFF716FF002800D199
:1083100095E04F4B049A9A4203D1201C04A9FFF721
:1083200023FF4B46586804A904220BF0E4FB74E0D9
:108330006968201CFFF752FF00286ED17FE0696852
:10834000201CFFF729FF002867D178E06968201C0E
:10835000FFF732FF002860D171E0201C6968FFF749
:10836000EBFE002859D12378202B03D10134237848
:10837000202BFBD04B465A78201C996805F036FF1D
:108380000490002801DA002059E04946486804A911
:1083900004220BF0B0FB40E0201C6968FFF7FCFEF4
:1083A00000283AD104AB2B4905C905C32378202BFB
:1083B00003D101342378202BFBD0201C04A90222F6
:1083C00005F014FF0390002801DA002037E04B4647
:1083D000586803A901220BF08EFB1EE01E480068BE
:1083E000C3185B78590716D4201C05F0E9FEAA686B
:1083F0009346201C0BF03CFE021C5846211C05F045
:1084000029FE0490154B984205D068686A7804A943
:108410000BF071FB01E0002011E00136F6B2464599
:108420000AD00C35002F09D03C1C3FE7002006E0A5
:10843000002004E0002002E0301C00E0301C06B008
:108440001CBC90469946A346F0BDC046AC5B0200FA
:10845000FFFFFF7FD05B020078290020DFFDEF7E69
:10846000F8B5051C0E1C171C0A7808490BF010F90A
:10847000012F0AD9741CF719054E2278281C311CCB
:108480000BF006F90134BC42F7D1F8BDD85B02000D
:10849000E05B0200F0B5474680B4141C002921D1EE
:1084A000134B1B689A421FD01248111C0BF088F91D
:1084B000114B1D1DE0339846104F114E381C211CE6
:1084C0000BF07EF9301C211C0BF07AF901CD211C38
:1084D0000BF076F94545F1D10A48211C0BF070F9F3
:1084E000002002E0084800E0084804BC9046F0BDC7
:1084F0006C3B0020EC5B0200FC5E0200F05B0200C3
:10850000F45B0200346502006280000063800000BA
:1085100010B5054C201C0021802252000BF0F4FA0B
:10852000024B1C6010BDC046E4290020E029002059
:10853000F0B5474680B4071C88464C490BF086FDD1
:10854000002831D03B78002B13D03D2B11D03A1CA2
:10855000474D03242868C11848782040191C022878
:1085600000D12039117001321378002B01D03D2B3E
:10857000F0D1381C0BF07CFD012805D93B78412B4C
:1085800002D17B78542B05D03A4841460BF018F9BC
:10859000394868E0BB780237002B05D1374841469F
:1085A0000BF00EF900205EE0354E00243568281CE3
:1085B0000BF05EFD021C381C291C0BF085FD002809
:1085C00005D00134E4B20436382CEFD101E0382C68
:1085D00005D1284841460BF0F3F82A4843E0251C12
:1085E000A400274BE0580BF043FDFF2318403F1831
:1085F000381C25490BF02AFD002805D11F484146AB
:108600000BF0DEF800202EE0381C20490BF01EFD98
:10861000002802D1013701210EE03B783D2B02D129
:108620000137022108E00021002B05D01148414606
:108630000BF0C6F8134816E0AD00154BEB58381C8C
:1086400042469847041C134B1B78002B07D1002887
:1086500001D10A4800E0074841460BF0B1F800227A
:108660000C4B1A70201C04BC9046F0BDEC5B020061
:1086700078290020005C020060800000F85B0200A6
:10868000FC5E020061800000085C02000C5C0200DD
:10869000DC5F0200E42A0020F8B54F464646C0B42D
:1086A000041C514B1B68C31A5A425341DBB2984613
:1086B0009B004E4FFF18381C0BF0DAFC8146C6B207
:1086C000201C311C05F03CFC051C431C03D1731E0F
:1086D0009E41F0B284E00D2801D00A2861D1381CF7
:1086E00043490BF0B3FC00285BD104256368013BD0
:1086F0006360002B05DA3F4A1068211C0BF012FB67
:1087000002E0236801332360013DEDB2002DEDD17D
:1087100001200AF021FA201C002105F011FC0D288F
:1087200001D00A280DD16368013B6360002B05DA94
:10873000304B1868211C0BF0F5FA02E02368013376
:1087400023604346002B0FD003F048FF264C2568DA
:1087500003F03EFF021C281C27490AF099FF2168FC
:1087600026480BF02DF815E002F0F8FB0123181A4B
:10877000C0B202F0F9FB1F4C23689D6802F0EEFBCB
:10878000021C281C1C490AF083FF236899681B48B7
:108790000BF016F8381C002104220BF0B5F901206B
:1087A0001EE02B2D13D1002E0AD0022E12D8FF224C
:1087B0004B461A40381C12490BF08EF9002809D19B
:1087C000FF234A4613402B22FA54012008E00020E0
:1087D000002E05D0381C002104220BF095F9002052
:1087E0000CBC90469946F8BD6C3B0020E82A00205E
:1087F000EC5B0200DC290020105C0200F85B020048
:10880000185C0200F0B54F4680B4051C0F1C574E93
:108810000136FF3692E00A2C04D00D2C02D0082C31
:1088200058D140E0524B1A68504B9A4200D885E02C
:10883000504B1B689B689F4207D14F4B1B7A002B04
:1088400003D04E48391C0AF0BBFF494B002219687F
:108850000A70464C1C60201C391CFFF769FE8146DB
:10886000201C47490BF0F2FB002867D14A46002A3A
:1088700064D101200AF070F9281C002105F060FB8A
:108880000D2801D00A2859D16B68013B6B60002B81
:1088900005DA384B1868291C0BF044FA4EE02B68B7
:1088A00001332B604AE0324B1A68304B9A4245D96B
:1088B000304B1B689B689F4207D12F4B1B7A002BC4
:1088C00003D03048391C0AF07BFF294B1A68013A63
:1088D0001A6033E0264B1B68B3422FD2254B186831
:1088E00083689F4225D1244B1B7A002B21D0BB6883
:1088F000013BBB60002B17DAB9698B420FDB3A688A
:1089000014703B681A780A2A02D001333B6010E0E9
:10891000184B18680A213A1C0CF09AFC09E0211C3B
:108920003A1C0CF095FC04E03B681C703B6801337A
:108930003B600F4A1368591C11601C706B68013B47
:108940006B60002B06DA0B490868291C0BF0EAF96A
:10895000041C03E02B68581C28601C78621C00D0A3
:1089600059E7002004BC9146F0BDC046E429002030
:10897000E0290020DC290020703F0020346502003F
:10898000EC5B02001C5C020008B5011C0122034BD9
:108990001A7003480AF014FF08BDC046E42A0020FC
:1089A000F85B020071DF704774DF704776DF704755
:1089B00077DF704700B583B0012902D902290AD0B8
:1089C00042E0234BDB7A5BB2101C22491A1C0AF0EE
:1089D0005FFE002039E001235B4201931E4901AA9A
:1089E0000BF094FA00282BD001982023021C9A4304
:1089F000131C28330DD01023021C9A43131C14336C
:108A000007D00423021C9A43131C103201D0002B00
:108A100018D140B2FFF7CCFF83B2181E15D10C4B12
:108A2000019ADA7205F0BCF8FFF7BEFF02F0D0FF42
:108A30000A4B984202D1002002F0D4FC002004E04E
:108A4000074802E0064800E0054803B000BDC04604
:108A5000703F0020105C0200BC600200FFFF0000BD
:108A60006280000030B587B0151C012913D804AC12
:108A7000201CFFF797FFA279637921790091E178B3
:108A80000191A178029161780391281C03490AF0B1
:108A9000FFFD002000E0024807B030BDC0600200CA
:108AA0006280000010B5141C01290FD8A023802279
:108AB0005205D35801221A40201C05490AF0E8FD4E
:108AC0000448211C0AF07CFE002000E0024810BD92
:108AD000E0600200346502006280000030B587B0BB
:108AE000141C012916D804A803F002F8051C002D57
:108AF00011D104A98A794B7908790090C87801903E
:108B00008878029049780391201C04490AF0C0FD3E
:108B1000281C00E0024807B030BDC046C06002001B
:108B20006280000070B58AB0041C022900D09EE06B
:108B300004A8002115220AF0E7FF201C2C210BF0CD
:108B400079FA002803D0451C0023037000E0051CBF
:108B5000201C69460E31FFF741FB002800D188E058
:108B60006B46D9898223484AD152281C2C210BF00C
:108B700061FA002803D0441C0023037000E0041CA9
:108B8000281C04A91022FFF73DFB102873D1201CDC
:108B90002C210BF04FFA061E02D000230370013681
:108BA000201C08A9FFF71AFB002866D004AB1A8A1C
:108BB00052BA04AB1A82301C2C210BF03BFA051E72
:108BC00002D0002303700135301C69462231FFF7C3
:108BD00005FB002853D004AB5A8A52BA04AB5A8220
:108BE000281C2C210BF026FA041E02D0002303704F
:108BF0000134281C254902AA0BF088F9002840D02E
:108C000004AB02981875002C0FD000230193201C90
:108C100001A9FFF791FA002802D0019B012B01D98D
:108C20001B482FE04A2218498B54174904AA0B1CF1
:108C30006C3331CA31C330CA30C312781A70012282
:108C40004923CA5404F0ACFFFFF7AEFE02F0C0FEA9
:108C5000104B984206D002F0BBFE1321FFF7A6FE90
:108C600000200FE0002002F0BDFB00200AE00848D1
:108C700008E0074806E0064804E0054802E004482A
:108C800000E003480AB070BD703F0020E4600200BD
:108C900062800000FFFF000010B5141C012913D8EA
:108CA00002F096FE0022094B984202D002F096FE96
:108CB000021C52B2201C06490AF0EAFC0548211C9D
:108CC0000AF07EFD002000E0034810BDFFFF000019
:108CD000BC600200346502006280000000B585B00F
:108CE000012902D9022909D02EE0194B1B7D101C45
:108CF00018491A1C0AF0CCFC002026E06A46002322
:108D0000D370033201A901938B6007230B704A6073
:108D10000122FFF7BBFA012801D00F4815E06B468E
:108D200003331B780A4A127D9A420BD0084A137506
:108D3000002B03D000214923D15401E002F0C8FEEA
:108D400004F02EFF002000E0034805B000BDC0463F
:108D5000703F0020105C02006280000010B582B0FD
:108D6000041C02291CD1124B1B7D002B1AD002F0CF
:108D70002FFE031C08200F4A934216D0684600219C
:108D800008220AF0C1FE201C69460822FFF73AFAC1
:108D9000431EDBB2072B07D8684603F0D5FE04E07C
:108DA000054802E0054800E0034802B010BDC04697
:108DB000703F0020FFFF0000628000006380000021
:108DC000F0B557464E464546E0B48AB0041C022929
:108DD00068D13A4B1B7D002B66D00378002B65D001
:108DE000101CFFF7D1FD04A9354A0B1C61CA61C3F1
:108DF00003CA03C312881A80324B1A6802929A88F7
:108E000002AB9A80304B1D6800959B886E46B380FC
:108E1000201C2E490BF01AF943424341E41802A8E2
:108E200082462B4989460322904635E066785C2DC0
:108E30000BD15046311C0BF0FDF8002805D05346ED
:108E4000C01A6E46355CA71CA678484600684319D0
:108E50005B7841460B400221012B07D004A8291C56
:108E60000BF0E8F8011C481E81414900281C03F062
:108E7000EBFD00281BD10F2009F06EFEAE4201D0A1
:108E8000002E08D10020002103F0DEFD00280ED1C5
:108E90000F2009F061FE3C1C671C2578002DC5D110
:108EA000002004E00B4802E00B4800E009480AB04B
:108EB0001CBC90469946A246F0BDC046703F0020BB
:108EC0001061020028610200306102000C610200A2
:108ED00078290020628000006380000010B588B00F
:108EE000041C02293CD1224B1B7D002B3AD002F0FE
:108EF0006FFD021C08201F4B9A4236D007A90023A1
:108F00000B800F230693201CFFF768F9002819D166
:108F1000002300930393059308236A4613700223EA
:108F2000537007AA0192144A02926A46137306AB61
:108F30000493201C69460222FFF7A8F9431EDBB206
:108F4000012B11D807AC201C03F0EEFE069809F0A7
:108F500003FE00232380201C03F0E6FE002004E033
:108F6000064802E0064800E0044808B010BDC046CC
:108F7000703F0020FFFF0000446302006280000099
:108F80006380000000B58FB0022925D10CAA002310
:108F90000C931371FF2111700093029303930593B7
:108FA0000693089309930B93052369460B700132CE
:108FB00001920B73013204920B7601320792242244
:108FC0008B540DAB0A930422FFF760F90138C0B24D
:108FD000032803D9044804E0034802E00CA803F086
:108FE00027FE0FB000BDC04662800000F0B54746C6
:108FF00080B492B0022900D0EFE00EA97E4B0A1C8B
:1090000070CB70C21B6813600CAD00220C922A71E9
:109010000B926C460F2363852A3401AB01920392B5
:1090200004920792099204221A70029506251D7374
:109030005A730BAA0592069103221A7608940378B4
:109040006E4A1268D3185B78590774D400230093D2
:1090500001A90B7000AA4A600322FFF717F9031C4D
:109060000138C0B2022800D8BBE062E00B9B032BA2
:109070005FD1009800286CD00AF0FAFF052858D874
:1090800000245E4E03275E4DA84614E000980219A6
:1090900013783068C11848783840191C022800D16C
:1090A00020391170009A515D40460AF0C3FF002834
:1090B0003FD00134E4B2251C00980AF0D9FF844265
:1090C000E4D300984C210AF0B5FF002804D00CAB83
:1090D000197801220A431A70009852210AF0AAFF57
:1090E000002804D00CAB197802220A431A700098A9
:1090F0004D210AF09FFF002804D00CAB1978042200
:109100000A431A70009842210AF094FF002804D004
:109110000CAB197808220A431A70009846210AF00D
:1091200089FF002815D00CAB197810220A431A7059
:109130000FE034485CE001A90322FFF7A7F8031C05
:109140000138C0B2022850D92E4851E00B9B032BA6
:1091500045D10CA803F06CFD031C002B48D10CABCF
:109160001C780020002C43D00B9B022B0DD0032B2E
:1091700029D00020012B3BD10F2009F0EDFC0CA8D9
:109180000023037003F054FD32E00F2009F0E4FCEB
:109190000CA80023037003F04BFD031C002B27D108
:1091A0000F2009F0D9FC0CA8047003F041FD031C4A
:1091B000002B1DD10F2009F0CFFC0CA80023037059
:1091C00003F036FD14E06B46588D09F0C5FC0CA881
:1091D0000023037003F02CFD0AE00A4808E0094868
:1091E00006E0032B00D044E740E7032BB1D1ADE705
:1091F00012B004BC9046F0BDFC600200782900204B
:10920000386102006280000010B5041C02291DD1E3
:1092100002F0FAFA031C0820DA0718D502F0D8FB8E
:10922000031C08200A4A934211D0201C09490AF065
:109230000DFF43424341E418201C04F07BFF064B22
:109240001968201C0AF0BCFA002000E0034810BD99
:10925000FFFF00000C6102006C3B002062800000F8
:1092600070B5141C002933D102F0CEFA031C08207B
:10927000DA0730D5184B19684B68013B4B60002B5F
:1092800004DA164B18680AF04DFD03E00B685A1C0F
:109290000A601878431C1DD00F4E104D211C0AF097
:1092A0002FFA33685A68013A5A60002A04DA2868AB
:1092B000191C0AF037FD03E01A68511C1960107878
:1092C000421CEBD10648211C0AF07AFA002002E089
:1092D000044800E0002070BD6C3B0020DC29002029
:1092E0003465020062800000F8B5071C0D1C161CD6
:1092F00002F08AFA041C0820E30741D5002D2FD084
:10930000022D16D11BE0381C1E490AF075FE0028FC
:1093100011D18022D200521B92B2002A0DDB301CE8
:1093200019490AF0B5F91948311C0AF049FA002028
:1093300026E0174824E0164822E0154820E003F014
:109340008DF88024E400241AA4B203F081F8051CEF
:10935000381C10490AF050FE221C0028DDD0D2E74C
:1093600003F07CF8041C03F073F88023DB001C1B63
:10937000A2B21B1A9BB2301C07490AF089F9D2E746
:10938000F8BDC046285E0200E460020034650200B9
:10939000628000001C5E020064630200F0B5574664
:1093A0004E464546E0B484B0061C0D1C171C1C1C20
:1093B000274B1B68984203D1231C5343102B40DCDE
:1093C00002AA24490B6802938B8893807B00303378
:1093D00093701020391C09F065FCA046002C2ADD92
:1093E0000024FF23034099461B4B9A460023019318
:1093F000201C494609F0ACFC00290AD1002C03D0FE
:109400001648311C0AF0DCF9301C51462A1C0AF0BF
:109410003FF901A8291C3A1C0AF06DFBED19202028
:10942000311C0AF06DF9301C02A9019A0AF030F9DA
:1094300001344445DADB0948311C0AF0C1F9002047
:1094400000E0074804B01CBC90469946A246F0BD17
:109450006C3B0020586302004C630200346502003C
:1094600063800000F0B587B0141C022932D10023BC
:1094700005930493039303AB00931D4905AA04AB22
:109480000AF044FD032827D1059D002D26D0049A1B
:10949000002A25DD039E002E24DD531E012B01D959
:1094A000042A21D1D7B2391C042F00D90421C9B212
:1094B000281C09F0EDFB002905D00E48211C0AF0FC
:1094C0007FF90D4811E0B3B2201C291C3A1CFFF7AC
:1094D00065FF0AE0084808E0074806E0064804E09F
:1094E000054802E0044800E0034807B0F0BDC0466C
:1094F000606302006C6302006280000008B502290C
:1095000007D0101C04490122FD23DB00FFF746FFB2
:1095100000E0024808BDC046703F002062800000A5
:1095200038B501291DD8114B1968114B994209D141
:1095300004230F4C80252D010C4819180968A142FD
:109540000BD000E0002380210901CB1A101C09492F
:109550001A1C0AF09DF8002006E00433AB42EBD160
:1095600001E0054800E0032038BDC0460078002037
:109570000DF0FECA806302006280000008B5002979
:1095800007D1101C0449042280239B00FFF706FF2B
:1095900000E0024808BDC04600780020628000005C
:1095A00074DF704776DF704708B5FFF7F9FF02F008
:1095B0000FFA064B984205D002F00AFA1321FFF782
:1095C000F1FF02E0002001F00DFF08BDFFFF0000E9
:1095D000F0B5474680B4071C00240D4EA3B2984650
:1095E000A3009D59281C0AF043FD021C281C391CAD
:1095F0000AF072FA002803D00134052CEED101E004
:10960000404600E0034800B204BC9046F0BDC046AE
:1096100088630200FFFF0000F8B5061C0F1C084D10
:109620000024301C29680AF079FD002801D03C7024
:1096300005E00134E4B204350E2CF2D10020F8BD6F
:1096400094640200F0B55F4656464D464446F0B479
:1096500093B0141C1D1C012931D8714DA623EA5C5E
:109660009200704BD058211C0AF0AAF8A523EB5C9D
:10967000012B1ED901256A4F6B4E6C4A90467B190F
:10968000A0339879326813185B786822934303D02B
:10969000211C0AF035F805E080004346C058211C23
:1096A0000AF08EF80135EDB2A5235D4AD35CAB42DA
:1096B000E5D85F48211C0AF083F80020A8E00229C1
:1096C00000D0A0E000231193109306A906938B60AD
:1096D000CB604B618B610B6211AB4B6002230B7350
:1096E00010AB0B6105230B766B463F33CB61032236
:1096F000FEF7CCFD80460138C0B2022800D984E0D4
:109700001198FFF765FF002805DA4A48211C0AF086
:1097100057F849487CE001AB1870119E8000414B1E
:10972000C0580AF0A5FC301811900378002B44D0E3
:1097300001271222934669460331FFF76DFF8146E8
:10974000002803D0119BC61AF6B203E011980AF064
:109750008FFCC6B24B465A1E9341DBB29946FB18AA
:109760005A46D31A9E4205DD3448211C0AF028F8D7
:1097700009204DE001ABD8191199321C0AF0BBF950
:10978000119A921992461192F619F6B24B46002B95
:109790000DD0731CDFB26A46D37801AA93559B00A3
:1097A000224A98580AF064FC5044119000E0371C9B
:1097B00011980378002BBED100E001274346012B0E
:1097C00005D9109B012B22D84A2215498B544246B9
:1097D000022A05D96B463F3319789F23104AD1548A
:1097E00001A8391C02F0D8FC041C002C10D10C4B31
:1097F0000321492299549E229D5404F0D1F9FFF788
:10980000D3FE201C04E00C4802E00B4800E00A48AC
:1098100013B03CBC90469946A246AB46F0BDC0464C
:10982000703F0020886302007829002094640200C1
:10983000346502009C63020062800000C86302007D
:1098400008B50023FFF7FEFE08BDC04608B501239A
:10985000FFF7F8FE08BDC04638B5051C4923204C6B
:10986000E35C033B58424341DCB2012906D8101C9B
:109870001C49221C09F00CFF00202FE0022922D1F4
:10988000281C19490AF0E2FB002823D0281C17499C
:109890000AF0B2FB00281DD0281C15490AF0D6FB9F
:1098A000002812D0281C13490AF0A6FB00280CD06F
:1098B000114813E049230A4AD15404F071F9FFF723
:1098C00073FE00200AE00C4808E00021081C8C42CE
:1098D00004D0EFE70321012CECD1002038BDC046B5
:1098E000703F0020105C0200DC630200485D020053
:1098F000E0630200E46302006280000000B585B00E
:10990000002902D0022903D020E0B423039312E0FF
:1099100000230093029302236A46137003AB019362
:1099200069460122FEF7B2FC012802D1039B002BFD
:1099300001DC08480BE0039802F04EFC03214923A8
:10994000054AD154FFF730FE002000E0014805B081
:1099500000BDC04662800000703F002074DF704789
:1099600076DF70477CDF704730B583B0031C141C72
:10997000012902D9022909D032E01B48111C09F043
:109980001FFF1A48211C09F01BFF27E0164D281C59
:10999000191C1F220AF0AEFB04F002F901AC237877
:1099A0000F229343012213430F221340102213432B
:1099B0002370281C0AF05CFB82B2201C291CFFF7D4
:1099C000D1FF83B2181E0CD1FFF7C8FF02F000F8D8
:1099D000074B984202D1002001F004FD002000E076
:1099E000044803B030BDC046BC3F002034650200CF
:1099F000FFFF00006280000010B5141C012910D880
:109A000001F0E6FF084A8318584243413120C01A4A
:109A1000211C09F075FE0548211C09F0D1FE00202B
:109A200000E0034810BDC0460100FFFF346502009E
:109A30006280000008B500290DD101F0C9FF021CA9
:109A40000020064B9A4207D001F0C2FF1321FFF716
:109A500087FF80B200E0024808BDC046FFFF00005B
:109A60006280000008B5002902D102F031F800E060
:109A7000004808BD62800000F0B587B0061C0C1CD1
:109A8000151C02A8294910220AF035F8012C02D928
:109A9000022C20D03EE001260024254F02E00134B4
:109AA0000136F6B2E3B2002B36D0381C291C09F07F
:109AB00087FEFF2222401C3252001E4BD25A281C25
:109AC0001D4909F0E5FD032EE9D91C48291C09F0C0
:109AD00077FE002027E01A4C6D460A35271C083710
:109AE000301C01A90A220AF0BDFB019E01360028A4
:109AF00009D0AA1E1288904202DB2A88904201DD1A
:109B0000104810E0208002340435BC42E8D104F053
:109B100047F808E00B4806E0064B1A8F281C064958
:109B200009F0B6FDBBE707B0F0BDC046CC6402004B
:109B3000F05B0200703F0020BC6002003465020050
:109B4000A83F00206280000008B5002901D002294A
:109B500003D1002001F046FC00E0014808BDC046EA
:109B60006280000008B5002903D1FFF7F7FE80B23C
:109B700000E0014808BDC0466280000010B582B018
:109B8000141C012902D902290DD024E04823134ACC
:109B9000D05C3030211C09F0B3FD1148211C09F0C4
:109BA0000FFE002018E00F4901AA0AF0AFF90128C2
:109BB00002D1019B012B01D90B480DE04822074936
:109BC0008A5C934205D05A1E934148228B5403F07D
:109BD000E7FF002000E0044802B010BD703F002005
:109BE00034650200BC6002006280000030B591B0B4
:109BF000022942D100230F9301A901938B60CB600E
:109C00004B6101230B701F234B7007AB4B6002238A
:109C10000B730FAB0B610222FEF738FB041C0138FB
:109C2000C0B201282BD801AB5A78174D8B23EA54C8
:109C3000281C6C3007A909F05EFF02224923EA5470
:109C4000022C05D10F9B012B1BD84A220E498B54A5
:109C500003F0A6FFFFF782FE01F0BAFE0B4B98421D
:109C600006D001F0B5FE1321FFF77AFE002009E0CF
:109C7000002001F0B7FB002004E0054802E00448A2
:109C800000E0034811B030BD703F0020FFFF00002E
:109C900062800000A4DF7047A5DF7047A6DF704731
:109CA000F8B54F464646C0B480468946171E15DDB6
:109CB0000026002463B29B004A469D58281C0AF0E7
:109CC000D7F9021C4046291C0AF0DAF9002807D00F
:109CD0000134E4B266B2BE42ECDB01E000260024AF
:109CE000B7420BD063B29B004A4698580AF0C0F9BD
:109CF0004246135C3D2B02D0FF2400E0FF2460B2FB
:109D00000CBC90469946F8BDF0B5474680B486B085
:109D1000051C0E1C171C1C1C05A9FEF70DFA0028BB
:109D20001BD0214B059A9A4203D1281C05A9FEF7A6
:109D30001BFA059A13BA0593032C06D9301C05A902
:109D4000042209F0D8FE201C2AE006AB191B301CA7
:109D5000221C09F0D0FE201C22E0281C6946221C8F
:109D6000FEF750FA8046011E0BD00020B94217D3EF
:109D7000444515D3301C6946424609F0BCFE4046B6
:109D80000EE0281C0AF074F9031CC0B2A04200D9EE
:109D9000231CDCB2301C291C221C09F0ACFE201C48
:109DA00006B004BC9046F0BDFFFFFF7F10B5141C49
:109DB000002802D0012810D01EE0081C111C10221F
:109DC000FEF720FA102819D100232375A3781B026F
:109DD000E27813432382002015E0131C1033081C83
:109DE000191CFEF7FBF900280AD0238A002B09D0A2
:109DF00001232375002006E0034804E0024802E046
:109E0000014800E0004810BD62800000F0B5474600
:109E100080B480460E1C171E042F19D9002F23D0A2
:109E20000978002920D0154B1B68591849786820FB
:109E300081430DD00024682103E05D196D788D43C6
:109E400006D00134A2420FD9355D002DF5D10BE0CB
:109E5000012F03D10A48414609F0B2FC4046311CAB
:109E60003A1CFEF7FDFA05E0301C01213A1C43467E
:109E700009F0ACFD04BC9046F0BDC0467829002036
:109E80000C65020008B504480021044A09F03CFEB4
:109E900003F086FE002008BD284000200C070000CB
:109EA000F0B557464E464546E0B486B0041C171C34
:109EB000022972D1B8233D4AD35C04200A2B6FD00B
:109EC00068460021182209F01FFE201C2C210AF0F0
:109ED000B1F8002803D0451C0023037000E0051CE6
:109EE000002C38D032488046814630E00134237857
:109EF000202BFBD0201C41460222FFF7D1FE061E7C
:109F00000EDB83004A4698580AF0B2F8F6B2411CBC
:109F10006118301C6A46FFF749FF061E08D000E0B2
:109F2000244E381C2449221C09F0B2FB301C37E0B7
:109F3000281C2C210AF07EF8002803D0431C0022A4
:109F4000027000E0031C002D05D02C1C1D1C237882
:109F5000202BCBD0CEE76E46338A002B1FD0134C7C
:109F6000B825605D824641005144C9006118BC318A
:109F70006A4649CA49C149CA49C15046013060557B
:109F800003F00EFE625D381C0C4909F081FB0C48A1
:109F9000391C09F015FC002002E0064800E00548E5
:109FA00006B01CBC90469946A246F0BD703F00200A
:109FB000E06502006280000010650200BC600200E3
:109FC00034650200F0B557464E464546E0B48EB0C3
:109FD000041C151C022900D0DEE0B8237B4AD35CA8
:109FE0000420002B00D1EBE0B923D35C1E2B00D161
:109FF000E6E001A80021342209F086FD201C2C2176
:10A000000AF018F8002803D0471C0023037000E072
:10A01000071C002C00D18BE06D4A904691466D4A9A
:10A02000924680E001342378202BFBD0201C41464F
:10A030000622FFF735FE061E67DB83004A46985866
:10A040000AF016F801302018F3B2052B5DD89E00F7
:10A05000524693599F4669460631FEF7BFF80028DD
:10A0600053D001AB5B88002B4FD0012201AB1A7596
:10A070009FE002A91022FEF7C5F8102845D101ABD8
:10A0800000221A759A791202D9790A435A8090E00F
:10A0900069460331FEF780F8002836D06B4603335B
:10A0A0001B78002B31D06846053069460331012208
:10A0B00009F021FD7DE069461931FEF76DF80028B1
:10A0C00023D001AB5B7D013B132B1ED871E06946A9
:10A0D0001A31FEF761F8002817D001AB9B7D013BD8
:10A0E000132B12D865E001AB5A7D002A5CD19B7D11
:10A0F0000122002B02D1142300E0131C07A9FFF753
:10A1000003FE01ABD875002853D1281C3249221C0C
:10A1100009F0BEFA314853E0431C00220270002FC0
:10A1200006D03C1C1F1C2378202B00D17AE77DE74A
:10A1300001AB9B7D002B02D101AB5A7D9A7501AB1F
:10A140005B7D002B2AD001AA927D9A4228D301ABD5
:10A150005B88002B26D01D4CB823E35C013BDBB2AF
:10A160009846B926A75D34225743E019AD30FF3039
:10A1700001A909F0C0FCE719AD37FF3743463B7032
:10A18000A35D0133A35503F00BFDA25D281C144908
:10A1900009F07EFA002013E0104811E00F480FE0AC
:10A1A0000E480DE00D480BE001AB9B7D002BA5D1C7
:10A1B000A3E7381C2C2109F03DFF031EAFD0ABE70D
:10A1C0000EB01CBC90469946A246F0BD703F0020E0
:10A1D000F4640200DC640200246502006280000076
:10A1E000105C020000000000F0B54F464646C0B4C7
:10A1F0008BB0041C151C022900D0EEE0864905AA8C
:10A2000009F084FE002800D1E9E0059B002B00DC6A
:10A21000E7E0B92281498A5C934200DDE3E0013B3B
:10A2200034225343CB18D62040001F18201C2C2169
:10A2300009F000FF041E0BD1391C1831FA7D281CCF
:10A24000FFF7E4FD7648291C09F0BAFA0020D8E0AF
:10A250000378002B00D1C8E001F0BAFB8146061C50
:10A260003D1C1835601C7A7DBB7D291CFFF74CFD19
:10A270006A4610807A7D824200D9AAE0BA7D824285
:10A2800000D2A8E0F87503F08BFCBB8D0020834260
:10A2900000D1B6E0634B9E4200D188E07A7830234B
:10A2A0001A4200D183E06B4658800233398E06AAE9
:10A2B00002241480508053604846FFF7EDFC7C7800
:10A2C000E406E40F05D06B4602331B88D80700D59F
:10A2D0008DE07B789A066AD56B4602331B88980717
:10A2E00065D501AE301C0021102209F00DFCBB8D9C
:10A2F000338063425C41013401AB9C7000AA03923D
:10A30000049501F009FC002840D1474B1868420C25
:10A310005968C9031143C0033E4B3D4A08F024FD70
:10A32000041C0D1C404E0123984602E0404608F0F4
:10A3300013FC01F0F1FB002814D13068430C726863
:10A34000D1031943C003334B314A08F00DFD021C01
:10A350000B1C121BAB41002B02D1E7D1C72AE5D958
:10A3600004204EE0304B1868420C5968C903114371
:10A37000C003284B264A08F0F7FC021C0B1C121BDA
:10A38000AB41002B11D101D1C72A0ED8484601A9F3
:10A39000FFF784FC83B2181E33D17B780020DA06E5
:10A3A0002FD501F0C1FB00202BE0042029E07A7DAD
:10A3B000BB7D00209A4224D0B98D08AA6846038844
:10A3C00013800023538053604846FFF763FC80B23C
:10A3D00017E0164815E0154813E0144811E013483B
:10A3E0000FE012480DE011480BE0104809E001AC05
:10A3F000201C0021102209F087FBBB8D2380012443
:10A400007AE70BB00CBC90469946F0BDC046C046FA
:10A41000E880000000000000E4600200703F0020BF
:10A4200034650200FFFF00005847002062800000F2
:10A43000F0B55F4656464D464446F0B483B0171C0F
:10A4400000296FD13E4B1B689A426DD0B8233D4A1C
:10A45000D35C002B6AD0002692463B4B99463B4B7F
:10A460009B467400A419E4005444BC34721C238A33
:10A47000381C494609F00CF9237D012B08D05846B9
:10A48000391C09F09DF9381C211C1022FDF7E8FF4A
:10A490002F48391C09F094F9B9232A4AD35C002BC0
:10A4A00038D000249046342565434544AD35FF350A
:10A4B0002B78B34227D1621C6B88381C254909F0E0
:10A4C000E7F82B7D012B0CD02348391C09F078F9D3
:10A4D000291D381C1022FDF7C3FF2048391C09F044
:10A4E0006FF96A786B7DA97D0091381C1C4909F0D1
:10A4F000CFF8291C1831EA7D381CFFF787FC144877
:10A50000391C09F05DF90134E4B2B9230D4AD35C7A
:10A51000A342C8D80136F6B2B8230A4AD35CB34284
:10A520009FD805E00F4804E00F4802E0002000E05B
:10A53000002003B03CBC90469946A246AB46F0BD15
:10A540006C3B0020703F0020386502004C65020023
:10A55000346502005865020070650200F05B02007D
:10A560007C65020062800000638000000000000043
:10A57000F8B54F464646C0B4011C234809F020F9FF
:10A58000224B1868420C5968C9031143C0031D4B84
:10A590001B4A08F0E9FB041C0D1C1C498846194F96
:10A5A000174E2C23FF33994603F0EAFA002811D006
:10A5B00042461068430C5268D1031943C003321C51
:10A5C0003B1C08F0D1FB001BA941002902D1EBD1B3
:10A5D0004845E9D90D4B1868420C5968C903114325
:10A5E000C003084B064A08F0BFFB041B312C03D8FC
:10A5F0003220001B08F0B0FA0CBC90469946F8BD1A
:10A60000E880000000000000F85B020058470020CE
:10A61000F0B5474680B494B080460F1C151C8023CB
:10A620005B055A6E1B6E0FAC201C264909F04CFCD2
:10A6300003F036FD021C0AAE301C234909F044FC2D
:10A6400000230293214B039304960594204B069319
:10A650000793204B089303F03DFD0990002F02D093
:10A66000022F0ED026E003AC0AAF1B4E01CC291CF2
:10A6700009F0A6F8301C291C09F0A2F8BC42F5D15B
:10A680001AE04046154901AA09F040FC002803D011
:10A69000019B5A1E062A01D911480EE09B0002AA0E
:10A6A0009858291C09F08CF80B48291C09F088F8E7
:10A6B000002002E00A4800E0002014B004BC9046EC
:10A6C000F0BDC046E8650200F465020000660200C5
:10A6D0000C6602001466020034650200BC600200D1
:10A6E0006280000038B5051C141C012902D902291A
:10A6F0000CD01FE0124B187A3030111C09F000F812
:10A700001048211C09F05CF8002018E009F0B0FCAA
:10A71000012811D12B78303BDBB2012B0ED8084A2F
:10A72000127A00209A420AD0054A137203F038FACE
:10A73000002004E0044802E0034800E0024838BD7D
:10A74000703F0020346502006280000008B50029D7
:10A750000AD1101CFFF70CFFBFF34F8F034A044BC5
:10A76000DA60BFF34F8FFEE7024808BD0400FA0528
:10A7700000ED00E06280000010B5141C00290ED12D
:10A7800003F08AFA01F0A4F9201CFFF7F1FEBFF3F1
:10A790004F8F044A044BDA60BFF34F8FFEE7034844
:10A7A00010BDC0460400FA0500ED00E06280000024
:10A7B00008B5002906D1101CFFF7DAFE01F024FAD3
:10A7C000002000E0004808BD6280000010B50029AC
:10A7D00023D1134B1B689A420CD101F0FFFE104BA2
:10A7E0001C6801F0F5FE021C201C0E4908F050FF09
:10A7F000002013E000F0B2FB0123181AC0B200F0F1
:10A80000B3FB094B1B689C6800F0A8FB021C201CD2
:10A81000044908F03DFF002000E0044810BDC04698
:10A820006C3B0020105C0200DC29002062800000EC
:10A8300010B582B0141C022918D1114901AA09F0DF
:10A8400065FB002814D00199072913D8022913D0D9
:10A85000C9B20220002202F0D7FB02F00FFC021C5A
:10A86000201C084908F014FF002006E0064804E018
:10A87000054802E0044800E0034802B010BDC046AD
:10A88000BC600200206602006280000010B5141C4B
:10A8900000290AD102F0E0FB02F004FC021C201C9B
:10A8A000034908F0F5FE002000E0024810BDC04654
:10A8B000206602006280000039DF70473ADF70478F
:10A8C00052DF704710B582B0141C012918D801A8B6
:10A8D000FFF7F6FF002811D1019BD917890FCB187C
:10A8E0009A10032003405B1A9900CB1899005B185B
:10A8F000201C054908F0CCFE002002E080B200E0F8
:10A90000024802B010BDC0464C66020062800000E2
:10A9100010B582B0141C02292AD101235B42019395
:10A92000174901AA09F0F2FA002823D0019B1F2B36
:10A9300022D8C133FF339B0080218902A022D20597
:10A9400099501048211C08F03BFF322008F004F910
:10A950000020002100F00EFB0120002100F00AFB86
:10A960000121A023DB008022D205D150002004E089
:10A97000054802E0044800E0034802B010BDC046AC
:10A98000BC600200F85B020062800000F0B5474640
:10A9900080B486B09046002902D0022904D056E047
:10A9A00004226B46DA750BE069461731FDF7F4FBBC
:10A9B00000284ED06B4617331B78013B0F2B4AD82B
:10A9C00000256C46033400276E4617362770201C7E
:10A9D000FFF772FF83B2002B19D12378002B12D01E
:10A9E0003178491B0A1CC9B2994200D91A1CD1B24C
:10A9F000227001AB5819FFF761FF80B200282BD1FC
:10AA00002378ED18EDB23378AB42DFD801E0181CA3
:10AA100022E01348414608F0D3FE6B4617331B78FB
:10AA2000002B0ED000240F4E6D46173501AB1A5D7A
:10AA30004046311C08F02CFE0134E4B22B78A342CE
:10AA4000F4D80948414608F0BBFE002004E007485E
:10AA500002E0064800E0054806B004BC9046F0BDA0
:10AA60000C650200D85B02003465020062800000C1
:10AA700010B582B0002902D0022909D034E01C4B65
:10AA80009B7A101C1B491A1C08F002FE00202CE0C7
:10AA900069460731FDF780FB002804D06B46073379
:10AAA0001B78012B01D914481FE0114A927A9A426F
:10AAB00018D0002B03D10120002100F05BFA6C4676
:10AAC000E2790B4B9A7203F06BF8E379012B09D111
:10AAD00000F07EFF094BC1184B1E9941C9B20120FD
:10AAE00000F048FA002000E0034802B010BDC04664
:10AAF000703F0020105C0200628000000100FFFF38
:10AB0000F0B5474680B492B094460CAA354B141C5D
:10AB10001D1CC4CDC4C4C4CDC4C409AC1833C4CB3B
:10AB2000C4C4002902D002290CD055E02E4B597A1A
:10AB300089000CABCB5860462C491A1C08F0A8FDC4
:10AB400000204AE0012301930023029303A9062376
:10AB50000B704B7001AA4A600CAA8A600B73032326
:10AB60004B7302AB0B6109AB4B610222FDF78EFB0D
:10AB700000282FD0012803D9019B052B2AD102E000
:10AB8000019B052B26DC184A527ADBB29A4208D088
:10AB90000020002100F0EEF9134B019E5E7202F0DE
:10ABA000FFFF019F052F13D1029B022B0AD100202A
:10ABB00000F0EAFA0123011C5940C9B2002000F05C
:10ABC000D9F905E05A1E9341D9B2002000F0D2F91C
:10ABD000002002E0064800E0054812B004BC9046A0
:10ABE000F0BDC04628660200703F00205866020093
:10ABF00062800000F0B54F464646C0B483B0161CD4
:10AC0000002902D0022924D038E003240125224B58
:10AC100098460027214B9946E0B202F08BF90028B4
:10AC20000BD0002D03D14846311C08F0C9FD301C63
:10AC30004146221C08F02CFD3D1C0134782CEBD140
:10AC40000020002D22D11648311C08F0B9FD00204B
:10AC50001CE000230193134901AA09F057F90028C9
:10AC600003D00198C31E742B0AD90F480EE0301C84
:10AC70000E49019A08F00CFD002007E00A4805E0A3
:10AC8000C0B202F057F90028F6D0F0E703B00CBCD0
:10AC900090469946F0BDC04694660200F05B020003
:10ACA000346502009C66020062800000A06602001B
:10ACB000011C00201F2919D80D4B1878002810D02E
:10ACC0000C4B1B788B420ED00B4B0138C0B21818BE
:10ACD00003E01A7801338A4207D08342F9D1012078
:10ACE00004E0012002E0002000E000207047C046A0
:10ACF000A9660200AC660200AD66020030B583B002
:10AD0000141C022941D1264901AA6B4609F0FEF81C
:10AD1000012805D002283AD1009D012D39D812E032
:10AD2000A223DB00A022D205D358019AD3400120F0
:10AD300018403030211C08F0E3FC1A48211C08F0B0
:10AD40003FFD00202AE0184BA022D205D358019CD9
:10AD5000E340DA071FD5201CFFF7AAFF00281CD00C
:10AD6000002D08D10123A3401C1C104BA022D205AA
:10AD7000D450002012E00123A3401C1CA123DB00BF
:10AD8000A022D205D450002008E0094806E0084877
:10AD900004E0074802E0064800E0054803B030BD83
:10ADA0006463020034650200140500000C05000015
:10ADB0006280000030B583B0141C022964D1384988
:10ADC00001AA6B4609F0A2F8012805D002285DD13E
:10ADD000009D032D5CD823E0324BA022D205D2582F
:10ADE000019BDA400120D1070FD49B00A022D2059D
:10ADF0009B18E022D2009A580320510705D4E02284
:10AE0000D20098580007C00F400000903030211C3D
:10AE100008F076FC2448211C08F0D2FC00203CE01D
:10AE2000019C201CFFF744FF002833D0012D08D0DF
:10AE300002DC002D0ED02FE0022D13D0032D1AD0EE
:10AE40002AE0C134FF34A4000322A023DB05E25032
:10AE5000002022E0C134FF34A4000020A023DB0541
:10AE6000E0501AE0C134FF34A4000C22A023DB051B
:10AE7000E250002011E0C134FF34A4000422A023DA
:10AE8000DB05E250002008E0084806E0074804E03F
:10AE9000064802E0054800E0002003B030BDC0468F
:10AEA0006463020014050000346502006280000043
:10AEB00010B586B0022925D1174905AA04AB09F0BF
:10AEC00025F8022820D1059C201CFFF7F1FE002860
:10AED0001CD0049A642A1BD8684600210E2208F070
:10AEE00013FE01236A4613705470137102235371C9
:10AEF0009372684602F0F6F80020049902F0E2F935
:10AF0000002006E0054804E0044802E0034800E0B1
:10AF1000024806B010BDC0466463020062800000B3
:10AF200048DF70477047C046830702D50122044BB3
:10AF30001A708B0702D50022014B1A707047C04669
:10AF4000F22A0020014B18887047C046F02A0020E2
:10AF5000014B18887047C046442F0020014B1878D9
:10AF60007047C046F22A0020014B18707047C04657
:10AF7000F22A0020012805D10E4B9B7A1320002BCA
:10AF800004D115E0434243411320C01A002908D0E0
:10AF900001238340181CA123DB00A022D205D0503E
:10AFA00006E001238340181C034BA022D205D05099
:10AFB0007047C046703F00200C05000030B58DB0D2
:10AFC000A823DB005C4AD15800235C4A914204D894
:10AFD000A823DB00584AD3589BB2594A1380A823B0
:10AFE000DB00584AD1580023544A914204D8A82380
:10AFF000DB00544AD3589BB2534A1380002300937A
:10B00000202008210622514B03F098FE002803D08F
:10B010000021002200F0FAFB02204D4903F01AFA49
:10B02000002803D00021002200F0F0FB09A80B2328
:10B03000037009234370082383700A23C37001231C
:10B04000037100224271434B83606B46DA810E33F9
:10B05000414A04928022520005924049069107928B
:10B06000009304A93E4A012304F008F980B20028A5
:10B0700060D13C4B1B689868002108F095FE0920C0
:10B0800039494822002304F0D3FA002803D00021D4
:10B09000002200F0BBFB354804F0FAFA80B2002829
:10B0A00048D106F06FF980B2002843D102F092FE39
:10B0B00000283FD1A023DB050C21E822D2009950C3
:10B0C000A222D2009B58DA030BD4294807F044FD92
:10B0D000A223DB00A022D205D358DA0301D402F068
:10B0E000DBFDA024E4050C25224BE55001F04AFFCE
:10B0F000214BE55068462330022102221F4B03F00A
:10B10000E7F980B2002815D16B462333187803F095
:10B110000BFAA222D200A1588907C90F184A117050
:10B120000322E921C9006250164962500120002122
:10B13000FFF720FF0DB030BD00900040FEFF000083
:10B14000F02A002000A00040442F0020F42B002013
:10B150004830002000502700F42A0020482F00200B
:10B1600025AF0100DC29002070300020F111020021
:10B17000DC0500001C0700000407000029AF0100E7
:10B18000F22A00204C070000431E98411230044B65
:10B19000A022D205D358C340181C01231840704781
:10B1A00004050000014B587A7047C046703F0020EC
:10B1B000031C0020002B08D1A223DB00A022D20513
:10B1C000D058C009012358401840704708B5FFF710
:10B1D000A7FE08BD00000000F0B557464E464546A4
:10B1E000E0B48146284B1868420C5968C9031143E2
:10B1F000C003244B224A07F0B7FD041C0D1C224952
:10B200008846204F1E4EF423FF339A46484604F0EA
:10B2100081F9002812D042461068430C5268D103CD
:10B220001943C003321C3B1C07F09EFD001BA941C3
:10B23000002917D1EAD15045E8D913E0124B18681C
:10B24000420C5968C9031143C0030E4B0C4A07F066
:10B250008BFD001BA941002904D108D1F423FF3341
:10B26000984204D904F062F90120404200E04846C7
:10B270001CBC90469946A246F0BDC046C046C0469A
:10B28000E88000000000000058470020C046C0468B
:10B2900000B583B06846073004F028F9002802D1D1
:10B2A0006B46D87901E00120404203B000BDC046A2
:10B2B00000B583B06946073104F048F9002802D18F
:10B2C0006B46D87901E00120404203B000BDC04682
:10B2D00072DF704773DF704774DF7047A0DF70471D
:10B2E00060DF704768DF704708B505F081FF08BD73
:10B2F00038B50024064D2B19DA79002A03D01B69D2
:10B30000002B00D0984714343C2CF4D1002038BDD9
:10B310000029002030B58FB002282CD8694637317B
:10B32000164BDB7A0B700CAA154B84002518AD0068
:10B330005D19AD8815802418A4001B199B799370A2
:10B3400000230093029304930593069307930893B5
:10B3500009930A930B9306236C46E3700191012332
:10B3600023810392022800D1A3706846002104F0D3
:10B37000B3FB80B200E003480FB030BD703F002047
:10B38000002900206280000030B597B010AC022385
:10B39000237015236370124D291C6C3168464230AE
:10B3A000152208F0A8FB0DAA8223EB5A138017235D
:10B3B00093800F9401A80023019343608360C360CE
:10B3C000036143618361C36103628362C3620423D7
:10B3D000C3704262002104F07FFB80B217B030BD21
:10B3E000703F002070B59AB0061C14AC0023149373
:10B3F0001593169317931993544DA88FC0000521E8
:10B4000007F050FC2082EB8F6382002E04D014AB37
:10B410004F4A1A8200225A8249234C4AD35C012B9C
:10B420001BD0002B04D0022B0DD0032B20D089E0A1
:10B43000464B187D431E98414000FFF76BFF031CED
:10B44000002B54D07FE04348C17F00220023FFF748
:10B450003FFF83B2181E4AD075E014ABA0221A82B7
:10B4600000225A82FFF790FF031C002B3FD06AE0B6
:10B4700000F0DAFE002803D00120FFF74BFF36E092
:10B4800001AB0022039204920592069207920322D6
:10B490001A705A70304959802C4AA520105C05302A
:10B4A000187116205871D980102119729F21515C92
:10B4B00059729E23D35C002B05D001AB274ADA805A
:10B4C0005A8000221A7201AC68460E3024491222BA
:10B4D00008F011FB21782379C9180231C9B2201C68
:10B4E00000220023FFF7F4FE80B200282BD10023B6
:10B4F000089309930A930B930C930D930E930F9358
:10B500001093119312931393164808F0B1FD002382
:10B510001D2282425B41013308AA1370114808F0D2
:10B52000A7FD00231D2800D91D2308A94B7000206A
:10B5300004F0D2FA83B2181E05D114A8FFF7CAFE90
:10B5400080B200E007201AB070BDC046703F0020F6
:10B550006A030000DC3F0020AAFEFFFFD8FEFFFFC9
:10B5600016400020BC3F0020F0B55F4656464D46D1
:10B570004446F0B48BB008A8724B021C12CB12C226
:10B58000FFF7AEFE83B2181E00D0D3E06E4804F081
:10B5900075F883B2181E00D0CCE06C4804F078F83F
:10B5A00083B2181E00D0C5E080235B055B6B022BC5
:10B5B00011D101AC201C0021082208F0A5FA227844
:10B5C0000123134323700120211CFFF78BFE80B25F
:10B5D000002800D0AEE000F05DF900F0CDFA01F0F7
:10B5E000E9F85B4B5B4A117D2F2299541C1C1E1CF1
:10B5F0003C360127251CE379002B0FD0206800285A
:10B6000001D1A77105E001F003F8A071012800D86D
:10B610008FE0AB68002B01D0A87998471434B4426E
:10B62000E8D1B8234B4AD35C002B78D00026934650
:10B63000914673009B19DB005B44BC339A461B7D2B
:10B64000012B06D0504600F0E3FF53461875012841
:10B6500065D95446238A69460B80237D8B7001206F
:10B6600052461232FFF73AFE80B2002857D1B92372
:10B67000384CE35C002B4BD000253427A0463C1C03
:10B680006C434C44AD34FF342378B34239D1237D2D
:10B69000012B05D0201D00F0BBFF2075012830D9FB
:10B6A00001A80023019343608360C3600361436189
:10B6B00083615246538A03806378837063888380F2
:10B6C000237D8371037A032293430222134303727F
:10B6D000231C1833C360637D0382A37D4382E37D13
:10B6E0008382C3780F229343012213430F22134016
:10B6F00010221343C370211C2C3100F0B3FF00282B
:10B700000DD10135EDB2B9234446E35CAB42B6D866
:10B710000136F6B2B8230F4AD35CB34289D8482326
:10B720000C4AD35C0020002B04D0FFF75BFE002006
:10B7300000E007200BB03CBC90469946A246AB46C1
:10B74000F0BDC046B866020059B70100E9B2010079
:10B7500000290020703F002070B586B0051C00F065
:10B7600065F9281C05F082FB281C00F021FA2B88C3
:10B77000112B1FD0192B27D0102B3BD101200121D9
:10B78000FFF7F8FB4A231E4AD35C002B32D000237C
:10B7900000930193029303930493059303236A4652
:10B7A0001370A02313826846FFF794FD80B200282F
:10B7B00020D022E001200021FFF7DCFBFFF78CFD09
:10B7C0000020FFF70FFE15E0AB79002B12D1FFF739
:10B7D00083FD0120FFF706FE0CE03319DA79002A19
:10B7E00004D0DB68002B01D0281C984714343C2C73
:10B7F000F3D102E00024034EEFE706B070BDC0466F
:10B80000703F00200029002001207047BFF34F8FB8
:10B81000024A034BDA60BFF34F8FFEE70400FA05DC
:10B8200000ED00E077DF704778DF70477ADF704720
:10B830007CDF704784DF7047A7DF704762DF7047A7
:10B840007047C04608B5021C0B78122B10D0D9B235
:10B85000122902D8112B05D016E0142B0FD0212B62
:10B860000DD011E00948111C042208F044F90BE046
:10B87000064804F0FBFD064804F0F8FD04E0044827
:10B88000111C042208F037F9002008BDC430002044
:10B89000BC30002030B58BB0434804F0E7FD43488E
:10B8A00004F0E4FDFFF7B0FF40080124204001ABA5
:10B8B000187003AB002205923D4A039201221A71CF
:10B8C0000D225A7107229A711022DA71FFF79CFF3C
:10B8D000044209D001A804F023FC80B2002803D15F
:10B8E000344803A904F0B8FC334C201CFFF7A6FF32
:10B8F0002278324B1A70324B0B201856FFF792FF0A
:10B9000083B2181E4DD1FFF77FFF031C0020D9071B
:10B9100047D56A4613780F229343012213430F221F
:10B920001340102213436C462370264C201C08F051
:10B930009FFB82B26846211CFFF77AFF83B2181E74
:10B940002FD11F4B1B7D0020002B00D01E48FFF77E
:10B950006BFF83B2181E24D101AC194D288F8000D3
:10B96000052107F051F92080688F8000052107F03C
:10B970004BF960800023A380C8235B00E380201C78
:10B98000FFF754FF83B2181E0BD103A80F4A031C04
:10B9900032CA32C332CA32C312681A6005F020FAC2
:10B9A00080B20BB030BDC046C4300020BC30002097
:10B9B00045B80100C0300020C9300020C830002048
:10B9C000703F0020BC3F0020C1030000E866020079
:10B9D000014B18887047C0463C290020014B0020CD
:10B9E00018567047B8300020054B1B78FF2B05D048
:10B9F000034B9878FF38431E984100E000207047C1
:10BA0000BC30002000B585B0002300930193029361
:10BA1000039301236A4613700348694604F0BAFC95
:10BA200080B205B000BDC046BC30002010B5041C7B
:10BA3000FFF7EAFEC30702D5201C04F017FE238897
:10BA4000112B26D004D8012B09D0102B13D033E0B2
:10BA50001A2B27D0522B29D0182B2DD126E0174B8B
:10BA60001A78013216490878111CD2B2824200D9E4
:10BA7000011C197020E0A288124B1A80FFF7C4FE47
:10BA8000C30719D50F4B188801210022FFF7D2FEFA
:10BA900012E0012252420B4B1A80094B1A78074BD5
:10BAA0001A7009E0A279084B1A7005E0054B188856
:10BAB0000C21064AFFF7C0FE10BDC046C83000206A
:10BAC000C93000203C290020B8300020FFFF0000D2
:10BAD00008B5FFF799FEC30704D5034804F000FC3E
:10BAE00080B200E0014808BDC03000206380000043
:10BAF00008B5011C054B1A880820054B9A4203D053
:10BB0000044804F0C1FC80B208BDC0463C290020B6
:10BB1000FFFF0000C4300020024B1878431E9841FC
:10BB2000C0B27047C8300020024B1A78013A1A7030
:10BB30007047C046C830002044DF704711DF7047AF
:10BB400013DF704774DF704776DF704708B5FFF783
:10BB50003FFF084B984204D0FFF73AFF1321FFF74D
:10BB6000F3FFFFF7EFFF01200021FFF703FA05F0D5
:10BB700075F908BDFFFF000010B584B0FFF7E2F9CA
:10BB800001A90880074B4B6000238B60064805F035
:10BB900009FF84B2002C02D1044805F0F1FE201CFC
:10BBA00004B010BD11180200CC3000204DBB0100C4
:10BBB00008B5011C014806F06DF808BDCC30002026
:10BBC000064C064D061C064FF0B400240025002646
:10BBD0000027F0B40348004770470000FFFFFFFF55
:10BBE00000000021F9FFFFFF016881F30888406829
:10BBF0000022EFF305839A42E2D1024CA6460047A9
:10BC000070470000FFFFFFFF10B5FFF79FFFB12057
:10BC1000FFF792FF83B2181E19D1FFF78FFF83B28F
:10BC2000181E14D10A4B5869FFF78AFF84B2201EF0
:10BC30000DD1084B8021C903C022520099501968C8
:10BC400080229950024B5869FFF7CEFF201C10BD8F
:10BC50000010001000E100E074DF704777DF7047EC
:10BC6000A0DF7047A4DF7047A8DF704730B589B008
:10BC7000051C844C201C00214C2207F045FF0023AA
:10BC8000A370814A137007A982239B010B808D70DA
:10BC90000120221CFFF7E4FF83B2181E00D0EEE063
:10BCA000019302930593069376490B8868460380B7
:10BCB00007AB9B78837101231122C270734A828083
:10BCC00006220272022282708A1C039283824382BD
:10BCD0000382043100F0C6FC031C002B00D0CEE030
:10BCE0006B4B68468380037A0322934302221343FB
:10BCF000037208238370674B03930123038210238D
:10BD00004382002383825F490C3100F0ABFC031CAB
:10BD1000002B00D0B3E0604B69468B800B7A032286
:10BD20009343012213430B72002308228A7003936A
:10BD3000012268460A8210224A828B8251491431BC
:10BD400000F090FC031C002B00D098E0534B684699
:10BD50008380027A03239A4302231A430272082241
:10BD6000134383704E4B03930122028212224282BC
:10BD7000A63BA5229B5C838242491C3100F072FCE9
:10BD8000031C002B7BD1474B6A469380127A032316
:10BD90009A4302231A4368460272082213438370AF
:10BDA000414B03930123838243820382354924312B
:10BDB00000F058FC031C002B61D13C4B69468B8082
:10BDC0000A7A03239A4302231A430A72082213436E
:10BDD0008B70374B039304238B8268464B820B8214
:10BDE00028492C3100F03EFC031C002B47D1314B7D
:10BDF0006A469380127A03239A4302231A436846C1
:10BE000002720822134383702B4B03930123838216
:10BE1000438203821B49343100F024FC031C002BB5
:10BE20002DD1264B69468B800A7A03239A4302233D
:10BE30001A430A7208221A438A70214A03928B829B
:10BE400068464B820B820F493C3100F00BFC031C0F
:10BE5000002B14D11B4B6A469380127A03239A431A
:10BE600001231A436846027208228270002203925C
:10BE70008382438203820349443100F0F3FB09B01B
:10BE800030BDC046FC300020583100208120000029
:10BE900082200000FC3F002083200000842000005E
:10BEA00016400020852000000D4000208620000064
:10BEB000104000208720000014400020882000004F
:10BEC000AC3F002089200000F0B5474680B484B024
:10BED000041C0388512B00D00BE18379022B00D086
:10BEE00007E1028B854B1B889A4200D001E1837ADF
:10BEF000012B00D0FDE0038A81481A1892B2012A72
:10BF000026D87E4A9278002A16D09C237D4AD25C9D
:10BF1000238C934200D0E4E0201C22307A4907F0C1
:10BF2000DBFD002800D0DCE0228A7549521853421C
:10BF30005A41724B9A70CAE0744A934200D0D0E0E2
:10BF4000238C013B9BB200220E2B00D8B1E0C8E04D
:10BF50006A4B9B78002B00D0C3E0B8E0258C00230F
:10BF60009D420DD1C3E0218CA523664AD15401F036
:10BF700017FE0022664B1A70B9E001F011FEB6E020
:10BF80002026102294460427B846E21820329178E1
:10BF9000CAB2101CB04340B228300DD0101C674606
:10BFA000B84340B2143007D04046824352B21032F8
:10BFB00002D0814300D097E00133DBB29D42E4D848
:10BFC000A423504AD35C9D4200D890E0E31820336C
:10BFD0009D78131C0B229A566BB29A4200D186E0D0
:10BFE000181CFFF73BFE80B2002800D07CE0454BD8
:10BFF000DD7201F0D5FD7AE02223E35C032B73D8D8
:10C00000A42240498A5C9A4271D0CB1898331D7A99
:10C01000CA7A52B26BB29A4269D0181CFFF71EFE60
:10C0200080B2002860D1374BDD7201F0B9FD5EE0CF
:10C030006846211C2231022207F05DFD69460B880B
:10C04000191C143989B2334A91424DD82D4A928F26
:10C050009A424CD001F0A4FD49E02A4D281C8C30B6
:10C0600000212C2207F050FD10229C23EA54EE22DE
:10C070009F23EA540422A023EA54FC22A223EA5478
:10C08000F422A323EA540122A423EA540A22A5237A
:10C09000EA54281CA63020490B2207F02CFD281C4E
:10C0A000B1300021072207F02FFD01F079FD1EE0DD
:10C0B00000220023009301930293039302236F460F
:10C0C0003B70BA80A0886946FFF7CEFD11E0238A55
:10C0D00012495B189AB2052AEAD89300104AD3583D
:10C0E0009F4684225200E4E784225200E1E70022C6
:10C0F000DFE704B004BC9046F0BDC046FC30002031
:10C100007EDFFFFF703F0020FC3F00208220000008
:10C1100058310020EC2700001C6702007CDFFFFF85
:10C12000046702000000000038B5174B1B78002B95
:10C1300021D0164CA568164B1868420C5968C903E3
:10C140001143C0030F4B0E4A06F00EFE22686368CF
:10C15000801A9941002901D185420CD800220A4B4E
:10C160001A70FFF779FDFFF733FC0A4B984202D1B2
:10C170000020FFF737F9002038BDC046C046C04652
:10C18000E880000000000000583100204831002005
:10C1900058470020FFFF000030B583B0031C0C1C83
:10C1A0000B4D281C191C221C07F0A5FCA63DA5233D
:10C1B000EC54FFF70DFC074B998B00230093019380
:10C1C0006B461C806A46FFF74DFD80B203B030BD60
:10C1D00016400020FC30002010B5002814D00122A9
:10C1E0000D4B1A700D4CFA239B005843A0600C4B6A
:10C1F0001868420C5968C9031143C003054B044A2F
:10C2000006F0B2FD2060616010BDC046C046C04669
:10C21000E880000000000000583100204831002074
:10C2200058470020C046C046014B18787047C046AA
:10C2300058310020A0DF7047A6DF704710B586B0E8
:10C24000FFF7C6FB2B4B98420BD12B4801F00AFAA3
:10C25000FEF7A8FF02284AD100200021FEF78AFE3F
:10C2600045E0FEF79FFF022811D1234B1B899BB2AB
:10C27000002B04D0214B1B899BB2002B07D1FEF76A
:10C2800091FF022803D100200021FEF773FEFFF783
:10C2900043FC00282BD0184819491431142201F00E
:10C2A00045F96B46D882002821D0164B1870FEF74E
:10C2B00079FF022803D100200121FEF75BFE01ACCB
:10C2C0000023019302930E4B9A8822800122A270D0
:10C2D0006A461632039214330493FFF779FB211C4C
:10C2E000FFF7AAFF80B2002801D1FFF71DFC06B0BE
:10C2F00010BDC046FFFF000040290020502900204B
:10C300005C3100208831002030B589B0051C324CEA
:10C31000201C0021282207F0F7FBA57007A90123A4
:10C320000B808D700120221CFFF784FF83B2181E42
:10C330004FD101930293059327490B886A461380D6
:10C3400007AB9B789371022313720123138214238A
:10C3500053822123D37003239380102393700B1CEB
:10C36000143303931D4B06930431684600F07AF9A9
:10C37000031C002B2DD102236A469380082393705F
:10C3800000230393164B0693684613490C3100F0C3
:10C3900069F9031C002B1CD11248134907F06CF9F2
:10C3A000031C124A10600520002B12D0181C00211B
:10C3B00007F0FAFC0E4801F055F90E4801F052F969
:10C3C00000220D4B1A700D4801210D4A02F04AFD62
:10C3D00080B209B030BDC0465C3100203067020039
:10C3E0003467020038670200406702006C3B00209F
:10C3F000402900205029002059310020843100209C
:10C400003DC2010000B583B006486946073101F01E
:10C4100049F8002802D06B46D87901E0012040425B
:10C4200003B000BD5029002000B583B0011C0748AF
:10C430006A46073201F094F8002802D06B46D8799A
:10C4400001E00120404203B000BDC0465029002059
:10C45000014B188980B2704750290020014B188980
:10C4600080B2704740290020F0B54F464646C0B420
:10C4700083B06B46D8712C4B1868420C5968C903BD
:10C480001143C003274B264A06F06EFC041C0D1C0A
:10C4900026498946244A9046224F214E02E0012037
:10C4A00006F05AFB48466946073101F085F8002836
:10C4B00017D143461868430C42465268D1031943CA
:10C4C000C003321C3B1C06F04FFC021C0B1C121B51
:10C4D000AB41002B02D1E2D1C72AE0D90120404272
:10C4E00016E0114B1868420C5968C9031143C00388
:10C4F0000C4B0B4A06F038FC001BA941002905D162
:10C5000001D1C72802D86B46D87901E0012040420A
:10C5100003B00CBC90469946F0BDC046C046C0462C
:10C52000E88000000000000058470020402900205B
:10C5300070B50388102B08D002D8012B2FD03EE015
:10C54000112B09D0502B0CD039E01D4B18686221FB
:10C55000002202F0BFFC32E0194B186802F010FD17
:10C560002DE0C288174B9B899A4228D1C38B002BA0
:10C570000CD00024144E851D29191A31301C01F0ED
:10C580001BF80134A4B22B8BA342F5D8FEF70AFEA8
:10C59000022814D100200121FEF7ECFC0FE0027A02
:10C5A0000A4B1B789A420AD1FEF7FCFD022803D100
:10C5B00000200021FEF7DEFC0022044B1A7070BD43
:10C5C000843100205C310020502900208831002077
:10C5D000014B18787047C0465931002008B5064B0A
:10C5E0001A7801218A1A1A70044801F03BF80448AD
:10C5F00001F038F808BDC04659310020402900201C
:10C6000050290020A2DF704763DF704764DF704766
:10C6100010B586B000226B46DA7100235942C21869
:10C62000D47B02AA8C54013B1A1C1032F6D102A80A
:10C6300000234373037369460731FFF7E5FF83B2B5
:10C640000F2B08D1102002A96A46FFF7DFFF6B46C7
:10C650009A78DA7102E00020002B01D16B46D8797C
:10C6600006B010BDF0B5474680B490B0041C0D1C58
:10C67000C378002B08D10F229343012213430F22CA
:10C68000134010221343C370484B5B7B002B09D12E
:10C69000E3780F229343012213430F221340102209
:10C6A0001343E370A37830221A4217D00FAE301C28
:10C6B0000021032207F028FAB378062293430222CE
:10C6C0001343B37033780F229343012213430F2295
:10C6D0001340102213433370E378737008AA0020CC
:10C6E000089009900A900B900C900E90A37813700C
:10C6F00000223021194200D00FAA0D9207AA002370
:10C7000013801123137002239370A06900280BD0AB
:10C710000378002B08D008AE099007F0A9FC80B27E
:10C720003081708107AB336106AB00221A80618AC9
:10C73000268A761A771EBE4101221640207A0327E8
:10C7400007407F00F6B2B446C6081640F600B04671
:10C750006646374380080240100142463A4302438E
:10C760009A70A37832221A4202D0E27806AB1A708D
:10C77000A3781A0702D5E27806AB5A7001AA002303
:10C780009360D360231D019306AB5360A38A13818A
:10C790009181E3681361208808A92B1CFFF732FF01
:10C7A00080B210B004BC9046F0BDC046703F00207F
:10C7B000A0DF704710B594B012A83C49042207F0DE
:10C7C0009AF9012012A96A464E32FFF7F1FF83B2AF
:10C7D000181E68D10BAC0C930D930F93109311930B
:10C7E0006B464E331B8823800223A3700122A27163
:10C7F00023721123E3702E4BA3802E480E9007F076
:10C8000037FC80B2A08260822082201C09A9FFF739
:10C8100029FF031C002B46D10BAC274BA3802748D4
:10C820000E9007F025FC80B2A08260822082201C3E
:10C8300007A9FFF717FF031C002B34D10BAC204BCB
:10C84000A38020480E9007F013FC80B2A082608283
:10C850002082201C05A9FFF705FF031C002B22D115
:10C860000BAC194BA38001F035FCE06007F000FC35
:10C8700080B2A08260822082201C03A9FFF7F2FE12
:10C88000031C002B0FD10BAC104BA38001F008FC54
:10C89000E06007F0EDFB80B2A08260822082201C65
:10C8A00001A9FFF7DFFE14B010BDC04644670200C7
:10C8B000292A000048670200242A0000706702004D
:10C8C000282A00005C670200262A0000272A0000B0
:10C8D00010B50C1C0B78022B0DD1FFF785F8002842
:10C8E00001D0FFF78FF8E379022B04D10248002131
:10C8F000052207F009F910BD8C310020F0B54F4634
:10C900004646C0B49BB014AC00226260E260626133
:10C91000082323800123A370E37021212171617119
:10C9200002212181A172E37221212173617305210A
:10C93000218203218946A174E37421212175617547
:10C9400012AF13923B80BB700223FB7021237B71DB
:10C9500001250F2290462026BB71684600214822FF
:10C9600007F0D2F82F4B00932F4B1B7D69460B72BB
:10C970004B724A468A7203940D7405972B4B0893A9
:10C98000A9238B8442462A4032432C23CA540223D3
:10C99000FF336A460B8633234946D15442462A4028
:10C9A000324334236946CA5442462A4032433C2328
:10C9B000CA5442462A4032433D23CA5442462A4082
:10C9C00032433F23CA5442462A4032434023CA548A
:10C9D00042462A4032434123CA5442462A40324307
:10C9E0004323CA5442462A4032434423CA5442464F
:10C9F0002A4032434623CA54424615402E43472319
:10CA0000CE540B4805F022FD84B2002C04D1094815
:10CA10000021052207F078F8201C1BB00CBC9046C2
:10CA20009946F0BDD1C80100703F00207C6702002C
:10CA3000943100208C31002008B5011C014805F01C
:10CA4000FBFB08BD94310020F0B5474680B482B0AE
:10CA5000041C0D1CFEF7BCFF0823374A904260D02F
:10CA600068460021082207F04FF869460D7063B24E
:10CA7000002B02DB314B1B5D00E000236A46937004
:10CA8000FFF74AF800283ED12D4B1868420C596830
:10CA9000C9031143C003274B254A06F065F9041C5E
:10CAA0000D1C274B9846234F214E02E0192006F01B
:10CAB00053F8FFF731F8002813D141460868430CBA
:10CAC0004A68D1031943C003321C3B1C06F04CF9E1
:10CAD000001BA941002902D1E8D1C728E6D90423C7
:10CAE0001FE0174B1868420C5968C9031143C00373
:10CAF000104B0F4A06F038F9001BA94100290FD14D
:10CB000001D1C7280CD80F48002108226B4605F038
:10CB1000E5FF84B2231E04D1FFF706F8231C00E0D2
:10CB20000423181C02B004BC9046F0BDC046C046A9
:10CB3000E880000000000000FFFF000028680200FD
:10CB40005847002094310020F8B54F464646C0B4FF
:10CB50008146FEF73DFF0823314A904254D0FEF74C
:10CB6000DBFF002842D12F4B1868420C5968C903DB
:10CB70001143C003294B284A06F0F6F8041C0D1C8B
:10CB800028488046254F244E02E0192005F0E4FF96
:10CB9000FEF7C2FF002815D141460A68530C4868C9
:10CBA000C1031943D003321C3B1C06F0DDF8021C04
:10CBB0000B1C121BAB41002B02D1E6D1C72AE4D9D2
:10CBC000042321E0174B1868420C5968C90311432C
:10CBD000C003124B104A06F0C7F8021C0B1C121BB4
:10CBE000AB41002B0FD101D1C72A0CD80E48002130
:10CBF00008224B4605F072FF84B2231E04D1FEF7D3
:10CC000093FF231C00E00423181C0CBC904699469B
:10CC1000F8BDC046C046C046E880000000000000E5
:10CC2000FFFF00005847002094310020C046C04656
:10CC3000F0B5474680B4041CFEF7CAFE0823364A06
:10CC4000904261D02378FF2B08D1344D2E78281CD8
:10CC5000211C052206F04FFF2E7004E02F48211CF6
:10CC6000052206F048FFFEF757FF00283ED12C4B67
:10CC70001868420C5968C9031143C003254B244A64
:10CC800006F072F8041C0D1C25498846214F204EE1
:10CC900002E0192005F060FFFEF73EFF002813D1E7
:10CCA00042461068430C5268D1031943C003321C3A
:10CCB0003B1C06F059F8001BA941002902D1E8D11C
:10CCC000C728E6D904231FE0154B1868420C5968A1
:10CCD000C9031143C0030F4B0D4A06F045F8001B72
:10CCE000A94100290FD101D1C7280CD80D48022134
:10CCF00005220A4B05F0F2FE84B2231E04D1FEF792
:10CD000013FF231C00E00423181C04BC9046F0BD54
:10CD1000E880000000000000FFFF00008C310020D0
:10CD20005847002094310020F8B54F464646C0B41D
:10CD30008146FEF74DFE0823314A904254D0FEF75B
:10CD4000EBFE002842D12F4B1868420C5968C903EA
:10CD50001143C003294B284A06F006F8041C0D1C99
:10CD600028488046254F244E02E0192005F0F4FEA5
:10CD7000FEF7D2FE002815D141460A68530C4868D8
:10CD8000C1031943D003321C3B1C05F0EDFF021C0C
:10CD90000B1C121BAB41002B02D1E6D1C72AE4D9F0
:10CDA000042321E0174B1868420C5968C90311434A
:10CDB000C003124B104A05F0D7FF021C0B1C121BBC
:10CDC000AB41002B0FD101D1C72A0CD80E4801214D
:10CDD00002224B4605F082FE84B2231E04D1FEF7E8
:10CDE000A3FE231C00E00423181C0CBC90469946AB
:10CDF000F8BDC046C046C046E88000000000000004
:10CE0000FFFF00005847002094310020C046C04674
:10CE100022DF704723DF7047F0B54F464646C0B467
:10CE2000404AA023DB00D05884460021D150A023E3
:10CE3000DB05E622D200995889463B4999503B4A86
:10CE4000985880469950A122D2008021890199509A
:10CE500080214901995004200138C046C046C0468F
:10CE6000C046C046C046C046C046C046C046C04692
:10CE7000C046F1D1A223DB00A022D205D3589904E9
:10CE800007D5A223DB00A022D205D3580120DA0463
:10CE900035D41222A023DB05254F80214901A1268C
:10CEA000F600A225ED008024A401D9510420013808
:10CEB000C046C046C046C046C046C046C046C04642
:10CEC000C046C046C046C046F1D199510420013841
:10CED000C046C046C046C046C046C046C046C04622
:10CEE000C046C046C046C046F1D15859204203D181
:10CEF000013A002AD9D101E0012000E00020A0235E
:10CF0000DB05E622D20049469950084A414699502D
:10CF1000A023DB00034A6146D1500CBC90469946E1
:10CF2000F0BDC046003000400D0600003407000090
:10CF30000C05000010B5114BB122D200985001220F
:10CF40009A6000208221490058505A61191C82229F
:10CF500052008B58002BFCD0084B00228221490044
:10CF60005A500749585802245C50922149005A509F
:10CF7000400801235840184010BDC0460030004012
:10CF8000C404000008B5A023DB05184AE621C90047
:10CF90005A5017495A50174B0022842149005A50C1
:10CFA0008E2149005A500C21A122D20099500D2106
:10CFB000114A9950CC214904104A99500020104937
:10CFC000104AFFF727FF002300280DD10120FFF7AB
:10CFD0001FFF0023002807D10521A023DB00054AFD
:10CFE000D150FFF719FF031C181C08BD0C060000E8
:10CFF00034070000003000400C050000240500004C
:10D00000383100401C30004030B507291CD80124BD
:10D01000231C8B4019020823184308430B4B0C4D6B
:10D020005851A021C9005C50002A0DD0C1229200A5
:10D0300001219950074B98580002000A8021C90528
:10D040000143995080221A6030BDC04600700040F4
:10D050000405000000E100E0054B1A21054A995043
:10D06000802205498A500121A022D20099507047A0
:10D07000007000400405000000E100E00122084BC0
:10D080001A60191C802252008B58002BFCD0044BD4
:10D090000021802252009950A122D2009858704756
:10D0A0000070004008B5FFF7E9FFE1231B0158437A
:10D0B000800A08BD2EDF704733DF704721DF7047DD
:10D0C00023DF704710B5041E0F2C08D8C0B2FFF73D
:10D0D000F7FF0120A040FFF7F1FF201C01E0012035
:10D0E000404210BDF8B55F4656464D464446F0B442
:10D0F0000378013B022B00D9A0E0437B042B00D92D
:10D100009FE09B00634AD3589F460921A223DB007E
:10D11000614AD1506422614B1A6023E00821A223A6
:10D12000DB005D4AD150FF225C4B1A601AE00521FA
:10D13000A223DB00584AD150FA229200574B1A60C2
:10D1400010E00221A223DB00534AD1506422534B4A
:10D150001A6007E00021A223DB004F4AD150FF22D2
:10D160004E4B1A6006784E4B1E60002E6CD0021C8F
:10D1700000234C498A46A021C90589460324A046BC
:10D18000494DAC469B465478990055464C51C134A4
:10D19000FF34A40045464F46E5515C466746CC51F6
:10D1A000917A424D5955013301329E42EBD83A4BA8
:10D1B0000122DA600022A121C9005A5037490C68C7
:10D1C00064003B495C503B495A5008248021890047
:10D1D0005C50A62149005A50A42149005A50A2216E
:10D1E00049005A50A02149005A50051C0023002430
:10D1F0002E4FB946304988464A46A75CBF002F49A2
:10D200007F1828799B002E4A99183A1CFFF75AFF7D
:10D21000687941463A1CFFF755FF0134231C02355B
:10D22000A642E9D80A200321FFF746FF0A20FFF7AC
:10D2300041FF0122184B1A60002024E001204042E7
:10D2400021E0012040421EE0134B0122DA6000225F
:10D25000A121C9005A50114908684000144958508A
:10D2600014495A500820802189005850A6214900AD
:10D270005A50A42149005A50A22149005A50A021D5
:10D2800049005A50CEE73CBC90469946A246AB4670
:10D29000F8BDC046A868020000A000403C33002052
:10D2A00014330020243300203033002010330020BA
:10D2B0004C050000040500004CA100400060004047
:10D2C00040A1004080000E4BC1500E4B0021A62211
:10D2D000520099500C49802292009950C12292002C
:10D2E0009B581A0307D4074B01225A608021090377
:10D2F000C122920099500122024B1A607047C04629
:10D300001833002000A0004008080000F0B5454A8E
:10D310000023A6214900535001204042C221890028
:10D320005050414A1360414B1B68002B72D00023C0
:10D330003F4D404E141C9A005259002A15D13E4AC6
:10D34000D75C4537FF37BF003C493D4AB9509B0089
:10D350003C4A9A580127391C91403B4AA027FF05B7
:10D36000B9500027394A9F504CE03068824216D3AA
:10D370003149CF5C4537FF37BF003049304AB9509B
:10D380009B00304A9A580127391C9140A122D200B3
:10D39000A027FF05B95000272C4A9F5032E05100CA
:10D3A000A82040001A1892001E4FD1519A00274918
:10D3B0005258002A26D1204AD75C9B0021481A588F
:10D3C0000123181C9040A123DB00A021C905C850EF
:10D3D000BB001B495B181E49A227FF00D951C0465C
:10D3E000C046C04601271F6012021A4F3A43A227C7
:10D3F000FF00DA51C046C046C046226893000122B1
:10D4000012481A50084A136801331360074A126819
:10D410009A4290D8034B0821802292009950012211
:10D420001A60F0BD00A000400C330020143300202F
:10D43000183300203C33002010330020001F03006D
:10D4400000600040243300200C0500003033002031
:10D45000031F01000300130010B5074C0123A12294
:10D46000D200A350054AA350C003FA21890005F059
:10D47000CBFB034BE05010BD000001400C05000049
:10D48000040500000122014B1A60704700000140B2
:10D490000249C023DB00024AD15070473546526E24
:10D4A0000000014010B5041C0068002837D0A38894
:10D4B0000020002B36D0E388002B33D023899BB289
:10D4C000002B2FD0A37B5AB2002A07DD1F22134066
:10D4D00001229A40131C802213488350A389E288BA
:10D4E00053432068C318081C191C06F004FBA089CC
:10D4F0000130A18805F02CFC89B2A1812389013B70
:10D500009BB22381A37B5AB2002A0ADD1F2213405B
:10D5100001229A40131C044A1360012002E00020FB
:10D5200000E0012010BDC04600E100E0F8B5061C97
:10D530000C1C171C00200025002A06D10EE0013526
:10D54000ADB2F388E418BD4207D0301C211CFFF7B0
:10D55000A9FF0028F3D1281C00E0281CF8BDC04614
:10D56000F0B5474680B4031C171C0468002C1FD07C
:10D5700085880020002D1CD0DA889046002A18D01B
:10D580001E89B6B2002E14D01A8992B28A4210D9DE
:10D5900098894018291C05F0DBFB0904090C434657
:10D5A00059436118381C424606F0A5FA012000E0F4
:10D5B000002004BC9046F0BD70B5041C0E1C03682E
:10D5C000002B46D083880020002B45D0E288002A1B
:10D5D00042D0228992B2934202D1E07B00283BD014
:10D5E000A37B5AB2002A07DD1F22134001229A4072
:10D5F000131C802219498B506089E28850432368AC
:10D600001818311C06F077FA6089A5880130291CAA
:10D6100005F09EFB89B2618123899BB29D4207D1AF
:10D6200031780F4806F028FB63899BB2A38103E0A1
:10D63000238901339BB22381A37B5AB2002A0ADDDE
:10D640001F22134001229A40131C044A1360012038
:10D6500002E0002000E0012070BDC04600E100E0D3
:10D66000BC680200837B5AB2002A07DD1F221340E8
:10D6700001229A40131C802208498B500023038109
:10D6800043818381837B5AB2002A06DD1F22134027
:10D6900001229A40131C014A1360704700E100E028
:10D6A00038B5FDF77FFD012852D1494CA568494B9B
:10D6B0001868420C5968C9031143C003434B424ADE
:10D6C00005F052FB22686368801A9941002901D154
:10D6D00085423DD8404B1A7801321A700020FDF780
:10D6E00053FD0123011C5940C9B20020FDF742FC43
:10D6F000FDF734FC002806D1374B1B78032B02D9E9
:10D700000022354B1A70FDF729FC012807D1324B56
:10D710001B78052B03D900222F4B1A7003E02E4BE8
:10D720001B78002B14D100200021FDF723FC284C8E
:10D73000FA23DB00A360274B1868420C5968C90321
:10D740001143C003214B204A05F00EFB20606160AD
:10D75000224CA5681F4B1868420C5968C903114335
:10D76000C0031A4B184A05F0FFFA22686368801A52
:10D770009941002901D1854212D80120FDF704FD0D
:10D780000123011C5940C9B20120FDF7F3FB002021
:10D79000FDF70EFD002816D10122114B1A7012E080
:10D7A0000020FDF705FD00280DD10A4B1868420C3A
:10D7B0005968C9031143C003044B034A05F0D4FA66
:10D7C000064B1860596038BDE8800000000000007A
:10D7D00048330020584700204033002060290020B3
:10D7E00041330020C046C04670B5FDF7B7FB0028A6
:10D7F00008D001284ED17B4B1B6858689968FBF70D
:10D8000001F847E0774B1B685868FAF745FF002896
:10D8100040D1744B186842685368013B5360002B39
:10D8200004DA416806F07EFA041C04E042681368DA
:10D83000591C11601C78611C2CD0FEF7C9F86A4B8A
:10D84000984227D0694B1A689368013B9360002B7C
:10D8500019DA91698B4210DB13681C70634B1A68EC
:10D86000136819780A2902D00133136012E05D4B66
:10D8700018680A2107F0ECFC0CE05A4B1868211CD0
:10D8800007F0E6FC06E013681C70584B1B681A682A
:10D8900001321A60FEF79CFE00280ED0012800D04D
:10D8A0009DE0FEF795F8504B984200D197E04F4B22
:10D8B0001968081CFAF7A6FF91E0FDF74FFB002856
:10D8C00043D14A4B1868FAF7E7FE002800D086E0FB
:10D8D000464B19684B68013B4B60002B05DA414B06
:10D8E000186806F01FFA011C03E00B685A1C0A6056
:10D8F00019784A1C73D03B4B186882689368013BC7
:10D900009360002B17DA826893689469A3420FDB57
:10D9100013681970334B18688268136819780A29DC
:10D9200002D0013313605AE00A2107F091FC56E05F
:10D9300007F08EFC53E083681B681970294B1B6845
:10D940009B681A6801321A6049E0FEF781FDC4B293
:10D95000032C44D9FF250540244B1868691E89B261
:10D9600000F0EEFA0D2801D00A2838D1023DADB200
:10D970001E4B1868291C00F0E3FA2B282AD0042C2F
:10D980002DD90D2828D003240A2826D027E02B1BC8
:10D9900099B2306800F0D4FA2B2804D1013CE4B2EB
:10D9A000002CF4D101E0002C19D1FEF717FEFEF790
:10D9B0000FF80D4B984212D00C4C2568FEF708FE6C
:10D9C000021C281C0A4905F063FE2168094805F07D
:10D9D000F7FE04E0022400E00324044ED7E7002011
:10D9E00070BDC046DC290020FFFF00006C3B00201A
:10D9F000105C0200F85B020070B582B0FDF7DEFA41
:10DA0000FDF7B2FDFAF784FD01A80121184A01F0E3
:10DA100029FA83B2002B02D00004000C25E0019803
:10DA2000F821002201F056FA83B2181E1DD11148C8
:10DA3000FFF712FDFFF726FD0F4D104E0124FFF7F3
:10DA400027FD2B78002B03D0301C0021FAF770FD46
:10DA5000FDF74EFCFDF7D8FEFDF7D6FE044201D0DF
:10DA6000FFF7C2FEFDF7B2FBE9E702B070BDC046AA
:10DA7000A1D601001027000041330020CC6802002D
:10DA80002BDF70472CDF70472DDF7047074B9B68FB
:10DA900002689A4209D14268044BDB689A4204D179
:10DAA000022902D10022024B1A7070475C33002019
:10DAB0005833002030B583B0294B1B78002B4DD054
:10DAC000284C294B6360FD23DB006380274D201C1D
:10DAD000291C002203F068FE6051254B1B78002BA7
