:020000021000EC
:108000000080002085290200E9290200EB290200F6
:108010000000000000000000000000000000000060
:10802000000000000000000000000000ED29020038
:108030000000000000000000EF290200F12902000A
:10804000F3290200F3290200A9EF0100F32902003D
:10805000F32902000000000099E10100F329020069
:10806000F3290200F329020085D10100F32902005F
:10807000F3290200F3290200F3290200F329020088
:10808000F329020071E50100F3290200F32902003F
:1080900079E601005D1C020091F40100F329020061
:1080A000F3290200F3290200000000000000000094
:1080B00000000000000000000000000000000000C0
:1080C000164B002B00D1144B9D46402292029A1A67
:1080D000924600218B460F461348144A121A0BF0A1
:1080E00009FC0F4B002B00D098470E4B002B00D003
:1080F00098470020002104000D000D48002802D000
:108100000C4800E000BF0BF067FB2000290005F0E1
:108110009FFB0BF053F9C0460000080000800020D0
:108120000000000000000000D82900204047002087
:10813000000000000000000030B583B0041C0D1CDE
:10814000019001A900220BF083FF019BA34206D0FE
:108150001A780023002A03D12860012300E00023BD
:10816000181C03B030BDC04630B583B0041C0D1CD4
:10817000019001A900220BF0F5FF019BA34206D05C
:108180001A780023002A03D12860012300E000238D
:10819000181C03B030BDC04610B582B00C1C01A93C
:1081A000FFF7CAFF002805D0019BFF2B01D82370E1
:1081B00000E0002002B010BD10B582B00C1C01A977
:1081C000FFF7BAFF002807D0019B1A1C8032FF2A54
:1081D00001D8237000E0002002B010BD10B582B0BD
:1081E0000C1C01A9FFF7A8FF002806D0019B044A38
:1081F000934201D8238000E0002002B010BDC046A9
:10820000FFFF0000F0B583B0041C0D1C171C0378A1
:10821000202B03D101342378202BFBD0201C01A973
:1082200010220BF015FF019BA34221D91C1B022C2D
:1082300020DC6E1C28701A782D2A1DD1012F22D91E
:10824000012508E030700135EDB21A782D2A14D1DD
:108250000136BD4217D05C1C201C01A910220BF076
:10826000F7FE019BA34208D91C1B022CEADD04E0A7
:10827000002502E0002500E001251878434258411E
:108280004042284000E0002003B0F0BDF0B55F465A
:108290004E464546E0B486B0041C9046002A00D104
:1082A000C4E0002800D1C3E00D1C0026201C2C21B6
:1082B0000BF0B6FD002803D0471C0023037000E03C
:1082C000071C2378002B00D1A7E0A9462A78082AAA
:1082D00000D9AFE092005D4882589746202B03D129
:1082E00001342378202BFBD049464B681C6094E076
:1082F0006A78201C6968FFF785FF031C6B7000D04B
:108300008BE09CE0201C04A9FFF716FF002800D199
:1083100095E04F4B049A9A4203D1201C04A9FFF721
:1083200023FF4B46586804A904220BF0DAFA74E0E4
:108330006968201CFFF752FF00286ED17FE0696852
:10834000201CFFF729FF002867D178E06968201C0E
:10835000FFF732FF002860D171E0201C6968FFF749
:10836000EBFE002859D12378202B03D10134237848
:10837000202BFBD04B465A78201C996805F04AFE0A
:108380000490002801DA002059E04946486804A911
:1083900004220BF0A6FA40E0201C6968FFF7FCFEFF
:1083A00000283AD104AB2B4905C905C32378202BFB
:1083B00003D101342378202BFBD0201C04A90222F6
:1083C00005F028FE0390002801DA002037E04B4634
:1083D000586803A901220BF084FA1EE01E480068C9
:1083E000C3185B78590716D4201C05F0FDFDAA6858
:1083F0009346201C0BF032FD021C5846211C05F050
:108400003DFD0490154B984205D068686A7804A930
:108410000BF067FA01E0002011E00136F6B24645A4
:108420000AD00C35002F09D03C1C3FE7002006E0A5
:10843000002004E0002002E0301C00E0301C06B008
:108440001CBC90469946A346F0BDC0469859020010
:10845000FFFFFF7FBC59020070290020DFFDEF7E87
:10846000F8B5051C0E1C171C0A7808490BF006F815
:10847000012F0AD9741CF719054E2278281C311CCB
:108480000AF0FCFF0134BC42F7D1F8BDC459020028
:10849000CC590200F0B5474680B4141C002921D104
:1084A000134B1B689A421FD01248111C0BF07EF828
:1084B000114B1D1DE0339846104F114E381C211CE6
:1084C0000BF074F8301C211C0BF070F801CD211C4E
:1084D0000BF06CF84545F1D10A48211C0BF066F809
:1084E000002002E0084800E0084804BC9046F0BDC7
:1084F000503B0020D8590200E85C0200DC59020021
:10850000E0590200206302006280000063800000E6
:1085100010B5054C201C0021802252000BF0EAF916
:10852000024B1C6010BDC046DC290020D829002069
:10853000F0B5474680B4071C88464C490BF07CFCDC
:10854000002831D03B78002B13D03D2B11D03A1CA2
:10855000474D03242868C11848782040191C022878
:1085600000D12039117001321378002B01D03D2B3E
:10857000F0D1381C0BF072FC012805D93B78412B57
:1085800002D17B78542B05D03A4841460BF00EF8C7
:10859000394868E0BB780237002B05D1374841469F
:1085A0000BF004F800205EE0354E00243568281CEE
:1085B0000BF054FC021C381C291C0BF07BFC00281F
:1085C00005D00134E4B20436382CEFD101E0382C68
:1085D00005D1284841460AF0E9FF2A4843E0251C16
:1085E000A400274BE0580BF039FCFF2318403F183C
:1085F000381C25490BF020FC002805D11F484146B6
:108600000AF0D4FF00202EE0381C20490BF014FCA7
:10861000002802D1013701210EE03B783D2B02D129
:108620000137022108E00021002B05D01148414606
:108630000AF0BCFF134816E0AD00154BEB58381C90
:1086400042469847041C134B1B78002B07D1002887
:1086500001D10A4800E0074841460AF0A7FF00227E
:108660000C4B1A70201C04BC9046F0BDD859020077
:1086700070290020EC59020060800000E4590200DB
:10868000E85C020061800000F4590200F859020021
:10869000C85D0200DC2A0020F8B54F464646C0B44B
:1086A000041C514B1B68C31A5A425341DBB2984613
:1086B0009B004E4FFF18381C0BF0D0FB8146C6B212
:1086C000201C311C05F050FB051C431C03D1731EFC
:1086D0009E41F0B284E00D2801D00A2861D1381CF7
:1086E00043490BF0A9FB00285BD104256368013BDB
:1086F0006360002B05DA3F4A1068211C0BF008FA72
:1087000002E0236801332360013DEDB2002DEDD17D
:1087100001200AF017F9201C002105F025FB0D2887
:1087200001D00A280DD16368013B6360002B05DA94
:10873000304B1868211C0BF0EBF902E02368013381
:1087400023604346002B0FD003F0D0FE264C256853
:1087500003F0C6FE021C281C27490AF08FFE216880
:1087600026480AF023FF15E002F0ACFB0123181A9B
:10877000C0B202F0ADFB1F4C23689D6802F0A2FB63
:10878000021C281C1C490AF079FE236899681B48C2
:108790000AF00CFF381C002104220BF0ABF801207A
:1087A0001EE02B2D13D1002E0AD0022E12D8FF224C
:1087B0004B461A40381C12490BF084F8002809D1A6
:1087C000FF234A4613402B22FA54012008E00020E0
:1087D000002E05D0381C002104220BF08BF800205D
:1087E0000CBC90469946F8BD503B0020E02A002082
:1087F000D8590200D4290020FC590200E459020093
:10880000045A0200F0B54F4680B4051C0F1C574EA9
:108810000136FF3692E00A2C04D00D2C02D0082C31
:1088200058D140E0524B1A68504B9A4200D885E02C
:10883000504B1B689B689F4207D14F4B1B7A002B04
:1088400003D04E48391C0AF0B1FE494B002219688A
:108850000A70464C1C60201C391CFFF769FE8146DB
:10886000201C47490BF0E8FA002867D14A46002A45
:1088700064D101200AF066F8281C002105F074FA82
:108880000D2801D00A2859D16B68013B6B60002B81
:1088900005DA384B1868291C0BF03AF94EE02B68C2
:1088A00001332B604AE0324B1A68304B9A4245D96B
:1088B000304B1B689B689F4207D12F4B1B7A002BC4
:1088C00003D03048391C0AF071FE294B1A68013A6E
:1088D0001A6033E0264B1B68B3422FD2254B186831
:1088E00083689F4225D1244B1B7A002B21D0BB6883
:1088F000013BBB60002B17DAB9698B420FDB3A688A
:1089000014703B681A780A2A02D001333B6010E0E9
:10891000184B18680A213A1C0CF090FB09E0211C46
:108920003A1C0CF08BFB04E03B681C703B68013385
:108930003B600F4A1368591C11601C706B68013B47
:108940006B60002B06DA0B490868291C0BF0E0F875
:10895000041C03E02B68581C28601C78621C00D0A3
:1089600059E7002004BC9146F0BDC046DC29002038
:10897000D8290020D4290020543F00202063020081
:10898000D8590200085A020008B5011C0122034B05
:108990001A7003480AF00AFE08BDC046DC2A00200F
:1089A000E459020071DF704774DF704776DF70476B
:1089B00077DF704700B583B0012902D902290AD0B8
:1089C00042E0234BDB7A5BB2101C22491A1C0AF0EE
:1089D00055FD002039E001235B4201931E4901AAA5
:1089E0000BF08AF900282BD001982023021C9A430F
:1089F000131C28330DD01023021C9A43131C14336C
:108A000007D00423021C9A43131C103201D0002B00
:108A100018D140B2FFF7CCFF83B2181E15D10C4B12
:108A2000019ADA7204F0E8FFFFF7BEFF02F07CFF64
:108A30000A4B984202D1002002F080FC002004E0A2
:108A4000074802E0064800E0054803B000BDC04604
:108A5000543F0020FC590200A85E0200FFFF000006
:108A60006280000030B587B0151C012913D804AC12
:108A7000201CFFF797FFA279637921790091E178B3
:108A80000191A178029161780391281C03490AF0B1
:108A9000F5FC002000E0024807B030BDAC5E0200EB
:108AA0006280000010B5141C01290FD8A023802279
:108AB0005205D35801221A40201C05490AF0DEFC59
:108AC0000448211C0AF072FD002000E0024810BD9D
:108AD000CC5E0200206302006280000030B587B0E7
:108AE000141C012916D804A802F0AEFF051C002DA5
:108AF00011D104A98A794B7908790090C87801903E
:108B00008878029049780391201C04490AF0B6FC49
:108B1000281C00E0024807B030BDC046AC5E020031
:108B20006280000070B58AB0041C022900D09EE06B
:108B300004A8002115220AF0DDFE201C2C210BF0D8
:108B40006FF9002803D0451C0023037000E0051CCA
:108B5000201C69460E31FFF741FB002800D188E058
:108B60006B46D9898223484AD152281C2C210BF00C
:108B700057F9002803D0441C0023037000E0041CB4
:108B8000281C04A91022FFF73DFB102873D1201CDC
:108B90002C210BF045F9061E02D00023037001368C
:108BA000201C08A9FFF71AFB002866D004AB1A8A1C
:108BB00052BA04AB1A82301C2C210BF031F9051E7D
:108BC00002D0002303700135301C69462231FFF7C3
:108BD00005FB002853D004AB5A8A52BA04AB5A8220
:108BE000281C2C210BF01CF9041E02D0002303705A
:108BF0000134281C254902AA0BF07EF8002840D039
:108C000004AB02981875002C0FD000230193201C90
:108C100001A9FFF791FA002802D0019B012B01D98D
:108C20001B482FE04A2218498B54174904AA0B1CF1
:108C30006C3331CA31C330CA30C312781A70012282
:108C40004923CA5404F0D8FEFFF7AEFE02F06CFED2
:108C5000104B984206D002F067FE1321FFF7A6FEE4
:108C600000200FE0002002F069FB00200AE0084825
:108C700008E0074806E0064804E0054802E004482A
:108C800000E003480AB070BD543F0020D05E0200EF
:108C900062800000FFFF000010B5141C012913D8EA
:108CA00002F042FE0022094B984202D002F042FE3E
:108CB000021C52B2201C06490AF0E0FB0548211CA8
:108CC0000AF074FC002000E0034810BDFFFF000024
:108CD000A85E0200206302006280000000B585B03B
:108CE000012902D9022909D02EE0194B1B7D101C45
:108CF00018491A1C0AF0C2FB002026E06A4600232D
:108D0000D370033201A901938B6007230B704A6073
:108D10000122FFF7BBFA012801D00F4815E06B468E
:108D200003331B780A4A127D9A420BD0084A137506
:108D3000002B03D000214923D15401E002F074FE3E
:108D400004F05AFE002000E0034805B000BDC04614
:108D5000543F0020FC5902006280000010B582B030
:108D6000041C02291CD1124B1B7D002B1AD002F0CF
:108D7000DBFD031C08200F4A934216D068460021F1
:108D800008220AF0B7FD201C69460822FFF73AFACC
:108D9000431EDBB2072B07D8684603F04DFE04E004
:108DA000054802E0054800E0034802B010BDC04697
:108DB000543F0020FFFF000062800000638000003D
:108DC000F0B557464E464546E0B48AB0041C022929
:108DD00068D13A4B1B7D002B66D00378002B65D001
:108DE000101CFFF7D1FD04A9354A0B1C61CA61C3F1
:108DF00003CA03C312881A80324B1A6802929A88F7
:108E000002AB9A80304B1D6800959B886E46B380FC
:108E1000201C2E490BF010F843424341E41802A8ED
:108E200082462B4989460322904635E066785C2DC0
:108E30000BD15046311C0AF0F3FF002805D05346F1
:108E4000C01A6E46355CA71CA678484600684319D0
:108E50005B7841460B400221012B07D004A8291C56
:108E60000AF0DEFF011C481E81414900281C03F066
:108E700073FD00281BD10F2009F064FDAE4201D024
:108E8000002E08D10020002103F066FD00280ED13D
:108E90000F2009F057FD3C1C671C2578002DC5D11B
:108EA000002004E00B4802E00B4800E009480AB04B
:108EB0001CBC90469946A246F0BDC046543F0020D7
:108EC000FC5E0200145F02001C5F0200F85E0200FC
:108ED00070290020628000006380000010B588B017
:108EE000041C02293CD1224B1B7D002B3AD002F0FE
:108EF0001BFD021C08201F4B9A4236D007A90023F5
:108F00000B800F230693201CFFF768F9002819D166
:108F1000002300930393059308236A4613700223EA
:108F2000537007AA0192144A02926A46137306AB61
:108F30000493201C69460222FFF7A8F9431EDBB206
:108F4000012B11D807AC201C03F042FE069809F053
:108F5000F9FC00232380201C03F03AFE002004E0EB
:108F6000064802E0064800E0044808B010BDC046CC
:108F7000543F0020FFFF00003061020062800000CB
:108F80006380000000B58FB0022925D10CAA002310
:108F90000C931371FF2111700093029303930593B7
:108FA0000693089309930B93052369460B700132CE
:108FB00001920B73013204920B7601320792242244
:108FC0008B540DAB0A930422FFF760F90138C0B24D
:108FD000032803D9044804E0034802E00CA803F086
:108FE00087FD0FB000BDC04662800000F0B5474667
:108FF00080B492B0022900D0EFE00EA97E4B0A1C8B
:1090000070CB70C21B6813600CAD00220C922A71E9
:109010000B926C460F2363852A3401AB01920392B5
:1090200004920792099204221A70029506251D7374
:109030005A730BAA0592069103221A7608940378B4
:109040006E4A1268D3185B78590774D400230093D2
:1090500001A90B7000AA4A600322FFF717F9031C4D
:109060000138C0B2022800D8BBE062E00B9B032BA2
:109070005FD1009800286CD00AF0F0FE052858D87F
:1090800000245E4E03275E4DA84614E000980219A6
:1090900013783068C11848783840191C022800D16C
:1090A00020391170009A515D40460AF0B9FE00283F
:1090B0003FD00134E4B2251C00980AF0CFFE844270
:1090C000E4D300984C210AF0ABFE002804D00CAB8E
:1090D000197801220A431A70009852210AF0A0FE62
:1090E000002804D00CAB197802220A431A700098A9
:1090F0004D210AF095FE002804D00CAB197804220B
:109100000A431A70009842210AF08AFE002804D00F
:109110000CAB197808220A431A70009846210AF00D
:109120007FFE002815D00CAB197810220A431A7064
:109130000FE034485CE001A90322FFF7A7F8031C05
:109140000138C0B2022850D92E4851E00B9B032BA6
:1091500045D10CA803F0CCFC031C002B48D10CAB70
:109160001C780020002C43D00B9B022B0DD0032B2E
:1091700029D00020012B3BD10F2009F0E3FB0CA8E4
:109180000023037003F0B4FC32E00F2009F0DAFB97
:109190000CA80023037003F0ABFC031C002B27D1A9
:1091A0000F2009F0CFFB0CA8047003F0A1FC031CF6
:1091B000002B1DD10F2009F0C5FB0CA80023037064
:1091C00003F096FC14E06B46588D09F0BBFB0CA82D
:1091D0000023037003F08CFC0AE00A4808E0094809
:1091E00006E0032B00D044E740E7032BB1D1ADE705
:1091F00012B004BC9046F0BDE85E02007029002069
:10920000245F02006280000010B5041C02291DD1F9
:1092100002F0A6FA031C0820DA0718D502F084FB36
:10922000031C08200A4A934211D0201C09490AF065
:1092300003FE43424341E418201C04F08FFE064B1A
:109240001968201C0AF0B2F9002000E0034810BDA4
:10925000FFFF0000F85E0200503B0020628000002B
:1092600070B5141C002933D102F07AFA031C0820CF
:10927000DA0730D5184B19684B68013B4B60002B5F
:1092800004DA164B18680AF043FC03E00B685A1C1A
:109290000A601878431C1DD00F4E104D211C0AF097
:1092A00025F933685A68013A5A60002A04DA2868B6
:1092B000191C0AF02DFC03E01A68511C1960107883
:1092C000421CEBD10648211C0AF070F9002002E094
:1092D000044800E0002070BD503B0020D42900204D
:1092E0002063020062800000F8B5071C0D1C161CEC
:1092F00002F036FA041C0820E30741D5002D2FD0D8
:10930000022D16D11BE0381C1E490AF06BFD002807
:1093100011D18022D200521B92B2002A0DDB301CE8
:1093200019490AF0ABF81948311C0AF03FF900203E
:1093300026E0174824E0164822E0154820E003F014
:1093400031F88024E400241AA4B203F025F8051CA7
:10935000381C10490AF046FD221C0028DDD0D2E757
:1093600003F020F8041C03F017F88023DB001C1B1B
:10937000A2B21B1A9BB2301C07490AF07FF8D2E751
:10938000F8BDC046145C0200D05E020020630200FB
:1093900062800000085C020050610200F0B5574690
:1093A0004E464546E0B484B0061C0D1C171C1C1C20
:1093B000274B1B68984203D1231C5343102B40DCDE
:1093C00002AA24490B6802938B8893807B00303378
:1093D00093701020391C09F05BFBA046002C2ADD9D
:1093E0000024FF23034099461B4B9A460023019318
:1093F000201C494609F0A2FB00290AD1002C03D009
:109400001648311C0AF0D2F8301C51462A1C0AF0CA
:1094100035F801A8291C3A1C0AF063FAED1920203E
:10942000311C0AF063F8301C02A9019A0AF026F8F0
:1094300001344445DADB0948311C0AF0B7F8002052
:1094400000E0074804B01CBC90469946A246F0BD17
:10945000503B00204461020038610200206302009A
:1094600063800000F0B587B0141C022932D10023BC
:1094700005930493039303AB00931D4905AA04AB22
:109480000AF03AFC032827D1059D002D26D0049A26
:10949000002A25DD039E002E24DD531E012B01D959
:1094A000042A21D1D7B2391C042F00D90421C9B212
:1094B000281C09F0E3FA002905D00E48211C0AF007
:1094C00075F80D4811E0B3B2201C291C3A1CFFF7B7
:1094D00065FF0AE0084808E0074806E0064804E09F
:1094E000054802E0044800E0034807B0F0BDC0466C
:1094F0004C610200586102006280000008B5022938
:1095000007D0101C04490122FD23DB00FFF746FFB2
:1095100000E0024808BDC046543F002062800000C1
:1095200038B501291DD8114B1968114B994209D141
:1095300004230F4C80252D010C4819180968A142FD
:109540000BD000E0002380210901CB1A101C09492F
:109550001A1C09F093FF002006E00433AB42EBD164
:1095600001E0054800E0032038BDC0460078002037
:109570000DF0FECA6C6102006280000008B500298F
:1095800007D1101C0449042280239B00FFF706FF2B
:1095900000E0024808BDC04600780020628000005C
:1095A00074DF704776DF704708B5FFF7F9FF02F008
:1095B000BBF9064B984205D002F0B6F91321FFF72C
:1095C000F1FF02E0002001F0B9FE08BDFFFF00003E
:1095D000F0B5474680B4071C00240D4EA3B2984650
:1095E000A3009D59281C0AF039FC021C281C391CB8
:1095F0000AF068F9002803D00134052CEED101E00F
:10960000404600E0034800B204BC9046F0BDC046AE
:1096100074610200FFFF0000F8B5061C0F1C084D26
:109620000024301C29680AF06FFC002801D03C702F
:1096300005E00134E4B204350E2CF2D10020F8BD6F
:1096400080620200F0B55F4656464D464446F0B48F
:1096500093B0141C1D1C022900D0A0E0002311931C
:10966000109306A906938B60CB604B618B610B62F4
:1096700011AB4B6002230B7310AB0B6105230B7610
:109680006B463F33CB610322FEF700FE8046013874
:10969000C0B2022800D984E01198FFF799FF002892
:1096A00005DA4548211C09F081FF44487CE001AB04
:1096B0001870119E8000424BC0580AF0CFFB301842
:1096C00011900378002B44D001271222934669465B
:1096D0000331FFF7A1FF8146002803D0119BC61A72
:1096E000F6B203E011980AF0B9FBC6B24B465A1E17
:1096F0009341DBB29946FB185A46D31A9E4205DDC8
:109700003048211C09F052FF09204DE001ABD81967
:109710001199321C0AF0E5F8119A921992461192A9
:10972000F619F6B24B46002B0DD0731CDFB26A4619
:10973000D37801AA93559B00234A98580AF08EFBD0
:109740005044119000E0371C11980378002BBED1D3
:1097500000E001274346012B05D9109B012B22D89D
:109760004A221A498B544246022A05D96B463F3396
:1097700019789F23154AD15401A8391C02F0B4FC72
:10978000041C002C10D1114B0321492299549E2214
:109790009D5404F031F9FFF707FF201C04E007484F
:1097A00002E0064800E0054813B03CBC90469946EC
:1097B000A246AB46F0BDC046886102006280000050
:1097C00074610200B461020080620200543F002014
:1097D00008B50023FFF736FF08BDC04608B50123D2
:1097E000FFF730FF08BDC04638B5051C4923204CA3
:1097F000E35C033B58424341DCB2012906D8101C0C
:109800001C49221C09F03AFE00202FE0022922D137
:10981000281C19490AF010FB002823D0281C1749DE
:109820000AF0E0FA00281DD0281C15490AF004FBB4
:10983000002812D0281C13490AF0D4FA00280CD0B2
:10984000114813E049230A4AD15404F0D5F8FFF730
:10985000ABFE00200AE00C4808E00021081C8C4206
:1098600004D0EFE70321012CECD1002038BDC04625
:10987000543F0020FC590200C8610200345B020022
:10988000CC610200D06102006280000000B585B0AA
:10989000002902D0022903D020E0B423039312E070
:1098A00000230093029302236A46137003AB0193D3
:1098B00069460122FEF7EAFC012802D1039B002B36
:1098C00001DC08480BE0039802F02EFC0321492339
:1098D000054AD154FFF768FE002000E0014805B0BA
:1098E00000BDC04662800000543F002074DF704716
:1098F00076DF70477CDF704730B583B0031C141CE3
:10990000012902D9022909D032E01B48111C09F0B3
:109910004DFE1A48211C09F049FE27E0164D281C6F
:10992000191C1F220AF0DCFA04F066F801AC237857
:109930000F229343012213430F221340102213439B
:109940002370281C0AF08AFA82B2201C291CFFF717
:10995000D1FF83B2181E0CD1FFF7C8FF01F0E4FF5E
:10996000074B984202D1002001F0E8FC002000E003
:10997000044803B030BDC046A03F00202063020071
:10998000FFFF00006280000010B5141C012910D8F0
:1099900001F0CAFF084A8318584243413120C01AD7
:1099A000211C09F0A3FD0548211C09F0FFFD002042
:1099B00000E0034810BDC0460100FFFF2063020025
:1099C0006280000008B500290DD101F0ADFF021C36
:1099D0000020064B9A4207D001F0A6FF1321FFF7A3
:1099E00087FF80B200E0024808BDC046FFFF0000CC
:1099F0006280000008B5002902D102F015F800E0ED
:109A0000004808BD62800000F0B587B0061C0C1C41
:109A1000151C02A82949102209F063FF012C02D964
:109A2000022C20D03EE001260024254F02E0013424
:109A30000136F6B2E3B2002B36D0381C291C09F0EF
:109A4000B5FDFF2222401C3252001E4BD25A281C68
:109A50001D4909F013FD032EE9D91C48291C09F002
:109A6000A5FD002027E01A4C6D460A35271C083753
:109A7000301C01A90A220AF0EBFA019E01360028E7
:109A800009D0AA1E1288904202DB2A88904201DD8A
:109A9000104810E0208002340435BC42E8D103F0C5
:109AA000ABFF08E00B4806E0064B1A8F281C06495E
:109AB00009F0E4FCBBE707B0F0BDC046B8620200A5
:109AC000DC590200543F0020A85E0200206302001F
:109AD0008C3F00206280000008B5002901D00229D7
:109AE00003D1002001F02AFC00E0014808BDC04677
:109AF0006280000008B5002903D1FFF7F7FE80B2AD
:109B000000E0014808BDC0466280000010B582B088
:109B1000141C012902D902290DD024E04823134A3C
:109B2000D05C3030211C09F0E1FC1148211C09F007
:109B30003DFD002018E00F4901AA0AF0DDF80128D8
:109B400002D1019B012B01D90B480DE048220749A6
:109B50008A5C934205D05A1E934148228B5403F0ED
:109B60004BFF002000E0044802B010BD543F00202D
:109B700020630200A85E02006280000030B591B050
:109B8000022942D100230F9301A901938B60CB607E
:109B90004B6101230B701F234B7007AB4B600223FB
:109BA0000B730FAB0B610222FEF770FB041C013834
:109BB000C0B201282BD801AB5A78174D8B23EA5439
:109BC000281C6C3007A909F08CFE02224923EA54B4
:109BD000022C05D10F9B012B1BD84A220E498B5416
:109BE00003F00AFFFFF782FE01F09EFE0B4B984246
:109BF00006D001F099FE1321FFF77AFE002009E05C
:109C0000002001F09BFB002004E0054802E004482E
:109C100000E0034811B030BD543F0020FFFF0000BA
:109C200062800000A4DF7047A5DF7047A6DF7047A1
:109C3000F8B54F464646C0B480468946171E15DD26
:109C40000026002463B29B004A469D58281C0AF057
:109C500005F9021C4046291C0AF008F9002807D023
:109C60000134E4B266B2BE42ECDB01E0002600241F
:109C7000B7420BD063B29B004A4698580AF0EEF800
:109C80004246135C3D2B02D0FF2400E0FF2460B26B
:109C90000CBC90469946F8BDF0B5474680B486B0F6
:109CA000051C0E1C171C1C1C05A9FEF745FA0028F4
:109CB0001BD0214B059A9A4203D1281C05A9FEF717
:109CC00053FA059A13BA0593032C06D9301C05A93B
:109CD000042209F006FE201C2AE006AB191B301CEA
:109CE000221C09F0FEFD201C22E0281C6946221CD3
:109CF000FEF788FA8046011E0BD00020B94217D328
:109D0000444515D3301C6946424609F0EAFD4046F9
:109D10000EE0281C0AF0A2F8031CC0B2A04200D931
:109D2000231CDCB2301C291C221C09F0DAFD201C8B
:109D300006B004BC9046F0BDFFFFFF7F10B5141CB9
:109D4000002802D0012810D01EE0081C111C10228F
:109D5000FEF758FA102819D100232375A3781B02A7
:109D6000E27813432382002015E0131C1033081CF3
:109D7000191CFEF733FA00280AD0238A002B09D0D9
:109D800001232375002006E0034804E0024802E0B6
:109D9000014800E0004810BD62800000F0B5474671
:109DA00080B480460E1C171E042F19D9002F23D013
:109DB0000978002920D0154B1B685918497868206C
:109DC00081430DD00024682103E05D196D788D4337
:109DD00006D00134A2420FD9355D002DF5D10BE03C
:109DE000012F03D10A48414609F0E0FB4046311CEF
:109DF0003A1CFEF735FB05E0301C01213A1C4346B6
:109E000009F0DAFC04BC9046F0BDC0467029002081
:109E1000F862020008B504480021044A09F06AFD0E
:109E200003F0EAFD002008BD0C4000200C070000F4
:109E3000F0B557464E464546E0B486B0041C171CA4
:109E4000022972D1B8233D4AD35C04200A2B6FD07B
:109E500068460021182209F04DFD201C2C2109F034
:109E6000DFFF002803D0451C0023037000E0051C21
:109E7000002C38D032488046814630E001342378C7
:109E8000202BFBD0201C41460222FFF7D1FE061EEC
:109E90000EDB83004A46985809F0E0FFF6B2411CF9
:109EA0006118301C6A46FFF749FF061E08D000E023
:109EB000244E381C2449221C09F0E0FA301C37E0FB
:109EC000281C2C2109F0ACFF002803D0431C0022E1
:109ED000027000E0031C002D05D02C1C1D1C2378F3
:109EE000202BCBD0CEE76E46338A002B1FD0134CED
:109EF000B825605D824641005144C9006118BC31FB
:109F00006A4649CA49C149CA49C1504601306055EB
:109F100003F072FD625D381C0C4909F0AFFA0C4881
:109F2000391C09F043FB002002E0064800E0054828
:109F300006B01CBC90469946A246F0BD543F002096
:109F4000CC63020062800000FC620200A85E020096
:109F500020630200F0B557464E464546E0B48EB049
:109F6000041C151C022900D0DEE0B8237B4AD35C18
:109F70000420002B00D1EBE0B923D35C1E2B00D1D1
:109F8000E6E001A80021342209F0B4FC201C2C21B9
:109F900009F046FF002803D0471C0023037000E0AF
:109FA000071C002C00D18BE06D4A904691466D4A0B
:109FB000924680E001342378202BFBD0201C4146C0
:109FC0000622FFF735FE061E67DB83004A469858D7
:109FD00009F044FF01302018F3B2052B5DD89E0034
:109FE000524693599F4669460631FEF7F7F8002816
:109FF00053D001AB5B88002B4FD0012201AB1A7507
:10A000009FE002A91022FEF7FDF8102845D101AB10
:10A0100000221A759A791202D9790A435A8090E07F
:10A0200069460331FEF7B8F8002836D06B46033393
:10A030001B78002B31D06846053069460331012278
:10A0400009F04FFC7DE069461931FEF7A5F80028BC
:10A0500023D001AB5B7D013B132B1ED871E0694619
:10A060001A31FEF799F8002817D001AB9B7D013B10
:10A07000132B12D865E001AB5A7D002A5CD19B7D81
:10A080000122002B02D1142300E0131C07A9FFF7C3
:10A0900003FE01ABD875002853D1281C3249221C7D
:10A0A00009F0ECF9314853E0431C00220270002F04
:10A0B00006D03C1C1F1C2378202B00D17AE77DE7BB
:10A0C00001AB9B7D002B02D101AB5A7D9A7501AB90
:10A0D0005B7D002B2AD001AA927D9A4228D301AB46
:10A0E0005B88002B26D01D4CB823E35C013BDBB220
:10A0F0009846B926A75D34225743E019AD30FF30AA
:10A1000001A909F0EEFBE719AD37FF3743463B7075
:10A11000A35D0133A35503F06FFCA25D281C144915
:10A1200009F0ACF9002013E0104811E00F480FE0EF
:10A130000E480DE00D480BE001AB9B7D002BA5D137
:10A14000A3E7381C2C2109F06BFE031EAFD0ABE750
:10A150000EB01CBC90469946A246F0BD543F00206C
:10A16000E0620200C8620200106302006280000028
:10A17000FC59020000000000F0B557464E46454627
:10A18000E0B48AB0041C151C022900D0DDE07E4931
:10A1900005AA09F0B1FD002800D1D8E0059B002BED
:10A1A00000DCD6E0B92279498A5C934200DDD2E036
:10A1B000013B34267343CE18AD36FF36201C2C21CC
:10A1C00009F02EFE041E0BD1311C1831F27D281C23
:10A1D000FFF7E4FD6E48291C09F0E8F90020C8E00B
:10A1E0000378002B00D1B8E001F09EFB071C351C62
:10A1F0001835601C727DB37D291CFFF74DFD6A4642
:10A200001080727D824200D99BE0B27D824200D2F2
:10A2100099E0F07503F0F0FBB38D0020834200D18C
:10A22000A7E05C4B9F4200D179E0727830231A425C
:10A2300075D06B4658800233318E06AA02241480F2
:10A2400050805360381CFFF7EFFC7478E406E40F8D
:10A2500005D06B4602331B88D80700D57FE07378A2
:10A260009A065CD56B4602331B88980757D501AA1E
:10A270009046101C0021102209F03CFBB38D404693
:10A28000038063425C41013401AB9C7000AA0392DD
:10A29000049501F0EDFB002832D13F4B3F4AD058E6
:10A2A000410CC003374B364A08F054FC80463B4B08
:10A2B0009A4639488146334D314C02E0012008F07E
:10A2C00041FB01F0D5FB00280CD152464A441068EE
:10A2D000410CC003221C2B1C08F03CFC4346C01A56
:10A2E000C728EBD92C4B2D4AD058410CC003254B25
:10A2F000234A08F02FFC4246831A0420C72B38D883
:10A30000381C01A9FFF792FC83B2181E31D1737873
:10A310000020DA062DD501F0B3FB002029E0727D84
:10A32000B37D00209A4224D0B18D08AA68460388E4
:10A330001380002353805360381CFFF773FC80B2F6
:10A3400017E0174815E0164813E0154811E01448C7
:10A350000FE013480DE012480BE0114809E001AC92
:10A36000201C0021102209F0C5FAB38D238001249E
:10A370008AE70AB01CBC90469946A246F0BDC0468A
:10A38000E880000000000000D05E0200543F002082
:10A3900020630200FFFF00000405000000100140E0
:10A3A00062800000C046C046F0B55F4656464D4646
:10A3B0004446F0B483B0171C00296FD13E4B1B6894
:10A3C0009A426DD0B8233D4AD35C002B6AD0002658
:10A3D00092463B4B99463B4B9B467400A419E400C4
:10A3E0005444BC34721C238A381C494609F046F890
:10A3F000237D012B08D05846391C09F0D7F8381CAA
:10A40000211C1022FEF72CF82F48391C09F0CEF839
:10A41000B9232A4AD35C002B38D000249046342537
:10A4200065434544AD35FF352B78B34227D1621CD7
:10A430006B88381C254909F021F82B7D012B0CD0A5
:10A440002348391C09F0B2F8291D381C1022FEF7E8
:10A4500007F82048391C09F0A9F86A786B7DA97DB6
:10A460000091381C1C4909F009F8291C1831EA7DB3
:10A47000381CFFF793FC1448391C09F097F8013495
:10A48000E4B2B9230D4AD35CA342C8D80136F6B270
:10A49000B8230A4AD35CB3429FD805E00F4804E0D2
:10A4A0000F4802E0002000E0002003B03CBC9046D2
:10A4B0009946A246AB46F0BD503B0020543F0020D9
:10A4C0002463020038630200206302004463020038
:10A4D0005C630200DC5902006863020062800000D5
:10A4E0006380000000000000F0B5474680B4011C06
:10A4F0001D4809F05BF81D4B1D4AD058410CC003A4
:10A50000184B174A08F026FB061C194A9046174FAD
:10A51000144D134C03F060FA00280CD04246D35976
:10A52000590CD803221C2B1C08F014FB801B2C2375
:10A53000FF339842EED90D4B0D4AD058410CC00361
:10A54000084B074A08F006FB861B312E03D8322041
:10A55000801B08F0F7F904BC9046F0BDC046C04629
:10A56000E880000000000000E4590200040500003B
:10A5700000100140C046C046F0B5474680B494B0D4
:10A5800080460F1C151C80235B055A6E1B6E0FAC9A
:10A59000201C264909F08EFB03F096FC021C0AAE33
:10A5A000301C234909F086FB00230293214B0393BF
:10A5B00004960594204B06930793204B089303F0D1
:10A5C0009DFC0990002F02D0022F0ED026E003AC94
:10A5D0000AAF1B4E01CC291C08F0E8FF301C291CD7
:10A5E00008F0E4FFBC42F5D11AE04046154901AA43
:10A5F00009F082FB002803D0019B5A1E062A01D9CC
:10A6000011480EE09B0002AA9858291C08F0CEFFC2
:10A610000B48291C08F0CAFF002002E00A4800E0AD
:10A62000002014B004BC9046F0BDC046D4630200C4
:10A63000E0630200EC630200F863020000640200C1
:10A6400020630200A85E02006280000038B5051C8D
:10A65000141C012902D902290CD01FE0124B187AD0
:10A660003030111C08F042FF1048211C08F09EFFFA
:10A67000002018E009F0F2FB012811D12B78303BC3
:10A68000DBB2012B0ED8084A127A00209A420AD077
:10A69000054A137203F0B0F9002004E0044802E018
:10A6A000034800E0024838BD543F00202063020008
:10A6B0006280000008B500290AD1101CFFF714FFC2
:10A6C000BFF34F8F034A044BDA60BFF34F8FFEE7AF
:10A6D000024808BD0400FA0500ED00E062800000B9
:10A6E00010B5141C00290ED103F0EAF901F09CF911
:10A6F000201CFFF7F9FEBFF34F8F044A044BDA60CA
:10A70000BFF34F8FFEE7034810BDC0460400FA05B3
:10A7100000ED00E06280000008B5002906D1101CA1
:10A72000FFF7E2FE01F01CFA002000E0004808BD3F
:10A730006280000010B5002923D1134B1B689A4298
:10A740000CD101F0D3FE104B1C6801F0C9FE021CB5
:10A75000201C0E4908F092FE002013E000F0B2FB2E
:10A760000123181AC0B200F0B3FB094B1B689C68A8
:10A7700000F0A8FB021C201C044908F07FFE00200A
:10A7800000E0044810BDC046503B0020FC590200C8
:10A79000D42900206280000010B582B0141C022968
:10A7A00018D1114901AA09F0A7FA002814D001997B
:10A7B000072913D8022913D0C9B20220002202F0BF
:10A7C0005FFB02F097FB021C201C084908F056FEB4
:10A7D000002006E0064804E0054802E0044800E0E6
:10A7E000034802B010BDC046A85E02000C6402001F
:10A7F0006280000010B5141C00290AD102F068FB29
:10A8000002F08CFB021C201C034908F037FE0020DC
:10A8100000E0024810BDC0460C64020062800000E7
:10A8200039DF70473ADF704752DF704710B582B0AA
:10A83000141C012918D801A8FFF7F6FF002811D130
:10A84000019BD917890FCB189A10032003405B1A7C
:10A850009900CB1899005B18201C054908F00EFEE2
:10A86000002002E080B200E0024802B010BDC04605
:10A87000386402006280000010B582B0141C022906
:10A880002AD101235B420193174901AA09F034FA46
:10A89000002823D0019B1F2B22D8C133FF339B00FC
:10A8A00080218902A022D20599501048211C08F06D
:10A8B0007DFE322008F046F80020002100F00EFB5B
:10A8C0000120002100F00AFB0121A023DB008022EF
:10A8D000D205D150002004E0054802E0044800E021
:10A8E000034802B010BDC046A85E0200E459020051
:10A8F00062800000F0B5474680B486B090460029DB
:10A9000002D0022904D056E004226B46DA750BE02F
:10A9100069461731FDF740FC00284ED06B461733CF
:10A920001B78013B0F2B4AD800256C4603340027C7
:10A930006E4617362770201CFFF772FF83B2002B7C
:10A9400019D12378002B12D03178491B0A1CC9B2C7
:10A95000994200D91A1CD1B2227001AB5819FFF7E5
:10A9600061FF80B200282BD12378ED18EDB2337847
:10A97000AB42DFD801E0181C22E01348414608F042
:10A9800015FE6B4617331B78002B0ED000240F4E9C
:10A990006D46173501AB1A5D4046311C08F06EFD5F
:10A9A0000134E4B22B78A342F4D80948414608F0B8
:10A9B000FDFD002004E0074802E0064800E00548ED
:10A9C00006B004BC9046F0BDF8620200C459020013
:10A9D000206302006280000010B582B0002902D01E
:10A9E000022909D034E01C4B9B7A101C1B491A1C0D
:10A9F00008F044FD00202CE069460731FDF7CCFB50
:10AA0000002804D06B4607331B78012B01D914486A
:10AA10001FE0114A927A9A4218D0002B03D10120EC
:10AA2000002100F05BFA6C46E2790B4B9A7202F05F
:10AA3000E3FFE379012B09D100F076FF094BC11840
:10AA40004B1E9941C9B2012000F048FA002000E0F5
:10AA5000034802B010BDC046543F0020FC5902001C
:10AA6000628000000100FFFFF0B5474680B492B05D
:10AA700094460CAA354B141C1D1CC4CDC4C4C4CDB3
:10AA8000C4C409AC1833C4CBC4C4002902D0022901
:10AA90000CD055E02E4B597A89000CABCB58604650
:10AAA0002C491A1C08F0EAFC00204AE0012301931B
:10AAB0000023029303A906230B704B7001AA4A607E
:10AAC0000CAA8A600B7303234B7302AB0B6109ABB7
:10AAD0004B610222FDF7DAFB00282FD0012803D9B1
:10AAE000019B052B2AD102E0019B052B26DC184A8D
:10AAF000527ADBB29A4208D00020002100F0EEF931
:10AB0000134B019E5E7202F077FF019F052F13D158
:10AB1000029B022B0AD1002000F0EAFA0123011C5B
:10AB20005940C9B2002000F0D9F905E05A1E9341FE
:10AB3000D9B2002000F0D2F9002002E0064800E07F
:10AB4000054812B004BC9046F0BDC0461464020033
:10AB5000543F00204464020062800000F0B54F467C
:10AB60004646C0B483B0161C002902D0022924D066
:10AB700038E003240125224B98460027214B9946B3
:10AB8000E0B202F013F900280BD0002D03D14846A3
:10AB9000311C08F00BFD301C4146221C08F06EFCF5
:10ABA0003D1C0134782CEBD10020002D22D1164819
:10ABB000311C08F0FBFC00201CE00023019313492A
:10ABC00001AA09F099F8002803D00198C31E742B3C
:10ABD0000AD90F480EE0301C0E49019A08F04EFCCD
:10ABE000002007E00A4805E0C0B202F0DFF80028C4
:10ABF000F6D0F0E703B00CBC90469946F0BDC046D5
:10AC000080640200DC5902002063020088640200B4
:10AC1000628000008C640200011C00201F2919D8EA
:10AC20000D4B1878002810D00C4B1B788B420ED09F
:10AC30000B4B0138C0B2181803E01A7801338A426E
:10AC400007D08342F9D1012004E0012002E0002076
:10AC500000E000207047C04695640200986402003E
:10AC60009964020030B583B0141C022941D12649F1
:10AC700001AA6B4609F040F8012805D002283AD114
:10AC8000009D012D39D812E0A223DB00A022D205BD
:10AC9000D358019AD340012018403030211C08F0CD
:10ACA00025FC1A48211C08F081FC00202AE0184BE2
:10ACB000A022D205D358019CE340DA071FD5201CFF
:10ACC000FFF7AAFF00281CD0002D08D10123A340C4
:10ACD0001C1C104BA022D205D450002012E00123EE
:10ACE000A3401C1CA123DB00A022D205D4500020CD
:10ACF00008E0094806E0084804E0074802E0064882
:10AD000000E0054803B030BD50610200206302003E
:10AD1000140500000C0500006280000030B583B00F
:10AD2000141C022964D1384901AA6B4608F0E4FFDB
:10AD3000012805D002285DD1009D032D5CD823E0B9
:10AD4000324BA022D205D258019BDA400120D10714
:10AD50000FD49B00A022D2059B18E022D2009A5863
:10AD60000320510705D4E022D20098580007C00FF5
:10AD7000400000903030211C08F0B8FB2448211C12
:10AD800008F014FC00203CE0019C201CFFF744FF6D
:10AD9000002833D0012D08D002DC002D0ED02FE08A
:10ADA000022D13D0032D1AD02AE0C134FF34A400A1
:10ADB0000322A023DB05E250002022E0C134FF344F
:10ADC000A4000020A023DB05E0501AE0C134FF34CA
:10ADD000A4000C22A023DB05E250002011E0C134C6
:10ADE000FF34A4000422A023DB05E250002008E089
:10ADF000084806E0074804E0064802E0054800E08D
:10AE0000002003B030BDC0465061020014050000B0
:10AE1000206302006280000010B586B0022925D1AF
:10AE2000174905AA04AB08F067FF022820D1059C4A
:10AE3000201CFFF7F1FE00281CD0049A642A1BD8BE
:10AE4000684600210E2208F055FD01236A46137062
:10AE500054701371022353719372684602F07EF8A6
:10AE60000020049902F06AF9002006E0054804E099
:10AE7000044802E0034800E0024806B010BDC046A6
:10AE8000506102006280000048DF70477047C04692
:10AE9000830702D50122044B1A708B0702D50022CA
:10AEA000014B1A707047C046EA2A0020014B1888EF
:10AEB0007047C046E82A0020014B18887047C046FA
:10AEC000842F0020014B18787047C046EA2A0020E2
:10AED000014B18707047C046EA2A0020012805D1AE
:10AEE0000E4B9B7A1320002B04D115E043424341C3
:10AEF0001320C01A002908D001238340181CA12365
:10AF0000DB00A022D205D05006E001238340181CAC
:10AF1000034BA022D205D0507047C046543F0020BA
:10AF20000C05000030B58DB0A823DB005C4AD15879
:10AF300000235C4A914204D8A823DB00584AD35826
:10AF40009BB2594A1380A823DB00584AD1580023EA
:10AF5000544A914204D8A823DB00544AD3589BB2E8
:10AF6000534A138000230093202008210622514BCE
:10AF700003F0E0FD002803D00021002200F0F2FBE6
:10AF800002204D4903F07AF9002803D00021002265
:10AF900000F0E8FB09A80B23037009234370082382
:10AFA00083700A23C3700123037100224271434B53
:10AFB00083606B46DA810E33414A0492802252004C
:10AFC0000592404906910792009304A93E4A012345
:10AFD00004F04AF880B2002860D13C4B1B689868A6
:10AFE000002108F0D7FD092039494822002304F048
:10AFF00015FA002803D00021002200F0B3FB3548E9
:10B0000004F03CFA80B2002848D106F0B1F880B2D2
:10B01000002843D102F0F2FD00283FD1A023DB0538
:10B020000C21E822D2009950A222D2009B58DA03C8
:10B030000BD4294807F086FCA223DB00A022D2050E
:10B04000D358DA0301D402F03BFDA024E4050C251B
:10B05000224BE55001F0D2FE214BE55068462330EB
:10B06000022102221F4B03F047F980B2002815D1BC
:10B070006B462333187803F06BF9A222D200A15853
:10B080008907C90F184A11700322E921C9006250CB
:10B090001649625001200021FFF720FF0DB030BD9E
:10B0A00000900040FEFF0000E82A002000A00040C1
:10B0B000842F0020342B0020882F002000502700F0
:10B0C000B02F0020842E00208DAE0100D429002056
:10B0D000EC2A0020DD0F0200DC0500001C07000048
:10B0E0000407000091AE0100EA2A00204C0700008E
:10B0F000431E98411230044BA022D205D358C340BE
:10B10000181C01231840704704050000014B587AB1
:10B110007047C046543F0020031C0020002B08D17C
:10B12000A223DB00A022D205D058C0090123584039
:10B130001840704708B5FFF7A7FE08BD00000000E3
:10B14000F8B54F464646C0B4071C254D254C285936
:10B15000410CC003214B204A07F0FCFC061C285977
:10B16000410CC0031D4B1C4A07F0F4FC801BF42368
:10B17000FF33984216D8A946A046184D164C381CE5
:10B1800004F0BEF800280DD04A4642441368590C1A
:10B19000D803221C2B1C07F0DDFC801BF423FF339B
:10B1A0009842ECD90F4B0E4AD058410CC0030B4BC0
:10B1B000094A07F0CFFC861B381CF423FF339E425C
:10B1C00003D904F0A9F8012040420CBC90469946EE
:10B1D000F8BDC046C046C046E88000000000000040
:10B1E000001001400405000000B583B06846073038
:10B1F00004F072F8002802D16B46D87901E00120F2
:10B20000404203B000BDC04600B583B06946073177
:10B2100004F092F8002802D16B46D87901E00120B1
:10B22000404203B000BDC04672DF704773DF704715
:10B2300074DF7047A0DF704760DF704768DF7047DA
:10B2400008B505F0CBFE08BD38B50024064D2B1916
:10B25000DA79002A03D01B69002B00D098471434F8
:10B260003C2CF4D1002038BD0029002030B58FB02F
:10B2700002282CD869463731164BDB7A0B700CAAA2
:10B28000154B84002518AD005D19AD881580241874
:10B29000A4001B199B7993700023009302930493DD
:10B2A000059306930793089309930A930B93062338
:10B2B0006C46E3700191012323810392022800D19F
:10B2C000A3706846002104F0FDFA80B200E0034854
:10B2D0000FB030BD543F00200029002062800000E4
:10B2E00030B597B010AC0223237015236370124D54
:10B2F000291C6C3168464230152208F0F2FA0DAA7A
:10B300008223EB5A1380172393800F9401A8002304
:10B31000019343608360C360036143618361C361E0
:10B3200003628362C3620423C3704262002104F09B
:10B33000C9FA80B217B030BD543F002070B59AB042
:10B34000061C14AC002314931593169317931993AA
:10B35000544DA88FC000052107F09AFB2082EB8F87
:10B360006382002E04D014AB4F4A1A8200225A8204
:10B3700049234C4AD35C012B1BD0002B04D0022B59
:10B380000DD0032B20D089E0464B187D431E9841F9
:10B390004000FFF76BFF031C002B54D07FE04348B5
:10B3A000C17F00220023FFF73FFF83B2181E4AD05F
:10B3B00075E014ABA0221A8200225A82FFF790FF98
:10B3C000031C002B3FD06AE000F0D2FE002803D01F
:10B3D0000120FFF74BFF36E001AB002203920492FD
:10B3E00005920692079203221A705A7030495980CA
:10B3F0002C4AA520105C0530187116205871D98090
:10B40000102119729F21515C59729E23D35C002B2D
:10B4100005D001AB274ADA805A8000221A7201ACAB
:10B4200068460E302449122208F05BFA217823790D
:10B43000C9180231C9B2201C00220023FFF7F4FE14
:10B4400080B200282BD10023089309930A930B9311
:10B450000C930D930E930F931093119312931393D8
:10B46000164808F0FBFC00231D2282425B41013399
:10B4700008AA1370114808F0F1FC00231D2800D918
:10B480001D2308A94B70002004F01CFA83B2181E7B
:10B4900005D114A8FFF7CAFE80B200E007201AB059
:10B4A00070BDC046543F00206A030000C03F00202A
:10B4B000AAFEFFFFD8FEFFFFFA3F0020A03F0020BA
:10B4C000F0B55F4656464D464446F0B48BB008A8EA
:10B4D000724B021C12CB12C2FFF7AEFE83B2181ED3
:10B4E00000D0D3E06E4803F0BFFF83B2181E00D037
:10B4F000CCE06C4803F0C2FF83B2181E00D0C5E058
:10B5000080235B055B6B022B11D101AC201C002159
:10B51000082208F0EFF92278012313432370012059
:10B52000211CFFF78BFE80B2002800D0AEE000F0B7
:10B530005DF900F0CDFA01F0C5F85B4B5B4A117D77
:10B540002F2299541C1C1E1C3C360127251CE37914
:10B55000002B0FD02068002801D1A77105E000F072
:10B56000DFFFA071012800D88FE0AB68002B01D06D
:10B57000A87998471434B442E8D1B8234B4AD35C35
:10B58000002B78D000269346914673009B19DB0070
:10B590005B44BC339A461B7D012B06D0504600F01D
:10B5A000BFFF53461875012865D95446238A69465A
:10B5B0000B80237D8B70012052461232FFF73AFE3A
:10B5C00080B2002857D1B923384CE35C002B4BD014
:10B5D00000253427A0463C1C6C434C44AD34FF345A
:10B5E0002378B34239D1237D012B05D0201D00F0F3
:10B5F00097FF2075012830D901A8002301934360EB
:10B600008360C3600361436183615246538A038050
:10B610006378837063888380237D8371037A032238
:10B620009343022213430372231C1833C360637DC8
:10B630000382A37D4382E37D8382C3780F229343F9
:10B64000012213430F22134010221343C370211C05
:10B650002C3100F08FFF00280DD10135EDB2B92358
:10B660004446E35CAB42B6D80136F6B2B8230F4A83
:10B67000D35CB34289D848230C4AD35C0020002B0A
:10B6800004D0FFF75BFE002000E007200BB03CBCBD
:10B6900090469946A246AB46F0BDC046A46402005F
:10B6A000B1B6010041B2010000290020543F002042
:10B6B00070B586B0051C00F065F9281C05F0CCFAC1
:10B6C000281C00F021FA2B88112B1FD0192B27D012
:10B6D000102B3BD101200121FFF700FC4A231E4A19
:10B6E000D35C002B32D00023009301930293039389
:10B6F0000493059303236A461370A02313826846BC
:10B70000FFF794FD80B2002820D022E00120002124
:10B71000FFF7E4FBFFF78CFD0020FFF70FFE15E0BD
:10B72000AB79002B12D1FFF783FD0120FFF706FE56
:10B730000CE03319DA79002A04D0DB68002B01D041
:10B74000281C984714343C2CF3D102E00024034E0B
:10B75000EFE706B070BDC046543F0020002900202E
:10B7600001207047BFF34F8F024A034BDA60BFF3EB
:10B770004F8FFEE70400FA0500ED00E077DF704729
:10B7800078DF70477ADF70477CDF704784DF70476F
:10B79000A7DF704762DF70477047C04608B5021CDC
:10B7A0000B78122B10D0D9B2122902D8112B05D048
:10B7B00016E0142B0FD0212B0DD011E00948111CDD
:10B7C000042208F08EF80BE0064804F045FD064818
:10B7D00004F042FD04E00448111C042208F081F842
:10B7E000002008BDBC300020B430002030B58BB044
:10B7F000434804F031FD434804F02EFDFFF7B0FF4D
:10B8000040080124204001AB187003AB00220592D0
:10B810003D4A039201221A710D225A7107229A7130
:10B820001022DA71FFF79CFF044209D001A804F04E
:10B830006DFB80B2002803D1344803A904F002FC58
:10B84000334C201CFFF7A6FF2278324B1A70324B84
:10B850000B201856FFF792FF83B2181E4DD1FFF749
:10B860007FFF031C0020D90747D56A4613780F22B3
:10B870009343012213430F221340102213436C46BB
:10B880002370264C201C08F0E9FA82B26846211C7D
:10B89000FFF77AFF83B2181E2FD11F4B1B7D0020AC
:10B8A000002B00D01E48FFF76BFF83B2181E24D177
:10B8B00001AC194D288F8000052107F09BF82080EE
:10B8C000688F8000052107F095F860800023A38031
:10B8D000C8235B00E380201CFFF754FF83B2181ECF
:10B8E0000BD103A80F4A031C32CA32C332CA32C377
:10B8F00012681A6005F06AF980B20BB030BDC0461C
:10B90000BC300020B43000209DB70100B8300020CA
:10B91000C1300020C0300020543F0020A03F002054
:10B92000C1030000D4640200014B18887047C04670
:10B930003C290020014B002018567047B0300020F1
:10B94000054B1B78FF2B05D0034B9878FF38431E1F
:10B95000984100E000207047B430002000B585B069
:10B960000023009301930293039301236A4613700B
:10B970000348694604F004FC80B205B000BDC0462F
:10B98000B430002010B5041CFFF7EAFEC30702D54F
:10B99000201C04F061FD2388112B26D004D8012B34
:10B9A00009D0102B13D033E01A2B27D0522B29D0DB
:10B9B000182B2DD126E0174B1A780132164908783A
:10B9C000111CD2B2824200D9011C197020E0A28859
:10B9D000124B1A80FFF7C4FEC30719D50F4B188806
:10B9E00001210022FFF7D2FE12E0012252420B4B4E
:10B9F0001A80094B1A78074B1A7009E0A279084B94
:10BA00001A7005E0054B18880C21064AFFF7C0FEA6
:10BA100010BDC046C0300020C13000203C290020AD
:10BA2000B0300020FFFF000008B5FFF799FEC30704
:10BA300004D5034804F04AFB80B200E0014808BD89
:10BA4000B83000206380000008B5011C054B1A883F
:10BA50000820054B9A4203D0044804F00BFC80B246
:10BA600008BDC0463C290020FFFF0000BC3000207C
:10BA7000024B1878431E9841C0B27047C030002076
:10BA8000024B1A78013A1A707047C046C030002045
:10BA900044DF704711DF704713DF704774DF704772
:10BAA00076DF704708B5FFF73FFF084B984204D098
:10BAB000FFF73AFF1321FFF7F3FFFFF7EFFF012036
:10BAC0000021FFF70BFA05F0BFF808BDFFFF0000EB
:10BAD00010B584B0FFF7EAF901A90880074B4B6065
:10BAE00000238B60064805F053FE84B2002C02D17F
:10BAF000044805F03BFE201C04B010BDFD150200FB
:10BB0000C4300020A5BA010008B5011C014805F0A9
:10BB1000B7FF08BDC4300020064C064D061C064F7A
:10BB2000F0B40024002500260027F0B403480047A5
:10BB300070470000FFFFFFFF00000021F9FFFFFF3B
:10BB4000016881F3088840680022EFF305839A4278
:10BB5000E2D1024CA646004770470000FFFFFFFFFE
:10BB600010B5FFF79FFFB120FFF792FF83B2181EB9
:10BB700019D1FFF78FFF83B2181E14D10A4B5869F1
:10BB8000FFF78AFF84B2201E0DD1084B8021C90324
:10BB9000C02252009950196880229950024B58696E
:10BBA000FFF7CEFF201C10BD0010001000E100E0E8
:10BBB00074DF704777DF7047A0DF7047A4DF7047FE
:10BBC000A8DF704730B589B0051C844C201C0021CB
:10BBD0004C2207F08FFE0023A370814A137007A93F
:10BBE00082239B010B808D700120221CFFF7E4FF54
:10BBF00083B2181E00D0EEE00193029305930693E2
:10BC000076490B886846038007AB9B7883710123D4
:10BC10001122C270734A828006220272022282704E
:10BC20008A1C0392838243820382043100F0A2FCC7
:10BC3000031C002B00D0CEE06B4B68468380037A58
:10BC40000322934302221343037208238370674B3A
:10BC500003930123038210234382002383825F49DD
:10BC60000C3100F087FC031C002B00D0B3E0604BCC
:10BC700069468B800B7A03229343012213430B7294
:10BC8000002308228A700393012268460A82102248
:10BC90004A828B825149143100F06CFC031C002B4A
:10BCA00000D098E0534B68468380027A03239A437E
:10BCB00002231A4302720822134383704E4B0393EC
:10BCC0000122028212224282A63BA5229B5C838231
:10BCD00042491C3100F04EFC031C002B7BD1474B2A
:10BCE0006A469380127A03239A4302231A436846D2
:10BCF0000272082213438370414B03930123838212
:10BD0000438203823549243100F034FC031C002BAC
:10BD100061D13C4B69468B800A7A03239A43022304
:10BD20001A430A72082213438B70374B0393042380
:10BD30008B8268464B820B8228492C3100F01AFC1A
:10BD4000031C002B47D1314B6A469380127A0323A0
:10BD50009A4302231A4368460272082213438370EF
:10BD60002B4B039301238382438203821B4934318B
:10BD700000F000FC031C002B2DD1264B69468B8064
:10BD80000A7A03239A4302231A430A7208221A43A7
:10BD90008A70214A03928B8268464B820B820F493C
:10BDA0003C3100F0E7FB031C002B14D11B4B6A460F
:10BDB0009380127A03239A4301231A43684602723E
:10BDC0000822827000220392838243820382034905
:10BDD000443100F0CFFB09B030BDC046F430002044
:10BDE000483100208120000082200000E03F002038
:10BDF0008320000084200000FA3F002085200000FE
:10BE0000F13F002086200000F43F00208720000042
:10BE1000F83F002088200000903F0020892000008B
:10BE2000F0B5474680B484B0041C0388512B00D081
:10BE30000BE18379022B00D007E1028B854B1B8835
:10BE40009A4200D001E1837A012B00D0FDE0038A01
:10BE500081481A1892B2012A26D87E4A9278002A7E
:10BE600016D09C237D4AD25C238C934200D0E4E020
:10BE7000201C22307A4907F025FD002800D0DCE0A4
:10BE8000228A7549521853425A41724B9A70CAE03D
:10BE9000744A934200D0D0E0238C013B9BB2002235
:10BEA0000E2B00D8B1E0C8E06A4B9B78002B00D085
:10BEB000C3E0B8E0258C00239D420DD1C3E0218C66
:10BEC000A523664AD15401F097FD0022664B1A70F3
:10BED000B9E001F091FDB6E0202610229446042737
:10BEE000B846E21820329178CAB2101CB04340B272
:10BEF00028300DD0101C6746B84340B2143007D02C
:10BF00004046824352B2103202D0814300D097E0C3
:10BF10000133DBB29D42E4D8A423504AD35C9D4256
:10BF200000D890E0E31820339D78131C0B229A561A
:10BF30006BB29A4200D186E0181CFFF73BFE80B23C
:10BF4000002800D07CE0454BDD7201F055FD7AE021
:10BF50002223E35C032B73D8A42240498A5C9A42D3
:10BF600071D0CB1898331D7ACA7A52B26BB29A420A
:10BF700069D0181CFFF71EFE80B2002860D1374B35
:10BF8000DD7201F039FD5EE06846211C223102229B
:10BF900007F0A7FC69460B88191C143989B2334A8B
:10BFA00091424DD82D4A928F9A424CD001F024FDF7
:10BFB00049E02A4D281C8C3000212C2207F09AFCE5
:10BFC00010229C23EA54EE229F23EA540422A02349
:10BFD000EA54FC22A223EA54F422A323EA540122C5
:10BFE000A423EA540A22A523EA54281CA630204997
:10BFF0000B2207F076FC281CB1300021072207F045
:10C0000079FC01F0F9FC1EE000220023009301936B
:10C010000293039302236F463B70BA80A08869465F
:10C02000FFF7CEFD11E0238A12495B189AB2052A68
:10C03000EAD89300104AD3589F4684225200E4E77E
:10C0400084225200E1E70022DFE704B004BC9046FE
:10C05000F0BDC046F43000207EDFFFFF543F0020DB
:10C06000E03F00208220000048310020EC27000043
:10C07000086502007CDFFFFFF064020000000000A2
:10C0800008B5134B1B78002B1BD0124B124AD0580B
:10C09000410CC0030D4B0C4A06F05CFD0F4B1A68B7
:10C0A000801A5B6898420CD30022094B1A70FFF784
:10C0B0007FFDFFF739FC0A4B984202D10020FFF7C1
:10C0C0003DF9002008BDC046E880000000000000E7
:10C0D00048310020040500000010014040310020DC
:10C0E000FFFF0000C046C04630B583B0031C0C1CE7
:10C0F0000B4D281C191C221C07F0F3FBA63DA523A1
:10C10000EC54FFF711FC074B998B0023009301932C
:10C110006B461C806A46FFF751FD80B203B030BD0C
:10C12000FA3F0020F430002010B5002811D0012281
:10C130000B4B1A700B4CFA239B00584360600A4B60
:10C140000A4AD058410CC003044B034A06F002FDD2
:10C15000206010BDC046C046E8800000000000001E
:10C16000483100204031002004050000001001404B
:10C17000014B18787047C04648310020A0DF704757
:10C18000A6DF704710B586B0FFF7CEFB2B4B984269
:10C190000BD12B4801F0A2F9FEF7B8FF02284AD1D3
:10C1A00000200021FEF79AFE45E0FEF7AFFF0228CF
:10C1B00011D1234B1B899BB2002B04D0214B1B892F
:10C1C0009BB2002B07D1FEF7A1FF022803D100206C
:10C1D0000021FEF783FEFFF74BFC00282BD0184808
:10C1E00019491431142201F0DDF86B46D882002879
:10C1F00021D0164B1870FEF789FF022803D10020CA
:10C200000121FEF76BFE01AC0023019302930E4B5C
:10C210009A8822800122A2706A4616320392143351
:10C220000493FFF781FB211CFFF7AAFF80B20028CF
:10C2300001D1FFF725FC06B010BDC046FFFF00008E
:10C2400040290020502900204C3100207831002066
:10C2500030B589B0051C324C201C0021282207F083
:10C2600049FBA57007A901230B808D700120221CBA
:10C27000FFF784FF83B2181E4FD1019302930593F9
:10C2800027490B886A46138007AB9B78937102237A
:10C29000137201231382142353822123D3700323A7
:10C2A0009380102393700B1C143303931D4B069340
:10C2B0000431684600F05EF9031C002B2DD10223E7
:10C2C0006A4693800823937000230393164B0693CA
:10C2D000684613490C3100F04DF9031C002B1CD1AA
:10C2E0001248134907F0BEF8031C124A10600520DB
:10C2F000002B12D0181C002107F04CFC0E4801F056
:10C30000EDF80E4801F0EAF800220D4B1A700D48C6
:10C3100001210D4A02F09CFC80B209B030BDC0463C
:10C320004C3100201C6502002065020024650200DB
:10C330002C650200503B002040290020502900209D
:10C34000493100207431002085C1010000B583B05F
:10C3500006486946073100F0E1FF002802D06B462D
:10C36000D87901E00120404203B000BD50290020EF
:10C3700000B583B0011C07486A46073201F02CF86B
:10C38000002802D06B46D87901E00120404203B07A
:10C3900000BDC04650290020014B188980B270476B
:10C3A00050290020014B188980B270474029002095
:10C3B000F0B583B06B46D8711D4B1E4AD058410C66
:10C3C000C0031A4B184A06F0C5FB061C1A4F174D3E
:10C3D000154C02E0012006F0B5FA381C6946073119
:10C3E00001F026F800280BD1114B124AD358590CF2
:10C3F000D803221C2B1C06F0ADFB831BC72BE9D9ED
:10C400000B4B0C4AD058410CC003084B064A06F0AF
:10C41000A1FB861BC72E02D86B46D87901E001200C
:10C42000404203B0F0BDC046E880000000000000BC
:10C43000040500000010014040290020C046C0460D
:10C4400070B50388102B08D002D8012B2FD03EE006
:10C45000112B09D0502B0CD039E01D4B18686221EC
:10C46000002202F02DFC32E0194B186802F07EFC2D
:10C470002DE0C288174B9B899A4228D1C38B002B91
:10C480000CD00024144E851D29191A31301C00F0DF
:10C49000CFFF0134A4B22B8BA342F5D8FEF736FEB2
:10C4A000022814D100200121FEF718FD0FE0027AC6
:10C4B0000A4B1B789A420AD1FEF728FE022803D1C4
:10C4C00000200021FEF70AFD0022044B1A7070BD07
:10C4D000743100204C310020502900207831002098
:10C4E000014B18787047C0464931002008B5064B0B
:10C4F0001A7801218A1A1A70044800F0EFFF0448E4
:10C5000000F0ECFF08BDC046493100204029002062
:10C5100050290020A2DF704763DF704764DF704757
:10C5200010B586B000226B46DA7100235942C2185A
:10C53000D47B02AA8C54013B1A1C1032F6D102A8FB
:10C5400000234373037369460731FFF7E5FF83B2A6
:10C550000F2B08D1102002A96A46FFF7DFFF6B46B8
:10C560009A78DA7102E00020002B01D16B46D8796D
:10C5700006B010BDF0B5474680B490B0041C0D1C49
:10C58000C378002B08D10F229343012213430F22BB
:10C59000134010221343C370484B5B7B002B09D11F
:10C5A000E3780F229343012213430F2213401022FA
:10C5B0001343E370A37830221A4217D00FAE301C19
:10C5C0000021032207F096F9B37806229343022252
:10C5D0001343B37033780F229343012213430F2286
:10C5E0001340102213433370E378737008AA0020BD
:10C5F000089009900A900B900C900E90A3781370FD
:10C6000000223021194200D00FAA0D9207AA002360
:10C6100013801123137002239370A06900280BD09C
:10C620000378002B08D008AE099007F017FC80B201
:10C630003081708107AB336106AB00221A80618ABA
:10C64000268A761A771EBE4101221640207A0327D9
:10C6500007407F00F6B2B446C6081640F600B04662
:10C660006646374380080240100142463A4302437F
:10C670009A70A37832221A4202D0E27806AB1A707E
:10C68000A3781A0702D5E27806AB5A7001AA0023F4
:10C690009360D360231D019306AB5360A38A13817B
:10C6A0009181E3681361208808A92B1CFFF732FFF2
:10C6B00080B210B004BC9046F0BDC046543F00208C
:10C6C000A0DF704710B594B012A83C49042207F0CF
:10C6D00008F9012012A96A464E32FFF7F1FF83B232
:10C6E000181E68D10BAC0C930D930F9310931193FC
:10C6F0006B464E331B8823800223A3700122A27154
:10C7000023721123E3702E4BA3802E480E9007F066
:10C71000A5FB80B2A08260822082201C09A9FFF7BD
:10C7200029FF031C002B46D10BAC274BA3802748C5
:10C730000E9007F093FB80B2A08260822082201CC2
:10C7400007A9FFF717FF031C002B34D10BAC204BBC
:10C75000A38020480E9007F081FB80B2A082608207
:10C760002082201C05A9FFF705FF031C002B22D106
:10C770000BAC194BA38001F0C1FBE06007F06EFB2E
:10C7800080B2A08260822082201C03A9FFF7F2FE03
:10C79000031C002B0FD10BAC104BA38001F094FBBA
:10C7A000E06007F05BFB80B2A08260822082201CE8
:10C7B00001A9FFF7DFFE14B010BDC04630650200CE
:10C7C000292A000034650200242A00005C6502006A
:10C7D000282A000048650200262A0000272A0000B7
:10C7E00010B50C1C0B78022B0DD1FFF7A9F800280F
:10C7F00001D0FFF7B3F8E379022B04D102480021FE
:10C80000052207F077F810BD7C310020F0B54F46C7
:10C810004646C0B49BB014AC00226260E260626124
:10C82000082323800123A370E3702121217161710A
:10C8300002212181A172E3722121217361730521FB
:10C84000218203218946A174E37421212175617538
:10C8500012AF13923B80BB700223FB7021237B71CC
:10C8600001250F2290462026BB71684600214822F0
:10C8700007F040F82F4B00932F4B1B7D69460B723E
:10C880004B724A468A7203940D7405972B4B08939A
:10C89000A9238B8442462A4032432C23CA540223C4
:10C8A000FF336A460B8633234946D15442462A4019
:10C8B000324334236946CA5442462A4032433C2319
:10C8C000CA5442462A4032433D23CA5442462A4073
:10C8D00032433F23CA5442462A4032434023CA547B
:10C8E00042462A4032434123CA5442462A403243F8
:10C8F0004323CA5442462A4032434423CA54424640
:10C900002A4032434623CA54424615402E43472309
:10C91000CE540B4805F090FC84B2002C04D1094899
:10C920000021052206F0E6FF201C1BB00CBC90463F
:10C930009946F0BDE1C70100543F00206865020040
:10C94000843100207C31002008B5011C014805F02D
:10C9500069FB08BD84310020F0B5474680B482B041
:10C96000041C0D1CFEF7E0FF08232D4A90424ED018
:10C9700068460021082206F0BDFF6A46157063B2C2
:10C98000002B02DB274B1B5D00E000236A469370FF
:10C99000FFF76EF800282ED1234B244AD058410CC3
:10C9A000C0031E4B1C4A06F0D5F8061C1F4B9846C8
:10C9B0001D4F1A4D184C02E0192005F0C3FFFFF778
:10C9C00057F800280AD14246D359590CD803221CE3
:10C9D0002B1C06F0BFF8801BC728EDD9124B134A59
:10C9E000D058410CC0030D4B0B4A06F0B3F8861B20
:10C9F0000423C72E0BD80E48002108226B4605F0F1
:10CA000063FF84B2231E02D1FFF73AF8231C181CDF
:10CA100002B004BC9046F0BDE880000000000000B9
:10CA2000FFFF000014660200040500000010014032
:10CA300084310020C046C046F8B54F464646C0B4D3
:10CA40008146FEF771FF0823254A90423ED0FFF74A
:10CA50000FF800282ED1234B234AD058410CC00395
:10CA60001E4B1D4A06F076F8061C1F4B98461D4FBC
:10CA70001A4D194C02E0192005F064FFFEF7F8FF8B
:10CA800000280AD14346DA59510CD003221C2B1C32
:10CA900006F060F8801BC728EDD9124B124AD05817
:10CAA000410CC0030D4B0C4A06F054F8861B0423BE
:10CAB000C72E0BD80D48002108224B4605F004FF75
:10CAC00084B2231E02D1FEF7DBFF231C181C0CBC12
:10CAD00090469946F8BDC046E8800000000000007E
:10CAE000FFFF000004050000001001408431002019
:10CAF000F0B5474680B4041CFEF716FF08232E4A03
:10CB000090424FD02378FF2B08D12C4D2E78281C33
:10CB1000211C052206F0E5FE2E7004E02748211CAA
:10CB2000052206F0DEFEFEF7A3FF00282ED1244BDF
:10CB3000244AD058410CC0031E4B1D4A06F00AF887
:10CB4000061C204A90461E4F1A4D194C02E019202F
:10CB500005F0F8FEFEF78CFF00280AD14246D359B3
:10CB6000590CD803221C2B1C05F0F4FF801BC7288E
:10CB7000EDD9134B134AD058410CC0030D4B0C4A4E
:10CB800005F0E8FF861B0423C72E0BD80E480221B0
:10CB900005220A4B05F098FE84B2231E02D1FEF74F
:10CBA0006FFF231C181C04BC9046F0BDC046C04655
:10CBB000E880000000000000FFFF00007C31002042
:10CBC000040500000010014084310020C046C0462A
:10CBD000F8B54F464646C0B48146FEF7A5FE082389
:10CBE000254A90423ED0FEF743FF00282ED1234B2A
:10CBF000234AD058410CC0031E4B1D4A05F0AAFF22
:10CC0000061C1F4B98461D4F1A4D194C02E0192067
:10CC100005F098FEFEF72CFF00280AD14346DA59AA
:10CC2000510CD003221C2B1C05F094FF801BC7283D
:10CC3000EDD9124B124AD058410CC0030D4B0C4A8F
:10CC400005F088FF861B0423C72E0BD80D48012151
:10CC500002224B4605F038FE84B2231E02D1FEF7B5
:10CC60000FFF231C181C0CBC90469946F8BDC0460B
:10CC7000E880000000000000FFFF00000405000045
:10CC8000001001408431002022DF704723DF70470D
:10CC9000F0B54F464646C0B4404AA023DB00D0580A
:10CCA00084460021D150A023DB05E622D20099580A
:10CCB00089463B4999503B4A985880469950A12251
:10CCC000D200802189019950802149019950042086
:10CCD0000138C046C046C046C046C046C046C046F1
:10CCE000C046C046C046C046C046F1D1A223DB00C4
:10CCF000A022D205D358990407D5A223DB00A02295
:10CD0000D205D3580120DA0435D41222A023DB0542
:10CD1000254F80214901A126F600A225ED0080249F
:10CD2000A401D95104200138C046C046C046C046BF
:10CD3000C046C046C046C046C046C046C046C046C3
:10CD4000F1D1995104200138C046C046C046C046C2
:10CD5000C046C046C046C046C046C046C046C046A3
:10CD6000F1D15859204203D1013A002AD9D101E02A
:10CD7000012000E00020A023DB05E622D200494686
:10CD80009950084A41469950A023DB00034A614666
:10CD9000D1500CBC90469946F0BDC04600300040D2
:10CDA0000D060000340700000C05000010B5114B03
:10CDB000B122D200985001229A60002082214900BD
:10CDC00058505A61191C822252008B58002BFCD0FB
:10CDD000084B0022822149005A5007495858022422
:10CDE0005C50922149005A50400801235840184095
:10CDF00010BDC04600300040C404000008B5A023A8
:10CE0000DB05184AE621C9005A5017495A50174BFA
:10CE10000022842149005A508E2149005A500C2189
:10CE2000A122D20099500D21114A9950CC214904D8
:10CE3000104A995000201049104AFFF727FF00239D
:10CE400000280DD10120FFF71FFF0023002807D184
:10CE50000521A023DB00054AD150FFF719FF031C71
:10CE6000181C08BD0C06000034070000003000400C
:10CE70000C05000024050000383100401C30004043
:10CE800030B507291CD80124231C8B401902082324
:10CE9000184308430B4B0C4D5851A021C9005C505E
:10CEA000002A0DD0C122920001219950074B9858B9
:10CEB0000002000A8021C9050143995080221A60AE
:10CEC00030BDC046007000400405000000E100E0F5
:10CED000054B1A21054A9950802205498A500121A3
:10CEE000A022D20099507047007000400405000055
:10CEF00000E100E00122084B1A60191C8022520058
:10CF00008B58002BFCD0044B0021802252009950FA
:10CF1000A122D200985870470070004008B5FFF772
:10CF2000E9FFE1231B015843800A08BD2EDF70474B
:10CF300033DF704721DF704723DF704710B5041ED1
:10CF40000F2C08D8C0B2FFF7F7FF0120A040FFF771
:10CF5000F1FF201C01E00120404210BDF8B55F4602
:10CF600056464D464446F0B40378013B022B00D9A7
:10CF7000A0E0437B042B00D99FE09B00634AD35879
:10CF80009F460921A223DB00614AD1506422614BF4
:10CF90001A6023E00821A223DB005D4AD150FF2262
:10CFA0005C4B1A601AE00521A223DB00584AD150DD
:10CFB000FA229200574B1A6010E00221A223DB00F4
:10CFC000534AD1506422534B1A6007E00021A22338
:10CFD000DB004F4AD150FF224E4B1A6006784E4B71
:10CFE0001E60002E6CD0021C00234C498A46A021F2
:10CFF000C90589460324A046494DAC469B46547852
:10D00000990055464C51C134FF34A40045464F4663
:10D01000E5515C466746CC51917A424D59550133F2
:10D0200001329E42EBD83A4B0122DA600022A12164
:10D03000C9005A5037490C6864003B495C503B4971
:10D040005A500824802189005C50A62149005A507A
:10D05000A42149005A50A22149005A50A021490058
:10D060005A50051C002300242E4FB94630498846EB
:10D070004A46A75CBF002F497F1828799B002E4A9B
:10D0800099183A1CFFF75AFF687941463A1CFFF796
:10D0900055FF0134231C0235A642E9D80A2003219A
:10D0A000FFF746FF0A20FFF741FF0122184B1A60E5
:10D0B000002024E00120404221E0012040421EE007
:10D0C000134B0122DA600022A121C9005A501149F4
:10D0D000086840001449585014495A5008208021CB
:10D0E00089005850A62149005A50A42149005A509D
:10D0F000A22149005A50A02149005A50CEE73CBC19
:10D1000090469946A246AB46F8BDC04694660200DA
:10D1100000A000402C3300200433002014330020F2
:10D1200020330020003300204C05000004050000DF
:10D130004CA100400060004040A1004080000E4B28
:10D14000C1500E4B0021A622520099500C4980225A
:10D1500092009950C12292009B581A0307D4074BA2
:10D1600001225A6080210903C122920099500122B4
:10D17000024B1A607047C0460833002000A00040F0
:10D1800008080000F0B5454A0023A6214900535085
:10D1900001204042C22189005050414A1360414B56
:10D1A0001B68002B72D000233F4D404E141C9A0088
:10D1B0005259002A15D13E4AD75C4537FF37BF0088
:10D1C0003C493D4AB9509B003C4A9A580127391CBA
:10D1D00091403B4AA027FF05B9500027394A9F508C
:10D1E0004CE03068824216D33149CF5C4537FF3777
:10D1F000BF003049304AB9509B00304A9A58012745
:10D20000391C9140A122D200A027FF05B950002768
:10D210002C4A9F5032E05100A82040001A1892007A
:10D220001E4FD1519A0027495258002A26D1204A30
:10D23000D75C9B0021481A580123181C9040A12359
:10D24000DB00A021C905C850BB001B495B181E4963
:10D25000A227FF00D951C046C046C04601271F6023
:10D2600012021A4F3A43A227FF00DA51C046C046C5
:10D27000C04622689300012212481A50084A1368D7
:10D2800001331360074A12689A4290D8034B082171
:10D2900080229200995001221A60F0BD00A0004047
:10D2A000FC32002004330020083300202C330020FF
:10D2B00000330020001F03000060004014330020F2
:10D2C0000C05000020330020031F010003001300A1
:10D2D00010B5074C0123A122D200A350054AA35048
:10D2E000C003FA21890005F085FB034BE05010BD17
:10D2F000000001400C050000040500000122014B64
:10D300001A607047000001400249C023DB00024A56
:10D31000D15070473546526E0000014010B5041CD4
:10D320000068002837D0A3880020002B36D0E3887F
:10D33000002B33D023899BB2002B2FD0A37B5AB272
:10D34000002A07DD1F22134001229A40131C80226D
:10D3500013488350A389E28853432068C318081CEC
:10D36000191C06F0BEFAA0890130A18805F0E6FB81
:10D3700089B2A1812389013B9BB22381A37B5AB24D
:10D38000002A0ADD1F22134001229A40131C044A7E
:10D390001360012002E0002000E0012010BDC04623
:10D3A00000E100E0F8B5061C0C1C171C002000254D
:10D3B000002A06D10EE00135ADB2F388E418BD4273
:10D3C00007D0301C211CFFF7A9FF0028F3D1281C2F
:10D3D00000E0281CF8BDC046F0B5474680B4031CE9
:10D3E000171C0468002C1FD085880020002D1CD03D
:10D3F000DA889046002A18D01E89B6B2002E14D0C2
:10D400001A8992B28A4210D998894018291C05F0CD
:10D4100095FB0904090C434659436118381C4246E0
:10D4200006F05FFA012000E0002004BC9046F0BD49
:10D4300070B5041C0E1C0368002B46D083880020A6
:10D44000002B45D0E288002A42D0228992B2934232
:10D4500002D1E07B00283BD0A37B5AB2002A07DD33
:10D460001F22134001229A40131C802219498B501D
:10D470006089E288504323681818311C06F031FA9D
:10D480006089A5880130291C05F058FB89B26181AB
:10D4900023899BB29D4207D131780F4806F0E2FA0A
:10D4A00063899BB2A38103E0238901339BB223816B
:10D4B000A37B5AB2002A0ADD1F22134001229A40A0
:10D4C000131C044A1360012002E0002000E0012048
:10D4D00070BDC04600E100E0A8660200837B5AB23E
:10D4E000002A07DD1F22134001229A40131C8022CC
:10D4F00008498B500023038143818381837B5AB287
:10D50000002A06DD1F22134001229A40131C014A03
:10D510001360704700E100E010B5FDF7F7FD01284A
:10D5200049D1414B414AD058410CC0033D4B3C4A84
:10D5300005F010FB3E4B1A68801A5B6898423AD39C
:10D540003C4B1A7801321A700020FDF7D1FD0123FF
:10D55000011C5940C9B20020FDF7C0FCFDF7B2FC28
:10D56000002806D1334B1B78032B02D90022314B04
:10D570001A70FDF7A7FC012807D12E4B1B78052B4D
:10D5800003D900222B4B1A7003E02A4B1B78002B87
:10D5900011D100200021FDF7A1FC254CFA23DB006E
:10D5A0006360214B214AD058410CC0031D4B1C4ADB
:10D5B00005F0D0FA20601C4B1C4AD058410CC00327
:10D5C000184B174A05F0C6FA1B4B1A68801A5B689D
:10D5D000984212D30120FDF78BFD0123011C594015
:10D5E000C9B20120FDF77AFC0020FDF795FD002867
:10D5F00013D10122114B1A700FE00020FDF78CFDB2
:10D6000000280AD1084B094AD058410CC003054BE9
:10D61000034A05F09FFA084B186010BDC046C0468B
:10D62000E880000000000000040500000010014038
:10D6300034330020303300206029002031330020B3
:10D6400070B5FDF73FFC002808D001284ED17B4B78
:10D650001B6858689968FBF7D5F847E0774B1B685B
:10D660005868FBF719F8002840D1744B18684268D5
:10D670005368013B5360002B04DA416806F048FA16
:10D68000041C04E042681368591C11601C78611C7A
:10D690002CD0FEF749F96A4B984227D0694B1A689B
:10D6A0009368013B9360002B19DA91698B4210DB80
:10D6B00013681C70634B1A68136819780A2902D022
:10D6C0000133136012E05D4B18680A2107F0B6FCC5
:10D6D0000CE05A4B1868211C07F0B0FC06E01368F8
:10D6E0001C70584B1B681A6801321A60FEF7F8FE6E
:10D6F00000280ED0012800D09DE0FEF715F9504B10
:10D70000984200D197E04F4B1968081CFBF77AF854
:10D7100091E0FDF7D7FB002843D14A4B1868FAF790
:10D72000BBFF002800D086E0464B19684B68013BE0
:10D730004B60002B05DA414B186806F0E9F9011C33
:10D7400003E00B685A1C0A6019784A1C73D03B4BE3
:10D75000186882689368013B9360002B17DA82682F
:10D7600093689469A3420FDB13681970334B1868F0
:10D770008268136819780A2902D0013313605AE0CD
:10D780000A2107F05BFC56E007F058FC53E0836881
:10D790001B681970294B1B689B681A6801321A6054
:10D7A00049E0FEF7F9FDC4B2032C44D9FF2505403A
:10D7B000244B1868691E89B200F0D6FA0D2801D0F2
:10D7C0000A2838D1023DADB21E4B1868291C00F062
:10D7D000CBFA2B282AD0042C2DD90D2828D00324AD
:10D7E0000A2826D027E02B1B99B2306800F0BCFA3B
:10D7F0002B2804D1013CE4B2002CF4D101E0002C30
:10D8000019D1FEF773FEFEF78FF80D4B984212D038
:10D810000C4C2568FEF764FE021C281C0A4905F022
:10D820002DFE2168094805F0C1FE04E0022400E055
:10D830000324044ED7E7002070BDC046D429002041
:10D84000FFFF0000503B0020FC590200E459020099
:10D8500070B582B0FDF766FBFDF732FEFAF758FEB1
:10D8600001A80121184A01F0F3F983B2002B02D07C
:10D870000004000C25E00198F821002201F020FAB4
:10D8800083B2181E1DD11148FFF722FDFFF736FDA8
:10D890000F4D104E0124FFF737FD2B78002B03D0DE
:10D8A000301C0021FAF744FEFDF7CEFCFDF758FFCF
:10D8B000FDF756FF044201D0FFF7C2FEFDF73AFC28
:10D8C000E9E702B070BDC04619D50100102700007D
:10D8D00031330020B86602002BDF70472CDF704721
:10D8E0002DDF7047074B9B6802689A4209D1426856
:10D8F000044BDB689A4204D1022902D10022024B78
:10D900001A707047403300203C33002030B583B09C
:10D91000294B1B78002B4DD0284C294B6360FD23ED
:10D92000DB006380274D201C291C002203F032FEFF
:10D930006051254B1B78002B3CD1019301A803F0CB
:10D9400015FE1423019A9B1A032B33D91F48FFF7A6
:10D95000C5FF00282ED11E488021C90003F0CEFD4E
:10D9600080B2002826D11A4808308021C90003F06F
:10D97000C5FD80B200281DD1154810498022D20073
:10D98000002303F0E1FC80B2002813D110480830D6
:10D990001049FA229200002303F0D6FC80B200283E
:10D9A00008D10122084B1A700022034B1A70074855
:10D9B000FFF796FF03B030BD50330020543F0020E6
:10D9C00007060000E40700003C330020513300202C
:10D9D0004033002054430020044B1B780120002BCF
:10D9E00003D1034B18784042C00F704750330020DA
:10D9F0003C33002000000000F0B5474680B4284BBF
:10DA0000284A5A60FD22D2005A80274B274AD05814
:10DA1000410CC003214B204A05F09CF8061C244F02
:10DA2000224A90461D4D1C4C02E00A2004F08AFF59
:10DA3000381CFFF753FF00280CD01B4B4246D3582D
:10DA4000590CD803221C2B1C05F084F8801B194BA1
:10DA50009842EAD9144B154AD058410CC0030F4BD9
:10DA60000D4A05F077F8861B0D20124B9E420FD809
:10DA70000B4C61880439201C002203F08BFD0E4BF7
:10DA8000E05001220D4B1A700948FFF729FF0020D2
:10DA900004BC9046F0BDC046E880000000000000D5
:10DAA000543F00200706000004050000001001405C
:10DAB00051330020E7030000E4070000503300204A
:10DAC000F8B52F4CFD25ED00201C00212A1C05F087
:10DAD00011FF2C4B238065802B4B6360012626723F
