:020000021000EC
:10800000008000204D500200B1500200B350020029
:108010000000000000000000000000000000000060
:10802000000000000000000000000000B550020049
:108030000000000000000000B7500200B95002002C
:10804000BB500200BB50020019160200BB500200D8
:10805000C9CB010000000000CD070200BB500200A8
:10806000BB500200BB50020075D10100BB500200A2
:10807000BB500200BB500200BB500200BB500200CC
:10808000BB500200A50B0200BB500200BB50020017
:10809000DD0C020025430200011B0200BB50020060
:1080A000BB500200BB5002000000000000000000B6
:1080B00000000000000000000000000000000000C0
:1080C000164B002B00D1144B9D46402292029A1A67
:1080D000924600218B460F461348144A121A0DF09F
:1080E000ECFF0F4B002B00D098470E4B002B00D01D
:1080F00098470020002104000D000D48002802D000
:108100000C4800E000BF0DF031FF2000290004F012
:108110009DFB0DF0B7FCC046000008000080002069
:108120000000000000000000682A0020F45D00202C
:108130000000000000000000F8B5031C0F1C151C17
:108140000020042B23DC5900C9188900104A8E58DE
:10815000002E17D00F4A10680E21425E9A4203D0BB
:108160000024281E13DD05E0391C2A1C08F0CCF978
:10817000281C0CE0385DB047013005D00134AC421A
:10818000F8D103E0002002E0201C00E0281CF8BD2C
:108190000C8102007C320020F8B50F1C161C04284C
:1081A00018DC430018188000104B18184568002D83
:1081B00013D0002A14D0002915D00024A847431C4E
:1081C00003D038550134A642F8DC201E0DD1012021
:1081D00040420AE00120404207E00120404204E022
:1081E0000120404201E001204042F8BD0C81020024
:1081F00010B5041C08490EF07DFA002807D0201C99
:1082000006490EF077FA002803D1042003E003208A
:1082100001E00120404210BDFC8002000481020008
:1082200008B50E22835E042B0ADC5A00D3189B008B
:10823000064AD3189B68002B05D0081C984704E019
:108240000120404201E00120404208BD0C810200B3
:1082500010B584B0012902D902290CD03EE0214B8F
:108260001B7DDB07DB0FDBB2101C1F491A1C0DF056
:1082700069FC002033E06A460023D370033201A971
:1082800001938B6008230B704A60012203F0CEFA41
:10829000012801D0154822E06B4603331B78114AB0
:1082A000127DD207D20FD2B29A4215D00D4A0120C8
:1082B0001840117D0124A14301431175002B03D007
:1082C00004214923D15405E000214923054AD15412
:1082D00006F098FF05F0E4FA002000E0034804B03F
:1082E00010BDC046A04A00205881020062800000F4
:1082F00010B582B0041C02291CD1124B1B7DDA0779
:108300001AD506F011FF031C08200F4A934216D01D
:108310006846002108220DF0D0FE201C6946082284
:1083200003F03CFA431EDBB2072B07D8684607F080
:10833000EBFB04E0054802E0054800E0034802B01A
:1083400010BDC046A04A0020FFFF00006280000070
:1083500063800000F0B557464E464546E0B48AB00B
:10836000041C022963D1374B1B7DD80761D52378C4
:10837000002B60D0101C01F06BFB04A9324A0B1CCF
:1083800061CA61C322CA22C312881A802F4B1E6899
:1083900002969A8802AB9A802D4B186800909B88B1
:1083A00069468B80201C2B490EF0A4F943424341BF
:1083B000E41802AA9246284B99460325A84630E0C5
:1083C00066785C2D0BD15046311C0EF087F90028E1
:1083D00005D05646801B69460D5CA71CA6784A4608
:1083E000126853195B78404603400221012B06D0E6
:1083F00004A8291C0EF072F9411E88414100281C76
:1084000007F006FB0F200CF001FEAE4201D0002E5B
:1084100006D10020002107F0FBFA0F200CF0F6FD3A
:108420003C1C671C2578002DCAD1002004E00B48B5
:1084300002E00B4800E009480AB01CBC904699468F
:10844000A246F0BDA04A0020648102007C810200A7
:108450008481020060810200002A00206280000006
:108460006380000010B588B0041C02293CD1224B67
:108470001B7DDA073AD506F057FE021C08201F4B79
:108480009A4236D007A900230B800F230693201CA5
:1084900003F038F9002819D10023009303930593C2
:1084A00009236A4613700223537007AA0192144AE3
:1084B00002926A46137306AB0493201C694602229B
:1084C00003F0B4F9431EDBB2012B11D807AC201C1A
:1084D00007F002FC06980CF099FD00232380201C75
:1084E00007F0FAFB002004E0064802E0064800E03E
:1084F000044808B010BDC046A04A0020FFFF00009D
:10850000A8830200628000006380000000B58FB085
:10851000022925D10CAA00230C931371FF2111709D
:1085200000930293039305930693089309930B9387
:10853000062369460B70013201920B7301320492DB
:108540000B760132079224228B540DAB0A9304223E
:1085500003F06CF90138C0B2032803D9044804E0E1
:10856000034802E00CA807F03BFB0FB000BDC0467B
:1085700062800000F0B5474680B492B0022900D076
:10858000E9E00EA97B4B0A1C70CB70C21B6813601C
:108590000CAD00220C922A710B926C460F2363855E
:1085A0002A3401AB019203920492079209920522A8
:1085B0001A70029507221A7304225A730BAD05959F
:1085C00006911A76089403786B4A1268D3185B7880
:1085D000590774D40023009301A90B7000AA4A60C4
:1085E000032203F023F9031C0138C0B2022800D88B
:1085F000B5E062E00B9B032B5FD1009800286CD0A4
:108600000EF08AF8052858D800245B4E03275B4DEE
:10861000A84614E00098021913783068C118487809
:108620003840191C022800D120391170009A515D80
:1086300040460EF053F800283FD00134E4B2251C28
:1086400000980EF069F88442E4D300984C210EF0B3
:1086500045F8002804D00CAB197801220A431A709F
:10866000009852210EF03AF8002804D00CAB19788B
:1086700002220A431A7000984D210EF02FF80028AC
:1086800004D00CAB197804220A431A7000984221D6
:108690000EF024F8002804D00CAB197808220A4305
:1086A0001A70009846210EF019F8002815D00CAB6E
:1086B000197810220A431A700FE0314856E001A9D8
:1086C000032203F0B3F8031C0138C0B202284AD9D0
:1086D0002B484BE00B9B032B3FD10CAC201C07F02D
:1086E0007FFA24780020002C40D00B9B022B0ED068
:1086F000032B25D00020012B38D10F200CF086FC55
:108700000CA80023037007F06BFA00202EE00F2066
:108710000CF07CFC0CAD00262E70281C07F060FAD3
:108720000F200CF073FC2C70281C07F059FA0F2056
:108730000CF06CFC2E70281C07F052FA002015E09B
:108740006B46588D0CF062FC0CA80023037007F0F8
:1087500047FA00200AE00A4808E0094806E0032B2F
:1087600000D04AE746E7032BB7D1B3E712B004BC09
:108770009046F0BD48810200002A00208C81020052
:108780006280000000B585B0012902D902290BD012
:1087900031E01A4B1B7DDB06DB0F101C18491A1C3D
:1087A0000DF0D0F9002027E06A460023D370033291
:1087B00001A901938B6008230B704A60012203F02A
:1087C00035F8012801D00F4816E06B4603331B78BB
:1087D0000A4A127DD206D20F9A420AD0074A0121D4
:1087E0000B401901137D102083430B43137505F0D3
:1087F00057F8002000E0034805B000BDA04A002063
:10880000588102006280000010B58CB0041C02295F
:1088100044D1264B1B7D11221340112B40D106F071
:1088200083FC031C0820224A93423CD00BA8002161
:1088300002220DF042FC6A462A3200231370684679
:108840002B30037001A901938B60CB604B618B616E
:108850000B6206230B7048600B730A6105230B76CD
:108860006B462D33CB61201C032202F0DFFF03286F
:1088700018D80BA86B462B331978032319400278BC
:108880009A436C462A34247823409B000A430C21E7
:108890008A431343037007F08BFA04E0054802E0B3
:1088A000054800E003480CB010BDC046A04A0020B7
:1088B000FFFF0000628000006380000000000000F5
:1088C000F8B54F464646C0B48046002803D02E482F
:1088D00041460DF0CFF92D4B18685968294B284AAD
:1088E0000CF0BCFC4B04C60B1E43CF0B284B1B6883
:1088F000984505D0254B9846F423FF33994610E060
:10890000A020C00523498022920443581342FCD082
:10891000A020C0051F498022920443581342FCD175
:10892000E8E704F0AFFF002813D043461868596801
:10893000144B134A0CF092FC4B04C40B1C43CD0B9C
:10894000221C2B1C921BBB41002B02D1E9D14A45B2
:10895000E7D90E4B186859680A4B094A0CF07EFC9F
:108960004904C00B0843861B632E03D86420801B78
:108970000CF04CFB0CBC90469946F8BDC046C04676
:10898000E880000000000000B8830200E85D0020DD
:108990007C32002004050000F0B5474680B494B056
:1089A00080460F1C151C80235B055A6E1B6E0FAC96
:1089B000201C26490DF0DCFD05F024F9021C0AAE4E
:1089C000301C23490DF0D4FD00230293214B039367
:1089D00004960594204B06930793204B089305F0CB
:1089E0002BF90990002F02D0022F0ED026E003AC05
:1089F0000AAF1B4E01CC291C0DF03CF9301C291C80
:108A00000DF038F9BC42F5D11AE04046154901AAEB
:108A10000DF0D0FD002803D0019B5A1E062A01D973
:108A200011480EE09B0002AA9858291C0DF022F96B
:108A30000B48291C0DF01EF9002002E00A4800E056
:108A4000002014B004BC9046F0BDC046C0830200B4
:108A5000CC830200D8830200E8830200F083020086
:108A6000748C0200FC8302006280000038B5051C93
:108A7000141C012902D902290CD01FE0124B187ACC
:108A80003030111C0DF096F81048211C0DF0F2F852
:108A9000002018E00DF040FE012811D12B78303B6A
:108AA000DBB2012B0ED8084A127A00209A420AD073
:108AB000054A137204F0F4FE002004E0044802E0CA
:108AC000034800E0024838BDA04A0020748C020030
:108AD0006280000008B500290AD1101CFFF7F0FEE3
:108AE000BFF34F8F034A044BDA60BFF34F8FFEE7AB
:108AF000024808BD0400FA0500ED00E062800000B5
:108B000010B5141C00290ED104F07AFF06F07AFB90
:108B1000201CFFF7D5FEBFF34F8F044A044BDA60E9
:108B2000BFF34F8FFEE7034810BDC0460400FA05AF
:108B300000ED00E06280000008B5002906D1101C9D
:108B4000FFF7BEFE05F078FF002000E0004808BDFA
:108B50006280000000B585B0012902D9022909D040
:108B600033E01B4BDB7D101C1A491A1C0CF0EAFF8A
:108B700000202BE06A460023D370033201A9019341
:108B80008B6008230B704A60012202F04FFE01281F
:108B900001D011481AE06B4603331B780C4AD27D92
:108BA000934210D00A4AD375002B05D003210B4BFA
:108BB000A022D205D15004E00C21084BA022D205FE
:108BC000D15004F06DFE002000E0002005B000BD93
:108BD000A04A002058810200628000001C070000AB
:108BE00010B5002923D1134B1B689A420CD106F013
:108BF000F9F8104B1C6806F0EFF8021C201C0E4917
:108C00000CF0A0FF002013E003F0B4FA0123181ABF
:108C1000C0B203F0B5FA094B1B689C6803F0AAFACE
:108C2000021C201C04490CF08DFF002000E00448C9
:108C300010BDC046E459002058810200642A00207B
:108C400062800000F0B54F464646C0B48BB0141C9D
:108C5000022959D1344B1B689A4257D000230993FB
:108C60006D4623352B7006A98846304A161C84CEE3
:108C700084C100930393059307236E463370022348
:108C8000737009AB01934746029708233373049529
:108C90006946022202F0CAFD031C0138C0B2012855
:108CA00038D923483AE0234A507DC0090122424086
:108CB000D2B203E01F4A527D5206D20F012B05D1DA
:108CC000201C1D490CF03EFF002027E06B4623339B
:108CD0001B789A421CD0002909D1164A0121CB1ACF
:108CE000D901537D7F2003400B43537508E0114A9F
:108CF00001210B409901537D402083430B43537561
:108D000004F0CEFD002009E0094807E00B4805E02B
:108D1000002003E009990029C5D0CBE70BB00CBCBB
:108D200090469946F0BDC046E4590020B083020049
:108D300062800000A04A0020588102006380000089
:108D400010B582B0141C022918D1114901AA0DF0E6
:108D500031FC002814D00199072913D8022913D017
:108D6000C9B20220002204F0CDFB04F005FC021C75
:108D7000201C08490CF0E6FE002006E0064804E04E
:108D8000054802E0044800E0034802B010BDC046B8
:108D9000FC830200088402006280000010B5141CED
:108DA00000290AD104F0D6FB04F0FAFB021C201CB7
:108DB00003490CF0C7FE002000E0024810BDC04689
:108DC000088402006280000010B5041C022917D13B
:108DD00006F0AAF9031C08200A4A934211D0201C6D
:108DE00009490DF087FC43424341E418201C04F07C
:108DF00037FF064B1968201C0CF03CFF002000E0F8
:108E0000034810BDFFFF000060810200E45900200C
:108E100062800000F8B5161C00292CD1184B196887
:108E20004B68013B4B60002B04DA164B18680DF0C1
:108E3000CDFA03E00B685A1C0A601878431C1CD05A
:108E40000F4F104C311C0CF0B5FE396848680138E2
:108E50004860002803DA20680DF0B8FA03E00868DB
:108E6000451C0D600078431CECD10748311C0CF008
:108E700001FF002002E0054800E00020F8BDC046E8
:108E8000E4590020642A0020748C020062800000F3
:108E9000F8B5051C141C00291ED0022916D12BE0A0
:108EA000281C1E490DF0FCFB002811D18022D200A5
:108EB000D21B92B2002A0DDB201C19490CF042FE95
:108EC0001848211C0CF0D6FE002026E0164824E0AD
:108ED000154822E0144820E005F092FE051C05F03C
:108EE00089FE8023DB005D1BAAB21B1A9BB2201CEB
:108EF0000E490CF027FEE3E705F082FE8026F6001F
:108F0000361AB6B205F076FE071C281C08490DF08B
:108F1000C7FB321C0028CDD0C2E7F8BD648902002F
:108F200010840200748C020062800000D48E020063
:108F30004889020010B5041C02292CD106F0F4F86F
:108F4000031C0820154A934226D0201C14490DF01A
:108F5000D1FB43424341E418201C04F081FE03F09E
:108F600041FA022803D10020012103F00FF9201C4F
:108F70000DF0D2FB81B2201C05F04AFF041C03F067
:108F800031FA031C201C022B06D10020002103F023
:108F9000FDF8201C00E0034810BDC046FFFF0000A4
:108FA0006081020062800000F0B5474680B4071C73
:108FB00000240D4EA3B29846A3009D59281C0DF025
:108FC000ABFB021C281C391C0DF046F8002803D00E
:108FD0000134052CEED101E0404600E0034800B228
:108FE00004BC9046F0BDC04614840200FFFF0000A0
:108FF000F8B5061C0F1C084D0024301C29680DF024
:10900000E1FB002801D03C7005E00134E4B20435F6
:109010000E2CF2D10020F8BD14850200F0B55F4699
:1090200056464D464446F0B493B0141C1D1C01290D
:1090300031D8714DA623EA5C9200704BD058211CA8
:109040000CF018FEA523EB5C012B1ED901256A4FFD
:109050006B4E6C4A90467B19A0339879326813188E
:109060005B786822934303D0211C0CF0A3FD05E03C
:1090700080004346C058211C0CF0FCFD0135EDB2C8
:10908000A5235D4AD35CAB42E5D85F48211C0CF0B8
:10909000F1FD0020A8E0022900D0A0E000231193F8
:1090A000109306A906938B60CB604B618B610B62BA
:1090B00011AB4B6002230B7310AB0B6106230B76D5
:1090C0006B463F33CB61032202F0B0FB8046013890
:1090D000C0B2022800D984E01198FFF765FF00288C
:1090E00005DA4A48211C0CF0C5FD49487CE001AB7B
:1090F0001870119E8000414BC0580DF00DFB3018C8
:1091000011900378002B44D0012712229346694620
:109110000331FFF76DFF8146002803D0119BC61A6B
:10912000F6B203E011980DF0F7FAC6B24B465A1E9C
:109130009341DBB29946FB185A46D31A9E4205DD8D
:109140003448211C0CF096FD09204DE001ABD819E4
:109150001199321C0CF08FFF119A921992461192BC
:10916000F619F6B24B46002B0DD0731CDFB26A46DF
:10917000D37801AA93559B00224A98580DF0CCFA57
:109180005044119000E0371C11980378002BBED199
:1091900000E001274346012B05D9109B012B22D863
:1091A0004A2215498B544246022A05D96B463F3361
:1091B00019789F23104AD15401A8391C05F034FBBB
:1091C000041C002C10D10C4B0321492299549E22DF
:1091D0009D5404F065FB06F04FFA201C04E00C4897
:1091E00002E00B4800E00A4813B03CBC90469946A8
:1091F000A246AB46F0BDC046A04A0020148402003F
:10920000002A002014850200748C020028840200C9
:10921000628000005484020008B50023FFF7FEFEC0
:1092200008BDC04608B50123FFF7F8FE08BDC046DB
:1092300010B584B049231C4CE35C033B5C426341A2
:10924000DCB2012906D8101C1849221C0CF07AFC4B
:10925000002027E0022920D16A460023D3730F3271
:1092600000930293082369460B700192012202F0D9
:10927000DDFA012813D16B460F331B78A34210D0BF
:109280000022002B00D0032249230749CA5404F0CE
:1092900007FB06F0F1F9002004E0054802E004486D
:1092A00000E0002004B010BDA04A00205881020058
:1092B0006280000000B585B001290AD8194B1B7DDA
:1092C0001B07DB0F101C18491A1C0CF03BFC00207C
:1092D00026E06A460023D3730F32009302930823DB
:1092E00069460B700192012202F0A0FA012816D102
:1092F0006B460F331B780B4A127D1207D20F0020EA
:109300009A420DD0074A01210B40D900137D082055
:1093100083430B43137504F0C3FA002000E00348B5
:1093200005B000BDA04A0020588102006280000004
:1093300000B585B0174B1B7D1A0725D5002902D033
:10934000022903D022E0B423039312E00023009308
:10935000029302236A46137003AB0193694601220C
:1093600002F064FA012802D1039B002B01DC0A48B9
:109370000DE0039805F078FA03214923054AD154FA
:1093800006F07AF9002002E0044800E0024805B047
:1093900000BDC046A04A002062800000638000003B
:1093A00000B585B001290AD8194B1B7D5B07DB0F7F
:1093B000101C18491A1C0CF0C5FB002026E06A4658
:1093C0000023D3730F3200930293082369460B7076
:1093D0000192012202F02AFA012816D16B460F33BE
:1093E0001B780B4A127D5207D20F00209A420DD0F3
:1093F000074A01210B409900137D042083430B434E
:10940000137504F04DFA002000E0034805B000BDDC
:10941000A04A0020588102006280000000B585B09B
:10942000022913D100230093029305236A46137087
:109430006B460F3301936946012202F0F7F90128C8
:1094400006D16B46D87B06F067F902E0024800E0DF
:10945000014805B000BDC04662800000F0B54F462F
:109460004646C0B483B0161C002902D0022924D07D
:1094700038E003240125224B98460027214B9946CA
:10948000E0B203F0AFFF00280BD0002D03D1484617
:10949000311C0CF0EFFB301C4146221C0CF052FB3F
:1094A0003D1C0134782CEBD10020002D22D1164830
:1094B000311C0CF0DFFB00201CE00023019313495A
:1094C00001AA0DF077F8002803D00198C31E742B71
:1094D0000AD90F480EE0301C0E49019A0CF032FBFD
:1094E000002007E00A4805E0C0B203F07BFF002837
:1094F000F6D0F0E703B00CBC90469946F0BDC046EC
:10950000508502004C850200748C020058850200D0
:10951000628000005C850200F0B5474680B4141CF0
:10952000002922D1144B1B689A4220D01348111CE9
:109530000CF0A0FB124B1D1D3933FF339846114F21
:10954000114E381C211C0CF095FB301C211C0CF01A
:1095500091FB01CD211C0CF08DFB4545F1D10B4851
:10956000211C0CF087FB002002E0094800E00948BC
:1095700004BC9046F0BDC046E45900206885020056
:10958000988902004C8502006C850200748C0200F0
:10959000628000006380000010B5054C201C002193
:1095A000802252000CF089FD024B1C6010BDC046A9
:1095B0006C2A0020682A0020F0B5474680B4071CBA
:1095C00088464C490DF096F8002831D03B78002BA6
:1095D00013D03D2B11D03A1C474D03242868C118E5
:1095E00048782040191C022800D12039117001321E
:1095F0001378002B01D03D2BF0D1381C0DF08CF8E6
:10960000012805D93B78412B02D17B78542B05D01A
:109610003A4841460CF02EFB394868E0BB780237E7
:10962000002B05D1374841460CF024FB00205EE0BA
:10963000354E00243568281C0DF06EF8021C381CCD
:10964000291C0DF095F8002805D00134E4B2043649
:109650004E2CEFD101E04E2C05D1284841460CF0AC
:1096600009FB2A4843E0251CA400274BE0580DF0D5
:1096700053F8FF2318403F18381C25490DF03AF8DD
:10968000002805D11F4841460CF0F4FA00202EE0D6
:10969000381C20490DF02EF8002802D10137012195
:1096A0000EE03B783D2B02D10137022108E000217A
:1096B000002B05D0114841460CF0DCFA134816E0A7
:1096C000AD00154BEB58381C42469847041C134B11
:1096D0001B78002B07D1002801D10A4800E0074879
:1096E00041460CF0C7FA00220C4B1A70201C04BC37
:1096F0009046F0BD68850200002A002070850200B7
:1097000060800000B8830200988902006180000038
:10971000788502007C850200D08A02006C2B002034
:10972000F8B54F464646C0B4041C614B1B68C31ACB
:109730005A425341DBB299469B005E4FFF18381CDA
:109740000CF0EAFF8046C6B2201C311CFEF768FD13
:10975000051C431C03D1731E9E41F0B2A3E00D28EB
:1097600001D00A2861D1381C53490CF0C3FF0028EE
:109770005BD104256368013B6360002B05DA4F4A27
:109780001068211C0CF022FE02E0236801332360E4
:10979000013DEDB2002DEDD101200BF037FC201C76
:1097A0000021FEF73DFD0D2801D00A280DD1636888
:1097B000013B6360002B05DA404B1868211C0CF05C
:1097C00005FE02E02368013323604B46002B0FD0D7
:1097D00005F008FB364C256805F0FEFA021C281C33
:1097E00037490CF0AFF9216836480CF043FA15E020
:1097F00002F0C0FC0123181AC0B202F0C1FC2F4CC9
:1098000023689D6802F0B6FC021C281C2C490CF051
:1098100099F9236899682B480CF02CFA381C002120
:1098200004220CF04AFC01203DE05C2D08D1002E02
:1098300033D1FF23424613405C22FA54012032E028
:109840002B2D27D1012E11D13B785C2B12D16368CF
:10985000013B6360002B05DA184B1868211C0CF0E3
:10986000B5FD1AE023680133236016E0002E0AD00C
:10987000022E12D8FF2243461A40381C12490CF01F
:10988000EBFB002809D1FF23424613402B22FA5458
:10989000012008E00020002E05D0381C0021042201
:1098A0000CF00BFC00200CBC90469946F8BDC0465D
:1098B000E4590020702B002068850200642A0020F3
:1098C00058810200B883020080850200F0B54F463F
:1098D00080B4051C0F1C574E0136FF3692E00A2C4F
:1098E00004D00D2C02D0082C58D140E0524B1A68FD
:1098F000504B9A4200D885E0504B1B689B689F42B2
:1099000007D14F4B1B7A002B03D04E48391C0CF06B
:10991000B1F9494B002219680A70464C1C60201CA2
:10992000391CFFF749FE8146201C47490CF0E2FE36
:10993000002867D14A46002A64D101200BF066FB5B
:10994000281C0021FEF76CFC0D2801D00A2859D1F3
:109950006B68013B6B60002B05DA384B1868291CDB
:109960000CF034FD4EE02B6801332B604AE0324BA3
:109970001A68304B9A4245D9304B1B689B689F420E
:1099800007D12F4B1B7A002B03D03048391C0CF029
:1099900071F9294B1A68013A1A6033E0264B1B68AB
:1099A000B3422FD2254B186883689F4225D1244BA0
:1099B0001B7A002B21D0BB68013BBB60002B17DA60
:1099C000B9698B420FDB3A6814703B681A780A2A2F
:1099D00002D001333B6010E0184B18680A213A1C92
:1099E0000DF08AFF09E0211C3A1C0DF085FF04E010
:1099F0003B681C703B6801333B600F4A1368591C7D
:109A000011601C706B68013B6B60002B06DA0B4920
:109A10000868291C0CF0DAFC041C03E02B68581CB5
:109A200028601C78621C00D059E7002004BC9146D5
:109A3000F0BDC0466C2A0020682A0020642A00205D
:109A4000A04A0020748C0200688502008485020010
:109A500008B5011C0122034B1A7003480CF00AF9E7
:109A600008BDC0466C2B0020B8830200A0DF704701
:109A7000A4DF7047A5DF7047A6DF7047BA23094A05
:109A8000D35A191898229200914208DC054A081C02
:109A9000BA215052F82189005B18981800E0002084
:109AA0007047C046A04A0020F8B54F464646C0B4AD
:109AB00080468946171E15DD0026002463B29B00F0
:109AC0004A469D58281C0CF027FE021C4046291CC3
:109AD0000CF02AFE002807D00134E4B266B2BE4280
:109AE000ECDB01E000260024B7420BD063B29B0000
:109AF0004A4698580CF010FE4246135C3D2B02D0AB
:109B0000FF2400E0FF2460B20CBC90469946F8BDEB
:109B100010B5141C002802D0012811D01EE0081C2A
:109B20001168102201F03AFE102819D10023A37108
:109B300023689A781202DB781343A380002014E094
:109B4000131D081C191C01F0DDFD00280AD0A38894
:109B5000002B09D00123A371002006E0034804E094
:109B6000024802E0014800E0004810BD62800000A9
:109B7000F8B54F464646C0B4071C0D1C90469946A2
:109B800008A90E7802212C1C8C4309D10021321C1B
:109B900001F004FE002803D0814508D8B04206D861
:109BA000381C291C4246331C01F0D0FFC4B2201CD3
:109BB0000CBC90469946F8BD08B505480021B12275
:109BC000D2000CF07AFA03F06BFE002008BDC0460C
:109BD000584B0020F0B54F464646C0B487B0041C31
:109BE000171C022900D084E0B823464AD35C042025
:109BF0000A2B00D180E004A8002108220CF05DFAB5
:109C00006846002110220CF058FA00A80490201C8D
:109C10002C210CF063FD002803D0451C00230370A9
:109C200000E0051C002C38D037498846894630E0D2
:109C300001342378202BFBD0201C41460222FFF761
:109C400033FF061E0EDB8300494658580CF064FDB6
:109C5000F6B2411C6118301C04AAFFF759FF061E1A
:109C600008D000E0294E381C2949221C0BF06AFF5D
:109C7000301C41E0281C2C210CF030FD002803D0C2
:109C8000431C0022027000E0031C002D05D02C1C98
:109C90001D1C2378202BCBD0CEE704AB9B88002B58
:109CA00029D0184BB8229C5C0134E400E3181C1C3A
:109CB000B83404AB221C03CB03C2A379012B02D11D
:109CC0000023236007E01020FFF7D8FE20600499EE
:109CD00010220CF0D0F90B4DB8242B5D01332B551D
:109CE00003F0DEFD2A5D381C0A490BF02BFF002033
:109CF00002E0064800E0054807B00CBC90469946D3
:109D0000F0BDC046A04A0020788D020062800000AD
:109D1000508C020058810200F0B557464E46454629
:109D2000E0B49AB0041C151C022900D05EE1B823EF
:109D3000BC4AD35C0420002B00D16DE1B923D35C75
:109D40001E2B00D168E114A8002118220CF0B5F9EF
:109D50000CAF381C002120220CF0AFF908A8804677
:109D6000002110220CF0A9F906AE301C00210822B7
:109D70000CF0A3F94146159117971996201C2C2138
:109D80000CF0ACFC002803D0461C0023037000E05C
:109D9000061C002C00D1B8E0A34A90469146A34F80
:109DA000BA46ADE001342378202BFBD0201C41467D
:109DB0000922FFF779FE071E00DA93E08300494687
:109DC00058580CF0A9FC01302018FBB2082B00D920
:109DD00088E09F005246D3599F466946523101F0B0
:109DE00091FC00287ED014AB5B88002B7AD014AB9A
:109DF000197A1F22914301220A431A7204E115992C
:109E0000102201F0CBFC10286CD114AB1A7A1F2160
:109E10008A431A72159A91780902D2780A435A80B5
:109E2000F2E003A901F04CFC00285BD003AB1B78E7
:109E3000002B57D06846513003A901220CF01BF9C2
:109E4000E2E06946593101F03BFC00284AD014ABEE
:109E50005B7A013B1F2B45D8D6E069465A3101F0A9
:109E60002FFC00283ED014AB9B7A013B1F2B39D826
:109E7000CAE003A9002303938B600A230B706B468F
:109E80000B334B60012201F0D1FC01282AD114AB25
:109E90006A46D17A49011A7A1F2002400A431A728F
:109EA000B2E014AB5B7A002B00D0A7E014AB9A7A37
:109EB0000123002A02D1202200E01A1C14AF397AB3
:109EC00049090092179AFFF753FEF872002809D04B
:109ED0009AE0189098E01999072201F05FFC072892
:109EE00000D191E0281C5249221C0BF02BFE514856
:109EF00092E0431C00220270002E06D0341C1E1C6F
:109F00002378202B00D14DE750E714AB9B7A002B30
:109F100002D114AB5A7A9A7214ABDB7A002B02D1BD
:109F200014AB5A7ADA7214AB5B7A002B60D014AAA5
:109F3000927A9A425ED314AB5B88002B5CD0394B8B
:109F4000B822985C01388446B9229A5C18214A43A9
:109F50009C181134FF3414AA231C111CC1C9C1C39D
:109F6000C1C9C1C361462170137ADB06DB0E012B28
:109F700002D10023636007E01020FFF77FFD6060DF
:109F8000159910220CF077F81898002809D00CF0D9
:109F9000C3FB0130C0B2FFF771FD206118990CF0CE
:109FA000B3FB199A1378002B08D00820FFF766FD41
:109FB0006061199907220CF05EF801E000236361EB
:109FC000A07AFFF75BFDE060E27A17990CF053F896
:109FD000144EB924335D0133335503F061FC325D17
:109FE000281C15490BF0AEFD002015E0114813E0C8
:109FF000104811E00F480FE00E480DE014AA927AC5
:10A00000002A00D05AE758E7301C2C210CF066FBE0
:10A01000031E00D170E76CE71AB01CBC904699464D
:10A02000A246F0BDA04A00202C8C0200088C020041
:10A03000648C020062800000588102000000000071
:10A04000F0B557464E464546E0B48CB0041C151C8E
:10A05000022900D000E1944907AA0CF0ABFA0028CD
:10A0600000D1FBE0079B002B00DCF9E0B9228F490F
:10A070008A5C934200DDF5E0013B5A00D318DB0017
:10A08000CB181133FF339846201C2C210CF026FBF3
:10A0900000280DD14046017A4909C268C37A281CBC
:10A0A00001F0F0FC8248291C0BF0E4FD0020EEE0FA
:10A0B0000378002B00D1D7E001304246117A4909DC
:10A0C000D2684446637AA47A0094FFF751FD45466E
:10A0D0006A7A824200D9C9E0AA7A824200D2C7E0F5
:10A0E000E872079C013CE4B2182262431132FF324D
:10A0F0006E4BD2189046E4006E4B1C1905F014F814
:10A100008146021C23880020834200D1BFE06A4BB5
:10A110009A4200D18EE04046427830231A4200D164
:10A1200088E002AB00201880A1880AAA02251580C9
:10A13000508053604846FFF79DFC41464D78ED0640
:10A14000ED0F04D002AB1B88DA0700D592E0404641
:10A15000437899066ED502AB1B889A076AD5C27AF6
:10A160006B465A8103AB9A46181C002110220BF053
:10A17000A4FF2388544623806B425D41013503AB25
:10A180009D706A460A3205924546ED68069505F0CF
:10A1900055F800283CD1494B18685968414B404A52
:10A1A0000BF05CF84B04C40B1C43CD0B0120824622
:10A1B00002E050460AF02AFF05F040F8002815D1C9
:10A1C0003E4A10685168374B354A0BF047F84B044C
:10A1D000C60B1E43CF0B321C3B1C121BAB41002B8A
:10A1E00002D1E6D1C72AE4D9042050E0334B1868E5
:10A1F00059682C4B2A4A0BF031F84E04C20B3243FB
:10A20000CB0B121BAB41002B12D101D1C72A0FD8A7
:10A21000484603A9FFF730FC83B2181E37D14446E5
:10A2200063780020DD0632D505F010F800202EE01E
:10A2300004202CE04046427A837A00209A4226D0BD
:10A24000218808AA4446E37A13805080506048462B
:10A25000FFF70EFC80B21AE0194818E0184816E023
:10A26000174814E0164812E0154810E014480EE0B4
:10A2700013480CE0CA7A6B465A8103AD281C0021B2
:10A2800010220BF01AFF23882B80012577E70CB0F2
:10A290001CBC90469946A246F0BDC046C046C0468A
:10A2A000E88000000000000010840200A04A0020A6
:10A2B000748C02008C2B0020FFFF0000E85D002062
:10A2C00062800000C046C04610B582B0141C02294E
:10A2D00013D16946073100230B7001F0F1F9002812
:10A2E0000DD06B4607331B78B9220F498A5C002BCF
:10A2F00007D0934207D90D4814E00C4812E00B48F0
:10A3000010E00A480EE0013B5A00D318DB00064A71
:10A31000D3181133FF33D868DA7A0121231C0BF0EC
:10A3200015FE002002B010BDA04A0020628000008F
:10A33000F0B55F4656464D464446F0B483B0161C11
:10A34000002900D095E0524B1B689A4200D192E060
:10A35000B823504AD35C002B00D18EE000279246F0
:10A360004D4B99464D4B9B467A1CD4005444B8340F
:10A37000A388301C49460BF0E5FBA379012B08D0DC
:10A380005846311C0BF076FC2168301C102201F07D
:10A390005FFB4348311C0BF06DFCB9233D4AD35C95
:10A3A000002B5DD00024904665002D19ED0045443A
:10A3B0001135FF352B78BB424BD1621C6B88301CAA
:10A3C00038490BF0BFFB2B7ADB06DB0E012B0CD0E0
:10A3D0003548311C0BF04EFC301C6968102201F02E
:10A3E00037FB3248311C0BF045FC6A786B7AA97A4E
:10A3F0000091297A49090191301C2D490BF0A2FBEB
:10A400002A69002A03D0301C2A490BF09BFB6B6998
:10A41000002B0FD01B78002B0CD02748311C0BF0E1
:10A4200029FC301C6969072201F012FB1F48311C0E
:10A430000BF020FC2148311C0BF01CFC297A490947
:10A44000EA68EB7A301C01F01DFB1548311C0BF05B
:10A4500011FC0134E4B2B9230E4AD35CA342A3D861
:10A460000137FFB2B8230B4AD35CBB4200D97BE76C
:10A4700005E0134804E0134802E0002000E000205B
:10A4800003B03CBC90469946A246AB46F0BDC046E0
:10A49000E4590020A04A0020788C02008C8C020035
:10A4A000748C0200988C0200B08C02004C85020073
:10A4B000BC8C0200F48C0200048D0200148D02009A
:10A4C0006280000063800000F0B54F4680B4061C37
:10A4D0000388502B2DD1B923174AD35C002B28D0E9
:10A4E0000024164D171CE300F288EB5A9A420DD156
:10A4F00063001B19DB00104AD3181133FF33F28BB2
:10A50000987A597A914201D8824206D90134E4B24C
:10A51000B923FB5CA342E6D80BE0DA72D868311CA1
:10A520002031F28B0BF0A7FD0120A04002F0FEF9D4
:10A53000ECE704BC9146F0BDA04A00208C2B002023
:10A54000F0B55F4656464D464446F0B48BB05A4887
:10A55000002114220BF0B1FD58480021F0220BF02D
:10A56000ACFDB823564AD35C002B00D19AE00026FC
:10A570009146741CE400524AA418B83473004E4942
:10A58000C9188B46A379012B07D0206803F0E4FBA0
:10A59000A071012801D8072087E0A3886A461380AC
:10A5A000A3799370012069465A46FFF75FFAB923F1
:10A5B0004946CB5C002B6CD00024414A9246904621
:10A5C000271C65002D19ED0055441135FF352B78FA
:10A5D000B34257D12B7ADB06DB0E012B0BD0686818
:10A5E00003F0BAFB1F2318402B7A1F229343034327
:10A5F0002B72012846DD01AB002201925A609A605D
:10A60000DA601A615A619A61DA611A6259460A88F7
:10A610001A806A789A70DA780F218A4301210A43F6
:10A620000F210A4010210A43DA706A889A802A7A38
:10A63000D206D20E9A711A7A03218A4302210A4362
:10A640001A72EA68DA606A7A1A82AA7A5A82EA7A0E
:10A650009A8229699961696900290DD00B78002BCC
:10A660000AD008A805220BF006FD69690531684685
:10A67000263002220BF0FFFCFF00104AD11901A87E
:10A6800003F094FB0134E4B2B9234146CB5CA3420E
:10A6900096D80136F6B2B823094AD35CB34200D942
:10A6A00067E701E0002000E000200BB03CBC9046D2
:10A6B0009946A246AB46F0BD782B00208C2B00209B
:10A6C000A04A002010B584B0012902D902290BD07C
:10A6D0003DE0204B1B7D9B07DB0F101C1E491A1C05
:10A6E0000BF030FA002033E06A460023D3700332C7
:10A6F00001A901938B6008230B704A60012201F0CD
:10A7000095F8012801D0154822E06B4603331B78E9
:10A71000104A127D9207D20F9A4216D00D4A01209C
:10A7200018404000117D0224A14301431175002B04
:10A7300003D005214923D15405E000214923054ACE
:10A74000D15404F05FFD03F0ABF8002000E00348B3
:10A7500004B010BDA04A00205881020062800000B1
:10A7600010B586B0041C02292CD104F0DDFC021CBB
:10A7700008201B4B9A422CD0201C6946063114221B
:10A7800001F00CF8C4B2E31E0F2B1FD9154820E0CE
:10A79000154B18685968114B0F4A0AF05FFD4904C0
:10A7A000C00B0843C204920E80235B421A437F21F0
:10A7B0000840034301A802704370A11CC9B203F012
:10A7C00093FC06E0074804E0064802E0E307FBD5F7
:10A7D000DEE706B010BDC046E880000000000000C3
:10A7E000FFFF000062800000E85D0020C046C04618
:10A7F00070B582B0141C002938D169460731002396
:10A800000B701C4802F0D4FE031C0020002B2ED03D
:10A810006B4607331B78002B29D01648694602F097
:10A82000C7FE002823D0201C1349009A0BF08AF998
:10A830006B46DA79013ADA7107331D1C0D4E0AE0D6
:10A84000301C694602F0B4FE002804D0201C0B49DD
:10A85000009A0BF077F92B785A1E2A70002BEFD153
:10A860000748211C0BF006FA002000E0054802B062
:10A8700070BDC0462C290020808D0200888D02000A
:10A88000748C020062800000F0B583B0161C0029B1
:10A8900025D16946073100230B70134802F088FE6A
:10A8A000031C0020002B1DD06B4607331B78002BA8
:10A8B00018D0013B6A46D37107320B4F141C381C69
:10A8C000694602F075FE002803D00098311C0BF099
:10A8D00071F923785D1E2570002BF0D101E003484B
:10A8E00000E0002003B0F0BD2C29002062800000B1
:10A8F00070B582B0141C012902D902290CD057E08E
:10A900002D4B5A7D1207520E2C4BD258201C2C492D
:10A910000BF018F900204CE001A900F097FE002888
:10A9200044D0019A254B1B689A420FD02549012338
:10A930000868824204D1DDB26AB2002A08DA35E042
:10A940000133DBB20831102BF2D12FE000230025B8
:10A950006DB2194A527D1207120F954224D0164A41
:10A960000F210B40517D0F2081430B435375201C59
:10A97000FFF76EF814200AF049FB134C0126E6613C
:10A9800005200AF043FBED000C4B5D196A680F4B84
:10A99000E250002384225200A3508E225200A35082
:10A9A000A660266002F07CFF002002E0084800E07C
:10A9B000074802B070BDC046A04A0020088F0200C0
:10A9C00008840200108F02000020004024050000CF
:10A9D0006280000010B584B0141C012902D902293C
:10A9E0000DD06EE0384B5A7DD206D20F01235A406B
:10A9F000D2B2201C35490BF0A5F8002062E06A466F
:10AA00000023D370033201A901938B6008230B70DC
:10AA10004A60012200F00AFF012801D02C4851E0D1
:10AA20006A46D17801234B40D370274A527DD20623
:10AA3000D20F9A4243D0244A01210B401901537D81
:10AA4000102083430B435375201CFFF701F814209B
:10AA50000AF0DCFA1F4B0122DA6105200AF0D6FA6F
:10AA60006B4603331B78002B0ED01A4B1A4A9958A9
:10AA700001208143995001225242A221C9005A501B
:10AA8000A121C9005A500DE0124B134A98580121D8
:10AA9000014399500A21A222D20099500821A122F3
:10AAA000D20099500B4B0022842149005A508E212C
:10AAB00049005A5001229A601A6002F0F1FE00200B
:10AAC00000E0034804B010BDA04A002058810200F5
:10AAD00062800000002000406C050000011C002086
:10AAE0001F2919D80D4B1878002810D00C4B1B7853
:10AAF0008B420ED00B4B0138C0B2181803E01A7805
:10AB000001338A4207D08342F9D1012004E00120B9
:10AB100002E0002000E000207047C046F68E0200F0
:10AB2000F88E0200F98E020030B583B0141C0229A1
:10AB300041D1264901AA6B460BF03CFD012805D006
:10AB400002283AD1009D012D39D812E0A223DB0062
:10AB5000A022D205D358019AD340012018403030AA
:10AB6000211C0BF027F81A48211C0BF083F8002059
:10AB70002AE0184BA022D205D358019CE340DA0703
:10AB80001FD5201CFFF7AAFF00281CD0002D08D1DC
:10AB90000123A3401C1C104BA022D205D45000203E
:10ABA00012E00123A3401C1CA123DB00A022D2053C
:10ABB000D450002008E0094806E0084804E00748AF
:10ABC00002E0064800E0054803B030BDD48E020024
:10ABD000748C0200140500000C0500006280000067
:10ABE00030B583B0141C022964D1384901AA6B46E0
:10ABF0000BF0E0FC012805D002285DD1009D032D5B
:10AC00005CD823E0324BA022D205D258019BDA4017
:10AC10000120D1070FD49B00A022D2059B18E0226F
:10AC2000D2009A580320510705D4E022D200985848
:10AC30000007C00F400000903030211C0AF0BAFF1E
:10AC40002448211C0BF016F800203CE0019C201C3D
:10AC5000FFF744FF002833D0012D08D002DC002D7F
:10AC60000ED02FE0022D13D0032D1AD02AE0C134CC
:10AC7000FF34A4000322A023DB05E250002022E0E1
:10AC8000C134FF34A4000020A023DB05E0501AE00B
:10AC9000C134FF34A4000C22A023DB05E2500020C5
:10ACA00011E0C134FF34A4000422A023DB05E250EC
:10ACB000002008E0084806E0074804E0064802E0F3
:10ACC000054800E0002003B030BDC046D48E02002D
:10ACD00014050000748C02006280000010B586B07C
:10ACE000022925D1174905AA04AB0BF063FC022801
:10ACF00020D1059C201CFFF7F1FE00281CD0049AEF
:10AD0000642A1BD8684600210E220BF0D6F90123D5
:10AD10006A4613705470137102235371937268461C
:10AD200002F014F90020049902F000FA002006E075
:10AD3000054804E0044802E0034800E0024806B089
:10AD400010BDC046D48E02006280000074DF7047E0
:10AD500076DF70477CDF704730B583B0031C141C6E
:10AD6000012902D9022909D02CE01948111C0AF046
:10AD700081FF1848211C0AF07DFF25E0144D281C96
:10AD8000191C1F220BF00AFD02F08AFD01AC23788A
:10AD90000F229343012213430F2213401022134327
:10ADA0002370281C0BF0B8FC82B2201C291CFFF772
:10ADB000D1FF04F0B9F9084B984205D1002004F006
:10ADC000D7FA01E0054800E0002003B030BDC046DE
:10ADD000EC4A0020748C0200FFFF0000628000003B
:10ADE00010B5141C012910D804F09EF9084A8318E4
:10ADF000584243413120C01A211C0AF0DBFE0548AD
:10AE0000211C0AF037FF002000E0034810BDC046B7
:10AE10000100FFFF748C02006280000008B5002969
:10AE20000DD104F081F9021C0020064B9A4207D094
:10AE300004F07AF91321FFF78BFF80B200E002489B
:10AE400008BDC046FFFF00006280000008B5002971
:10AE500002D104F0D7F900E0004808BD628000008C
:10AE6000F0B59BB0061C0C1C151C15A847491422F4
:10AE70000BF001F9012C1FD801260024444F02E0F9
:10AE800001340136F6B2E3B2002B67D0381C291C1E
:10AE90000AF0F0FEFF2222401C3252003D4BD25AF3
:10AEA000281C3D490AF04EFE042EE9D93B48291CD6
:10AEB0000AF0E0FE002067E003AA002312A935484B
:10AEC00004251C18248F5C5215705C1854600233E2
:10AED0000C320A2BF5D1301C03A9052200F0A6FC88
:10AEE0000138C0B2042840D92D484DE015AB12A856
:10AEF0001AAD02885C88198891422DD8A2423ED9A9
:10AF0000274841E012AB1888224B1B8F834205D1A2
:10AF1000204B5A8F12AB5B889A4214D001AC800050
:10AF200005210AF0CBF8208012AB5888800005215B
:10AF30000AF0C4F860800023A38096235B00E380BE
:10AF4000201C08F00FFA174812A90A220BF093F8F8
:10AF500002F0A6FC002017E0114815E00D4B1A8FF7
:10AF6000281C0D490AF0EEFD8AE712A80D490A22B5
:10AF70000BF072F8031C0020002BB7D104E004335F
:10AF80000230AB42B5D1BDE71BB0F0BD908D0200E1
:10AF90004C850200A04A0020FC830200748C020051
:10AFA00062800000D84A002008B5002901D002299B
:10AFB00003D1002004F0DCF900E0014808BDC046E0
:10AFC0006280000008B5002903D1FFF7BFFE80B200
:10AFD00000E0014808BDC0466280000010B582B0A4
:10AFE000141C012902D902290DD024E04823134A58
:10AFF000D05C3030211C0AF0DDFD1148211C0AF024
:10B0000039FE002018E00F4901AA0BF0D3FA0128FD
:10B0100002D1019B012B01D90B480DE048220749C1
:10B020008A5C934205D05A1E934148228B5402F009
:10B0300037FC002000E0044802B010BDA04A002008
:10B04000748C0200FC8302006280000030B591B075
:10B05000022940D100230F9301A901938B60CB609B
:10B060004B6101230B701F234B7007AB4B60022316
:10B070000B730FAB0B61022200F0D8FB041C0138EC
:10B08000C0B2012829D801AB5A78164D8B23EA5457
:10B09000281C6C3007A90AF0EEFF02224923EA546B
:10B0A000022C05D10F9B012B19D84A220D498B5434
:10B0B00002F0F6FB04F038F80B4B984206D004F08F
:10B0C00033F81321FFF744FE002009E0002004F0CC
:10B0D0004FF9002004E0054802E0044800E003487E
:10B0E00011B030BDA04A0020FFFF000062800000C8
:10B0F00010B584B001290ED846231E49CB5CDB076E
:10B10000DB0FDBB20121CB1A101C1B491A1C0AF001
:10B1100019FD00202BE06A460023D3730F32009301
:10B120000293082369460B700192012200F07EFB16
:10B1300001281BD16A46D17B01234B40D3734622A1
:10B140000C498A5CD207D20FD2B200209A420ED0AC
:10B15000462201200340885C0124A04303438B5412
:10B1600002F09EFB04F088FA002000E0034804B0DF
:10B1700010BDC046A04A0020588102006280000035
:10B1800000B58DB0022931D101A9002301938B6054
:10B19000CB604B618B610B6205230B706B462F33C9
:10B1A0004B600A230B736B462E330B610AABCB61EA
:10B1B000032200F03BFB03281AD16B462E3319788B
:10B1C000002917D001331B78C822D20098180C4AE6
:10B1D000821880204000C31A9BB20A9800F0B6FC87
:10B1E000002809D002F05CFB002006E0054804E0DE
:10B1F000044802E0034800E002480DB000BDC0462C
:10B20000A04A00206280000010B58AB0141C0229F8
:10B2100033D100230093029303930593069308937D
:10B2200005236A461370273201926A4613736B46F0
:10B23000263304930A2313766B4625330793694616
:10B24000032200F0F3FA032819D16B46253319784D
:10B25000002916D002331A78C823DB00D2180A4B13
:10B26000D2186B4626331B78201C00F00BFC0748D5
:10B27000211C0AF0FFFC002004E0054802E004481D
:10B2800000E003480AB010BDA04A0020748C020000
:10B290006280000070B588B0141C02291ED101A97B
:10B2A000002301938B60CB604B6105230B706E46CE
:10B2B0001F364E600B736D461E350D61022200F085
:10B2C000B5FA3078C823DB00C018064BC0182A78BE
:10B2D0000121231C0AF03AFE002000E0024808B0D9
:10B2E00070BDC046A04A00206280000039DF704770
:10B2F0003ADF704752DF704710B582B0141C012945
:10B3000018D801A8FFF7F6FF002811D1019BD91723
:10B31000890FCB189A10032003405B1A9900CB18B1
:10B3200099005B18201C05490AF00CFC002002E083
:10B3300080B200E0024802B010BDC046C88D0200D5
:10B340006280000010B582B0141C02292AD10123AA
:10B350005B420193174901AA0BF02CF9002823D076
:10B36000019B1F2B22D8C133FF339B008021890210
:10B37000A022D20599501048211C0AF07BFC3220F3
:10B3800009F044FE0020002100F000FF0120002110
:10B3900000F0FCFE0121A023DB008022D205D15069
:10B3A000002004E0054802E0044800E0034802B041
:10B3B00010BDC046FC830200B8830200628000001A
:10B3C000F0B5474680B486B0171C002902D0022988
:10B3D00004D04FE004226B46DA750BE06946173162
:10B3E00000F06EF9002847D06B4617331B78013BFD
:10B3F0000F2B43D800256C460334002398466E4635
:10B40000173643462370201CFFF770FF2378002B6C
:10B410000FD03178491B0A1CC9B2994200D91A1CB5
:10B42000D1B2227001AB5819FFF762FF2378ED18F3
:10B43000EDB23378AB42E4D81348391C0AF01AFC59
:10B440006B4617331B78002B0ED000240F4E6D4631
:10B45000173501AB1A5D381C311C0AF073FB01343F
:10B46000E4B22B78A342F4D80948391C0AF002FC54
:10B47000002004E0074802E0064800E0054806B066
:10B4800004BC9046F0BDC046D48D0200D88D0200A9
:10B49000748C02006280000010B582B0002902D0D6
:10B4A000022909D034E01C4B9B7A101C1B491A1C42
:10B4B0000AF048FB00202CE06946073100F000F953
:10B4C000002804D06B4607331B78012B01D91448A0
:10B4D0001FE0114A927A9A4218D0002B03D1012022
:10B4E000002100F053FE6C46E2790B4B9A7202F099
:10B4F000D7F9E379012B09D103F016FE094BC118E6
:10B500004B1E9941C9B2012000F040FE002000E02E
:10B51000034802B010BDC046A04A00205881020076
:10B52000628000000100FFFFF0B5474680B492B092
:10B5300094460CAA354B141C1D1CC4CDC4C4C4CDE8
:10B54000C4C409AC1833C4CBC4C4002902D0022936
:10B550000CD056E02E4B597A89000CABCB58604684
:10B560002C491A1C0AF0EEFA00204BE0012301934B
:10B570000023029303A907230B7006224A7001AA35
:10B580004A600CAA8A600B7303234B7302AB0B61F6
:10B5900009AB4B61022200F049F900282FD00128A5
:10B5A00003D9019B052B2AD102E0019B052B26DC48
:10B5B000174A527ADBB29A4208D00020002100F0EC
:10B5C000E5FD134B019E5E7202F06AF9019F052FA3
:10B5D00013D1029B022B0AD1002000F0F5FE0123BB
:10B5E000011C5940C9B2002000F0D0FD05E05A1EF0
:10B5F0009341D9B2002000F0C9FD002002E00648C6
:10B6000000E0054812B004BC9046F0BDA48D0200D5
:10B61000A04A0020E08D02006280000010B582B0D8
:10B620000C1C0023019301A900220BF06FF9019B70
:10B63000002B06D01A780023002A03D120600123B2
:10B6400000E00023181C02B010BDC04610B582B047
:10B650000C1C0023019301A900220BF0E1F9019BCE
:10B66000002B06D01A780023002A03D12060012382
:10B6700000E00023181C02B010BDC046F0B583B036
:10B68000061C0F1C151C01A9FFF7C8FF0024002889
:10B6900011D00A4B019A9A4203D1301C01A9FFF73D
:10B6A000D5FF2C1C042D00D90424A4B2381C01A9F8
:10B6B000221C0AF0E0FC201C03B0F0BDFFFFFF7F5E
:10B6C00010B582B00C1C01A9FFF7A8FF002805D017
:10B6D000019BFF2B01D8237000E0002002B010BDB9
:10B6E00010B582B00C1C01A9FFF798FF002807D005
:10B6F000019B1A1C8032FF2A01D8237000E0002031
:10B7000002B010BD10B582B00C1C01A9FFF786FF76
:10B71000002806D0019B044A934201D8238000E010
:10B72000002002B010BDC046FFFF000010B5037836
:10B73000002B23D0184A1268D3185B784421194291
:10B740001FD04378D3185B7819421CD000214424C1
:10B7500008E0D3185B781C4217D04378D3185B7885
:10B760001C4214D00131C9B28378002B07D02D2B95
:10B770000FD103300378002BEBD100E00021081C2F
:10B7800008E0002006E0002004E0002002E00020A5
:10B7900000E0002010BDC046002A0020F0B583B0B4
:10B7A000041C0F1C151C0378202B03D101342378B3
:10B7B000202BFBD0201CFFF7B9FF86B2002F27D02B
:10B7C0000004030C0020002B2DD0AB4222D92AE02C
:10B7D0001C1B022C16DC7D1C38701A782D2A11D106
:10B7E00004E0287001351A782D2A0BD15C1C201C2E
:10B7F00001A910220BF08AF8019BA34202D91C1B5D
:10B80000022CEEDD187843425841404230400AE0B5
:10B81000301C08E0201C01A910220BF077F8019BD6
:10B82000A342D5D8EEE703B0F0BDC046F0B55F4601
:10B8300056464D464446F0B48BB0041C9246002A4E
:10B8400000D1EDE0002800D1ECE00E1C0025201C0A
:10B850002C210AF043FF002804D0471C0097002346
:10B86000037000E000902378002B00D1CEE0B146B9
:10B87000307884460A2800D9C6E081006F4F795895
:10B880008F46202B6BD06EE0202B03D10134237820
:10B89000202BFBD0484643681C60B7E07278201C20
:10B8A0007168FFF77BFFC0B27070002800D0ADE078
:10B8B000AAE0201C06A9FFF7B1FE002800D1A3E0F2
:10B8C0005F4B069F9F4203D1201C06A9FFF7BEFED7
:10B8D0004946486806A904220AF0CDFB96E0201CE0
:10B8E00006A9FFF7B3FE002800D18DE0706806A915
:10B8F00004220AF0C0FB89E07168201CFFF702FFF8
:10B90000002800D082E07FE07168201CFFF7D8FE9D
:10B9100000287BD178E07168201CFFF7E1FE002849
:10B9200074D171E0201C7168FFF778FE00286DD19A
:10B930002378202B03D101342378202BFBD04B46D6
:10B940005A78201C996802F0E7F9069000285BDB22
:10B950004F46786806A904220AF08DFB56E00134B0
:10B960002378202BFBD004AB364806C806C380469C
:10B9700006AB181C47460ECF0EC03F6807606046F6
:10B98000082804D102218B4604AA904603E0042330
:10B990009B4606AFB846201C69460F31FFF7A0FE54
:10B9A000002806D1201C41465A4602F0B5F96B46E4
:10B9B000D8736B460F331B785BB25B4524D849467E
:10B9C000486869460F3101220AF055FB1EE01E4A05
:10B9D0001268D3185B785F0716D4201C02F086F932
:10B9E000B0688346201C0AF097FE021C5846211CB2
:10B9F00002F0E2F80690154B984205D07068727814
:10BA000006A90AF038FB01E0002010E00135EDB294
:10BA1000554509D00C36009F002F07D03C1C16E777
:10BA2000002004E0002002E0281C00E0281C0BB0ED
:10BA30003CBC90469946A246AB46F0BD208E020023
:10BA4000FFFFFF7F4C8E0200002A0020DFFDEF7E0B
:10BA5000F8B5051C0E1C171C0A7808490AF072F884
:10BA6000012F0AD9741CF719054E2278281C311CA5
:10BA70000AF068F80134BC42F7D1F8BDD88D020055
:10BA8000648E0200F0B583B0061C022918D0032989
:10BA900002D0012919D10CE00021019101A8111C4B
:10BAA0001A1C0AF0E8FA301C2649019A0AF04AF8F2
:10BAB00045E0101C01211A1C331C0AF047FA3EE035
:10BAC000111C1A1CFFF7C4FF39E0022B1CD9117896
:10BAD000002919D0002B2CD01B4800684118497848
:10BAE0006824A14310D0541CD71868218C4605E067
:10BAF0000134451969786546A94305D0BC4218D080
:10BB00002578002DF4D114E0042B05D9301C111C2C
:10BB10001A1CFFF79DFF12E00021019101A8111CE2
:10BB20001A1C0AF0A8FA301C0649019A0AF00AF811
:10BB300005E0101C01211A1C331C0AF007FA03B09F
:10BB4000F0BDC04610840200002A0020F8B5061C93
:10BB5000171C1D1C02291ED0032902D0012920D147
:10BB600005E0111C1A1CFFF789FD041C3AE00AF0DD
:10BB7000D3FD041C80B2A84200D92C1CA4B2002C16
:10BB800003D100233B7001242CE0381C311C221C03
:10BB90000AF071FA26E0111C1A1CFFF7FFFD041CC5
:10BBA00020E0111C1A1CFFF769FD041E1AD1301C7D
:10BBB000391C2A1CFFF7F2FD041E13D1301C0AF0B9
:10BBC000ABFD041C80B2A84200D92C1CA4B2002CEE
:10BBD00003D100233B70012404E0381C311C221CDB
:10BBE0000AF049FA201CF8BD71DF704776DF704714
:10BBF00077DF704700B583B0012902D902290AD046
:10BC00003BE01F4BDB7A5BB2101C1E491A1C09F08B
:10BC100099FF002032E001235B4201931A4901AAF7
:10BC20000AF0C8FC002814D001982023021C9A4373
:10BC3000131C28330FD01023021C9A43131C1433F7
:10BC400009D00423021C9A43131C103203D0002B8A
:10BC500001D00E4812E040B2FFF7CAFF084B019A2C
:10BC6000DA7201F01DFE03F05FFA094B984202D12F
:10BC7000002003F07DFB002000E0044803B000BD7D
:10BC8000A04A002058810200FC830200628000006C
:10BC9000FFFF000030B587B0151C012913D804AC94
:10BCA000201CFFF7A1FFA279637921790091E17847
:10BCB0000191A178029161780391281C034909F050
:10BCC00041FF002000E0024807B030BD908E020026
:10BCD0006280000010B5141C01290FD8A023802217
:10BCE0005205D35801221A40201C054909F02AFFA9
:10BCF0000448211C09F0BEFF002000E0024810BDEE
:10BD0000B08E0200748C02006280000030B587B0F3
:10BD1000141C012913D804AD281C03F07BFAAA795E
:10BD20006B7929790091E9780191A9780291697874
:10BD30000391201C034909F005FF002000E00248A0
:10BD400007B030BD908E02006280000070B58AB0EE
:10BD5000041C022900D09CE004A8002115220AF04E
:10BD6000ACF9201C2C210AF0B9FC002803D0451C9A
:10BD70000023037000E0051C201C69460E31FFF70C
:10BD8000C1FC002800D186E06B46D9898223474A4E
:10BD9000D152281C2C210AF0A1FC002803D0441CFD
:10BDA0000023037000E0041C281C04A91022FFF7E4
:10BDB000F5FC102871D1201C2C210AF08FFC061EE6
:10BDC00002D0002303700136201C08A9FFF79AFC5B
:10BDD000002864D004AB1A8A52BA04AB1A82301C11
:10BDE0002C210AF07BFC051E02D0002303700135D4
:10BDF000301C69462231FFF785FC002851D004AB86
:10BE00005A8A52BA04AB5A82281C2C210AF066FCCA
:10BE1000041E02D0002303700134281C244902AA06
:10BE20000AF0C8FB00283ED004AB02981875002C1D
:10BE30000FD000230193201C01A9FFF7EFFB00287E
:10BE400002D0019B012B01D91A482DE04A22174943
:10BE50008B54164904AA0B1C6C3331CA31C330CA47
:10BE600030C312781A7001224923CA5401F018FD18
:10BE700003F05AF9104B984206D003F055F91321FC
:10BE8000FFF7B4FE00200FE0002003F071FA00205D
:10BE90000AE0084808E0074806E0064804E00548CC
:10BEA00002E0044800E003480AB070BDA04A002048
:10BEB0001084020062800000FFFF000010B5141C17
:10BEC000012913D803F030F90022094B984202D01F
:10BED00003F030F9021C52B2201C064909F032FE70
:10BEE0000548211C09F0C6FE002000E0034810BDF3
:10BEF000FFFF0000FC830200748C020062800000DF
:10BF0000F0B55F4656464546E0B484B0061C0D1CAD
:10BF100090461C1C0CAB1B789B462D4B1B68984213
:10BF200003D1131C6343102B4BDC02AA29490B6875
:10BF300002938B88938041464B00303393701020DE
:10BF400009F00AF9A246002C35DD0024FF231F1C4E
:10BF5000074000230193201C391C09F053F90029E4
:10BF600017D1002C03D01C48311C09F083FE5B461E
:10BF7000002B09D02001391C09F0EEF8021C301CFE
:10BF8000164909F0DFFD04E0301C15492A1C09F0B0
:10BF9000D9FD01A8291C42460AF06DF8454420202D
:10BFA000311C09F007FE301C02A9019A09F0CAFDF4
:10BFB00001345445CDDB0848311C09F05BFE0020FC
:10BFC00000E0084804B01CBC90469A46A346F0BD69
:10BFD000E4590020C88E0200748C0200B48E020066
:10BFE000BC8E020063800000F0B587B0141C0229EB
:10BFF00034D1002305930493039303AB00931E49AC
:10C0000005AA04AB0AF0D6FA032829D1059D002D14
:10C0100028D0049A002A27DD039E002E26DD531E19
:10C02000012B01D9042A23D1D7B2391C042F00D9FE
:10C030000421C9B2281C09F085F8002905D00F4851
:10C04000211C09F017FE0E4813E0B3B20022009243
:10C05000201C291C3A1CFFF753FF0AE0084808E09F
:10C06000074806E0064804E0054802E0044800E00E
:10C07000034807B0F0BDC046D08E0200DC8E02003F
:10C080006280000000B583B0022908D0012300932C
:10C09000101C04490122044BFFF732FF00E0034863
:10C0A00003B000BDA04A00204407000062800000E9
:10C0B00038B501291DD8114B1968114B994209D186
:10C0C00004230F4C80252D010C4819180968A14242
:10C0D0000BD000E0002380210901CB1A101C094974
:10C0E0001A1C09F02FFD002006E00433AB42EBD10F
:10C0F00001E0054800E0032038BDC046007800207C
:10C100000DF0FECAF08E02006280000000B583B020
:10C11000002909D100230093101C05490422802323
:10C120009B00FFF7EDFE00E0024803B000BDC046F3
:10C13000007800206280000048DF70477047C046EA
:10C14000830702D50122044B1A708B0702D5002207
:10C15000014B1A707047C0467E2C0020014B188896
:10C160007047C0467C2C0020014B18887047C046A1
:10C17000C82E0020014B18787047C0467E2C002046
:10C18000014B18707047C0467E2C0020012805D155
:10C190000E4B9B7A1320002B04D115E04342434100
:10C1A0001320C01A002908D001238340181CA123A2
:10C1B000DB00A022D205D05006E001238340181CEA
:10C1C000034BA022D205D0507047C046A04A0020A1
:10C1D0000C05000030B58DB0A823DB00654AD158AE
:10C1E0000023654A914204D8A823DB00614AD35852
:10C1F0009BB2624A1380A823DB00614AD158002316
:10C200005D4A914204D8A823DB005D4AD3589BB213
:10C210005C4A1380002300932020082106225A4BF9
:10C2200004F0BAFF002803D00021002203F036FA00
:10C230000220564904F03CFB002803D000210022D4
:10C2400003F02CFA092052494822002305F01EFC75
:10C25000002803D00021002203F020FA4D4805F009
:10C2600045FC07F0E7FA01F037FC09A80B2303703F
:10C2700009234370082383700A23C370464B5B7DF8
:10C28000DA06D20F01214A400271002242711B07D7
:10C290005B0E4249CB185B6883606B46DA810E33D4
:10C2A0003F4A04928022520005923E49069107922D
:10C2B000009304A93C4A012305F00EFA3B4B1B688E
:10C2C000986800210AF0C4F8A023DB050C21E822BD
:10C2D000D2009950A222D2009B58DA030BD43448E2
:10C2E00008F094FEA223DB00A022D205D358DA0383
:10C2F00001D401F085FB284BDB7D002B05D0032109
:10C300002C4BA022D205D15004E00C21294BA022B5
:10C31000D205D15001F08EF800F0A2FDA024E40572
:10C320000C22254BE2506D462335281C02210222A7
:10C33000224B04F0FBFA287804F024FBA223DB0054
:10C34000E2589207D20F1E4B1A700323E922D20043
:10C35000A3501C4AA35001200021FFF717FF01241E
:10C360006442201C00F0C8FA201C00F0F9FA0DB05D
:10C3700030BDC04600900040FEFF00007C2C002035
:10C3800000A00040C82E0020F42E0020CC2E00205B
:10C39000802C0020A1360200A04A0020088F020055
:10C3A000C82C0020C82D00203DC10100642A0020B7
:10C3B000DC0500001C0700000407000041C101006B
:10C3C0007E2C00204C070000431E98411230044B85
:10C3D000A022D205D358C340181C0123184070472F
:10C3E00004050000014B587A7047C046A04A00205F
:10C3F00008B5FFF7A1FE08BDF0B557464E464546C5
:10C40000E0B48046264B18685968244B224A08F04D
:10C4100025FF4B04C60B1E43CF0B214B9946F4233B
:10C42000FF339A46404605F0A3FA002814D04B4645
:10C4300018685968194B184A08F010FF4B04C40BD0
:10C440001C43CD0B221C2B1C921BBB41002B17D174
:10C45000E8D15245E6D913E0114B186859680F4BE3
:10C460000D4A08F0FBFE4C04C20B2243CB0B921B7F
:10C47000BB41002B04D108D1F423FF339A4204D9E5
:10C4800005F082FA0120404200E040461CBC904684
:10C490009946A246F0BDC046E880000000000000BA
:10C4A000E85D0020C046C04600B583B0684607304E
:10C4B00005F04AFA002802D16B46D87901E0012044
:10C4C000404203B000BDC04600B583B069460731A5
:10C4D00005F06AFA002802D16B46D87901E0012004
:10C4E000404203B000BDC04670B5FFF77BFF012896
:10C4F00052D1434CA568434B186859683F4B3E4A9C
:10C5000008F0ACFE4E04C20B3243CB0B20686168CE
:10C51000121A8B41002B01D195423DD83A4B1A7823
:10C5200001321A700020FFF74FFF0123011C594010
:10C53000C9B20020FFF72AFEFFF71CFE002806D133
:10C54000314B1B78032B02D900222F4B1A70FFF7B7
:10C5500011FE012807D12C4B1B78052B03D9002293
:10C56000294B1A7003E0284B1B78002B14D10020B4
:10C570000021FFF70BFE224CFA23DB00A360214BC6
:10C58000186859681D4B1C4A08F068FE4B04C00B24
:10C5900018432060C90B61601C4BDB7D002B29D147
:10C5A0001B4B1B681B4A934214D90120FFF70CFF59
:10C5B0000123011C5940C9B20120FFF7E7FDA22366
:10C5C000DB00A022D205D358190613D50122124B45
:10C5D0001A700FE0A222D200A021C9058A581106C4
:10C5E00003D4FA330A4A136004E00023084A1360B4
:10C5F000094A137070BDC046E880000000000000CA
:10C6000048320020E85D002059320020A04A002076
:10C61000443200208813000058320020C046C04633
:10C6200070B5FFF7A7FD002808D0012852D1814B33
:10C630001B6858689968FDF749F94BE07E4B5B7DB4
:10C64000DB0906D17B4B1B685868FDF769F80028A9
:10C6500040D1784B186842685368013B5360002B07
:10C6600004DA416809F0B2FE041C04E04268136871
:10C67000591C11601C78611C2CD002F055FD6F4BC9
:10C68000984227D06E4B1A689368013B9360002B49
:10C6900019DA91698B4210DB13681C70684B1A68B9
:10C6A000136819780A2902D00133136012E0614B34
:10C6B00018680A210BF020F90CE05E4B1868211C69
:10C6C0000BF01AF906E013681C705D4B1B681A68C2
:10C6D00001321A6002F080FB00280ED0012800D041
:10C6E000A5E002F021FD554B984200D19FE0544B4C
:10C6F0001968081CFDF7EAF899E0FFF73BFD0028F0
:10C7000047D14D4B5B7D5A0606D54D4B1868FDF75A
:10C7100007F8002800D08AE0494B19684B68013BB4
:10C720004B60002B05DA434B186809F04FFE011CE3
:10C7300003E00B685A1C0A6019784B1C77D03D4BFC
:10C74000186882689368013B9360002B17DA82684F
:10C75000946893699C420FDB13681970354B186815
:10C760008268136819780A2902D0013313605EE0E9
:10C770000A210BF0C1F85AE00BF0BEF857E08368CD
:10C780001B6819702B4B1B689B681A6801321A6072
:10C790004DE0294B5B7D5C0649D502F02BFAC4B213
:10C7A000032C44D9FF250540254B1868691E89B222
:10C7B000FBF736FD0D2801D00A2838D1023DADB275
:10C7C0001F4B1868291CFBF72BFD2B282AD0042CA3
:10C7D0002DD90D2828D003240A2826D027E02B1B8A
:10C7E00099B23068FBF71CFD2B2804D1013CE4B260
:10C7F000002CF4D101E0002C19D102F0F3FA02F080
:10C8000093FC0E4B984212D00D4C256802F0E4FACE
:10C81000021C281C0B4909F095F921680A4809F007
:10C8200029FA04E0022400E00324054ED7E70020A3
:10C8300070BDC046642A0020A04A0020FFFF00000F
:10C84000E459002058810200B883020030B583B05B
:10C85000FFF7C0FC02F044FEFCF79EFE03F092FBE3
:10C8600001A80121134A04F02BFD0198F8210022B0
:10C8700004F05EFD0022104B1A70104800F01CFE00
:10C8800000F030FE0E4D0C4C00F032FE02F0F6FCD3
:10C890002968081C03F088FBFFF7C2FE2378002BF1
:10C8A00004D0002000210022FCF72AF9FFF7A0FDA8
:10C8B000EAE7C046E9C40100583200201027000012
:10C8C0007C320020094B9B691840094B1A680243CF
:10C8D0001A60002808D0054BDB7D002B04D0802196
:10C8E000044BA022D205D1507047C046A04A002078
:10C8F0005C3200200C050000094A13688343136072
:10C900000DD1084B1B68002B09D1074BDB7D002B99
:10C9100005D08021A123DB00A022D205D150704791
:10C920005C32002060320020A04A0020094BDB6905
:10C930001840094B1A6802431A60002808D0054BBA
:10C94000DB7D002B04D08021044BA022D205D150E6
:10C950007047C046A04A0020603200200C0500004D
:10C960000A4B1A6882431A60094B1B68002B0BD1D3
:10C97000002A09D1074BDB7D002B05D08021A123A4
:10C98000DB00A022D205D1507047C04660320020A3
:10C990005C320020A04A002010B588B0012902D9DD
:10C9A00002290AD020E0194B9C69DB69101C184948
:10C9B000221C09F0C7F8002026E000230093019311
:10C9C00002A902938B60CB604B6103230B7000AA1A
:10C9D0004A600B7301AB0B610222FEF727FF01389F
:10C9E000C0B2012804D901E00A480DE009480BE073
:10C9F000064B009A99690A439A61019AD9690A43D8
:10CA0000DA6100F04DFF002008B010BDA04A002000
:10CA1000888F02006280000000B589B0022917D11A
:10CA20000023079306930093029303930593032334
:10CA300069460B7007AA01920B7306AB049302229E
:10CA4000FEF7F4FE0138C0B2012803D908480DE012
:10CA500007480BE0074B9A6907998A439A61DA699C
:10CA600006998A43DA6100F01BFF002009B000BD7F
:10CA700062800000A04A002038B5012916D80C4C6D
:10CA80000C4D101C0C4922682B6809F05BF8002340
:10CA90002B602360094BDB7D0020002B07D0802119
:10CAA000A123DB00A022D205D15000E0044838BD0C
:10CAB0005C320020603200209C8F0200A04A0020DF
:10CAC00062800000002804D110218023034AD15045
:10CAD00002E01022014B1A607047C04600E100E0FE
:10CAE00070B5061C0A1C0020002910D0084B9D8838
:10CAF0001C1C2389EB1A9BB29A42FAD8054C1025CC
:10CB00008023E5500248311C00F00CFE256070BD0A
:10CB10000029002000E100E038B5044C10258023F6
:10CB2000E550034800F018FE256038BD00E100E044
:10CB300000290020014B188980B27047002900208D
:10CB400000B583B06B46D8710733181C0121FFF77D
:10CB5000C7FF002802D06B46D87901E0012040428F
:10CB600003B000BD00B583B00C486946073100F042
:10CB70001FFD00280AD1FFF735FC042809D1002049
:10CB80000021FFF703FB0120404204E06B46D87907
:10CB900001E00120404203B000BDC046182900203A
:10CBA00000B583B0011C07486A46073200F04EFD0D
:10CBB000002802D06B46D87901E00120404203B042
:10CBC00000BDC04618290020F0B5474680B4822336
:10CBD0005B004F4AD358002B49D0131C00218222FE
:10CBE000520099504B4A9A58A721C9005D58954266
:10CBF00000D9151C002D1BD0FFF7F4FB04287ED1B3
:10CC000000200121FFF7C2FA79E0A923DB00404AA6
:10CC1000D358002B03D04246135DFF2B03D071186D
:10CC2000381C00F03FFD0134E4B2211EA942ECD3D0
:10CC3000374B394A9958A922D2009B5899420BD2B6
:10CC4000131C334AD258521AD2B2344B1A70344899
:10CC5000411809F019FA0AE00022304B1A70FFF768
:10CC6000C1FB042803D100200021FFF78FFA942391
:10CC70005B00274AD358002B47D0002194235B0048
:10CC8000D150264C23782649C9181422D31A9AB2B7
:10CC9000244800F0C1FC2378C018C0B220700028DE
:10CCA00007D01B4B204A1E499950A922D200985008
:10CCB00007E0174B1C4A1D4999500021A922D200B8
:10CCC0009950134B1A4A1B4999501421A722D2009C
:10CCD000995001229A62114B1B78002B06D18021BA
:10CCE0008904154BA022D205D1500EE0FFF77AFB44
:10CCF00004280AD100200121FFF748FA05E00021AD
:10CD000000240E4F0B4EB0467FE704BC9046F0BDAA
:10CD1000004000403C0500004C0500007832002037
:10CD2000643200200029002044050000142900205E
:10CD300034050000803200200C0500001829002076
:10CD400010B5002874D0A023DB050168C131FF3184
:10CD500089000022CA50C168C131FF3189000C240A
:10CD6000CC504168C131FF318900CA508168C1315E
:10CD7000FF318900CA50334B3349C4685C50A1214C
:10CD8000C90084685C50A221C90044685C502F49E6
:10CD900004685C50A721C9005A50A921C9005A5003
:10CDA000037C012B48D0002B05D0022B46D0032B4F
:10CDB00040D1062300E00023427C002A0CD101224E
:10CDC0001343204A22495350817C224BD150C17CCD
:10CDD000B823DB00D15009E01A4A1D495350817C29
:10CDE0001C4BD150C17CB823DB00D150154B002225
:10CDF000822149005A50942149005A50042180222E
:10CE000092009950144AC12189005058FF24A04330
:10CE10004024204350501020C024640010510F4C77
:10CE20005C5010600221A022D2009950002007E03F
:10CE30000E2005E0072003E00223BDE70423BBE743
:10CE400010BDC04600400040140500000C05000065
:10CE5000540500005C05000000E100E00204000051
:10CE600030B587B001A81F4A031C32CA32C312CAA8
:10CE700012C3FFF765FFA023DB0503211A4A99506F
:10CE800080218904194A9950194B1B68002B0DD138
:10CE90001848194908F04AFE031C154A106005207D
:10CEA000002B1DD0181C002109F0D2FA134800F005
:10CEB00053FC134800F050FC0022124B1A70124B26
:10CEC000124913485850A921C9005A50114A124911
:10CED00099501421A722D200995001229A62002071
:10CEE00007B030BDAC8F0200640700000C050000E5
:10CEF0007C32002004810200C08F02000029002043
:10CF0000182900207832002000400040440500002D
:10CF10001429002034050000803200202EDF7047E5
:10CF200033DF704721DF704723DF704710B5041EE1
:10CF30000F2C08D8C0B2FFF7F7FF0120A040FFF781
:10CF4000F1FF201C01E00120404210BDF8B55F4612
:10CF500056464D464446F0B40378013B022B00D9B7
:10CF6000A0E0437B042B00D99FE09B00634AD35889
:10CF70009F460921A223DB00614AD1506422614B04
:10CF80001A6023E00821A223DB005D4AD150FF2272
:10CF90005C4B1A601AE00521A223DB00584AD150ED
:10CFA000FA229200574B1A6010E00221A223DB0004
:10CFB000534AD1506422534B1A6007E00021A22348
:10CFC000DB004F4AD150FF224E4B1A6006784E4B81
:10CFD0001E60002E6CD0021C00234C498A46A02102
:10CFE000C90589460324A046494DAC469B46547862
:10CFF000990055464C51C134FF34A40045464F4674
:10D00000E5515C466746CC51917A424D5955013302
:10D0100001329E42EBD83A4B0122DA600022A12174
:10D02000C9005A5037490C6864003B495C503B4981
:10D030005A500824802189005C50A62149005A508A
:10D04000A42149005A50A22149005A50A021490068
:10D050005A50051C002300242E4FB94630498846FB
:10D060004A46A75CBF002F497F1828799B002E4AAB
:10D0700099183A1CFFF75AFF687941463A1CFFF7A6
:10D0800055FF0134231C0235A642E9D80A200321AA
:10D09000FFF746FF0A20FFF741FF0122184B1A60F5
:10D0A000002024E00120404221E0012040421EE017
:10D0B000134B0122DA600022A121C9005A50114904
:10D0C000086840001449585014495A5008208021DB
:10D0D00089005850A62149005A50A42149005A50AD
:10D0E000A22149005A50A02149005A50CEE73CBC29
:10D0F00090469946A246AB46F8BDC046C48F020092
:10D1000000A00040C43200209C320020AC3200203D
:10D11000B8320020983200204C05000004050000C1
:10D120004CA100400060004040A1004080000E4B38
:10D13000C1500E4B0021A622520099500C4980226A
:10D1400092009950C12292009B581A0307D4074BB2
:10D1500001225A6080210903C122920099500122C4
:10D16000024B1A607047C046A032002000A0004069
:10D1700008080000F0B5454A0023A6214900535095
:10D1800001204042C22189005050414A1360414B66
:10D190001B68002B72D000233F4D404E141C9A0098
:10D1A0005259002A15D13E4AD75C4537FF37BF0098
:10D1B0003C493D4AB9509B003C4A9A580127391CCA
:10D1C00091403B4AA027FF05B9500027394A9F509C
:10D1D0004CE03068824216D33149CF5C4537FF3787
:10D1E000BF003049304AB9509B00304A9A58012755
:10D1F000391C9140A122D200A027FF05B950002779
:10D200002C4A9F5032E05100A82040001A1892008A
:10D210001E4FD1519A0027495258002A26D1204A40
:10D22000D75C9B0021481A580123181C9040A12369
:10D23000DB00A021C905C850BB001B495B181E4973
:10D24000A227FF00D951C046C046C04601271F6033
:10D2500012021A4F3A43A227FF00DA51C046C046D5
:10D26000C04622689300012212481A50084A1368E7
:10D2700001331360074A12689A4290D8034B082181
:10D2800080229200995001221A60F0BD00A0004057
:10D29000943200209C320020A0320020C4320020B2
:10D2A00098320020001F030000600040AC320020D4
:10D2B0000C050000B8320020031F0100030013001A
:10D2C00022DF704723DF7047F0B54F464646C0B4B3
:10D2D000404AA023DB00D05884460021D150A0232F
:10D2E000DB05E622D200995889463B4999503B4AD2
:10D2F000985880469950A122D200802189019950E6
:10D3000080214901995004200138C046C046C046DA
:10D31000C046C046C046C046C046C046C046C046DD
:10D32000C046F1D1A223DB00A022D205D358990434
:10D3300007D5A223DB00A022D205D3580120DA04AE
:10D3400035D41222A023DB05254F80214901A126D7
:10D35000F600A225ED008024A401D9510420013853
:10D36000C046C046C046C046C046C046C046C0468D
:10D37000C046C046C046C046F1D19951042001388C
:10D38000C046C046C046C046C046C046C046C0466D
:10D39000C046C046C046C046F1D15859204203D1CC
:10D3A000013A002AD9D101E0012000E00020A023A9
:10D3B000DB05E622D20049469950084A4146995079
:10D3C000A023DB00034A6146D1500CBC904699462D
:10D3D000F0BDC046003000400D06000034070000DC
:10D3E0000C05000010B5114BB122D200985001225B
:10D3F0009A6000208221490058505A61191C8222EB
:10D4000052008B58002BFCD0084B0022822149008F
:10D410005A500749585802245C50922149005A50EA
:10D42000400801235840184010BDC046003000405D
:10D43000C404000008B5A023DB05184AE621C90092
:10D440005A5017495A50174B0022842149005A500C
:10D450008E2149005A500C21A122D20099500D2151
:10D46000114A9950CC214904104A99500020104982
:10D47000104AFFF727FF002300280DD10120FFF7F6
:10D480001FFF0023002807D10521A023DB00054A48
:10D49000D150FFF719FF031C181C08BD0C06000033
:10D4A00034070000003000400C0500002405000097
:10D4B000383100401C30004010B5074C0123A12238
:10D4C000D200A350054AA350C003FA21890007F0F7
:10D4D000F5FD034BE05010BD000001400C050000BD
:10D4E000040500000122014B1A6070470000014052
:10D4F0000249C023DB00024AD15070473546526EC4
:10D500000000014030B507291CD80124231C8B40A2
:10D5100019020823184308430B4B0C4D5851A02106
:10D52000C9005C50002A0DD0C122920001219950FF
:10D53000074B98580002000A8021C9050143995001
:10D5400080221A6030BDC046007000400405000013
:10D5500000E100E0054B1A21054A99508022054957
:10D560008A500121A022D2009950704700700040DB
:10D570000405000000E100E00122084B1A60191CBC
:10D58000802252008B58002BFCD0044B00218022BB
:10D5900052009950A122D200985870470070004064
:10D5A00008B5FFF7E9FFE1231B015843800A08BDD6
:10D5B00038B5041C0D1C0368002B28D0838800207C
:10D5C000002B27D0E388002B24D023899BB2002B8B
:10D5D00020D02369002B00D09847A189E2885143CD
:10D5E00023685918281C08F046FDA0890130A1883D
:10D5F00007F008FE89B2A1812389013B9BB22381F8
:10D600002369002B05D001209847012002E000206B
:10D6100000E0012038BDC046F8B5061C0C1C171CE4
:10D6200000200025002A06D10EE00135ADB2F388B6
:10D63000E418BD4207D0301C211CFFF7B9FF0028B9
:10D64000F3D1281C00E0281CF8BDC046F0B54746C1
:10D6500080B4031C171C0468002C1FD08588002090
:10D66000002D1CD0DA889046002A18D01E89B6B248
:10D67000002E14D01A8992B28A4210D99889401883
:10D68000291C07F0BFFD0904090C434659436118E2
:10D69000381C424608F0EFFC012000E0002004BCEA
:10D6A0009046F0BD38B5041C0D1C0368002B35D026
:10D6B00083880020002B34D0E288002A31D02289D0
:10D6C00092B2934202D1A07B00282AD02369002B7A
:10D6D00001D0002098476089E288504323681818D9
:10D6E000291C08F0C8FC6089A5880130291C07F0B6
:10D6F00089FD89B2618123899BB29D4203D16389EF
:10D700009BB2A38103E0238901339BB22381236968
:10D71000002B05D001209847012002E0002000E006
:10D72000012038BDF8B5061C0C1C171C0020002574
:10D73000002A06D10EE00135ADB2F388E418BD42EF
:10D7400007D0301C211CFFF7ADFF0028F3D1281CA7
:10D7500000E0281CF8BDC04610B5041C0369002B6E
:10D7600001D000209847002323816381A38123698E
:10D77000002B01D00120984710BDC0462BDF704719
:10D780002CDF70472DDF7047074B9B6802689A4279
:10D7900009D14268044BDB689A4204D1022902D1C4
:10D7A0000022024B1A707047103A0020C832002045
:10D7B00010B582B02C4B1B78002B52D02B4B1B7812
:10D7C000002B4ED1019301A806F034FA1E23019AD2
:10D7D0009B1A032B45D92648FFF7D2FF002840D1DA
:10D7E000244C61880439201C002206F037FAE82313
:10D7F000DB00E0502048211C204A08F03CFC0022BD
:10D80000194B1A701E488021C90006F0DBF980B25E
:10D81000002826D11A4808308021C90006F0D2F924
:10D8200080B200281DD1164813498022D20000235F
:10D8300006F0EEF880B2002813D1114808300E49E6
:10D840008023DB00C918D1229200002306F0E0F803
:10D8500080B2002805D10122044B1A700448FFF75A
:10D8600091FF02B010BDC046203A0020C83200200F
:10D87000213A0020A04A0020CC32002044070000BA
:10D88000103A0020044B1A780123002A01D1034BDF
:10D890001B78012018407047203A0020C832002031
:10D8A000F8B54F464646C0B42B4B1B780020002BE2
:10D8B0004AD12A4B18685968264B254A07F0CEFCF6
:10D8C0004B04C60B1E43CF0B254B9846234B994662
:10D8D00002E00A2007F09AFB4046FFF751FF0028BC
:10D8E00016D04B46186859681A4B194A07F0B6FC0F
:10D8F0004B04C40B1C43CD0B221C2B1C921BBB41A5
:10D90000002B03D1E5D1174B9A42E2D90D201BE041
:10D91000124B186859680F4B0D4A07F09FFC4C04D6
:10D92000C20B2243CB0B921BBB41002B0BD102D16C
:10D930000C4B9A4207D80122074B1A700848FFF790
:10D9400021FF002000E00D200CBC90469946F8BD58
:10D95000E880000000000000203A0020E85D002080
:10D96000213A0020E703000010B582B01D4C201CB6
:10D9700000211D4A08F0A1FB201C1C498022D20076
:10D98000002306F0CDF80023002827D118481749B6
:10D990000831D122920006F0C3F8002300281DD1DF
:10D9A000104B19880023134A914217D10D4B598807
:10D9B00000230D4A914211D10F4C01A8211C0422D1
:10D9C00008F059FB0D4AA01841880439002206F0DE
:10D9D00045F9019A131A5A425341DBB2181C02B09E
:10D9E00010BDC046A04A002044070000103A0020A5
:10D9F000A04E0020AFAD0000E0510020C0F8FFFFB6
:10DA0000F8B5314C314D201C00212A1C08F055FB83
:10DA10002F4B2380658080231B01636001262672C3
:10DA20006672A67226732B4F201C0E30391C0622FC
:10DA300008F021FB1423238728226287A3871E2353
:10DA4000E387D12252004023E2524823E654231CAC
:10DA50004C333A1C083223CA23C303CA03C31288B7
:10DA60001A80002300256222A352221C62325380B6
:10DA70009380D380138110229C23E254EE229F23B3
:10DA8000E2540422A023E254FC22A223E254F42212
:10DA9000A323E254A423E6540A22A523E254201C23
:10DAA000A630391C28310B2208F0E5FAB134257074
:10DAB0006570A570E57025716571A571FFF7F0FEC1
:10DAC00043425841C0B2F8BDA04A002044070000BC
:10DAD000AFADFFFFD88F020010B586B00023204AFB
