:020000021000EC
:108000000080002059440200BD440200BF44020029
:108010000000000000000000000000000000000060
:10802000000000000000000000000000C144020049
:108030000000000000000000C3440200C54402002C
:10804000C7440200C7440200250A0200C7440200D8
:10805000C744020000000000D9FB0100C744020031
:10806000C7440200C7440200B9CC0100C744020063
:10807000C7440200C7440200C7440200C7440200CC
:10808000C7440200B1FF0100C7440200C744020018
:10809000E9000200313702000D0F0200C744020060
:1080A000C7440200C74402000000000000000000B6
:1080B00000000000000000000000000000000000C0
:1080C000164B002B00D1144B9D46402292029A1A67
:1080D000924600218B460F461348144A121A0DF09F
:1080E00073F90F4B002B00D098470E4B002B00D09C
:1080F00098470020002104000D000D48002802D000
:108100000C4800E000BF0DF0D1F82000290004F079
:1081100075FB0CF0BDFEC04600000800008000208A
:108120000000000000000000282A00205C5400200D
:108130000000000000000000F8B5031C0F1C151C17
:108140000020042B18DC5A00D3189B000B4A9E58C1
:10815000002E0AD0002D0ADD0024385DB047013022
:1081600007D00134AC42F8D105E0002004E0281C1F
:1081700002E0201C00E0281CF8BDC0464874020044
:10818000F8B50F1C161C042818DC430018188000D2
:10819000104B18184568002D13D0002A14D0002960
:1081A00015D00024A847431C03D038550134A642FB
:1081B000F8DC201E0DD1012040420AE0012040429F
:1081C00007E00120404204E00120404201E001209C
:1081D0004042F8BD4874020010B5041C08490DF077
:1081E0007BFB002807D0201C06490DF075FB0028FA
:1081F00003D1042003E0032001E00120404210BD30
:10820000387402004074020008B50E22835E042B0D
:108210000ADC5A00D3189B00064AD3189B68002B2F
:1082200005D0081C984704E00120404201E00120ED
:10823000404208BD4874020010B584B0012902D93B
:1082400002290CD03EE0214B1B7DDB07DB0FDBB2AC
:10825000101C1F491A1C0CF07BFE002033E06A46FC
:108260000023D370033201A901938B6008230B70A4
:108270004A60012203F0B2FA012801D0154822E039
:108280006B4603331B78114A127DD207D20FD2B24C
:108290009A4215D00D4A01201840117D0124A143B6
:1082A00001431175002B03D004214923D15405E06B
:1082B00000214923054AD15406F050FD05F094F8F9
:1082C000002000E0034804B010BDC0460441002077
:1082D000947402006280000010B582B0041C022970
:1082E0001CD1124B1B7DDA071AD506F0C9FC031C02
:1082F00008200F4A934216D06846002108220DF04C
:1083000063F8201C6946082203F020FA431EDBB202
:10831000072B07D8684607F0A3F904E0054802E0F8
:10832000054800E0034802B010BDC04604410020EB
:10833000FFFF00006280000063800000F0B5574638
:108340004E464546E0B48AB0041C022963D1374B3F
:108350001B7DD80761D52378002B60D0101C01F05D
:108360004FFB04A9324A0B1C61CA61C322CA22C353
:1083700012881A802F4B1E6802969A8802AB9A8048
:108380002D4B186800909B8869468B80201C2B49D8
:108390000DF0A2FA43424341E41802AA9246284B48
:1083A00099460325A84630E066785C2D0BD15046EF
:1083B000311C0DF085FA002805D05646801B694611
:1083C0000D5CA71CA6784A46126853195B78404694
:1083D00003400221012B06D004A8291C0DF070FADD
:1083E000411E88414100281C07F0BEF80F200CF008
:1083F00013F8AE4201D0002E06D10020002107F074
:10840000B3F80F200CF008F83C1C671C2578002DF1
:10841000CAD1002004E00B4802E00B4800E0094804
:108420000AB01CBC90469946A246F0BD044100200B
:10843000A0740200B8740200C07402009C740200B0
:10844000C0290020628000006380000010B588B061
:10845000041C02293CD1224B1B7DDA073AD506F0D9
:108460000FFC021C08201F4B9A4236D007A900239C
:108470000B800F230693201C03F01CF9002819D150
:10848000002300930393059309236A461370022384
:10849000537007AA0192144A02926A46137306ABFC
:1084A0000493201C6946022203F098F9431EDBB2B4
:1084B000012B11D807AC201C07F0BAF906980BF075
:1084C000ABFF00232380201C07F0B2F9002004E05A
:1084D000064802E0064800E0044808B010BDC04667
:1084E00004410020FFFF0000E476020062800000EB
:1084F0006380000000B58FB0022925D10CAA0023AB
:108500000C931371FF211170009302930393059351
:108510000693089309930B93062369460B70013267
:1085200001920B73013204920B76013207922422DE
:108530008B540DAB0A93042203F050F90138C0B2FA
:10854000032803D9044804E0034802E00CA807F01C
:10855000F3F80FB000BDC04662800000F0B547469A
:1085600080B492B0022900D0E9E00EA97B4B0A1C2E
:1085700070CB70C21B6813600CAD00220C922A7184
:108580000B926C460F2363852A3401AB0192039250
:1085900004920792099205221A70029507221A7313
:1085A00004225A730BAD059506911A760894037848
:1085B0006B4A1268D3185B78590774D40023009370
:1085C00001A90B7000AA4A60032203F007F9031CFB
:1085D0000138C0B2022800D8B5E062E00B9B032B43
:1085E0005FD1009800286CD00DF088F9052858D884
:1085F00000245B4E03275B4DA84614E00098021947
:1086000013783068C11848783840191C022800D106
:1086100020391170009A515D40460DF051F9002843
:108620003FD00134E4B2251C00980DF067F9844274
:10863000E4D300984C210DF043F9002804D00CAB92
:10864000197801220A431A70009852210DF038F966
:10865000002804D00CAB197802220A431A70009843
:108660004D210DF02DF9002804D00CAB197804220F
:108670000A431A70009842210DF022F9002804D014
:108680000CAB197808220A431A70009846210DF0A5
:1086900017F9002815D00CAB197810220A431A706C
:1086A0000FE0314856E001A9032203F097F8031CBC
:1086B0000138C0B202284AD92B484BE00B9B032B50
:1086C0003FD10CAC201C07F037F824780020002C98
:1086D00040D00B9B022B0ED0032B25D00020012B6A
:1086E00038D10F200BF098FE0CA80023037007F080
:1086F00023F800202EE00F200BF08EFE0CAD00269C
:108700002E70281C07F018F80F200BF085FE2C7037
:10871000281C07F011F80F200BF07EFE2E70281C8D
:1087200007F00AF8002015E06B46588D0BF074FE38
:108730000CA80023037006F0FFFF00200AE00A489F
:1087400008E0094806E0032B00D04AE746E7032B80
:10875000B7D1B3E712B004BC9046F0BD84740200F8
:10876000C0290020C87402006280000000B585B0F6
:10877000012902D902290BD031E01A4B1B7DDB06FF
:10878000DB0F101C18491A1C0CF0E2FB002027E03C
:108790006A460023D370033201A901938B6008233A
:1087A0000B704A60012203F019F8012801D00F482C
:1087B00016E06B4603331B780A4A127DD206D20FAD
:1087C0009A420AD0074A01210B401901137D10205B
:1087D00083430B43137504F007FE002000E00348B9
:1087E00005B000BD044100209474020062800000C6
:1087F00010B58CB0041C022944D1264B1B7D1122DC
:108800001340112B40D106F03BFA031C0820224AEA
:1088100093423CD00BA8002102220CF0D5FD6A4601
:108820002A320023137068462B30037001A901938C
:108830008B60CB604B618B610B6206230B704860D1
:108840000B730A6105230B766B462D33CB61201C1D
:10885000032202F0C3FF032818D80BA86B462B3362
:1088600019780323194002789A436C462A342478F5
:1088700023409B000A430C218A431343037007F0F3
:1088800043F804E0054802E0054800E003480CB066
:1088900010BDC04604410020FFFF000062800000C0
:1088A0006380000000000000F8B54F464646C0B4A3
:1088B000011E02D022480CF0E3FB224B18685968D5
:1088C0001E4B1D4A0BF0D0FE4B04C60B1E43CF0BB4
:1088D0001C4B9846F423FF33994604F075FD00289D
:1088E00013D0434618685968144B134A0BF0BCFE6A
:1088F0004B04C40B1C43CD0B221C2B1C921BBB41F5
:10890000002B02D1E9D14A45E7D90E4B18685968C6
:108910000A4B094A0BF0A8FE4904C00B0843861B0A
:10892000632E03D86420801B0BF076FD0CBC9046B0
:108930009946F8BDC046C046E8800000000000002F
:10894000F476020050540020F0B5474680B494B04D
:1089500080460F1C151C80235B055A6E1B6E0FACE6
:10896000201C26490CF0F6FE04F0F0FE021C0AAEB4
:10897000301C23490CF0EEFE00230293214B03939D
:1089800004960594204B06930793204B089304F01C
:10899000F7FE0990002F02D0022F0ED026E003AC84
:1089A0000AAF1B4E01CC291C0CF06AFB301C291CA1
:1089B0000CF066FBBC42F5D11AE04046154901AA0D
:1089C0000CF0EAFE002803D0019B5A1E062A01D9AA
:1089D00011480EE09B0002AA9858291C0CF050FB8D
:1089E0000B48291C0CF04CFB002002E00A4800E078
:1089F000002014B004BC9046F0BDC046FC760200D6
:108A0000087702001477020020770200287702001E
:108A1000AC7F0200347702006280000038B5051C8C
:108A2000141C012902D902290CD01FE0124B187A1C
:108A30003030111C0CF0C4FA1048211C0CF020FB43
:108A4000002018E00CF05AFF012811D12B78303BA0
:108A5000DBB2012B0ED8084A127A00209A420AD0C3
:108A6000054A137204F0C0FC002004E0044802E050
:108A7000034800E0024838BD04410020AC7F0200FA
:108A80006280000008B500290AD1101CFFF70CFF16
:108A9000BFF34F8F034A044BDA60BFF34F8FFEE7FB
:108AA000024808BD0400FA0500ED00E06280000005
:108AB00010B5141C00290ED104F046FD06F04EF945
:108AC000201CFFF7F1FEBFF34F8F044A044BDA601E
:108AD000BFF34F8FFEE7034810BDC0460400FA0500
:108AE00000ED00E06280000008B5002906D1101CEE
:108AF000FFF7DAFE05F058FD002000E0004808BD51
:108B00006280000000B585B0012902D9022909D090
:108B100033E01B4BDB7D101C1A491A1C0CF018FAB1
:108B200000202BE06A460023D370033201A9019391
:108B30008B6008230B704A60012202F04FFE01286F
:108B400001D011481AE06B4603331B780C4AD27DE2
:108B5000934210D00A4AD375002B05D003210B4B4A
:108B6000A022D205D15004E00C21084BA022D2054E
:108B7000D15004F039FC002000E0002005B000BD19
:108B80000441002094740200628000001C07000071
:108B900010B5002923D1134B1B689A420CD105F064
:108BA000CDFE104B1C6805F0C3FE021C201C0E49B4
:108BB0000CF0CEF9002013E003F0B4FA0123181AE8
:108BC000C0B203F0B5FA094B1B689C6803F0AAFA1F
:108BD000021C201C04490CF0BBF9002000E00448F2
:108BE00010BDC0464850002094740200242A002082
:108BF00062800000F0B54F464646C0B48BB0141CEE
:108C0000022959D1344B1B689A4257D0002309934B
:108C10006D4623352B7006A98846304A161C84CE33
:108C200084C100930393059307236E463370022398
:108C3000737009AB01934746029708233373049579
:108C40006946022202F0CAFD031C0138C0B20128A5
:108C500038D923483AE0234A507DC00901224240D6
:108C6000D2B203E01F4A527D5206D20F012B05D12A
:108C7000201C1D490CF06CF9002027E06B462333C3
:108C80001B789A421CD0002909D1164A0121CB1A1F
:108C9000D901537D7F2003400B43537508E0114AEF
:108CA00001210B409901537D402083430B435375B1
:108CB00004F09AFB002009E0094807E00B4805E0B2
:108CC000002003E009990029C5D0CBE70BB00CBC0C
:108CD00090469946F0BDC04648500020EC76020010
:108CE0006280000004410020947402006380000050
:108CF00010B582B0141C022918D1114901AA0CF038
:108D00004BFD002814D00199072913D8022913D04C
:108D1000C9B20220002204F097F904F0CFF9021C36
:108D2000201C08490CF014F9002006E0064804E075
:108D3000054802E0044800E0034802B010BDC04608
:108D400034770200407702006280000010B5141CE6
:108D500000290AD104F0A0F904F0C4F9021C201C77
:108D600003490CF0F5F8002000E0024810BDC046B1
:108D7000407702006280000010B5041C022917D160
:108D800005F07EFF031C08200A4A934211D0201CE4
:108D900009490CF0A1FD43424341E418201C04F0B2
:108DA00003FD064B1968201C0CF06AF9002000E056
:108DB000034810BDFFFF00009C74020048500020D3
:108DC00062800000F8B5161C00292CD1184B1968D8
:108DD0004B68013B4B60002B04DA164B18680CF013
:108DE000E7FB03E00B685A1C0A601878431C1CD090
:108DF0000F4F104C311C0CF0E3F83968486801380B
:108E00004860002803DA20680CF0D2FB03E0086811
:108E1000451C0D600078431CECD10748311C0CF058
:108E20002FF9002002E0054800E00020F8BDC04610
:108E300048500020242A0020AC7F020062800000FD
:108E4000F8B5051C141C00291ED0022916D12BE0F0
:108E5000281C1E490CF016FD002811D18022D200DA
:108E6000D21B92B2002A0DDB201C19490CF070F8BD
:108E70001848211C0CF004F9002026E0164824E0D4
:108E8000154822E0144820E005F068FC051C05F0B8
:108E90005FFC8023DB005D1BAAB21B1A9BB2201C67
:108EA0000E490CF055F8E3E705F058FC8026F60073
:108EB000361AB6B205F04CFC071C281C08490CF009
:108EC000E1FC321C0028CDD0C2E7F8BD9C7C02003A
:108ED00048770200AC7F0200628000000C82020032
:108EE000807C020010B5041C02292CD105F0C8FEBC
:108EF000031C0820154A934226D0201C14490CF06C
:108F0000EBFC43424341E418201C04F04DFC03F009
:108F10003FFA022803D10020012103F00FF9201CA1
:108F20000CF0ECFC81B2201C05F01EFD041C03F0CB
:108F30002FFA031C201C022B06D10020002103F075
:108F4000FDF8201C00E0034810BDC046FFFF0000F4
:108F50009C74020062800000F0B5474680B4071C94
:108F600000240D4EA3B29846A3009D59281C0CF076
:108F7000C5FC021C281C391C0CF00EFA002803D07A
:108F80000134052CEED101E0404600E0034800B278
:108F900004BC9046F0BDC0464C770200FFFF0000C5
:108FA000F8B5061C0F1C084D0024301C29680CF075
:108FB000FBFC002801D03C7005E00134E4B204352C
:108FC0000E2CF2D10020F8BD4C780200F0B55F46BF
:108FD00056464D464446F0B493B0141C1D1C01295E
:108FE00031D8714DA623EA5C9200704BD058211CF9
:108FF0000CF046F8A523EB5C012B1ED901256A4F26
:109000006B4E6C4A90467B19A033987932681318DE
:109010005B786822934303D0211C0BF0D1FF05E05D
:1090200080004346C058211C0CF02AF80135EDB2EF
:10903000A5235D4AD35CAB42E5D85F48211C0CF008
:109040001FF80020A8E0022900D0A0E0002311931F
:10905000109306A906938B60CB604B618B610B620A
:1090600011AB4B6002230B7310AB0B6106230B7625
:109070006B463F33CB61032202F0B0FB80460138E0
:10908000C0B2022800D984E01198FFF765FF0028DC
:1090900005DA4A48211C0BF0F3FF49487CE001AB9C
:1090A0001870119E8000414BC0580CF027FC3018FE
:1090B00011900378002B44D0012712229346694671
:1090C0000331FFF76DFF8146002803D0119BC61ABC
:1090D000F6B203E011980CF011FCC6B24B465A1ED2
:1090E0009341DBB29946FB185A46D31A9E4205DDDE
:1090F0003448211C0BF0C4FF09204DE001ABD81906
:109100001199321C0CF057F9119A9219924611924A
:10911000F619F6B24B46002B0DD0731CDFB26A462F
:10912000D37801AA93559B00224A98580CF0E6FB8D
:109130005044119000E0371C11980378002BBED1E9
:1091400000E001274346012B05D9109B012B22D8B3
:109150004A2215498B544246022A05D96B463F33B1
:1091600019789F23104AD15401A8391C05F014F92D
:10917000041C002C10D10C4B0321492299549E222F
:109180009D5404F031F906F023F8201C04E00C484B
:1091900002E00B4800E00A4813B03CBC90469946F8
:1091A000A246AB46F0BDC046044100204C77020009
:1091B000C02900204C780200AC7F020060770200DA
:1091C000628000008C77020008B50023FFF7FEFEE6
:1091D00008BDC04608B50123FFF7F8FE08BDC0462C
:1091E00010B584B049231C4CE35C033B5C426341F3
:1091F000DCB2012906D8101C1849221C0BF0A8FE6D
:10920000002027E0022920D16A460023D3730F32C1
:1092100000930293082369460B700192012202F029
:10922000DDFA012813D16B460F331B78A34210D00F
:109230000022002B00D0032249230749CA5404F01E
:10924000D3F805F0C5FF002004E0054802E004481B
:1092500000E0002004B010BD04410020947402001E
:109260006280000000B585B001290AD8194B1B7D2A
:109270001B07DB0F101C18491A1C0BF069FE00209D
:1092800026E06A460023D3730F320093029308232B
:1092900069460B700192012202F0A0FA012816D152
:1092A0006B460F331B780B4A127D1207D20F00203A
:1092B0009A420DD0074A01210B40D900137D0820A6
:1092C00083430B43137504F08FF8002000E003483C
:1092D00005B000BD044100209474020062800000CB
:1092E00000B585B0174B1B7D1A0725D5002902D084
:1092F000022903D022E0B423039312E00023009359
:10930000029302236A46137003AB0193694601225C
:1093100002F064FA012802D1039B002B01DC0A4809
:109320000DE0039805F058F803214923054AD1546C
:1093300005F04EFF002002E0044800E0024805B0BE
:1093400000BDC04604410020628000006380000030
:1093500000B585B001290AD8194B1B7D5B07DB0FCF
:10936000101C18491A1C0BF0F3FD002026E06A4679
:109370000023D3730F3200930293082369460B70C6
:109380000192012202F02AFA012816D16B460F330E
:109390001B780B4A127D5207D20F00209A420DD043
:1093A000074A01210B409900137D042083430B439E
:1093B000137504F019F8002000E0034805B000BD63
:1093C00004410020947402006280000000B585B062
:1093D000022913D100230093029305236A461370D8
:1093E0006B460F3301936946012202F0F7F9012819
:1093F00006D16B46D87B05F03BFF02E0024800E057
:10940000014805B000BDC04662800000F0B54F467F
:109410004646C0B483B0161C002902D0022924D0CD
:1094200038E003240125224B98460027214B99461A
:10943000E0B203F079FD00280BD0002D03D148469F
:10944000311C0BF01DFE301C4146221C0BF080FD30
:109450003D1C0134782CEBD10020002D22D1164880
:10946000311C0BF00DFE00201CE00023019313497A
:1094700001AA0CF091F9002803D00198C31E742BA7
:109480000AD90F480EE0301C0E49019A0BF060FD1E
:10949000002007E00A4805E0C0B203F045FD0028BF
:1094A000F6D0F0E703B00CBC90469946F0BDC0463C
:1094B0008878020084780200AC7F02009078020075
:1094C0006280000094780200F0B5474680B4141C16
:1094D000002922D1144B1B689A4220D01348111C3A
:1094E0000BF0CEFD124B1D1D3933FF339846114F43
:1094F000114E381C211C0BF0C3FD301C211C0BF03D
:10950000BFFD01CD211C0BF0BBFD4545F1D10B4842
:10951000211C0BF0B5FD002002E0094800E00948DD
:1095200004BC9046F0BDC04648500020A078020020
:10953000D07C020084780200A4780200AC7F020094
:10954000628000006380000010B5054C201C0021E3
:10955000802252000BF038FF024B1C6010BDC04649
:109560002C2A0020282A0020F0B5474680B4071C8A
:1095700088464C490CF0B0F9002831D03B78002BDC
:1095800013D03D2B11D03A1C474D03242868C11835
:1095900048782040191C022800D12039117001326E
:1095A0001378002B01D03D2BF0D1381C0CF0A6F91C
:1095B000012805D93B78412B02D17B78542B05D06B
:1095C0003A4841460BF05CFD394868E0BB78023709
:1095D000002B05D1374841460BF052FD00205EE0DC
:1095E000354E00243568281C0CF088F9021C381C04
:1095F000291C0CF0AFF9002805D00134E4B2043680
:109600004E2CEFD101E04E2C05D1284841460BF0FD
:1096100037FD2A4843E0251CA400274BE0580CF0F6
:109620006DF9FF2318403F18381C25490CF054F9F8
:10963000002805D11F4841460BF022FD00202EE0F6
:10964000381C20490CF048F9002802D101370121CB
:109650000EE03B783D2B02D10137022108E00021CA
:10966000002B05D0114841460BF00AFD134816E0C7
:10967000AD00154BEB58381C42469847041C134B61
:109680001B78002B07D1002801D10A4800E00748C9
:1096900041460BF0F5FC00220C4B1A70201C04BC58
:1096A0009046F0BDA0780200C0290020A8780200F2
:1096B00060800000F4760200D07C0200618000002F
:1096C000B0780200B4780200087E0200342B00203B
:1096D000F8B54F464646C0B4041C614B1B68C31A1C
:1096E0005A425341DBB299469B005E4FFF18381C2B
:1096F0000CF004F98046C6B2201C311CFEF784FD34
:10970000051C431C03D1731E9E41F0B2A3E00D283B
:1097100001D00A2861D1381C53490CF0DDF800282B
:109720005BD104256368013B6360002B05DA4F4A77
:109730001068211C0BF03CFF02E02368013323601A
:10974000013DEDB2002DEDD101200AF065FE201C97
:109750000021FEF759FD0D2801D00A280DD16368BC
:10976000013B6360002B05DA404B1868211C0BF0AD
:109770001FFF02E02368013323604B46002B0FD00C
:1097800005F0DCF8364C256805F0D2F8021C281CE0
:1097900037490BF0DDFB216836480BF071FC15E012
:1097A00002F0C0FC0123181AC0B202F0C1FC2F4C19
:1097B00023689D6802F0B6FC021C281C2C490BF0A3
:1097C000C7FB236899682B480BF05AFC381C002112
:1097D00004220BF0F9FD01203DE05C2D08D1002EA4
:1097E00033D1FF23424613405C22FA54012032E079
:1097F0002B2D27D1012E11D13B785C2B12D1636820
:10980000013B6360002B05DA184B1868211C0BF034
:10981000CFFE1AE023680133236016E0002E0AD041
:10982000022E12D8FF2243461A40381C12490BF070
:10983000B3FD002809D1FF23424613402B22FA54DE
:10984000012008E00020002E05D0381C0021042251
:109850000BF0BAFD00200CBC90469946F8BDC046FE
:10986000485000202C2B0020A0780200242A002041
:1098700094740200F4760200B8780200F0B54F4606
:1098800080B4051C0F1C574E0136FF3692E00A2C9F
:1098900004D00D2C02D0082C58D140E0524B1A684D
:1098A000504B9A4200D885E0504B1B689B689F4202
:1098B00007D14F4B1B7A002B03D04E48391C0BF0BD
:1098C000DFFB494B002219680A70464C1C60201CC3
:1098D000391CFFF749FE8146201C47490BF0FCFF6D
:1098E000002867D14A46002A64D101200AF094FD7D
:1098F000281C0021FEF788FC0D2801D00A2859D128
:109900006B68013B6B60002B05DA384B1868291C2B
:109910000BF04EFE4EE02B6801332B604AE0324BD9
:109920001A68304B9A4245D9304B1B689B689F425E
:1099300007D12F4B1B7A002B03D03048391C0BF07A
:109940009FFB294B1A68013A1A6033E0264B1B68CB
:10995000B3422FD2254B186883689F4225D1244BF0
:109960001B7A002B21D0BB68013BBB60002B17DAB0
:10997000B9698B420FDB3A6814703B681A780A2A7F
:1099800002D001333B6010E0184B18680A213A1CE2
:109990000DF0A4F809E0211C3A1C0DF09FF804E03A
:1099A0003B681C703B6801333B600F4A1368591CCD
:1099B00011601C706B68013B6B60002B06DA0B4971
:1099C0000868291C0BF0F4FD041C03E02B68581CEC
:1099D00028601C78621C00D059E7002004BC914626
:1099E000F0BDC0462C2A0020282A0020242A00206E
:1099F00004410020AC7F0200A0780200BC78020085
:109A000008B5011C0122034B1A7003480BF038FB08
:109A100008BDC046342B0020F4760200A0DF70475A
:109A2000A4DF7047A5DF7047A6DF7047BA23094A55
:109A3000D35A191898229200914208DC054A081C52
:109A4000BA215052F82189005B18981800E00020D4
:109A50007047C04604410020F8B54F464646C0B4A2
:109A600080468946171E15DD0026002463B29B0040
:109A70004A469D58281C0BF041FF021C4046291CF9
:109A80000BF044FF002807D00134E4B266B2BE42B6
:109A9000ECDB01E000260024B7420BD063B29B0050
:109AA0004A4698580BF02AFF4246135C3D2B02D0E1
:109AB000FF2400E0FF2460B20CBC90469946F8BD3C
:109AC00010B5141C002802D0012811D01EE0081C7B
:109AD0001168102201F03AFE102819D10023A37159
:109AE00023689A781202DB781343A380002014E0E5
:109AF000131D081C191C01F0DDFD00280AD0A388E5
:109B0000002B09D00123A371002006E0034804E0E4
:109B1000024802E0014800E0004810BD62800000F9
:109B2000F8B54F464646C0B4071C0D1C90469946F2
:109B300008A90E7802212C1C8C4309D10021321C6B
:109B400001F004FE002803D0814508D8B04206D8B1
:109B5000381C291C4246331C01F0D0FFC4B2201C23
:109B60000CBC90469946F8BD08B505480021B122C5
:109B7000D2000BF029FC03F037FC002008BDC046E2
:109B8000BC410020F0B54F464646C0B487B0041C27
:109B9000171C022900D084E0B823464AD35C042075
:109BA0000A2B00D180E004A8002108220BF00CFC55
:109BB0006846002110220BF007FC00A80490201C2E
:109BC0002C210BF07DFE002803D0451C00230370E0
:109BD00000E0051C002C38D037498846894630E023
:109BE00001342378202BFBD0201C41460222FFF7B2
:109BF00033FF061E0EDB8300494658580BF07EFEED
:109C0000F6B2411C6118301C04AAFFF759FF061E6A
:109C100008D000E0294E381C2949221C0BF098F985
:109C2000301C41E0281C2C210BF04AFE002803D0F8
:109C3000431C0022027000E0031C002D05D02C1CE8
:109C40001D1C2378202BCBD0CEE704AB9B88002BA8
:109C500029D0184BB8229C5C0134E400E3181C1C8A
:109C6000B83404AB221C03CB03C2A379012B02D16D
:109C70000023236007E01020FFF7D8FE206004993E
:109C800010220BF098FB0B4DB8242B5D01332B55A4
:109C900003F0AAFB2A5D381C0A490BF059F9002091
:109CA00002E0064800E0054807B00CBC9046994623
:109CB000F0BDC04604410020B08002006280000078
:109CC000887F020094740200F0B557464E46454620
:109CD000E0B49AB0041C151C022900D05EE1B82340
:109CE000BC4AD35C0420002B00D16DE1B923D35CC6
:109CF0001E2B00D168E114A8002118220BF064FB90
:109D00000CAF381C002120220BF05EFB08A8804617
:109D1000002110220BF058FB06AE301C0021082257
:109D20000BF052FB4146159117971996201C2C21D8
:109D30000BF0C6FD002803D0461C0023037000E092
:109D4000061C002C00D1B8E0A34A90469146A34FD0
:109D5000BA46ADE001342378202BFBD0201C4146CD
:109D60000922FFF779FE071E00DA93E083004946D7
:109D700058580BF0C3FD01302018FBB2082B00D956
:109D800088E09F005246D3599F466946523101F000
:109D900091FC00287ED014AB5B88002B7AD014ABEA
:109DA000197A1F22914301220A431A7204E115997C
:109DB000102201F0CBFC10286CD114AB1A7A1F21B1
:109DC0008A431A72159A91780902D2780A435A8006
:109DD000F2E003A901F04CFC00285BD003AB1B7838
:109DE000002B57D06846513003A901220BF0E3FA4B
:109DF000E2E06946593101F03BFC00284AD014AB3F
:109E00005B7A013B1F2B45D8D6E069465A3101F0F9
:109E10002FFC00283ED014AB9B7A013B1F2B39D876
:109E2000CAE003A9002303938B600A230B706B46DF
:109E30000B334B60012201F0D1FC01282AD114AB75
:109E40006A46D17A49011A7A1F2002400A431A72DF
:109E5000B2E014AB5B7A002B00D0A7E014AB9A7A87
:109E60000123002A02D1202200E01A1C14AF397A03
:109E700049090092179AFFF753FEF872002809D09B
:109E80009AE0189098E01999072201F05FFC0728E2
:109E900000D191E0281C5249221C0BF059F851487E
:109EA00092E0431C00220270002E06D0341C1E1CBF
:109EB0002378202B00D14DE750E714AB9B7A002B81
:109EC00002D114AB5A7A9A7214ABDB7A002B02D10E
:109ED00014AB5A7ADA7214AB5B7A002B60D014AAF6
:109EE000927A9A425ED314AB5B88002B5CD0394BDC
:109EF000B822985C01388446B9229A5C18214A43FA
:109F00009C181134FF3414AA231C111CC1C9C1C3ED
:109F1000C1C9C1C361462170137ADB06DB0E012B78
:109F200002D10023636007E01020FFF77FFD60602F
:109F3000159910220BF03FFA1898002809D00BF061
:109F4000DDFC0130C0B2FFF771FD206118990BF004
:109F5000CDFC199A1378002B08D00820FFF766FD76
:109F60006061199907220BF026FA01E00023636172
:109F7000A07AFFF75BFDE060E27A17990BF01BFA1D
:109F8000144EB924335D0133335503F02DFA325D9D
:109F9000281C15490AF0DCFF002015E0114813E0E9
:109FA000104811E00F480FE00E480DE014AA927A15
:109FB000002A00D05AE758E7301C2C210BF080FC17
:109FC000031E00D170E76CE71AB01CBC904699469E
:109FD000A246F0BD04410020647F0200407F0200E1
:109FE0009C7F020062800000947402000000000068
:109FF000F0B557464E464546E0B48CB0041C151CDF
:10A00000022900D002E1944907AA0BF0C5FB002801
:10A0100000D1FDE0079B002B00DCFBE0B9228F495B
:10A020008A5C934200DDF7E0013B5A00D318DB0065
:10A03000CB181133FF339846201C2C210BF040FC29
:10A0400000280DD14046017A4909C268C37A281C0C
:10A0500001F0F0FC8248291C0BF012F80020F0E01F
:10A060000378002B00D1D9E001304246117A49092A
:10A07000D2684446637AA47A0094FFF751FD4546BE
:10A080006A7A824200D9CBE0AA7A824200D2C9E041
:10A09000E87203F0A9F9079C013CE4B2182262437C
:10A0A0001132FF326D4BD2189046E4006D4B1C19F3
:10A0B00004F0E6FD8146021C23880020834200D183
:10A0C000BFE0694B9A4200D18EE04046427830238F
:10A0D0001A4200D188E002AB00201880A1880AAAA9
:10A0E00002251580508053604846FFF79BFC41468F
:10A0F0004D78ED06ED0F04D002AB1B88DA0700D5D2
:10A1000092E04046437899066ED502AB1B889A07C9
:10A110006AD5C27A6B465A8103AB9A46181C002155
:10A1200010220BF051F92388544623806B425D4185
:10A13000013503AB9D706A460A3205924546ED68CB
:10A14000069504F027FE00283CD1484B1868596852
:10A15000404B3F4A0AF088FA4B04C40B1C43CD0B1A
:10A160000120824602E050460AF056F904F012FE41
:10A17000002815D13D4A10685168364B344A0AF020
:10A1800073FA4B04C60B1E43CF0B321C3B1C121B35
:10A19000AB41002B02D1E6D1C72AE4D9042050E01C
:10A1A000324B186859682B4B294A0AF05DFA4E0465
:10A1B000C20B3243CB0B121BAB41002B12D101D18E
:10A1C000C72A0FD8484603A9FFF72EFC83B2181EF2
:10A1D00037D1444663780020DD0632D504F0E2FD35
:10A1E00000202EE004202CE04046427A837A0020B2
:10A1F0009A4226D0218808AA4446E37A13805080E8
:10A2000050604846FFF70CFC80B21AE0184818E08E
:10A21000174816E0164814E0154812E0144810E0FC
:10A2200013480EE012480CE0CA7A6B465A8103AD1F
:10A23000281C002110220BF0C7F823882B80012551
:10A2400077E70CB01CBC90469946A246F0BDC046CC
:10A25000E880000000000000487702000441002070
:10A26000AC7F02004C2B0020FFFF00005054002068
:10A2700062800000C046C04610B582B0141C02299E
:10A2800013D16946073100230B7001F0F1F9002862
:10A290000DD06B4607331B78B9220F498A5C002B1F
:10A2A00007D0934207D90D4814E00C4812E00B4840
:10A2B00010E00A480EE0013B5A00D318DB00064AC2
:10A2C000D3181133FF33D868DA7A0121231C0AF03E
:10A2D000DDFF002002B010BD0441002062800000BC
:10A2E000F0B55F4656464D464446F0B483B0161C62
:10A2F000002900D095E0524B1B689A4200D192E0B1
:10A30000B823504AD35C002B00D18EE00027924640
:10A310004D4B99464D4B9B467A1CD4005444B8345F
:10A32000A388301C49460AF013FEA379012B08D0FC
:10A330005846311C0AF0A4FE2168301C102201F09E
:10A340005FFB4348311C0AF09BFEB9233D4AD35CB6
:10A35000002B5DD00024904665002D19ED0045448A
:10A360001135FF352B78BB424BD1621C6B88301CFA
:10A3700038490AF0EDFD2B7ADB06DB0E012B0CD001
:10A380003548311C0AF07CFE301C6968102201F04F
:10A3900037FB3248311C0AF073FE6A786B7AA97A6F
:10A3A0000091297A49090191301C2D490AF0D0FD0C
:10A3B0002A69002A03D0301C2A490AF0C9FD6B69BA
:10A3C000002B0FD01B78002B0CD02748311C0AF033
:10A3D00057FE301C6969072201F012FB1F48311C2F
:10A3E0000AF04EFE2148311C0AF04AFE297A49093A
:10A3F000EA68EB7A301C01F01DFB1548311C0AF0AD
:10A400003FFE0134E4B2B9230E4AD35CA342A3D881
:10A410000137FFB2B8230B4AD35CBB4200D97BE7BC
:10A4200005E0134804E0134802E0002000E00020AB
:10A4300003B03CBC90469946A246AB46F0BDC04630
:10A440004850002004410020B07F0200C47F020079
:10A45000AC7F0200D07F0200E87F02008478020017
:10A46000F47F02002C8002003C8002004C8002003D
:10A470006280000063800000F0B54F4680B4061C87
:10A480000388502B2DD1B923174AD35C002B28D039
:10A490000024164D171CE300F288EB5A9A420DD1A6
:10A4A00063001B19DB00104AD3181133FF33F28B02
:10A4B000987A597A914201D8824206D90134E4B29D
:10A4C000B923FB5CA342E6D80BE0DA72D868311CF2
:10A4D0002031F28B0AF06FFF0120A04002F0F4F966
:10A4E000ECE704BC9146F0BD044100204C2B002059
:10A4F000F0B55F4656464D464446F0B48BB05A48D8
:10A50000002114220AF060FF58480021F0220AF0CE
:10A510005BFFB823564AD35C002B00D19AE000269B
:10A520009146741CE400524AA418B83473004E4992
:10A53000C9188B46A379012B07D0206803F0B0F926
:10A54000A071012801D8072087E0A3886A461380FC
:10A55000A3799370012069465A46FFF75FFAB92341
:10A560004946CB5C002B6CD00024414A9246904671
:10A57000271C65002D19ED0055441135FF352B784A
:10A58000B34257D12B7ADB06DB0E012B0BD0686868
:10A5900003F086F91F2318402B7A1F2293430343AD
:10A5A0002B72012846DD01AB002201925A609A60AD
:10A5B000DA601A615A619A61DA611A6259460A8848
:10A5C0001A806A789A70DA780F218A4301210A4347
:10A5D0000F210A4010210A43DA706A889A802A7A89
:10A5E000D206D20E9A711A7A03218A4302210A43B3
:10A5F0001A72EA68DA606A7A1A82AA7A5A82EA7A5F
:10A600009A8229699961696900290DD00B78002B1C
:10A610000AD008A805220AF0CEFE6969053168460D
:10A62000263002220AF0C7FEFF00104AD11901A805
:10A6300003F060F90134E4B2B9234146CB5CA34294
:10A6400096D80136F6B2B823094AD35CB34200D992
:10A6500067E701E0002000E000200BB03CBC904622
:10A660009946A246AB46F0BD382B00204C2B00206B
:10A670000441002010B584B0012902D902290BD071
:10A680003DE0204B1B7D9B07DB0F101C1E491A1C55
:10A690000AF05EFC002033E06A460023D3700332E8
:10A6A00001A901938B6008230B704A60012201F01D
:10A6B00095F8012801D0154822E06B4603331B783A
:10A6C000104A127D9207D20F9A4216D00D4A0120ED
:10A6D00018404000117D0224A14301431175002B55
:10A6E00003D005214923D15405E000214923054A1F
:10A6F000D15404F033FB02F077FE002000E0034861
:10A7000004B010BD04410020947402006280000077
:10A7100010B586B0041C02292CD104F0B1FA021C39
:10A7200008201B4B9A422CD0201C6946063114226B
:10A7300001F00CF8C4B2E31E0F2B1FD9154820E01E
:10A74000154B18685968114B0F4A09F08DFF4904E1
:10A75000C00B0843C204920E80235B421A437F2140
:10A760000840034301A802704370A11CC9B203F062
:10A7700073FA06E0074804E0064802E0E307FBD569
:10A78000DEE706B010BDC046E88000000000000013
:10A79000FFFF00006280000050540020C046C04609
:10A7A00070B582B0141C002938D1694607310023E6
:10A7B0000B701C4802F09EFC031C0020002B2ED0C6
:10A7C0006B4607331B78002B29D01648694602F0E8
:10A7D00091FC002823D0201C1349009A0AF0B8FBF2
:10A7E0006B46DA79013ADA7107331D1C0D4E0AE027
:10A7F000301C694602F07EFC002804D0201C0B4966
:10A80000009A0AF0A5FB2B785A1E2A70002BEFD174
:10A810000748211C0AF034FC002000E0054802B083
:10A8200070BDC04600290020B8800200C080020030
:10A83000AC7F020062800000F0B583B0161C0029D6
:10A8400025D16946073100230B70134802F052FCF2
:10A85000031C0020002B1DD06B4607331B78002BF8
:10A8600018D0013B6A46D37107320B4F141C381CB9
:10A87000694602F03FFC002803D00098311C0AF022
:10A880009FFB23785D1E2570002BF0D101E003486B
:10A8900000E0002003B0F0BD00290020628000002D
:10A8A00070B582B0141C012902D902290CD057E0DE
:10A8B0002D4B5A7D1207520E2C4BD258201C2C497E
:10A8C0000AF046FB00204CE001A900F097FE0028AA
:10A8D00044D0019A254B1B689A420FD02549012389
:10A8E0000868824204D1DDB26AB2002A08DA35E093
:10A8F0000133DBB20831102BF2D12FE00023002509
:10A900006DB2194A527D1207120F954224D0164A91
:10A910000F210B40517D0F2081430B435375201CA9
:10A92000FFF76EF8142009F077FD134C0126E6615D
:10A93000052009F071FDED000C4B5D196A680F4BA5
:10A94000E250002384225200A3508E225200A350D2
:10A95000A660266002F048FD002002E0084800E002
:10A96000074802B070BDC04604410020308202009A
:10A9700040770200388202000020004024050000D9
:10A980006280000010B584B0141C012902D902298C
:10A990000DD06EE0384B5A7DD206D20F01235A40BB
:10A9A000D2B2201C35490AF0D3FA002062E06A4690
:10A9B0000023D370033201A901938B6008230B702D
:10A9C0004A60012200F00AFF012801D02C4851E022
:10A9D0006A46D17801234B40D370274A527DD20674
:10A9E000D20F9A4243D0244A01210B401901537DD2
:10A9F000102083430B435375201CFFF701F81420EC
:10AA000009F00AFD1F4B0122DA61052009F004FD5F
:10AA10006B4603331B78002B0ED01A4B1A4A9958F9
:10AA200001208143995001225242A221C9005A506B
:10AA3000A121C9005A500DE0124B134A9858012128
:10AA4000014399500A21A222D20099500821A12243
:10AA5000D20099500B4B0022842149005A508E217C
:10AA600049005A5001229A601A6002F0BDFC002091
:10AA700000E0034804B010BD0441002094740200BB
:10AA800062800000002000406C050000011C0020D6
:10AA90001F2919D80D4B1878002810D00C4B1B78A3
:10AAA0008B420ED00B4B0138C0B2181803E01A7855
:10AAB00001338A4207D08342F9D1012004E001200A
:10AAC00002E0002000E000207047C046B082020093
:10AAD000B4820200B582020030B583B0141C022992
:10AAE00041D1264901AA6B460AF056FE012805D03D
:10AAF00002283AD1009D012D39D812E0A223DB00B3
:10AB0000A022D205D358019AD340012018403030FA
:10AB1000211C0AF055FA1A48211C0AF0B1FA00204B
:10AB20002AE0184BA022D205D358019CE340DA0753
:10AB30001FD5201CFFF7AAFF00281CD0002D08D12C
:10AB40000123A3401C1C104BA022D205D45000208E
:10AB500012E00123A3401C1CA123DB00A022D2058C
:10AB6000D450002008E0094806E0084804E00748FF
:10AB700002E0064800E0054803B030BD0C82020048
:10AB8000AC7F0200140500000C050000628000008C
:10AB900030B583B0141C022964D1384901AA6B4630
:10ABA0000AF0FAFD012805D002285DD1009D032D91
:10ABB0005CD823E0324BA022D205D258019BDA4068
:10ABC0000120D1070FD49B00A022D2059B18E022C0
:10ABD000D2009A580320510705D4E022D200985899
:10ABE0000007C00F400000903030211C0AF0E8F947
:10ABF0002448211C0AF044FA00203CE0019C201C5F
:10AC0000FFF744FF002833D0012D08D002DC002DCF
:10AC10000ED02FE0022D13D0032D1AD02AE0C1341C
:10AC2000FF34A4000322A023DB05E250002022E031
:10AC3000C134FF34A4000020A023DB05E0501AE05B
:10AC4000C134FF34A4000C22A023DB05E250002015
:10AC500011E0C134FF34A4000422A023DB05E2503C
:10AC6000002008E0084806E0074804E0064802E043
:10AC7000054800E0002003B030BDC0460C82020051
:10AC800014050000AC7F02006280000010B586B0A1
:10AC9000022925D1174905AA04AB0AF07DFD022837
:10ACA00020D1059C201CFFF7F1FE00281CD0049A3F
:10ACB000642A1BD8684600210E220AF085FB012376
:10ACC0006A4613705470137102235371937268466D
:10ACD00001F0DEFE0020049901F0CAFF002006E02A
:10ACE000054804E0044802E0034800E0024806B0DA
:10ACF00010BDC0460C8202006280000074DF704705
:10AD000076DF70477CDF704730B583B0031C141CBE
:10AD1000012902D9022909D02CE01948111C0AF096
:10AD2000AFF91848211C0AF0ABF925E0144D281C96
:10AD3000191C1F220AF024FE02F056FB01AC2378F6
:10AD40000F229343012213430F2213401022134377
:10AD50002370281C0AF0D2FD82B2201C291CFFF7A8
:10AD6000D1FF03F08DFF084B984205D1002004F07D
:10AD7000ABF801E0054800E0002003B030BDC0465C
:10AD800050410020AC7F0200FFFF00006280000005
:10AD900010B5141C012910D803F072FF084A83185B
:10ADA000584243413120C01A211C0AF009F90548D4
:10ADB000211C0AF065F9002000E0034810BDC046E0
:10ADC0000100FFFFAC7F02006280000008B500298F
:10ADD0000DD103F055FF021C0020064B9A4207D00C
:10ADE00003F04EFF1321FFF78BFF80B200E0024813
:10ADF00008BDC046FFFF00006280000008B50029C2
:10AE000002D103F0ABFF00E0004808BD6280000003
:10AE1000F0B59BB0061C0C1C151C15A84749142244
:10AE20000AF0C9FA012C1FD801260024444F02E081
:10AE300001340136F6B2E3B2002B67D0381C291C6E
:10AE40000AF01EF9FF2222401C3252003D4BD25A1A
:10AE5000281C3D490AF07CF8042EE9D93B48291CFE
:10AE60000AF00EF9002067E003AA002312A9354872
:10AE700004251C18248F5C5215705C185460023332
:10AE80000C320A2BF5D1301C03A9052200F0A6FCD8
:10AE90000138C0B2042840D92D484DE015AB12A8A6
:10AEA0001AAD02885C88198891422DD8A2423ED9F9
:10AEB000274841E012AB1888224B1B8F834205D1F3
:10AEC000204B5A8F12AB5B889A4214D001AC8000A1
:10AED000052109F0F9FA208012AB5888800005217D
:10AEE00009F0F2FA60800023A38096235B00E380E0
:10AEF000201C07F03DFC174812A90A220AF05BFA51
:10AF000002F072FA002017E0114815E00D4B1A8F7D
:10AF1000281C0D490AF01CF88AE712A80D490A22DC
:10AF20000AF03AFA031C0020002BB7D104E00433E6
:10AF30000230AB42B5D1BDE71BB0F0BDC880020006
:10AF4000847802000441002034770200AC7F0200C4
:10AF5000628000003C41002008B5002901D0022990
:10AF600003D1002003F0B0FF00E0014808BDC04657
:10AF70006280000008B5002903D1FFF7BFFE80B250
:10AF800000E0014808BDC0466280000010B582B0F4
:10AF9000141C012902D902290DD024E04823134AA8
:10AFA000D05C3030211C0AF00BF81148211C0AF04B
:10AFB00067F8002018E00F4901AA0AF0EDFB01280C
:10AFC00002D1019B012B01D90B480DE04822074912
:10AFD0008A5C934205D05A1E934148228B5402F05A
:10AFE00003FA002000E0044802B010BD0441002034
:10AFF000AC7F0200347702006280000030B591B06F
:10B00000022940D100230F9301A901938B60CB60EB
:10B010004B6101230B701F234B7007AB4B60022366
:10B020000B730FAB0B61022200F0D8FB041C01383C
:10B03000C0B2012829D801AB5A78164D8B23EA54A7
:10B04000281C6C3007A90AF0B6F902224923EA54F9
:10B05000022C05D10F9B012B19D84A220D498B5484
:10B0600002F0C2F903F00CFE0B4B984206D003F03D
:10B0700007FE1321FFF744FE002009E0002003F043
:10B0800023FF002004E0054802E0044800E00348F4
:10B0900011B030BD04410020FFFF000062800000BD
:10B0A00010B584B001290ED846231E49CB5CDB07BE
:10B0B000DB0FDBB20121CB1A101C1B491A1C09F053
:10B0C00047FF00202BE06A460023D3730F32009322
:10B0D0000293082369460B700192012200F07EFB67
:10B0E00001281BD16A46D17B01234B40D3734622F2
:10B0F0000C498A5CD207D20FD2B200209A420ED0FD
:10B10000462201200340885C0124A04303438B5462
:10B1100002F06AF904F05CF8002000E0034804B093
:10B1200010BDC046044100209474020062800000FB
:10B1300000B58DB0022931D101A9002301938B60A4
:10B14000CB604B618B610B6205230B706B462F3319
:10B150004B600A230B736B462E330B610AABCB613A
:10B16000032200F03BFB03281AD16B462E331978DB
:10B17000002917D001331B78C822D20098180C4A36
:10B18000821880204000C31A9BB20A9800F0B6FCD7
:10B19000002809D002F028F9002006E0054804E064
:10B1A000044802E0034800E002480DB000BDC0467C
:10B1B000044100206280000010B58AB0141C0229EE
:10B1C00033D10023009302930393059306930893CE
:10B1D00005236A461370273201926A4613736B4641
:10B1E000263304930A2313766B4625330793694667
:10B1F000032200F0F3FA032819D16B46253319789E
:10B20000002916D002331A78C823DB00D2180A4B63
:10B21000D2186B4626331B78201C00F00BFC074825
:10B22000211C09F02DFF002004E0054802E004483D
:10B2300000E003480AB010BD04410020AC7F0200CA
:10B240006280000070B588B0141C02291ED101A9CB
:10B25000002301938B60CB604B6105230B706E461E
:10B260001F364E600B736D461E350D61022200F0D5
:10B27000B5FA3078C823DB00C018064BC0182A780E
:10B280000121231C0AF002F8002000E0024808B067
:10B2900070BDC046044100206280000039DF704765
:10B2A0003ADF704752DF704710B582B0141C012995
:10B2B00018D801A8FFF7F6FF002811D1019BD91774
:10B2C000890FCB189A10032003405B1A9900CB1802
:10B2D00099005B18201C054909F03AFE002002E0A5
:10B2E00080B200E0024802B010BDC04600810200FA
:10B2F0006280000010B582B0141C02292AD10123FB
:10B300005B420193174901AA0AF046FA002823D0AC
:10B31000019B1F2B22D8C133FF339B008021890260
:10B32000A022D20599501048211C09F0A9FE322014
:10B3300009F072F80020002100F000FF0120002138
:10B3400000F0FCFE0121A023DB008022D205D150B9
:10B35000002004E0054802E0044800E0034802B091
:10B3600010BDC04634770200F4760200628000000F
:10B37000F0B5474680B486B0171C002902D00229D8
:10B3800004D04FE004226B46DA750BE069461731B2
:10B3900000F06EF9002847D06B4617331B78013B4D
:10B3A0000F2B43D800256C460334002398466E4685
:10B3B000173643462370201CFFF770FF2378002BBD
:10B3C0000FD03178491B0A1CC9B2994200D91A1C06
:10B3D000D1B2227001AB5819FFF762FF2378ED1844
:10B3E000EDB23378AB42E4D81348391C09F048FE7B
:10B3F0006B4617331B78002B0ED000240F4E6D4682
:10B40000173501AB1A5D381C311C09F0A1FD013460
:10B41000E4B22B78A342F4D80948391C09F030FE75
:10B42000002004E0074802E0064800E0054806B0B6
:10B4300004BC9046F0BDC0460C81020010810200A1
:10B44000AC7F02006280000010B582B0002902D0FB
:10B45000022909D034E01C4B9B7A101C1B491A1C92
:10B4600009F076FD00202CE06946073100F000F974
:10B47000002804D06B4607331B78012B01D91448F0
:10B480001FE0114A927A9A4218D0002B03D1012072
:10B49000002100F053FE6C46E2790B4B9A7201F0EA
:10B4A000A3FFE379012B09D103F0EAFB094BC11893
:10B4B0004B1E9941C9B2012000F040FE002000E07F
:10B4C000034802B010BDC04604410020947402003D
:10B4D000628000000100FFFFF0B5474680B492B0E3
:10B4E00094460CAA354B141C1D1CC4CDC4C4C4CD39
:10B4F000C4C409AC1833C4CBC4C4002902D0022987
:10B500000CD056E02E4B597A89000CABCB586046D4
:10B510002C491A1C09F01CFD00204BE0012301936B
:10B520000023029303A907230B7006224A7001AA85
:10B530004A600CAA8A600B7303234B7302AB0B6146
:10B5400009AB4B61022200F049F900282FD00128F5
:10B5500003D9019B052B2AD102E0019B052B26DC98
:10B56000174A527ADBB29A4208D00020002100F03C
:10B57000E5FD134B019E5E7201F036FF019F052F22
:10B5800013D1029B022B0AD1002000F0F3FE01230D
:10B59000011C5940C9B2002000F0D0FD05E05A1E40
:10B5A0009341D9B2002000F0C9FD002002E0064816
:10B5B00000E0054812B004BC9046F0BDDC800200FB
:10B5C00004410020188102006280000010B582B0A2
:10B5D0000C1C0023019301A900220AF089FA019BA7
:10B5E000002B06D01A780023002A03D12060012303
:10B5F00000E00023181C02B010BDC04610B582B098
:10B600000C1C0023019301A900220AF0FBFA019B04
:10B61000002B06D01A780023002A03D120600123D2
:10B6200000E00023181C02B010BDC046F0B583B086
:10B63000061C0F1C151C01A9FFF7C8FF00240028D9
:10B6400011D00A4B019A9A4203D1301C01A9FFF78D
:10B65000D5FF2C1C042D00D90424A4B2381C01A948
:10B66000221C09F0A8FE201C03B0F0BDFFFFFF7FE5
:10B6700010B582B00C1C01A9FFF7A8FF002805D067
:10B68000019BFF2B01D8237000E0002002B010BD09
:10B6900010B582B00C1C01A9FFF798FF002807D055
:10B6A000019B1A1C8032FF2A01D8237000E0002081
:10B6B00002B010BD10B582B00C1C01A9FFF786FFC7
:10B6C000002806D0019B044A934201D8238000E061
:10B6D000002002B010BDC046FFFF000010B5037887
:10B6E000002B23D0184A1268D3185B7844211942E2
:10B6F0001FD04378D3185B7819421CD00021442412
:10B7000008E0D3185B781C4217D04378D3185B78D5
:10B710001C4214D00131C9B28378002B07D02D2BE5
:10B720000FD103300378002BEBD100E00021081C7F
:10B7300008E0002006E0002004E0002002E00020F5
:10B7400000E0002010BDC046C0290020F0B583B045
:10B75000041C0F1C151C0378202B03D10134237803
:10B76000202BFBD0201CFFF7B9FF86B2002F27D07B
:10B770000004030C0020002B2DD0AB4222D92AE07C
:10B780001C1B022C16DC7D1C38701A782D2A11D156
:10B7900004E0287001351A782D2A0BD15C1C201C7E
:10B7A00001A910220AF0A4F9019BA34202D91C1B93
:10B7B000022CEEDD187843425841404230400AE006
:10B7C000301C08E0201C01A910220AF091F9019B0D
:10B7D000A342D5D8EEE703B0F0BDC046F0B55F4652
:10B7E00056464D464446F0B48BB0041C9246002A9F
:10B7F00000D1EDE0002800D1ECE00E1C0025201C5B
:10B800002C210AF05DF8002804D0471C0097002383
:10B81000037000E000902378002B00D1CEE0B14609
:10B82000307884460A2800D9C6E081006F4F7958E5
:10B830008F46202B6BD06EE0202B03D10134237870
:10B84000202BFBD0484643681C60B7E07278201C70
:10B850007168FFF77BFFC0B27070002800D0ADE0C8
:10B86000AAE0201C06A9FFF7B1FE002800D1A3E042
:10B870005F4B069F9F4203D1201C06A9FFF7BEFE27
:10B880004946486806A9042209F095FD96E0201C67
:10B8900006A9FFF7B3FE002800D18DE0706806A965
:10B8A000042209F088FD89E07168201CFFF702FF7F
:10B8B000002800D082E07FE07168201CFFF7D8FEEE
:10B8C00000287BD178E07168201CFFF7E1FE00289A
:10B8D00074D171E0201C7168FFF778FE00286DD1EB
:10B8E0002378202B03D101342378202BFBD04B4627
:10B8F0005A78201C996801F0B3FF069000285BDBA2
:10B900004F46786806A9042209F055FD56E0013437
:10B910002378202BFBD004AB364806C806C38046EC
:10B9200006AB181C47460ECF0EC03F680760604646
:10B93000082804D102218B4604AA904603E0042380
:10B940009B4606AFB846201C69460F31FFF7A0FEA4
:10B95000002806D1201C41465A4601F081FF6B4663
:10B96000D8736B460F331B785BB25B4524D84946CE
:10B97000486869460F31012209F01DFD1EE01E4A8C
:10B980001268D3185B785F0716D4201C01F052FFB1
:10B99000B0688346201C09F0B1FF021C5846211CE8
:10B9A00001F0AEFE0690154B984205D07068727893
:10B9B00006A909F000FD01E0002010E00135EDB21C
:10B9C000554509D00C36009F002F07D03C1C16E7C8
:10B9D000002004E0002002E0281C00E0281C0BB03E
:10B9E0003CBC90469946A246AB46F0BD5881020049
:10B9F000FFFFFF7F84810200C0290020DFFDEF7E72
:10BA0000F8B5051C0E1C171C0A78084909F0A0FAA5
:10BA1000012F0AD9741CF719054E2278281C311CF5
:10BA200009F096FA0134BC42F7D1F8BD108102004A
:10BA30009C810200F0B583B0061C022918D00329AE
:10BA400002D0012919D10CE00021019101A8111C9B
:10BA50001A1C09F0B0FC301C2649019A09F078FA4A
:10BA600045E0101C01211A1C331C09F00FFC3EE0BC
:10BA7000111C1A1CFFF7C4FF39E0022B1CD91178E6
:10BA8000002919D0002B2CD01B4800684118497898
:10BA90006824A14310D0541CD71868218C4605E0B7
:10BAA0000134451969786546A94305D0BC4218D0D0
:10BAB0002578002DF4D114E0042B05D9301C111C7D
:10BAC0001A1CFFF79DFF12E00021019101A8111C33
:10BAD0001A1C09F070FC301C0649019A09F038FA6A
:10BAE00005E0101C01211A1C331C09F0CFFB03B028
:10BAF000F0BDC04648770200C0290020F8B5061CFA
:10BB0000171C1D1C02291ED0032902D0012920D197
:10BB100005E0111C1A1CFFF789FD041C3AE009F02E
:10BB2000EDFE041C80B2A84200D92C1CA4B2002C4B
:10BB300003D100233B7001242CE0381C311C221C53
:10BB400009F039FC26E0111C1A1CFFF7FFFD041C4C
:10BB500020E0111C1A1CFFF769FD041E1AD1301CCD
:10BB6000391C2A1CFFF7F2FD041E13D1301C09F00A
:10BB7000C5FE041C80B2A84200D92C1CA4B2002C23
:10BB800003D100233B70012404E0381C311C221C2B
:10BB900009F011FC201CF8BD71DF704776DF70479B
:10BBA00077DF704700B583B0012902D902290AD096
:10BBB0003BE01F4BDB7A5BB2101C1E491A1C09F0DC
:10BBC000C7F9002032E001235B4201931A4901AA20
:10BBD00009F0E2FD002814D001982023021C9A43AA
:10BBE000131C28330FD01023021C9A43131C143348
:10BBF00009D00423021C9A43131C103203D0002BDB
:10BC000001D00E4812E040B2FFF7CAFF084B019A7C
:10BC1000DA7201F0E9FB03F033F8094B984202D1E4
:10BC2000002003F051F9002000E0044803B000BDFB
:10BC30000441002094740200347702006280000006
:10BC4000FFFF000030B587B0151C012913D804ACE4
:10BC5000201CFFF7A1FFA279637921790091E17897
:10BC60000191A178029161780391281C034909F0A0
:10BC70006FF9002000E0024807B030BDC881020023
:10BC80006280000010B5141C01290FD8A023802267
:10BC90005205D35801221A40201C054909F058F9D1
:10BCA0000448211C09F0ECF9002000E0024810BD16
:10BCB000E8810200AC7F02006280000030B587B0EE
:10BCC000141C012913D804AD281C03F04FF8AA79DD
:10BCD0006B7929790091E9780191A97802916978C5
:10BCE0000391201C034909F033F9002000E00248C9
:10BCF00007B030BDC88102006280000070B58AB014
:10BD0000041C022900D09CE004A80021152209F09F
:10BD10005BFB201C2C2109F0D3FD002803D0451C1F
:10BD20000023037000E0051C201C69460E31FFF75C
:10BD3000C1FC002800D186E06B46D9898223474A9E
:10BD4000D152281C2C2109F0BBFD002803D0441C33
:10BD50000023037000E0041C281C04A91022FFF734
:10BD6000F5FC102871D1201C2C2109F0A9FD061E1C
:10BD700002D0002303700136201C08A9FFF79AFCAB
:10BD8000002864D004AB1A8A52BA04AB1A82301C61
:10BD90002C2109F095FD051E02D00023037001350A
:10BDA000301C69462231FFF785FC002851D004ABD6
:10BDB0005A8A52BA04AB5A82281C2C2109F080FD01
:10BDC000041E02D0002303700134281C244902AA57
:10BDD00009F0E2FC00283ED004AB02981875002C54
:10BDE0000FD000230193201C01A9FFF7EFFB0028CF
:10BDF00002D0019B012B01D91A482DE04A22174994
:10BE00008B54164904AA0B1C6C3331CA31C330CA97
:10BE100030C312781A7001224923CA5401F0E4FA9F
:10BE200002F02EFF104B984206D002F029FF13219A
:10BE3000FFF7B4FE00200FE0002003F045F80020DB
:10BE40000AE0084808E0074806E0064804E005481C
:10BE500002E0044800E003480AB070BD044100203D
:10BE60004877020062800000FFFF000010B5141C3C
:10BE7000012913D802F004FF0022094B984202D096
:10BE800002F004FF021C52B2201C064909F060F8BF
:10BE90000548211C09F0F4F8002000E0034810BD1B
:10BEA000FFFF000034770200AC7F020062800000D8
:10BEB000F0B55F4656464546E0B484B0061C0D1CFE
:10BEC00090461C1C0CAB1B789B462D4B1B68984264
:10BED00003D1131C6343102B4BDC02AA29490B68C6
:10BEE00002938B88938041464B003033937010202F
:10BEF00008F038FBA246002C35DD0024FF231F1C70
:10BF0000074000230193201C391C08F081FB002905
:10BF100017D1002C03D01C48311C09F0B1F85B4646
:10BF2000002B09D02001391C08F01CFB021C301C1E
:10BF3000164909F00DF804E0301C15492A1C09F0D7
:10BF400007F801A8291C424609F035FA454420208B
:10BF5000311C09F035F8301C02A9019A08F0F8FFED
:10BF600001345445CDDB0848311C09F089F8002024
:10BF700000E0084804B01CBC90469A46A346F0BDB9
:10BF80004850002000820200AC7F0200EC810200D9
:10BF9000F481020063800000F0B587B0141C022910
:10BFA00034D1002305930493039303AB00931E49FC
:10BFB00005AA04AB09F0F0FB032829D1059D002D4B
:10BFC00028D0049A002A27DD039E002E26DD531E6A
:10BFD000012B01D9042A23D1D7B2391C042F00D94F
:10BFE0000421C9B2281C08F0B3FA002905D00F4873
:10BFF000211C09F045F80E4813E0B3B2002200926C
:10C00000201C291C3A1CFFF753FF0AE0084808E0EF
:10C01000074806E0064804E0054802E0044800E05E
:10C02000034807B0F0BDC046088202001482020037
:10C030006280000000B583B0022908D0012300937C
:10C04000101C04490122044BFFF732FF00E00348B3
:10C0500003B000BD044100204407000062800000DE
:10C0600038B501291DD8114B1968114B994209D1D6
:10C0700004230F4C80252D010C4819180968A14292
:10C080000BD000E0002380210901CB1A101C0949C4
:10C090001A1C08F05DFF002006E00433AB42EBD130
:10C0A00001E0054800E0032038BDC04600780020CC
:10C0B0000DF0FECA288202006280000000B583B045
:10C0C000002909D100230093101C05490422802374
:10C0D0009B00FFF7EDFE00E0024803B000BDC04644
:10C0E000007800206280000048DF70477047C0463B
:10C0F000830702D50122044B1A708B0702D5002258
:10C10000014B1A707047C0463E2C0020014B188826
:10C110007047C0463C2C0020014B18887047C04631
:10C12000B8310020014B18787047C0463E2C0020E3
:10C13000014B18707047C0463E2C0020012805D1E5
:10C140000E4B9B7A1320002B04D115E04342434150
:10C150001320C01A002908D001238340181CA123F2
:10C16000DB00A022D205D05006E001238340181C3A
:10C17000034BA022D205D0507047C0460441002096
:10C180000C05000030B58DB0A823DB00644AD158FF
:10C190000023644A914204D8A823DB00604AD358A4
:10C1A0009BB2614A1380A823DB00604AD158002368
:10C1B0005C4A914204D8A823DB005C4AD3589BB266
:10C1C0005B4A138000230093202008210622594B4C
:10C1D00004F0E8F9002803D00021002203F00AF857
:10C1E0000220554903F06AFD002803D000210022F7
:10C1F00003F000F8092051494822002304F04CFEC6
:10C20000002803D00021002202F0F4FF4C4804F083
:10C2100073FE06F015FD01F003FA09A80B23037065
:10C2200009234370082383700A23C370454B5B7D49
:10C23000DA06D20F01214A400271002242711B0727
:10C240005B0E4149CB185B6883606B46DA810E3325
:10C250003E4A04928022520005923D49069107927F
:10C26000009304A93B4A012304F03CFC3A4B1B68B1
:10C270009868002109F0DEF9A023DB050C21E822F3
:10C28000D2009950A222D2009B58DA030BD4334833
:10C2900008F0C2F8A223DB00A022D205D358DA03AB
:10C2A00001D401F051F9274BDB7D002B05D0032190
:10C2B0002B4BA022D205D15004E00C21284BA02208
:10C2C000D205D15000F058FEA024E4050C22254BE5
:10C2D000E2506D462335281C02210222224B03F036
:10C2E0002BFD287803F054FDA223DB00E2589207CF
:10C2F000D20F1E4B1A700323E922D200A3501C4A0E
:10C30000A35001200021FFF719FF01246442201CE3
:10C3100000F0C0FA201C00F0F1FA0DB030BDC046AC
:10C3200000900040FEFF00003C2C002000A00040D8
:10C33000B8310020682E0020402E0020BC310020A3
:10C34000AD2A02000441002030820200402C00206F
:10C35000402D0020EDC00100242A0020DC05000053
:10C360001C07000004070000F1C001003E2C002063
:10C370004C070000431E98411230044BA022D20506
:10C38000D358C340181C012318407047040500000F
:10C39000014B587A7047C0460441002008B5FFF7AA
:10C3A000A3FE08BD00000000F0B557464E464546C6
:10C3B000E0B48046264B18685968244B224A08F09E
:10C3C00053F94B04C60B1E43CF0B214B9946F42364
:10C3D000FF339A46404604F0D1FC002814D04B4667
:10C3E00018685968194B184A08F03EF94B04C40BF9
:10C3F0001C43CD0B221C2B1C921BBB41002B17D1C5
:10C40000E8D15245E6D913E0114B186859680F4B33
:10C410000D4A08F029F94C04C20B2243CB0B921BA6
:10C42000BB41002B04D108D1F423FF339A4204D935
:10C4300004F0B0FC0120404200E040461CBC9046A5
:10C440009946A246F0BDC046E8800000000000000A
:10C4500050540020C046C04600B583B0684607303F
:10C4600004F078FC002802D16B46D87901E0012065
:10C47000404203B000BDC04600B583B069460731F5
:10C4800004F098FC002802D16B46D87901E0012025
:10C49000404203B000BDC04670B5FFF779FF0128E8
:10C4A00052D1434CA568434B186859683F4B3E4AEC
:10C4B00008F0DAF84E04C20B3243CB0B20686168F7
:10C4C000121A8B41002B01D195423DD83A4B1A7874
:10C4D00001321A700020FFF74DFF0123011C594063
:10C4E000C9B20020FFF72AFEFFF71CFE002806D184
:10C4F000314B1B78032B02D900222F4B1A70FFF708
:10C5000011FE012807D12C4B1B78052B03D90022E3
:10C51000294B1A7003E0284B1B78002B14D1002004
:10C520000021FFF70BFE224CFA23DB00A360214B16
:10C53000186859681D4B1C4A08F096F84B04C00B4C
:10C5400018432060C90B61601C4BDB7D002B29D197
:10C550001B4B1B681B4A934214D90120FFF70AFFAB
:10C560000123011C5940C9B20120FFF7E7FDA223B6
:10C57000DB00A022D205D358190613D50122124B95
:10C580001A700FE0A222D200A021C9058A58110614
:10C5900003D4FA330A4A136004E00023084A136004
:10C5A000094A137070BDC046E8800000000000001A
:10C5B000103200205054002004320020044100209A
:10C5C000083200208813000005320020C046C04613
:10C5D00070B5FFF7A7FD002808D0012852D1814B84
:10C5E0001B6858689968FDF749F94BE07E4B5B7D05
:10C5F000DB0906D17B4B1B685868FDF769F80028FA
:10C6000040D1784B186842685368013B5360002B57
:10C6100004DA416808F0CCFF041C04E042681368A7
:10C62000591C11601C78611C2CD002F029FB6F4B47
:10C63000984227D06E4B1A689368013B9360002B99
:10C6400019DA91698B4210DB13681C70684B1A6809
:10C65000136819780A2902D00133136012E0614B84
:10C6600018680A210AF03AFA0CE05E4B1868211C9F
:10C670000AF034FA06E013681C705D4B1B681A68F8
:10C6800001321A6002F054F900280ED0012800D0BF
:10C69000A5E002F0F5FA554B984200D19FE0544BCB
:10C6A0001968081CFDF7EAF899E0FFF73BFD002840
:10C6B00047D14D4B5B7D5A0606D54D4B1868FDF7AB
:10C6C00007F8002800D08AE0494B19684B68013B05
:10C6D0004B60002B05DA434B186808F069FF011C1A
:10C6E00003E00B685A1C0A6019784B1C77D03D4B4D
:10C6F000186882689368013B9360002B17DA8268A0
:10C70000946893699C420FDB13681970354B186865
:10C710008268136819780A2902D0013313605EE039
:10C720000A210AF0DBF95AE00AF0D8F957E08368E9
:10C730001B6819702B4B1B689B681A6801321A60C2
:10C740004DE0294B5B7D5C0649D502F001F8C4B28F
:10C75000032C44D9FF250540254B1868691E89B272
:10C76000FBF752FD0D2801D00A2838D1023DADB2A9
:10C770001F4B1868291CFBF747FD2B282AD0042CD7
:10C780002DD90D2828D003240A2826D027E02B1BDA
:10C7900099B23068FBF738FD2B2804D1013CE4B294
:10C7A000002CF4D101E0002C19D102F0C7F802F0FE
:10C7B00067FA0E4B984212D00D4C256802F0B8F87B
:10C7C000021C281C0B4908F0C3FB21680A4808F02A
:10C7D00057FC04E0022400E00324054ED7E70020C4
:10C7E00070BDC046242A002004410020FFFF000045
:10C7F0004850002094740200F476020010B582B014
:10C80000FFF7C0FC02F018FCFCF79EFE01A8012116
:10C81000104A03F05BFF0198F821002203F08EFF1D
:10C8200000220D4B1A700D4800F0E8FB00F0FCFBF5
:10C83000094C00F0FFFB02F0CDFAFFF7C9FE2378A8
:10C84000002B04D0002000210022FCF731F9FFF773
:10C85000A5FDEEE799C40100053200201027000075
:10C86000094B9B691840094B1A6802431A6000285B
:10C8700008D0054BDB7D002B04D08021044BA02287
:10C88000D205D1507047C04604410020203200201C
:10C890000C050000094A1368834313600DD1084B4F
:10C8A0001B68002B09D1074BDB7D002B05D08021B5
:10C8B000A123DB00A022D205D150704720320020F6
:10C8C0002432002004410020094BDB691840094B49
:10C8D0001A6802431A60002808D0054BDB7D002B44
:10C8E00004D08021044BA022D205D1507047C0460D
:10C8F00004410020243200200C0500000A4B1A6875
:10C9000082431A60094B1B68002B0BD1002A09D106
:10C91000074BDB7D002B05D08021A123DB00A0226B
:10C92000D205D1507047C04624320020203200206A
:10C930000441002010B588B0012902D902290AD08B
:10C9400020E0194B9C69DB69101C1849221C08F077
:10C95000FFFA002026E000230093019302A902932E
:10C960008B60CB604B6103230B7000AA4A600B7392
:10C9700001AB0B610222FEF731FF0138C0B2012882
:10C9800004D901E00A480DE009480BE0064B009A83
:10C9900099690A439A61019AD9690A43DA6100F0F8
:10C9A00023FD002008B010BD04410020C082020019
:10C9B0006280000000B589B0022917D100230793D7
:10C9C00006930093029303930593032369460B7028
:10C9D00007AA01920B7306AB04930222FEF7FEFE38
:10C9E0000138C0B2012803D908480DE007480BE020
:10C9F000074B9A6907998A439A61DA6906998A43CB
:10CA0000DA6100F0F1FC002009B000BD6280000096
:10CA10000441002038B5012916D80C4C0C4D101CCF
:10CA20000C4922682B6808F093FA00232B602360DE
:10CA3000094BDB7D0020002B07D08021A123DB00E8
:10CA4000A022D205D15000E0044838BD2032002099
:10CA500024320020D48202000441002062800000C1
:10CA60002EDF704733DF704721DF704723DF7047C9
:10CA700010B5041E0F2C08D8C0B2FFF7F7FF012035
:10CA8000A040FFF7F1FF201C01E00120404210BD53
:10CA9000F8B55F4656464D464446F0B40378013B30
:10CAA000022B00D9A0E0437B042B00D99FE09B0020
:10CAB000634AD3589F460921A223DB00614AD15023
:10CAC0006422614B1A6023E00821A223DB005D4A47
:10CAD000D150FF225C4B1A601AE00521A223DB0033
:10CAE000584AD150FA229200574B1A6010E00221A6
:10CAF000A223DB00534AD1506422534B1A6007E053
:10CB00000021A223DB004F4AD150FF224E4B1A6076
:10CB100006784E4B1E60002E6CD0021C00234C4940
:10CB20008A46A021C90589460324A046494DAC4642
:10CB30009B465478990055464C51C134FF34A400AB
:10CB400045464F46E5515C466746CC51917A424D89
:10CB50005955013301329E42EBD83A4B0122DA603B
:10CB60000022A121C9005A5037490C6864003B4992
:10CB70005C503B495A500824802189005C50A62112
:10CB800049005A50A42149005A50A22149005A5044
:10CB9000A02149005A50051C002300242E4FB946FD
:10CBA000304988464A46A75CBF002F497F1828793C
:10CBB0009B002E4A99183A1CFFF75AFF68794146A4
:10CBC0003A1CFFF755FF0134231C0235A642E9D871
:10CBD0000A200321FFF746FF0A20FFF741FF012249
:10CBE000184B1A60002024E00120404221E001207F
:10CBF00040421EE0134B0122DA600022A121C9004D
:10CC00005A501149086840001449585014495A5064
:10CC10000820802189005850A62149005A50A4219B
:10CC200049005A50A22149005A50A02149005A50A7
:10CC3000CEE73CBC90469946A246AB46F8BDC046FE
:10CC4000E482020000A00040583200203032002070
:10CC5000403200204C3200202C3200204C050000D5
:10CC6000040500004CA100400060004040A10040CD
:10CC700080000E4BC1500E4B0021A622520099504D
:10CC80000C49802292009950C12292009B581A03AD
:10CC900007D4074B01225A6080210903C122920068
:10CCA00099500122024B1A607047C046343200206E
:10CCB00000A0004008080000F0B5454A0023A62166
:10CCC0004900535001204042C22189005050414A3E
:10CCD0001360414B1B68002B72D000233F4D404E28
:10CCE000141C9A005259002A15D13E4AD75C453788
:10CCF000FF37BF003C493D4AB9509B003C4A9A5817
:10CD00000127391C91403B4AA027FF05B950002755
:10CD1000394A9F504CE03068824216D33149CF5C8B
:10CD20004537FF37BF003049304AB9509B00304A81
:10CD30009A580127391C9140A122D200A027FF0553
:10CD4000B95000272C4A9F5032E05100A8204000E3
:10CD50001A1892001E4FD1519A0027495258002AA2
:10CD600026D1204AD75C9B0021481A580123181C61
:10CD70009040A123DB00A021C905C850BB001B497E
:10CD80005B181E49A227FF00D951C046C046C046C5
:10CD900001271F6012021A4F3A43A227FF00DA51FF
:10CDA000C046C046C04622689300012212481A506D
:10CDB000084A136801331360074A12689A4290D8F0
:10CDC000034B082180229200995001221A60F0BD85
:10CDD00000A00040283200203032002034320020F1
:10CDE000583200202C320020001F03000060004059
:10CDF000403200200C0500004C320020031F0100CF
:10CE00000300130022DF704723DF7047F0B54F4661
:10CE10004646C0B4404AA023DB00D05884460021D7
:10CE2000D150A023DB05E622D200995889463B4920
:10CE300099503B4A985880469950A122D2008021AF
:10CE40008901995080214901995004200138C04638
:10CE5000C046C046C046C046C046C046C046C046A2
:10CE6000C046C046C046F1D1A223DB00A022D205B5
:10CE7000D358990407D5A223DB00A022D205D358AA
:10CE80000120DA0435D41222A023DB05254F8021AE
:10CE90004901A126F600A225ED008024A401D95164
:10CEA00004200138C046C046C046C046C046C04601
:10CEB000C046C046C046C046C046C046F1D19951A2
:10CEC00004200138C046C046C046C046C046C046E1
:10CED000C046C046C046C046C046C046F1D15859BB
:10CEE000204203D1013A002AD9D101E0012000E01B
:10CEF0000020A023DB05E622D20049469950084ACB
:10CF000041469950A023DB00034A6146D1500CBC36
:10CF100090469946F0BDC046003000400D06000026
:10CF2000340700000C05000010B5114BB122D200EF
:10CF3000985001229A6000208221490058505A617D
:10CF4000191C822252008B58002BFCD0084B002267
:10CF5000822149005A500749585802245C509221B6
:10CF600049005A50400801235840184010BDC0469F
:10CF700000300040C404000008B5A023DB05184AB7
:10CF8000E621C9005A5017495A50174B00228421F4
:10CF900049005A508E2149005A500C21A122D2003A
:10CFA00099500D21114A9950CC214904104A9950A9
:10CFB00000201049104AFFF727FF002300280DD159
:10CFC0000120FFF71FFF0023002807D10521A02320
:10CFD000DB00054AD150FFF719FF031C181C08BDE0
:10CFE0000C06000034070000003000400C05000073
:10CFF00024050000383100401C30004010B5074CBB
:10D000000123A122D200A350054AA350C003FA2154
:10D01000890007F059FA034BE05010BD00000140B1
:10D020000C050000040500000122014B1A60704746
:10D03000000001400249C023DB00024AD150704782
:10D040003546526E0000014030B507291CD8012436
:10D05000231C8B4019020823184308430B4B0C4D2B
:10D060005851A021C9005C50002A0DD0C122920065
:10D0700001219950074B98580002000A8021C905E8
:10D080000143995080221A6030BDC04600700040B4
:10D090000405000000E100E0054B1A21054A995003
:10D0A000802205498A500121A022D2009950704760
:10D0B000007000400405000000E100E00122084B80
:10D0C0001A60191C802252008B58002BFCD0044B94
:10D0D0000021802252009950A122D2009858704716
:10D0E0000070004008B5FFF7E9FFE1231B0158433A
:10D0F000800A08BD38B5041C0D1C0368002B28D01D
:10D1000083880020002B27D0E388002B24D023899C
:10D110009BB2002B20D02369002B00D09847A18917
:10D12000E288514323685918281C08F044F9A08963
:10D130000130A18807F06CFA89B2A1812389013BF3
:10D140009BB223812369002B05D001209847012041
:10D1500002E0002000E0012038BDC046F8B5061C02
:10D160000C1C171C00200025002A06D10EE00135FA
:10D17000ADB2F388E418BD4207D0301C211CFFF784
:10D18000B9FF0028F3D1281C00E0281CF8BDC046D8
:10D19000F0B5474680B4031C171C0468002C1FD050
:10D1A00085880020002D1CD0DA889046002A18D0EF
:10D1B0001E89B6B2002E14D01A8992B28A4210D9B2
:10D1C00098894018291C07F023FA0904090C4346E2
:10D1D00059436118381C424608F0EDF8012000E080
:10D1E000002004BC9046F0BD38B5041C0D1C03683B
:10D1F000002B35D083880020002B34D0E288002A11
:10D2000031D0228992B2934202D1A07B00282AD049
:10D210002369002B01D0002098476089E2885043A1
:10D2200023681818291C08F0C6F86089A588013001
:10D23000291C07F0EDF989B2618123899BB29D42D7
:10D2400003D163899BB2A38103E0238901339BB29D
:10D2500023812369002B05D001209847012002E09B
:10D26000002000E0012038BDF8B5061C0C1C171C7E
:10D2700000200025002A06D10EE00135ADB2F3886A
:10D28000E418BD4207D0301C211CFFF7ADFF002879
:10D29000F3D1281C00E0281CF8BDC04610B5041CC2
:10D2A0000369002B01D0002098470023238163816C
:10D2B000A3812369002B01D00120984710BDC046EF
:10D2C0002BDF70472CDF70472DDF7047074B9B68C3
:10D2D00002689A4209D14268044BDB689A4204D141
:10D2E000022902D10022024B1A707047A439002093
:10D2F0005C32002010B582B02C4B1B78002B52D032
:10D300002B4B1B78002B4ED1019301A805F098FE02
:10D310001E23019A9B1A032B45D92648FFF7D2FFFB
:10D32000002840D1244C61880439201C002205F0DB
:10D330009BFEE823DB00E0502048211C204A08F037
:10D340003AF80022194B1A701E488021C90005F0D6
:10D350003FFE80B2002826D11A4808308021C9003B
:10D3600005F036FE80B200281DD1164813498022F0
:10D37000D200002305F052FD80B2002813D11148DD
:10D3800008300E498023DB00C918D1229200002307
:10D3900005F044FD80B2002805D10122044B1A702B
:10D3A0000448FFF791FF02B010BDC046B439002019
:10D3B0005C320020B539002004410020603200209A
:10D3C00044070000A4390020044B1A780123002AE6
:10D3D00001D1034B1B78012018407047B43900205D
:10D3E0005C32002000000000F8B54F464646C0B44D
:10D3F0002B4B1B780020002B4AD12A4B1868596808
:10D40000264B254A07F030F94B04C60B1E43CF0BC1
:10D41000254B9846234B994602E00A2006F0FCFF74
:10D420004046FFF74FFF002816D04B461868596852
:10D430001A4B194A07F018F94B04C40B1C43CD0BC7
:10D44000221C2B1C921BBB41002B03D1E5D1174B97
:10D450009A42E2D90D201BE0124B186859680F4B15
:10D460000D4A07F001F94C04C20B2243CB0B921B6F
:10D47000BB41002B0BD102D10C4B9A4207D80122A1
:10D48000074B1A700848FFF71FFF002000E00D202F
:10D490000CBC90469946F8BDE880000000000000F2
:10D4A000B439002050540020B5390020E7030000B3
:10D4B00010B582B01D4C201C00211D4A07F084FFCE
:10D4C000201C1C498022D200002305F02FFD0023E0
:10D4D000002827D1184817490831D122920005F0B9
:10D4E00025FD002300281DD1104B19880023134A65
:10D4F000914217D10D4B598800230D4A914211D109
:10D500000F4C01A8211C042207F055FF0D4AA0185A
:10D5100041880439002205F0A7FD019A131A5A42E6
:10D520005341DBB2181C02B010BDC04604410020BC
:10D5300044070000A439002004450020AFAD0000DE
:10D5400044480020C0F8FFFFF8B5314C314D201C95
:10D5500000212A1C07F038FF2F4B23806580802391
:10D560001B016360012626726672A67226732B4F1A
:10D57000201C0E30391C062207F01DFF14232387C0
:10D5800028226287A3871E23E387D12252004023EB
:10D59000E2524823E654231C4C333A1C083223CA77
:10D5A00023C303CA03C312881A8000230025622202
:10D5B000A352221C623253809380D38013811022A5
:10D5C0009C23E254EE229F23E2540422A023E2543F
:10D5D000FC22A223E254F422A323E254A423E6541F
:10D5E0000A22A523E254201CA630391C28310B2224
:10D5F00007F0E1FEB13425706570A570E570257106
:10D600006571A571FFF7F0FE43425841C0B2F8BD05
:10D610000441002044070000AFADFFFFF882020084
:10D6200010B586B00023204A1370204A137020489A
:10D63000FFF746FE04A81F4B3C33021C12CB12C25C
:10D6400002A905F045FB83B2181E2BD102A80021C8
:10D65000194A05F0B3FB83B2181E23D102A8012199
:10D66000154A083205F0AAFB83B2181E1AD101A888
:10D670000121124A03F02AF883B2181E12D1019830
:10D680006221002203F05AF883B2181E0AD1FFF774
:10D690000FFF002801D1FFF757FF80221201084B2E
:10D6A0005A60002006B010BD5C320020B439002062
:10D6B000B5390020F8820200A4390020F5D201001B
:10D6C0000441002010B50288002A17D04068036882
:10D6D0008B4209D106E0181C08331A1C083A12685C
:10D6E0008A4207D140680AE0031C0833541EA4B2E2
:10D6F000E4001C19A342EED1002000E0002010BD80
:10D70000F0B5474680B4051C0F1C90460388002BDB
:10D7100013D00024E6006A6893195868391C424601
:10D7200007F03AFE002802D16B68985908E00134EE
:10D73000A4B22B88A342EDD801E0034800E00248E0
:10D7400004BC9046F0BDC046DFFDEF7E38B58023B7
:10D750005B05DC6D2404240C0648211CFFF7B2FF96
:10D76000002806D1044D281C0449221C07F0F2FFB2
:10D77000281C38BD4C830200CC39002054830200A1
:10D7800038B5FEF7C9FC051CFEF7C6FC044C2D0A93
:10D79000EAB2C3B2201C034907F0DCFF201C38BDED
:10D7A000B83900205C830200F0B54F464646C0B44D
:10D7B00085B0071C1D4B1A6802929A8802AB9A80AA
:10D7C0001B4B1A6800929B886A469380451C04781C
:10D7D000002C1FD0061C0023984602AA91465C2C00
:10D7E0000ED17978484608F06BF8002808D04B46EF
:10D7F000C01A6A46145CBD1C43460133DBB298462E
:10D800000136731E1C706B1C2C78002C05D02F1C4D
:10D810001D1CE4E7061C0023984600233370404695
:10D8200005B00CBC90469946F0BDC046B8740200E5
:10D83000C074020030B50378002B0ED0074D0324CE
:10D840002968CA18517821401A1C022900D1203AAF
:10D85000027001300378002BF2D130BDC0290020C6
:10D86000F8B5071C161E0ED00D1C0024381C2968A4
:10D8700008F008F8002801D1201C09E00134043523
:10D88000B442F3D102E00120404201E001204042D5
:10D89000F8BDC046A2DF704763DF704764DF7047A2
:10D8A00010B586B000226B46DA7100235942C218C7
:10D8B000D47B02AA8C54013B1A1C1032F6D102A868
:10D8C00000234373037369460731FFF7E5FF83B213
:10D8D0000F2B08D1102002A96A46FFF7DFFF6B4625
:10D8E0009A78DA7102E00020002B01D16B46D879DA
:10D8F00006B010BDF0B5474680B490B0041C0D1CB6
:10D90000C378002B08D10F229343012213430F2227
:10D91000134010221343C3704B4B5B7B002B09D188
:10D92000E3780F229343012213430F221340102266
:10D930001343E370A37830221A4217D00FAE301C85
:10D940000021032207F040FDB37806229343022210
:10D950001343B37033780F229343012213430F22F2
:10D960001340102213433370E378737008AA002029
:10D97000089009900A900B900C900E90A378137069
:10D9800000223021194200D00FAA0D9207AA0023CD
:10D9900013801123137002239370A06900280BD009
:10D9A0000378002B08D008AE099007F0A7FF80B2DB
:10D9B0003081708107AB3361237F002B02D0231CA1
:10D9C0001C330B9306AB00221A80618A268A761AD2
:10D9D000771EBE4101221640207A032707407F00B0
:10D9E000F6B2B446C6081640F600B046664637435F
:10D9F00080080240100142463A4302439A70A378DD
:10DA000032221A4202D0E07806AA10700C221A4282
:10DA100002D0E27806AB5A7001AA00239360D3606B
:10DA2000231D019306AB5360A38A13819181E368A0
:10DA30001361208808A92B1CFFF72CFF80B210B0BF
:10DA400004BC9046F0BDC04604410020A0DF7047F2
:10DA5000A5DF7047A6DF7047F0B5474680B48AB0AF
:10DA600001F00EF91F4B984238D01F4B1B78002B4A
:10DA700034D101F005F980461C4D2E1C1C4F29E0C5
:10DA8000281C69460131FFF735FB002826D06B467C
:10DA90005C78301C05A9221CFFF760FB84421DD175
:10DAA0006A466B4601331B785380023201A900237A
:10DAB00001934B608B60CB607B880B8001238B7064
:10DAC0008A6005ABCB604046FFF7C4FF002805D154
:10DAD00001F068F901F05EF90028D1D10AB004BC68
