:020000021000EC
:108000000080002061390200C5390200C739020032
:108010000000000000000000000000000000000060
:10802000000000000000000000000000C93902004C
:108030000000000000000000CB390200CD39020032
:10804000CF390200CF39020085FF0100CF3902008D
:10805000CF3902000000000039F10100CF390200E1
:10806000CF390200CF3902005DDF0100CF390200B5
:10807000CF390200CF390200CF390200CF390200D8
:10808000CF39020011F50100CF390200CF390200CB
:1080900049F60100392C02006D040200CF390200BC
:1080A000CF390200CF3902000000000000000000BC
:1080B00000000000000000000000000000000000C0
:1080C000164B002B00D1144B9D46402292029A1A67
:1080D000924600218B460F461348144A121A0BF0A1
:1080E000E5FF0F4B002B00D098470E4B002B00D024
:1080F00098470020002104000D000D48002802D000
:108100000C4800E000BF0BF043FF2000290006F000
:108110005FFB0BF02FFDC046000008000080002030
:108120000000000000000000182A0020AC4B0020D6
:10813000000000000000000030B583B0041C0D1CDE
:10814000019001A900220CF045FB019BA34206D03F
:108150001A780023002A03D12860012300E00023BD
:10816000181C03B030BDC04630B583B0041C0D1CD4
:10817000019001A900220CF0B7FB019BA34206D09D
:108180001A780023002A03D12860012300E000238D
:10819000181C03B030BDC04610B582B00C1C01A93C
:1081A000FFF7CAFF002805D0019BFF2B01D82370E1
:1081B00000E0002002B010BD10B582B00C1C01A977
:1081C000FFF7BAFF002807D0019B1A1C8032FF2A54
:1081D00001D8237000E0002002B010BD10B582B0BD
:1081E0000C1C01A9FFF7A8FF002806D0019B044A38
:1081F000934201D8238000E0002002B010BDC046A9
:10820000FFFF0000F0B583B0041C0D1C171C0378A1
:10821000202B03D101342378202BFBD0201C01A973
:1082200010220CF0D7FA019BA34221D91C1B022C6F
:1082300020DC6E1C28701A782D2A1DD1012F22D91E
:10824000012508E030700135EDB21A782D2A14D1DD
:108250000136BD4217D05C1C201C01A910220CF075
:10826000B9FA019BA34208D91C1B022CEADD04E0E9
:10827000002502E0002500E001251878434258411E
:108280004042284000E0002003B0F0BDF0B55F465A
:1082900056464D464446F0B487B0041C9046002A2A
:1082A00000D1D3E0002800D1D2E00D1C00266F4899
:1082B0008146201C2C210CF075F9002803D0471CA6
:1082C0000023037000E0071C2378002B00D1B4E0EA
:1082D000AA462A78092A00D9BCE0920049468A5861
:1082E0009746202B03D101342378202BFBD0524614
:1082F00053681C60A1E06A78201C6968FFF782FF60
:10830000031C6B7000D098E0A9E0201C04A9FFF7C3
:1083100013FF002800D1A2E0554B049A9A4203D1E2
:10832000201C04A9FFF720FF5346586804A9042223
:108330000BF0B3FE81E0201C04A9FFF715FF002815
:1083400000D18CE0686804A904220BF0A6FE74E05A
:108350006968201CFFF742FF00286ED17FE0696842
:10836000201CFFF719FF002867D178E06968201CFE
:10837000FFF722FF002860D171E0201C6968FFF739
:10838000DBFE002859D12378202B03D10134237838
:10839000202BFBD053465A78201C996806F00AFE21
:1083A0000490002801DA002059E05146486804A9E9
:1083B00004220BF072FE40E0201C6968FFF7ECFE1F
:1083C00000283AD104AB2B4905C905C32378202BDB
:1083D00003D101342378202BFBD0201C04A90222D6
:1083E00006F0E8FD0390002801DA002037E053464C
:1083F000586803A901220BF050FE1EE01E480068D9
:10840000C3185B78590716D4201C06F0BDFDAA6876
:108410009346201C0CF0E4F8021C5846211C06F080
:10842000FDFC0490154B984205D068686A7804A951
:108430000BF033FE01E0002011E00136F6B24645B4
:108440000AD00C35002F09D03C1C32E7002006E092
:10845000002004E0002002E0301C00E0301C07B0E7
:108460003CBC90469946A246AB46F0BD1C6102005A
:10847000FFFFFF7F44610200B0290020DFFDEF7E97
:10848000F8B5051C0E1C171C0A7808490BF0D2FB26
:10849000012F0AD9741CF719054E2278281C311CAB
:1084A0000BF0C8FB0134BC42F7D1F8BD4C610200AF
:1084B00054610200F0B5474680B4141C002922D153
:1084C000144B1B689A4220D01348111C0BF04AFC35
:1084D000124B1D1D0933FF339846114F114E381CA6
:1084E000211C0BF03FFC301C211C0BF03BFC01CD90
:1084F000211C0BF037FC4545F1D10B48211C0BF03A
:1085000031FC002002E0094800E0094804BC904624
:10851000F0BDC046B43F002060610200FC64020070
:108520006461020068610200C06B020062800000AA
:108530006380000010B5054C201C002180225200F1
:108540000BF0B4FD024B1C6010BDC0461C2A00207D
:10855000182A0020F0B5474680B4071C88464C49CD
:108560000CF02CF8002831D03B78002B13D03D2B99
:1085700011D03A1C474D03242868C1184878204080
:10858000191C022800D12039117001321378002BF8
:1085900001D03D2BF0D1381C0CF022F8012805D970
:1085A0003B78412B02D17B78542B05D03A48414689
:1085B0000BF0D8FB394868E0BB780237002B05D1B7
:1085C000374841460BF0CEFB00205EE0354E0024DC
:1085D0003568281C0CF004F8021C381C291C0CF00F
:1085E0002BF8002805D00134E4B20436422CEFD138
:1085F00001E0422C05D1284841460BF0B3FB2A4844
:1086000043E0251CA400274BE0580BF0E9FFFF23B3
:1086100018403F18381C25490BF0D0FF002805D121
:108620001F4841460BF09EFB00202EE0381C2049DD
:108630000BF0C4FF002802D1013701210EE03B7886
:108640003D2B02D10137022108E00021002B05D08B
:10865000114841460BF086FB134816E0AD00154B60
:10866000EB58381C42469847041C134B1B78002BD0
:1086700007D1002801D10A4800E0074841460BF025
:1086800071FB00220C4B1A70201C04BC9046F0BDFC
:1086900060610200B0290020746102006080000067
:1086A0006C610200FC640200618000007C610200D9
:1086B00080610200046602001C2B0020F8B54F46C2
:1086C0004646C0B4041C514B1B68C31A5A4253415E
:1086D000DBB298469B004E4FFF18381C0BF080FF12
:1086E0008146C6B2201C311C06F00EFB051C431C43
:1086F00003D1731E9E41F0B284E00D2801D00A28F8
:1087000061D1381C43490BF059FF00285BD1042587
:108710006368013B6360002B05DA3F4A1068211C47
:108720000BF0B8FD02E0236801332360013DEDB298
:10873000002DEDD101200BF0F3F8201C002106F0F4
:10874000E3FA0D2801D00A280DD16368013B63606C
:10875000002B05DA304B1868211C0BF09BFD02E062
:108760002368013323604346002B0FD004F06EFDD5
:10877000264C256804F064FD021C281C27490BF0D8
:1087800059FA216826480BF0EDFA15E002F090FF47
:108790000123181AC0B202F091FF1F4C23689D6894
:1087A00002F086FF021C281C1C490BF043FA2368C8
:1087B00099681B480BF0D6FA381C002104220BF0F4
:1087C00075FC01201EE02B2D13D1002E0AD0022EA5
:1087D00012D8FF224B461A40381C12490BF04EFCAF
:1087E000002809D1FF234A4613402B22FA540120C6
:1087F00008E00020002E05D0381C002104220BF0D8
:1088000055FC00200CBC90469946F8BDB43F0020B2
:10881000202B002060610200142A002084610200E5
:108820006C6102008C610200F0B54F4680B4051CFB
:108830000F1C574E0136FF3692E00A2C04D00D2C47
:1088400002D0082C58D140E0524B1A68504B9A4243
:1088500000D885E0504B1B689B689F4207D14F4B67
:108860001B7A002B03D04E48391C0BF07BFA494B86
:10887000002219680A70464C1C60201C391CFFF746
:1088800069FE8146201C47490BF098FE002867D1FD
:108890004A46002A64D101200BF042F8281C00212E
:1088A00006F032FA0D2801D00A2859D16B68013B35
:1088B0006B60002B05DA384B1868291C0BF0EAFCBA
:1088C0004EE02B6801332B604AE0324B1A68304B84
:1088D0009A4245D9304B1B689B689F4207D12F4B6A
:1088E0001B7A002B03D03048391C0BF03BFA294B84
:1088F0001A68013A1A6033E0264B1B68B3422FD244
:10890000254B186883689F4225D1244B1B7A002B86
:1089100021D0BB68013BBB60002B17DAB9698B42E1
:108920000FDB3A6814703B681A780A2A02D00133C8
:108930003B6010E0184B18680A213A1C0CF040FF0D
:1089400009E0211C3A1C0CF03BFF04E03B681C7062
:108950003B6801333B600F4A1368591C11601C705F
:108960006B68013B6B60002B06DA0B490868291C19
:108970000BF090FC041C03E02B68581C28601C784A
:10898000621C00D059E7002004BC9146F0BDC046EF
:108990001C2A0020182A0020142A0020B843002096
:1089A000C06B0200606102009061020008B5011C0A
:1089B0000122034B1A7003480BF0D4F908BDC046DE
:1089C0001C2B00206C61020071DF704776DF70475E
:1089D00077DF704700B583B0012902D902290AD098
:1089E00040E0224BDB7A5BB2101C21491A1C0BF0D1
:1089F00021F9002037E001235B4201931D4901AAC0
:108A00000BF03CFD002829D001982023021C9A433A
:108A1000131C28330DD01023021C9A43131C14334B
:108A200007D00423021C9A43131C103201D0002BE0
:108A300016D140B2FFF7CCFF83B2181E13D10B4BF7
:108A4000019ADA7205F098FF03F07AFB0A4B98421C
:108A500002D1002003F07EF8002004E0074802E085
:108A6000064800E0054803B000BDC046B8430020FA
:108A7000846102000C670200FFFF000062800000BA
:108A800030B587B0151C012913D804AC201CFFF7A2
:108A90009BFFA279637921790091E1780191A17816
:108AA000029161780391281C03490BF0C3F8002060
:108AB00000E0024807B030BD10670200628000008D
:108AC00010B5141C01290FD8A02380225205D358B9
:108AD00001221A40201C05490BF0ACF80448211C67
:108AE0000BF040F9002000E0024810BD30670200A2
:108AF000C06B02006280000030B587B0141C0129F1
:108B000016D804A803F0B8FB051C002D11D104A948
:108B10008A794B7908790090C8780190887802901A
:108B200049780391201C04490BF084F8281C00E0CC
:108B3000024807B030BDC0461067020062800000E6
:108B400070B58AB0041C022900D09CE004A8002162
:108B500015220BF0ABFA201C2C210BF023FD002872
:108B600003D0451C0023037000E0051C201C69464F
:108B70000E31FFF733FB002800D186E06B46D98920
:108B80008223474AD152281C2C210BF00BFD0028D0
:108B900003D0441C0023037000E0041C281C04A91B
:108BA0001022FFF72FFB102871D1201C2C210BF075
:108BB000F9FC061E02D0002303700136201C08A910
:108BC000FFF70CFB002864D004AB1A8A52BA04AB3E
:108BD0001A82301C2C210BF0E5FC051E02D000236C
:108BE00003700135301C69462231FFF7F7FA00287F
:108BF00051D004AB5A8A52BA04AB5A82281C2C2199
:108C00000BF0D0FC041E02D0002303700134281C9A
:108C1000244902AA0BF032FC00283ED004AB029893
:108C20001875002C0FD000230193201C01A9FFF719
:108C300083FA002802D0019B012B01D91A482DE0AC
:108C40004A2217498B54164904AA0B1C6C3331CAAB
:108C500031C330CA30C312781A7001224923CA5472
:108C600005F08AFE03F06CFA104B984206D003F030
:108C700067FA1321FFF7AAFE00200FE0002002F0A0
:108C800069FF00200AE0084808E0074806E00648B7
:108C900004E0054802E0044800E003480AB070BD63
:108CA000B84300203467020062800000FFFF00002C
:108CB00010B5141C012913D803F042FA0022094B05
:108CC000984202D003F042FA021C52B2201C06491C
:108CD0000AF0B0FF0548211C0BF044F8002000E02A
:108CE000034810BDFFFF00000C670200C06B0200CC
:108CF0006280000010B584B0012902D902290CD08D
:108D00003EE0214B1B7DDB07DB0FDBB2101C1F4954
:108D10001A1C0AF08FFF002033E06A460023D3704C
:108D2000033201A901938B6008230B704A60012272
:108D3000FFF7ACFA012801D0154822E06B46033357
:108D40001B78114A127DD207D20FD2B29A4215D0A7
:108D50000D4A01201840117D0124A14301431175E2
:108D6000002B03D004214923D15405E000214923DD
:108D7000054AD15403F070FA05F0FEFD002000E032
:108D8000034804B010BDC046B8430020846102000F
:108D90006280000010B582B0041C02291CD1124B65
:108DA0001B7DDA071AD503F0CBF9031C08200F4A04
:108DB000934216D06846002108220BF077F9201C58
:108DC00069460822FFF71EFA431EDBB2072B07D8BD
:108DD000684604F0F1FC04E0054802E0054800E0C4
:108DE000034802B010BDC046B8430020FFFF00009A
:108DF0006280000063800000F0B557464E4645464D
:108E0000E0B48AB0041C022968D13A4B1B7DD80714
:108E100066D52378002B65D0101CFFF7C7FD04A989
:108E2000354A0B1C61CA61C322CA22C312881A8048
:108E3000324B1E6802969A8802AB9A80304B1868B3
:108E400000909B8869468B80201C2E490BF0B6FB56
:108E500043424341E41802AA92462B4B994603250C
:108E6000A84635E066785C2D0BD15046311C0BF0DE
:108E700099FB002805D05646801B69460D5CA71C4F
:108E8000A6784A46126853195B784046034002218F
:108E9000012B07D004A8291C0BF084FB011C481EE1
:108EA00081414900281C04F00BFC00281BD10F2035
:108EB0000AF036FDAE4201D0002E08D1002000217C
:108EC00004F0FEFB00280ED10F200AF029FD3C1C07
:108ED000671C2578002DC5D1002004E00B4802E076
:108EE0000B4800E009480AB01CBC90469946A246CF
:108EF000F0BDC046B84300206067020078670200FA
:108F0000806702005C670200B029002062800000D8
:108F10006380000010B588B0041C02293CD1224BAC
:108F20001B7DDA073AD503F00BF9021C08201F4B12
:108F30009A4236D007A900230B800F230693201CEA
:108F4000FFF74CF9002819D10023009303930593F0
:108F500009236A4613700223537007AA0192144A28
:108F600002926A46137306AB0493201C69460222E0
:108F7000FFF78CF9431EDBB2012B11D807AC201C84
:108F800004F002FD06980AF0CBFC00232380201C8D
:108F900004F0FAFC002004E0064802E0064800E085
:108FA000044808B010BDC046B8430020FFFF0000D1
:108FB000A4690200628000006380000000B58FB0E9
:108FC000022925D10CAA00230C931371FF211170E3
:108FD00000930293039305930693089309930B93CD
:108FE000062369460B70013201920B730132049221
:108FF0000B760132079224228B540DAB0A93042284
:10900000FFF744F90138C0B2032803D9044804E04B
:10901000034802E00CA804F03BFC0FB000BDC046C2
:1090200062800000F0B5474680B492B0022900D0BB
:10903000EFE00EA97E4B0A1C70CB70C21B68136058
:109040000CAD00220C922A710B926C460F236385A3
:109050002A3401AB019203920492079209920522ED
:109060001A70029507221A7304225A730BAD0595E4
:1090700006911A76089403786E4A1268D3185B78C2
:10908000590774D40023009301A90B7000AA4A6009
:109090000322FFF7FBF8031C0138C0B2022800D8F6
:1090A000BBE062E00B9B032B5FD1009800286CD0E3
:1090B0000BF096FA052858D800245E4E03275E4D23
:1090C000A84614E00098021913783068C11848784F
:1090D0003840191C022800D120391170009A515DC6
:1090E00040460BF05FFA00283FD00134E4B2251C63
:1090F00000980BF075FA8442E4D300984C210BF0F1
:1091000051FA002804D00CAB197801220A431A70D6
:10911000009852210BF046FA002804D00CAB1978C5
:1091200002220A431A7000984D210BF03BFA0028E6
:1091300004D00CAB197804220A431A70009842211B
:109140000BF030FA002804D00CAB197808220A433F
:109150001A70009846210BF025FA002815D00CABA8
:10916000197810220A431A700FE034485CE001A914
:109170000322FFF78BF8031C0138C0B2022850D934
:109180002E4851E00B9B032B45D10CA804F080FB2B
:10919000031C002B48D10CAB1C780020002C43D0C2
:1091A0000B9B022B0DD0032B29D00020012B3BD190
:1091B0000F200AF0B5FB0CA80023037004F068FB35
:1091C00032E00F200AF0ACFB0CA80023037004F07F
:1091D0005FFB031C002B27D10F200AF0A1FB0CA87A
:1091E000047004F055FB031C002B1DD10F200AF066
:1091F00097FB0CA80023037004F04AFB14E06B46B5
:10920000588D0AF08DFB0CA80023037004F040FB7E
:109210000AE00A4808E0094806E0032B00D044E7CA
:1092200040E7032BB1D1ADE712B004BC9046F0BDCE
:109230004C670200B02900208867020062800000AD
:1092400010B584B0012902D902290BD03DE0204B92
:109250001B7D9B07DB0F101C1E491A1C0AF0EAFC41
:10926000002033E06A460023D370033201A9019342
:109270008B6008230B704A600122FFF707F8012872
:1092800001D0154822E06B4603331B78104A127D4B
:109290009207D20F9A4216D00D4A01201840400082
:1092A000117D0224A14301431175002B03D0052138
:1092B0004923D15405E000214923054AD15402F045
:1092C000CBFF05F059FB002000E0034804B010BDBF
:1092D000B8430020846102006280000000000000AA
:1092E000F0B54F464646C0B48BB0041C022900D0EE
:1092F000BDE002F041FE031C0820D90700D4BBE00A
:1093000002F01EFF031C0820614A934200D1B3E023
:10931000201C05A91422FEF775FF041C051E00D1B0
:10932000A7E005AB1B787F2B00D8A4E0594B186849
:109330005968564B544A0AF0FBFB4904C60B0E43CE
:10934000371C032C40D905ABDB787F2B3CD8112C84
:1093500034D8E51EEA0733D46846002113220AF008
:10936000A5FEF7093F231F40684602789A433A4317
:1093700080235B421A4302707F221640417891435A
:109380000E4333434370EB0F5D196D10002307E06C
:109390005A0005A98A18D2787F2A13D80133DBB284
:1093A000AB42F5DB6846023005A9221C0AF075FEC7
:1093B000A11CC9B2684603F08BFC5DE036485BE057
:1093C000354859E0344857E00C2D4AD8201C032179
:1093D0000AF042FBC9B2002945D1684611220AF0C1
:1093E00065FE6A461378802252421A43FF093F23E2
:1093F0001F40D2B29A43131C3B4368460370201CA3
:1094000003210AF0E5FAC7B26D46023500240321B4
:1094100089467F229046164019E04946614305ABD4
:10942000CB5C7F2B21D9A30000A8C31858788022D9
:1094300052420243D2B24046824332435A7005AA96
:109440005118281C4A460AF028FE01340435E3B2BC
:109450009F42E2D8B9000131C9B2684603F038FC36
:109460000AE00D4808E00C4806E00B4804E00A4812
:1094700002E0094800E008480BB00CBC9046994651
:10948000F0BDC046C046C046E880000000000000B5
:10949000FFFF0000A04B002062800000C046C046D5
:1094A00070B582B0141C002926D102F065FD031CA2
:1094B0000820DA0721D5124801A904F0CDFE031CCB
:1094C0000020002B19D0201C0E49019A0AF0B2FB93
:1094D0000B4D0D4E04E0201C311C019A0AF0AAFB32
:1094E000281C01A904F0B8FE0028F4D10748211C6B
:1094F0000AF038FC002000E0054802B070BDC0460C
:1095000054290020AC690200B4690200C06B02005B
:109510006280000030B583B0141C002912D102F023
:109520002BFD031C0820DA070DD5084D03E0019838
:10953000211C0AF0B7FB281C01A904F08DFE0028AD
:10954000F5D100E0024803B030BDC04654290020E8
:109550006280000010B5041C02291DD102F00CFD30
:10956000031C0820DA0718D502F0EAFD031C0820C6
:109570000A4A934211D0201C09490BF01FF84342BC
:109580004341E418201C05F0B9FC064B1968201C67
:109590000AF0E8FB002000E0034810BDFFFF0000D8
:1095A0005C670200B43F00206280000070B5141CAC
:1095B000002933D102F0E0FC031C0820DA0730D583
:1095C000184B19684B68013B4B60002B04DA164BB3
:1095D00018680AF05FFE03E00B685A1C0A601878EE
:1095E000431C1DD00F4E104D211C0AF05BFB33684D
:1095F0005A68013A5A60002A04DA2868191C0AF0ED
:1096000049FE03E01A68511C19601078421CEBD126
:109610000648211C0AF0A6FB002002E0044800E0F6
:10962000002070BDB43F0020142A0020C06B02004F
:1096300062800000F8B5071C0D1C161C02F09CFC93
:10964000041C0820E30741D5002D2FD0022D16D190
:109650001BE0381C1E490AF087FF002811D1802228
:10966000D200521B92B2002A0DDB301C19490AF0BD
:10967000E1FA1948311C0AF075FB002026E0174872
:1096800024E0164822E0154820E003F001FD802484
:10969000E400241AA4B203F0F5FC051C381C1049A0
:1096A0000AF062FF221C0028DDD0D2E703F0F0FCB4
:1096B000041C03F0E7FC8023DB001C1BA2B21B1A76
:1096C0009BB2301C07490AF0B5FAD2E7F8BDC04694
:1096D000C864020034670200C06B020062800000B0
:1096E000AC640200D4690200F0B557464E464546C8
:1096F000E0B484B0061C0D1C171C1C1C274B1B68F7
:10970000984203D1231C5343102B40DC02AA244966
:109710000B6802938B8893807B003033937010200A
:10972000391C0AF0A3F9A046002C2ADD0024FF23EF
:10973000034099461B4B9A4600230193201C49463F
:109740000AF0EAF900290AD1002C03D01648311C8E
:109750000AF008FB301C51462A1C0AF06BFA01A8DB
:10976000291C3A1C0AF099FCED192020311C0AF042
:1097700099FA301C02A9019A0AF05CFA01344445B6
:10978000DADB0948311C0AF0EDFA002000E0074856
:1097900004B01CBC90469946A246F0BDB43F0020E0
:1097A000C8690200BC690200C06B0200638000004F
:1097B000F0B587B0141C022932D10023059304931D
:1097C000039303AB00931D4905AA04AB0AF056FEB0
:1097D000032827D1059D002D26D0049A002A25DDD7
:1097E000039E002E24DD531E012B01D9042A21D112
:1097F000D7B2391C042F00D90421C9B2281C0AF0A1
:109800002BF9002905D00E48211C0AF0ABFA0D48AF
:1098100011E0B3B2201C291C3A1CFFF765FF0AE0D7
:10982000084808E0074806E0064804E0054802E06A
:10983000044800E0034807B0F0BDC046D06902000C
:10984000DC6902006280000008B5022907D0101C04
:1098500004490122FD23DB00FFF746FF00E0024838
:1098600008BDC046B84300206280000038B5012919
:109870001DD8114B1968114B994209D104230F4C83
:1098800080252D010C4819180968A1420BD000E071
:10989000002380210901CB1A101C09491A1C0AF067
:1098A000C9F9002006E00433AB42EBD101E00548E2
:1098B00000E0032038BDC046007800200DF0FECA4D
:1098C000F06902006280000008B5002907D1101C71
:1098D0000449042280239B00FFF706FF00E00248B2
:1098E00008BDC046007800206280000076DF704727
:1098F00008B502F025FC064B984205D002F020FC8A
:109900001321FFF7F3FF02E0002002F023F908BD66
:10991000FFFF0000F0B5474680B4071C00240D4E41
:10992000A3B29846A3009D59281C0AF059FE021CB8
:10993000281C391C0AF0A2FB002803D00134052C96
:10994000EED101E0404600E0034800B204BC90467E
:10995000F0BDC046F8690200FFFF0000F8B5061C24
:109960000F1C084D0024301C29680AF08FFE0028C7
:1099700001D03C7005E00134E4B204350E2CF2D184
:109980000020F8BD006B0200F0B55F4656464D461C
:109990004446F0B493B0141C1D1C012931D8714DFC
:1099A000A623EA5C9200704BD058211C0AF0DAF929
:1099B000A523EB5C012B1ED901256A4F6B4E6C4A27
:1099C00090467B19A0339879326813185B78682227
:1099D000934303D0211C0AF065F905E0800043465B
:1099E000C058211C0AF0BEF90135EDB2A5235D4A2D
:1099F000D35CAB42E5D85F48211C0AF0B3F90020E4
:109A0000A8E0022900D0A0E000231193109306A93A
:109A100006938B60CB604B618B610B6211AB4B602B
:109A200002230B7310AB0B6106230B766B463F339F
:109A3000CB610322FEF72AFC80460138C0B202281F
:109A400000D984E01198FFF765FF002805DA4A483D
:109A5000211C0AF087F949487CE001AB1870119E7F
:109A60008000414BC0580AF0BBFD301811900378BC
:109A7000002B44D001271222934669460331FFF799
:109A80006DFF8146002803D0119BC61AF6B203E091
:109A900011980AF0A5FDC6B24B465A1E9341DBB29F
:109AA0009946FB185A46D31A9E4205DD3448211CBC
:109AB0000AF058F909204DE001ABD8191199321C70
:109AC0000AF0EBFA119A921992461192F619F6B22F
:109AD0004B46002B0DD0731CDFB26A46D37801AA27
:109AE00093559B00224A98580AF07AFD50441190F1
:109AF00000E0371C11980378002BBED100E001274D
:109B00004346012B05D9109B012B22D84A22154927
:109B10008B544246022A05D96B463F3319789F235E
:109B2000104AD15401A8391C02F04EFF041C002C2D
:109B300010D10C4B0321492299549E229D5404F0CC
:109B40001BFFFFF7D5FE201C04E00C4802E00B4889
:109B500000E00A4813B03CBC90469946A246AB468A
:109B6000F0BDC046B8430020F8690200B0290020CB
:109B7000006B0200C06B02000C6A020062800000F1
:109B8000386A020008B50023FFF7FEFE08BDC04694
:109B900008B50123FFF7F8FE08BDC04638B5051C1F
:109BA0004923204CE35C033B58424341DCB201298A
:109BB00006D8101C1C49221C0AF03CF800202FE09B
:109BC000022922D1281C19490AF0F8FC002823D0C8
:109BD000281C17490AF0C8FC00281DD0281C15496C
:109BE0000AF0ECFC002812D0281C13490AF0BCFC37
:109BF00000280CD0114813E049230A4AD15404F03C
:109C0000BBFEFFF775FE00200AE00C4808E00021CB
:109C1000081C8C4204D0EFE70321012CECD100207A
:109C200038BDC046B8430020846102004C6A02007F
:109C3000D4620200D86C0200506A02006280000008
:109C400000B585B0002902D0022903D020E0B4235A
:109C5000039312E000230093029302236A461370D9
:109C600003AB019369460122FEF710FB012802D1E4
:109C7000039B002B01DC08480BE0039802F0C4FEB4
:109C800003214923054AD154FFF732FE002000E0AA
:109C9000014805B000BDC04662800000B843002006
:109CA00074DF704776DF70477CDF704730B583B074
:109CB000031C141C012902D9022909D030E01A48DA
:109CC000111C0AF04FF81948211C0AF04BF825E046
:109CD000154D281C191C1F220AF0C4FC04F04CFE70
:109CE00001AC23780F229343012213430F22134028
:109CF000102213432370281C0AF072FC82B2201C2D
:109D0000291CFFF7D1FF83B2181E0AD102F018FAFE
:109D1000074B984202D1002001F01CFF002000E018
:109D2000044803B030BDC04604440020C06B0200AC
:109D3000FFFF00006280000010B5141C012910D83C
:109D400002F0FEF9084A8318584243413120C01AF4
:109D5000211C09F0A7FF0548211C0AF003F8002088
:109D600000E0034810BDC0460100FFFFC06B0200C9
:109D70006280000008B500290DD102F0E1F9021C53
:109D80000020064B9A4207D002F0DAF91321FFF7C0
:109D900089FF80B200E0024808BDC046FFFF000016
:109DA0006280000008B5002902D102F055FA00E0F7
:109DB000004808BD62800000F0B587B0061C0C1C8E
:109DC000151C02A8294910220AF067F9012C02D9B2
:109DD000022C20D03EE001260024254F02E0013471
:109DE0000136F6B2E3B2002B36D0381C291C09F03C
:109DF000B9FFFF2222401C3252001E4BD25A281CAF
:109E00001D4909F017FF032EE9D91C48291C09F048
:109E1000A9FF002027E01A4C6D460A35271C083799
:109E2000301C01A90A220AF0D5FC019E0136002847
:109E300009D0AA1E1288904202DB2A88904201DDD6
:109E4000104810E0208002340435BC42E8D104F010
:109E500093FD08E00B4806E0064B1A8F281C0649C4
:109E600009F0E8FEBBE707B0F0BDC046386B020062
:109E700064610200B84300200C670200C06B02005E
:109E8000F04300206280000008B5002901D00229BB
:109E900003D1002001F05EFE00E0014808BDC0468D
:109EA0006280000008B5002903D1FFF7F9FE80B2F7
:109EB00000E0014808BDC0466280000010B582B0D5
:109EC000141C012902D902290DD024E04823134A89
:109ED000D05C3030211C09F0E5FE1148211C09F04E
:109EE00041FF002018E00F4901AA0AF0C7FA012833
:109EF00002D1019B012B01D90B480DE048220749F3
:109F00008A5C934205D05A1E934148228B5404F038
:109F100033FD002000E0044802B010BDB84300202B
:109F2000C06B02000C6702006280000030B591B087
:109F3000022940D100230F9301A901938B60CB60CC
:109F40004B6101230B701F234B7007AB4B60022347
:109F50000B730FAB0B610222FEF798F9041C01385A
:109F6000C0B2012829D801AB5A78164D8B23EA5488
:109F7000281C6C3007A90AF090F802224923EA5401
:109F8000022C05D10F9B012B19D84A220D498B5465
:109F900004F0F2FC02F0D4F80B4B984206D002F029
:109FA000CFF81321FFF77EFE002009E0002001F02A
:109FB000D1FD002004E0054802E0044800E0034829
:109FC00011B030BDB8430020FFFF000062800000E8
:109FD000A4DF7047A5DF7047A6DF7047F8B54F468E
:109FE0004646C0B480468946171E15DD002600246B
:109FF00063B29B004A469D58281C0AF0F1FA021CE5
:10A000004046291C0AF0F4FA002807D00134E4B2D3
:10A0100066B2BE42ECDB01E000260024B7420BD062
:10A0200063B29B004A4698580AF0DAFA4246135C3B
:10A030003D2B02D0FF2400E0FF2460B20CBC904610
:10A040009946F8BDF0B5474680B486B0061C0F1C93
:10A0500090461D1C0CAB1C78032C20D002D8002C81
:10A0600003D143E0042C2FD040E001A9FEF764F8AF
:10A070000024002811D03D4B019A9A4203D1301C94
:10A0800001A9FEF771F82C1C042D00D90424E4B2B8
:10A09000381C01A9221C0AF000F8201C61E00AF01B
:10A0A0009FFA041CC0B2A84200D92C1CE4B2002CB8
:10A0B00003D100233B70012053E0381C311C221CCB
:10A0C00009F0EBFF201C4CE001A92A1CFEF79AF8CE
:10A0D000041E444501D3854201D2002041E0381CD2
:10A0E00001A9221C09F0D9FF201C3AE0301C694666
:10A0F000FEF722F8002812D01C4B009A9A4203D196
:10A10000301C6946FEF730F82C1C042D00D90424BD
:10A11000E4B2381C6946221C09F0BFFF20E0301C65
:10A1200001A92A1CFEF76EF8021C041E0AD0804505
:10A1300001D8854201D2002013E0381C01A909F0A2
:10A14000ACFF0DE0301C0AF04BFA041CC0B2A84270
:10A1500000D92C1CE4B2381C311C221C09F09DFFD4
:10A16000201C06B004BC9046F0BDC046FFFFFF7F38
:10A1700010B5141C002802D0012810D01EE0081CC5
:10A18000111C1022FEF73EF8102819D10023237568
:10A19000A3781B02E27813432382002015E0131CEE
:10A1A0001033081C191CFEF719F800280AD0238A5E
:10A1B000002B09D001232375002006E0034804E0AA
:10A1C000024802E0014800E0004810BD6280000043
:10A1D000F0B583B0061C1C1E032C16D0032B02D82E
:10A1E000002B03D11AE0042B15D017E000230193B4
:10A1F00001A809F052FF012C01D1234900E02349B5
:10A20000301C019A09F016FD3CE0081C0121331CAA
:10A2100009F0AEFE36E0FEF733F933E0022A1BD92F
:10A220000B78002B18D0171E27D019480068C318C8
:10A230005B786824A3430FD0002468239C4604E085
:10A2400045196B786546AB4306D00134A74214D953
:10A250000D5D002DF4D110E0042A03D9301CFEF767
:10A260000FF90FE00023019301A809F016FF301C3D
:10A270000549019A09F0DEFC04E0081C0121331CA9
:10A2800009F076FE03B0F0BD34670200946B020063
:10A29000B029002008B504480021044A09F006FF4F
:10A2A00004F06AFB002008BD704400200C07000089
:10A2B000F0B557464E464546E0B486B0041C171C20
:10A2C000022972D1B8233D4AD35C04200A2B6FD0F7
:10A2D00068460021182209F0E9FE201C2C210AF012
:10A2E00061F9002803D0451C0023037000E0051C21
:10A2F000002C38D032488046814630E00134237843
:10A30000202BFBD0201C41460222FFF767FE061ED1
:10A310000EDB83004A4698580AF062F9F6B2411CF7
:10A320006118301C6A46FFF723FF061E08D000E0C4
:10A33000244E381C2449221C09F07CFC301C37E0D8
:10A34000281C2C210AF02EF9002803D0431C0022DF
:10A35000027000E0031C002D05D02C1C1D1C23786E
:10A36000202BCBD0CEE76E46338A002B1FD0134C68
:10A37000B825605D824641005144C9006118BC3176
:10A380006A4649CA49C149CA49C150460130605567
:10A3900004F0F2FA625D381C0C4909F04BFC0C48E1
:10A3A000391C09F0DFFC002002E0064800E0054807
:10A3B00006B01CBC90469946A246F0BDB8430020AA
:10A3C000A86C0200628000009C6B02000C67020017
:10A3D000C06B0200F0B55F4656464D464446F0B4A9
:10A3E00091B0071C141C022900D006E1B823904A42
:10A3F000D35C0420002B00D113E1B923D35C1E2BC6
:10A4000000D10EE103A80021342209F04FFE381CD0
:10A410002C210AF0C7F8002803D0451C0023037044
:10A4200000E0051C002F00D1B3E0824A904691461F
:10A43000AAE001373B78202BFBD0381C414607228D
:10A44000FFF7CCFD061E00DA90E083004A469858DC
:10A450000AF0C6F8431CDB199A46F3B2062B00D962
:10A4600084E09E00744A93599F46504669460E31D7
:10A47000FDF7B4FE002879D003AB5B88002B75D0C4
:10A4800003AB197D1F22914301220A431A75C1E0D3
:10A49000504604A91022FDF7B5FE102866D103AB83
:10A4A0001A7D1F218A431A759A791202D9790A43B3
:10A4B0005A80AFE0504669460B31FDF76DFE00282B
:10A4C00054D06B460B331B78002B4FD068460D30B1
:10A4D00069460B31012209F0E0FD9BE050466946D8
:10A4E0002131FDF759FE002840D003AB5B7D013BD5
:10A4F000132B3BD88EE0504669462231FDF74CFEC7
:10A50000002833D003AB9B7D013B132B2ED881E079
:10A5100000264A4B9B46F7B2B3005A46995850461C
:10A520000AF022F8002807D103AB79011A7D1F2019
:10A5300002400A431A756DE00136052EEBD169E041
:10A5400003AB5A7D002A60D19B7D0122002B02D1F2
:10A55000142300E0131C03AE317D490900915046DD
:10A5600009A9FFF76FFDF075002853D1201C34496D
:10A570003A1C09F05FFB334853E0431C0022027091
:10A58000002D06D02F1C1D1C3B78202B00D150E73E
:10A5900053E703AB9B7D002B02D103AB5A7D9A7529
:10A5A00003AB5B7D002B2AD003AA927D9A4228D36D
:10A5B00003AB5B88002B26D01D4DB823EB5C013B21
:10A5C000DBB29846B926AF5D34225743E819AD3067
:10A5D000FF3003A909F061FDEF19AD37FF3743469E
:10A5E0003B70AB5D0133AB5504F0C6F9AA5D201C8E
:10A5F000154909F01FFB002013E0124811E0114833
:10A600000FE010480DE00F480BE003AB9B7D002BE3
:10A61000A1D19FE7281C2C2109F0C4FF031EAFD055
:10A62000ABE711B03CBC90469946A246AB46F0BDA4
:10A63000B8430020646B0200486B0200806B02008C
:10A64000B06B020062800000846102000000000024
:10A65000F0B5574680B48EB0041C151C022900D0FA
:10A66000EDE0894909AA09F009FF002800D1E8E0D6
:10A67000099B002B00DCE6E0B92284498A5C934206
:10A6800000DDE2E0013B34225343CB18D6204000EA
:10A690001F18201C2C2109F085FF00280DD1391C22
:10A6A0001831FA7D3B7D5B09281CFFF791FD784846
:10A6B000291C09F057FB0020DCE00378002B00D1B7
:10A6C000C5E03C1C183401307A7DBB7D397D4909D9
:10A6D0000091211CFFF7B6FC7A7D824200D9B8E0D8
:10A6E000BA7D824200D2B6E0F87504F045F901F077
:10A6F00027FD061CBB8D0020834200D1BAE0654BCC
:10A700009E4200D18BE07A7830231A4200D186E055
:10A7100004AB1880398E0CAA022515805080536036
:10A72000301CFFF757FC7D78ED06ED0F04D004AB2D
:10A730001B88DA0700D590E07B7898066FD504ABCC
:10A740001B889A076BD5FA7D6B465A8205AB9A46F1
:10A75000181C0021102209F0A9FCBB8D5046038073
:10A760006B425D41013505AB9D706A46123207921E
:10A77000089401F095FD002840D1474B18685968AE
:10A78000404B3F4A09F0D4F94B04C40B1C43CD0B9A
:10A790000122924602E0504609F0C2F801F080FD25
:10A7A000002817D13C4B18685968364B344A09F0D9
:10A7B000BFF94B04C00B18430290C90B0391029AD6
:10A7C000039B121BAB41002B02D1E4D1C72AE2D973
:10A7D00004204FE0304B186859682A4B284A09F08A
:10A7E000A7F94A049446C20B60460243CB0B121BE6
:10A7F000AB41002B11D101D1C72A0ED8301C05A9BD
:10A80000FFF7EAFB83B2181E34D17B780020DA060A
:10A8100030D501F04DFD00202CE004202AE07A7DA7
:10A82000BB7D00209A4225D0B98D0AAAFB7D1380FA
:10A8300050805060301CFFF7CBFB80B21AE0174805
:10A8400018E0164816E0154814E0144812E01348C2
:10A8500010E012480EE011480CE0FA7D6B465A8277
:10A8600005AD281C0021102209F020FCBB8D2B8097
:10A87000012578E70EB004BC9246F0BDC046C04644
:10A88000E88000000000000034670200B8430020A8
:10A89000C06B0200FFFF0000A04B002062800000A0
:10A8A00010B582B0141C022913D169460731002368
:10A8B0000B70FDF771FC00280DD06B4607331B7839
:10A8C000B9220F498A5C002B07D0934207D90D4863
:10A8D00014E00C4812E00B4810E00A480EE0013B7F
:10A8E00034205843F030064BC018031CBC33D4301E
:10A8F000DA7D0121231C09F03BFB002002B010BDD2
:10A90000B843002062800000F0B55F4656464D46D1
:10A910004446F0B483B0171C002979D1434B1B681F
:10A920009A4277D0B823424AD35C002B74D00026D9
:10A930009246404B994640498B467400A419E40066
:10A940005444BC34721C238A381C494609F072F9FD
:10A95000237D012B08D05846391C09F003FA381C16
:10A96000211C1022FDF78CFD3448391C09F0FAF93E
:10A97000B9232F4AD35C002B42D0002490463425C3
:10A9800065434544AD35FF352B78B34231D1621C68
:10A990006B88381C2A4909F04DF92B7DDB06DB0E4C
:10A9A000012B0CD02748391C09F0DCF9291D381C73
:10A9B0001022FDF765FD2448391C09F0D3F96A78A7
:10A9C0006B7DA97D0091287D400980001F4940587A
:10A9D0000190381C1E4909F02DF9291C1831EA7D17
:10A9E0002B7D5B09381CFFF7F3FB1448391C09F079
:10A9F000B9F90134E4B2B9230D4AD35CA342BED8FD
:10AA00000136F6B2B8230A4AD35CB34295D805E0C2
:10AA1000104804E0104802E0002000E0002003B0ED
:10AA20003CBC90469946A246AB46F0BDB43F0020E0
:10AA3000B8430020C46B0200D86B0200C06B020058
:10AA4000E46B0200FC6B020064610200806B020098
:10AA5000086C02006280000063800000F8B54F4679
:10AA60004646C0B4051C0388502B2DD1B923184A83
:10AA7000D35C002B28D0002434239846171C161CC6
:10AA800043466343FB18AD33FF33E9889A8D914207
:10AA900006D1EA8B987D597D914201D8824206D930
:10AAA0000134E4B2B923F35CA342E9D80CE0DA75CF
:10AAB000181C1830291C2031EA8B09F0EEFA01200D
:10AAC000A04003F02BFBEBE70CBC90469946F8BD89
:10AAD000B843002000000000F8B54F464646C0B419
:10AAE000011C234809F03EF9224B186859681F4B96
:10AAF0001D4A09F01DF84B04C60B1E43CF0B1D4B1E
:10AB000098462C23FF33994603F026FF002813D0E4
:10AB1000434618685968154B134A09F009F84B0465
:10AB2000C40B1C43CD0B221C2B1C921BBB41002BC6
:10AB300002D1E9D14A45E7D90E4B186859680B4B49
:10AB4000094A08F0F5FF4904C00B0843861B312E63
:10AB500003D83220801B08F0E3FE0CBC90469946D7
:10AB6000F8BDC046C046C046E880000000000000B6
:10AB70006C610200A04B0020F0B5474680B494B051
:10AB800080460F1C151C80235B055A6E1B6E0FAC94
:10AB9000201C264909F050FC04F066F9021C0AAE9C
:10ABA000301C234909F048FC00230293214B0393F6
:10ABB00004960594204B06930793204B089304F0CA
:10ABC0006DF90990002F02D0022F0ED026E003ACC1
:10ABD0000AAF1B4E01CC291C09F0C4F8301C291CFB
:10ABE00009F0C0F8BC42F5D11AE04046154901AA67
:10ABF00009F044FC002803D0019B5A1E062A01D903
:10AC000011480EE09B0002AA9858291C09F0AAF8E6
:10AC10000B48291C09F0A6F8002002E00A4800E0D1
:10AC2000002014B004BC9046F0BDC046B06C0200D9
:10AC3000BC6C0200C86C0200D46C0200DC6C020028
:10AC4000C06B02000C6702006280000038B5051C72
:10AC5000141C012902D902290CD01FE0124B187ACA
:10AC60003030111C09F01EF81048211C09F07AF848
:10AC7000002018E009F0B4FC012811D12B78303BFA
:10AC8000DBB2012B0ED8084A127A00209A420AD071
:10AC9000054A137203F070FE002004E0044802E04D
:10ACA000034800E0024838BDB8430020C06B0200F2
:10ACB0006280000008B500290AD1101CFFF70CFFC4
:10ACC000BFF34F8F034A044BDA60BFF34F8FFEE7A9
:10ACD000024808BD0400FA0500ED00E062800000B3
:10ACE00010B5141C00290ED103F0BAFE01F0B4FA1D
:10ACF000201CFFF7F1FEBFF34F8F044A044BDA60CC
:10AD0000BFF34F8FFEE7034810BDC0460400FA05AD
:10AD100000ED00E06280000008B5002906D1101C9B
:10AD2000FFF7DAFE01F040FB002000E0004808BD1C
:10AD30006280000010B5002923D1134B1B689A4292
:10AD40000CD102F083FA104B1C6802F079FA021C55
:10AD5000201C0E4908F06EFF002013E000F0A8FC54
:10AD60000123181AC0B200F0A9FC094B1B689C68AB
:10AD700000F09EFC021C201C044908F05BFF002030
:10AD800000E0044810BDC046B43F002084610200CA
:10AD9000142A00206280000010B582B0141C022921
:10ADA00018D1114901AA09F069FB002814D00199B2
:10ADB000072913D8022913D0C9B20220002202F0B9
:10ADC0004BFF02F083FF021C201C084908F032FFF1
:10ADD000002006E0064804E0054802E0044800E0E0
:10ADE000034802B010BDC0460C670200E86C0200C8
:10ADF0006280000010B5141C00290AD102F054FF33
:10AE000002F078FF021C201C034908F013FF002009
:10AE100000E0024810BDC046E86C020062800000FD
:10AE200039DF70473ADF704752DF704710B582B0A4
:10AE3000141C012918D801A8FFF7F6FF002811D12A
:10AE4000019BD917890FCB189A10032003405B1A76
:10AE50009900CB1899005B18201C054908F0EAFE00
:10AE6000002002E080B200E0024802B010BDC046FF
:10AE7000146D02006280000010B582B0141C02291B
:10AE80002AD101235B420193174901AA09F0F6FA7E
:10AE9000002823D0019B1F2B22D8C133FF339B00F6
:10AEA00080218902A022D20599501048211C08F067
:10AEB00059FF322008F034FD0020002100F004FC8E
:10AEC0000120002100F000FC0121A023DB008022F2
:10AED000D205D150002004E0054802E0044800E01B
:10AEE000034802B010BDC0460C6702006C6102004E
:10AEF00062800000F0B5474680B486B090460029D5
:10AF000002D0022904D056E004226B46DA750BE029
:10AF100069461731FDF740F900284ED06B461733CC
:10AF20001B78013B0F2B4AD800256C4603340027C1
:10AF30006E4617362770201CFFF772FF83B2002B76
:10AF400019D12378002B12D03178491B0A1CC9B2C1
:10AF5000994200D91A1CD1B2227001AB5819FFF7DF
:10AF600061FF80B200282BD12378ED18EDB2337841
:10AF7000AB42DFD801E0181C22E01348414608F03C
:10AF8000F1FE6B4617331B78002B0ED000240F4EBA
:10AF90006D46173501AB1A5D4046311C08F04AFE7C
:10AFA0000134E4B22B78A342F4D80948414608F0B2
:10AFB000D9FE002004E0074802E0064800E005480A
:10AFC00006B004BC9046F0BD206D02004C6102004A
:10AFD000C06B02006280000010B582B0002902D070
:10AFE000022909D034E01C4B9B7A101C1B491A1C07
:10AFF00008F020FE00202CE069460731FDF7CCF870
:10B00000002804D06B4607331B78012B01D9144864
:10B010001FE0114A927A9A4218D0002B03D10120E6
:10B02000002100F051FB6C46E2790B4B9A7203F061
:10B03000A3FCE379012B09D101F082F8094BC11877
:10B040004B1E9941C9B2012000F03EFB002000E0F8
:10B05000034802B010BDC046B8430020846102001E
:10B06000628000000100FFFFF0B5474680B492B057
:10B0700094460CAA354B141C1D1CC4CDC4C4C4CDAD
:10B08000C4C409AC1833C4CBC4C4002902D00229FB
:10B090000CD056E02E4B597A89000CABCB58604649
:10B0A0002C491A1C08F0C6FD00204BE00123019337
:10B0B0000023029303A907230B7006224A7001AAFA
:10B0C0004A600CAA8A600B7303234B7302AB0B61BB
:10B0D00009AB4B610222FDF7D9F800282FD00128D7
:10B0E00003D9019B052B2AD102E0019B052B26DC0D
:10B0F000174A527ADBB29A4208D00020002100F0B1
:10B10000E3FA134B019E5E7203F036FC019F052F9C
:10B1100013D1029B022B0AD1002000F0F3FB012384
:10B12000011C5940C9B2002000F0CEFA05E05A1EB9
:10B130009341D9B2002000F0C7FA002002E006488F
:10B1400000E0054812B004BC9046F0BDF06C02006F
:10B15000B8430020246D020062800000F0B54F4625
:10B160004646C0B483B0161C002902D0022924D060
:10B1700038E003240125224B98460027214B9946AD
:10B18000E0B202F0FFFC00280BD0002D03D14846AE
:10B19000311C08F0E7FD301C4146221C08F04AFD36
:10B1A0003D1C0134782CEBD10020002D22D1164813
:10B1B000311C08F0D7FD00201CE000230193134947
:10B1C00001AA09F05BF9002803D00198C31E742B73
:10B1D0000AD90F480EE0301C0E49019A08F02AFDEA
:10B1E000002007E00A4805E0C0B202F0CBFC0028CE
:10B1F000F6D0F0E703B00CBC90469946F0BDC046CF
:10B20000606D020064610200C06B0200686D0200A4
:10B21000628000006C6D0200011C00201F2919D8FB
:10B220000D4B1878002810D00C4B1B788B420ED099
:10B230000B4B0138C0B2181803E01A7801338A4268
:10B2400007D08342F9D1012004E0012002E0002070
:10B2500000E000207047C046756D0200786D020066
:10B26000796D020030B583B0141C022941D1264902
:10B2700001AA6B4609F002F9012805D002283AD14B
:10B28000009D012D39D812E0A223DB00A022D205B7
:10B29000D358019AD340012018403030211C08F0C7
:10B2A00001FD1A48211C08F05DFD00202AE0184B22
:10B2B000A022D205D358019CE340DA071FD5201CF9
:10B2C000FFF7AAFF00281CD0002D08D10123A340BE
:10B2D0001C1C104BA022D205D450002012E00123E8
:10B2E000A3401C1CA123DB00A022D205D4500020C7
:10B2F00008E0094806E0084804E0074802E006487C
:10B3000000E0054803B030BDD4690200C06B020004
:10B31000140500000C0500006280000030B583B009
:10B32000141C022964D1384901AA6B4609F0A6F819
:10B33000012805D002285DD1009D032D5CD823E0B3
:10B34000324BA022D205D258019BDA400120D1070E
:10B350000FD49B00A022D2059B18E022D2009A585D
:10B360000320510705D4E022D20098580007C00FEF
:10B37000400000903030211C08F094FC2448211C2F
:10B3800008F0F0FC00203CE0019C201CFFF744FF8B
:10B39000002833D0012D08D002DC002D0ED02FE084
:10B3A000022D13D0032D1AD02AE0C134FF34A4009B
:10B3B0000322A023DB05E250002022E0C134FF3449
:10B3C000A4000020A023DB05E0501AE0C134FF34C4
:10B3D000A4000C22A023DB05E250002011E0C134C0
:10B3E000FF34A4000422A023DB05E250002008E083
:10B3F000084806E0074804E0064802E0054800E087
:10B40000002003B030BDC046D4690200140500001E
:10B41000C06B02006280000010B586B0022925D101
:10B42000174905AA04AB09F029F8022820D1059C88
:10B43000201CFFF7F1FE00281CD0049A642A1BD8B8
:10B44000684600210E2208F031FE01236A4613707F
:10B4500054701371022353719372684602F06AFCB0
:10B460000020049902F056FD002006E0054804E0A3
:10B47000044802E0034800E0024806B010BDC046A0
:10B48000D46902006280000070B582B0141C0129EA
:10B4900002D902290CD057E02D4B5A7D1207520ECB
:10B4A0002C4BD258201C2C4908F0C4FB00204CE047
:10B4B00001A9FCF759FE002844D0019A254B1B68CE
:10B4C0009A420FD0254901230868824204D1DDB297
:10B4D0006AB2002A08DA35E00133DBB20831102BFA
:10B4E000F2D12FE0002300256DB2194A527D1207D8
:10B4F000120F954224D0164A0F210B40517D0F2088
:10B5000081430B435375201CFDF750FA142008F0BB
:10B5100007FA134C0126E661052008F001FAED0058
:10B520000C4B5D196A680F4BE250002384225200D5
:10B53000A3508E225200A350A660266003F01CFA8E
:10B54000002002E0084800E0074802B070BDC04695
:10B55000B8430020846D0200E86C02008C6D02008C
:10B5600000200040240500006280000010B584B077
:10B57000141C012902D902290DD06EE0384B5A7DE6
:10B58000D206D20F01235A40D2B2201C354908F00E
:10B5900051FB002062E06A460023D370033201A908
:10B5A00001938B6008230B704A600122FCF76EFE4A
:10B5B000012801D02C4851E06A46D17801234B4044
:10B5C000D370274A527DD206D20F9A4243D0244AE2
:10B5D00001210B401901537D102083430B43537508
:10B5E000201CFDF7E3F9142008F09AF91F4B012203
:10B5F000DA61052008F094F96B4603331B78002BC1
:10B600000ED01A4B1A4A99580120814399500122B1
:10B610005242A221C9005A50A121C9005A500DE03E
:10B62000124B134A98580121014399500A21A22232
:10B63000D20099500821A122D20099500B4B002230
:10B64000842149005A508E2149005A5001229A60A3
:10B650001A6003F091F9002000E0034804B010BD27
:10B66000B843002084610200628000000020004096
:10B670006C05000048DF70477047C046830702D55D
:10B680000122044B1A708B0702D50022014B1A705D
:10B690007047C0462A2B0020014B18887047C046CF
:10B6A000282B0020014B18887047C046A43000208A
:10B6B000014B18787047C0462A2B0020014B1870A8
:10B6C0007047C0462A2B0020012805D10E4B9B7ADB
:10B6D0001320002B04D115E0434243411320C01A2C
:10B6E000002908D001238340181CA123DB00A022DD
:10B6F000D205D05006E001238340181C034BA02242
:10B70000D205D0507047C046B84300200C05000059
:10B7100030B58DB0A823DB00654AD1580023654AB7
:10B72000914204D8A823DB00614AD3589BB2624AF5
:10B730001380A823DB00614AD15800235D4A91425F
:10B7400004D8A823DB005D4AD3589BB25C4A13801F
:10B75000002300932020082106225A4B04F0D2F93E
:10B76000002803D00021002200F008FC02205649E6
:10B7700003F054FD002803D00021002200F0FEFB5E
:10B78000092052494822002304F036FE002803D045
:10B790000021002200F0F2FB4D4804F05DFE80B273
:10B7A000002800D082E006F0D1FC80B200287DD1D4
:10B7B00003F0F4F9002879D109A80B2303700923B9
:10B7C0004370082383700A23C370424B5B7DD90604
:10B7D000C90F01224A400271002242711B075B0E11
:10B7E0003D49CB185B6883606B46DA810E333B4A78
:10B7F00004928022520005923949069107920093E3
:10B8000004A9384A012304F01DFC80B200284DD160
:10B81000354B1B689868002108F07EFDA023DB05EE
:10B820000C21E822D2009950A222D2009B58DA03C0
:10B830000BD42E4808F074F8A223DB00A022D20516
:10B84000D358DA0301D403F00BF9A024E4050C2546
:10B85000274BE55002F0BEF9264BE55068462330F1
:10B8600002210222244B03F017FD80B200281DD1D3
:10B870006B462333187803F03BFDA222D200A15877
:10B880008907C90F1D4A11700322E921C9006250BE
:10B890001B49625001200021FFF716FF012464427A
:10B8A000201C02F033FC201C02F044FC0DB030BD23
:10B8B00000900040FEFF0000282B002000A0004068
:10B8C000A4300020542D00202C2D0020A830002072
:10B8D000B91F0200B8430020846D02002C2B002009
:10B8E0002C2C002079B60100142A0020DC05000071
:10B8F0001C070000040700007DB601002A2B002071
:10B900004C070000431E98411230044BA022D20580
:10B91000D358C340181C0123184070470405000089
:10B92000014B587A7047C046B8430020031C0020E2
:10B93000002B08D1A223DB00A022D205D058C009D9
:10B94000012358401840704708B5FFF793FE08BD23
:10B95000F0B557464E464546E0B48046264B18683B
:10B960005968244B224A08F0E3F84B04C60B1E43E7
:10B97000CF0B214B9946F423FF339A46404604F0FF
:10B98000ADFC002814D04B4618685968194B184A6A
:10B9900008F0CEF84B04C40B1C43CD0B221C2B1C0F
:10B9A000921BBB41002B17D1E8D15245E6D913E0D9
:10B9B000114B186859680F4B0D4A08F0B9F84C0440
:10B9C000C20B2243CB0B921BBB41002B04D108D1ED
:10B9D000F423FF339A4204D904F08CFC0120404246
:10B9E00000E040461CBC90469946A246F0BDC046C9
:10B9F000E880000000000000A04B0020C046C046C8
:10BA000000B583B06846073004F054FC002802D12A
:10BA10006B46D87901E00120404203B000BDC0462A
:10BA200000B583B06946073104F074FC002802D1E8
:10BA30006B46D87901E00120404203B000BDC0460A
:10BA400072DF704773DF704774DF7047A0DF7047A5
:10BA500060DF704768DF704708B506F0ADFA08BDD3
:10BA600038B50024064D2B19DA79002A03D01B695A
:10BA7000002B00D098471434502CF4D1002038BD4E
:10BA80000029002030B58FB003282CD86946373103
:10BA9000164BDB7A0B700CAA154B84002518AD00F1
:10BAA0005D19AD8815802418A4001B199B7993702B
:10BAB000002300930293049305930693079308933E
:10BAC00009930A930B9306236C46E37001910123BB
:10BAD00023810392022800D1A3706846002104F05C
:10BAE000DFFE80B200E003480FB030BDB843002055
:10BAF000002900206280000030B597B010AC02230E
:10BB0000237015236370124D291C6C316846423036
:10BB1000152208F0C2FA0DAA8223EB5A13801723CC
:10BB200093800F9401A80023019343608360C36056
:10BB3000036143618361C36103628362C36204235F
:10BB4000C3704262002104F0ABFE80B217B030BD7A
:10BB5000B843002070B592B0061CFFF775FF0CAC1F
:10BB600000230C930D930E930F9311934C4DA88FBC
:10BB7000C000052107F07AFF2082EB8F6382002E40
:10BB800004D00CAB474A1A8200225A82444A492305
:10BB9000D15C052900D980E08B00434AD3589F46E9
:10BBA0003F4B1B7D0020DA0704D5042149233C4A82
:10BBB000D15402203A4B1B7D9A0704D50521492315
:10BBC000374AD1540320FFF75DFF031C002B38D008
:10BBD00064E03648C17F00220023FFF731FF83B2C3
:10BBE000181E2ED05AE02F23314AD05C431E9841B4
:10BBF0004000FFF747FF031C002B22D04EE04323F9
:10BC00002B4AD35C0020002B00D00320FFF73AFF23
:10BC1000031C002B15D041E00CABA0221A8200229D
:10BC20005A82FFF769FF031C002B0AD036E000F0B0
:10BC300013FF002803D00120FFF724FF01E000F0EC
:10BC400011FF002300930193029303930493059340
:10BC500006930793089309930A930B93154808F0EA
:10BC6000BFFC00231D2282425B4101336A461370F0
:10BC7000104808F0B5FC00231D2800D91D236A4692
:10BC800053700020694604F00BFE83B2181E05D1E4
:10BC90000CA8FFF7D7FE80B200E0072012B070BDFD
:10BCA000B84300206A030000046E02002444002010
:10BCB0000029002004440020F0B55F4656464D465A
:10BCC0004446F0B48BB008A87B4B021C12CB12C2C6
:10BCD000FFF7BEFE83B2181E00D0E5E0774804F0FF
:10BCE000B1FB83B2181E00D0DEE0754804F0B4FB4F
:10BCF00083B2181E00D0D7E080235B055B6B022B5C
:10BD000011D101AC201C0021082208F0CFF92278C3
:10BD10000123134323700120211CFFF79BFE80B2F7
:10BD2000002800D0C0E000F06DF900F0E9FA01F061
:10BD300079FB644B644A127DD007C00F2F21585401
:10BD40009207D20F43215A541C1C1E1C5036012747
:10BD5000251CE379002B0FD02068002801D1A771A2
:10BD600005E001F08DFAA071012800D89BE0AB68D6
:10BD7000002B01D0A87998471434B442E8D1B823F5
:10BD8000514AD35C002B00D183E0002693469146B4
:10BD900073009B19DB005B44BC339A461B7D012B6F
:10BDA00006D0504601F06CFA53461875012870D938
:10BDB0005446238A69460B80237D8B7001205246AE
:10BDC0001232FFF743FE80B2002862D1B9233E4C05
:10BDD000E35C002B55D000253427A0463C1C6C4367
:10BDE0004C44AD34FF342378B34243D1237DDB068A
:10BDF000DB0E012B0BD0201D01F042FA1F2318404F
:10BE0000237D1F22934303432375012832DD01A8BC
:10BE10000023019343608360C360036143618361D6
:10BE20005246538A03806378837063888380237DBE
:10BE3000DB06DB0E8371037A032293430222134352
:10BE40000372231C1833C360637D0382A37D438286
:10BE5000E37D8382C3780F229343012213430F2291
:10BE6000134010221343C370211C2C3101F032FA0D
:10BE700000280ED10135EDB2B9234446E35CAB4254
:10BE8000ACD80136F6B2B8230F4AD35CB34200D91E
:10BE90007EE748230C4AD35C0020002B04D0FFF738
:10BEA00059FE002000E007200BB03CBC90469946AC
:10BEB000A246AB46F0BDC0461C6E0200CDBE0100DE
:10BEC00059BA010000290020B843002070B586B09F
:10BED000051C00F063F9281C05F0ACFE281C00F0DE
:10BEE0002BFA2B88112B1FD0192B25D0102B3AD1D0
:10BEF00001200121FFF7E8FB4A231D4AD35C002BF8
:10BF000031D000230093019302930393049305938C
:10BF100003236A461370A02313826846FFF792FD3D
:10BF200080B200281FD021E001200021FFF7CCFBC8
:10BF30000020FFF70FFE16E0AB79002B13D1012094
:10BF4000FFF708FE0FE03319DA79002A04D0DB6826
:10BF5000002B01D0281C98471434502CF3D1281CF6
:10BF6000FEF77CFD02E00024024EECE706B070BD57
:10BF7000B84300200029002001207047BFF34F8FF5
:10BF8000024A034BDA60BFF34F8FFEE70400FA0565
:10BF900000ED00E077DF704778DF70477ADF7047A9
:10BFA0007CDF704784DF7047A7DF704762DF704730
:10BFB0007047C04608B5021C0B78122B10D0D9B2BE
:10BFC000122902D8112B05D016E0142B0FD0212BEB
:10BFD0000DD011E00948111C042208F05EF80BE0B6
:10BFE000064805F027F9064805F024F904E004485E
:10BFF000111C042208F051F8002008BDFC3000207C
:10C00000F430002030B58BB0434805F013F94348B5
:10C0100005F010F9FFF7B0FF40080124204001AB04
:10C02000187003AB002205923D4A039201221A7157
:10C030000D225A7107229A711022DA71FFF79CFFC4
:10C04000044209D001A804F04FFF80B2002803D1B8
:10C05000344803A904F0E4FF334C201CFFF7A6FF8B
:10C060002278324B1A70324B0B201856FFF792FF92
:10C0700083B2181E4ED1FFF77FFF031C0020D907A3
:10C0800048D56A4613780F229343012213430F22A7
:10C090001340102213436C462370264C201C08F0DA
:10C0A0009FFA82B26846211CFFF77AFF83B2181EFE
:10C0B00030D149231E4AD35C0020042B00D11E48F6
:10C0C000FFF76AFF83B2181E24D101AC184D288FE8
:10C0D0008000052107F07CFC2080688F800005210E
:10C0E00007F076FC60800023A38096235B00E3804A
:10C0F000201CFFF753FF83B2181E0BD103A80F4A71
:10C10000031C32CA32C332CA32C312681A6005F045
:10C110004BFD80B20BB030BDFC300020F43000206D
:10C12000B5BF0100F83000200131002000310020AF
:10C13000B843002004440020C1030000606E0200E8
:10C14000014B18887047C04650290020014B002041
:10C1500018567047F0300020054B1B78FF2B05D098
:10C16000034B9878FF38431E984100E00020704749
:10C17000F430002000B585B00023009301930293B2
:10C18000039301236A4613700348694604F0E6FFEF
:10C1900080B205B000BDC046F430002010B5041CCC
:10C1A000FFF7EAFEC30702D5201C05F043F92388F8
:10C1B000112B2DD004D8012B09D0102B14D040E026
:10C1C0001A2B34D0522B36D0182B3AD133E01D4BDA
:10C1D0001B7801331C4A11781A1CDBB28B4200D940
:10C1E0000A1C184B1A702CE0A288184B1A80FFF713
:10C1F000C3FEC30705D5154B188801210022FFF7A0
:10C20000D1FE022001F082FF012001F073FF18E04F
:10C21000012252420D4B1A800B4B1A78094B1A70AF
:10C22000012001F073FF022001F064FF09E0A27910
:10C23000074B1A7005E0054B18880C21054AFFF7DB
:10C24000B3FE10BD00310020013100205029002034
:10C25000F0300020FFFF000008B5FFF78DFEC30798
:10C2600004D5034804F020FF80B200E0014808BD77
:10C27000F83000206380000008B5011C054B1A88C7
:10C280000820054B9A4203D0044804F0E1FF80B235
:10C2900008BDC04650290020FFFF0000FC300020F0
:10C2A000024B1878431E9841C0B2704700310020FD
:10C2B000024B1A78013AD2B21A707047003100204E
:10C2C00044DF704711DF704713DF704774DF70473A
:10C2D00076DF704708B5FFF733FF084B984204D06C
:10C2E000FFF72EFF1321FFF7F3FFFFF7EFFF01200A
:10C2F0000021FFF7E9F905F095FC08BDFFFF0000FC
:10C3000010B584B0FFF7C8F901A90880074B4B604E
:10C3100000238B60064806F029FA84B2002C02D173
:10C32000044806F011FA201C04B010BDD925020003
:10C3300004310020D5C2010008B5011C014806F0F7
:10C340008DFB08BD04310020064C064D061C064F2F
:10C35000F0B40024002500260027F0B4034800476D
:10C3600070470000FFFFFFFF00000021F9FFFFFF03
:10C370000A4B0B4AD22189005A50C22189005A50D7
:10C38000016881F3088840680022EFF305839A4230
:10C39000DAD1044CA64600477047C0460010014061
:10C3A00001000100FFFFFFFF10B5FFF793FFB12071
:10C3B000FFF786FF83B2181E19D1FFF783FF83B200
:10C3C000181E14D10A4B5869FFF77EFF84B2201E55
:10C3D0000DD1084B8021C903C02252009950196821
:10C3E00080229950024B5869FFF7C2FF201C10BDF4
:10C3F0000010001000E100E072DF704777DF704747
:10C40000A0DF7047A4DF7047A8DF704730B589B060
:10C41000051C854C201C00214E2207F047FE0023FE
:10C420002371824A928F6280814A137007A9822306
:10C430009B010B808D700120221CFFF7E1FF83B26E
:10C44000181E00D0EEE001930293059306937649FF
:10C450000B886846038007AB9B7883710123112208
:10C46000C270744A828006220272022282700A1D01
:10C470000392838243820382063100F02BFF031C68
:10C48000002B00D0CEE06C4B68468380037A0322F9
:10C49000934302221343037208238370674B039371
:10C4A0000123038210234382002383825E490E31DD
:10C4B00000F010FF031C002B00D0B3E0604B694676
:10C4C0008B800B7A03229343012213430B720023C8
:10C4D00008228A700393012268460A8210224A8247
:10C4E0008B825149163100F0F5FE031C002B00D061
:10C4F00098E0544B68468380027A03239A430223D0
:10C500001A4302720822134383704F4B0393012294
:10C51000028212224282A63BA5229B5C8382424970
:10C520001E3100F0D7FE031C002B7BD1474B6A461F
:10C530009380127A03239A4302231A4368460272B5
:10C54000082213438370424B039301238382438267
:10C5500003823549263100F0BDFE031C002B61D15A
:10C560003C4B69468B800A7A03239A4302231A4381
:10C570000A72082213438B70374B039304238B8278
:10C5800068464B820B8228492E3100F0A3FE031C23
:10C59000002B47D1314B6A469380127A03239A438A
:10C5A00002231A43684602720822134383702C4BFD
:10C5B000039301238382438203821B49363100F0B7
:10C5C00089FE031C002B2DD1264B69468B800A7AED
:10C5D00003239A4302231A430A7208221A438A70D9
:10C5E0001149CA1803926A4693826846538213829D
:10C5F0003E3100F06FFE031C002B13D11A4B68462E
:10C600008380027A03239A4301231A430272082289
:10C610008270002203928382438203820249463160
:10C6200000F058FE09B030BD34310020B84300207E
:10C630009831002081200000822000004444002026
:10C6400083200000842000005E440020852000003C
:10C650005544002086200000584400208720000018
:10C660005C4400208820000089200000F0B54F467F
:10C670004646C0B485B0041C0388512B00D054E159
:10C680008379022B00D050E1028BAA4B1B889A427F
:10C6900000D04AE1837A012B00D046E1038AA64903
:10C6A0005A1892B2012A25D8A24A1279002A15D026
:10C6B0009C23A24AD25C038C934200D02DE122300D
:10C6C0009F4907F0DBFC002800D026E1228A9A4B24
:10C6D000D21853425A41974B1A7114E1994A934226
:10C6E00000D01AE1038C013B9BB200220E2B00D834
:10C6F000EFE012E18F4B1B79002B00D00DE102E13E
:10C70000218CA5238D4AD15402F036F900228E4B9C
:10C710001A70DEE002F030F90022DAE0238C042BFC
:10C7200000D0C4E00023271C08372025A946102686
:10C73000B0460421FA18907EC2B2151C4E46B5438D
:10C740006DB228350CD0161C4546AE4376B2143671
:10C7500006D08A4352B2103202D0884300D0A9E0FA
:10C760000133042BE6D1754BA4229A5CA218203227
:10C7700095780B2159566BB20022994200D1A8E05E
:10C78000181CFFF73BFE6D4BDD7202F0F5F800223E
:10C790009FE0238C012B00D08FE02223E35C032B4E
:10C7A00000D98DE0A42265498A5C9A4200D18AE0D2
:10C7B0000A1CCB1898331D7A0B2151566BB20022FC
:10C7C000994200D185E0181CFFF718FE5B4BDD7223
:10C7D00002F0D2F800227CE0238C022B02D00E2241
:10C7E000FF3276E06846211C2231022207F055FC18
:10C7F00069460A88002A06D1002149234F4AD154AC
:10C8000002F0BAF81DE0131C132A00D814239AB2C0
:10C81000A02189018A4201D9A0239B019AB26D46C9
:10C820002B80444B5B88002B00D079E0434B0320E6
:10C83000492158549B8F934201D0404B9A8702F074
:10C840009BF8002245E0238C012B3ED12223E35CA0
:10C85000002293423DD0394D281C8C30111C2C22D3
:10C8600007F024FC10229C23EA54EE229F23EA5472
:10C870000422A023EA54FC22A223EA54F422A32394
:10C88000EA540122A423EA540A22A523EA54281CCC
:10C89000A6302E490B2207F000FC281CB1300021E5
:10C8A000072207F003FC02F067F8002211E00E22D5
:10C8B000FF320EE00422FF320BE00E22FF3208E0CE
:10C8C0000422FF3205E0002203E00E22FF3200E0E6
:10C8D00000220023009301930293039302236E46E8
:10C8E00033706946B280A088FFF78EFD228A184B0C
:10C8F0009A421AD10F4B5B88002B16D00F4B9A8FA0
:10C900000C4B5A8011E0238A124A9B189AB2052ACE
:10C91000DED89300104AD3589F4684225200D8E7AD
:10C92000064B9B8F934288D18BE705B00CBC904699
:10C930009946F0BD343100207EDFFFFFB843002070
:10C94000444400208220000098310020946E0200B0
:10C95000882000007CDFFFFF7C6E020000000000EA
:10C9600070B5154B1B78002B1FD0144CA568144BC9
:10C97000186859680F4B0E4A07F0DAF84E04C20BDC
:10C980003243CB0B20686168121A8B41002B01D116
:10C9900095420AD80022084B1A70FFF7D1FB094BC9
:10C9A000984202D10020FFF7D5F8002070BDC046A4
:10C9B000E88000000000000098310020883100204D
:10C9C000A04B0020FFFF000030B583B0031C0C1CFF
:10C9D0000B4D281C191C221C07F05FFBA63DA5234C
:10C9E000EC54FFF7ADFB074BD98B00230093019369
:10C9F0006B461C806A46FFF705FD80B203B030BD70
:10CA00005E4400203431002010B5002814D00122EB
:10CA10000D4B1A700D4CFA239B005843A0600C4B31
:10CA200018685968074B064A07F082F84B04C00B98
:10CA300018432060C90B616010BDC046C046C046A7
:10CA4000E8800000000000009831002088310020BC
:10CA5000A04B0020C046C046014B18787047C04626
:10CA60009831002030B589B001AB002203920492C6
:10CA700005920692079203221A705A70184959803B
:10CA8000184AA520105C0530187116205871D980FD
:10CA9000102119729F21515C59729E23D35C002B87
:10CAA00005D001AB104ADA805A8000221A7201AC1C
:10CAB0000E4D68460E30291C122207F0EEFAA63DF4
:10CAC000AA8F0B4B5A8021782379C9180231C9B239
:10CAD000201C00220023FFF78FFC09B030BDC046A8
:10CAE000AAFEFFFFB8430020D8FEFFFF5E440020EF
:10CAF00034310020A0DF7047A5DF7047A6DF704704
:10CB000010B58AB0FFF71CFB194B98422ED0FFF7E7
:10CB1000C7FB00282AD017486946133101F09CFB57
:10CB2000002823D06B46DC7C124805A9221C01F0AA
:10CB3000D7FB84421AD104AB6A46133212781A80AA
:10CB40000022009201920C4A528869460A80012212
:10CB50008A70029305AB0393FFF7F2FA6946FFF779
:10CB6000CDFF80B2002801D1FFF7A2FB0AB010BDB3
:10CB7000FFFF000064290020A031002030B589B0FB
:10CB8000051C1F4C201C00210A2207F08FFA07A960
:10CB90001C4B0B808D700120221CFFF7ABFF83B272
:10CBA000181E2BD1184800F06BFB00230193029351
:10CBB00003930593069312490B886A461380162344
:10CBC00093702123D370114B9380907101231372C2
:10CBD0001382142353820231684600F07BFB031C4E
:10CBE000002B0BD10A4801F029FC0A4801F026FC71
:10CBF00009480121094A03F019F880B209B030BD93
:10CC0000A03100205A0E0000A86E0200DBE5FFFFF5
:10CC100064290020542900209C31002001CB010010
:10CC200008B50388112B0AD0502B13D0102B2ED10E
:10CC3000174B18686021002203F030F827E01548F0
:10CC400001F0FCFB144801F0F9FB114B186803F0EC
:10CC50007BF81CE0C388114A52889A420AD1011C11
:10CC60002031C28B0C4801F0CFFB8020C00001F0C6
:10CC700041FA0CE0094AD2889A4208D1C38B022BB0
:10CC800005D1FFF769FA002801D0FFF773FA08BD54
:10CC90009C3100206429002054290020A03100206C
:10CCA00030B585B06C460025E5800634FFF748FABC
:10CCB000064BD98802AA0223138055805460FFF7DF
:10CCC0001BFF23880120184005B030BDA031002093
:10CCD000F0B5474680B48AB0061C6B46D97307206E
:10CCE000002900D199E0FFF72BFA021C0020504BDD
:10CCF0009A4200D191E0FFF7D3FF031C0820002BDC
:10CD000000D18AE0FFF7CCFA002821D0494B1B89DB
:10CD10009BB2002B1CD16B466A460F321278DA8226
:10CD2000163306AC002206920792434A52882280AC
:10CD30000122A27008930996FFF702FA211CFFF75F
:10CD4000DDFE80B2002868D1FFF7B2FA002064E06F
:10CD50003A4B18685968354B334A06F0E9FE4F04E0
:10CD6000C00B031C3B430093C90B0191314B1A8943
:10CD70009B889A1A92B26B460F331B7801339A4202
:10CD80003ADA2C4F2D488046012006F0C9FD3B8938
:10CD9000BA88D21A92B26B460F331B7801339A428B
:10CDA00016DA424610685168204B1F4A06F0C0FE52
:10CDB0004B04C40B1C43CD0B221C2B1C0098019967
:10CDC000121A8B41002B25D1DED1C72ADCD921E0F4
:10CDD0001A4B18685968154B134A06F0A9FE4C0403
:10CDE000C20B2243CB0B00980199121A8B41002BE6
:10CDF00012D101D1C72A0FD80E4C6D460F35201C19
:10CE0000291C01F0B3FA2A78201C311C01F0FCFA2D
:10CE1000002002E0042000E004200AB004BC904698
:10CE2000F0BDC046C046C046E880000000000000DB
:10CE3000FFFF000064290020A0310020A04B00204B
:10CE4000A0DF7047A6DF7047F0B58BB0334B1B787F
:10CE5000002B60D1FFF774F9314B98420BD1314868
:10CE600001F0ECFAFEF75CFD022854D1002000210D
:10CE7000FEF72AFC4FE0FEF753FD022847D1294B6D
:10CE80001B899BB2002B04D0274B1B899BB2002B24
:10CE90003DD1FEF745FD022839D100200021FEF7E3
:10CEA00013FC34E0281C05A9142201F019FA6B4682
:10CEB000588000282FD03870FEF732FD022803D1A9
:10CEC00000200121FEF700FC01AC00230193029336
:10CED00003930493154A938823800123A3706B4620
:10CEE0000233039305AB0493FFF72AF9211CFFF7E4
:10CEF000A9FF80B200280ED1FFF7DAF9731EDEB267
:10CF0000002E08D0FFF7CCF90028CBD103E007268C
:10CF1000044D074FF6E70BB0F0BDC046C831002006
:10CF2000FFFF00007429002084290020B031002078
:10CF3000C931002030B589B0051C344C201C0021BB
:10CF4000142207F0B3F8A57007A901230B808D7098
:10CF50000120221CFFF774FF83B2181E54D10193E5
:10CF600002930393059329490B886A46138007AB04
:10CF70009B78937101231382142353822123D3704E
:10CF8000032393801023937001231372204B069385
:10CF90000431684600F09EF9031C002B34D10223B3
:10CFA0006A46938008239370137A032293430222E4
:10CFB00013436A46137200230393164B0693684685
:10CFC00012490C3100F086F9031C002B1CD11248C9
:10CFD000124906F023FE031C114A10600520002BA5
:10CFE00012D0181C002107F097F90E4801F026FA1C
:10CFF0000D4801F023FA00220C4B1A700C48012155
:10D000000C4A02F013FE80B209B030BDB0310020EE
:10D01000BC6E0200C06E0200C46E0200CC6E020044
:10D02000B43F00207429002084290020AC31002066
:10D03000C431002049CE010000B583B006486946DE
:10D04000073101F009F9002802D06B46D87901E0D8
:10D050000120404203B000BD8429002000B583B008
:10D06000011C07486A46073201F054F9002802D033
:10D070006B46D87901E00120404203B000BDC046B4
:10D0800084290020014B188980B270478429002030
:10D09000014B188980B270477429002000000000FD
:10D0A000F0B54F464646C0B483B06B46D871FFF723
:10D0B00047F8334B984251D0324B186859682F4B80
:10D0C0002D4A06F035FD4B04C60B1E43CF0B2E4BED
:10D0D0001A8992B29B88934233D12B498846294AB8
:10D0E0009146052006F01CFC41460B899BB28A88BC
:10D0F0009A4214D14A4610685168204B1E4A06F0E5
:10D1000017FD4B04C40B1C43CD0B221C2B1C921B84
:10D11000BB41002B25D1E4D1C72AE2D921E0194B2C
:10D1200018685968154B144A06F002FD4C04C20BEE
:10D130002243CB0B921BBB41002B15D101D1C72A37
:10D1400012D8124D01232B706C4607340E48211C57
:10D1500001F00CF900232B70207807E001204042F9
:10D1600004E00120404201E00120404203B00CBC39
:10D1700090469946F0BDC046E880000000000000DF
:10D18000FFFF0000A04B002074290020C8310020C0
:10D1900008B50388102B08D002D8012B34D043E007
:10D1A000112B09D0502B17D03EE0204B18681121CD
:10D1B000002202F073FD37E01C4B186802F0C4FD3A
:10D1C0001B4801F03BF9FEF7ABFB02282CD10020F5
:10D1D0000021FEF779FA27E0C288164B9B899A4214
:10D1E00022D1011C2031C28B134801F00DF9FEF74A
:10D1F00097FB022803D100200121FEF765FA802069
:10D20000400000F077FF0FE0027A0C4B1B789A4247
:10D210000AD1FEF785FB022803D100200021FEF78A
:10D2200053FA0022054B1A7008BDC046C4310020D5
:10D2300074290020B031002084290020C931002049
:10D24000014B18787047C046AC31002008B5064B3A
:10D250001A7801218A1A1A70044801F0EFF804487C
:10D2600001F0ECF808BDC046AC3100207429002064
:10D2700084290020A2DF704763DF704764DF7047B6
:10D2800010B586B000226B46DA7100235942C218ED
:10D29000D47B02AA8C54013B1A1C1032F6D102A88E
:10D2A00000234373037369460731FFF7E5FF83B239
:10D2B0000F2B08D1102002A96A46FFF7DFFF6B464B
:10D2C0009A78DA7102E00020002B01D16B46D87900
:10D2D00006B010BDF0B5474680B490B0041C0D1CDC
:10D2E000C378002B08D10F229343012213430F224E
:10D2F000134010221343C370484B5B7B002B09D1B2
:10D30000E3780F229343012213430F22134010228C
:10D310001343E370A37830221A4217D00FAE301CAB
:10D320000021032206F0C2FEB378062293430222B4
:10D330001343B37033780F229343012213430F2218
:10D340001340102213433370E378737008AA00204F
:10D35000089009900A900B900C900E90A37813708F
:10D3600000223021194200D00FAA0D9207AA0023F3
:10D3700013801123137002239370A06900280BD02F
:10D380000378002B08D008AE099007F029F980B285
:10D390003081708107AB336106AB00221A80618A4D
:10D3A000268A761A771EBE4101221640207A03276C
:10D3B00007407F00F6B2B446C6081640F600B046F5
:10D3C0006646374380080240100142463A43024312
:10D3D0009A70A37832221A4202D0E07806AA10701E
:10D3E0000C221A4202D0E27806AB5A7001AA00233E
:10D3F0009360D360231D019306AB5360A38A13810E
:10D400009181E3681361208808A92B1CFFF732FF84
:10D4100080B210B004BC9046F0BDC046B8430020B6
:10D42000A0DF704710B594B012A83C49042206F062
:10D4300034FE012012A96A464E32FFF7F1FF83B293
:10D44000181E68D10BAC0C930D930F93109311938E
:10D450006B464E331B8823800223A3700122A271E6
:10D4600023721123E3702E4BA3802E480E9007F0F9
:10D47000B7F880B2A08260822082201C09A9FFF741
:10D4800029FF031C002B46D10BAC274BA380274858
:10D490000E9007F0A5F880B2A08260822082201C46
:10D4A00007A9FFF717FF031C002B34D10BAC204B4F
:10D4B000A38020480E9007F093F880B2A08260828B
:10D4C0002082201C05A9FFF705FF031C002B22D199
:10D4D0000BAC194BA38001F0E1FCE06007F080F891
:10D4E00080B2A08260822082201C03A9FFF7F2FE96
:10D4F000031C002B0FD10BAC104BA38001F0B4FC2C
:10D50000E06007F06DF880B2A08260822082201C6B
:10D5100001A9FFF7DFFE14B010BDC046D06E0200B7
:10D52000292A0000D46E0200242A0000FC6E0200AA
:10D53000282A0000E86E0200262A0000272A0000A0
:10D5400010B50C1C0B78022B0DD1FEF705FE002840
:10D5500001D0FEF70FFEE379022B04D1024800212F
:10D56000052206F0A3FD10BDCC310020F0B54F46DA
:10D570004646C0B49BB014AC00226260E2606261B7
:10D58000082323800123A370E3702121217161719D
:10D5900002212181A172E37221212173617305218E
:10D5A000218203218946A174E374212121756175CB
:10D5B00012AF13923B80BB700223FB7021237B715F
:10D5C00001250F2290462026BB7168460021482283
:10D5D00006F06CFD304B0093304B1B7DDB07DB0FFF
:10D5E00069460B724B724A468A7203940D74059712
:10D5F0002B4B0893A9238B8442462A4032432C2389
:10D60000CA540223FF336A460B8633234946D1545A
:10D6100042462A40324334236946CA5442462A408D
:10D6200032433C23CA5442462A4032433D23CA5423
:10D6300042462A4032433F23CA5442462A4032439C
:10D640004023CA5442462A4032434123CA544246E8
:10D650002A4032434323CA5442462A403243442399
:10D66000CA5442462A4032434623CA5442461540D1
:10D670002E434723CE540B4805F0CCFD84B2002C3A
:10D6800004D109480021052206F010FD201C1BB022
:10D690000CBC90469946F0BD41D50100B84300202E
:10D6A000086F0200D4310020CC31002008B5011CE5
:10D6B000014805F0A5FC08BDD431002000000000A1
:10D6C000F0B5474680B482B0061C0F1CFEF738FD4B
:10D6D0000823354A90425ED068460021082206F0B1
:10D6E000E5FC6A46177073B2002B02DB2F4B9B5D83
:10D6F00000E000236A469370FEF7D2FD00283CD17B
:10D700002B4B18685968274B254A06F011FA4B0431
:10D71000C60B1E43CF0B264B984602E0192006F09D
:10D72000FFF8FEF7BDFD002815D14246106851688C
:10D730001C4B1B4A06F0FCF94B04C40B1C43CD0BDD
:10D74000221C2B1C921BBB41002B02D1E6D1C72A05
:10D75000E4D904231FE0164B18685968114B104A8E
:10D7600006F0E6F94C04C20B2243CB0B921BBB41E3
:10D77000002B0FD101D1C72A0CD80E480021082256
:10D780006B4606F08FF884B2231E04D1FEF790FD9D
:10D79000231C00E00423181C02B004BC9046F0BD1A
:10D7A000E880000000000000FFFF0000B46F0200EE
:10D7B000A04B0020D4310020F8B54F464646C0B4F7
:10D7C0008146FEF7BDFC08232D4A90424ED0FEF75D
:10D7D00067FD00283CD12B4B18685968274B264A17
:10D7E00006F0A6F94B04C60B1E43CF0B254B9846FB
:10D7F00002E0192006F094F8FEF752FD002815D13A
:10D800004346186859681D4B1B4A06F091F94B04B2
:10D81000C40B1C43CD0B221C2B1C921BBB41002BA9
:10D8200002D1E6D1C72AE4D904231FE0154B1868BA
:10D830005968124B104A06F07BF94C04C20B224384
:10D84000CB0B921BBB41002B0FD101D1C72A0CD8A7
:10D850000D48002108224B4606F024F884B2231E0E
:10D8600004D1FEF725FD231C00E00423181C0CBC8A
:10D8700090469946F8BDC046E880000000000000D0
:10D88000FFFF0000A04B0020D4310020C046C0465E
:10D89000F0B5474680B4061CFEF752FC0823364A12
:10D8A000904261D03378FF2B0AD1344F3B789846B1
:10D8B000381C311C052206F0F0FB43463B7004E0A7
:10D8C0002E48311C052206F0E8FBFEF7E9FC002893
:10D8D0003CD12B4B18685968264B254A06F028F98D
:10D8E0004B04C60B1E43CF0B254B984602E0192074
:10D8F00006F016F8FEF7D4FC002815D14346186848
:10D9000059681C4B1A4A06F013F94B04C40B1C430C
:10D91000CD0B221C2B1C921BBB41002B02D1E6D14C
:10D92000C72AE4D904231FE0154B18685968114B26
:10D930000F4A06F0FDF84C04C20B2243CB0B921B9E
:10D94000BB41002B0FD101D1C72A0CD80D480221B1
:10D9500005220A4B05F0A6FF84B2231E04D1FEF770
:10D96000A7FC231C00E00423181C04BC9046F0BD57
:10D97000E880000000000000FFFF0000CC31002024
:10D98000A04B0020D4310020F8B54F464646C0B425
:10D990008146FEF7D5FB08232D4A90424ED0FEF774
:10D9A0007FFC00283CD12B4B18685968274B264A2E
:10D9B00006F0BEF84B04C60B1E43CF0B254B984612
:10D9C00002E0192005F0ACFFFEF76AFC002815D133
:10D9D0004346186859681D4B1B4A06F0A9F84B04CA
:10D9E000C40B1C43CD0B221C2B1C921BBB41002BD8
:10D9F00002D1E6D1C72AE4D904231FE0154B1868E9
:10DA00005968124B104A06F093F84C04C20B22439B
:10DA1000CB0B921BBB41002B0FD101D1C72A0CD8D5
:10DA20000D48012102224B4605F03CFF84B2231E23
:10DA300004D1FEF73DFC231C00E00423181C0CBCA1
:10DA400090469946F8BDC046E880000000000000FE
:10DA5000FFFF0000A04B0020D4310020C046C0468C
:10DA600022DF704723DF7047F0B54F464646C0B40B
:10DA7000404AA023DB00D05884460021D150A02387
:10DA8000DB05E622D200995889463B4999503B4A2A
:10DA9000985880469950A122D2008021890199503E
:10DAA00080214901995004200138C046C046C04633
:10DAB000C046C046C046C046C046C046C046C04636
:10DAC000C046F1D1A223DB00A022D205D35899048D
:10DAD00007D5A223DB00A022D205D3580120DA0407
