:020000021000EC
:1080000000800020115102007551020077510200DA
:108010000000000000000000000000000000000060
:108020000000000000000000000000007951020084
:1080300000000000000000007B5102007D510200A2
:108040007F5102007F510200E11602007F510200C1
:10805000D988010000000000950802007F5102004D
:108060007F5102007F510200898601007F5102008A
:108070007F5102007F5102007F5102007F510200B8
:108080007F5102006D0C02007F5102007F510200FF
:10809000A50D0200E9430200C91B02007F51020046
:1080A0007F5102007F51020000000000000000002C
:1080B00000000000000000000000000000000000C0
:1080C000164B002B00D1144B9D46402292029A1A67
:1080D000924600218B460F461348144A121A0EF09E
:1080E0004EF80F4B002B00D098470E4B002B00D0C2
:1080F00098470020002104000D000D48002802D000
:108100000C4800E000BF0DF093FF2000290001F0B3
:1081100025FE0DF019FDC04600000800008000207B
:108120000000000000000000682A0020E455002044
:108130000000000000000000094B9B691840094B3B
:108140001A6802431A60002808D0054BDB7D002B1B
:1081500004D08021044BA022D205D1507047C046E4
:1081600090420020682A00200C050000094A13688C
:10817000834313600DD1084B1B68002B09D1074BBB
:10818000DB7D002B05D08021A123DB00A022D205BE
:10819000D1507047682A00206C2A002090420020AD
:1081A000094BDB691840094B1A6802431A60002822
:1081B00008D0054BDB7D002B04D08021044BA0228E
:1081C000D205D1507047C046904200206C2A002052
:1081D0000C0500000A4B1A6882431A60094B1B68A1
:1081E000002B0BD1002A09D1074BDB7D002B05D0DA
:1081F0008021A123DB00A022D205D1507047C046C8
:108200006C2A0020682A00209042002010B588B017
:10821000012902D902290AD020E0194B9C69DB69A7
:10822000101C1849221C0DF0EFFC002026E0002352
:108230000093019302A902938B60CB604B610323EF
:108240000B7000AA4A600B7301AB0B61022202F0B3
:108250002FFF0138C0B2012804D901E00A480DE01F
:1082600009480BE0064B009A99690A439A61019A02
:10827000D9690A43DA6101F037FE002008B010BD69
:1082800090420020C08102006280000000B589B0E9
:10829000022917D1002307930693009302930393B7
:1082A0000593032369460B7007AA01920B7306AB73
:1082B0000493022202F0FCFE0138C0B2012803D967
:1082C00008480DE007480BE0074B9A6907998A4375
:1082D0009A61DA6906998A43DA6101F005FE0020A5
:1082E00009B000BD628000009042002038B501292D
:1082F00016D80C4C0C4D101C0C4922682B680DF044
:1083000083FC00232B602360094BDB7D0020002BC6
:1083100007D08021A123DB00A022D205D15000E0AC
:10832000044838BD682A00206C2A0020D48102004D
:10833000904200206280000010B5074C0123A1226A
:10834000D200A350054AA350C003FA2189000CF0C3
:1083500017FF034BE05010BD000001400C0500006A
:10836000040500000122014B1A6070470000014023
:108370000249C023DB00024AD15070473546526E95
:108380000000014030B507291CD80124231C8B4074
:1083900019020823184308430B4B0C4D5851A021D8
:1083A000C9005C50002A0DD0C122920001219950D1
:1083B000074B98580002000A8021C90501439950D3
:1083C00080221A6030BDC0460070004004050000E5
:1083D00000E100E0054B1A21054A99508022054929
:1083E0008A500121A022D2009950704700700040AD
:1083F0000405000000E100E00122084B1A60191C8E
:10840000802252008B58002BFCD0044B002180228C
:1084100052009950A122D200985870470070004035
:1084200008B5FFF7E9FFE1231B015843800A08BDA7
:108430002EDF704733DF704721DF704723DF70473F
:1084400010B5041E0F2C08D8C0B2FFF7F7FF0120AB
:10845000A040FFF7F1FF201C01E00120404210BDC9
:10846000F8B55F4656464D464446F0B40378013BA6
:10847000022B00D9A0E0437B042B00D99FE09B0096
:10848000634AD3589F460921A223DB00614AD15099
:108490006422614B1A6023E00821A223DB005D4ABD
:1084A000D150FF225C4B1A601AE00521A223DB00A9
:1084B000584AD150FA229200574B1A6010E002211C
:1084C000A223DB00534AD1506422534B1A6007E0C9
:1084D0000021A223DB004F4AD150FF224E4B1A60ED
:1084E00006784E4B1E60002E6CD0021C00234C49B7
:1084F0008A46A021C90589460324A046494DAC46B9
:108500009B465478990055464C51C134FF34A40021
:1085100045464F46E5515C466746CC51917A424DFF
:108520005955013301329E42EBD83A4B0122DA60B1
:108530000022A121C9005A5037490C6864003B4908
:108540005C503B495A500824802189005C50A62188
:1085500049005A50A42149005A50A22149005A50BA
:10856000A02149005A50051C002300242E4FB94673
:10857000304988464A46A75CBF002F497F182879B2
:108580009B002E4A99183A1CFFF75AFF687941461A
:108590003A1CFFF755FF0134231C0235A642E9D8E7
:1085A0000A200321FFF746FF0A20FFF741FF0122BF
:1085B000184B1A60002024E00120404221E00120F5
:1085C00040421EE0134B0122DA600022A121C900C3
:1085D0005A501149086840001449585014495A50DB
:1085E0000820802189005850A62149005A50A42112
:1085F00049005A50A22149005A50A02149005A501E
:10860000CEE73CBC90469946A246AB46F8BDC04674
:10861000E481020000A00040A02A0020782A002067
:10862000882A0020942A0020742A00204C0500008B
:10863000040500004CA100400060004040A1004043
:1086400080000E4BC1500E4B0021A62252009950C3
:108650000C49802292009950C12292009B581A0323
:1086600007D4074B01225A6080210903C1229200DE
:1086700099500122024B1A607047C0467C2A0020A4
:1086800000A0004008080000F0B5454A0023A621DC
:108690004900535001204042C22189005050414AB4
:1086A0001360414B1B68002B72D000233F4D404E9E
:1086B000141C9A005259002A15D13E4AD75C4537FE
:1086C000FF37BF003C493D4AB9509B003C4A9A588D
:1086D0000127391C91403B4AA027FF05B9500027CC
:1086E000394A9F504CE03068824216D33149CF5C02
:1086F0004537FF37BF003049304AB9509B00304AF8
:108700009A580127391C9140A122D200A027FF05C9
:10871000B95000272C4A9F5032E05100A820400059
:108720001A1892001E4FD1519A0027495258002A18
:1087300026D1204AD75C9B0021481A580123181CD7
:108740009040A123DB00A021C905C850BB001B49F4
:108750005B181E49A227FF00D951C046C046C0463B
:1087600001271F6012021A4F3A43A227FF00DA5175
:10877000C046C046C04622689300012212481A50E3
:10878000084A136801331360074A12689A4290D866
:10879000034B082180229200995001221A60F0BDFB
:1087A00000A00040702A0020782A00207C2A0020A7
:1087B000A02A0020742A0020001F0300006000404F
:1087C000882A00200C050000942A0020031F0100C5
:1087D00003001300002804D110218023034AD15044
:1087E00002E01022014B1A607047C04600E100E031
:1087F00070B5061C0A1C0020002910D0084B9D886B
:108800001C1C2389EB1A9BB29A42FAD8054C1025FE
:108810008023E5500248311C00F0C2FB256070BD8A
:108820000029002000E100E038B5044C1025802329
:10883000E550034800F0CEFB256038BD00E100E0C4
:1088400000290020014B188980B2704700290020C0
:1088500000B583B06B46D8710733181C0121FFF7B0
:10886000C7FF002802D06B46D87901E001204042C2
:1088700003B000BD00B583B00C486946073100F075
:10888000D5FA00280AD101F003FE042809D10020FE
:10889000002101F0BDFC0120404204E06B46D87984
:1088A00001E00120404203B000BDC046182900206D
:1088B00000B583B0011C07486A46073200F004FB8C
:1088C000002802D06B46D87901E00120404203B075
:1088D00000BDC04618290020F0B5474680B4822369
:1088E0005B004F4AD358002B49D0131C0021822231
:1088F000520099504B4A9A58A721C9005D58954299
:1089000000D9151C002D1BD001F0C2FD04287ED11A
:108910000020012101F07CFC79E0A923DB00404A22
:10892000D358002B03D04246135DFF2B03D07118A0
:10893000381C00F0F5FA0134E4B2211EA942ECD350
:10894000374B394A9958A922D2009B5899420BD2E9
:10895000131C334AD258521AD2B2344B1A703448CC
:1089600041180DF0F3FB0AE00022304B1A7001F0C1
:108970008FFD042803D10020002101F049FC94233D
:108980005B00274AD358002B47D0002194235B007B
:10899000D150264C23782649C9181422D31A9AB2EA
:1089A000244800F077FA2378C018C0B2207000285D
:1089B00007D01B4B204A1E499950A922D20098503B
:1089C00007E0174B1C4A1D4999500021A922D200EB
:1089D0009950134B1A4A1B4999501421A722D200CF
:1089E000995001229A62114B1B78002B06D18021ED
:1089F0008904154BA022D205D1500EE001F048FDAC
:108A000004280AD10020012101F002FC05E0002128
:108A100000240E4F0B4EB0467FE704BC9046F0BDDD
:108A2000004000403C0500004C050000B82A002032
:108A3000A42A002000290020440500001429002059
:108A400034050000C02A00200C0500001829002071
:108A500010B5002874D0A023DB050168C131FF31B7
:108A600089000022CA50C168C131FF3189000C243D
:108A7000CC504168C131FF318900CA508168C13191
:108A8000FF318900CA50334B3349C4685C50A1217F
:108A9000C90084685C50A221C90044685C502F4919
:108AA00004685C50A721C9005A50A921C9005A5036
:108AB000037C012B48D0002B05D0022B46D0032B82
:108AC00040D1062300E00023427C002A0CD1012281
:108AD0001343204A22495350817C224BD150C17C00
:108AE000B823DB00D15009E01A4A1D495350817C5C
:108AF0001C4BD150C17CB823DB00D150154B002258
:108B0000822149005A50942149005A500421802260
:108B100092009950144AC12189005058FF24A04363
:108B20004024204350501020C024640010510F4CAA
:108B30005C5010600221A022D2009950002007E072
:108B40000E2005E0072003E00223BDE70423BBE776
:108B500010BDC04600400040140500000C05000098
:108B6000540500005C05000000E100E00204000084
:108B700030B587B001A8214A031C32CA32C312CAD9
:108B800012C3FFF765FF83B2181E34D1A023DB05A3
:108B900003211B4A9950802189041A4A99501A4B83
:108BA0001B68002B0DD1194819490DF021F8031C41
:108BB000154A10600520002B1DD0181C00210DF057
:108BC000A9FC144800F006FA134800F003FA00224A
:108BD000124B1A70124B134913485850A921C9005F
:108BE0005A50124A124999501421A722D200995082
:108BF00001229A62002007B030BDC046F881020011
:108C0000640700000C050000BC2A00200C82020052
:108C1000148202000029002018290020B82A002010
:108C200000400040440500001429002034050000E5
:108C3000C02A002022DF704723DF7047F0B54F467F
:108C40004646C0B4404AA023DB00D05884460021E9
:108C5000D150A023DB05E622D200995889463B4932
:108C600099503B4A985880469950A122D2008021C1
:108C70008901995080214901995004200138C0464A
:108C8000C046C046C046C046C046C046C046C046B4
:108C9000C046C046C046F1D1A223DB00A022D205C7
:108CA000D358990407D5A223DB00A022D205D358BC
:108CB0000120DA0435D41222A023DB05254F8021C0
:108CC0004901A126F600A225ED008024A401D95176
:108CD00004200138C046C046C046C046C046C04613
:108CE000C046C046C046C046C046C046F1D19951B4
:108CF00004200138C046C046C046C046C046C046F3
:108D0000C046C046C046C046C046C046F1D15859CC
:108D1000204203D1013A002AD9D101E0012000E02C
:108D20000020A023DB05E622D20049469950084ADC
:108D300041469950A023DB00034A6146D1500CBC48
:108D400090469946F0BDC046003000400D06000038
:108D5000340700000C05000010B5114BB122D20001
:108D6000985001229A6000208221490058505A618F
:108D7000191C822252008B58002BFCD0084B002279
:108D8000822149005A500749585802245C509221C8
:108D900049005A50400801235840184010BDC046B1
:108DA00000300040C404000008B5A023DB05184AC9
:108DB000E621C9005A5017495A50174B0022842106
:108DC00049005A508E2149005A500C21A122D2004C
:108DD00099500D21114A9950CC214904104A9950BB
:108DE00000201049104AFFF727FF002300280DD16B
:108DF0000120FFF71FFF0023002807D10521A02332
:108E0000DB00054AD150FFF719FF031C181C08BDF1
:108E10000C06000034070000003000400C05000084
:108E200024050000383100401C30004038B5041CD7
:108E30000D1C0368002B28D083880020002B27D02E
:108E4000E388002B24D023899BB2002B20D02369F8
:108E5000002B00D09847A189E28851432368591814
:108E6000281C0DF06AF9A0890130A1880CF02CFAB9
:108E700089B2A1812389013B9BB223812369002B05
:108E800005D001209847012002E0002000E00120E9
:108E900038BDC046F8B5061C0C1C171C0020002568
:108EA000002A06D10EE00135ADB2F388E418BD42C8
:108EB00007D0301C211CFFF7B9FF0028F3D1281C74
:108EC00000E0281CF8BDC046F0B5474680B4031C3E
:108ED000171C0468002C1FD085880020002D1CD092
:108EE000DA889046002A18D01E89B6B2002E14D017
:108EF0001A8992B28A4210D998894018291C0CF01C
:108F0000E3F90904090C434659436118381C4246E9
:108F10000DF013F9012000E0002004BC9046F0BDE4
:108F200038B5041C0D1C0368002B35D08388002045
:108F3000002B34D0E288002A31D0228992B29342A9
:108F400002D1A07B00282AD02369002B01D0002069
:108F500098476089E288504323681818291C0DF04F
:108F6000ECF86089A5880130291C0CF0ADF989B2B4
:108F7000618123899BB29D4203D163899BB2A38106
:108F800003E0238901339BB223812369002B05D0A1
:108F900001209847012002E0002000E0012038BDB8
:108FA000F8B5061C0C1C171C00200025002A06D151
:108FB0000EE00135ADB2F388E418BD4207D0301C95
:108FC000211CFFF7ADFF0028F3D1281C00E0281C6E
:108FD000F8BDC04610B5041C0369002B01D0002069
:108FE0009847002323816381A3812369002B01D04B
:108FF0000120984710BDC046F8B5031C0F1C151C76
:109000000020042B23DC5900C9188900104A8E580F
:10901000002E17D00F4A10680E21425E9A4203D0EC
:109020000024281E13DD05E0391C2A1C00F05CFB1F
:10903000281C0CE0385DB047013005D00134AC424B
:10904000F8D103E0002002E0201C00E0281CF8BD5D
:1090500020820200BC2A0020F8B50F1C161C042830
:1090600018DC430018188000104B18184568002DB4
:1090700013D0002A14D0002915D00024A847431C7F
:1090800003D038550134A642F8DC201E0DD1012052
:1090900040420AE00120404207E00120404204E053
:1090A0000120404201E001204042F8BD2082020040
:1090B00010B5041C08490DF07FFB002807D0201CC8
:1090C00006490DF079FB002803D1042003E00320BA
:1090D00001E00120404210BD188202000C82020013
:1090E00008B50E22835E042B0ADC5A00D3189B00BD
:1090F000064AD3189B68002B05D0081C984704E04B
:109100000120404201E00120404208BD20820200CF
:1091100038B50D1C114B1B68002498421CD1C9782E
:109120004906490E0431281CFFF762FB041E13D0C8
:10913000EB78DB0906D0FFF785FB8023DB00181AEC
:10914000232809D80122064B5A6280218904A123D1
:10915000DB00A022D205D150201C38BDBC2A002043
:109160000040004008B505480021802252000DF063
:1091700006F80022024B1A8008BDC046DC2A0020F7
:10918000DE2B002000000000F0B55F4656464D463D
:109190004446F0B493B0061C8B46B94B1B88002B99
:1091A00004D05822FF32934204D05CE25822FF32AE
:1091B000B34B1A80B34B1B889C2B39D004D8002B9F
:1091C00009D08F2B18D099E1AF2B00D1A5E0C02B8F
:1091D00000D129E192E1AC48002104220CF0CFFF3C
:1091E000AA480021802252000CF0C9FF0022A84B9F
:1091F0001A808F22A34B1A80301C0021FFF770FFCA
:10920000013000D138E2A34FA34B186859689B4B3B
:10921000994A0CF085F84B04C00B18433860C90B11
:10922000796005E0013705D19C22964B1A8023E234
:10923000984880467368013B7360002B06DA9749B3
:109240000868311C0DF024F9071C03E033685A1C30
:1092500032601F78102F19D043469A6891468E4B82
:1092600018685968854B844A0CF05AF84B04C40BB3
:109270001C43CD0B221C2B1C414608684968121A5E
:109280008B41002B1CD19145CCD819E0824B18683A
:1092900059687A4B784A0CF043F84B04C00B021C17
:1092A0001A430A92C90B0B917A4B9F681A685B6844
:1092B0000A980B99801A9941002901D1874203D855
:1092C0000022704B1A80D3E1724B0A990B9A1960F5
:1092D0005A60734B1B689E4205D16D4B1B88002B57
:1092E00001D1FFF7A1FA1022674B1A7001226D4BD2
:1092F0001A7012E06448C0190422D21B012153469F
:109300000CF07CFD674B1A788018C0B218700328E7
:109310000CD8AF225B4B1A80AEE1624A91465D4B9E
:109320009846B24600940195069C079D48460778EA
:10933000032F18D841468E68574B186859684F4B11
:109340004D4A0BF0EDFF4B04C40B1C43CD0B221C0C
:109350002B1C414608684968121A8B41002B21D109
:109360009642C7D81EE0564606940795009C019D7C
:10937000494B18685968414B3F4A0BF0D1FF4B04E9
:10938000C00B021C1A430292C90B0391414B9F6808
:109390001A685B6802980399801A9941002901D1E3
:1093A000874203D80022374B1A8061E1364BDB78C5
:1093B0005B065B0E102B04DD0022324B1A803A4B09
:1093C00046E1344B0299039A19605A602CE0304F01
:1093D0003B882E48C0180121321C43460CF00EFD7C
:1093E000C0B23B88C3183B80274BDA785606760E0E
:1093F000361A7F210E408A433243DA7000280DD09E
:10940000244F254B186859681C4B1B4A0BF088FFEA
:109410004B04C00B18433860C90B7960002E0CD088
:10942000C022184B1A8027E1174A9246194B9946D9
:10943000B04600940195089C099D5046C678760672
:10944000760E33D049468F68134B186859680B4B1A
:10945000094A0BF065FF4B04C40B1C43CD0B221CC7
:109460002B1C494608684968121A8B41002B3CD1D5
:109470009742ACD839E0C046E88000000000000008
:10948000DC2B0020E82B0020D42A0020DC2A00203E
:10949000DE2B002030290020D8550020602A002033
:1094A000BC2A0020D92A00202480000046460894C7
:1094B0000995009C019D7A4FBA689046794B1868CF
:1094C0005968764B744A0BF02BFF4B04C00B1843C2
:1094D0000490C90B05913A687B6804980599801A35
:1094E0009941002901D1804503D800226E4B1A8092
:1094F000BEE06E4BDB78DB0900D084E600226A4BCD
:109500001A806A4B1B78102B00D0B7E0674A93781B
:109510001B025278D3189BB2654A93420DD1802129
:109520008904644BA022D205D150BFF34F8F624A09
:10953000624BDA60BFF34F8FFEE7614A934214D16A
:10954000604B1A88604B1B68604801210CF060FD7D
:109550000DA900230D9320230B7001234B700A23C8
:109560008B705846FFF7D4FD7DE0594A934244D1B1
:109570000DAB00220D920E920F92109211922022AA
:109580001A7002225A700A229A7040226B465A863A
:109590004C4B1B88022B05D1684632304B490222C6
:1095A0000CF0CBFD00267F2500270DAC0EA8102166
:1095B00005F02CFE2B1C0340E278AA431A43E2700C
:1095C000F618B6B23A1C102B09D16B4632331B8801
:1095D000B34204D905F038FE021C501E82410DAC86
:1095E000D301E2782A401A43E2705846211CFFF763
:1095F0008FFDE378DB09D8D135E0A0221201934238
:109600003ED1304B1B885A1E3049895C0D2909D147
:109610002E48002181545A1E92B2511E405C0D28E2
:1096200003D104E00A2909D1F2E70A2805D1002074
:10963000264A5054023B9BB200E0131C214A13807F
:1096400020221A4B1A702148594600F0F5FF0AE013
:109650000DA980220A704B701B0A8B700023CB70FF
:109660005846FFF755FD00221A4B1A80002009E0EA
:10967000FFF77EFA184BEBE7184803E0184BE7E7D3
:10968000184BE5E713B03CBC90469946A246AB4662
:10969000F0BDC046C046C046E880000000000000A3
:1096A00030290020D8550020E82B0020D42A0020A3
:1096B000EFBE00000C0500000400FA0500ED00E01C
:1096C000010A0000DE2B0020D4510020DC2A0020FB
:1096D000020A0000DC2B0020A1800000A080000016
:1096E0002180000022800000F0B55F4656464D46BE
:1096F0004446F0B489B001909046534B9A781202D8
:109700005B781A4312B2A0231B019A4200D094E066
:109710000E1C8A46C2444D49894677E04A46137872
:109720005D1CEDB215703278494CE25403AB1A1C43
:10973000484991C991C209681160002403ABE25CF9
:10974000954209D3A81A424F38181B1959680DF0D1
:1097500071F8002816D119E0521BD7B203A80319DB
:1097600059688B463C4AD01B06303A1C0DF062F813
:10977000002807D15B46D91935482A1C0DF05AF844
:10978000002805D00834102CD8D103E0012402E0D1
:10979000012400E00024052D06D9063D2C49491975
:1097A0002D4806220CF0C9FC284B1A78102A05D047
:1097B000002C2AD04446002C27D12DE003AB0021F9
:1097C0000491059106910791202119701E4948784E
:1097D0005870897899701021D9700123002C02D01B
:1097E0004346591E8B4103ACD901E3787F200340E7
:1097F0000B43E37004A816490CF09FFC0198211C50
:10980000FFF786FC0022114B1A70013601277F42B8
:10981000B844564582D110E003AB00210491059174
:109820000691079120211970074948785870897866
:1098300099707F211140D970D2E709B03CBC9046A5
:109840009946A246AB46F0BDD42A0020D82A002073
:10985000EC2B00205C820200E02B002010B5028877
:10986000002A17D0406803688B4209D106E0181C13
:1098700008331A1C083A12688A4207D140680AE085
:10988000031C0833541EA4B2E4001C19A342EED1F9
:10989000002000E0002010BDF0B5474680B4051C54
:1098A0000F1C90460388002B13D00024E6006A6842
:1098B00093195868391C42460CF030FC002802D13C
:1098C0006B68985908E00134A4B22B88A342EDD804
:1098D00001E0034800E0024804BC9046F0BDC046E9
:1098E000DFFDEF7E38B580235B05DC6D2404240C9E
:1098F0000648211CFFF7B2FF002806D1044D281CA2
:109900000449221C0CF096FE281C38BD9C820200E3
:10991000FC2B0020AC82020070B5124B1C88124850
:10992000211CFFF79BFF011E05D110481049221C86
:109930000CF080FE02E00D480CF048FF0B4C201CA0
:109940000CF04CFF061C00F051FC051C00F04EFC16
:10995000A6192D0AEAB2C3B2301C06490CF06AFE01
:10996000201C70BD0C300000A4820200042C0020DA
:10997000AC820200B4820200F0B54F464646C0B445
:1099800085B0071C1D4B1A6802929A8802AB9A8018
:109990001B4B1A6800929B886A469380451C04788A
:1099A000002C1FD0061C0023984602AA91465C2C6E
:1099B0000ED1797848460CF0F3FE002808D04B46CB
:1099C000C01A6A46145CBD1C43460133DBB298469C
:1099D0000136731E1C706B1C2C78002C05D02F1CBC
:1099E0001D1CE4E7061C0023984600233370404604
:1099F00005B00CBC90469946F0BDC046BC82020042
:109A0000C482020030B50378002B0ED0074D03242A
:109A10002968CA18517821401A1C022900D1203A1D
:109A2000027001300378002BF2D130BDFC290020F8
:109A3000F8B5071C161E0ED00D1C0024381C296812
:109A40000CF090FE002801D1201C09E001340435FF
:109A5000B442F3D102E00120404201E00120404243
:109A6000F8BDC0460000000070B500F011FD0128EF
:109A700052D12D4CA5682D4B18685968294B284A9E
:109A80000BF04EFC4E04C20B3243CB0B20686168D6
:109A9000121A8B41002B01D195423DD8244B1A78E4
:109AA00001321A70002000F0E5FC0123011C59402E
:109AB000C9B2002000F0ACFB00F09EFB002806D1EC
:109AC0001B4B1B78032B02D90022194B1A7000F094
:109AD00093FB012807D1164B1B78052B03D90022D5
:109AE000134B1A7003E0124B1B78002B14D100208B
:109AF000002100F08DFB0C4CFA23DB00A3600B4B24
:109B000018685968074B064A0BF00AFC4B04C00B57
:109B100018432060C90B616070BDC046C046C04696
:109B2000E880000000000000182C0020D85500201C
:109B3000282C0020C046C04670B500F05DFB002810
:109B400008D001284ED17F4B1B685868996800F0F7
:109B5000FDFE47E07B4B1B68586800F021FE0028A3
:109B600040D1784B186842685368013B5360002B22
:109B700004DA41680CF08CFC041C04E042681368B1
:109B8000591C11601C78611C2CD006F027FD6E4B0F
:109B9000984227D06D4B1A689368013B9360002B65
:109BA00019DA91698B4210DB13681C70674B1A68D5
:109BB000136819780A2902D00133136012E0614B4F
:109BC00018680A210DF0FAFE0CE05E4B1868211CA3
:109BD0000DF0F4FE06E013681C705C4B1B681A68FD
:109BE00001321A6005F020FC00280ED0012800D0B8
:109BF000A5E006F0F3FC544B984200D19FE0534B94
:109C00001968081C00F0A2FE99E000F0F5FA00289F
:109C100047D14F4B5B7D5A0606D54C4B186800F078
:109C2000BFFD002800D08AE0484B19684B68013B13
:109C30004B60002B05DA434B18680CF029FC011C23
:109C400003E00B685A1C0A6019784B1C77D03D4B17
:109C5000186882689368013B9360002B17DA82686A
:109C6000946893699C420FDB13681970354B186830
:109C70008268136819780A2902D0013313605EE004
:109C80000A210DF09BFE5AE00DF098FE57E0836824
:109C90001B6819702B4B1B689B681A6801321A608D
:109CA0004DE02B4B5B7D5C0649D505F0CDFAC4B287
:109CB000032C44D9FF250540244B1868691E89B23E
:109CC000FFF70EFA0D2801D00A2838D1023DADB2B7
:109CD0001E4B1868291CFFF703FA2B282AD0042CE6
:109CE0002DD90D2828D003240A2826D027E02B1BA5
:109CF00099B23068FFF7F4F92B2804D1013CE4B2A3
:109D0000002CF4D101E0002C19D105F093FB06F0F2
:109D100065FC0D4B984212D00C4C256805F084FB75
:109D2000021C281C0B490BF06FFF21680A480CF03D
:109D300003F804E0022400E00324044ED7E70020E7
:109D400070BDC046602A0020FFFF0000D4510020F3
:109D500090420020408302006C82020010B582B065
:109D600000F07AFA06F082FA00F056FCFFF7FAF9F2
:109D700001A80121124A07F007FB83B2002B02D091
:109D80000004000C1AE00198F821002207F034FBCF
:109D900083B2181E12D10B48FEF7CEFAFEF7E2FA94
:109DA000094CFEF7E5FA06F009F92168081CFFF7EF
:109DB000EBF9FFF7C1FE00F071FBF2E702B010BD56
:109DC000699A010010270000BC2A00202BDF704791
:109DD0002CDF70472DDF7047074B9B6802689A4263
:109DE00009D14268044BDB689A4204D1022902D1AE
:109DF0000022024B1A7070472C2C0020292C0020C6
:109E000030B583B0294B1B78002B4DD0284C294B03
:109E10006360294B6380E825ED00201C291C00228B
:109E200009F07EFF6051254B1B78002B3CD101933C
:109E300001A809F061FF1423019A9B1A032B33D95F
:109E40001F48FFF7C5FF00282ED11E488021C900FA
:109E500009F01AFF80B2002826D11A480830802164
:109E6000C90009F011FF80B200281DD11548104922
:109E70008022D200002309F02DFE80B2002813D1E9
:109E8000104808301049D1229200002309F022FE28
:109E900080B2002808D10122084B1A700022034B1F
:109EA0001A700748FFF796FF03B030BD3C2C002026
:109EB000904200200107000044070000292C0020E8
:109EC0003D2C00202C2C002090460020044B1B78B9
:109ED0000120002B03D1034B18784042C00F70477C
:109EE0003C2C0020292C0020F8B54F464646C0B433
:109EF000314B324A5A60324A5A80324B186859689C
:109F00002C4B2B4A0BF00CFA4B04C60B1E43CF0B09
:109F10002D4B98462B4B994602E00A200BF0D8F8BF
:109F20004046FFF755FF002816D04B461868596881
:109F3000204B1F4A0BF0F4F94B04C40B1C43CD0B10
:109F4000221C2B1C921BBB41002B03D1E5D11F4BC4
:109F50009A42E2D90D2025E01A4B18685968154B32
:109F6000134A0BF0DDF94C04C20B2243CB0B921BBE
:109F7000BB41002B15D102D1144B9A4211D80E4C83
:109F800061880439201C002209F0CAFEE823DB00A6
:109F9000E05001220E4B1A700B48FFF71BFF002008
:109FA00000E00D200CBC90469946F8BDC046C04666
:109FB000E88000000000000090420020010700003F
:109FC00044070000D85500203D2C0020E703000086
:109FD0003C2C0020C046C046F8B5314C314D201C09
:109FE00000212A1C0CF0CBF82F4B238065802F4BCF
:109FF0006360012626726672A67226732C4F201C9F
:10A000000E30391C06220CF098F8142323872822DE
:10A010006287A3871E23E387D12252004023E252A6
:10A020004823E654231C4C333A1C083223CA23C36A
:10A0300003CA03C312881A80002300256222A35298
:10A04000221C623253809380D380138110229C2380
:10A05000E254EE229F23E2540422A023E254FC2285
:10A06000A223E254F422A323E254A423E6540A22B6
:10A07000A523E254201CA630391C28310B220CF0F9
:10A080005CF8B13425706570A570E5702571657157
:10A09000A571FFF729FF43425841C0B2F8BDC04641
:10A0A0009042002044070000AFADFFFF0107000011
:10A0B0004883020010B5154C201C0021144A0CF0F6
:10A0C0005EF8201C13498022D200002309F08AFD8B
:10A0D0000023002818D110480E490831D1229200DF
:10A0E00009F080FD002300280ED1084B19880023B9
:10A0F0000A4A914208D1054B59880123044A9142EA
:10A1000002D0FFF769FF0123181C10BD9042002008
:10A11000440700002C2C002090460020AFAD00002A
:10A1200010B586B000231F4A13701F4A13701F48D2
:10A13000FFF74CFE04A81E4B3C33021C12CB12C28C
:10A1400002A909F021FC83B2181E29D102A800211E
:10A15000184A09F08FFC83B2181E21D102A80121F0
:10A16000144A083209F086FC83B2181E18D101A8DF
:10A170000121114A07F008F983B2181E10D1019885
:10A180006221002207F038F983B2181E08D1FFF7C8
:10A1900091FF031C0020002B02D1FFF71DFF0020C0
:10A1A00006B010BD292C00203C2C00203D2C0020A6
:10A1B000488302002C2C0020019E010048DF7047DC
:10A1C0007047C046830702D50122044B1A708B07E3
:10A1D00002D50022014B1A707047C046402C002067
:10A1E000014B18887047C0463E2C0020014B188850
:10A1F0007047C0468C2D0020014B18787047C04630
:10A20000402C0020014B18707047C046402C0020A5
:10A21000012805D10E4B9B7A1320002B04D115E0A9
:10A22000434243411320C01A002908D00123834030
:10A23000181CA123DB00A022D205D05006E0012388
:10A240008340181C034BA022D205D0507047C04653
:10A25000904200200C05000010B58CB0A823DB0054
:10A260006F4AD15800236F4A914204D8A823DB00DB
:10A270006B4AD3589BB26C4A1380A823DB006B4A0D
:10A28000D1580023674A914204D8A823DB00674ACB
:10A29000D3589BB2664A13800023009320200821E4
:10A2A0000622644B06F0DCFF002803D000210022C8
:10A2B00006F0B8F80220604906F05EFB002803D0E3
:10A2C0000021002206F0AEF809205C494822002354
:10A2D00007F040FC002803D00021002206F0A2F87D
:10A2E000574807F067FC80B2002800D095E009F0DD
:10A2F00005FB80B2002800D08FE0FFF711FF002897
:10A3000000D08AE009A80B230370092343700823B7
:10A3100083700A23C3704B4B5B7DD906C90F0122A2
:10A320004A400271002242711B075B0E4649CB185E
:10A330005B6883606B46DA810E33444A0492802264
:10A3400052000592424906910792009304A9414A9E
:10A35000012307F025FA80B200285ED13E4B1B682E
:10A36000986800210CF0D6F8A023DB050C21E82228
:10A37000D2009950A222D2009B58DA030BD437485E
:10A380000AF0A6FEA223DB00A022D205D358DA03EE
:10A3900001D4FFF721FE2B4BDB7D002B05D00321E1
:10A3A0002F4BA022D205D15004E00C212C4BA0222F
:10A3B000D205D150FEF7F8FCFEF7DAFB0C21294B51
:10A3C000A022D205D1506846233002210222264B1A
:10A3D00006F010FB80B200281FD16B46233318789B
:10A3E00006F034FBA023DB05A222D200995889078E
:10A3F000C90F1E4A11700322E921C9005A501C4995
:10A400005A5001200021FFF703FF01246442201C61
:10A41000FDF7ACFE201CFDF7DDFE0CB010BDC04604
:10A4200000900040FEFF00003E2C002000A00040F5
:10A430008C2D0020902E0020E0310020442C0020A4
:10A440006937020090420020A0830200902D002076
:10A450008C2C0020C1A10100602A0020DC05000036
:10A460001C07000004070000C5A10100402C0020CB
:10A470004C070000431E98411230044BA022D20525
:10A48000D358C340181C012318407047040500002E
:10A49000014B587A7047C0469042002008B5FFF73C
:10A4A0008DFE08BD00000000F0B557464E464546FB
:10A4B000E0B48046264B18685968244B224A0AF0BB
:10A4C0002FFF4B04C60B1E43CF0B214B9946F423A1
:10A4D000FF339A46404607F0AFFA002814D04B46A7
:10A4E00018685968194B184A0AF01AFF4B04C40B34
:10A4F0001C43CD0B221C2B1C921BBB41002B17D1E4
:10A50000E8D15245E6D913E0114B186859680F4B52
:10A510000D4A0AF005FF4C04C20B2243CB0B921BE1
:10A52000BB41002B04D108D1F423FF339A4204D954
:10A5300007F08EFA0120404200E040461CBC9046E5
:10A540009946A246F0BDC046E88000000000000029
:10A55000D8550020C046C04600B583B068460730D5
:10A5600007F056FA002802D16B46D87901E00120A5
:10A57000404203B000BDC04600B583B06946073114
:10A5800007F076FA002802D16B46D87901E0012065
:10A59000404203B000BDC046F0B5474680B4141C2D
:10A5A000002922D1144B1B689A4220D01348111C59
:10A5B0000BF0C2FB124B1D1D3533FF339846114F74
:10A5C000114E381C211C0BF0B7FB301C211C0BF06A
:10A5D000B3FB01CD211C0BF0AFFB4545F1D10B487E
:10A5E000211C0BF0A9FB002002E0094800E009480B
:10A5F00004BC9046F0BDC046D45100202084020027
:10A600003488020024840200288402002C8E020078
:10A61000628000006380000010B5054C201C002102
:10A62000802252000BF0ABFD024B1C6010BDC046F7
:10A630000C32002008320020F0B5474680B4071CD9
:10A6400088464C490CF0B8F8002831D03B78002BF4
:10A6500013D03D2B11D03A1C474D03242868C11854
:10A6600048782040191C022800D12039117001328D
:10A670001378002B01D03D2BF0D1381C0CF0AEF834
:10A68000012805D93B78412B02D17B78542B05D08A
:10A690003A4841460BF050FB394868E0BB78023736
:10A6A000002B05D1374841460BF046FB00205EE009
:10A6B000354E00243568281C0CF090F8021C381C1C
:10A6C000291C0CF0B7F8002805D00134E4B2043698
:10A6D0004D2CEFD101E04D2C05D1284841460BF01F
:10A6E0002BFB2A4843E0251CA400274BE0580CF024
:10A6F00075F8FF2318403F18381C25490CF05CF80A
:10A70000002805D11F4841460BF016FB00202EE023
:10A71000381C20490CF050F8002802D101370121E3
:10A720000EE03B783D2B02D10137022108E00021E9
:10A73000002B05D0114841460BF0FEFA134816E0F5
:10A74000AD00154BEB58381C42469847041C134B80
:10A750001B78002B07D1002801D10A4800E00748E8
:10A7600041460BF0E9FA00220C4B1A70201C04BC85
:10A770009046F0BD20840200FC2900207482020073
:10A78000608000006C82020034880200618000005A
:10A790002C84020030840200688902000C330020FF
:10A7A000F8B54F464646C0B4041C614B1B68C31A3B
:10A7B0005A425341DBB299469B005E4FFF18381C4A
:10A7C0000CF00CF88046C6B2201C311CFEF788FC49
:10A7D000051C431C03D1731E9E41F0B2A3E00D285B
:10A7E00001D00A2861D1381C53490BF0E5FF00283D
:10A7F0005BD104256368013B6360002B05DA4F4A97
:10A800001068211C0BF044FE02E023680133236032
:10A81000013DEDB2002DEDD101200AF059FC201CC4
:10A820000021FEF75DFC0D2801D00A280DD16368D8
:10A83000013B6360002B05DA404B1868211C0BF0CC
:10A8400027FE02E02368013323604B46002B0FD024
:10A8500004F0F0FD364C256804F0E6FD021C281CCF
:10A8600037490BF0D1F9216836480BF065FA15E04D
:10A87000FFF7C2FC0123181AC0B2FFF7C3FC2F4C2C
:10A8800023689D68FFF7B8FC021C281C2C490BF0BC
:10A89000BBF9236899682B480BF04EFA381C00214D
:10A8A00004220BF06CFC01203DE05C2D08D1002E51
:10A8B00033D1FF23424613405C22FA54012032E098
:10A8C0002B2D27D1012E11D13B785C2B12D163683F
:10A8D000013B6360002B05DA184B1868211C0BF054
:10A8E000D7FD1AE023680133236016E0002E0AD05A
:10A8F000022E12D8FF2243461A40381C12490BF090
:10A900000DFC002809D1FF23424613402B22FA54A4
:10A91000012008E00020002E05D0381C0021042270
:10A920000BF02DFC00200CBC90469946F8BDC046AB
:10A93000D45100201033002020840200602A00201F
:10A94000408302006C82020034840200F0B54F465E
:10A9500080B4051C0F1C574E0136FF3692E00A2CBE
:10A9600004D00D2C02D0082C58D140E0524B1A686C
:10A97000504B9A4200D885E0504B1B689B689F4221
:10A9800007D14F4B1B7A002B03D04E48391C0BF0DC
:10A99000D3F9494B002219680A70464C1C60201CF0
:10A9A000391CFFF749FE8146201C47490BF004FF84
:10A9B000002867D14A46002A64D101200AF088FBAA
:10A9C000281C0021FEF78CFB0D2801D00A2859D144
:10A9D0006B68013B6B60002B05DA384B1868291C4B
:10A9E0000BF056FD4EE02B6801332B604AE0324BF2
:10A9F0001A68304B9A4245D9304B1B689B689F427E
:10AA000007D12F4B1B7A002B03D03048391C0BF099
:10AA100093F9294B1A68013A1A6033E0264B1B68F8
:10AA2000B3422FD2254B186883689F4225D1244B0F
:10AA30001B7A002B21D0BB68013BBB60002B17DACF
:10AA4000B9698B420FDB3A6814703B681A780A2A9E
:10AA500002D001333B6010E0184B18680A213A1C01
:10AA60000CF0ACFF09E0211C3A1C0CF0A7FF04E03D
:10AA70003B681C703B6801333B600F4A1368591CEC
:10AA800011601C706B68013B6B60002B06DA0B4990
:10AA90000868291C0BF0FCFC041C03E02B68581C04
:10AAA00028601C78621C00D059E7002004BC914645
:10AAB000F0BDC0460C32002008320020602A002081
:10AAC000904200202C8E0200208402003884020074
:10AAD00008B5011C0122034B1A7003480BF02CF936
:10AAE00008BDC0460C3300206C82020071DF704745
:10AAF00076DF704777DF704700B583B0012902D950
:10AB000002290AD040E0224BDB7A5BB2101C2149BB
:10AB10001A1C0BF079F8002037E001235B42019307
:10AB20001D4901AA0BF0A8FD002829D00198202377
:10AB3000021C9A43131C28330DD01023021C9A4385
:10AB4000131C143307D00423021C9A43131C103225
:10AB500001D0002B16D140B2FFF7CCFF83B2181EF4
:10AB600013D10B4B019ADA72FFF7BEF905F036FDEF
:10AB70000A4B984202D1002005F09AFA002004E026
:10AB8000074802E0064800E0054803B000BDC046A3
:10AB900090420020408302009C8A0200FFFF0000D8
:10ABA0006280000030B587B0151C012913D804ACB1
:10ABB000201CFFF79BFFA279637921790091E1784E
:10ABC0000191A178029161780391281C03490BF04F
:10ABD0001BF8002000E0024807B030BDA08A020048
:10ABE0006280000010B5141C01290FD8A023802218
:10ABF0005205D35801221A40201C05490BF004F8D5
:10AC00000448211C0BF098F8002000E0024810BD19
:10AC1000C08A02002C8E02006280000030B587B02E
:10AC2000141C012916D804A805F068FD051C002D88
:10AC300011D104A98A794B7908790090C8780190DC
:10AC40008878029049780391201C04490AF0DCFFBF
:10AC5000281C00E0024807B030BDC046A08A0200B0
:10AC60006280000070B58AB0041C022900D09CE00C
:10AC700004A8002115220BF082FA201C2C210BF0D5
:10AC80008FFD002803D0451C0023037000E0051C45
:10AC9000201C69460E3100F077F9002800D186E0CB
:10ACA0006B46D9898223474AD152281C2C210BF0AC
:10ACB00077FD002803D0441C0023037000E0041C2F
:10ACC000281C04A9102200F0ABF9102871D1201C17
:10ACD0002C210BF065FD061E02D000230370013607
:10ACE000201C08A900F050F9002864D004AB1A8A8F
:10ACF00052BA04AB1A82301C2C210BF051FD051EF8
:10AD000002D0002303700135301C6946223100F067
:10AD10003BF9002851D004AB5A8A52BA04AB5A828C
:10AD2000281C2C210BF03CFD041E02D000230370D4
:10AD30000134281C244902AA0BF09EFC00283ED0B6
:10AD400004AB02981875002C0FD000230193201C2F
:10AD500001A900F0A5F8002802D0019B012B01D920
:10AD60001A482DE04A2217498B54164904AA0B1C95
:10AD70006C3331CA31C330CA30C312781A70012221
:10AD80004923CA54FFF7B0F805F028FC104B98424D
:10AD900006D005F023FC1321FFF7AAFE00200FE0E8
:10ADA000002005F085F900200AE0084808E007487F
:10ADB00006E0064804E0054802E0044800E00348D5
:10ADC0000AB070BD90420020C48A02006280000078
:10ADD000FFFF000010B5141C012913D805F0FEFB7D
:10ADE0000022094B984202D005F0FEFB021C52B231
:10ADF000201C06490AF008FF0548211C0AF09CFFA8
:10AE0000002000E0034810BDFFFF00009C8A020004
:10AE10002C8E02006280000010B582B0141C022942
:10AE200018D1114901AA0BF027FC002814D0019970
:10AE3000072913D8022913D0C9B202200022FDF736
:10AE4000A1FAFDF7D9FA021C201C08490AF0DCFE21
:10AE5000002006E0064804E0054802E0044800E05F
:10AE6000034802B010BDC0469C8A0200DC8A020082
:10AE70006280000010B5141C00290AD1FDF7AAFA5F
:10AE8000FDF7CEFA021C201C03490AF0BDFE00208B
:10AE900000E0024810BDC046DC8A0200628000006B
:10AEA00010B582B00C1C0023019301A900220BF005
:10AEB0008FFD019B002B06D01A780023002A03D1B6
:10AEC0002060012300E00023181C02B010BDC04622
:10AED00010B582B00C1C0023019301A900220BF0D5
:10AEE00001FE019B002B06D01A780023002A03D113
:10AEF0002060012300E00023181C02B010BDC046F2
:10AF0000F0B583B0061C0F1C151C01A9FFF7C8FF84
:10AF10000024002811D00A4B019A9A4203D1301C18
:10AF200001A9FFF7D5FF2C1C042D00D90424A4B2DD
:10AF3000381C01A9221C0BF000F9201C03B0F0BD45
:10AF4000FFFFFF7F10B582B00C1C01A9FFF7A8FF1F
:10AF5000002805D0019BFF2B01D8237000E00020C2
:10AF600002B010BD10B582B00C1C01A9FFF798FF0C
:10AF7000002807D0019B1A1C8032FF2A01D82370B9
:10AF800000E0002002B010BD10B582B00C1C01A979
:10AF9000FFF786FF002806D0019B044A934201D8A0
:10AFA000238000E0002002B010BDC046FFFF00007B
:10AFB00010B50378002B23D0184A1268D3185B7899
:10AFC000442119421FD04378D3185B7819421CD012
:10AFD0000021442408E0D3185B781C4217D0437842
:10AFE000D3185B781C4214D00131C9B28378002B8E
:10AFF00007D02D2B0FD103300378002BEBD100E0CD
:10B000000021081C08E0002006E0002004E00020E9
:10B0100002E0002000E0002010BDC046FC29002016
:10B02000F0B583B0041C0F1C151C0378202B03D132
:10B0300001342378202BFBD0201CFFF7B9FF86B208
:10B04000002F27D00004030C0020002B2DD0AB4292
:10B0500022D92AE01C1B022C16DC7D1C38701A78C1
:10B060002D2A11D104E0287001351A782D2A0BD130
:10B070005C1C201C01A910220BF0AAFC019BA3421E
:10B0800002D91C1B022CEEDD187843425841404285
:10B0900030400AE0301C08E0201C01A910220BF00F
:10B0A00097FC019BA342D5D8EEE703B0F0BDC046A4
:10B0B000F0B55F4656464D464446F0B48BB0041C8E
:10B0C0009246002A00D1EDE0002800D1ECE00E1CF1
:10B0D0000025201C2C210BF063FB002804D0471C0A
:10B0E00000970023037000E000902378002B00D12C
:10B0F000CEE0B146307884460A2800D9C6E0810007
:10B100006F4F79588F46202B6BD06EE0202B03D1E8
:10B1100001342378202BFBD0484643681C60B7E0FD
:10B120007278201C7168FFF77BFFC0B27070002836
:10B1300000D0ADE0AAE0201C06A9FFF7B1FE002870
:10B1400000D1A3E05F4B069F9F4203D1201C06A9BC
:10B15000FFF7BEFE4946486806A904220AF0EDFF43
:10B1600096E0201C06A9FFF7B3FE002800D18DE071
:10B17000706806A904220AF0E0FF89E07168201CCB
:10B18000FFF702FF002800D082E07FE07168201CFA
:10B19000FFF7D8FE00287BD178E07168201CFFF70C
:10B1A000E1FE002874D171E0201C7168FFF778FE81
:10B1B00000286DD12378202B03D101342378202B54
:10B1C000FBD04B465A78201C9968FEF731FC06905C
:10B1D00000285BDB4F46786806A904220AF0ADFF21
:10B1E00056E001342378202BFBD004AB364806C848
:10B1F00006C3804606AB181C47460ECF0EC03F68FC
:10B2000007606046082804D102218B4604AA9046B4
:10B2100003E004239B4606AFB846201C69460F3165
:10B22000FFF7A0FE002806D1201C41465A46FEF733
:10B23000FFFB6B46D8736B460F331B785BB25B45E5
:10B2400024D84946486869460F3101220AF075FF43
:10B250001EE01E4A1268D3185B785F0716D4201CC4
:10B26000FEF7D0FBB0688346201C0BF0B7FA021C37
:10B270005846211CFEF710FB0690154B984205D04E
:10B280007068727806A90AF058FF01E0002010E00B
:10B290000135EDB2554509D00C36009F002F07D07F
:10B2A0003C1C16E7002004E0002002E0281C00E01F
:10B2B000281C0BB03CBC90469946A246AB46F0BD5C
:10B2C000E48A0200FFFFFF7F108B0200FC290020B0
:10B2D000DFFDEF7EF8B5051C0E1C171C0A78084927
:10B2E0000AF092FC012F0AD9741CF719054E227836
:10B2F000281C311C0AF088FC0134BC42F7D1F8BD8F
:10B30000288B0200308B0200F0B583B0061C0229A6
:10B3100018D0032902D0012919D10CE00021019194
:10B3200001A8111C1A1C0AF008FF301C2649019ABA
:10B330000AF06AFC45E0101C01211A1C331C0AF0BB
:10B3400067FE3EE0111C1A1CFFF7C4FF39E0022B18
:10B350001CD91178002919D0002B2CD01B4800686B
:10B36000411849786824A14310D0541CD71868218B
:10B370008C4605E00134451969786546A94305D036
:10B38000BC4218D02578002DF4D114E0042B05D947
:10B39000301C111C1A1CFFF79DFF12E000210191C7
:10B3A00001A8111C1A1C0AF0C8FE301C0649019A9B
:10B3B0000AF02AFC05E0101C01211A1C331C0AF0BB
:10B3C00027FE03B0F0BDC046C48A0200FC2900205D
:10B3D000F8B5061C171C1D1C02291ED0032902D01B
:10B3E000012920D105E0111C1A1CFFF789FD041C5E
:10B3F0003AE00BF0F3F9041C80B2A84200D92C1CEF
:10B40000A4B2002C03D100233B7001242CE0381C93
:10B41000311C221C0AF091FE26E0111C1A1CFFF7B9
:10B42000FFFD041C20E0111C1A1CFFF769FD041E1F
:10B430001AD1301C391C2A1CFFF7F2FD041E13D14F
:10B44000301C0BF0CBF9041C80B2A84200D92C1C94
:10B45000A4B2002C03D100233B70012404E0381C6B
:10B46000311C221C0AF069FE201CF8BD10B584B006
:10B47000012902D902290BD03DE0204B1B7D9B07FF
:10B48000DB0F101C1E491A1C0AF0BEFB002033E023
:10B490006A460023D370033201A901938B6008230D
:10B4A0000B704A600122FFF703FE012801D0154806
:10B4B00022E06B4603331B78104A127D9207D20FAD
:10B4C0009A4216D00D4A012018404000117D0224F6
:10B4D000A14301431175002B03D005214923D15409
:10B4E00005E000214923054AD15405F0F7F8FEF79D
:10B4F000FBFC002000E0034804B010BD9042002097
:10B50000408302006280000010B586B0041C02294E
:10B5100032D104F085FF031C0820DA0733D505F08B
:10B520005DF8021C08201C4B9A422CD0201C694656
:10B5300006311422FFF774FDC4B2E31E0F2B1FD98E
:10B54000164820E0164B18685968124B104A09F04B
:10B55000E7FE4904C00B0843C204920E80235B42FD
:10B560001A437F210840034301A802704370A11CC5
:10B57000C9B203F041FC06E0084804E0074802E0D5
:10B58000E307FBD5DEE706B010BDC046C046C046A7
:10B59000E880000000000000FFFF00006280000063
:10B5A000D8550020C046C04670B582B0141C002992
:10B5B0003ED104F035FF031C0820DA0739D569466F
:10B5C000073100230B701C48FDF730FC031C0020E2
:10B5D000002B2ED06B4607331B78002B29D0164842
:10B5E0006946FDF723FC002823D0201C1349009A4C
:10B5F0000AF00AFB6B46DA79013ADA7107331D1C4F
:10B600000D4E0AE0301C6946FDF710FC002804D0FE
:10B61000201C0B49009A0AF0F7FA2B785A1E2A7060
:10B62000002BEFD10748211C0AF086FB002000E028
:10B63000054802B070BDC04640290020608B020062
:10B64000688B02002C8E02006280000070B582B010
:10B65000141C00292BD104F0E3FE031C0820DA0798
:10B6600028D56946073100230B701348FDF7DEFB30
:10B67000031C0020002B1DD06B4607331B78002BCA
:10B6800018D0013B6A46D37107320B4E151C301C93
:10B690006946FDF7CBFB002803D00098211C0AF077
:10B6A000EBFA2B785A1E2A70002BF0D101E00348E8
:10B6B00000E0002002B070BD402900206280000040
:10B6C00010B584B0012902D902290CD03EE0214BEB
:10B6D0001B7DDB07DB0FDBB2101C1F491A1C0AF0B5
:10B6E00093FA002033E06A460023D370033201A9A5
:10B6F00001938B6008230B704A600122FFF7D8FC8E
:10B70000012801D0154822E06B4603331B78114A0B
:10B71000127DD207D20FD2B29A4215D00D4A012023
:10B720001840117D0124A14301431175002B03D062
:10B7300004214923D15405E000214923054AD1546D
:10B7400004F0CCFFFEF7D0FB002000E0034804B07B
:10B7500010BDC0469042002040830200628000007D
:10B7600010B582B0041C02291CD1124B1B7DDA07D4
:10B770001AD504F033FF031C08200F4A934216D059
:10B780006846002108220AF0FAFC201C69460822BB
:10B79000FFF746FC431EDBB2072B07D8684604F0D0
:10B7A000C3F904E0054802E0054800E0034802B0A0
:10B7B00010BDC04690420020FFFF000062800000E4
:10B7C00063800000F0B557464E464546E0B48AB067
:10B7D000041C022968D13A4B1B7DD80766D5237813
:10B7E000002B65D0101CFFF773F904A9354A0B1C18
:10B7F00061CA61C322CA22C312881A80324B1E68F2
:10B8000002969A8802AB9A80304B186800909B8809
:10B8100069468B80201C2E490AF0CEFF43424341EB
:10B82000E41802AA92462B4B99460325A84635E018
:10B8300066785C2D0BD15046311C0AF0B1FF002810
:10B8400005D05646801B69460D5CA71CA6784A4663
:10B85000126853195B78404603400221012B07D040
:10B8600004A8291C0AF09CFF011C481E81414900C4
:10B87000281C04F0DDF800281BD10F2009F028FC5B
:10B88000AE4201D0002E08D10020002104F0D0F8F3
:10B8900000280ED10F2009F01BFC3C1C671C2578EA
:10B8A000002DC5D1002004E00B4802E00B4800E069
:10B8B00009480AB01CBC90469946A246F0BDC04655
:10B8C00090420020848B0200BC820200C4820200ED
:10B8D000808B0200FC290020628000006380000051
:10B8E00010B588B0041C02293CD1224B1B7DDA071D
:10B8F0003AD504F073FE021C08201F4B9A4236D042
:10B9000007A900230B800F230693201CFFF73CFBA5
:10B91000002819D1002300930393059309236A4655
:10B9200013700223537007AA0192144A02926A46C6
:10B93000137306AB0493201C69460222FFF7B8FB81
:10B94000431EDBB2012B11D807AC201C04F0D4F944
:10B95000069809F0BDFB00232380201C04F0CCF9DD
:10B96000002004E0064802E0064800E0044808B071
:10B9700010BDC04690420020FFFF0000B88D0200BD
:10B98000628000006380000000B58FB0022925D1DD
:10B990000CAA00230C931371FF21117000930293E2
:10B9A000039305930693089309930B930623694623
:10B9B0000B70013201920B73013204920B7601324B
:10B9C000079224228B540DAB0A930422FFF770FBDD
:10B9D0000138C0B2032803D9044804E0034802E058
:10B9E0000CA804F00DF90FB000BDC0466280000045
:10B9F000F0B5474680B492B0022900D0EFE00EA91E
:10BA00007E4B0A1C70CB70C21B6813600CAD002209
:10BA10000C922A710B926C460F2363852A3401AB7A
:10BA20000192039204920792099205221A700295DC
:10BA300007221A7304225A730BAD059506911A76E4
:10BA4000089403786E4A1268D3185B78590774D447
:10BA50000023009301A90B7000AA4A600322FFF79C
:10BA600027FB031C0138C0B2022800D8BBE062E00B
:10BA70000B9B032B5FD1009800286CD00AF0AEFE20
:10BA8000052858D800245E4E03275E4DA84614E0D2
:10BA90000098021913783068C11848783840191C8A
:10BAA000022800D120391170009A515D40460AF0F9
:10BAB00077FE00283FD00134E4B2251C00980AF03C
:10BAC0008DFE8442E4D300984C210AF069FE0028E0
:10BAD00004D00CAB197801220A431A700098522145
:10BAE0000AF05EFE002804D00CAB197802220A434B
:10BAF0001A7000984D210AF053FE002804D00CABB8
:10BB0000197804220A431A70009842210AF048FE6C
:10BB1000002804D00CAB197808220A431A70009848
:10BB200046210AF03DFE002815D00CAB19781022F2
:10BB30000A431A700FE034485CE001A90322FFF7C2
:10BB4000B7FA031C0138C0B2022850D92E4851E080
:10BB50000B9B032B45D10CA804F052F8031C002BBF
:10BB600048D10CAB1C780020002C43D00B9B022B3F
:10BB70000DD0032B29D00020012B3BD10F2009F041
:10BB8000A7FA0CA80023037004F03AF832E00F2063
:10BB900009F09EFA0CA80023037004F031F8031C8E
:10BBA000002B27D10F2009F093FA0CA8047004F0A1
:10BBB00027F8031C002B1DD10F2009F089FA0CA8CF
:10BBC0000023037004F01CF814E06B46588D09F054
:10BBD0007FFA0CA80023037004F012F80AE00A4868
:10BBE00008E0094806E0032B00D044E740E7032BB8
:10BBF000B1D1ADE712B004BC9046F0BD708B02002D
:10BC0000FC2900209C8B02006280000010B58CB0E3
:10BC1000041C022943D1254B1B7DDA0741D504F0D2
:10BC2000DDFC031C0820224A93423DD00BA80021D2
:10BC300002220AF0A4FA6A462A32002313706846E8
:10BC40002B30037001A901938B60CB604B618B613A
:10BC50000B6206230B7048600B730A6105230B7699
:10BC60006B462D33CB61201C0322FFF721FA0328FA
:10BC700019D80BA86B462B33197803231940027887
:10BC80000324A2436C462A34247823409B000A43B1
:10BC90000C218A431343037004F09AF804E005482A
:10BCA00002E0054800E003480CB010BD90420020BF
:10BCB000FFFF00006280000063800000011C002084
:10BCC0001F2919D80D4B1878002810D00C4B1B7861
:10BCD0008B420ED00B4B0138C0B2181803E01A7813
:10BCE00001338A4207D08342F9D1012004E00120C8
:10BCF00002E0002000E000207047C0468C83020074
:10BD0000908302009183020030B583B0141C022995
:10BD100041D1264901AA6B460AF0AEFC012805D0A4
:10BD200002283AD1009D012D39D812E0A223DB0070
:10BD3000A022D205D358019AD340012018403030B8
:10BD4000211C09F099FF1A48211C09F0F5FF002079
:10BD50002AE0184BA022D205D358019CE340DA0711
:10BD60001FD5201CFFF7AAFF00281CD0002D08D1EA
:10BD70000123A3401C1C104BA022D205D45000204C
:10BD800012E00123A3401C1CA123DB00A022D2054A
:10BD9000D450002008E0094806E0084804E00748BD
:10BDA00002E0064800E0054803B030BD50910200B3
:10BDB0002C8E0200140500000C05000062800000BB
:10BDC00030B583B0141C022964D1384901AA6B46EE
:10BDD0000AF052FC012805D002285DD1009D032DF8
:10BDE0005CD823E0324BA022D205D258019BDA4026
:10BDF0000120D1070FD49B00A022D2059B18E0227E
:10BE0000D2009A580320510705D4E022D200985856
:10BE10000007C00F400000903030211C09F02CFFBB
:10BE20002448211C09F088FF00203CE0019C201CD4
:10BE3000FFF744FF002833D0012D08D002DC002D8D
:10BE40000ED02FE0022D13D0032D1AD02AE0C134DA
:10BE5000FF34A4000322A023DB05E250002022E0EF
:10BE6000C134FF34A4000020A023DB05E0501AE019
:10BE7000C134FF34A4000C22A023DB05E2500020D3
:10BE800011E0C134FF34A4000422A023DB05E250FA
:10BE9000002008E0084806E0074804E0064802E001
:10BEA000054800E0002003B030BDC04650910200BC
:10BEB000140500002C8E02006280000010B586B0D0
:10BEC000022925D1174905AA04AB0AF0D5FB02289F
:10BED00020D1059C201CFFF7F1FE00281CD0049AFD
:10BEE000642A1BD8684600210E220AF048F9012373
:10BEF0006A4613705470137102235371937268462B
:10BF0000FCF7AEFA00200499FCF79AFB002006E04B
:10BF1000054804E0044802E0034800E0024806B097
:10BF200010BDC0465091020062800000A0DF704743
:10BF3000A4DF7047A5DF7047A6DF7047BA23094A20
:10BF4000D35A191898229200914208DC054A081C1D
:10BF5000BA215052F82189005B18981800E000209F
:10BF60007047C04690420020F8B54F464646C0B4E0
:10BF700080468946171E15DD0026002463B29B000B
:10BF80004A469D58281C0AF029FC021C4046291CE0
:10BF90000AF02CFC002807D00134E4B266B2BE429D
:10BFA000ECDB01E000260024B7420BD063B29B001B
:10BFB0004A4698580AF012FC4246135C3D2B02D0C8
:10BFC000FF2400E0FF2460B20CBC90469946F8BD07
:10BFD00010B5141C002802D0012811D01EE0081C46
:10BFE00011681022FFF71CF8102819D10023A37143
:10BFF00023689A781202DB781343A380002014E0B0
:10C00000131D081C191CFEF7BFFF00280AD0A388C7
:10C01000002B09D00123A371002006E0034804E0AF
:10C02000024802E0014800E0004810BD62800000C4
:10C03000F8B54F464646C0B4071C0D1C90469946BD
:10C0400008A90E7802212C1C8C4309D10021321C36
:10C05000FEF7E6FF002803D0814508D8B04206D895
:10C06000381C291C4246331CFFF7B2F9C4B2201C0D
:10C070000CBC90469946F8BD08B505480021B12290
:10C08000D2000AF07CF8FDF72FFF002008BDC04663
:10C0900048430020F0B54F464646C0B487B0041C64
:10C0A000171C022900D084E0B823464AD35C042040
:10C0B0000A2B00D180E004A8002108220AF05FF8D2
:10C0C0006846002110220AF05AF800A80490201CAB
:10C0D0002C210AF065FB002803D0451C00230370C7
:10C0E00000E0051C002C38D037498846894630E0EE
:10C0F00001342378202BFBD0201C41460222FFF77D
:10C1000033FF061E0EDB8300494658580AF066FBD3
:10C11000F6B2411C6118301C04AAFFF759FF061E35
:10C1200008D000E0294E381C2949221C09F06CFD7A
:10C13000301C41E0281C2C210AF032FB002803D0DF
:10C14000431C0022027000E0031C002D05D02C1CB3
:10C150001D1C2378202BCBD0CEE704AB9B88002B73
:10C1600029D0184BB8229C5C0134E400E3181C1C55
:10C17000B83404AB221C03CB03C2A379012B02D138
:10C180000023236007E01020FFF7D8FE2060049909
:10C19000102209F0D2FF0B4DB8242B5D01332B5533
:10C1A000FDF7A2FE2A5D381C0A4909F02DFD00208A
:10C1B00002E0064800E0054807B00CBC90469946EE
:10C1C000F0BDC04690420020308F02006280000027
:10C1D000088E020040830200F0B557464E464546A1
:10C1E000E0B49AB0041C151C022900D05EE1B8230B
:10C1F000BC4AD35C0420002B00D16DE1B923D35C91
:10C200001E2B00D168E114A80021182209F0B7FF05
:10C210000CAF381C0021202209F0B1FF08A880468D
:10C220000021102209F0ABFF06AE301C00210822CD
:10C2300009F0A5FF4146159117971996201C2C214E
:10C240000AF0AEFA002803D0461C0023037000E079
:10C25000061C002C00D1B8E0A34A90469146A34F9B
:10C26000BA46ADE001342378202BFBD0201C414698
:10C270000922FFF779FE071E00DA93E083004946A2
:10C2800058580AF0ABFA01302018FBB2082B00D93D
:10C2900088E09F005246D3599F4669465231FEF7C7
:10C2A00073FE00287ED014AB5B88002B7AD014ABD1
:10C2B000197A1F22914301220A431A7204E1159947
:10C2C0001022FEF7ADFE10286CD114AB1A7A1F2194
:10C2D0008A431A72159A91780902D2780A435A80D1
:10C2E000F2E003A9FEF72EFE00285BD003AB1B781B
:10C2F000002B57D06846513003A9012209F01DFFD9
:10C30000E2E069465931FEF71DFE00284AD014AB21
:10C310005B7A013B1F2B45D8D6E069465A31FEF7C0
:10C3200011FE00283ED014AB9B7A013B1F2B39D85D
:10C33000CAE003A9002303938B600A230B706B46AA
:10C340000B334B600122FEF7B3FE01282AD114AB58
:10C350006A46D17A49011A7A1F2002400A431A72AA
:10C36000B2E014AB5B7A002B00D0A7E014AB9A7A52
:10C370000123002A02D1202200E01A1C14AF397ACE
:10C3800049090092179AFFF753FEF872002809D066
:10C390009AE0189098E019990722FEF741FE0728C5
:10C3A00000D191E0281C5249221C09F02DFC514873
:10C3B00092E0431C00220270002E06D0341C1E1C8A
:10C3C0002378202B00D14DE750E714AB9B7A002B4C
:10C3D00002D114AB5A7A9A7214ABDB7A002B02D1D9
:10C3E00014AB5A7ADA7214AB5B7A002B60D014AAC1
:10C3F000927A9A425ED314AB5B88002B5CD0394BA7
:10C40000B822985C01388446B9229A5C18214A43C4
:10C410009C181134FF3414AA231C111CC1C9C1C3B8
:10C42000C1C9C1C361462170137ADB06DB0E012B43
:10C4300002D10023636007E01020FFF77FFD6060FA
:10C440001599102209F079FE1898002809D00AF0F1
:10C45000C5F90130C0B2FFF771FD206118990AF0EB
:10C46000B5F9199A1378002B08D00820FFF766FD5C
:10C4700060611999072209F060FE01E00023636101
:10C48000A07AFFF75BFDE060E27A179909F055FEAC
:10C49000144EB924335D01333355FDF725FD325D6C
:10C4A000281C154909F0B0FB002015E0114813E0E5
:10C4B000104811E00F480FE00E480DE014AA927AE0
:10C4C000002A00D05AE758E7301C2C210AF068F9FE
:10C4D000031E00D170E76CE71AB01CBC9046994669
:10C4E000A246F0BD90420020E48D0200C08D020003
:10C4F0001C8E0200628000004083020000000000E9
:10C50000F0B557464E464546E0B48CB0041C151CA9
:10C51000022900D002E1944907AA0AF0ADF80028E8
:10C5200000D1FDE0079B002B00DCFBE0B9228F4926
:10C530008A5C934200DDF7E0013B5A00D318DB0030
:10C54000CB181133FF339846201C2C210AF028F910
:10C5500000280DD14046017A4909C268C37A281CD7
:10C56000FEF7D2FE8248291C09F0E6FB0020F0E02D
:10C570000378002B00D1D9E001304246117A4909F5
:10C58000D2684446637AA47A0094FFF751FD454689
:10C590006A7A824200D9CBE0AA7A824200D2C9E00C
:10C5A000E872FDF7A1FC079C013CE4B2182262434B
:10C5B0001132FF326D4BD2189046E4006D4B1C19BE
:10C5C00004F00CF88146021C23880020834200D12D
:10C5D000BFE0694B9A4200D18EE04046427830235A
:10C5E0001A4200D188E002AB00201880A1880AAA74
:10C5F00002251580508053604846FFF79BFC41465A
:10C600004D78ED06ED0F04D002AB1B88DA0700D59C
:10C6100092E04046437899066ED502AB1B889A0794
:10C620006AD5C27A6B465A8103AB9A46181C002120
:10C63000102209F0A4FD2388544623806B425D41FB
:10C64000013503AB9D706A460A3205924546ED6896
:10C65000069504F067F800283CD1484B18685968E3
:10C66000404B3F4A08F05CFE4B04C40B1C43CD0B0F
:10C670000120824602E0504608F02AFD04F052F8FC
:10C68000002815D13D4A10685168364B344A08F0ED
:10C6900047FE4B04C60B1E43CF0B321C3B1C121B28
:10C6A000AB41002B02D1E6D1C72AE4D9042050E0E7
:10C6B000324B186859682B4B294A08F031FE4E045A
:10C6C000C20B3243CB0B121BAB41002B12D101D159
:10C6D000C72A0FD8484603A9FFF72EFC83B2181EBD
:10C6E00037D1444663780020DD0632D504F022F8C5
:10C6F00000202EE004202CE04046427A837A00207D
:10C700009A4226D0218808AA4446E37A13805080B2
:10C7100050604846FFF70CFC80B21AE0184818E059
:10C72000174816E0164814E0154812E0144810E0C7
:10C7300013480EE012480CE0CA7A6B465A8103ADEA
:10C74000281C0021102209F01AFD23882B800125C6
:10C7500077E70CB01CBC90469946A246F0BDC04697
:10C76000E880000000000000C48A0200904200201F
:10C770002C8E02002C330020FFFF0000D855002033
:10C7800062800000C046C04610B582B0141C022969
:10C7900013D16946073100230B70FEF7D3FB002845
:10C7A0000DD06B4607331B78B9220F498A5C002BEA
:10C7B00007D0934207D90D4814E00C4812E00B480B
:10C7C00010E00A480EE0013B5A00D318DB00064A8D
:10C7D000D3181133FF33D868DA7A0121231C09F00A
:10C7E00017FC002002B010BD9042002062800000C3
:10C7F000F0B55F4656464D464446F0B483B0161C2D
:10C80000002900D095E0524B1B689A4200D192E07B
:10C81000B823504AD35C002B00D18EE0002792460B
:10C820004D4B99464D4B9B467A1CD4005444B8342A
:10C83000A388301C494609F0E7F9A379012B08D0F9
:10C840005846311C09F078FA2168301C1022FEF796
:10C8500041FD4348311C09F06FFAB9233D4AD35CCE
:10C86000002B5DD00024904665002D19ED00454455
:10C870001135FF352B78BB424BD1621C6B88301CC5
:10C88000384909F0C1F92B7ADB06DB0E012B0CD0FD
:10C890003548311C09F050FA301C69681022FEF747
:10C8A00019FD3248311C09F047FA6A786B7AA97A87
:10C8B0000091297A49090191301C2D4909F0A4F908
:10C8C0002A69002A03D0301C2A4909F09DF96B69B6
:10C8D000002B0FD01B78002B0CD02748311C09F0FF
:10C8E0002BFA301C69690722FEF7F4FC1F48311C43
:10C8F00009F022FA2148311C09F01EFA297A490967
:10C90000EA68EB7A301CFEF7FFFC1548311C09F091
:10C9100013FA0134E4B2B9230E4AD35CA342A3D87C
:10C920000137FFB2B8230B4AD35CBB4200D97BE787
:10C9300005E0134804E0134802E0002000E0002076
:10C9400003B03CBC90469946A246AB46F0BDC046FB
:10C95000D451002090420020308E0200448E02000C
:10C960002C8E0200508E0200688E02002484020089
:10C97000748E0200AC8E0200BC8E0200CC8E0200CF
:10C980006280000063800000F0B54F4680B4061C52
:10C990000388502B2DD1B923174AD35C002B28D004
:10C9A0000024164D171CE300F288EB5A9A420DD171
:10C9B00063001B19DB00104AD3181133FF33F28BCD
:10C9C000987A597A914201D8824206D90134E4B268
:10C9D000B923FB5CA342E6D80BE0DA72D868311CBD
:10C9E0002031F28B09F0A9FB0120A040FBF7D8FB16
:10C9F000ECE704BC9146F0BD904200202C330020AF
:10CA0000F0B55F4656464D464446F0B48BB05E489E
:10CA10000021142209F0B3FB5C480021F02209F048
:10CA2000AEFBB8235A4AD35C002B00D1A1E000260C
:10CA300055498A46741CE400554AA418B83473005A
:10CA40009B46D344A379012B06D0206802F0E0FD79
:10CA5000A071012800D88AE0A3886A461380A379D0
:10CA60009370012069465A46FFF760FA80B20028A9
:10CA700000D081E0B9234649CB5C002B6ED0002466
:10CA800089460F1CB046261C65002D19ED004D444B
:10CA90001135FF352B78434559D12B7ADB06DB0E58
:10CAA000012B0BD0686802F0B3FD1F2318402B7ACE
:10CAB0001F22934303432B72012848DD01AB002260
:10CAC00001925A609A60DA601A615A619A61DA6179
:10CAD0001A6259460A881A806A789A70DA780F21A1
:10CAE0008A4301210A430F210A4010210A43DA70C8
:10CAF0006A889A802A7AD206D20E9A711A7A03210B
:10CB00008A4302210A431A72EA68DA606A7A1A8250
:10CB1000AA7A5A82EA7A9A8229699961696900290E
:10CB20000DD00B78002B0AD008A8052209F005FBD0
:10CB30006969053168462630022209F0FEFAF600DE
:10CB4000124A911901A802F08DFD002814D1013478
:10CB5000E4B2B923FB5CA34295D846460136F6B24F
:10CB6000B8230B4AD35CB34200D963E703E0072044
:10CB700002E0002000E000200BB03CBC904699464B
:10CB8000A246AB46F0BDC046183300202C3300202F
:10CB90009042002000000000F8B54F464646C0B461
:10CBA00080462D48414609F0C7F82C4B1868596853
:10CBB000284B274A08F0B4FB4B04C60B1E43CF0B8F
:10CBC000274B1B68984505D0244B98462C23FF33F0
:10CBD000994610E0A020C0052249802292044358C3
:10CBE0001342FCD0A020C0051E4980229204435865
:10CBF0001342FCD1E8E7FDF769F9002813D043465A
:10CC000018685968134B124A08F08AFB4B04C40B8E
:10CC10001C43CD0B221C2B1C921BBB41002B02D1B1
:10CC2000E9D14A45E7D90D4B18685968094B084ABC
:10CC300008F076FB4904C00B0843861B312E03D84D
:10CC40003220801B08F044FA0CBC90469946F8BD8F
:10CC5000E8800000000000006C820200D85500202F
:10CC6000BC2A002004050000F0B5474680B494B00B
:10CC700080460F1C151C80235B055A6E1B6E0FAC83
:10CC8000201C264909F0D6FCFCF72CFE021C0AAE3B
:10CC9000301C234909F0CEFC00230293214B03935F
:10CCA00004960594204B06930793204B0893FCF7BA
:10CCB00033FE0990002F02D0022F0ED026E003ACE5
:10CCC0000AAF1B4E01CC291C09F036F8301C291C78
:10CCD00009F032F8BC42F5D11AE04046154901AAE4
:10CCE00009F0CAFC002803D0019B5A1E062A01D96C
:10CCF00011480EE09B0002AA9858291C09F01CF864
:10CD00000B48291C09F018F8002002E00A4800E04E
:10CD1000002014B004BC9046F0BDC046388F02001D
:10CD2000448F0200508F0200608F0200688F020063
:10CD30002C8E02009C8A02006280000038B5051C1F
:10CD4000141C012902D902290CD01FE0124B187AB9
:10CD50003030111C08F090FF1048211C08F0ECFF47
:10CD6000002018E009F03AFD012811D12B78303B62
:10CD7000DBB2012B0ED8084A127A00209A420AD060
:10CD8000054A1372FDF7B0F8002004E0044802E001
:10CD9000034800E0024838BD904200202C8E02007B
:10CDA0006280000008B500290AD1101CFFF7F4FECC
:10CDB000BFF34F8F034A044BDA60BFF34F8FFEE798
:10CDC000024808BD0400FA0500ED00E062800000A2
:10CDD00010B5141C00290ED1FDF7FEF803F07EFCFF
:10CDE000201CFFF7D9FEBFF34F8F044A044BDA60D3
:10CDF000BFF34F8FFEE7034810BDC0460400FA059D
:10CE000000ED00E06280000008B5002906D1101C8A
:10CE1000FFF7C2FE02F024F9002000E0004808BD40
:10CE20006280000000B585B0012902D9022909D02D
:10CE300033E01B4BDB7D101C1A491A1C08F0E4FE82
:10CE400000202BE06A460023D370033201A901932E
:10CE50008B6008230B704A600122FEF729F9012834
:10CE600001D011481AE06B4603331B780C4AD27D7F
:10CE7000934210D00A4AD375002B05D003210B4BE7
:10CE8000A022D205D15004E00C21084BA022D205EB
:10CE9000D150FDF729F8002000E0002005B000BDCA
:10CEA0009042002040830200628000001C070000C6
:10CEB00010B5002923D1134B1B689A420CD102F004
:10CEC000B9FA104B1C6802F0AFFA021C201C0E4984
:10CED00008F09AFE002013E0FDF78EF90123181ADE
:10CEE000C0B2FDF78FF9094B1B689C68FDF784F908
:10CEF000021C201C044908F087FE002000E00448C2
:10CF000010BDC046D451002040830200602A00209A
:10CF10006280000070B582B0141C012902D9022978
:10CF20000CD057E02D4B5A7D1207520E2C4BD25885
:10CF3000201C2C4908F068FE00204CE001A9FDF7F8
:10CF4000C7FF002844D0019A254B1B689A420FD096
:10CF5000254901230868824204D1DDB26AB2002A61
:10CF600008DA35E00133DBB20831102BF2D12FE0C3
:10CF7000002300256DB2194A527D1207120F954207
:10CF800024D0164A0F210B40517D0F2081430B43C3
:10CF90005375201CFDF79CFD142008F099F8134CE4
:10CFA0000126E661052008F093F8ED000C4B5D19B1
:10CFB0006A680F4BE250002384225200A3508E2255
:10CFC0005200A350A6602660FCF78EFF002002E00E
:10CFD000084800E0074802B070BDC04690420020FB
:10CFE000A0830200DC8A0200A88302000020004027
:10CFF000240500006280000010B584B0141C0129D3
:10D0000002D902290DD06EE0384B5A7DD206D20FDC
:10D0100001235A40D2B2201C354908F0F5FD00200A
:10D0200062E06A460023D370033201A901938B604A
:10D0300008230B704A600122FEF73AF8012801D05C
:10D040002C4851E06A46D17801234B40D370274ADF
:10D05000527DD206D20F9A4243D0244A01210B407E
:10D060001901537D102083430B435375201CFDF79A
:10D070002FFD142008F02CF81F4B0122DA61052047
:10D0800008F026F86B4603331B78002B0ED01A4BA2
:10D090001A4A995801208143995001225242A221F3
:10D0A000C9005A50A121C9005A500DE0124B134A31
:10D0B00098580121014399500A21A222D200995087
:10D0C0000821A122D20099500B4B00228421490053
:10D0D0005A508E2149005A5001229A601A60FCF77A
:10D0E00003FF002000E0034804B010BD9042002080
:10D0F0004083020062800000002000406C050000B8
:10D1000010B5041C02291DD103F08AF9031C082064
:10D11000DA0718D503F062FA031C08200A4A934282
:10D1200011D0201C094909F047FB43424341E41850
:10D13000201CFCF721FC064B1968201C08F0FCFDA4
:10D14000002000E0034810BDFFFF0000808B0200BC
:10D15000D45100206280000070B5141C002933D126
:10D1600003F05EF9031C0820DA0730D5184B196864
:10D170004B68013B4B60002B04DA164B186809F032
:10D1800087F903E00B685A1C0A601878431C1DD00D
:10D190000F4E104D211C08F06FFD33685A68013A9C
:10D1A0005A60002A04DA2868191C09F071F903E0B2
:10D1B0001A68511C19601078421CEBD10648211CDA
:10D1C00008F0BAFD002002E0044800E0002070BD35
:10D1D000D4510020602A00202C8E020062800000C2
:10D1E000F8B5071C0D1C161C03F01AF9041C0820C6
:10D1F000E30741D5002D2FD0022D16D11BE0381C9E
:10D200001E4909F0AFFA002811D18022D200521B2A
:10D2100092B2002A0DDB301C194908F0F5FC1948C0
:10D22000311C08F089FD002026E0174824E016484C
:10D2300022E0154820E002F00DF88024E400241AD2
:10D24000A4B202F001F8051C381C104909F08AFA52
:10D25000221C0028DDD0D2E701F0FCFF041C01F005
:10D26000F3FF8023DB001C1BA2B21B1A9BB2301CF5
:10D27000074908F0C9FCD2E7F8BDC04600880200A3
:10D28000C48A02002C8E020062800000E487020043
:10D290005091020010B5041C022932D103F0C0F8ED
:10D2A000031C0820DA072DD503F098F9031C082089
:10D2B000154A934226D0201C144909F07DFA4342B6
:10D2C0004341E418201CFCF757FBFDF7E1F8022866
:10D2D00003D100200121FCF79BFF201C09F07EFAFE
:10D2E00081B2201C02F0BCF8041CFDF7D1F8031C2D
:10D2F000201C022B06D10020011CFCF789FF201CFA
:10D3000000E0034810BDC046FFFF0000808B020014
:10D310006280000000B585B001290AD81E4B5B7DF4
:10D320005B06DB0F101C1D491A1C08F06DFC002069
:10D3300030E0022929D11A4B1B689A4227D06A464D
:10D340000023D3730F3200930293082369460B70B6
:10D3500001920122FDF7ACFE01281AD16B460F3372
:10D360001B780D4A527D5206D20F00209A4211D0EE
:10D37000094A01210B409901537D402083430B430F
:10D380005375FCF7B1FD002004E0064802E00648B2
:10D3900000E0044805B000BD904200204083020038
:10D3A000D4510020628000006380000074DF704769
:10D3B00076DF70477CDF704730B583B0031C141CE8
:10D3C000012902D9022909D030E01A48111C08F0BD
:10D3D000B3FC1948211C08F0AFFC25E0154D281CB2
:10D3E000191C1F2209F03CFAFCF77EFD01AC2378E2
:10D3F0000F229343012213430F22134010221343A1
:10D400002370281C09F0EAF982B2201C291CFFF7BE
:10D41000D1FF83B2181E0AD103F0E0F8074B9842FF
:10D4200002D1002002F044FE002000E0044803B0D6
:10D4300030BDC046DC4200202C8E0200FFFF000001
:10D440006280000010B5141C012910D803F0C6F842
:10D45000084A8318584243413120C01A211C08F061
:10D460000BFC0548211C08F067FC002000E0034885
:10D4700010BDC0460100FFFF2C8E0200628000003C
:10D4800008B500290DD103F0A9F8021C0020064BB5
:10D490009A4207D003F0A2F81321FFF789FF80B268
:10D4A00000E0024808BDC046FFFF000062800000A7
:10D4B00008B5002902D103F011F900E0004808BDC9
:10D4C00062800000F0B59BB0061C0C1C151C15A852
:10D4D0004649142208F031FE012C1FD801260024F1
:10D4E000434F02E001340136F6B2E3B2002B65D0BF
:10D4F000381C291C08F020FCFF2222401C3252005C
:10D500003C4BD25A281C3C4908F07EFB042EE9D93A
:10D510003A48291C08F010FC002065E003AA00230B
:10D5200012A9344804251C18248F5C5215705C180D
:10D53000546002330C320A2BF5D1301C03A90522AA
:10D54000FDF7B6FD0138C0B204283ED92C484BE0A7
:10D5500015AB12A81AAD02885C88198891422BD8A5
:10D56000A2423CD926483FE012AB1888214B1B8FC2
:10D57000834205D11F4B5A8F12AB5B889A4212D05F
:10D5800001AC8000052107F0FBFD208012AB58881C
:10D590008000052107F0F4FD60800023A380E38074
:10D5A000201C05F043FF174812A90A2208F0C5FD08
:10D5B000FCF79AFC002017E0114815E00D4B1A8F7C
:10D5C000281C0D4908F020FB8CE712A80D490A22FF
:10D5D00008F0A4FD031C0020002BB9D104E00433A3
:10D5E0000230AB42B7D1BFE71BB0F0BD748F020071
:10D5F00024840200904200209C8A02002C8E0200AB
:10D6000062800000C842002008B5002901D002292C
:10D6100003D1002002F04CFD00E0014808BDC046E7
:10D620006280000008B5002903D1FFF7BFFE80B279
:10D6300000E0014808BDC0466280000010B582B01D
:10D64000141C012902D902290DD024E04823134AD1
:10D65000D05C3030211C08F00FFB1148211C08F071
:10D660006BFB002018E00F4901AA09F005F801281A
:10D6700002D1019B012B01D90B480DE0482207493B
:10D680008A5C934205D05A1E934148228B54FCF782
:10D690002BFC002000E0044802B010BD90420020A6
:10D6A0002C8E02009C8A02006280000030B591B08E
:10D6B000022940D100230F9301A901938B60CB6015
:10D6C0004B6101230B701F234B7007AB4B60022390
:10D6D0000B730FAB0B610222FDF7EAFC041C01384F
:10D6E000C0B2012829D801AB5A78164D8B23EA54D1
:10D6F000281C6C3007A908F020FD02224923EA54B7
:10D70000022C05D10F9B012B19D84A220D498B54AD
:10D71000FCF7EAFB02F062FF0B4B984206D002F0E6
:10D720005DFF1321FFF744FE002009E0002002F016
:10D73000BFFC002004E0054802E0044800E0034884
:10D7400011B030BD90420020FFFF00006280000059
:10D7500010B584B001290ED846231E49CB5CDB07E7
:10D76000DB0FDBB20121CB1A101C1B491A1C08F07D
:10D770004BFA00202BE06A460023D3730F3200934C
:10D780000293082369460B7001920122FDF790FC79
:10D7900001281BD16A46D17B01234B40D37346221B
:10D7A0000C498A5CD207D20FD2B200209A420ED026
:10D7B000462201200340885C0124A04303438B548C
:10D7C000FCF792FB02F040FD002000E0034804B0AB
:10D7D00010BDC046904200204083020062800000DD
:10D7E00000B58DB0022931D101A9002301938B60CE
:10D7F000CB604B618B610B6205230B706B462F3343
:10D800004B600A230B736B462E330B610AABCB6163
:10D810000322FDF74DFC03281AD16B462E331978ED
:10D82000002917D001331B78C822D20098180C4A5F
:10D83000821880204000C31A9BB20A98FDF7C8FDE9
:10D84000002809D0FCF750FB002006E0054804E062
:10D85000044802E0034800E002480DB000BDC046A5
:10D86000904200206280000010B58AB0141C02298A
:10D8700033D10023009302930393059306930893F7
:10D8800005236A461370273201926A4613736B466A
:10D89000263304930A2313766B4625330793694690
:10D8A0000322FDF705FC032819D16B4625331978AF
:10D8B000002916D002331A78C823DB00D2180A4B8D
:10D8C000D2186B4626331B78201CFDF71DFD074838
:10D8D000211C08F031FA002004E0054802E0044869
:10D8E00000E003480AB010BD904200202C8E0200D8
:10D8F0006280000070B588B0141C02291ED101A9F5
:10D90000002301938B60CB604B6105230B706E4647
:10D910001F364E600B736D461E350D610222FDF7FA
:10D92000C7FB3078C823DB00C018064BC0182A7824
:10D930000121231C08F06CFB002000E0024808B025
:10D9400070BDC0469042002062800000F0B547469E
:10D9500080B4071C00240D4EA3B29846A3009D5925
:10D96000281C08F03BFF021C281C391C08F0D6FBC1
:10D97000002803D00134052CEED101E0404600E040
:10D98000034800B204BC9046F0BDC046888F020038
:10D99000FFFF0000F8B5061C0F1C084D0024301CCA
:10D9A000296808F071FF002801D03C7005E00134BF
:10D9B000E4B204350E2CF2D10020F8BD88900200AC
:10D9C000F0B55F4656464D464446F0B493B0141C3D
:10D9D0001D1C012931D8714DA623EA5C9200704BC1
:10D9E000D058211C08F0A8F9A523EB5C012B1ED907
:10D9F00001256A4F6B4E6C4A90467B19A03398798B
:10DA0000326813185B786822934303D0211C08F016
:10DA100033F905E080004346C058211C08F08CF91A
:10DA20000135EDB2A5235D4AD35CAB42E5D85F4832
:10DA3000211C08F081F90020A8E0022900D0A0E014
:10DA400000231193109306A906938B60CB604B6162
:10DA50008B610B6211AB4B6002230B7310AB0B613C
:10DA600006230B766B463F33CB610322FDF720FB89
:10DA700080460138C0B2022800D984E01198FFF72F
:10DA800065FF002805DA4A48211C08F055F9494885
:10DA90007CE001AB1870119E8000414BC05808F02B
:10DAA0009DFE301811900378002B44D001271222DC
:10DAB000934669460331FFF76DFF8146002803D086
:10DAC000119BC61AF6B203E0119808F087FEC6B2A1
:10DAD0004B465A1E9341DBB29946FB185A46D31A5D
