:020000021000EC
:1080000000800020351D0200991D02009B1D02000A
:108010000000000000000000000000000000000060
:108020000000000000000000000000009D1D020094
:1080300000000000000000009F1D0200A11D0200C2
:10804000A31D0200A31D020079E40100A31D02008C
:108050004DC201000000000089D60100A31D0200EE
:10806000A31D0200A31D0200A1BD0100A31D02006B
:10807000A31D0200A31D0200A31D0200A31D0200F8
:10808000A31D020061DA0100A31D0200A31D02006E
:1080900069DB01001910020039E90100A31D02008B
:1080A000A31D0200A31D020000000000000000004C
:1080B00000000000000000000000000000000000C0
:1080C000164B002B00D1144B9D46402292029A1A67
:1080D000924600218B460F461348144A121A0AF0A2
:1080E00060FE0F4B002B00D098470E4B002B00D0AA
:1080F00098470020002104000D000D48002802D000
:108100000C4800E000BF0AF0A5FD2000290004F0A3
:1081100053FC0AF02BFBC046000008000080002042
:108120000000000000000000F82900204C3F002063
:10813000000000000000000030B583B0041C0D1CDE
:10814000019001A900220BF055FA019BA34206D031
:108150001A780023002A03D12860012300E00023BD
:10816000181C03B030BDC04610B582B00C1C01A96C
:10817000FFF7E2FF002805D0019BFF2B01D82370F9
:1081800000E0002002B010BD10B582B00C1C01A9A7
:10819000FFF7D2FF002806D0019B044A934201D882
:1081A000238000E0002002B010BDC046FFFF0000A9
:1081B000F0B583B0041C0D1C171C0378202B03D1D1
:1081C00001342378202BFBD0201C01A910220BF0B6
:1081D00011FA019BA34221D91C1B022C20DC6E1C2E
:1081E00028701A782D2A1DD1012F22D9012508E0E7
:1081F00030700135EDB21A782D2A14D10136BD4206
:1082000017D05C1C201C01A910220BF0F3F9019B74
:10821000A34208D91C1B022CEADD04E0002502E081
:10822000002500E00125187843425841404228408B
:1082300000E0002003B0F0BDF0B557464E4645467D
:10824000E0B4051C9046002A31D0002831D00C1C27
:108250000026B146281C2C210BF0B4F8002803D0CE
:10826000471C4B46037000E0071C2378012B06D007
:10827000002B02D0022B09D01DE065600EE0281C07
:108280006168FFF759FF002808D119E0227A281CFD
:108290006168FFF78DFF031C237211D00136F6B21F
:1082A00046450AD00C34002F09D03D1CD2E70020EF
:1082B00006E0002004E0002002E0301C00E0301C5A
:1082C0001CBC90469946A246F0BDC046F8B5051CB8
:1082D0000E1C171C0A7808490AF0A8FA012F0AD9BF
:1082E000741CF719054E2278281C311C0AF09EFADE
:1082F0000134BC42F7D1F8BDCC4D0200D44D020090
:10830000F0B5474680B4141C002921D1134B1B68DB
:108310009A421FD01248111C0AF020FB114B1D1D60
:10832000BC339846104F114E381C211C0AF016FB26
:10833000301C211C0AF012FB01CD211C0AF00EFB9F
:108340004545F1D10A48211C0AF008FB002002E053
:10835000084800E0084804BC9046F0BD38370020CB
:10836000DC4D020044500200E04D0200E44D0200EA
:10837000D0520200628000006380000010B5044CFF
:10838000201C0021A0220AF00CFD024B1C6010BD35
:10839000FC290020F8290020F0B5474680B4071CCE
:1083A000884648490BF01AF8002831D03B78002B5A
:1083B00013D03D2B11D03A1C434D03242868C1181B
:1083C00048782040191C022800D120391170013250
:1083D0001378002B01D03D2BF0D1381C0BF010F896
:1083E000012805D93B78412B02D17B78542B05D04D
:1083F000364841460AF0B2FA354860E0BB780237A9
:10840000002B05D1334841460AF0A8FA002056E077
:10841000314E00243568281C0AF0F2FF021C381C7B
:10842000291C0BF019F8002805D00134E4B20436F9
:108430002F2CEFD101E02F2C05D1244841460AF022
:108440008DFA26483BE0251CA400234BE0580AF097
:10845000D7FFFF2318403F18381C21490AF0BEFF00
:10846000002805D11B4841460AF078FA002026E092
:10847000381C1C490AF0B2FF002802D10137012143
:108480000EE03B783D2B02D10137022108E00021AC
:10849000002B05D00D4841460AF060FA0F480EE067
:1084A000AD00114BEB58381C42469847041E01D1D1
:1084B000084800E0054841460AF050FA201C04BC78
:1084C0009046F0BDDC4D020090290020F04D0200E6
:1084D00060800000E84D020044500200618000000E
:1084E000F84D0200FC4D020000510200F8B54F4665
:1084F0004646C0B4041C474B1B68C31A5A4253413A
:10850000DBB298469B00444FFF18381C0AF078FFF6
:108510008146C6B2201C311C04F058FC051C431CCB
:1085200003D1731E9E41F0B270E00D2801D00A28DD
:108530004DD1381C39490AF051FF002847D1042594
:108540006368013B6360002B05DA354A1068211C23
:108550000AF0B0FD02E0236801332360013DEDB273
:10856000002DEDD1012009F0C5FB201C002104F0F5
:108570002DFC0D2801D00A280DD16368013B6360F2
:10858000002B05DA264B1868211C0AF093FD02E047
:108590002368013323604346002B04D002F08CFE95
:1085A0001C4B196809E001F0F9FF0123181AC0B249
:1085B00001F0FAFF1A4B1B6899681A480AF0CEF9C5
:1085C000381C002104220AF0ECFB01201EE02B2DB8
:1085D00013D1002E0AD0022E12D8FF224B461A4089
:1085E000381C11490AF0ACFB002809D1FF234A4688
:1085F00013402B22FA54012008E00020002E05D061
:10860000381C002104220AF0CCFB00200CBC904650
:108610009946F8BD383700209C2A0020DC4D020026
:10862000F4290020E84D0200004E0200F0B54F464C
:1086300080B4051C0F1C564EA03692E00A2C04D0C4
:108640000D2C02D0082C58D140E0524B1A68504BE8
:108650009A4200D885E0504B1B689B689F4207D127
:108660004E4B1B7A002B03D04D48391C0AF076F98B
:10867000484B002219680A70454C1C60201C391CAC
:10868000FFF78AFE8146201C46490AF0A7FE002813
:1086900067D14A46002A64D1012009F02BFB281C2F
:1086A000002104F093FB0D2801D00A2859D16B68F2
:1086B000013B6B60002B05DA374B1868291C0AF068
:1086C000F9FC4EE02B6801332B604AE0314B1A680D
:1086D0002F4B9A4245D9304B1B689B689F4207D16C
:1086E0002E4B1B7A002B03D02F48391C0AF036F989
:1086F000284B1A68013A1A6033E0264B1B68B342D4
:108700002FD2254B186883689F4225D1234B1B7AB3
:10871000002B21D0BB68013BBB60002B17DAB96985
:108720008B420FDB3A6814703B681A780A2A02D031
:1087300001333B6010E0184B18680A213A1C0BF01B
:10874000C5FE09E0211C3A1C0BF0C0FE04E03B68AA
:108750001C703B6801333B600E4A1368591C116062
:108760001C706B68013B6B60002B06DA0A490868D5
:10877000291C0AF09FFC041C03E02B68581C28608D
:108780001C78621C00D059E7002004BC9146F0BD63
:10879000FC290020F8290020F42900201C390020A1
:1087A000D0520200DC4D0200044E020071DF70471F
:1087B00074DF704776DF704777DF704700B583B0AE
:1087C000012902D902290AD042E0234BDB7A5BB2AD
:1087D000101C22491A1C0AF029F8002039E0012354
:1087E0005B4201931E4901AA0AF058FD00282BD0D4
:1087F00001982023021C9A43131C28330DD0102308
:10880000021C9A43131C143307D00423021C9A43FE
:10881000131C103201D0002B18D140B2FFF7CCFF4F
:1088200083B2181E15D10C4B019ADA7204F032F99A
:10883000FFF7BEFF02F04AFB0A4B984202D100202C
:1088400002F0EAF8002004E0074802E0064800E0F1
:10885000054803B000BDC0461C390020BC510200D1
:10886000C4510200FFFF00006280000030B587B0F5
:10887000151C012913D804AC201CFFF797FFA2791F
:10888000637921790091E1780191A1780291617871
:108890000391281C034909F0C9FF002000E00248A9
:1088A00007B030BDC85102006280000010B5141C32
:1088B00001290FD8A02380225205D35801221A4043
:1088C000201C054909F0B2FF0448211C0AF046F8B3
:1088D000002000E0024810BDE8510200D052020022
:1088E0006280000070B58AB0041C022900D094E0B8
:1088F00004A8002115220AF054FA201C2C210AF0A9
:1089000061FD002803D0451C0023037000E0051C16
:10891000201C69460E31FFF737FC002800D17EE0AD
:108920006B46D9898223434AD152281C2C210AF054
:1089300049FD002803D0441C0023037000E0041C00
:10894000281C04A91022FFF733FC102869D1201C31
:108950002C210AF037FD061E02D0002303700136D9
:10896000201C08A9FFF710FC00285CD0301C2C212B
:108970000AF028FD051E02D0002303700135301CCB
:1089800069462231FFF700FC00284ED0281C2C211C
:108990000AF018FD041E02D0002303700134281CC5
:1089A000254902AA0AF07AFC002840D004AB0298BC
:1089B0001875002C0FD000230193201C01A9FFF78C
:1089C000BBFB002802D0019B012B01D91B482FE0E3
:1089D0004A2218498B54174904AA0B1C6C3331CA1C
:1089E00031C330CA30C312781A7001224923CA54E5
:1089F00004F050F8FFF7DCFE02F068FA104B9842E2
:108A000006D002F063FA1321FFF7D4FE00200FE036
:108A1000002002F001F800200AE0084808E00748BA
:108A200006E0064804E0054802E0044800E0034888
:108A30000AB070BD1C390020EC51020062800000B9
:108A4000FFFF000010B5141C012913D802F03EFAF4
:108A50000022094B984202D002F03EFA021C52B2A8
:108A6000201C064909F0E2FE0548211C09F076FFAA
:108A7000002000E0034810BDFFFF0000C4510200C9
:108A8000D05202006280000010B5041C02292CD1D3
:108A900019490AF0A3FC0123002814D0201C17490F
:108AA0000AF072FC012300280DD0201C14490AF0A2
:108AB00095FC0023002806D0201C12490AF064FC13
:108AC000002814D10023104A127D9A4211D00E4A78
:108AD0001375002B03D000214923D15401E002F08B
:108AE0003DFA03F0D7FF002004E0084802E0074801
:108AF00000E0002010BDC04604520200144F0200E6
:108B0000A0530200085202001C39002062800000BD
:108B100010B582B0041C02291CD1124B1B7D002B06
:108B20001AD002F0D3F9031C08200F4A934216D042
:108B30006846002108220AF034F9201C6946082200
:108B4000FFF736FB831EDBB2062B07D8684602F020
:108B500095FE04E0054802E0054800E0034802B045
:108B600010BDC0461C390020FFFF000062800000DD
:108B700063800000F0B557464E464546E0B48AB0E3
:108B8000051C022958D1314B1B7D002B56D004A95E
:108B90002F4A0B1C51CA51C303CA03C312881A803F
:108BA0002C4B1A6802929A8802AB9A802A4B1C6856
:108BB00000949B886E46B38002A882462749894666
:108BC0000322904632E06E785C2C0BD15046311C6B
:108BD0000AF0F8FB002805D05346C01A6E46345CF4
:108BE000AF1CAE784846006803195B7841460B40DD
:108BF0000221012B07D004A8211C0AF0E3FB011C71
:108C0000481E81414900201C02F00EFE002816D1AA
:108C1000142009F06FF8A64201D0002E05D10020E3
:108C2000002102F001FE002809D13D1C6F1C2C78A8
:108C3000002CC8D1002002E0094800E009480AB031
:108C40001CBC90469946A246F0BDC0461C39002087
:108C50000C520200245202002C52020090290020E3
:108C6000628000006380000010B5041C022913D14B
:108C700002F086F8031C0820DA070ED502F026F968
:108C8000031C0820054A934207D0054B1968201C95
:108C900009F064FE002000E0024810BDFFFF000064
:108CA000383700206280000070B5141C002933D1D1
:108CB00002F066F8031C0820DA0730D5184B196853
:108CC0004B68013B4B60002B04DA164B18680AF026
:108CD000F1F903E00B685A1C0A601878431C1DD098
:108CE0000F4E104D211C09F0D9FD33685A68013A26
:108CF0005A60002A04DA2868191C0AF0DBF903E03C
:108D00001A68511C19601078421CEBD10648211CCE
:108D100009F024FE002002E0044800E0002070BDBD
:108D200038370020F4290020D05202006280000071
:108D3000F0B557464E464546E0B484B0061C0D1CBF
:108D4000171C1C1C02AA22490B6802938B88938073
:108D50007B00303393701020391C09F071F8A04665
:108D6000002C2ADD0024FF2303409946194B9A4624
:108D700000230193201C494609F0B8F800290AD1C4
:108D8000002C03D01448311C09F0E8FD301C51467A
:108D90002A1C09F04BFD01A8291C3A1C09F0DFFF31
:108DA000ED192020311C09F079FD301C02A9019A2F
:108DB00009F03CFD01344445DADB0748311C09F079
:108DC000CDFD04B01CBC90469946A246F0BDC046FD
:108DD0004052020034520200D0520200F0B587B077
:108DE000141C022933D1002305930493039303AB8E
:108DF00000931D4905AA04AB0AF050FA032828D1B4
:108E0000059D002D27D0049A002A26DD039E002E02
:108E100025DD531E012B01D9042A22D1D7B2391CDA
:108E2000042F00D90421C9B2281C08F0FFFF002933
:108E300005D00E48211C09F091FD0D4812E0B3B297
:108E4000201C291C3A1CFFF773FF00200AE0084889
:108E500008E0074806E0064804E0054802E0044848
:108E600000E0034807B0F0BD48520200545202002F
:108E70006280000008B5022907D0101C04490122B5
:108E8000044BFFF755FF002000E0034808BDC04633
:108E90001C3900202C0600006280000038B5012932
:108EA0001DD8114B1968114B994209D104230F4C5D
:108EB00080252D010C4819180968A1420BD000E04B
:108EC000002380210901CB1A101C09491A1C09F042
:108ED000ADFC002006E00433AB42EBD101E00548D5
:108EE00000E0032038BDC046007800200DF0FECA27
:108EF000685202006280000008B5002908D1101CE9
:108F00000449042280239B00FFF712FF002000E0A9
:108F1000014808BD007800206280000074DF7047BF
:108F200076DF70477CDF704730B583B0031C141CBC
:108F3000012902D9022909D032E01B48111C09F08D
:108F40000DFD1A48211C09F009FD27E0164D281CCB
:108F5000191C1F220AF096FA03F09CFD01AC23783D
:108F60000F229343012213430F2213401022134375
:108F70002370281C0AF044FA82B2201C291CFFF737
:108F8000D1FF83B2181E0CD1FFF7C8FF01F09EFF7E
:108F9000074B984202D1002001F03EFD002000E086
:108FA000044803B030BDC04668390020D0520200EA
:108FB000FFFF00006280000010B5141C012910D8CA
:108FC00001F084FF084A8318584243413120C01AF7
:108FD000211C09F063FC0548211C09F0BFFC00209E
:108FE00000E0034810BDC0460100FFFFD052020060
:108FF0006280000008B500290DD101F067FF021C56
:109000000020064B9A4207D001F060FF1321FFF7C2
:1090100087FF80B200E0024808BDC046FFFF0000A5
:109020006280000008B5002902D101F097FF00E03E
:10903000004808BD62800000F0B587B0061C0C1C1B
:10904000151C02A82949102209F089FE012C02D919
:10905000022C20D03EE001260024254F02E00134FE
:109060000136F6B2E3B2002B36D0381C291C09F0C9
:1090700075FCFF2222401C3252001E4BD25A281C83
:109080001D4909F0D3FB032EE9D91C48291C09F01E
:1090900065FC002027E01A4C6D460A35271C08376E
:1090A000301C01A90A220AF0A5FA019E0136002807
:1090B00009D0AA1E1288904202DB2A88904201DD64
:1090C000104810E0208002340435BC42E8D103F09F
:1090D000E1FC08E00B4806E0064B1A8F281C064905
:1090E00009F0A4FBBBE707B0F0BDC0467052020018
:1090F000E04D02001C390020C4510200D052020091
:10910000543900206280000008B5002901D00229EE
:1091100003D1002001F080FC00E0014808BDC046FA
:109120006280000008B5002903D1FFF7F7FE80B286
:1091300000E0014808BDC0466280000010B582B062
:10914000141C012902D902290DD024E04823134A16
:10915000D05C3030211C09F0A1FB1148211C09F022
:10916000FDFB002018E00F4901AA0AF097F801283A
:1091700002D1019B012B01D90B480DE04822074980
:109180008A5C934205D05A1E934148228B5403F0C7
:1091900081FC002000E0044802B010BD1C39002012
:1091A000D0520200C45102006280000030B591B07C
:1091B000022942D100230F9301A901938B60CB6058
:1091C0004B6102230B7007AB4B601F230B72012313
:1091D0000B730FAB0B610222FFF72EF8041C013852
:1091E000C0B201282BD801AB1A7A174DA323EA5439
:1091F000281C843007A909F0B2FD02224923EA5451
:10920000022C05D10F9B012B1BD84A220E498B54EF
:1092100003F040FCFFF782FE01F058FE0B4B984232
:1092200006D001F053FE1321FFF77AFE002009E07B
:10923000002001F0F1FB002004E0054802E00448B2
:1092400000E0034811B030BD1C390020FFFF0000D2
:1092500062800000A4DF7047A5DF7047A6DF70477B
:10926000F8B54F464646C0B480468946171E15DD00
:109270000026002463B29B004A469D58281C0AF031
:10928000BFF8021C4046291C0AF0C2F8002807D08B
:109290000134E4B266B2BE42ECDB01E000260024F9
:1092A000B7420BD063B29B004A4698580AF0A8F820
:1092B0004246135C3D2B02D0FF2400E0FF2460B245
:1092C0000CBC90469946F8BDF0B54F464646C0B432
:1092D00087B0041C0F1C90461D1C05A9FEF72CFF2F
:1092E000002806D0381C05A9042209F038FD281CE6
:1092F00022E0201C69462A1CFEF75AFF8146061E02
:109300000BD00020464517D34D4515D3381C694670
:109310004A4609F024FD48460EE0201C0AF070F889
:10932000031CC0B2A84200D92B1CDDB2381C211C82
:109330002A1C09F014FD281C07B00CBC9046994665
:10934000F0BDC04610B5141C002802D0012810D072
:109350001CE0081C111C1022FEF72AFF102817D150
:1093600000232375A3781B02E27813432382002095
:1093700013E0131C1033081C191CFEF705FF00280E
:1093800008D0238A002B07D1044806E0034804E0F4
:10939000024802E0014800E0002010BD62800000A9
:1093A000F0B5474680B480460E1C171E042F19D90D
:1093B000002F23D00978002920D0154B1B6859189D
:1093C0004978682081430DD00024682103E05D19AD
:1093D0006D788D4306D00134A2420FD9355D002D42
:1093E000F5D10BE0012F03D10A48414609F0B6FA46
:1093F0004046311C3A1CFEF769FF05E0301C012194
:109400003A1C434609F016FC04BC9046F0BDC04629
:1094100090290020A852020008B504480021044AFF
:1094200009F0BFFC03F036FB002008BDC83900205E
:10943000DC040000F0B54F464646C0B487B0041CBB
:10944000171C022971D1AC233C4AD35C04200A2B9F
:109450006ED068460021162209F0A3FC01236A465B
:109460001375201C2C2109F0ADFF002803D0451CEA
:109470000023037000E0051C002C38D0304B9846C8
:10948000994630E001342378202BFBD0201C414644
:109490000222FFF7E5FE061E0EDB83004A469858BF
:1094A00009F0AEFFF6B2411C6118301C6A46FFF7A6
:1094B00049FF061E08D000E0224E381C2249221C1B
:1094C00009F0B4F9301C33E0281C2C2109F07AFF94
:1094D000002803D0431C0022027000E0031C002D72
:1094E00005D02C1C1D1C2378202BCBD0CEE76A4640
:1094F000138A002B1BD0114CAC25665D16207043DF
:109500002018B0306946162209F029FC013666554C
:1095100003F0C0FA625D381C0C4909F087F90C4869
:10952000391C09F01BFA002002E0064800E005485B
:1095300007B00CBC90469946F0BDC0461C390020CF
:109540007053020062800000AC520200C45102005D
:10955000D0520200F0B557464E464546E0B48AB0B8
:10956000041C151C022900D0BFE0AC23694AD35C5F
:109570000420002B00D1C7E0AD23D35C1E2B00D10B
:10958000C2E001A80021222209F00BFC201C2C21A2
:1095900009F018FF002803D0471C0023037000E0E7
:1095A000071C002C6DD05C4A904691465B4A92465F
:1095B00063E001342378202BFBD0201C4146052298
:1095C000FFF74EFE061E4ADB83004A46985809F014
:1095D00017FF01302018F3B2042B40D89E005246EA
:1095E00093599F4669460631FEF7CEFD002836D0D6
:1095F00001AB5B88002B32D07FE069460331FEF778
:10960000B3FD00282BD06B4603331B78002B26D0EC
:109610006846053069460331012209F0A0FB6CE081
:1096200002A9FEF7A1FD002819D001AB1B79013B6F
:10963000132B14D861E069460931FEF795FD002827
:109640000DD001AB5B79013B132B08D855E069467F
:109650000A3101221423FFF737FE00284DD1281CC0
:109660002F49221C09F0E2F82E484DE0431C00224D
:109670000270002F05D03C1C1F1C2378202B98D093
:109680009BE701AB5B79002B02D101AB1A795A71D0
:1096900001AB1B79002B2AD001AA52799A4228D318
:1096A00001AB5B88002B26D01A4CAC23E35C013B5A
:1096B000DBB29846AD26A75D22225743E0198D30D4
:1096C000FF3001A909F04BFBE7198D37FF374346FF
:1096D0003B70A35D0133A35503F0DCF9A25D281CA8
:1096E000114909F0A3F800200EE00E480CE00D48E7
:1096F0000AE00C4808E00B4806E0381C2C2109F071
:1097000061FE031EB5D0B1E70AB01CBC9046994675
:10971000A246F0BD1C390020945202008052020083
:10972000C052020062800000BC510200F0B5474602
:1097300080B48AB0041C151C022900D08FE0544963
:1097400005AA09F0ABFD002800D18AE0059B002B9B
:1097500000DC88E0AD224F498A5C934200DD84E062
:10976000013B1A01D3185B00CE188D36FF36201C42
:109770002C2109F027FE041E0AD1B11D7279281C84
:10978000FFF70EFE4448291C09F0E8F800207AE0B3
:109790000378002B6BD001F099FB051CB71D601CF2
:1097A00032797379391CFFF78FFD6A461080327960
:1097B000824250D8727982424FD3384B9D4238D082
:1097C000727830231A4234D06B460020588002331E
:1097D000F18B06AA0224148050805360281CFFF7E6
:1097E0003BFD7478E406E40F04D06B4602331B881B
:1097F000D8073ED473789A061BD56B4602331B8874
:10980000980716D501AA9046101C0021102209F0D5
:10981000C8FA738B4046038063425C41013401A95E
:109820008C7000AA8A60CF60281CFFF717FD80B2F9
:1098300029E03279737900209A4224D0718B08AAEA
:10984000684603881380002353805360281CFFF769
:1098500001FD80B217E0124815E0114813E01048EE
:1098600011E00F480FE00E480DE00D480BE00C48EA
:1098700009E001AC201C0021102209F092FA738B40
:1098800023800124CBE70AB004BC9046F0BDC0465B
:10989000EC5102001C390020D0520200FFFF0000F2
:1098A00062800000F0B55F4656464D464446F0B42F
:1098B00085B0904600295CD1354B1B689A425AD03E
:1098C000AC23344AD35C002B57D000269246324B4F
:1098D0009946324B9B46162474435444B034721C50
:1098E000238A4046494608F0A1FF237D012B08D07A
:1098F0005846414609F032F84046211C1022FEF736
:10990000E5FC2748414609F029F8AD23214AD35CFC
:10991000002B26D00024171C25012D196D007D1960
:109920008D35FF352B78B34214D1621C6B88697872
:10993000009129790191697902914046194908F00D
:1099400075FFA91D6A794046FFF72AFD1448414674
:1099500009F004F80134E4B2AD230E4AD35CA3420B
:10996000DAD80136F6B2AC230A4AD35CB342B2D895
:1099700005E00D4804E00D4802E0002000E0002072
:1099800005B03CBC90469946A246AB46F0BDC046E9
:10999000383700201C390020D4520200E85202005F
:1099A000D0520200F4520200628000006380000086
:1099B000F0B5474680B494B080460F1C151C802338
:1099C0005B055A6E1B6E0FAC201C264909F044FC47
:1099D00003F066FD021C0AAE301C234909F03CFC72
:1099E00000230293214B039304960594204B069386
:1099F0000793204B089303F06DFD0990002F02D0D0
:109A0000022F0ED026E003AC0AAF1B4E01CC291C5E
:109A100008F0A4FF301C291C08F0A0FFBC42F5D1BF
:109A20001AE04046154901AA09F038FC002803D085
:109A3000019B5A1E062A01D911480EE09B0002AA7A
:109A40009858291C08F08AFF0B48291C08F086FF4B
:109A5000002002E00A4800E0002014B004BC904658
:109A6000F0BDC046785302008453020090530200B8
:109A70009C530200A4530200D0520200C4510200C1
:109A80006280000038B5051C141C012902D9022986
:109A90000CD01FE0124B187A3030111C08F0FEFE7B
:109AA0001048211C08F05AFF002018E009F0A8FC1B
:109AB000012811D12B78303BDBB2012B0ED8084A9C
:109AC000127A00209A420AD0054A137202F0E2FF8D
:109AD000002004E0044802E0034800E0024838BDEA
:109AE0001C390020D05202006280000000000000FB
:109AF000F0B5474680B400292DD11B48111C08F051
:109B00002DFF322008F0F6F8184B194AD058410CB6
:109B1000C003144B124A08F0F5F98046144F134E57
:109B2000104D0F4C02F0AEFF00280CD0BB59590C61
:109B3000D803221C2B1C08F0E5F94346C01A2C233D
:109B4000FF339842EED9BFF34F8F0A4A0A4BDA60CF
:109B5000BFF34F8FFEE7094804BC9046F0BDC046F6
:109B6000E880000000000000E84D0200040500004D
:109B7000001001400400FA0500ED00E062800000E2
:109B8000F0B5474680B4141C002931D103F036F8F3
:109B900001F0E4F91A48211C08F0E0FE322008F038
:109BA000A9F8184B184AD058410CC003134B124A5D
:109BB00008F0A8F98046144F124E104D0E4C02F0DA
:109BC00061FF00280CD0BB59590CD803221C2B1C58
:109BD00008F098F94346C01A2C23FF339842EED977
:109BE000BFF34F8F094A0A4BDA60BFF34F8FFEE78E
:109BF000084804BC9046F0BDE8800000000000006A
:109C0000E84D020004050000001001400400FA05C0
:109C100000ED00E062800000F0B5474680B4002906
:109C200029D11948111C08F099FE322008F062F879
:109C3000164B174AD058410CC003124B104A08F07B
:109C400061F98046124F114E0E4D0D4C02F01AFF75
:109C500000280CD0BB59590CD803221C2B1C08F02F
:109C600051F94346C01A2C23FF339842EED901F034
:109C7000EDF9002000E0074804BC9046F0BDC04666
:109C8000E880000000000000E84D0200040500002C
:109C9000001001406280000008B5002910D1094B76
:109CA0001B689A4203D101F007FB002009E000F095
:109CB00075FC0123181AC0B200F076FC002000E009
:109CC000014808BD383700206280000010B582B01E
:109CD000141C022918D1114901AA09F0DFFA002841
:109CE00014D00199072913D8022913D0C9B2022030
:109CF000002201F0D3FE01F00BFF021C201C0849DA
:109D000008F094FD002006E0064804E0054802E063
:109D1000044800E0034802B010BDC046C451020030
:109D2000B05302006280000010B5141C00290AD153
:109D300001F0DCFE01F000FF021C201C034908F0CA
:109D400075FD002000E0024810BDC046B05302007F
:109D50006280000039DF70473ADF704752DF70479A
:109D600010B582B0141C012918D801A8FFF7F6FF1E
:109D7000002811D1019BD917890FCB189A10032005
:109D800003405B1A9900CB1899005B18201C054909
:109D900008F04CFD002002E080B200E0024802B072
:109DA00010BDC046B85302006280000010B582B0FA
:109DB000141C02292AD101235B420193174901AAED
:109DC00009F06CFA002823D0019B1F2B22D8C13345
:109DD000FF339B0080218902A022D20599501048B0
:109DE000211C08F0BBFD322007F084FF0020002179
:109DF00000F0E0FB0120002100F0DCFB0121A023AA
:109E0000DB008022D205D150002004E0054802E0AA
:109E1000044800E0034802B010BDC046C45102002F
:109E2000E84D020062800000F0B5474680B486B07D
:109E30009046002902D0022904D056E004226B4645
:109E4000DA750BE069461731FEF78EF900284ED01F
:109E50006B4617331B78013B0F2B4AD800256C4605
:109E6000033400276E4617362770201CFFF772FF59
:109E700083B2002B19D12378002B12D03178491BE3
:109E80000A1CC9B2994200D91A1CD1B2227001AB86
:109E90005819FFF761FF80B200282BD12378ED1805
:109EA000EDB23378AB42DFD801E0181C22E0134852
:109EB000414608F053FD6B4617331B78002B0ED03C
:109EC00000240F4E6D46173501AB1A5D4046311C1C
:109ED00008F0ACFC0134E4B22B78A342F4D8094872
:109EE000414608F03BFD002004E0074802E0064838
:109EF00000E0054806B004BC9046F0BDA852020040
:109F0000CC4D0200D05202006280000000B583B048
:109F1000002902D0022909D027E0154B5B7A101CDA
:109F200014491A1C08F082FC00201FE06946073122
:109F3000FEF71AF9002804D06B4607331B78012B73
:109F400001D90D4812E00A4A527A9A420BD0002BEE
:109F500003D10020002100F02DFB6B46DA79044B81
:109F60005A7202F097FD002000E0034803B000BDE4
:109F70001C390020BC5102006280000010B582B084
:109F8000002902D0022909D034E01C4B9B7A101C16
:109F90001B491A1C08F04AFC00202CE069460731D6
:109FA000FEF7E2F8002804D06B4607331B78012B3C
:109FB00001D914481FE0114A927A9A4218D0002B16
:109FC00003D10120002100F0F5FA6C46E2790B4B39
:109FD0009A7202F05FFDE379012B09D100F076FF60
:109FE000094BC1184B1E9941C9B2012000F0E2FA99
:109FF000002000E0034802B010BDC0461C3900201C
:10A00000BC510200628000000100FFFFF0B54F4626
:10A010004646C0B483B0161C002902D0022924D0C1
:10A0200038E003240125224B98460027214B99460E
:10A03000E0B201F0C9FC00280BD0002D03D1484646
:10A04000311C08F08BFC301C4146221C08F0EEFB52
:10A050003D1C0134782CEBD10020002D22D1164874
:10A06000311C08F07BFC00201CE000230193134905
:10A0700001AA09F013F9002803D00198C31E742B1C
:10A080000AD90F480EE0301C0E49019A08F0CEFBA9
:10A09000002007E00A4805E0C0B201F095FC002866
:10A0A000F6D0F0E703B00CBC90469946F0BDC04630
:10A0B000C4530200E04D0200D0520200CC53020013
:10A0C00062800000D0530200011C00201F2919D813
:10A0D0000D4B1878002810D00C4B1B788B420ED0FB
:10A0E0000B4B0138C0B2181803E01A7801338A42CA
:10A0F00007D08342F9D1012004E0012002E00020D2
:10A1000000E000207047C0461455020018550200B8
:10A110001955020030B583B0141C022941D12649DB
:10A1200001AA6B4609F0BAF8012805D002283AD1F5
:10A13000009D012D39D812E0A223DB00A022D20518
:10A14000D358019AD340012018403030211C08F028
:10A15000A5FB1A48211C08F001FC00202AE0184B3E
:10A16000A022D205D358019CE340DA071FD5201C5A
:10A17000FFF7AAFF00281CD0002D08D10123A3401F
:10A180001C1C104BA022D205D450002012E0012349
:10A19000A3401C1CA123DB00A022D205D450002028
:10A1A00008E0094806E0084804E0074802E00648DD
:10A1B00000E0054803B030BD4C520200D05202000E
:10A1C000140500000C0500006280000030B583B06B
:10A1D000141C022964D1384901AA6B4609F05EF8C3
:10A1E000012805D002285DD1009D032D5CD823E015
:10A1F000324BA022D205D258019BDA400120D10770
:10A200000FD49B00A022D2059B18E022D2009A58BE
:10A210000320510705D4E022D20098580007C00F50
:10A22000400000903030211C08F038FB2448211CED
:10A2300008F094FB00203CE0019C201CFFF744FF49
:10A24000002833D0012D08D002DC002D0ED02FE0E5
:10A25000022D13D0032D1AD02AE0C134FF34A400FC
:10A260000322A023DB05E250002022E0C134FF34AA
:10A27000A4000020A023DB05E0501AE0C134FF3425
:10A28000A4000C22A023DB05E250002011E0C13421
:10A29000FF34A4000422A023DB05E250002008E0E4
:10A2A000084806E0074804E0064802E0054800E0E8
:10A2B000002003B030BDC0464C520200140500001F
:10A2C000D05202006280000010B586B0022925D16C
:10A2D000174905AA04AB08F0E1FF022820D1059C2C
:10A2E000201CFFF7F1FE00281CD0049A642A1BD81A
:10A2F000684600210E2208F054FD01236A461370BF
:10A3000054701371022353719372684601F034FC48
:10A310000020049901F020FD002006E0054804E03B
:10A32000044802E0034800E0024806B010BDC04601
:10A330004C5202006280000074DF704776DF704785
:10A34000F0B5474680B4071C00240D4EA3B29846D2
:10A35000A3009D59281C09F053F8021C281C391C25
:10A3600008F0EEFC002803D00134052CEED101E00A
:10A37000404600E0034800B204BC9046F0BDC04631
:10A38000DC530200FFFF0000F8B5061C0F1C084D4F
:10A390000024301C296809F089F8002801D03C709D
:10A3A00005E00134E4B204350E2CF2D10020F8BDF2
:10A3B000DC540200F0B55F464E464546E0B490B02E
:10A3C000041C151C022900D0AEE009AB00220B9240
:10A3D0000C920D920E920F920321197059705849E8
:10A3E00059800620187116205871D9805549C97AAC
:10A3F0005972089202A902924A608A60CA604A6150
:10A4000001230B7308AB0B61201C0222FDF714FF24
:10A4100081460138C0B2012800D987E0201CFFF72F
:10A420008FFF002805DA4848291C08F097FA4748AA
:10A430007FE009AB98728000454BC05808F0E0FF00
:10A4400024182378002B3FD0002742498B46201C3C
:10A4500069460731FFF798FF061E03D0031BDBB2E6
:10A46000984604E0201C08F0CBFFC0B28046F319E8
:10A4700059424B411033434505DA3748291C08F04F
:10A480006DFA092055E009ABDA19101C0B30211CBC
:10A49000424608F064FC44444146CB19DBB2002E2E
:10A4A0000DD05A1CD7B26946CA7909A9CB18DA72FD
:10A4B00092005B46D05808F0A3FF241800E01F1C50
:10A4C0002378002BC3D100E0002709A90B79FB18E2
:10A4D0000B713A1C0B32D2B21A4CA323E254201C4B
:10A4E000843008F03CFC02224923E2544946022908
:10A4F00005D1089B012B1BD84A2212498B5402F02C
:10A50000C9FAFFF719FF00F0E1FC144B984206D09E
:10A5100000F0DCFC1321FFF711FF002009E0002010
:10A5200000F07AFA002004E0084802E0074800E062
:10A53000064810B01CBC90469946A346F0BDC046E4
:10A54000D8FEFFFF1C390020F0530200628000009B
:10A55000DC530200DC5402001C540200FFFF000028
:10A5600048DF70477047C046830702D50122044B7D
:10A570001A708B0702D50022014B1A707047C04633
:10A58000A62A0020014B18887047C046A42A002044
:10A59000014B18887047C046402F0020014B1878A7
:10A5A0007047C046A62A0020014B18707047C0466D
:10A5B000A62A0020002805D1104B5B7A002B1BD067
:10A5C000122307E01323012804D10C4B9B7A002BA4
:10A5D00012D01323002908D001229A40131CA12273
:10A5E000D200A021C9058B5006E001229A40131C1D
:10A5F000034AA021C9058B507047C0461C39002072
:10A600000C05000030B58DB0A823DB005D4AD158A1
:10A6100000235D4A914204D8A823DB00594AD3584D
:10A620009BB25A4A1380A823DB00594AD158002311
:10A63000554A914204D8A823DB00554AD3589BB20F
:10A64000544A138000230093202008210622524BF5
:10A6500003F0E8FC002803D00021002200F092FB68
:10A6600002204E4903F082F8002803D00021002286
:10A6700000F088FB09A80B2303700923437008230B
:10A6800083700A23C3700123037100224271444B7B
:10A6900083606B46DA810E33424A0492802205922F
:10A6A000414906910792009304A9404A012303F00F
:10A6B0003BFF80B2002862D13D4B1B6898680021A7
:10A6C00008F03AFD09203B494822002304F0FAF83B
:10A6D000002803D00021002200F054FB364804F08B
:10A6E00021F980B200284AD105F020FF80B200286D
:10A6F00045D102F0C1FA002841D1A023DB050C218D
:10A70000E822D2009950A222D2009B58DA030BD43F
:10A710002A4807F0EFFAA223DB00A022D205D35883
:10A72000DA0301D402F06AFAA024E4050C25244BD4
:10A73000E55001F071F901F0AFFE224BE55068469B
:10A74000233002210222204B03F04EF880B2002871
:10A7500015D16B462333187803F072F8A222D20089
:10A76000A1588907C90F194A11700322E921C900AC
:10A7700062501749625001200021FFF71BFF0DB006
:10A7800030BDC04600900040FEFF0000A42A00201B
:10A7900000A00040402F0020F02B0020442F00207C
:10A7A00000502700F02A0020702B002065A5010032
:10A7B000F4290020A82A002099030200DC050000EB
:10A7C0001C0700000407000069A50100A62A00205C
:10A7D0004C070000431E98411230044BA022D205C2
:10A7E000D358C340181C01231840704704050000CB
:10A7F000031C0020002B08D1A223DB00A022D205DD
:10A80000D058C009012358401840704708B5FFF7D9
:10A81000A7FE08BD00000000F8B54F464646C0B48C
:10A82000071C254D254C2859410CC003214B204ABB
:10A8300007F068FB061C2859410CC0031D4B1C4A3D
:10A8400007F060FB801BF423FF33984216D8A9461B
:10A85000A046184D164C381C03F0A6FF00280DD05A
:10A860004A4642441368590CD803221C2B1C07F09B
:10A8700049FB801BF423FF339842ECD90F4B0E4A5F
:10A88000D058410CC0030B4B094A07F03BFB861B19
:10A89000381CF423FF339E4203D903F091FF0120BB
:10A8A00040420CBC90469946F8BDC046C046C046E2
:10A8B000E8800000000000000010014004050000D6
:10A8C00000B583B06846073003F066FF002802D168
:10A8D0006B46D87901E00120404203B000BDC0467C
:10A8E00000B583B06946073103F07AFF002802D132
:10A8F0006B46D87901E00120404203B000BDC0465C
:10A9000072DF704773DF704774DF7047A0DF7047F6
:10A9100060DF704768DF704708B505F03DFD08BD92
:10A9200008B50A4BDB79002B04D0084B1B69002BC0
:10A9300000D09847054BDB7E002B04D0034B5B6AAD
:10A94000002B00D09847002008BDC04600290020F9
:10A9500030B58FB068463730164BDA7A02701A7D00
:10A960000CA9154B9400A518AD005D19AD880D809C
:10A97000A418A4001B199B798B70002300930293E9
:10A980000393049306930793089309930A930B93F5
:10A9900006236C46E3700190012323820591002A6F
:10A9A00000D0A3706846002104F0E0F980B20FB037
:10A9B00030BDC0461C3900200029002030B597B0BA
:10A9C00010AC0223237015236370124D291C6C31C7
:10A9D00068464230152208F0C2F90DAA8223EB5ACC
:10A9E0001380172393800F9401A8002301934360E1
:10A9F0008360C360036143618361C36103628362F7
:10AA0000C3620423C3704262002104F0AFF980B234
:10AA100017B030BD1C39002070B592B0061C0CACCC
:10AA200000230C930D930E930F931193314DA88F28
:10AA3000C000052107F004FA2082EB8F6382002E0C
:10AA400004D00CAB2C4A1A8200225A824923294A8C
:10AA5000D35C012B0AD0002B02D0022B11D045E091
:10AA6000FFF776FF031C002B14D040E00CABA022B4
:10AA70001A8200225A82FFF7A1FF031C002B09D083
:10AA800035E01E48C17F00220023FFF739FF83B263
:10AA9000181E2CD100230093019302930393049377
:10AAA000059306930793089309930A930B9314480D
:10AAB00008F0A6FC00231D2282425B4101336A4656
:10AAC00013700F4808F09CFC00231D2800D91D239B
:10AAD0006A4653700020694604F048F983B2181E94
:10AAE00005D10CA8FFF70EFF80B200E0072012B0DE
:10AAF00070BDC0461C3900206A030000A039002048
:10AB000068390020F0B55F4656464D464446F0B4DD
:10AB10008BB008A8674B021C12CB12C2FFF7F8FEDD
:10AB200083B2181E00D0BEE0634803F0F1FE83B28A
:10AB3000181E00D0B7E0614803F0F4FE83B2181E7F
:10AB400000D0B0E080235B055B6B022B11D102AC1F
:10AB5000201C0021082208F024F922780123134345
:10AB600023700120211CFFF7D5FE80B2002800D001
:10AB700099E000F023F900F021FA00F0BFFC504BFF
:10AB8000504A127DDA761C1C1E1C28360127251C13
:10AB9000E279002A10D02068002801D1A77104E0D2
:10ABA00000F0FEFBA07101287CD9AB68002B03D01C
:10ABB000A8799847002876D11434B442E7D1AC2361
:10ABC000404AD35C002B63D00026924693469046C1
:10ABD000162373435344B03399461B7D012B06D093
:10ABE000484600F0DDFB4C462075012850D901A9EC
:10ABF0004A46138A0B80137D8B7001201232FFF7B7
:10AC000085FE80B2002843D1AD235C46E35C002B77
:10AC100037D0002402AD2B4F2101091949004144CE
:10AC20008D31FF310B78B34225D100232B606B604F
:10AC3000AB60EB602B616B614A46538A2B804B887B
:10AC40006B80137D2B714B78AB718B1DAB600B79D7
:10AC5000AB814B79EB812B7D0F2293430122134370
:10AC60000F221340102213432B751A31281C00F0B9
:10AC7000B5FB00280CD10134E4B2AD23FB5CA34248
:10AC8000CAD80136F6B2AC230E4AD35CB3429FD881
:10AC900048230C4AD35C0020002B04D0FFF7BCFEF5
:10ACA000002000E007200BB03CBC90469946A2462D
:10ACB000AB46F0BD28550200C9AC010019A901003E
:10ACC000002900201C39002010B586B0041C00F0BB
:10ACD00009F9201C05F09EF9201C00F08BF923884F
:10ACE000112B1FD0192B27D0102B35D1012001217A
:10ACF000FFF760FC4A23204AD35C002B2CD00023B2
:10AD000000930193029303930493059303236A46EC
:10AD10001370A02313826846FFF7F4FD80B2002869
:10AD20001AD027E001200021FFF744FCFFF7ECFDDB
:10AD30000020FFF771FE0FE0A379002B0CD1FFF785
:10AD4000E3FD0120FFF768FE06E00C4B1B6A002BB9
:10AD500010D0201C98470DE0084BDB79002B05D064
:10AD6000064BDB68002B01D0201C9847034BDB7E91
:10AD7000002BEAD106B010BD1C39002000290020AC
:10AD800001207047BFF34F8F024A034BDA60BFF3D5
:10AD90004F8FFEE70400FA0500ED00E077DF704713
:10ADA00078DF70477ADF70477CDF704784DF704759
:10ADB000A7DF7047002070477047C04630B58BB0A2
:10ADC000FFF7DEFF40080124204001AB187003AB01
:10ADD00000220592374A039201221A710D225A71FC
:10ADE00007229A711022DA71FFF7CAFF044209D0D4
:10ADF00001A804F0DFFA80B2002803D12E4803A98D
:10AE000004F074FB2D4B0B201856FFF7C7FF83B2DD
:10AE1000181E4DD1FFF7B4FF031C0020D90747D5FA
:10AE20006A4613780F229343012213430F221340E3
:10AE3000102213436C462370214C201C08F0E0FACA
:10AE400082B26846211CFFF7AFFF83B2181E2FD1D4
:10AE50001A4B1B7D0020002B00D01A48FFF7A0FFE3
:10AE600083B2181E24D101AC144D288F8000052117
:10AE700006F098FF2080688F8000052106F092FF81
:10AE800060800023A380C8235B00E380201CFFF7C1
:10AE900089FF83B2181E0BD103A80B4A031C32CAC8
:10AEA00032C332CA32C312681A6005F06DF880B23C
:10AEB0000BB030BDB5AD01006D2F00201C39002056
:10AEC00068390020C103000044550200014B188876
:10AED0007047C04628290020014B002018567047B3
:10AEE0006C2F002010B5041CFFF74AFFC30702D5E2
:10AEF000201C04F08FFC2388182B21D004D8102BA1
:10AF000007D0112B13D021E01A2B15D0522B17D0BC
:10AF10001CE0A2880E4B1A80FFF732FFC30715D53D
:10AF20000B4B188801210022FFF740FF0EE00122A1
:10AF30005242074B1A8009E0A279064B1A7005E0CD
:10AF4000034B18880C21044AFFF732FF10BDC0469E
:10AF5000282900206C2F0020FFFF000008B5FFF714
:10AF60000FFFC30704D5034804F004FB80B200E0E0
:10AF7000014808BD6D2F00206380000044DF70474A
:10AF800011DF704713DF704774DF704776DF70475B
:10AF900008B5FFF79BFF084B984204D0FFF796FFD8
:10AFA0001321FFF7F3FFFFF7EFFF01200021FFF769
:10AFB00001FB05F027F808BDFFFF000010B584B0C5
:10AFC000FFF7E0FA01A90880074B4B6000238B6074
:10AFD000064805F0BBFD84B2002C02D1044805F000
:10AFE000A3FD201C04B010BDB9090200702F002081
:10AFF00091AF010008B5011C014805F01FFF08BD15
:10B00000702F0020064C064D061C064FF0B400249D
:10B01000002500260027F0B40348004770470000D1
:10B02000FFFFFFFF00000021F9FFFFFF016881F330
:10B03000088840680022EFF305839A42E2D1024C6F
:10B04000A646004770470000FFFFFFFF10B5FFF75F
:10B050009FFFB120FFF792FF83B2181E19D1FFF7AF
:10B060008FFF83B2181E14D10A4B5869FFF78AFF6D
:10B0700084B2201E0DD1084B8021C903C02252008A
:10B080009950196880229950024B5869FFF7CEFFFA
:10B09000201C10BD0010001000E100E0A0DF704790
:10B0A000A6DF704730B589B0051C2D4C201C00214F
:10B0B000282207F076FEA57007A901230B808D706A
:10B0C0000120221CFFF7EAFF83B2181E45D101A818
:10B0D0004360436122490B88038007AB9B7803716F
:10B0E000012383811423C381212303750323438018
:10B0F000102383710B1C143383601A4B03610431DA
:10B1000000F06CF9031C002B27D101A80223438017
:10B110000823837100238360134B036110490C31B2
:10B1200000F05CF9031C002B17D11048104907F000
:10B1300071FB031C0F4A10600520002B0DD0181C5A
:10B14000002107F0F9FF0C4801F0A6FA0B4801F0C6
:10B15000A3FA00220A4B1A70002009B030BDC04685
:10B16000A42F0020605502006455020068550200BB
:10B17000705502003837002034290020442900206F
:10B18000A02F002000B583B006486946073101F0C2
:10B19000E5F9002802D06B46D87901E00120404251
:10B1A00003B000BD4429002000B583B0011C07484E
:10B1B0006A46073201F012FA002802D06B46D879AD
:10B1C00001E00120404203B000BDC04644290020F8
:10B1D000014B188980B2704744290020000000000C
:10B1E000F0B583B06B46D8711D4B1E4AD058410C48
:10B1F000C0031A4B184A06F085FE061C1A4F174D5D
:10B20000154C381C6946073101F014FA00280CD19E
:10B21000134B144AD358590CD803221C2B1C06F08C
:10B2200071FE801B114B9842EBD90D4B0D4AD05843
:10B23000410CC003094B084A06F064FE861B0B4B09
:10B240009E4202D86B46D87901E00120404203B00B
:10B25000F0BDC046C046C046E880000000000000C7
:10B26000040500000010014034290020B70B000045
:10B2700070B50388502B14D1C2880A4B9B899A421F
:10B280000FD1C38B002B0CD00024074E851D29192C
:10B290001A31301C01F0CEF90134A4B22B8BA34239
:10B2A000F5D870BDA42F002044290020014B187848
:10B2B0007047C046A02F002008B5064B1A78012120
:10B2C0008A1A1A70044801F0E7F9044801F0E4F919
:10B2D00008BDC046A02F00203429002044290020AA
:10B2E00010B586B0FFF7F2FD254B984204D12548F2
:10B2F00001F0D2F900203AE0234B244AD058410C07
:10B30000C0031E4B1C4A06F0FDFD214B1968421A72
:10B310005B6800209A422AD31B4B1C4AD058410C30
:10B32000C003164B144A06F0EDFD194B1860154882
:10B3300018491431142201F037F9031C6A46D080F1
:10B340000020002B13D002AC002302930393114B77
:10B350009A8822800122A2706A460632049214332F
:10B360000593FFF7B3FD211CFFF79AFE80B206B0EC
:10B3700010BDC046C046C046E88000000000000086
:10B38000FFFF0000342900200405000000100140E8
:10B390002C290020A42F0020A2DF704763DF704714
:10B3A00010B586B000226B46DA7100235942C218EC
:10B3B000D47B02AA8C54013B1A1C1032F6D102A88D
:10B3C00069460731FFF7EAFF0023002802D16B46E8
:10B3D00007331B78181C06B010BDC04670B590B07E
:10B3E000041C0D1C037D002B08D10F229343012266
:10B3F00013430F2213401022134303753D4B5B7B15
:10B40000002B09D1237D0F229343012213430F22E6
:10B410001340102213432375A37930221A4217D008
:10B420000FAE301C0021032207F0BBFCB3780622CC
:10B43000934302221343B37033780F2293430122C4
:10B4400013430F221340102213433370237D737074
:10B4500008AA0020089009900A900B900C900E907A
:10B46000A379137000223021194200D00FAA0D9247
:10B4700007AA0023138011231370042393702069FB
:10B4800000280BD00378002B08D008AE099007F0F5
:10B49000B7FF80B23081708107AB336106AA002309
:10B4A0001380A189E389C81A461EB041042630439F
:10B4B0009070A2793220104202D0207D06AA10702E
:10B4C000A279100702D5207D06AA507001AA00209B
:10B4D0009060D060A01C019006A8506011819381FB
:10B4E000A3681361208808A92B1CFFF755FF80B2C1
:10B4F00010B070BD1C390020A0DF704710B594B0AB
:10B5000012A84349042207F02AFC012012A96A4626
:10B510004E32FFF7F1FF83B2181E77D10CAC0D93BA
:10B520000F93109311936B464E331B882380012396
:10B5300023710223A37111232375364B6380364890
:10B540000E9007F05DFF80B2E081A081201C0AA967
:10B55000FFF744FF031C002B58D10CAC2F4B63802A
:10B560002F480E9007F04CFF80B2E081A081201C94
:10B5700008A9FFF733FF031C002B47D180235B058D
:10B580005A6E1B6E274C201C274907F065FE0CA83D
:10B59000264A428084601022C281828106A9FFF778
:10B5A0001DFF031C002B31D10CAC214B63802148C3
:10B5B0000E9007F025FF80B2E081A081201C04A935
:10B5C000FFF70CFF031C002B20D10CAC1A4B63803F
:10B5D00001F080FFA06007F013FF80B2E081A0813E
:10B5E000201C02A9FFF7FAFE031C002B0ED10CACA5
:10B5F000124B638001F054FFA06007F001FF80B29E
:10B60000E081A081201C6946FFF7E8FE14B010BD60
:10B6100074550200292A000078550200242A0000EF
:10B62000A0550200CC2F002078530200252A0000EC
:10B63000282A00008C550200262A0000272A000034
:10B640007047C046F0B557464E464546E0B496B002
:10B6500002AF381C0021082207F0A3FB6846002136
:10B66000082207F09EFB08233B8000218A46B97020
:10B67000012301218846FB703A790F26B2434146E7
:10B680000A430F252A402021894649460A433A7138
:10B690007A79B24341460A432A4049460A437A71BD
:10B6A000BA79B24341460A432A4049460A43BA712D
:10B6B0006A461380534693700223D3705379B34381
:10B6C00041460B432B404A46134369464B718B79E5
:10B6D000B343424613432B4049460B436A4693719A
:10B6E00004AC201C0021482207F05BFB474B04936D
:10B6F0005346636001232372514661724246A2722F
:10B70000E760227400AB636121765146E1614C230E
:10B71000A3843F4B23620223FF3323863223E15469
:10B7200003223323E2543623E154A1632C23E25C49
:10B73000B24341460A432A4049460A43E2542D2374
:10B74000E25CB2432A40E2543423E25CB243414615
:10B750000A432A4049460A43E2543523E25CB24395
:10B760002A40E2544323E25CB24341460A432A4062
:10B7700049460A43E2544423E25CB24341460A4349
:10B780002A4049460A43E2544523E25CB2432A4038
:10B79000E2544623E25CB24341460A432A4049460A
:10B7A0000A43E2544723E25CB24341460A432A403B
:10B7B00049460A43E2543C23E25CB24341460A4311
:10B7C0002A4049460A43E2543D23E25CB2434146E3
:10B7D0000A432A4049460A43E2543E23E25CB2430C
:10B7E0002A40E2543F23E25CB24341460A431540FB
:10B7F0004A461543E5540748211C05F0F5FE80B282
:10B8000016B01CBC90469946A246F0BD41B6010058
:10B81000AC550200DC2F002008B5011C014805F0E2
:10B82000DFFD08BDDC2F002030B583B0041C0D1CEB
:10B83000FFF74CFB08230E4A904216D068460021C1
:10B84000082207F0AEFA6A46157063B2002B02DBDD
:10B85000084B1B5D00E000236A46937006480021F8
:10B8600008226B4606F008FA83B2181C03B030BDFC
:10B87000FFFF0000F8550200DC2F002010B5041C6B
:10B88000FFF724FB08220549884205D0044800211F
:10B89000231C06F0F1F982B2101C10BDFFFF00005E
:10B8A000DC2F002022DF704723DF7047F0B54F46C2
:10B8B0004646C0B4404AA023DB00D058844600214D
:10B8C000D150A023DB05E622D200995889463B4996
:10B8D00099503B4A985880469950A122D200802125
:10B8E0008901995080214901995004200138C046AE
:10B8F000C046C046C046C046C046C046C046C04618
:10B90000C046C046C046F1D1A223DB00A022D2052A
:10B91000D358990407D5A223DB00A022D205D3581F
:10B920000120DA0435D41222A023DB05254F802123
:10B930004901A126F600A225ED008024A401D951D9
:10B9400004200138C046C046C046C046C046C04676
:10B95000C046C046C046C046C046C046F1D1995117
:10B9600004200138C046C046C046C046C046C04656
:10B97000C046C046C046C046C046C046F1D1585930
:10B98000204203D1013A002AD9D101E0012000E090
:10B990000020A023DB05E622D20049469950084A40
:10B9A00041469950A023DB00034A6146D1500CBCAC
:10B9B00090469946F0BDC046003000400D0600009C
:10B9C000340700000C05000010B5114BB122D20065
:10B9D000985001229A6000208221490058505A61F3
:10B9E000191C822252008B58002BFCD0084B0022DD
:10B9F000822149005A500749585802245C5092212C
:10BA000049005A50400801235840184010BDC04614
:10BA100000300040C404000008B5A023DB05184A2C
:10BA2000E621C9005A5017495A50174B0022842169
:10BA300049005A508E2149005A500C21A122D200AF
:10BA400099500D21114A9950CC214904104A99501E
:10BA500000201049104AFFF727FF002300280DD1CE
:10BA60000120FFF71FFF0023002807D10521A02395
:10BA7000DB00054AD150FFF719FF031C181C08BD55
:10BA80000C06000034070000003000400C050000E8
:10BA900024050000383100401C30004030B5072933
:10BAA0001CD80124231C8B40190208231843084387
:10BAB0000B4B0C4D5851A021C9005C50002A0DD0F1
:10BAC000C122920001219950074B98580002000AA8
:10BAD0008021C9050143995080221A6030BDC046BB
:10BAE000007000400405000000E100E0054B1A2151
:10BAF000054A9950802205498A500121A022D2008E
:10BB000099507047007000400405000000E100E01B
:10BB10000122084B1A60191C802252008B58002BFE
:10BB2000FCD0044B0021802252009950A122D20067
:10BB3000985870470070004008B5FFF7E9FFE1230F
:10BB40001B015843800A08BD2EDF704733DF704762
:10BB500021DF704723DF704710B5041E0F2C08D873
:10BB6000C0B2FFF7F7FF0120A040FFF7F1FF201C54
:10BB700001E00120404210BDF8B55F4656464D46F3
:10BB80004446F0B40378013B022B00D9A0E0437B8C
:10BB9000042B00D99FE09B00634AD3589F4609219C
:10BBA000A223DB00614AD1506422614B1A6023E07A
:10BBB0000821A223DB005D4AD150FF225C4B1A60B2
:10BBC0001AE00521A223DB00584AD150FA22920044
:10BBD000574B1A6010E00221A223DB00534AD150D8
:10BBE0006422534B1A6007E00021A223DB004F4A76
:10BBF000D150FF224E4B1A6006784E4B1E60002E2D
:10BC00006CD0021C00234C498A46A021C9058946F4
:10BC10000324A046494DAC469B46547899005546AE
:10BC20004C51C134FF34A40045464F46E5515C46B3
:10BC30006746CC51917A424D5955013301329E42AB
:10BC4000EBD83A4B0122DA600022A121C9005A50F8
:10BC500037490C6864003B495C503B495A50082402
:10BC6000802189005C50A62149005A50A421490036
:10BC70005A50A22149005A50A02149005A50051C8F
:10BC8000002300242E4FB946304988464A46A75C17
:10BC9000BF002F497F1828799B002E4A99183A1C1B
:10BCA000FFF75AFF687941463A1CFFF755FF013408
:10BCB000231C0235A642E9D80A200321FFF746FFDC
:10BCC0000A20FFF741FF0122184B1A60002024E0F0
:10BCD0000120404221E0012040421EE0134B01229E
:10BCE000DA600022A121C9005A50114908684000B9
:10BCF0001449585014495A5008208021890058503E
:10BD0000A62149005A50A42149005A50A2214900B5
:10BD10005A50A02149005A50CEE73CBC9046994663
:10BD2000A246AB46F8BDC0467856020000A00040CF
:10BD3000843100205C3100206C31002078310020FB
:10BD4000583100204C050000040500004CA10040C3
:10BD50000060004040A1004080000E4BC1500E4BDF
:10BD60000021A622520099500C498022920099503D
:10BD7000C12292009B581A0307D4074B01225A6034
:10BD800080210903C122920099500122024B1A60BE
:10BD90007047C0466031002000A000400808000045
:10BDA000F0B5454A0023A6214900535001204042E6
:10BDB000C22189005050414A1360414B1B68002B3F
:10BDC00072D000233F4D404E141C9A005259002A55
:10BDD00015D13E4AD75C4537FF37BF003C493D4A45
:10BDE000B9509B003C4A9A580127391C91403B4A64
:10BDF000A027FF05B9500027394A9F504CE0306812
:10BE0000824216D33149CF5C4537FF37BF003049F6
:10BE1000304AB9509B00304A9A580127391C91404A
:10BE2000A122D200A027FF05B95000272C4A9F501D
:10BE300032E05100A82040001A1892001E4FD15144
:10BE40009A0027495258002A26D1204AD75C9B00E5
:10BE500021481A580123181C9040A123DB00A0217F
:10BE6000C905C850BB001B495B181E49A227FF002B
:10BE7000D951C046C046C04601271F6012021A4F62
:10BE80003A43A227FF00DA51C046C046C0462268A6
:10BE90009300012212481A50084A136801331360B4
:10BEA000074A12689A4290D8034B082180229200D8
:10BEB000995001221A60F0BD00A0004054310020CA
:10BEC0005C31002060310020843100205831002096
:10BED000001F0300006000406C3100200C050000D2
:10BEE00078310020031F01000300130010B5074C38
:10BEF0000123A122D200A350054AA350C003FA2176
:10BF0000890005F04FFF034BE05010BD00000140D9
:10BF10000C050000040500000122014B1A60704767
:10BF2000000001400249C023DB00024AD1507047A3
:10BF30003546526E00000140F8B55F4656464D4604
:10BF40004446F0B4071C88460020002963D0384BD3
:10BF5000384AD058410CC003344B334A05F0D2FF65
:10BF6000061C354D8024E400324A9346304B9A46F5
:10BF7000324A91462B59012B10D02D4B2D4AD058C7
:10BF8000410CC003294B284A05F0BCFF801B00234D
:10BF900099462A4B98420ED900203CE05A4652441A
:10BFA0001068410CC003214B1F4A05F0ABFF801BFA
:10BFB0004845DFD9E1E7224B9B461E4A92461B4D7E
:10BFC000194C4B46B1461E1C5846391C00F032FB3A
:10BFD00000280CD001370136B6B2154B5246D05866
:10BFE000410CC003221C2B1C05F08CFF8146B04580
:10BFF0000ED90F4B5246D358590CD803221C2B1C78
:10C0000005F080FF4B46C01A0C4B9842DCD901E08A
:10C01000301C00E0301C3CBC90469946A246AB4622
:10C02000F8BDC046C046C046E880000000000000E1
:10C03000040500000010014000400040E70300003C
:10C0400054290020C046C046F8B55F4656464D46C6
:10C050004446F0B4244B254AD058410CC003214B30
:10C060001F4A05F04FFF061C214A90468027FF001B
:10C070001E4B9B461C4A92461A4D194CF423FF3323
:10C0800099464246D359012B0BD15B46534418685D
:10C09000410CC003221C2B1C05F034FF801B4845BB
:10C0A000EFD9114B114AD058410CC0030D4B0C4A2B
:10C0B00005F028FF861BF423FF339E420AD80D4863
:10C0C00000F0EAFA0C48FF21142206F06AFE002272
:10C0D0000A4B1A703CBC90469946A246AB46F8BD46
:10C0E000E88000000000000004050000001001408E
:10C0F0000040004054290020883100209C3100205D
:10C10000F0B55F4656464D464446F0B483B06B46A4
:10C11000D871314B314AD058410CC0032D4B2C4AB9
:10C1200005F0F0FE061C2E4A90468027FF002B4BA0
:10C130009B46294A9246274D254CF423FF339946C6
:10C140004246D359012B05D0244F224D204C254B7C
:10C1500098460CE05A4652441068410CC003221C19
:10C160002B1C05F0CFFE801B4845E9D9ECE71A4BA4
:10C17000FB58590CD803221C2B1C05F0C3FE801B56
:10C18000F423FF33984206D840466946073100F051
:10C1900051FA0028EBD0104B104AD058410CC00384
:10C1A0000C4B0B4A05F0AEFE861BF423FF339E4278
:10C1B00002D86B46D87901E00120404203B03CBC74
:10C1C00090469946A246AB46F0BDC046C046C04622
:10C1D000E88000000000000004050000001001409D
:10C1E000004000405429002000B583B08023DB00CC
:10C1F0000A4AD358012B09D009486946073100F093
:10C20000ADF9002805D06B46D87904E00120404202
:10C2100001E00120404203B000BDC04600400040A4
:10C220006829002000B583B0011C07486A46073220
:10C2300000F0D4F9002802D06B46D87901E0012043
:10C24000404203B000BDC04668290020F0B5474613
:10C2500080B482235B003D4AD358002B37D0131C97
:10C260000021822252009950394A9A58A721C900C8
:10C270005D58954200D9151C002D11D000210024D5
:10C28000344E354B9846371C335DFF2B03D079185D
:10C29000404600F0CFF90134E4B2211EA942F3D3A5
:10C2A0002A4B2E4A9958A922D2009B5899420BD268
:10C2B000131C264AD258521AD2B2294B1A70294856
:10C2C000411806F055FD02E00022254B1A70942318
:10C2D0005B001E4AD358002B34D0002194235B000E
:10C2E000D1501F4C23781F49C9181422D31A9AB26F
:10C2F0001D4800F059F92378C018C0B220700028FA
:10C3000018D180218904194BA022D205D1500F4B9E
:10C31000174A184999500121A922D20099500B4B74
:10C32000154A0C4999501421A722D2009950012294
:10C330009A6207E0054B0E4A0A499950A922D20099
:10C340009850ECE704BC9046F0BDC0460040004069
:10C350003C050000A4310020682900204C050000A5
:10C360009C31002088310020542900200C05000059
:10C3700044050000642900203405000010B50028A1
:10C3800073D0A023DB050168C131FF318900002291
:10C39000CA50C168C131FF318900CA504168C131FA
:10C3A000FF318900CA508168C131FF318900CA500C
:10C3B000324B3349C4685C50A121C90084685C5089
:10C3C000A221C90044685C502E4904685C50A72132
:10C3D000C9005A50A921C9005A50037C012B48D0EA
:10C3E000002B05D0022B46D0032B40D1062300E0C2
:10C3F0000023427C002A0CD1012213431F4A224908
:10C400005350817C214BD150C17CB823DB00D150EB
:10C4100009E01A4A1C495350817C1C4BD150C17C05
:10C42000B823DB00D150154B0022822149005A501D
:10C43000942149005A500421802292009950144AB4
:10C44000C12189005058FF24A0434024204350506C
:10C450001020C024640010510E4C5C50106002216A
:10C46000A022D2009950002007E00E2005E007200E
:10C4700003E00223BDE70423BBE710BD00400040FA
:10C48000140500000C050000540500005C050000C8
:10C4900000E100E00204000030B587B001A8214AA5
:10C4A000031C32CA32C312CA12C3FFF767FF83B23A
:10C4B000181E34D1A023DB0503211B4A995080218B
:10C4C00089041A4A99501A4B1B68002B0DD1194840
:10C4D000194906F09FF9031C154A10600520002B2E
:10C4E0001DD0181C002106F027FE144800F0D4F8D7
:10C4F000134800F0D1F80022124B1A70124B134A65
:10C50000134999500122A921C9005A5011491248D2
:10C5100058501420A721C90058509A62002007B033
:10C5200030BDC0468C560200640700000C050000B8
:10C53000A0310020A05602007055020054290020AE
:10C54000682900209C310020004000404405000084
:10C550006429002034050000A431002038B5041CF3
:10C560000368002B1ED082880020002A1BD0E2889E
:10C57000002A18D02589ADB2002D14D0A0895043CF
:10C580001B18081C191C06F0EAFBA0890130A188C1
:10C5900005F0ACFC89B2A1812389013B9BB22381C8
:10C5A000012000E0002038BDF8B5061C0C1C171C4B
:10C5B00000200025002A06D10EE00135ADB2F38837
:10C5C000E418BD4207D0301C211CFFF7C7FF00282C
:10C5D000F3D1281C00E0281CF8BDC046F0B5474642
:10C5E00080B4031C171C0468002C1FD08588002011
:10C5F000002D1CD0DA889046002A18D01E89B6B2C9
:10C60000002E14D01A8992B28A4210D99889401803
:10C61000291C05F06BFC0904090C434659436118B9
:10C62000381C424606F09BFB012000E0002004BCC1
:10C630009046F0BD38B5041C0368002B29D08588CE
:10C640000020002D26D0E288002A23D0208980B245
:10C65000854202D1A07B00281CD060895043181865
:10C6600006F07DFB6089A5880130291C05F03EFCA1
:10C6700089B2618123899BB29D4204D163899BB2B7
:10C68000A381012006E0238901339BB2238101208D
:10C6900000E0002038BDC046002303814381838130
:10C6A0007047C0460000000010B5414B414AD058C9
:10C6B000410CC0033D4B3C4A05F024FC3E4B1A683C
:10C6C000801A5B6898423AD33C4B1A7801321A7050
:10C6D0000020FEF77FF80123011C5940C9B2002059
:10C6E000FDF768FFFDF75AFF002806D1334B1B7892
:10C6F000032B02D90022314B1A70FDF74FFF01289E
:10C7000007D12E4B1B78052B03D900222B4B1A7017
:10C7100003E02A4B1B78002B11D100200021FDF7EC
:10C7200049FF254CFA23DB006360214B214AD05896
:10C73000410CC0031D4B1C4A05F0E4FB20601C4B60
:10C740001C4AD058410CC003184B174A05F0DAFBBD
:10C750001B4B1A68801A5B68984212D30120FEF7BF
:10C7600039F80123011C5940C9B20120FDF722FF0D
:10C770000020FEF73DF8002813D10122114B1A705A
:10C780000FE00020FEF734F800280AD1084B094AD0
:10C79000D058410CC003054B034A05F0B3FB084BCE
:10C7A000186010BDC046C046E880000000000000D0
:10C7B0000405000000100140B8310020C131002004
:10C7C00078290020C0310020F8B5FDF7E7FE0028E9
:10C7D00008D001284ED1744B1B6858689968FBF744
:10C7E00025FF47E0704B1B685868FBF77FFE002869
:10C7F00040D16D4B186842685368013B5360002B71
:10C8000004DA416806F056FC041C04E04268136830
:10C81000591C11601C78611C2CD0FEF757FB634B30
:10C82000984227D0624B1A689368013B9360002BB3
:10C8300019DA91698B4210DB13681C705C4B1A6823
:10C84000136819780A2902D00133136012E0564B9D
:10C8500018680A2107F03AFE0CE0534B1868211CB7
:10C8600007F034FE06E013681C70514B1B681A6811
:10C8700001321A60FEF72AFB4C4B984200D190E03F
:10C88000FEF714FD002808D0012800D089E0484BAD
:10C890001968081CFBF7CAFE83E0FDF77FFE00283D
:10C8A00042D1434B1868FBF721FE002879D1404B59
:10C8B00019684B68013B4B60002B05DA3A4B18684E
:10C8C00006F0F8FB011C03E00B685A1C0A6019789B
:10C8D0004A1C66D0344B186882689368013B9360A9
:10C8E000002B17DA826893689469A3420FDB136800
:10C8F00019702D4B18688268136819780A2902D0BC
:10C90000013313604DE00A2107F0E0FD49E007F034
:10C91000DDFD46E083681B681970234B1B689B682C
:10C920001A6801321A603CE0FEF752FCC5B2032DD2
:10C9300037D9FF2404401E4B1868611E89B200F0ED
:10C9400045FA0D2801D00A282BD1194B1868A11ED1
:10C9500089B200F03BFA2B281BD0042D21D90D28D9
:10C9600019D003270A2817D01BE03068211C00F0DB
:10C970002DFA2B2805D10135EDB2013CA4B2AF420E
:10C98000F3D8FEF799FC0A4B19680A4805F0E6FF50
:10C9900007E0022700E00327033CA4B20025044E71
:10C9A000E3E70020F8BDC046F4290020FFFF0000A7
:10C9B00038370020E84D020070B582B0FDF722FE46
:10C9C000FEF7A0F8FBF7DAFC00F018FA01A8012145
:10C9D0001A4A01F0B5FB83B2002B02D00004000C10
:10C9E00029E00198F821002201F0E2FB83B2181E31
:10C9F00021D11348FFF77AFAFFF78EFA114D124E44
:10CA0000124CFFF78FFA2B78002B03D0301C00213B
:10CA1000FBF7C2FCFDF784FF2168081C00F0FCF95D
:10CA2000FEF7AEF9FEF7ACF9C30701D5FFF7CCFE70
:10CA3000FDF7ECFEE5E702B070BDC046A9C60100F7
:10CA400010270000C0310020A8560200A0310020AD
:10CA50000A4B9B6802689A420FD14268074BDB6819
:10CA60009A420AD1022908D1054B1B78002B04D029
:10CA7000034B1A78013AD2B21A707047C4310020C1
:10CA8000D4310020024B1878431E9841C0B2704741
:10CA9000D431002030B583B0234CC023DB00636069
:10CAA000224B6380C525ED00201C291C002203F0C9
:10CAB0004FFF60511E4B1B78DBB20020012B31D899
:10CAC0000023019301A803F02FFF019B142B02D137
:10CAD000642005F00FF9164B1A780132D2B21A70A1
:10CAE00014488021C90003F0E7FE83B2181E19D153
:10CAF000104808308021C90003F0DEFE83B2181E02
:10CB000010D10C4808498022D20003F0FBFD83B20B
:10CB1000181E07D10748083007498B22920003F0FE
:10CB2000F1FD80B203B030BD1C3900202C0600009E
:10CB3000D4310020C43100201C3D002010B582B04B
:10CB4000274C201C0021274A06F02BF9201C2649DF
:10CB50008022D200002303F05DFE002300283BD199
:10CB60002248214908318B22920003F053FE002312
:10CB7000002831D11A4B198800231D4A91422BD12C
:10CB8000174B5A88174B9A4217D8043A144C11196C
:10CB900001A8042206F0E3F861880439201C002271
:10CBA00003F0D6FE019B834201D0002314E00C4B1E
:10CBB0005A8801230B498A420ED00E4B9A4208D85C
:10CBC000131F074818180C49C918064B9A1A06F083
:10CBD000C6F8FFF75FFF0123181C02B010BDC04666
:10CBE0001C3900202C060000C43100201C3D002010
:10CBF000AFAD00002B060000E856020070B51A4CDD
:10CC00001A4D201C00212A1C06F0CBF8184B23805B
:10CC10006580C023DB006360012525726572A57203
:10CC20002573144E201C0E30311C062206F097F896
:10CC30001423238764236387A3871E23E387482362
:10CC4000E554231C4C33B268E264327B1A71201C19
:10CC5000513000211B2206F0A4F8FFF71BFF4342CE
:10CC60005841C0B270BDC0461C3900202C060000DF
:10CC7000AFADFFFFB856020010B584B00022154BCF
:10CC80001A7002A8144B2833021C12CB12C2694638
:10CC900003F092FC83B2181E19D1684600210F4A96
:10CCA00003F000FD83B2181E11D1684601210B4A22
:10CCB000083203F0F7FC83B2181E08D1FFF73EFFDD
:10CCC000031C0020002B02D1FFF798FF002004B0C6
:10CCD00010BDC046D4310020B8560200C431002037
:10CCE000F8B5031C0F1C151C0020042B24DC590074
:10CCF000C9188900114A8E58002E18D0104A12689F
:10CD00000E21525E9A4203D00024281E14DD06E054
:10CD1000301C391C2A1C00F087FA281C0CE0385DF6
:10CD2000B047013005D00134AC42F8D103E0002017
:10CD300002E0201C00E0281CF8BDC046145D020083
:10CD4000A0310020F8B50F1C161C042818DC430085
:10CD500018188000104B18184568002D13D0002AB1
:10CD600014D0002915D00024A847431C03D03855FF
:10CD70000134A642F8DC201E0DD1012040420AE019
:10CD80000120404207E00120404204E001204042EF
:10CD900001E001204042F8BD145D020010B5041C02
:10CDA000084906F01BFB002807D0201C064906F0A6
:10CDB00015FB002803D1042003E0032001E001203B
:10CDC000404210BD68550200A056020008B50E2270
:10CDD000835E042B0ADC5A00D3189B00064AD31842
:10CDE0009B68002B05D0081C984704E001204042B6
:10CDF00001E00120404208BD145D020008B504486E
:10CE00000021A02205F0CDFF0022024B1A8008BDB0
:10CE1000DC31002098320020F0B55F4656464D4682
:10CE20004446F0B483B0061C8946CB4B1B88002BCC
:10CE300004D02622FF32934204D0CDE12622FF32D5
:10CE4000C54B1A80C54B1B888C2B36D004D8002BC1
:10CE500009D07F2B17D03AE1A32B00D195E0B92B55
:10CE600000D100E133E1BE480021042205F099FF22
:10CE7000BC480021A02205F094FF0022BA4B1A8082
:10CE80007F22B64B1A80301C0021FFF79FFF013034
:10CE900000D1A6E1B54BB64AD058410CC003AD4B0A
:10CEA000AB4A05F02FF8B34B186006E0424601325A
:10CEB00006D18C22A94B1A8093E1A64DA44CAD4F0C
:10CEC0007368013B7360002B06DAAB4B1868311CAA
:10CED00006F0F0F8804604E033685A1C32601B7894
:10CEE00098464246102A0ED0A04BA14AD058410C79
:10CEF000C003221C2B1C05F005F83B68C01A7A6899
:10CF00009042D3D30EE0994B994AD058410CC003BC
:10CF1000904B8F4A04F0F6FF964B1A68801A5B68B4
:10CF2000984203D300228D4B1A805CE18F4B904ACC
:10CF3000D058410CC003874B854A04F0E3FF8D4B6A
:10CF400018608E4B1B689E4205D1874B1B88002BB7
:10CF500001D1FFF779F81022814B1A700122884B1A
:10CF60001A7012E07E48C0190422D21B0121331C22
:10CF700005F056FD824B1A788018C0B2187003284D
:10CF800009D8A322754B1A802BE17D4B9A46714D2F
:10CF90006F4C784A904653461F78032F0FD8734B37
:10CFA000734AD058410CC003221C2B1C04F0AAFF6A
:10CFB00042461268801A43465B689842D2D36B4B54
:10CFC0006B4AD058410CC003624B614A04F09AFF8F
:10CFD000684B1A68801A5B68984203D300225F4B43
:10CFE0001A8000E15E4BDB785B065B0E102B04DDE4
:10CFF00000225A4B1A80634BD9E05C4B5C4AD058F4
:10D00000410CC003534B524A04F07CFF594B18604B
:10D0100029E0554F3B885348C01801215A46331C1C
:10D0200005F0FEFCC0B23B88C3183B804C4BDA785D
:10D0300057067F0E3F1A7F210F408A433A43DA702A
:10D0400000280AD0494B4A4AD058410CC003221C40
:10D050002B1C04F057FF474B1860002F09D0B92252
:10D060003E4B1A80BDE03E4B9A463A4D384C414A01
:10D0700090465246D3785B065B0E9B460FD03B4BE7
:10D080003B4AD058410CC003221C2B1C04F03AFF31
:10D0900043461B68C01A424652689042B9D3334B8C
:10D0A000334AD058410CC0032A4B294A04F02AFFC6
:10D0B000304B1A68801A5B68984203D30022274BD2
:10D0C0001A8090E0264BDB78DB0900D0E2E60022F4
:10D0D000224B1A80224B99785A781B78102B00D05B
:10D0E00085E00902521892B2274B9A420DD1802155
:10D0F0008904264BA022D205D150BFF34F8F244A7A
:10D10000244BDA60BFF34F8FFEE7A0231B019A4246
:10D110006FD1154B1B885A1E1249895C0D2909D104
:10D120001048002181545A1E92B2511E405C0D28B5
:10D1300003D104E00A2930D1F2E70A282CD10020DB
:10D14000084A5054023B9BB227E0C046C046C04646
:10D15000E8800000000000007E320020D631002070
:10D16000D8310020DC310020983200200405000076
:10D170000010014080290020F4290020A031002067
:10D180007C32002024800000EFBE00000C0500006F
:10D190000400FA0500ED00E0131C1A4A1380202257
:10D1A000194B1A7019484946FBF7F6F814E001AA22
:10D1B00080211170190A91705370154B1B689945A5
:10D1C00003D1101C0321FEF7B7FE80218904A1239F
:10D1D000DB00A022D205D15000220E4B1A80002085
:10D1E00009E00D4807E0FFF757F90C4BDFE70C4B60
:10D1F000DDE70C4BDBE703B03CBC90469946A2460A
:10D20000AB46F0BD98320020D8310020DC31002040
:10D21000A03100207E320020A0800000A18000000C
:10D220002180000022800000F0B55F4656464D4642
:10D230004446F0B487B0061C91465B4B9A781202C4
:10D240005B781A4312B2A0231B019A4200D0A4E0DB
:10D250000F1C4944009155498B46534C04340194AA
:10D260008AE0584603785D1CEDB205703978504A63
:10D27000D15402A94F4A19CA19C112680A60002480
:10D28000B046082109196B46CA5C95420CD3A81A0E
:10D290004749081802A90B19596806F0DDF800285B
:10D2A00019D1464601241FE0521BD6B202AA131917
:10D2B000586882464049881B06305146321C06F0A9
:10D2C000CBF8002807D15246911939482A1C06F09C
:10D2D000C3F8002803D00834102CD2D102E046460F
:10D2E000012401E046460024052D06D9063D3049BB
:10D2F00049193148062205F032FD2C4B1B78102BC2
:10D3000005D0002C37D04C46002C34D13CE0264BC5
:10D31000DA787F218A4310210A43DA700123002C36
:10D3200002D04B465A1E9341DA011F4CE3787F210D
:10D330000B401343E370019D2078B0470134AC42A9
:10D34000FAD11A4B1B78002B0BD0002418488046CA
:10D35000164D4146085DB0470134E4B22B78A34234
:10D36000F7D80022114B1A7080218904A123DB0019
:10D37000A022D205D1500137012252429144009C93
:10D38000A74200D06DE708E0074A7F210B40D17823
:10D390007F2081430B43D370C3E707B03CBC90466A
:10D3A0009946A246AB46F0BDD83100207D32002020
:10D3B00080320020505D020090320020224B1B780A
:10D3C000012B3FD1214B1B681A0719D1204B1A683A
:10D3D000F023134005D11F4B1A68F0231A420FD1D6
:10D3E0001EE0102B05D11B4B1A68F0231A4207D1FF
:10D3F00016E0302B04D1174B1A68F0231A420FD0D5
:10D40000124B1B681A071DD1114B1A68F0231340E9
:10D41000402B17D10F4B1A68F0231A4212D10BE0A0
:10D420000D4A0E4B1A60802212020D4B1A60064BF9
:10D430001B78012BE4D005E00121C123DB00802211
:10D44000D205D1507047C046E00F00F0E40F00F065
:10D45000E80F00F0EC0F00F0DFFF07C0040500400C
:10D46000186C004010B5002917D0038893420BD1E7
:10D4700007E0041C0830031C083B1B88934208D1BA
:10D4800000E0041C606809E00830013989B2C90075
:10D4900041188842EDD1002000E0002010BDC046B8
:10D4A00038B580235B05DC6DA2B207480421FFF785
:10D4B000D9FF002807D1054D2404220C281C04495B
:10D4C00005F0CAFE281C38BD805D02009C32002099
:10D4D000A05D020070B5134B1C68A2B21248042173
:10D4E000FFF7C0FF011E06D12404220C0F4810498B
:10D4F00005F0B2FE02E00D4805F07AFF0B4C201C4F
:10D5000005F07EFF061CFDF743F8051CFDF740F80B
:10D51000A6192D0AEAB2C3B2301C064905F09CFEDA
:10D52000201C70BD0C300000605D0200A4320020A1
:10D53000A05D0200A85D020010B500290BD00923F0
:10D54000002A09D0541E224206D1016084800023A3
:10D550008360C36000E00E23181C10BD10B5031CCF
:10D560008068DC689A88241A0420A24207D3D8680D
:10D57000024018688154DA680132DA60002010BD78
:10D5800010B5031C8468C2680520944209D09868CD
:10D590009A8802401868825C0A709A6801329A6020
:10D5A000002010BDC36883600020704770B5041C64
:10D5B000151C8368C068C31A052099420AD2A06866
:10D5C000A6880818711C04F031FC0E4023689B5D8E
:10D5D0002B70002070BDC046F0B557464E464546FC
:10D5E000E0B400230126E024E400154A9246C0225C
:10D5F00092029046802292029446321C9A40114236
:10D6000015D0C568154203D12A43C260E14602E045
:10D610009543C560C1469A00A025ED0552191559DC
:10D6200057463D40155115594F463D43155101335D
:10D63000202BE2D11CBC90469946A246F0BDC046C4
:10D64000FFFFFCFF70B58300181880000C4B1C68AE
:10D65000241800230120E021C9000A4E021C9A4030
:10D660002568154208D09A00A025ED055219555895
:10D6700035405550555855500133202BEED170BDD3
:10D68000C0320020FFFFFCFFF0B55F4656464D4616
:10D690004446F0B483B0A223DB00A022D205D658C2
:10D6A0000021BE235B002D4AD1502D4B1B78002B4F
:10D6B0004DD000242B4882462B498946284A904663
:10D6C00053461A680123A34048460068184238D0E0
:10D6D000A5002D19AD005519EB6873402F689F43C5
:10D6E000281C391CFFF778FFA223DB00A022D205FB
:10D6F000D2582B6872401A4014D072409346EA68A0
:10D7000059464A4093430193281C191CFFF764FFB4
:10D71000AB685A46934301980340686810400199EA
:10D72000084001E000230020A968B14339401943B3
:10D730006B6833401F403843031C0B4301D02B69F7
:10D7400098470134E4B242461378A342B8D803B0F4
:10D750003CBC90469946A246AB46F0BD00600040F6
:10D76000B8320020C0320020BC32002010B50029A1
:10D7700029D007238A0727D1144B1960144B18703E
:10D780000023144A1370144A136082001018820098
:10D79000081C002105F005FB01214942C2239B0022
:10D7A0000E4AD1500E4B4022C02149005A50C1218F
:10D7B00089005C580B4820408024E40320435850E3
:10D7C0001A60002300E00723181C10BDC03200209F
:10D7D000B9320020B8320020BC3200200060004086
:10D7E00000E100E0FFFF00FFF8B5124C2468002CB8
:10D7F0001BD0002B1BD0104D2E78104D2F780425F8
:10D80000B74215D9B500AD19AD0064190D1C15430B
:10D8100025606160A2602361721C074B1A7006705C
:10D82000301CFFF70FFF002502E0082500E0072568
:10D83000281CF8BDC0320020B8320020B9320020C8
:10D84000F0B557464E464546E0B4031C2B4A1268D5
:10D85000002A4BD02A4909780720994249D9002447
:10D86000BE21490027484450A221C900A020C0057C
:10D870004458A04624490968002905D180252D0671
:10D88000C12080001F4C25500120984001431E48B4
:10D8900001609800C018800010180023C3600125A3
:10D8A000E021C900194EB446C027BF02BA46802203
:10D8B000920291462A1C9A400768174212D0544699
:10D8C0004646164203D1C7683A43C2604C469A00A6
:10D8D000A026F6059219565867463E4056505658AF
:10D8E000344354500133202BE4D101E0082000E000
:10D8F00000201CBC90469946A246F0BDC0320020D4
:10D90000B832002000600040BC320020FFFFFCFF66
:10D9100010B50C4B1B68002B11D00B4A1478072252
:10D9200084420DD9A222D200A024E405A25884008A
:10D9300020188000C35813400B60002200E008222A
:10D94000101C10BDC0320020B83200208021890296
:10D950008023194AD150194B80225202D2218900CA
:10D960005A50C22189005A5001225A602F20013892
:10D97000C046C046C046C046C046C046C046C04677
:10D98000C046C046C046C046F1D19A6000220C4B4A
:10D990001A602F200138C046C046C046C046C04667
:10D9A000C046C046C046C046C046C046C046F1D18B
:10D9B000044B1A707047C04600E100E000100140BF
:10D9C000C4320020EC32002010B543780133827855
:10D9D000D21A541EA2415242134002789A4207D0F2
:10D9E0000B6043785A00D318DB004068C01800E091
:10D9F000002010BD174B5B68DB05DB0D0220002B00
:10DA000027D0103BDAB219060FD5131C0F221A408B
:10DA1000083A9208920010495218526803210B40AC
:10DA2000DB00DA4013069B0F0BE052B29208C032C3
:10DA300092000A49525803210B40DB00DA401306DA
:10DA40009B0F0020012B04D0033B5842434102208E
:10DA5000C01A704700ED00E018ED00E000E100E0C2
:10DA6000F0B5474680B4364B0022A02149005A50F9
:10DA7000A22149005A50A42149005A50A621490028
:10DA80005A50802149005A50822149005A502D4B4A
:10DA90001B68591C50D02C4A29498D582B4A1268B2
:10DAA000AD1A2D022D0ADA00D3189B00284A1268FD
:10DAB000D3185A68954223D30026264F2449884616
:10DAC00008E0E3001B199B0042461268D3185A680D
:10DAD000AA4216D8AD1AB6181C6A3A68002A09D0AC
