:020000021000EC
:1080000000800020BD3C0200213D0200233D020013
:108010000000000000000000000000000000000060
:10802000000000000000000000000000253D0200EC
:108030000000000000000000273D0200293D020072
:108040002B3D02002B3D0200E10202002B3D02000D
:1080500055DB01000000000095F401002B3D0200FB
:108060002B3D02002B3D0200D5D801002B3D020024
:108070002B3D02002B3D02002B3D02002B3D020058
:108080002B3D02006DF801002B3D02002B3D02004C
:10809000A5F90100952F0200C90702002B3D02003F
:1080A0002B3D02002B3D02000000000000000000FC
:1080B00000000000000000000000000000000000C0
:1080C000164B002B00D1144B9D46402292029A1A67
:1080D000924600218B460F461348144A121A0CF0A0
:1080E00024FE0F4B002B00D098470E4B002B00D0E6
:1080F00098470020002104000D000D48002802D000
:108100000C4800E000BF0CF069FD2000290006F0DB
:1081100093F90CF0EFFAC046000008000080002040
:108120000000000000000000482A00202C5200201F
:10813000000000000000000030B583B0041C0D1CDE
:10814000019001A900220DF033FA019BA34206D051
:108150001A780023002A03D12860012300E00023BD
:10816000181C03B030BDC04630B583B0041C0D1CD4
:10817000019001A900220DF0A5FA019BA34206D0AF
:108180001A780023002A03D12860012300E000238D
:10819000181C03B030BDC04610B582B00C1C01A93C
:1081A000FFF7CAFF002805D0019BFF2B01D82370E1
:1081B00000E0002002B010BD10B582B00C1C01A977
:1081C000FFF7BAFF002807D0019B1A1C8032FF2A54
:1081D00001D8237000E0002002B010BD10B582B0BD
:1081E0000C1C01A9FFF7A8FF002806D0019B044A38
:1081F000934201D8238000E0002002B010BDC046A9
:10820000FFFF0000F0B583B0041C0D1C171C0378A1
:10821000202B03D101342378202BFBD0201C01A973
:1082200010220DF0C5F9019BA34221D91C1B022C81
:1082300020DC6E1C28701A782D2A1DD1012F22D91E
:10824000012508E030700135EDB21A782D2A14D1DD
:108250000136BD4217D05C1C201C01A910220DF074
:10826000A7F9019BA34208D91C1B022CEADD04E0FC
:10827000002502E0002500E001251878434258411E
:108280004042284000E0002003B0F0BDF0B55F465A
:108290004E464546E0B486B0041C9046002A00D104
:1082A000C4E0002800D1C3E00D1C0026201C2C21B6
:1082B0000DF066F8002803D0471C0023037000E08F
:1082C000071C2378002B00D1A7E0A9462A78082AAA
:1082D00000D9AFE092005D4882589746202B03D129
:1082E00001342378202BFBD049464B681C6094E076
:1082F0006A78201C6968FFF785FF031C6B7000D04B
:108300008BE09CE0201C04A9FFF716FF002800D199
:1083100095E04F4B049A9A4203D1201C04A9FFF721
:1083200023FF4B46586804A904220CF0DCFC74E0DF
:108330006968201CFFF752FF00286ED17FE0696852
:10834000201CFFF729FF002867D178E06968201C0E
:10835000FFF732FF002860D171E0201C6968FFF749
:10836000EBFE002859D12378202B03D10134237848
:10837000202BFBD04B465A78201C996806F0C8FF8A
:108380000490002801DA002059E04946486804A911
:1083900004220CF0A8FC40E0201C6968FFF7FCFEFA
:1083A00000283AD104AB2B4905C905C32378202BFB
:1083B00003D101342378202BFBD0201C04A90222F6
:1083C00006F0A6FF0390002801DA002037E04B46B4
:1083D000586803A901220CF086FC1EE01E480068C4
:1083E000C3185B78590716D4201C06F07BFFAA68D7
:1083F0009346201C0CF0E2FF021C5846211C06F09C
:10840000BBFE0490154B984205D068686A7804A9B1
:108410000CF069FC01E0002011E00136F6B246459F
:108420000AD00C35002F09D03C1C3FE7002006E0A5
:10843000002004E0002002E0301C00E0301C06B008
:108440001CBC90469946A346F0BDC046A06D0200F4
:10845000FFFFFF7FC46D0200E0290020DFFDEF7EFB
:10846000F8B5051C0E1C171C0A7808490CF0A2F977
:10847000012F0AD9741CF719054E2278281C311CCB
:108480000CF098F90134BC42F7D1F8BDCC6D020074
:10849000D46D0200F0B5474680B4141C002921D1E8
:1084A000134B1B689A421FD01248111C0CF01AFA89
:1084B000114B1D1DF4339846104F114E381C211CD2
:1084C0000CF010FA301C211C0CF00CFA01CD211C10
:1084D0000CF008FA4545F1D10A48211C0CF002FACB
:1084E000002002E0084800E0084804BC9046F0BDC7
:1084F000343E0020E06D02002C710200E46D0200A9
:10850000E86D02009877020062800000638000003E
:1085100010B5054C201C0021802252000CF005FCF7
:10852000024B1C6010BDC0464C2A0020482A002087
:10853000F0B5474680B4071C88464C490CF02CFF28
:10854000002831D03B78002B13D03D2B11D03A1CA2
:10855000474D03242868C11848782040191C022878
:1085600000D12039117001321378002B01D03D2B3E
:10857000F0D1381C0CF022FF012805D93B78412BA3
:1085800002D17B78542B05D03A4841460CF0AAF929
:10859000394868E0BB780237002B05D1374841469F
:1085A0000CF0A0F900205EE0354E00243568281C50
:1085B0000CF004FF021C381C291C0CF02BFF0028B7
:1085C00005D00134E4B204363D2CEFD101E03D2C5E
:1085D00005D1284841460CF085F92A4843E0251C7E
:1085E000A400274BE0580CF0E9FEFF2318403F1889
:1085F000381C25490CF0D0FE002805D11F48414603
:108600000CF070F900202EE0381C20490CF0C4FE5C
:10861000002802D1013701210EE03B783D2B02D129
:108620000137022108E00021002B05D01148414606
:108630000CF058F9134816E0AD00154BEB58381CF8
:1086400042469847041C134B1B78002B07D1002887
:1086500001D10A4800E0074841460CF043F90022E6
:108660000C4B1A70201C04BC9046F0BDE06D02005B
:10867000E0290020F46D020060800000EC6D020033
:108680002C71020061800000FC6D0200006E02008F
:1086900020720200542B0020F8B54F464646C0B465
:1086A000041C514B1B68C31A5A425341DBB2984613
:1086B0009B004E4FFF18381C0CF080FE8146C6B25E
:1086C000201C311C06F072F9051C431C03D1731EDB
:1086D0009E41F0B284E00D2801D00A2861D1381CF7
:1086E00043490CF059FE00285BD104256368013B27
:1086F0006360002B05DA3F4A1068211C0CF0B8FCBF
:1087000002E0236801332360013DEDB2002DEDD17D
:1087100001200BF0B3FA201C002106F047F90D28C8
:1087200001D00A280DD16368013B6360002B05DA94
:10873000304B1868211C0CF09BFC02E023680133CD
:1087400023604346002B0FD004F028FA264C2568FE
:1087500004F01EFA021C281C27490CF02BF8216893
:1087600026480CF0BFF815E002F0BEFD0123181AF0
:10877000C0B202F0BFFD1F4C23689D6802F0B4FD3B
:10878000021C281C1C490CF015F8236899681B482A
:108790000CF0A8F8381C002104220CF0C6FA0120C5
:1087A0001EE02B2D13D1002E0AD0022E12D8FF224C
:1087B0004B461A40381C12490CF086FA002809D1A1
:1087C000FF234A4613402B22FA54012008E00020E0
:1087D000002E05D0381C002104220CF0A6FA00203F
:1087E0000CBC90469946F8BD343E00204C2B00202E
:1087F000E06D0200442A0020046E0200EC6D0200CD
:108800000C6E0200F0B54F4680B4051C0F1C574E8D
:108810000136FF3692E00A2C04D00D2C02D0082C31
:1088200058D140E0524B1A68504B9A4200D885E02C
:10883000504B1B689B689F4207D14F4B1B7A002B04
:1088400003D04E48391C0CF04DF8494B00221968F2
:108850000A70464C1C60201C391CFFF769FE8146DB
:10886000201C47490CF098FD002867D14A46002A91
:1088700064D101200BF002FA281C002106F096F8C2
:108880000D2801D00A2859D16B68013B6B60002B81
:1088900005DA384B1868291C0CF0EAFB4EE02B680F
:1088A00001332B604AE0324B1A68304B9A4245D96B
:1088B000304B1B689B689F4207D12F4B1B7A002BC4
:1088C00003D03048391C0CF00DF8294B1A68013AD6
:1088D0001A6033E0264B1B68B3422FD2254B186831
:1088E00083689F4225D1244B1B7A002B21D0BB6883
:1088F000013BBB60002B17DAB9698B420FDB3A688A
:1089000014703B681A780A2A02D001333B6010E0E9
:10891000184B18680A213A1C0DF040FE09E0211C92
:108920003A1C0DF03BFE04E03B681C703B680133D1
:108930003B600F4A1368591C11601C706B68013B47
:108940006B60002B06DA0B490868291C0CF090FBC1
:10895000041C03E02B68581C28601C78621C00D0A3
:1089600059E7002004BC9146F0BDC0464C2A0020C7
:10897000482A0020442A0020384A00209877020024
:10898000E06D0200106E020008B5011C0122034BCD
:108990001A7003480BF0A6FF08BDC046542B0020F8
:1089A000EC6D020071DF704776DF704777DF70474C
:1089B00000B583B0012902D902290AD040E0224B38
:1089C000DB7A5BB2101C21491A1C0BF0F3FE00206D
:1089D00037E001235B4201931D4901AA0CF03CFCE6
:1089E000002829D001982023021C9A43131C283305
:1089F0000DD01023021C9A43131C143307D00423F8
:108A0000021C9A43131C103201D0002B16D140B225
:108A1000FFF7CCFF83B2181E13D10B4B019ADA7209
:108A200005F0E6FD03F0CEF90A4B984202D1002092
:108A300002F0A8FE002004E0074802E0064800E03B
:108A4000054803B000BDC046384A0020046E02004D
:108A500014730200FFFF00006280000030B587B091
:108A6000151C012913D804AC201CFFF79BFFA27929
:108A7000637921790091E1780191A178029161787F
:108A80000391281C03490BF095FE002000E00248EA
:108A900007B030BD187302006280000010B5141CCE
:108AA00001290FD8A02380225205D35801221A4051
:108AB000201C05490BF07EFE0448211C0BF012FF20
:108AC000002000E0024810BD3873020098770200D1
:108AD0006280000030B587B0141C012916D804A8A4
:108AE00003F000FA051C002D11D104A98A794B79F5
:108AF00008790090C87801908878029049780391AD
:108B0000201C04490BF056FE281C00E0024807B068
:108B100030BDC046187302006280000070B58AB094
:108B2000041C022900D09CE004A8002115220CF0AE
:108B3000FCF8201C2C210CF023FC002803D0451C41
:108B40000023037000E0051C201C69460E31FFF76E
:108B500045FB002800D186E06B46D9898223474A2D
:108B6000D152281C2C210CF00BFC002803D0441CF3
:108B70000023037000E0041C281C04A91022FFF746
:108B800041FB102871D1201C2C210CF0F9FB061E92
:108B900002D0002303700136201C08A9FFF71EFB3A
:108BA000002864D004AB1A8A52BA04AB1A82301C73
:108BB0002C210CF0E5FB051E02D0002303700135CB
:108BC000301C69462231FFF709FB002851D004AB65
:108BD0005A8A52BA04AB5A82281C2C210CF0D0FBC2
:108BE000041E02D0002303700134281C244902AA69
:108BF0000CF032FB00283ED004AB02981875002C14
:108C00000FD000230193201C01A9FFF795FA00283B
:108C100002D0019B012B01D91A482DE04A221749A5
:108C20008B54164904AA0B1C6C3331CA31C330CAA9
:108C300030C312781A7001224923CA5405F0D8FCB7
:108C400003F0C0F8104B984206D003F0BBF8132194
:108C5000FFF7AAFE00200FE0002002F093FD0020A5
:108C60000AE0084808E0074806E0064804E005482E
:108C700002E0044800E003480AB070BD384A002012
:108C80003C73020062800000FFFF000010B5141C5E
:108C9000012913D803F096F80022094B984202D01C
:108CA00003F096F8021C52B2201C06490BF082FD1C
:108CB0000548211C0BF016FE002000E0034810BD03
:108CC000FFFF00001473020098770200628000002A
:108CD00010B584B0012902D902290CD03EE0214B05
:108CE0001B7DDB07DB0FDBB2101C1F491A1C0BF0CE
:108CF00061FD002033E06A460023D370033201A9EE
:108D000001938B6007230B704A600122FFF7BEFAC4
:108D1000012801D0154822E06B4603331B78114A25
:108D2000127DD207D20FD2B29A4215D00D4A01203D
:108D30001840117D0124A14301431175002B03D07C
:108D400004214923D15405E000214923054AD15487
:108D500003F0B8F805F04CFC002000E0034804B034
:108D600010BDC046384A0020046E02006280000038
:108D700010B582B0041C02291CD1124B1B7DDA07EE
:108D80001AD503F01FF8031C08200F4A934216D08F
:108D90006846002108220BF0C8FF201C6946082203
:108DA000FFF730FA431EDBB2072B07D8684604F002
:108DB000AFF904E0054802E0054800E0034802B0CE
:108DC00010BDC046384A0020FFFF0000628000004E
:108DD00063800000F0B557464E464546E0B48AB081
:108DE000041C022968D13A4B1B7DD80766D523782D
:108DF000002B65D0101CFFF7C7FD04A9354A0B1CDA
:108E000061CA61C322CA22C312881A80324B1E680B
:108E100002969A8802AB9A80304B186800909B8823
:108E200069468B80201C2E490CF0B6FA4342434120
:108E3000E41802AA92462B4B99460325A84635E032
:108E400066785C2D0BD15046311C0CF099FA002845
:108E500005D05646801B69460D5CA71CA6784A467D
:108E6000126853195B78404603400221012B07D05A
:108E700004A8291C0CF084FA011C481E81414900F9
:108E8000281C04F0C5F800281BD10F200AF0F6FEBC
:108E9000AE4201D0002E08D10020002104F0B8F825
:108EA00000280ED10F200AF0E9FE3C1C671C257833
:108EB000002DC5D1002004E00B4802E00B4800E083
:108EC00009480AB01CBC90469946A246F0BDC0466F
:108ED000384A002068730200807302008873020021
:108EE00064730200E02900206280000063800000BB
:108EF00010B588B0041C02293CD1224B1B7DDA0737
:108F00003AD502F05FFF021C08201F4B9A4236D070
:108F100007A900230B800F230693201CFFF75EF99F
:108F2000002819D1002300930393059308236A4670
:108F300013700223537007AA0192144A02926A46E0
:108F4000137306AB0493201C69460222FFF79EF9B7
:108F5000431EDBB2012B11D807AC201C04F0C8F96A
:108F600006980AF08BFE00232380201C04F0C0F931
:108F7000002004E0064802E0064800E0044808B08B
:108F800010BDC046384A0020FFFF00009C7502005B
:108F9000628000006380000000B58FB0022925D1F7
:108FA0000CAA00230C931371FF21117000930293FC
:108FB000039305930693089309930B93052369463E
:108FC0000B70013201920B73013204920B76013265
:108FD000079224228B540DAB0A930422FFF756F913
:108FE0000138C0B2032803D9044804E0034802E072
:108FF0000CA804F001F90FB000BDC046628000006B
:10900000F0B5474680B492B0022900D0EFE00EA937
:109010007E4B0A1C70CB70C21B6813600CAD002223
:109020000C922A710B926C460F2363852A3401AB94
:109030000192039204920792099204221A700295F7
:1090400006251D735A730BAA0592069103221A7600
:10905000089403786E4A1268D3185B78590774D461
:109060000023009301A90B7000AA4A600322FFF7B6
:109070000DF9031C0138C0B2022800D8BBE062E041
:109080000B9B032B5FD1009800286CD00CF096F955
:10909000052858D800245E4E03275E4DA84614E0EC
:1090A0000098021913783068C11848783840191CA4
:1090B000022800D120391170009A515D40460CF011
:1090C0005FF900283FD00134E4B2251C00980CF071
:1090D00075F98442E4D300984C210CF051F9002832
:1090E00004D00CAB197801220A431A70009852215F
:1090F0000CF046F9002804D00CAB197802220A4380
:109100001A7000984D210CF03BF9002804D00CABEC
:10911000197804220A431A70009842210CF030F9A1
:10912000002804D00CAB197808220A431A70009862
:1091300046210CF025F9002815D00CAB1978102227
:109140000A431A700FE034485CE001A90322FFF7DC
:109150009DF8031C0138C0B2022850D92E4851E0B6
:109160000B9B032B45D10CA804F046F8031C002BE5
:1091700048D10CAB1C780020002C43D00B9B022B59
:109180000DD0032B29D00020012B3BD10F200AF05A
:1091900075FD0CA80023037004F02EF832E00F20B8
:1091A0000AF06CFD0CA80023037004F025F8031CE2
:1091B000002B27D10F200AF061FD0CA8047004F0E9
:1091C0001BF8031C002B1DD10F200AF057FD0CA823
:1091D0000023037004F010F814E06B46588D0AF079
:1091E0004DFD0CA80023037004F006F80AE00A48BD
:1091F00008E0094806E0032B00D044E740E7032BD2
:10920000B1D1ADE712B004BC9046F0BD547302007A
:10921000E0290020907302006280000010B584B045
:10922000012902D902290BD03DE0204B1B7D9B0771
:10923000DB0F101C1E491A1C0BF0BCFA002033E097
:109240006A460023D370033201A901938B60072380
:109250000B704A600122FFF719F8012801D0154868
:1092600022E06B4603331B78104A127D9207D20F1F
:109270009A4216D00D4A012018404000117D022468
:10928000A14301431175002B03D005214923D1547B
:1092900005E000214923054AD15402F013FE05F0F0
:1092A000A7F9002000E0034804B010BD384A0020B0
:1092B000046E02006280000010B586B0041C022912
:1092C00017D102F09BFC031C0820DA0714D502F02A
:1092D00079FD031C0820094A93420DD0201C01A9E6
:1092E0001422FEF78FFF011E05D001A803F004FA37
:1092F00002E0034800E0024806B010BDFFFF000096
:109300006280000070B582B0141C002926D102F0E2
:1093100075FC031C0820DA0721D5124801A904F0C6
:10932000C5FD031C0020002B19D0201C0E49019AFA
:109330000BF040FA0B4D0D4E04E0201C311C019A3D
:109340000BF038FA281C01A904F0B0FD0028F4D174
:109350000748211C0BF0C6FA002000E0054802B0C7
:1093600070BDC04654290020A4750200AC750200EF
:10937000987702006280000010B5041C02291DD1FC
:1093800002F03CFC031C0820DA0718D502F01AFD95
:10939000031C08200A4A934211D0201C09490BF0F3
:1093A000FBFF43424341E418201C05F055FF064BE8
:1093B0001968201C0BF096FA002000E0034810BD4D
:1093C000FFFF000064730200343E00206280000052
:1093D00070B5141C002933D102F010FC031C0820C6
:1093E000DA0730D5184B19684B68013B4B60002BEE
:1093F00004DA164B18680BF03BFE03E00B685A1CAE
:109400000A601878431C1DD00F4E104D211C0BF024
:1094100009FA33685A68013A5A60002A04DA28685F
:10942000191C0BF025FE03E01A68511C1960107816
:10943000421CEBD10648211C0BF054FA002002E03C
:10944000044800E0002070BD343E0020442A002083
:109450009877020062800000F8B5071C0D1C161CEE
:1094600002F0CCFB041C0820E30741D5002D2FD0CF
:10947000022D16D11BE0381C1E490BF063FF00289B
:1094800011D18022D200521B92B2002A0DDB301C77
:1094900019490BF08FF91948311C0BF023FA002001
:1094A00026E0174824E0164822E0154820E003F0A3
:1094B000B3FA8024E400241AA4B203F0A7FA051C2E
:1094C000381C10490BF03EFF221C0028DDD0D2E7EB
:1094D00003F0A2FA041C03F099FA8023DB001C1BA2
:1094E000A2B21B1A9BB2301C07490BF063F9D2E7FA
:1094F000F8BDC046287102003C7302009877020054
:10950000628000001C710200CC750200F0B5574665
:109510004E464546E0B484B0061C0D1C171C1C1CAE
:10952000274B1B68984203D1231C5343102B40DC6C
:1095300002AA24490B6802938B8893807B00303306
:1095400093701020391C0AF03FFCA046002C2ADD45
:109550000024FF23034099461B4B9A4600230193A6
:10956000201C49460AF086FC00290AD1002C03D0B1
:109570001648311C0BF0B6F9301C51462A1C0BF072
:1095800019F901A8291C3A1C0BF0ADFBED1920209C
:10959000311C0BF047F9301C02A9019A0BF00AF9B3
:1095A00001344445DADB0948311C0BF09BF90020FB
:1095B00000E0074804B01CBC90469946A246F0BDA6
:1095C000343E0020C0750200B47502009877020096
:1095D00063800000F0B587B0141C022932D100234B
:1095E00005930493039303AB00931D4905AA04ABB1
:1095F0000BF032FE032827D1059D002D26D0049ABA
:10960000002A25DD039E002E24DD531E012B01D9E7
:10961000042A21D1D7B2391C042F00D90421C9B2A0
:10962000281C0AF0C7FB002905D00E48211C0BF0AE
:1096300059F90D4811E0B3B2201C291C3A1CFFF760
:1096400065FF0AE0084808E0074806E0064804E02D
:10965000054802E0044800E0034807B0F0BDC046FA
:10966000C8750200D47502006280000008B50229A6
:1096700007D0101C04490122FD23DB00FFF746FF41
:1096800000E0024808BDC046384A00206280000061
:1096900038B501291DD8114B1968114B994209D1D0
:1096A00004230F4C80252D010C4819180968A1428C
:1096B0000BD000E0002380210901CB1A101C0949BE
:1096C0001A1C0BF077F8002006E00433AB42EBD114
:1096D00001E0054800E0032038BDC04600780020C6
:1096E0000DF0FECAE87502006280000008B500298E
:1096F00007D1101C0449042280239B00FFF706FFBA
:1097000000E0024808BDC0460078002062800000EA
:1097100076DF704708B502F055FB064B984205D03E
:1097200002F050FB1321FFF7F3FF02E0002002F0EC
:1097300029F808BDFFFF0000F0B5474680B4071CBC
:1097400000240D4EA3B29846A3009D59281C0BF08F
:1097500035FE021C281C391C0BF0B6FA002803D079
:109760000134052CEED101E0404600E0034800B290
:1097700004BC9046F0BDC046F0750200FFFF00003B
:10978000F8B5061C0F1C084D0024301C29680BF08E
:109790006BFE002801D03C7005E00134E4B20435D2
:1097A0000E2CF2D10020F8BDF8760200F0B55F462D
:1097B00056464D464446F0B493B0141C1D1C012976
:1097C00031D8714DA623EA5C9200704BD058211C11
:1097D0000BF088F8A523EB5C012B1ED901256A4FFD
:1097E0006B4E6C4A90467B19A033987932681318F7
:1097F0005B786822934303D0211C0BF013F805E03B
:1098000080004346C058211C0BF06CF80135EDB2C6
:10981000A5235D4AD35CAB42E5D85F48211C0BF021
:1098200061F80020A8E0022900D0A0E000231193F5
:10983000109306A906938B60CB604B618B610B6222
:1098400011AB4B6002230B7310AB0B6105230B763E
:109850006B463F33CB610322FEF718FD804601388B
:10986000C0B2022800D984E01198FFF765FF0028F4
:1098700005DA4A48211C0BF035F849487CE001AB79
:109880001870119E8000414BC0580BF097FD3018A6
:1098900011900378002B44D0012712229346694689
:1098A0000331FFF76DFF8146002803D0119BC61AD4
:1098B000F6B203E011980BF081FDC6B24B465A1E7A
:1098C0009341DBB29946FB185A46D31A9E4205DDF6
:1098D0003448211C0BF006F809204DE001ABD819E3
:1098E0001199321C0BF0FFF9119A921992461192BC
:1098F000F619F6B24B46002B0DD0731CDFB26A4648
:10990000D37801AA93559B00224A98580BF056FD34
:109910005044119000E0371C11980378002BBED101
:1099200000E001274346012B05D9109B012B22D8CB
:109930004A2215498B544246022A05D96B463F33C9
:1099400019789F23104AD15401A8391C02F024FE33
:10995000041C002C10D10C4B0321492299549E2247
:109960009D5404F045FEFFF7D5FE201C04E00C4892
:1099700002E00B4800E00A4813B03CBC9046994610
:10998000A246AB46F0BDC046384A0020F075020042
:10999000E0290020F87602009877020004760200A1
:1099A000628000003076020008B50023FFF7FEFE5B
:1099B00008BDC04608B50123FFF7F8FE08BDC04644
:1099C00038B5051C4923204CE35C033B5842434116
:1099D000DCB2012906D8101C1C49221C0AF0EAFE40
:1099E00000202FE0022922D1281C19490BF0D4FCB9
:1099F000002823D0281C17490BF0A4FC00281DD0F8
:109A0000281C15490BF0C8FC002812D0281C13494B
:109A10000BF098FC00280CD0114813E049230A4AA7
:109A2000D15404F0E5FDFFF775FE00200AE00C4874
:109A300008E00021081C8C4204D0EFE70321012C30
:109A4000ECD1002038BDC046384A0020046E020028
:109A500044760200546F02007878020048760200D3
:109A60006280000000B585B0002902D0022903D031
:109A700020E0B423039312E0002300930293022317
:109A80006A46137003AB019369460122FEF7FEFBA1
:109A9000012802D1039B002B01DC08480BE003984E
:109AA00002F09AFD03214923054AD154FFF732FE03
:109AB000002000E0014805B000BDC0466280000003
:109AC000384A002074DF704776DF70477CDF7047CC
:109AD00030B583B0031C141C012902D9022909D016
:109AE00030E01A48111C0AF0FDFE1948211C0AF04A
:109AF000F9FE25E0154D281C191C1F220BF0A0FCB7
:109B000004F076FD01AC23780F2293430122134326
:109B10000F221340102213432370281C0BF04EFC1D
:109B200082B2201C291CFFF7D1FF83B2181E0AD174
:109B300002F048F9074B984202D1002001F022FEC2
:109B4000002000E0044803B030BDC046844A002035
:109B500098770200FFFF00006280000010B5141C1F
:109B6000012910D802F02EF9084A831858424341BF
:109B70003120C01A211C0AF055FE0548211C0AF0AC
:109B8000B1FE002000E0034810BDC0460100FFFF09
:109B9000987702006280000008B500290DD102F01C
:109BA00011F9021C0020064B9A4207D002F00AF974
:109BB0001321FFF789FF80B200E0024808BDC046CC
:109BC000FFFF00006280000008B5002902D102F00A
:109BD00079F900E0004808BD62800000F0B587B068
:109BE000061C0C1C151C02A8294910220BF07BF83E
:109BF000012C02D9022C20D03EE001260024254F62
:109C000002E001340136F6B2E3B2002B36D0381C44
:109C1000291C0AF067FEFF2222401C3252001E4B14
:109C2000D25A281C1D490AF0C5FD032EE9D91C484B
:109C3000291C0AF057FE002027E01A4C6D460A3511
:109C4000271C0837301C01A90A220BF0B1FC019E29
:109C50000136002809D0AA1E1288904202DB2A8809
:109C6000904201DD104810E0208002340435BC42EF
:109C7000E8D104F0BDFC08E00B4806E0064B1A8F63
:109C8000281C06490AF096FDBBE707B0F0BDC046A8
:109C900030770200E46D0200384A0020147302009D
:109CA00098770200704A00206280000008B5002901
:109CB00001D0022903D1002001F064FD00E0014839
:109CC00008BDC0466280000008B5002903D1FFF737
:109CD000F9FE80B200E0014808BDC0466280000085
:109CE00010B582B0141C012902D902290DD024E03C
:109CF0004823134AD05C3030211C0AF093FD1148F0
:109D0000211C0AF0EFFD002018E00F4901AA0BF01A
:109D1000A3FA012802D1019B012B01D90B480DE0C8
:109D2000482207498A5C934205D05A1E9341482233
:109D30008B5404F05DFC002000E0044802B010BD2C
:109D4000384A0020987702001473020062800000F5
:109D500030B591B0022940D100230F9301A901939E
:109D60008B60CB604B6101230B701F234B7007ABE3
:109D70004B6002230B730FAB0B610222FEF786FAD6
:109D8000041C0138C0B2012829D801AB5A78164DFD
:109D90008B23EA54281C6C3007A90AF0A4FF022286
:109DA0004923EA54022C05D10F9B012B19D84A22D2
:109DB0000D498B5404F01CFC02F004F80B4B984244
:109DC00006D001F0FFFF1321FFF77EFE002009E01F
:109DD000002001F0D7FC002004E0054802E0044820
:109DE00000E0034811B030BD384A0020FFFF0000FA
:109DF00062800000A4DF7047A5DF7047A6DF7047D0
:109E0000F8B54F464646C0B480468946171E15DD54
:109E10000026002463B29B004A469D58281C0BF084
:109E2000CDFA021C4046291C0BF0D0FA002807D0BE
:109E30000134E4B266B2BE42ECDB01E0002600244D
:109E4000B7420BD063B29B004A4698580BF0B6FA63
:109E50004246135C3D2B02D0FF2400E0FF2460B299
:109E60000CBC90469946F8BDF0B5474680B486B024
:109E7000051C0E1C171C1C1C05A9FEF75DF900280B
:109E80001ED0234B059A9A4203D1281C05A9FEF740
:109E90006BF9059A13BA0593032C05D9301C05A953
:109EA00004220AF020FF05E0301C06AB191B221C1F
:109EB0000AF019FF231C042C00D90423D8B222E095
:109EC000281C6946221CFEF79DF98046011E0BD016
:109ED0000020B94217D3444515D3301C6946424689
:109EE0000AF001FF40460EE0281C0BF067FA031C45
:109EF000C0B2A04200D9231CDCB2301C291C221C99
:109F00000AF0F1FE201C06B004BC9046F0BDC0462D
:109F1000FFFFFF7F10B5141C002802D0012810D0CD
:109F20001EE0081C111C1022FEF76CF9102819D134
:109F300000232375A3781B02E278134323820020B9
:109F400015E0131C1033081C191CFEF747F90028F4
:109F50000AD0238A002B09D001232375002006E0B4
:109F6000034804E0024802E0014800E0004810BD58
:109F700062800000F0B5474680B480460E1C171E74
:109F8000042F19D9002F23D00978002920D0154B90
:109F90001B6859184978682081430DD00024682136
:109FA00003E05D196D788D4306D00134A2420FD9CC
:109FB000355D002DF5D10BE0012F03D10A48414654
:109FC0000AF090FC4046311C3A1CFEF749FA05E0C5
:109FD000301C01213A1C43460AF0F0FD04BC9046B7
:109FE000F0BDC046E02900207077020008B50448A3
:109FF0000021044A0AF099FE04F0FAFA002008BD94
:10A00000F04A00200C070000F0B557464E46454682
:10A01000E0B486B0041C171C022972D1B8233D4A53
:10A02000D35C04200A2B6FD06846002118220AF066
:10A030007CFE201C2C210BF0A3F9002803D0451C2A
:10A040000023037000E0051C002C38D03248804605
:10A05000814630E001342378202BFBD0201C414680
:10A060000222FFF7CDFE061E0EDB83004A469858FB
:10A070000BF0A4F9F6B2411C6118301C6A46FFF7D8
:10A0800049FF061E08D000E0244E381C2449221C3B
:10A090000AF090FB301C37E0281C2C210BF070F9E3
:10A0A000002803D0431C0022027000E0031C002D96
:10A0B00005D02C1C1D1C2378202BCBD0CEE76E4660
:10A0C000338A002B1FD0134CB825605D82464100B7
:10A0D0005144C9006118BC316A4649CA49C149CADC
:10A0E00049C150460130605504F082FA625D381C67
:10A0F0000C490AF05FFB0C48391C0AF0F3FB002006
:10A1000002E0064800E0054806B01CBC90469946AF
:10A11000A246F0BD384A0020447802006280000068
:10A12000747702001473020098770200F0B5574666
:10A130004E464546E0B48EB0041C151C022900D0E2
:10A14000DEE0B8237B4AD35C0420002B00D1EBE097
:10A15000B923D35C1E2B00D1E6E001A800213422F4
:10A160000AF0E3FD201C2C210BF00AF9002803D093
:10A17000471C0023037000E0071C002C00D18BE07B
:10A180006D4A904691466D4A924680E001342378AC
:10A19000202BFBD0201C41460622FFF731FE061E75
:10A1A00067DB83004A4698580BF008F90130201805
:10A1B000F3B2052B5DD89E00524693599F466946DF
:10A1C0000631FEF70BF8002853D001AB5B88002B5B
:10A1D0004FD0012201AB1A759FE002A91022FEF7B1
:10A1E00011F8102845D101AB00221A759A79120294
:10A1F000D9790A435A8090E069460331FDF7CCFFD4
:10A20000002836D06B4603331B78002B31D06846CC
:10A2100005306946033101220AF065FD7DE069469B
:10A220001931FDF7B9FF002823D001AB5B7D013B5D
:10A23000132B1ED871E069461A31FDF7ADFF0028D7
:10A2400017D001AB9B7D013B132B12D865E001AB0E
:10A250005A7D002A5CD19B7D0122002B02D1142360
:10A2600000E0131C07A9FFF7FFFD01ABD87500281C
:10A2700053D1281C3249221C0AF09CFA314853E081
:10A28000431C00220270002F06D03C1C1F1C2378A8
:10A29000202B00D17AE77DE701AB9B7D002B02D11B
:10A2A00001AB5A7D9A7501AB5B7D002B2AD001AAC8
:10A2B000927D9A4228D301AB5B88002B26D01D4C9F
:10A2C000B823E35C013BDBB29846B926A75D342294
:10A2D0005743E019AD30FF3001A90AF004FDE7193A
:10A2E000AD37FF3743463B70A35D0133A35504F000
:10A2F0007FF9A25D281C14490AF05CFA002013E0E3
:10A30000104811E00F480FE00E480DE00D480BE03B
:10A3100001AB9B7D002BA5D1A3E7381C2C210BF0B2
:10A320002FF8031EAFD0ABE70EB01CBC9046994689
:10A33000A246F0BD384A002058770200407702005C
:10A340008877020062800000046E020000000000B6
:10A35000F0B54F464646C0B48BB0041C151C02290C
:10A3600000D0EEE0864905AA0AF076FF002800D169
:10A37000E9E0059B002B00DCE7E0B92281498A5C1B
:10A38000934200DDE3E0013B34225343CB18D62057
:10A3900040001F18201C2C210AF0F2FF041E0BD1D4
:10A3A000391C1831FA7D281CFFF7E4FD7648291C7A
:10A3B0000AF098FA0020D8E00378002B00D1C8E01A
:10A3C00001F000FD8146061C3D1C1835601C7A7D9D
:10A3D000BB7D291CFFF748FD6A4610807A7D8242CA
:10A3E00000D9AAE0BA7D824200D2A8E0F87504F054
:10A3F000FFF8BB8D0020834200D1B6E0634B9E4244
:10A4000000D188E07A7830231A4200D183E06B468D
:10A4100058800233398E06AA02241480508053607B
:10A420004846FFF7E9FC7C78E406E40F05D06B466C
:10A4300002331B88D80700D58DE07B789A066AD551
:10A440006B4602331B88980765D501AE301C00218E
:10A4500010220AF06AFCBB8D338063425C410134F8
:10A4600001AB9C7000AA0392049501F04FFD0028F7
:10A4700040D1474B1868420C5968C9031143C003C7
:10A480003E4B3D4A09F002FD041C0D1C404E0123C9
:10A49000984602E0404609F0F1FB01F037FD002844
:10A4A00014D13068430C7268D1031943C003334B95
:10A4B000314A09F0EBFC021C0B1C121BAB41002BB8
:10A4C00002D1E7D1C72AE5D904204EE0304B186805
:10A4D000420C5968C9031143C003284B264A09F0AE
:10A4E000D5FC021C0B1C121BAB41002B11D101D15E
:10A4F000C72A0ED8484601A9FFF780FC83B2181E70
:10A5000033D17B780020DA062FD501F007FD00203B
:10A510002BE0042029E07A7DBB7D00209A4224D0E4
:10A52000B98D08AA684603881380002353805360BE
:10A530004846FFF75FFC80B217E0164815E0154863
:10A5400013E0144811E013480FE012480DE01148E1
:10A550000BE0104809E001AC201C002110220AF099
:10A56000E4FBBB8D238001247AE70BB00CBC904642
:10A570009946F0BDC046C046E880000000000000DB
:10A580003C730200384A002098770200FFFF000069
:10A590002052002062800000F0B55F4656464D46CE
:10A5A0004446F0B483B0171C00296FD13E4B1B68A2
:10A5B0009A426DD0B8233D4AD35C002B6AD0002666
:10A5C00092463B4B99463B4B9B467400A419E400D2
:10A5D0005444BC34721C238A381C49460AF0EAF8F9
:10A5E000237D012B08D05846391C0AF07BF9381C12
:10A5F000211C1022FDF734FF2F48391C0AF072F994
:10A60000B9232A4AD35C002B38D000249046342545
:10A6100065434544AD35FF352B78B34227D1621CE5
:10A620006B88381C25490AF0C5F82B7D012B0CD00E
:10A630002348391C0AF056F9291D381C1022FDF751
:10A640000FFF2048391C0AF04DF96A786B7DA97D0F
:10A650000091381C1C490AF0ADF8291C1831EA7D1C
:10A66000381CFFF787FC1448391C0AF03BF9013409
:10A67000E4B2B9230D4AD35CA342C8D80136F6B27E
:10A68000B8230A4AD35CB3429FD805E00F4804E0E0
:10A690000F4802E0002000E0002003B03CBC9046E0
:10A6A0009946A246AB46F0BD343E0020384A002011
:10A6B0009C770200B077020098770200BC77020016
:10A6C000D4770200E46D0200E077020062800000AF
:10A6D0006380000000000000F8B54F464646C0B455
:10A6E000061C2F48311C0AF0FDF82E4B1868420C4E
:10A6F0005968C9031143C003284B274A09F0C6FB18
:10A70000041C0D1C284B1B689E4207D02549884617
:10A71000224F214E2C23FF33994610E0A020C00584
:10A7200022498022920443581342FCD0A020C00545
:10A730001E498022920443581342FCD1E6E703F0FD
:10A7400047FF002811D042461068430C5268D103DD
:10A750001943C003321C3B1C09F098FB001BA941A4
:10A76000002902D1EBD14845E9D90E4B1868420CBB
:10A770005968C9031143C003084B074A09F086FB17
:10A78000041B312C03D83220001B09F077FA0CBCD3
:10A7900090469946F8BDC046E880000000000000E1
:10A7A000EC6D020020520020D03200200405000091
:10A7B000F0B5474680B494B080460F1C151C80232A
:10A7C0005B055A6E1B6E0FAC201C26490AF022FD59
:10A7D00004F0F8FC021C0AAE301C23490AF01AFDF2
:10A7E00000230293214B039304960594204B069378
:10A7F0000793204B089304F0FFFC0990002F02D030
:10A80000022F0ED026E003AC0AAF1B4E01CC291C50
:10A810000AF068F8301C291C0AF064F8BC42F5D133
:10A820001AE04046154901AA0AF016FD002803D097
:10A83000019B5A1E062A01D911480EE09B0002AA6C
:10A840009858291C0AF04EF80B48291C0AF04AF8BF
:10A85000002002E00A4800E0002014B004BC90464A
:10A86000F0BDC0464C7802005878020064780200BF
:10A87000747802007C78020098770200147302005A
:10A880006280000038B5051C141C012902D9022978
:10A890000CD01FE0124B187A3030111C09F0C2FFA7
:10A8A0001048211C0AF01EF8002018E00AF086FD6E
:10A8B000012811D12B78303BDBB2012B0ED8084A8E
:10A8C000127A00209A420AD0054A137203F090FED1
:10A8D000002004E0044802E0034800E0024838BDDC
:10A8E000384A0020987702006280000008B50029ED
:10A8F0000AD1101CFFF7F0FEBFF34F8F034A044B41
:10A90000DA60BFF34F8FFEE7024808BD0400FA0586
:10A9100000ED00E06280000010B5141C00290ED18B
:10A9200003F0DEFE01F0CEFA201CFFF7D5FEBFF3E8
:10A930004F8F044A044BDA60BFF34F8FFEE70348A2
:10A9400010BDC0460400FA0500ED00E06280000082
:10A9500008B5002906D1101CFFF7BEFE01F05AFB16
:10A96000002000E0004808BD6280000010B500290A
:10A9700023D1134B1B689A420CD102F00FF9104BF4
:10A980001C6802F005F9021C201C0E4909F012FF98
:10A99000002013E000F0A8FC0123181AC0B200F058
:10A9A000A9FC094B1B689C6800F09EFC021C201C43
:10A9B000044909F0FFFE002000E0044810BDC04635
:10A9C000343E0020046E0200442A00206280000011
:10A9D00010B582B0141C022918D1114901AA0AF03D
:10A9E0003BFC002814D00199072913D8022913D061
:10A9F000C9B20220002202F0EBFD02F023FE021C8D
:10AA0000201C084909F0D6FE002006E0064804E0B4
:10AA1000054802E0044800E0034802B010BDC0460B
:10AA200014730200887802006280000010B5141CC4
:10AA300000290AD102F0F4FD02F018FE021C201CCD
:10AA4000034909F0B7FE002000E0024810BDC046EF
:10AA5000887802006280000039DF70473ADF704773
:10AA600052DF704710B582B0141C012918D801A814
:10AA7000FFF7F6FF002811D1019BD917890FCB18DA
:10AA80009A10032003405B1A9900CB1899005B18B9
:10AA9000201C054909F08EFE002002E080B200E093
:10AAA000024802B010BDC046B478020062800000C7
:10AAB00010B582B0141C02292AD101235B420193F4
:10AAC000174901AA0AF0C8FB002823D0019B1F2BBD
:10AAD00022D8C133FF339B0080218902A022D205F6
:10AAE00099501048211C09F0FDFE322009F0C6F8EB
:10AAF0000020002100F004FC0120002100F000FCF7
:10AB00000121A023DB008022D205D150002004E0E7
:10AB1000054802E0044800E0034802B010BDC0460A
:10AB200014730200EC6D020062800000F0B547462D
:10AB300080B486B09046002902D0022904D056E0A5
:10AB400004226B46DA750BE069461731FDF724FBEA
:10AB500000284ED06B4617331B78013B0F2B4AD889
:10AB600000256C46033400276E4617362770201CDC
:10AB7000FFF772FF83B2002B19D12378002B12D07C
:10AB80003178491B0A1CC9B2994200D91A1CD1B2AA
:10AB9000227001AB5819FFF761FF80B200282BD15A
:10ABA0002378ED18EDB23378AB42DFD801E0181C02
:10ABB00022E01348414609F095FE6B4617331B7897
:10ABC000002B0ED000240F4E6D46173501AB1A5DD9
:10ABD0004046311C09F0EEFD0134E4B22B78A3426B
:10ABE000F4D80948414609F07DFE002004E00748FA
:10ABF00002E0064800E0054806B004BC9046F0BDFF
:10AC000070770200CC6D020098770200628000002D
:10AC100010B582B0002902D0022909D034E01C4BC3
:10AC20009B7A101C1B491A1C09F0C4FD00202CE063
:10AC300069460731FDF7B0FA002804D06B460733A8
:10AC40001B78012B01D914481FE0114A927A9A42CD
:10AC500018D0002B03D10120002100F051FB6C46DD
:10AC6000E2790B4B9A7203F0C3FCE379012B09D113
:10AC700001F0A8F8094BC1184B1E9941C9B2012037
:10AC800000F03EFB002000E0034802B010BDC046CB
:10AC9000384A0020046E0200628000000100FFFFBD
:10ACA000F0B5474680B492B094460CAA354B141CBC
:10ACB0001D1CC4CDC4C4C4CDC4C409AC1833C4CB9A
:10ACC000C4C4002902D002290CD055E02E4B597A79
:10ACD00089000CABCB5860462C491A1C09F06AFD60
:10ACE00000204AE0012301930023029303A90623D5
:10ACF0000B704B7001AA4A600CAA8A600B73032385
:10AD00004B7302AB0B6109AB4B610222FDF7BEFA3C
:10AD100000282FD0012803D9019B052B2AD102E05E
:10AD2000019B052B26DC184A527ADBB29A4208D0E6
:10AD30000020002100F0E4FA134B019E5E7203F044
:10AD400057FC019F052F13D1029B022B0AD1002033
:10AD500000F0ECFB0123011C5940C9B2002000F0B7
:10AD6000CFFA05E05A1E9341D9B2002000F0C8FA8C
:10AD7000002002E0064800E0054812B004BC9046FE
:10AD8000F0BDC04690780200384A0020C07802002A
:10AD900062800000F0B54F464646C0B483B0161C32
:10ADA000002902D0022924D038E003240125224BB7
:10ADB00098460027214B9946E0B202F09FFB0028FD
:10ADC0000BD0002D03D14846311C09F08BFD301CFF
:10ADD0004146221C09F0EEFC3D1C0134782CEBD1DD
:10ADE0000020002D22D11648311C09F07BFD0020E7
:10ADF0001CE000230193134901AA0AF02DFA002850
:10AE000003D00198C31E742B0AD90F480EE0301CE2
:10AE10000E49019A09F0CEFC002007E00A4805E03F
:10AE2000C0B202F06BFB0028F6D0F0E703B00CBC18
:10AE300090469946F0BDC046FC780200E46D0200E1
:10AE4000987702000479020062800000087902000D
:10AE5000011C00201F2919D80D4B1878002810D08C
:10AE60000C4B1B788B420ED00B4B0138C0B218181C
:10AE700003E01A7801338A4207D08342F9D10120D6
:10AE800004E0012002E0002000E000207047C046FE
:10AE900024790200147902001579020030B583B0DC
:10AEA000141C022941D1264901AA6B460AF0D4F9A3
:10AEB000012805D002283AD1009D012D39D812E091
:10AEC000A223DB00A022D205D358019AD34001204F
:10AED00018403030211C09F0A5FC1A48211C09F04B
:10AEE00001FD00202AE0184BA022D205D358019C76
:10AEF000E340DA071FD5201CFFF7AAFF00281CD06B
:10AF0000002D08D10123A3401C1C104BA022D20508
:10AF1000D450002012E00123A3401C1CA123DB001D
:10AF2000A022D205D450002008E0094806E00848D5
:10AF300004E0074802E0064800E0054803B030BDE1
:10AF4000CC75020098770200140500000C05000083
:10AF50006280000030B583B0141C022964D13849E6
:10AF600001AA6B460AF078F9012805D002285DD1C4
:10AF7000009D032D5CD823E0324BA022D205D2588D
:10AF8000019BDA400120D1070FD49B00A022D205FB
:10AF90009B18E022D2009A580320510705D4E022E2
:10AFA000D20098580007C00F400000903030211C9C
:10AFB00009F038FC2448211C09F094FC00203CE0F6
:10AFC000019C201CFFF744FF002833D0012D08D03E
:10AFD00002DC002D0ED02FE0022D13D0032D1AD04D
:10AFE0002AE0C134FF34A4000322A023DB05E25091
:10AFF000002022E0C134FF34A4000020A023DB05A0
:10B00000E0501AE0C134FF34A4000C22A023DB0579
:10B01000E250002011E0C134FF34A4000422A02338
:10B02000DB05E250002008E0084806E0074804E09D
:10B03000064802E0054800E0002003B030BDC046ED
:10B04000CC750200140500009877020062800000B1
:10B0500010B586B0022925D1174905AA04AB0AF01C
:10B06000FBF8022820D1059C201CFFF7F1FE0028E8
:10B070001CD0049A642A1BD8684600210E2209F0CD
:10B0800054FE01236A4613705470137102235371E6
:10B090009372684602F00AFB0020049902F0F6FB66
:10B0A000002006E0054804E0044802E0034800E010
:10B0B000024806B010BDC046CC7502006280000098
:10B0C00070B582B0141C012902D902290CD057E0B6
:10B0D0002D4B5A7D1207520E2C4BD258201C2C4956
:10B0E00009F068FB00204CE001A9FDF73DF80028BD
:10B0F00044D0019A254B1B689A420FD02549012361
:10B100000868824204D1DDB26AB2002A08DA35E06A
:10B110000133DBB20831102BF2D12FE000230025E0
:10B120006DB2194A527D1207120F954224D0164A69
:10B130000F210B40517D0F2081430B435375201C81
:10B14000FDF722FC142008F099FD134C0126E6615E
:10B15000052008F093FDED000C4B5D196A680F4B5C
:10B16000E250002384225200A3508E225200A350AA
:10B17000A660266003F03CFA002002E0084800E0E8
:10B18000074802B070BDC046384A00202879020046
:10B190008878020030790200002000402405000079
:10B1A0006280000010B584B0141C012902D9022964
:10B1B0000DD06EE0384B5A7DD206D20F01235A4093
:10B1C000D2B2201C354909F0F5FA002062E06A4647
:10B1D0000023D370033201A901938B6007230B7006
:10B1E0004A600122FDF752F8012801D02C4851E0B5
:10B1F0006A46D17801234B40D370274A527DD2064C
:10B20000D20F9A4243D0244A01210B401901537DA9
:10B21000102083430B435375201CFDF7B5FB14200E
:10B2200008F02CFD1F4B0122DA61052008F026FDF5
:10B230006B4603331B78002B0ED01A4B1A4A9958D1
:10B2400001208143995001225242A221C9005A5043
:10B25000A121C9005A500DE0124B134A9858012100
:10B26000014399500A21A222D20099500821A1221B
:10B27000D20099500B4B0022842149005A508E2154
:10B2800049005A5001229A601A6003F0B1F9002077
:10B2900000E0034804B010BD384A0020046E0200EC
:10B2A00062800000002000406C05000048DF70470D
:10B2B0007047C046830702D50122044B1A708B07E2
:10B2C00002D50022014B1A707047C046582B00204F
:10B2D000014B18887047C046562B0020014B188838
:10B2E0007047C046242C0020014B18787047C04698
:10B2F000582B0020014B18707047C046582B002077
:10B30000012805D10E4B9B7A1320002B04D115E0A8
:10B31000434243411320C01A002908D0012383402F
:10B32000181CA123DB00A022D205D05006E0012387
:10B330008340181C034BA022D205D0507047C04652
:10B34000384A00200C05000030B58DB0A823DB0082
:10B35000614AD1580023614A914204D8A823DB00F6
:10B360005D4AD3589BB25E4A1380A823DB005D4A36
:10B37000D1580023594A914204D8A823DB00594AE6
:10B38000D3589BB2584A13800023009320200821F1
:10B390000622564B04F064FD002803D00021002251
:10B3A00000F02EFC0220524904F0E6F8002803D0F9
:10B3B0000021002200F024FC09204E4948220023ED
:10B3C00005F0C8F9002803D00021002200F018FC85
:10B3D000494805F0EFF980B200287BD107F064F806
:10B3E00080B2002876D103F01FFA002872D109A894
:10B3F0000B23037009234370082383700A23C3704F
:10B400003E4B5B7DD906C90F01224A4002710022E2
:10B4100042711B075B0E3A49CB185B6883606B4631
:10B42000DA810E33374A049280220592364906911A
:10B430000792009304A9354A012304F0B1FF80B2BA
:10B44000002847D1324B1B689868002109F052FE52
:10B45000A023DB050C21E822D2009950A222D200C1
:10B460009B58DA030BD42B4808F008FCA223DB001E
:10B47000A022D205D358DA0301D403F031F9A02475
:10B48000E4050C25244BE55002F060F802F0ACFC1A
:10B49000224BE5506846233002210222204B04F063
:10B4A000A9F880B2002815D16B462333187804F030
:10B4B000CDF8A222D200A1588907C90F194A1170EC
:10B4C0000322E921C900625017496250012000217E
:10B4D000FFF716FF0DB030BD00900040FEFF0000EA
:10B4E000562B002000A00040242C0020A82C002077
:10B4F000F82F0020DC2B002015230200384A002002
:10B50000287902005C2B0020282C0020B1B2010019
:10B51000442A0020DC0500001C070000040700008E
:10B52000B5B20100582B00204C070000431E984183
:10B530001230044BA022D205D358C340181C01235B
:10B540001840704704050000014B587A7047C04608
:10B55000384A0020031C0020002B08D1A223DB0066
:10B56000A022D205D058C009012358401840704786
:10B5700008B5FFF79BFE08BDF0B557464E46454659
:10B58000E0B48146284B1868420C5968C90311433E
:10B59000C003244B224A08F079FC041C0D1C2249EC
:10B5A0008846204F1E4EF423FF339A46484605F046
:10B5B00043F8002812D042461068430C5268D10369
:10B5C0001943C003321C3B1C08F060FC001BA9415E
:10B5D000002917D1EAD15045E8D913E0124B186879
:10B5E000420C5968C9031143C0030E4B0C4A08F0C2
:10B5F0004DFC001BA941002904D108D1F423FF33DD
:10B60000984204D905F024F80120404200E0484661
:10B610001CBC90469946A246F0BDC046C046C046F6
:10B62000E88000000000000020520020C046C04614
:10B6300000B583B06846073004F0EAFF002802D165
:10B640006B46D87901E00120404203B000BDC046FE
:10B6500000B583B06946073105F00AF8002802D129
:10B660006B46D87901E00120404203B000BDC046DE
:10B6700072DF704773DF704774DF7047A0DF704779
:10B6800060DF704768DF704708B506F043FE08BD0D
:10B6900038B50024064D2B19DA79002A03D01B692E
:10B6A000002B00D098471434502CF4D1002038BD22
:10B6B0000029002030B58FB003282CD869463731D7
:10B6C000164BDB7A0B700CAA154B84002518AD00C5
:10B6D0005D19AD8815802418A4001B199B799370FF
:10B6E0000023009302930493059306930793089312
:10B6F00009930A930B9306236C46E370019101238F
:10B7000023810392022800D1A3706846002105F02E
:10B7100075FA80B200E003480FB030BD384A00200F
:10B72000002900206280000030B597B010AC0223E1
:10B73000237015236370124D291C6C31684642300A
:10B74000152209F0D0FA0DAA8223EB5A1380172391
:10B7500093800F9401A80023019343608360C3602A
:10B76000036143618361C36103628362C362042333
:10B77000C3704262002105F041FA80B217B030BDBB
:10B78000384A002070B59AB0061CFFF775FF14AC5C
:10B79000002314931593169317931993664DA88F4E
:10B7A000C000052108F010FB2082EB8F6382002E81
:10B7B00004D014AB614A1A8200225A825E4A49239D
:10B7C000D15C052900D9B3E08B005D4AD3589F4670
:10B7D000594B1B7D0020DA0704D504214923564A22
:10B7E000D1540220544B1B7D9A0704D505214923CF
:10B7F000514AD1540320FFF75DFF031C002B6CD08E
:10B8000097E05048C17F00220023FFF731FF83B249
:10B81000181E62D08DE0484B187DC007431E98412A
:10B820004000FFF747FF031C002B56D081E0424B3E
:10B830001B7D00209A0700D50320FFF73BFF031C68
:10B84000002B4AD075E014ABA0221A8200225A8243
:10B85000FFF76AFF031C002B3FD06AE000F0E4FE14
:10B86000002803D00120FFF725FF36E001AB0022BE
:10B870000392049205920692079203221A705A705C
:10B88000314959802C4AA520105C053018711620CA
:10B890005871D980102119729F21515C59729E23D1
:10B8A000D35C002B05D001AB284ADA805A800022F5
:10B8B0001A7201AC68460E302549122209F013FABB
:10B8C00021782379C9180231C9B2201C0022002333
:10B8D000FFF7CEFE80B200282BD1002308930993F6
:10B8E0000A930B930C930D930E930F931093119354
:10B8F00012931393174809F061FD00231D22824221
:10B900005B41013308AA1370124809F057FD002368
:10B910001D2800D91D2308A94B70002005F06EF9E1
:10B9200083B2181E05D114A8FFF7A4FE80B200E070
:10B9300007201AB070BDC046384A00206A030000D4
:10B94000A8790200A44A0020AAFEFFFFD8FEFFFF4C
:10B95000DE4A0020844A0020F0B55F4656464D4638
:10B960004446F0B48BB008A8754B021C12CB12C22F
:10B97000FFF786FE83B2181E00D0D9E0714804F0AC
:10B980000FFF83B2181E00D0D2E06F4804F012FF00
:10B9900083B2181E00D0CBE080235B055B6B022BCB
:10B9A00011D101AC201C0021082209F0BEF9227837
:10B9B0000123134323700120211CFFF763FE80B293
:10B9C000002800D0B4E000F05FF900F0CFFA01F0F9
:10B9D000D1F95E4B5E4A127DD007C00F2F2158541B
:10B9E0009207D20F43215A541C1C1E1C50360127AB
:10B9F000251CE379002B0FD02068002801D1A77106
:10BA000005E001F0E5F8A071012800D88FE0AB68EF
:10BA1000002B01D0A87998471434B442E8D1B82358
:10BA20004B4AD35C002B78D0002693469146730096
:10BA30009B19DB005B44BC339A461B7D012B06D06F
:10BA4000504601F0C5F853461875012865D954468B
:10BA5000238A69460B80237D8B7001205246123267
:10BA6000FFF70CFE80B2002857D1B923384CE35CB5
:10BA7000002B4BD000253427A0463C1C6C434C4483
:10BA8000AD34FF342378B34239D1237D012B05D067
:10BA9000201D01F09DF82075012830D901A8002350
:10BAA000019343608360C3600361436183615246D5
:10BAB000538A03806378837063888380237D8371D6
:10BAC000037A03229343022213430372231C183385
:10BAD000C360637D0382A37D4382E37D8382C37859
:10BAE0000F229343012213430F22134010221343CA
:10BAF000C370211C2C3101F095F800280DD10135BF
:10BB0000EDB2B9234446E35CAB42B6D80136F6B297
:10BB1000B8230F4AD35CB34289D848230C4AD35C7C
:10BB20000020002B04D0FFF72DFE002000E00720AE
:10BB30000BB03CBC90469946A246AB46F0BDC04611
:10BB4000C079020055BB010089B601000029002020
:10BB5000384A002070B586B0051C00F061F9281C39
:10BB600006F016FA281C00F01DFA2B88112B1FD0A6
:10BB7000192B25D0102B37D101200121FFF7C0FB55
:10BB80004A231C4AD35C002B2ED000230093019340
:10BB9000029303930493059303236A461370A0232F
:10BBA00013826846FFF766FD80B200281CD01EE0B5
:10BBB00001200021FFF7A4FB0020FFF7E3FD13E0C5
:10BBC000AB79002B10D10120FFF7DCFD0CE033191D
:10BBD000DA79002A04D0DB68002B01D0281C9847B2
:10BBE0001434502CF3D102E00024034EEFE706B0EA
:10BBF00070BDC046384A002000290020012070474F
:10BC0000BFF34F8F024A034BDA60BFF34F8FFEE75B
:10BC10000400FA0500ED00E077DF704778DF704739
:10BC20007ADF70477CDF704784DF7047A7DF70479B
:10BC300062DF70477047C04608B5021C0B78122BB4
:10BC400010D0D9B2122902D8112B05D016E0142B2E
:10BC50000FD0212B0DD011E00948111C042209F04E
:10BC600042F80BE0064805F093FC064805F090FC0E
:10BC700004E00448111C042209F035F8002008BD36
:10BC80002C3000202430002030B58BB0434805F024
:10BC90007FFC434805F07CFCFFF7B0FF400801241F
:10BCA000204001AB187003AB002205923D4A03927D
:10BCB00001221A710D225A7107229A711022DA712B
:10BCC000FFF79CFF044209D001A805F0BBFA80B23F
:10BCD000002803D1344803A905F050FB334C201C45
:10BCE000FFF7A6FF2278324B1A70324B0B20185602
:10BCF000FFF792FF83B2181E4DD1FFF77FFF031CA1
:10BD00000020D90747D56A4613780F2293430122B2
:10BD100013430F221340102213436C462370264C0A
:10BD2000201C09F04BFB82B26846211CFFF77AFF0A
:10BD300083B2181E2FD11F4B1B7D0020DD0700D5BD
:10BD40001E48FFF76BFF83B2181E24D101AC194DBA
:10BD5000288F8000052107F0E9FF2080688F800090
:10BD6000052107F0E3FF60800023A380C8235B0068
:10BD7000E380201CFFF754FF83B2181E0BD103A8E9
:10BD80000F4A031C32CA32C332CA32C312681A6065
:10BD900006F0B8F880B20BB030BDC0462C300020A1
:10BDA0002430002039BC0100283000203130002030
:10BDB00030300020384A0020844A0020C1030000AF
:10BDC000047A0200014B18887047C04650290020B1
:10BDD000014B00201856704720300020054B1B787F
:10BDE000FF2B05D0034B9878FF38431E984100E0A5
:10BDF000002070472430002000B585B00023009358
:10BE000001930293039301236A4613700348694622
:10BE100005F052FB80B205B000BDC04624300020C2
:10BE200010B5041CFFF7EAFEC30702D5201C05F07D
:10BE3000AFFC2388112B27D004D8012B09D0102B5D
:10BE400014D034E01A2B28D0522B2AD0182B2ED104
:10BE500027E0174B1B780133164A11781A1CDBB206
:10BE60008B4200D90A1C124B1A7020E0A288124B98
:10BE70001A80FFF7C3FEC30719D50F4B188801219D
:10BE80000022FFF7D1FE12E0012252420A4B1A8033
:10BE9000084B1A78064B1A7009E0A279074B1A7002
:10BEA00005E0054B18880C21054AFFF7BFFE10BDC1
:10BEB0003030002031300020502900202030002078
:10BEC000FFFF000008B5FFF799FEC30704D503483C
:10BED00005F098FA80B200E0014808BD2830002043
:10BEE0006380000008B5011C054B1A880820054B2B
:10BEF0009A4203D0044805F059FB80B208BDC04601
:10BF000050290020FFFF00002C300020024B187841
:10BF1000431E9841C0B2704730300020024B1A785F
:10BF2000013AD2B21A7070473030002044DF7047B7
:10BF300011DF704713DF704774DF704776DF70479B
:10BF400008B5FFF73FFF084B984204D0FFF73AFFD0
:10BF50001321FFF7F3FFFFF7EFFF01200021FFF7A9
:10BF6000CFF906F00DF808BDFFFF000010B584B052
:10BF7000FFF7AEF901A90880074B4B6000238B60E7
:10BF8000064806F0A1FD84B2002C02D1044806F058
:10BF900089FD201C04B010BD35290200343000207A
:10BFA00041BF010008B5011C014806F005FF08BDAE
:10BFB00034300020064C064D061C064FF0B4002419
:10BFC000002500260027F0B4034800477047000012
:10BFD000FFFFFFFF00000021F9FFFFFF0A4B0B4AA4
:10BFE000D22189005A50C22189005A50016881F338
:10BFF000088840680022EFF305839A42DAD1044CA6
:10C00000A64600477047C0460010014001000100ED
:10C01000FFFFFFFF10B5FFF793FFB120FFF786FF8B
:10C0200083B2181E19D1FFF783FF83B2181E14D1F3
:10C030000A4B5869FFF77EFF84B2201E0DD1084BD2
:10C040008021C903C022520099501968802299505A
:10C05000024B5869FFF7C2FF201C10BD00100010F2
:10C0600000E100E077DF7047A0DF7047A4DF704792
:10C07000A8DF704730B589B0051C844C201C002116
:10C080004C2208F052FE0023A370814A137007A9C6
:10C0900082239B010B808D700120221CFFF7E4FF9F
:10C0A00083B2181E00D0EEE001930293059306932D
:10C0B00076490B886846038007AB9B788371012320
:10C0C0001122C270734A828006220272022282709A
:10C0D0008A1C0392838243820382043100F0A2FD12
:10C0E000031C002B00D0CEE06B4B68468380037AA4
:10C0F0000322934302221343037208238370674B86
:10C1000003930123038210234382002383825F4928
:10C110000C3100F087FD031C002B00D0B3E0604B16
:10C1200069468B800B7A03229343012213430B72DF
:10C13000002308228A700393012268460A82102293
:10C140004A828B825149143100F06CFD031C002B94
:10C1500000D098E0534B68468380027A03239A43C9
:10C1600002231A4302720822134383704E4B039337
:10C170000122028212224282A63BA5229B5C83827C
:10C1800042491C3100F04EFD031C002B7BD1474B74
:10C190006A469380127A03239A4302231A4368461D
:10C1A0000272082213438370414B0393012383825D
:10C1B000438203823549243100F034FD031C002BF7
:10C1C00061D13C4B69468B800A7A03239A43022350
:10C1D0001A430A72082213438B70374B03930423CC
:10C1E0008B8268464B820B8228492C3100F01AFD65
:10C1F000031C002B47D1314B6A469380127A0323EC
:10C200009A4302231A43684602720822134383703A
:10C210002B4B039301238382438203821B493431D6
:10C2200000F000FD031C002B2DD1264B69468B80AE
:10C230000A7A03239A4302231A430A7208221A43F2
:10C240008A70214A03928B8268464B820B820F4987
:10C250003C3100F0E7FC031C002B14D11B4B6A4659
:10C260009380127A03239A4301231A436846027289
:10C270000822827000220392838243820382034950
:10C28000443100F0CFFC09B030BDC046643000201E
:10C29000C03000208120000082200000C44A00201D
:10C2A0008320000084200000DE4A0020852000005A
:10C2B000D54A002086200000D84A002087200000B0
:10C2C000DC4A002088200000744A002089200000F9
:10C2D000F0B5474680B484B0041C0388512B00D0CD
:10C2E0000BE18379022B00D007E1028B854B1B8881
:10C2F0009A4200D001E1837A012B00D0FDE0038A4D
:10C3000081481A1892B2012A26D87E4A9278002AC9
:10C3100016D09C237D4AD25C238C934200D0E4E06B
:10C32000201C22307A4908F0CFFC002800D0DCE045
:10C33000228A7549521853425A41724B9A70CAE088
:10C34000744A934200D0D0E0238C013B9BB2002280
:10C350000E2B00D8B1E0C8E06A4B9B78002B00D0D0
:10C36000C3E0B8E0258C00239D420DD1C3E0218CB1
:10C37000A523664AD15402F03BF90022664B1A709D
:10C38000B9E002F035F9B6E02026102294460427E1
:10C39000B846E21820329178CAB2101CB04340B2BD
:10C3A00028300DD0101C6746B84340B2143007D077
:10C3B0004046824352B2103202D0814300D097E00F
:10C3C0000133DBB29D42E4D8A423504AD35C9D42A2
:10C3D00000D890E0E31820339D78131C0B229A5666
:10C3E0006BB29A4200D186E0181CFFF73BFE80B288
:10C3F000002800D07CE0454BDD7202F0F9F87AE0CD
:10C400002223E35C032B73D8A42240498A5C9A421E
:10C4100071D0CB1898331D7ACA7A52B26BB29A4255
:10C4200069D0181CFFF71EFE80B2002860D1374B80
:10C43000DD7202F0DDF85EE06846211C2231022246
:10C4400008F051FC69460B88191C143989B2334A2B
:10C4500091424DD82D4A928F9A424CD002F0C8F8A2
:10C4600049E02A4D281C8C3000212C2208F05DFC6C
:10C4700010229C23EA54EE229F23EA540422A02394
:10C48000EA54FC22A223EA54F422A323EA54012210
:10C49000A423EA540A22A523EA54281CA6302049E2
:10C4A0000B2208F020FC281CB1300021072208F0E4
:10C4B0003CFC02F09DF81EE0002200230093019353
:10C4C0000293039302236F463B70BA80A0886946AB
:10C4D000FFF7CEFD11E0238A12495B189AB2052AB4
:10C4E000EAD89300104AD3589F4684225200E4E7CA
:10C4F00084225200E1E70022DFE704B004BC90464A
:10C50000F0BDC046643000207EDFFFFF384A0020C7
:10C51000C44A002082200000C0300020EC27000028
:10C52000387A02007CDFFFFF207A02000000000062
:10C5300038B5154B1B78002B1FD0144CA568144B35
:10C540001868420C5968C9031143C0030D4B0C4ACB
:10C5500007F09CFC22686368801A9941002901D188
:10C5600085420AD80022084B1A70FFF72BFC094BB2
:10C57000984202D10020FFF705F9002038BDC046DF
:10C58000E880000000000000C0300020B030002033
:10C5900020520020FFFF000030B583B0031C0C1CAC
:10C5A0000B4D281C191C221C08F09DFBA63DA52341
:10C5B000EC54FFF707FC074B998B00230093019382
:10C5C0006B461C806A46FFF751FD80B203B030BD58
:10C5D000DE4A00206430002010B5002814D001226B
:10C5E0000D4B1A700D4CFA239B005843A0600C4B66
:10C5F0001868420C5968C9031143C003054B044A2B
:10C6000007F044FC2060616010BDC046C046C046D3
:10C61000E880000000000000C0300020B0300020A2
:10C6200020520020C046C046014B18787047C046D3
:10C63000C0300020A0DF7047A6DF704730B589B05A
:10C64000051C1D4C201C00210A2208F06EFB07A9C6
:10C650001A4B0B808D700120221CFFF7EBFF83B279
:10C66000181E26D1164800F0B3FA00230193029356
:10C6700003930593069310490B886A46138016238B
:10C6800093702123D3700F4B938090710123137209
:10C690001382142353820231684600F0C3FA041C4B
:10C6A000002C06D1084801F0FBFC084801F0F8FC1A
:10C6B000201C09B030BDC046C43000205A0E000016
:10C6C0004C7A0200DBE5FFFF64290020542900209A
:10C6D00008B50388502B0AD1C288054B5B889A4263
:10C6E00005D1011C2031C28B024801F0BFFC08BDFE
:10C6F000C430002054290020F0B54F464646C0B44F
:10C7000087B081466B46D980FFF75CFB0023344A33
:10C7100090425BD0FFF7FAFB00283DD1314B1868FF
:10C72000420C5968C9031143C0032C4B2A4A07F035
:10C73000ADFB041C0D1C2B488046284F264EFFF7EE
:10C74000E5FB002814D141460B685A0C4868C10328
:10C750001143D803321C3B1C07F098FB021C0B1C36
:10C76000121BAB41002B2ED1E9D1C72AE7D92AE011
:10C770001C4B1868420C5968C9031143C003174B7E
:10C78000154A07F083FB021C0B1C121BAB41002B4C
:10C790001BD101D1C72A18D802AC002302930393FE
:10C7A000114B5B8823800123A3706B4606330493EF
:10C7B00049460591FFF706FB211CFFF73DFFFFF7F8
:10C7C000ADFB002302E0042300E00423181C07B0A3
:10C7D0000CBC90469946F0BDE880000000000000C7
:10C7E000FFFF000020520020C4300020C046C04699
:10C7F000A0DF7047A6DF704710B586B0FFF7E2FAFA
:10C800002B4B98420BD12B4801F04AFCFEF79CFEC3
:10C8100002284AD100200021FEF772FD45E0FEF714
:10C8200093FE022811D1234B1B899BB2002B04D00D
:10C83000214B1B899BB2002B07D1FEF785FE0228F6
:10C8400003D100200021FEF75BFDFFF75FFB00280E
:10C850002BD0184819491431142201F06BFB6B4698
:10C86000D882002821D0164B1870FEF76DFE0228E2
:10C8700003D100200121FEF743FD01AC0023019309
:10C8800002930E4B9A8822800122A2706A461632C9
:10C89000039214330493FFF795FA211CFFF7AAFFC4
:10C8A00080B2002801D1FFF739FB06B010BDC046A9
:10C8B000FFFF00007429002084290020D4300020CC
:10C8C0000031002030B589B0051C324C201C0021FD
:10C8D000282208F02AFAA57007A901230B808D7081
:10C8E0000120221CFFF784FF83B2181E4FD1019351
:10C8F0000293059327490B886A46138007AB9B7800
:10C900009371022313720123138214235382212370
:10C91000D37003239380102393700B1C1433039361
:10C920001D4B06930431684600F07CF9031C002B74
:10C930002DD102236A46938008239370002303932A
:10C94000164B0693684613490C3100F06BF9031C33
:10C95000002B1CD11248134907F020FF031C124A78
:10C9600010600520002B12D0181C002108F0C2FB1B
:10C970000E4801F095FB0E4801F092FB00220D4B92
:10C980001A700D4801210D4A03F0FEFA80B209B079
:10C9900030BDC046D4300020607A0200647A0200C4
:10C9A000687A0200707A0200343E00207429002068
:10C9B00084290020D0300020FC300020F9C701007D
:10C9C00000B583B006486946073101F06FFA0028C8
:10C9D00002D06B46D87901E00120404203B000BD8F
:10C9E0008429002000B583B0011C07486A4607323D
:10C9F00001F0BAFA002802D06B46D87901E0012094
:10CA0000404203B000BDC04684290020014B188974
:10CA100080B2704784290020014B188980B270478A
:10CA20007429002000000000F0B54F464646C0B40F
:10CA300083B06B46D8712C4B1868420C5968C903F7
:10CA40001143C003274B264A07F020FA041C0D1C93
:10CA500026498946244A9046224F214E02E0012071
:10CA600007F00CF948466946073101F0A9FA002899
:10CA700017D143461868430C42465268D103194304
:10CA8000C003321C3B1C07F001FA021C0B1C121BDA
:10CA9000AB41002B02D1E2D1C72AE0D901204042AC
:10CAA00016E0114B1868420C5968C9031143C003C2
:10CAB0000C4B0B4A07F0EAF9001BA941002905D1EC
:10CAC00001D1C72802D86B46D87901E00120404245
:10CAD00003B00CBC90469946F0BDC046C046C04667
:10CAE000E88000000000000020520020742900208F
:10CAF00070B50388102B08D002D8012B2FD03EE050
:10CB0000112B09D0502B0CD039E01D4B1868622135
:10CB1000002203F071FA32E0194B186803F0C2FAF0
:10CB20002DE0C288174B9B899A4228D1C38B002BDA
:10CB30000CD00024144E851D29191A31301C01F027
:10CB40003FFA0134A4B22B8BA342F5D8FEF7FCFCCC
:10CB5000022814D100200121FEF7D2FB0FE0027A57
:10CB60000A4B1B789A420AD1FEF7EEFC022803D149
:10CB700000200021FEF7C4FB0022044B1A7070BD98
:10CB8000FC300020D4300020842900200031002017
:10CB9000014B18787047C046D030002008B5064BCE
:10CBA0001A7801218A1A1A70044801F079FA0448A7
:10CBB00001F076FA08BDC046D0300020742900206C
:10CBC00084290020A2DF704763DF704764DF70476D
:10CBD00010B586B000226B46DA7100235942C218A4
:10CBE000D47B02AA8C54013B1A1C1032F6D102A845
:10CBF00000234373037369460731FFF7E5FF83B2F0
:10CC00000F2B08D1102002A96A46FFF7DFFF6B4601
:10CC10009A78DA7102E00020002B01D16B46D879B6
:10CC200006B010BDF0B5474680B490B0041C0D1C92
:10CC3000C378002B08D10F229343012213430F2204
:10CC4000134010221343C370484B5B7B002B09D168
:10CC5000E3780F229343012213430F221340102243
:10CC60001343E370A37830221A4217D00FAE301C62
:10CC70000021032208F059F8B378062293430222D8
:10CC80001343B37033780F229343012213430F22CF
:10CC90001340102213433370E378737008AA002006
:10CCA000089009900A900B900C900E90A378137046
:10CCB00000223021194200D00FAA0D9207AA0023AA
:10CCC00013801123137002239370A06900280BD0E6
:10CCD0000378002B08D008AE099008F06FFB80B2F3
:10CCE0003081708107AB336106AB00221A80618A04
:10CCF000268A761A771EBE4101221640207A032723
:10CD000007407F00F6B2B446C6081640F600B046AB
:10CD10006646374380080240100142463A430243C8
:10CD20009A70A37832221A4202D0E27806AB1A70C7
:10CD3000A3781A0702D5E27806AB5A7001AA00233D
:10CD40009360D360231D019306AB5360A38A1381C4
:10CD50009181E3681361208808A92B1CFFF732FF3B
:10CD600080B210B004BC9046F0BDC046384A0020E6
:10CD7000A0DF704710B594B012A83C49042207F018
:10CD8000B2FF012012A96A464E32FFF7F1FF83B2CB
:10CD9000181E68D10BAC0C930D930F931093119345
:10CDA0006B464E331B8823800223A3700122A2719D
:10CDB00023721123E3702E4BA3802E480E9008F0AF
:10CDC000FDFA80B2A08260822082201C09A9FFF7B0
:10CDD00029FF031C002B46D10BAC274BA38027480F
:10CDE0000E9008F0EBFA80B2A08260822082201CB4
:10CDF00007A9FFF717FF031C002B34D10BAC204B06
:10CE0000A38020480E9008F0D9FA80B2A0826082F8
:10CE10002082201C05A9FFF705FF031C002B22D14F
:10CE20000BAC194BA38002F0E7F9E06008F0C6FAFA
:10CE300080B2A08260822082201C03A9FFF7F2FE4C
:10CE4000031C002B0FD10BAC104BA38002F0BAF9DE
:10CE5000E06008F0B3FA80B2A08260822082201CD9
:10CE600001A9FFF7DFFE14B010BDC046747A0200BE
:10CE7000292A0000787A0200242A0000A07A020001
:10CE8000282A00008C7A0200262A0000272A0000A7
:10CE900010B50C1C0B78022B0DD1FEF79FFF00285C
:10CEA00001D0FEF7A9FFE379022B04D1024800214B
:10CEB000052207F03AFF10BD04310020F0B54F46BF
:10CEC0004646C0B49BB014AC00226260E26062616E
:10CED000082323800123A370E37021212171617154
:10CEE00002212181A172E372212121736173052145
:10CEF000218203218946A174E37421212175617582
:10CF000012AF13923B80BB700223FB7021237B7115
:10CF100001250F2290462026BB7168460021482239
:10CF200007F003FF304B0093304B1B7DDB07DB0F1B
:10CF300069460B724B724A468A7203940D740597C8
:10CF40002B4B0893A9238B8442462A4032432C233F
:10CF5000CA540223FF336A460B8633234946D15411
:10CF600042462A40324334236946CA5442462A4044
:10CF700032433C23CA5442462A4032433D23CA54DA
:10CF800042462A4032433F23CA5442462A40324353
:10CF90004023CA5442462A4032434123CA5442469F
:10CFA0002A4032434323CA5442462A403243442350
:10CFB000CA5442462A4032434623CA544246154088
:10CFC0002E434723CE540B4806F0D2FA84B2002CED
:10CFD00004D109480021052207F0A7FE201C1BB040
:10CFE0000CBC90469946F0BD91CE0100384A002015
:10CFF000B07A02000C3100200431002008B5011C79
:10D00000014806F0ABF908BD0C310020000000001B
:10D01000F0B5474680B482B0041C0D1CFEF7D2FE6A
:10D020000823374A904260D068460021082207F062
:10D030007CFE69460D7063B2002B02DB314B1B5D39
:10D0400000E000236A469370FEF760FF00283ED19F
:10D050002D4B1868420C5968C9031143C003274B74
:10D06000254A06F013FF041C0D1C274B9846234F3E
:10D07000214E02E0192006F001FEFEF747FF0028CE
:10D0800013D141460868430C4A68D1031943C003D1
:10D09000321C3B1C06F0FAFE001BA941002902D1FC
:10D0A000E8D1C728E6D904231FE0174B1868420CC3
:10D0B0005968C9031143C003104B0F4A06F0E6FE3E
:10D0C000001BA94100290FD101D1C7280CD80F4856
:10D0D000002108226B4606F093FD84B2231E04D182
:10D0E000FEF71CFF231C00E00423181C02B004BC44
:10D0F0009046F0BDC046C046E88000000000000039
:10D10000FFFF00005C7B0200205200200C31002059
:10D11000F8B54F464646C0B48146FEF753FE082395
:10D12000314A904254D0FEF7F1FE002842D12F4BF5
:10D130001868420C5968C9031143C003294B284A97
:10D1400006F0A4FE041C0D1C28488046254F244EE2
:10D1500002E0192006F092FDFEF7D8FE002815D156
:10D1600041460A68530C4868C1031943D003321C76
:10D170003B1C06F08BFE021C0B1C121BAB41002B50
:10D1800002D1E6D1C72AE4D9042321E0174B18685D
:10D19000420C5968C9031143C003124B104A06F0F0
:10D1A00075FE021C0B1C121BAB41002B0FD101D1D1
:10D1B000C72A0CD80E48002108224B4606F020FD55
:10D1C00084B2231E04D1FEF7A9FE231C00E0042331
:10D1D000181C0CBC90469946F8BDC046C046C046D7
:10D1E000E880000000000000FFFF00002052002047
:10D1F0000C310020C046C046F0B5474680B4041C40
:10D20000FEF7E0FD0823364A904261D02378FF2BD9
:10D2100008D1344D2E78281C211C052207F063FD0F
:10D220002E7004E02F48211C052207F05CFDFEF75C
:10D230006DFE00283ED12C4B1868420C5968C9037A
:10D240001143C003254B244A06F020FE041C0D1C8C
:10D2500025498846214F204E02E0192006F00EFD98
:10D26000FEF754FE002813D142461068430C526862
:10D27000D1031943C003321C3B1C06F007FE001B00
:10D28000A941002902D1E8D1C728E6D904231FE02B
:10D29000154B1868420C5968C9031143C0030F4B62
:10D2A0000D4A06F0F3FD001BA94100290FD101D161
:10D2B000C7280CD80D48022105220A4B06F0A0FC15
:10D2C00084B2231E04D1FEF729FE231C00E00423B0
:10D2D000181C04BC9046F0BDE8800000000000006F
:10D2E000FFFF000004310020205200200C310020FC
:10D2F000F8B54F464646C0B48146FEF763FD0823A5
:10D30000314A904254D0FEF701FE002842D12F4B03
:10D310001868420C5968C9031143C003294B284AB5
:10D3200006F0B4FD041C0D1C28488046254F244EF1
:10D3300002E0192006F0A2FCFEF7E8FD002815D156
:10D3400041460A68530C4868C1031943D003321C94
:10D350003B1C06F09BFD021C0B1C121BAB41002B5F
:10D3600002D1E6D1C72AE4D9042321E0174B18687B
:10D37000420C5968C9031143C003124B104A06F00E
:10D3800085FD021C0B1C121BAB41002B0FD101D1E0
:10D39000C72A0CD80E48012102224B4606F030FC69
:10D3A00084B2231E04D1FEF7B9FD231C00E0042340
:10D3B000181C0CBC90469946F8BDC046C046C046F5
:10D3C000E880000000000000FFFF00002052002065
:10D3D0000C310020C046C04622DF704723DF704773
:10D3E000F0B54F464646C0B4404AA023DB00D058B3
:10D3F00084460021D150A023DB05E622D2009958B3
:10D4000089463B4999503B4A985880469950A122F9
:10D41000D20080218901995080214901995004202E
:10D420000138C046C046C046C046C046C046C04699
:10D43000C046C046C046C046C046F1D1A223DB006C
:10D44000A022D205D358990407D5A223DB00A0223D
:10D45000D205D3580120DA0435D41222A023DB05EB
:10D46000254F80214901A126F600A225ED00802448
:10D47000A401D95104200138C046C046C046C04668
:10D48000C046C046C046C046C046C046C046C0466C
:10D49000F1D1995104200138C046C046C046C0466B
:10D4A000C046C046C046C046C046C046C046C0464C
:10D4B000F1D15859204203D1013A002AD9D101E0D3
:10D4C000012000E00020A023DB05E622D20049462F
:10D4D0009950084A41469950A023DB00034A61460F
:10D4E000D1500CBC90469946F0BDC046003000407B
:10D4F0000D060000340700000C05000010B5114BAC
:10D50000B122D200985001229A6000208221490065
:10D5100058505A61191C822252008B58002BFCD0A3
:10D52000084B0022822149005A50074958580224CA
:10D530005C50922149005A5040080123584018403D
:10D5400010BDC04600300040C404000008B5A02350
:10D55000DB05184AE621C9005A5017495A50174BA3
:10D560000022842149005A508E2149005A500C2132
:10D57000A122D20099500D21114A9950CC21490481
:10D58000104A995000201049104AFFF727FF002346
:10D5900000280DD10120FFF71FFF0023002807D12D
:10D5A0000521A023DB00054AD150FFF719FF031C1A
:10D5B000181C08BD0C0600003407000000300040B5
:10D5C0000C05000024050000383100401C300040EC
:10D5D00030B507291CD80124231C8B4019020823CD
:10D5E000184308430B4B0C4D5851A021C9005C5007
:10D5F000002A0DD0C122920001219950074B985862
:10D600000002000A8021C9050143995080221A6056
:10D6100030BDC046007000400405000000E100E09D
:10D62000054B1A21054A9950802205498A5001214B
:10D63000A022D200995070470070004004050000FD
:10D6400000E100E00122084B1A60191C8022520000
:10D650008B58002BFCD0044B0021802252009950A3
:10D66000A122D200985870470070004008B5FFF71B
:10D67000E9FFE1231B015843800A08BD2EDF7047F4
:10D6800033DF704721DF704723DF704710B5041E7A
:10D690000F2C08D8C0B2FFF7F7FF0120A040FFF71A
:10D6A000F1FF201C01E00120404210BDF8B55F46AB
:10D6B00056464D464446F0B40378013B022B00D950
:10D6C000A0E0437B042B00D99FE09B00634AD35822
:10D6D0009F460921A223DB00614AD1506422614B9D
:10D6E0001A6023E00821A223DB005D4AD150FF220B
:10D6F0005C4B1A601AE00521A223DB00584AD15086
:10D70000FA229200574B1A6010E00221A223DB009C
:10D71000534AD1506422534B1A6007E00021A223E0
:10D72000DB004F4AD150FF224E4B1A6006784E4B19
:10D730001E60002E6CD0021C00234C498A46A0219A
:10D74000C90589460324A046494DAC469B465478FA
:10D75000990055464C51C134FF34A40045464F460C
:10D76000E5515C466746CC51917A424D595501339B
:10D7700001329E42EBD83A4B0122DA600022A1210D
:10D78000C9005A5037490C6864003B495C503B491A
:10D790005A500824802189005C50A62149005A5023
:10D7A000A42149005A50A22149005A50A021490001
:10D7B0005A50051C002300242E4FB9463049884694
:10D7C0004A46A75CBF002F497F1828799B002E4A44
:10D7D00099183A1CFFF75AFF687941463A1CFFF73F
:10D7E00055FF0134231C0235A642E9D80A20032143
:10D7F000FFF746FF0A20FFF741FF0122184B1A608E
:10D80000002024E00120404221E0012040421EE0AF
:10D81000134B0122DA600022A121C9005A5011499C
:10D82000086840001449585014495A500820802173
:10D8300089005850A62149005A50A42149005A5045
:10D84000A22149005A50A02149005A50CEE73CBCC1
:10D8500090469946A246AB46F8BDC046DC7B020026
:10D8600000A00040B43200208C3200209C32002006
:10D87000A8320020883200204C050000040500007A
:10D880004CA100400060004040A1004080000E4BD1
:10D89000C1500E4B0021A622520099500C49802203
:10D8A00092009950C12292009B581A0307D4074B4B
:10D8B00001225A6080210903C1229200995001225D
:10D8C000024B1A607047C0469032002000A0004012
:10D8D00008080000F0B5454A0023A621490053502E
:10D8E00001204042C22189005050414A1360414BFF
:10D8F0001B68002B72D000233F4D404E141C9A0031
:10D900005259002A15D13E4AD75C4537FF37BF0030
:10D910003C493D4AB9509B003C4A9A580127391C62
:10D9200091403B4AA027FF05B9500027394A9F5034
:10D930004CE03068824216D33149CF5C4537FF371F
:10D94000BF003049304AB9509B00304A9A580127ED
:10D95000391C9140A122D200A027FF05B950002711
:10D960002C4A9F5032E05100A82040001A18920023
:10D970001E4FD1519A0027495258002A26D1204AD9
:10D98000D75C9B0021481A580123181C9040A12302
:10D99000DB00A021C905C850BB001B495B181E490C
:10D9A000A227FF00D951C046C046C04601271F60CC
:10D9B00012021A4F3A43A227FF00DA51C046C0466E
:10D9C000C04622689300012212481A50084A136880
:10D9D00001331360074A12689A4290D8034B08211A
:10D9E00080229200995001221A60F0BD00A00040F0
:10D9F000843200208C32002090320020B43200208B
:10DA000088320020001F0300006000409C3200208C
:10DA10000C050000A8320020031F010003001300C2
:10DA200010B5074C0123A122D200A350054AA350F0
:10DA3000C003FA21890006F079F9034BE05010BDCC
:10DA4000000001400C050000040500000122014B0C
:10DA50001A607047000001400249C023DB00024AFF
:10DA6000D15070473546526E0000014070B5061C1B
:10DA70000A1C0020002910D0084B9D881C1C2389FB
:10DA8000EB1A9BB29A42FAD8054C10258023E55038
:10DA90000248311C00F0EAFA256070BD942900208C
:10DAA00000E100E038B5044C10258023E550034820
:10DAB00000F0F6FA256038BD00E100E0942900206E
:10DAC000014B188980B270479429002000B583B0BB
:10DAD0006B46D8710733181C0121FFF7C7FF0028D8
