:020000021000EC
:108000000080002035480200994802009B48020089
:108010000000000000000000000000000000000060
:108020000000000000000000000000009D48020069
:1080300000000000000000009F480200A14802006C
:10804000A3480200A3480200E10D0200A348020079
:10805000ADE401000000000095FF0100A34802000C
:10806000A3480200A34802002DE20100A348020039
:10807000A3480200A3480200A3480200A34802004C
:10808000A34802006D030200A3480200A3480200B7
:10809000A50402000D3B0200C9120200A348020021
:1080A000A3480200A34802000000000000000000F6
:1080B00000000000000000000000000000000000C0
:1080C000164B002B00D1144B9D46402292029A1A67
:1080D000924600218B460F461348144A121A0CF0A0
:1080E000CEFF0F4B002B00D098470E4B002B00D03B
:1080F00098470020002104000D000D48002802D000
:108100000C4800E000BF0CF013FF2000290006F02F
:10811000E7FE0CF099FCC04600000800008000203B
:108120000000000000000000602A002054540020DD
:10813000000000000000000030B583B0041C0D1CDE
:10814000019001A900220DF0C3FB019BA34206D0C0
:108150001A780023002A03D12860012300E00023BD
:10816000181C03B030BDC04630B583B0041C0D1CD4
:10817000019001A900220DF035FC019BA34206D01D
:108180001A780023002A03D12860012300E000238D
:10819000181C03B030BDC04610B582B00C1C01A93C
:1081A000FFF7CAFF002805D0019BFF2B01D82370E1
:1081B00000E0002002B010BD10B582B00C1C01A977
:1081C000FFF7BAFF002807D0019B1A1C8032FF2A54
:1081D00001D8237000E0002002B010BD10B582B0BD
:1081E0000C1C01A9FFF7A8FF002806D0019B044A38
:1081F000934201D8238000E0002002B010BDC046A9
:10820000FFFF0000F0B583B0041C0D1C171C0378A1
:10821000202B03D101342378202BFBD0201C01A973
:1082200010220DF055FB019BA34221D91C1B022CEF
:1082300020DC6E1C28701A782D2A1DD1012F22D91E
:10824000012508E030700135EDB21A782D2A14D1DD
:108250000136BD4217D05C1C201C01A910220DF074
:1082600037FB019BA34208D91C1B022CEADD04E06A
:10827000002502E0002500E001251878434258411E
:108280004042284000E0002003B0F0BDF0B55F465A
:1082900056464D464446F0B487B0041C9046002A2A
:1082A00000D1D3E0002800D1D2E00D1C00266F4899
:1082B0008146201C2C210DF0F3F9002803D0471C27
:1082C0000023037000E0071C2378002B00D1B4E0EA
:1082D000AA462A78092A00D9BCE0920049468A5861
:1082E0009746202B03D101342378202BFBD0524614
:1082F00053681C60A1E06A78201C6968FFF782FF60
:10830000031C6B7000D098E0A9E0201C04A9FFF7C3
:1083100013FF002800D1A2E0554B049A9A4203D1E2
:10832000201C04A9FFF720FF5346586804A9042223
:108330000CF083FE81E0201C04A9FFF715FF002844
:1083400000D18CE0686804A904220CF076FE74E089
:108350006968201CFFF742FF00286ED17FE0696842
:10836000201CFFF719FF002867D178E06968201CFE
:10837000FFF722FF002860D171E0201C6968FFF739
:10838000DBFE002859D12378202B03D10134237838
:10839000202BFBD053465A78201C996807F038FDF3
:1083A0000490002801DA002059E05146486804A9E9
:1083B00004220CF042FE40E0201C6968FFF7ECFE4E
:1083C00000283AD104AB2B4905C905C32378202BDB
:1083D00003D101342378202BFBD0201C04A90222D6
:1083E00007F016FD0390002801DA002037E053461D
:1083F000586803A901220CF020FE1EE01E48006808
:10840000C3185B78590716D4201C07F0EBFCAA6848
:108410009346201C0DF062F9021C5846211C07F0FF
:108420002BFC0490154B984205D068686A7804A923
:108430000CF003FE01E0002011E00136F6B24645E3
:108440000AD00C35002F09D03C1C32E7002006E092
:10845000002004E0002002E0301C00E0301C07B0E7
:108460003CBC90469946A246AB46F0BDC0700200A7
:10847000FFFFFF7FE8700200F8290020DFFDEF7E9C
:10848000F8B5051C0E1C171C0A7808490CF03CFBBB
:10849000012F0AD9741CF719054E2278281C311CAB
:1084A0000CF032FB0134BC42F7D1F8BDF070020091
:1084B000F8700200F0B5474680B4141C002922D1A0
:1084C000144B1B689A4220D01348111C0CF0B4FBCB
:1084D000124B1D1D1933FF339846114F114E381C96
:1084E000211C0CF0A9FB301C211C0CF0A5FB01CDBC
:1084F000211C0CF0A1FB4545F1D10B48211C0CF0CF
:108500009BFB002002E0094800E0094804BC9046BB
:10851000F0BDC0465840002004710200DC74020027
:10852000087102000C710200B87B0200628000003A
:108530006380000010B5054C201C002180225200F1
:108540000CF09DFD024B1C6010BDC0466C2A002043
:10855000602A0020F0B5474680B4071C88464C4985
:108560000DF0AAF8002831D03B78002B13D03D2B1A
:1085700011D03A1C474D03242868C1184878204080
:10858000191C022800D12039117001321378002BF8
:1085900001D03D2BF0D1381C0DF0A0F8012805D9F1
:1085A0003B78412B02D17B78542B05D03A48414689
:1085B0000CF042FB394868E0BB780237002B05D14C
:1085C000374841460CF038FB00205EE0354E002471
:1085D0003568281C0DF082F8021C381C291C0DF08F
:1085E000A9F8002805D00134E4B20436462CEFD1B6
:1085F00001E0462C05D1284841460CF01DFB2A48D5
:1086000043E0251CA400274BE0580DF067F8FF233A
:1086100018403F18381C25490DF04EF8002805D1A8
:108620001F4841460CF008FB00202EE0381C204972
:108630000DF042F8002802D1013701210EE03B780D
:108640003D2B02D10137022108E00021002B05D08B
:10865000114841460CF0F0FA134816E0AD00154BF6
:10866000EB58381C42469847041C134B1B78002BD0
:1086700007D1002801D10A4800E0074841460CF024
:10868000DBFA00220C4B1A70201C04BC9046F0BD93
:1086900004710200F82900201871020060800000B7
:1086A00010710200DC740200618000002071020081
:1086B00024710200F47502006C2B0020F8B54F46BF
:1086C0004646C0B4041C514B1B68C31A5A4253415E
:1086D000DBB298469B004E4FFF18381C0CF0FEFF93
:1086E0008146C6B2201C311C06F0AAFE051C431CA4
:1086F00003D1731E9E41F0B284E00D2801D00A28F8
:1087000061D1381C43490CF0D7FF00285BD1042508
:108710006368013B6360002B05DA3F4A1068211C47
:108720000CF036FE02E0236801332360013DEDB218
:10873000002DEDD101200CF05DF8201C002106F089
:108740007FFE0D2801D00A280DD16368013B6360CC
:10875000002B05DA304B1868211C0CF019FE02E0E2
:108760002368013323604346002B0FD004F060FEE2
:10877000264C256804F056FE021C281C27490CF0E4
:10878000C3F9216826480CF057FA15E003F024F8E5
:108790000123181AC0B203F025F81F4C23689D6806
:1087A00003F01AF8021C281C1C490CF0ADF92368D0
:1087B00099681B480CF040FA381C002104220CF088
:1087C0005EFC01201EE02B2D13D1002E0AD0022EBC
:1087D00012D8FF224B461A40381C12490CF01EFCDE
:1087E000002809D1FF234A4613402B22FA540120C6
:1087F00008E00020002E05D0381C002104220CF0D7
:108800003EFC00200CBC90469946F8BD5840002024
:10881000642A0020047102005C2A002028710200F2
:108820001071020030710200F0B54F4680B4051C93
:108830000F1C574E0136FF3692E00A2C04D00D2C47
:1088400002D0082C58D140E0524B1A68504B9A4243
:1088500000D885E0504B1B689B689F4207D14F4B67
:108860001B7A002B03D04E48391C0CF0E5F9494B1C
:10887000002219680A70464C1C60201C391CFFF746
:1088800069FE8146201C47490CF016FF002867D17D
:108890004A46002A64D101200BF0ACFF281C0021BD
:1088A00006F0CEFD0D2801D00A2859D16B68013B96
:1088B0006B60002B05DA384B1868291C0CF068FD3A
:1088C0004EE02B6801332B604AE0324B1A68304B84
:1088D0009A4245D9304B1B689B689F4207D12F4B6A
:1088E0001B7A002B03D03048391C0CF0A5F9294B1A
:1088F0001A68013A1A6033E0264B1B68B3422FD244
:10890000254B186883689F4225D1244B1B7A002B86
:1089100021D0BB68013BBB60002B17DAB9698B42E1
:108920000FDB3A6814703B681A780A2A02D00133C8
:108930003B6010E0184B18680A213A1C0DF0BEFF8E
:1089400009E0211C3A1C0DF0B9FF04E03B681C70E3
:108950003B6801333B600F4A1368591C11601C705F
:108960006B68013B6B60002B06DA0B490868291C19
:108970000CF00EFD041C03E02B68581C28601C78CA
:10898000621C00D059E7002004BC9146F0BDC046EF
:108990006C2A0020602A00205C2A00205C4C002009
:1089A000B87B0200047102003471020008B5011C9A
:1089B0000122034B1A7003480CF03EF908BDC04673
:1089C0006C2B00201071020000B585B001290AD877
:1089D000194B1B7D5B07DB0F101C18491A1C0CF090
:1089E00093F8002026E06A460023D3730F320093E9
:1089F0000293082369460B7001920122FFF746FC9F
:108A0000012816D16B460F331B780B4A127D520793
:108A1000D20F00209A420DD0074A01210B40990045
:108A2000137D042083430B43137506F035FB0020B0
:108A300000E0034805B000BD5C4C00202871020036
:108A40006280000000B585B0022913D10023009395
:108A5000029305236A4613706B460F3301936946F0
:108A60000122FFF713FC012806D16B46D87B04F0E6
:108A700007FE02E0024800E0014805B000BDC04624
:108A80006280000071DF704776DF704777DF7047E4
:108A900000B583B0012902D902290AD040E0224B57
:108AA000DB7A5BB2101C21491A1C0CF02DF8002057
:108AB00037E001235B4201931D4901AA0CF05CFDE4
:108AC000002829D001982023021C9A43131C283324
:108AD0000DD01023021C9A43131C143307D0042317
:108AE000021C9A43131C103201D0002B16D140B245
:108AF000FFF7CCFF83B2181E13D10B4B019ADA7229
:108B000006F0CAFA03F0E0FB0A4B984202D10020BB
:108B100003F0BAF8002004E0074802E0064800E04D
:108B2000054803B000BDC0465C4C0020287102001F
:108B30000C770200FFFF00006280000030B587B0B4
:108B4000151C012913D804AC201CFFF79BFFA27948
:108B5000637921790091E1780191A178029161789E
:108B60000391281C03490BF0CFFF002000E00248CE
:108B700007B030BD107702006280000010B5141CF1
:108B800001290FD8A02380225205D35801221A4070
:108B9000201C05490BF0B8FF0448211C0CF04CF8D0
:108BA000002000E0024810BD30770200B87B0200D0
:108BB0006280000030B587B0141C012916D804A8C3
:108BC00003F020FC051C002D11D104A98A794B79F2
:108BD00008790090C87801908878029049780391CC
:108BE000201C04490BF090FF281C00E0024807B04D
:108BF00030BDC046107702006280000070B58AB0B8
:108C0000041C022900D09CE004A8002115220CF0CD
:108C100036FA201C2C210CF043FD002803D0451C03
:108C20000023037000E0051C201C69460E31FFF78D
:108C3000D5FA002800D186E06B46D9898223474ABD
:108C4000D152281C2C210CF02BFD002803D0441CF1
:108C50000023037000E0041C281C04A91022FFF765
:108C6000D1FA102871D1201C2C210CF019FD061E00
:108C700002D0002303700136201C08A9FFF7AEFACA
:108C8000002864D004AB1A8A52BA04AB1A82301C92
:108C90002C210CF005FD051E02D0002303700135C8
:108CA000301C69462231FFF799FA002851D004ABF5
:108CB0005A8A52BA04AB5A82281C2C210CF0F0FCC0
:108CC000041E02D0002303700134281C244902AA88
:108CD0000CF052FC00283ED004AB02981875002C12
:108CE0000FD000230193201C01A9FFF725FA0028CB
:108CF00002D0019B012B01D91A482DE04A221749C5
:108D00008B54164904AA0B1C6C3331CA31C330CAC8
:108D100030C312781A7001224923CA5406F0BCF9F4
:108D200003F0D2FA104B984206D003F0CDFA13218B
:108D3000FFF7AAFE00200FE0002002F0A5FF0020B0
:108D40000AE0084808E0074806E0064804E005484D
:108D500002E0044800E003480AB070BD5C4C00200B
:108D60003477020062800000FFFF000010B5141C81
:108D7000012913D803F0A8FA0022094B984202D027
:108D800003F0A8FA021C52B2201C06490BF0BCFEEC
:108D90000548211C0BF050FF002000E0034810BDE7
:108DA000FFFF00000C770200B87B02006280000029
:108DB00010B584B0012902D902290CD03EE0214B24
:108DC0001B7DDB07DB0FDBB2101C1F491A1C0BF0ED
:108DD0009BFE002033E06A460023D370033201A9D2
:108DE00001938B6008230B704A600122FFF74EFA53
:108DF000012801D0154822E06B4603331B78114A45
:108E0000127DD207D20FD2B29A4215D00D4A01205C
:108E10001840117D0124A14301431175002B03D09B
:108E200004214923D15405E000214923054AD154A6
:108E300003F0D8FA06F030F9002000E0034804B04F
:108E400010BDC0465C4C002028710200628000000A
:108E500010B582B0041C02291CD1124B1B7DDA070D
:108E60001AD503F031FA031C08200F4A934216D09A
:108E70006846002108220CF002F9201C69460822ED
:108E8000FFF7C0F9431EDBB2072B07D8684604F092
:108E9000FBFD04E0054802E0054800E0034802B09D
:108EA00010BDC0465C4C0020FFFF00006280000047
:108EB00063800000F0B557464E464546E0B48AB0A0
:108EC000041C022968D13A4B1B7DD80766D523784C
:108ED000002B65D0101CFFF769FD04A9354A0B1C57
:108EE00061CA61C322CA22C312881A80324B1E682B
:108EF00002969A8802AB9A80304B186800909B8843
:108F000069468B80201C2E490CF0D6FB434243411E
:108F1000E41802AA92462B4B99460325A84635E051
:108F200066785C2D0BD15046311C0CF0B9FB002843
:108F300005D05646801B69460D5CA71CA6784A469C
:108F4000126853195B78404603400221012B07D079
:108F500004A8291C0CF0A4FB011C481E81414900F7
:108F6000281C04F015FD00281BD10F200BF042FC3B
:108F7000AE4201D0002E08D10020002104F008FDEF
:108F800000280ED10F200BF035FC3C1C671C257807
:108F9000002DC5D1002004E00B4802E00B4800E0A2
:108FA00009480AB01CBC90469946A246F0BDC0468E
:108FB0005C4C002060770200787702008077020026
:108FC0005C770200F82900206280000063800000C6
:108FD00010B588B0041C02293CD1224B1B7DDA0756
:108FE0003AD503F071F9021C08201F4B9A4236D083
:108FF00007A900230B800F230693201CFFF7EEF830
:10900000002819D1002300930393059309236A468E
:1090100013700223537007AA0192144A02926A46FF
:10902000137306AB0493201C69460222FFF72EF946
:10903000431EDBB2012B11D807AC201C04F00CFE40
:1090400006980BF0D7FB00232380201C04F004FEBD
:10905000002004E0064802E0064800E0044808B0AA
:1090600010BDC0465C4C0020FFFF0000A479020048
:10907000628000006380000000B58FB0022925D116
:109080000CAA00230C931371FF211170009302931B
:10909000039305930693089309930B93062369465C
:1090A0000B70013201920B73013204920B76013284
:1090B000079224228B540DAB0A930422FFF7E6F8A3
:1090C0000138C0B2032803D9044804E0034802E091
:1090D0000CA804F045FD0FB000BDC0466280000042
:1090E000F0B5474680B492B0022900D0EFE00EA957
:1090F0007E4B0A1C70CB70C21B6813600CAD002243
:109100000C922A710B926C460F2363852A3401ABB3
:109110000192039204920792099205221A70029515
:1091200007221A7304225A730BAD059506911A761D
:10913000089403786E4A1268D3185B78590774D480
:109140000023009301A90B7000AA4A600322FFF7D5
:109150009DF8031C0138C0B2022800D8BBE062E0D1
:109160000B9B032B5FD1009800286CD00CF0B6FA53
:10917000052858D800245E4E03275E4DA84614E00B
:109180000098021913783068C11848783840191CC3
:10919000022800D120391170009A515D40460CF030
:1091A0007FFA00283FD00134E4B2251C00980CF06F
:1091B00095FA8442E4D300984C210CF071FA00280F
:1091C00004D00CAB197801220A431A70009852217E
:1091D0000CF066FA002804D00CAB197802220A437E
:1091E0001A7000984D210CF05BFA002804D00CABEB
:1091F000197804220A431A70009842210CF050FAA0
:10920000002804D00CAB197808220A431A70009881
:1092100046210CF045FA002815D00CAB1978102225
:109220000A431A700FE034485CE001A90322FFF7FB
:109230002DF8031C0138C0B2022850D92E4851E045
:109240000B9B032B45D10CA804F08AFC031C002BBC
:1092500048D10CAB1C780020002C43D00B9B022B78
:109260000DD0032B29D00020012B3BD10F200BF078
:10927000C1FA0CA80023037004F072FC32E00F2046
:109280000BF0B8FA0CA80023037004F069FC031C6F
:10929000002B27D10F200BF0ADFA0CA8047004F0BE
:1092A0005FFC031C002B1DD10F200BF0A3FA0CA8B0
:1092B0000023037004F054FC14E06B46588D0BF04F
:1092C00099FA0CA80023037004F04AFC0AE00A484B
:1092D00008E0094806E0032B00D044E740E7032BF1
:1092E000B1D1ADE712B004BC9046F0BD4C7702009E
:1092F000F8290020887702006280000010B584B051
:10930000012902D902290BD03DE0204B1B7D9B0790
:10931000DB0F101C1E491A1C0BF0F6FB002033E07B
:109320006A460023D370033201A901938B6008239E
:109330000B704A600122FEF7A9FF012801D01548F1
:1093400022E06B4603331B78104A127D9207D20F3E
:109350009A4216D00D4A012018404000117D022487
:10936000A14301431175002B03D005214923D1549A
:1093700005E000214923054AD15403F033F805F0F4
:109380008BFE002000E0034804B010BD5C4C0020C0
:10939000287102006280000010B586B0041C02290A
:1093A00033D102F0A7FE031C0820DA0734D502F0FF
:1093B0008BFF021C08201C4B9A422DD0201C6946B2
:1093C00006311422FEF71EFF041CC31EDBB20F2B56
:1093D0001FD9164820E0164B18685968114B104ADF
:1093E0000BF010FB4904C00B0843C204920E80230B
:1093F0005B421A437F210840034301A80270437077
:10940000A11CC9B203F05CFD06E0084804E007486F
:1094100002E0C307FBD5DEE706B010BDC046C0467C
:10942000E880000000000000FFFF000062800000F4
:1094300048540020C046C04670B582B0141C0029B4
:109440003ED102F057FE031C0820DA0739D56946E1
:10945000073100230B701C4805F086FA031C00201E
:10946000002B2ED06B4607331B78002B29D01648D3
:10947000694605F079FA002823D0201C1349009A88
:109480000BF042FB6B46DA79013ADA7107331D1CA7
:109490000D4E0AE0301C694605F066FA002804D03B
:1094A000201C0B49009A0BF02FFB2B785A1E2A70B8
:1094B000002BEFD10748211C0BF0BEFB002000E081
:1094C000054802B070BDC04668290020AC79020092
:1094D000B4790200B87B02006280000070B582B0EF
:1094E000141C00292BD102F005FE031C0820DA070A
:1094F00028D56946073100230B70134805F034FA6C
:10950000031C0020002B1DD06B4607331B78002B5B
:1095100018D0013B6A46D37107320B4E151C301C24
:10952000694605F021FA002803D00098211C0BF0B1
:1095300023FB2B785A1E2A70002BF0D101E0034840
:1095400000E0002002B070BD6829002062800000A9
:1095500010B5041C02291DD102F0CCFD031C08200B
:10956000DA0718D502F0B0FE031C08200A4A93421D
:1095700011D0201C09490CF09FF843424341E418E4
:10958000201C06F0E9FB064B1968201C0BF054FB6D
:10959000002000E0034810BDFFFF00005C770200E0
:1095A000584000206280000070B5141C002933D19F
:1095B00002F0A0FD031C0820DA0730D5184B19680B
:1095C0004B68013B4B60002B04DA164B18680BF01C
:1095D000DFFE03E00B685A1C0A601878431C1DD09C
:1095E0000F4E104D211C0BF0C7FA33685A68013A30
:1095F0005A60002A04DA2868191C0BF0C9FE03E03F
:109600001A68511C19601078421CEBD10648211CC5
:109610000BF012FB002002E0044800E0002070BDC7
:10962000584000205C2A0020B87B020062800000C5
:10963000F8B5071C0D1C161C02F05CFD041C08206C
:10964000E30741D5002D2FD0022D16D11BE0381C89
:109650001E490CF007F8002811D18022D200521BBD
:1096600092B2002A0DDB301C19490BF04DFA194853
:10967000311C0BF0E1FA002026E0174824E01648E0
:1096800022E0154820E003F0FFFD8024E400241AC6
:10969000A4B203F0F3FD051C381C10490BF0E2FFE7
:1096A000221C0028DDD0D2E703F0EEFD041C03F0FD
:1096B000E5FD8023DB001C1BA2B21B1A9BB2301CF1
:1096C00007490BF021FAD2E7F8BDC046A8740200A2
:1096D00034770200B87B0200628000008C740200C4
:1096E000D4790200F0B557464E464546E0B484B002
:1096F000061C0D1C171C1C1C274B1B68984203D111
:10970000231C5343102B40DC02AA24490B6802930C
:109710008B8893807B00303393701020391C0BF0C2
:109720000FF9A046002C2ADD0024FF2303409946B0
:109730001B4B9A4600230193201C49460BF056F917
:1097400000290AD1002C03D01648311C0BF074FA02
:10975000301C51462A1C0BF0D7F901A8291C3A1CD1
:109760000BF06BFCED192020311C0BF005FA301CBE
:1097700002A9019A0BF0C8F901344445DADB094823
:10978000311C0BF059FA002000E0074804B01CBC63
:1097900090469946A246F0BD58400020C879020084
:1097A000BC790200B87B020063800000F0B587B08E
:1097B000141C022932D1002305930493039303ABB5
:1097C00000931D4905AA04AB0BF0D6FE032827D150
:1097D000059D002D26D0049A002A25DD039E002E2B
:1097E00024DD531E012B01D9042A21D1D7B2391C03
:1097F000042F00D90421C9B2281C0BF097F80029C6
:1098000005D00E48211C0BF017FA0D4811E0B3B239
:10981000201C291C3A1CFFF765FF0AE0084808E0F5
:10982000074806E0064804E0054802E0044800E076
:10983000034807B0F0BDC046D0790200DC790200D1
:109840006280000008B5022907D0101C04490122DB
:10985000FD23DB00FFF746FF00E0024808BDC046DD
:109860005C4C00206280000038B501291DD8114BE6
:109870001968114B994209D104230F4C80252D0101
:109880000C4819180968A1420BD000E00023802180
:109890000901CB1A101C09491A1C0BF035F90020DC
:1098A00006E00433AB42EBD101E0054800E00320C1
:1098B00038BDC046007800200DF0FECAF0790200E5
:1098C0006280000008B5002907D1101C0449042259
:1098D00080239B00FFF706FF00E0024808BDC0465A
:1098E0000078002062800000F0B5474680B4071C75
:1098F00000240D4EA3B29846A3009D59281C0BF0DE
:10990000EDFE021C281C391C0BF088FB002803D03C
:109910000134052CEED101E0404600E0034800B2DE
:1099200004BC9046F0BDC046F8790200FFFF00007D
:10993000F8B5061C0F1C084D0024301C29680BF0DC
:1099400023FF002801D03C7005E00134E4B2043567
:109950000E2CF2D10020F8BDF87A0200F0B55F4677
:1099600056464D464446F0B493B0141C1D1C0129C4
:1099700031D8714DA623EA5C9200704BD058211C5F
:109980000BF05AF9A523EB5C012B1ED901256A4F78
:109990006B4E6C4A90467B19A03398793268131845
:1099A0005B786822934303D0211C0BF0E5F805E0B7
:1099B00080004346C058211C0BF03EF90135EDB242
:1099C000A5235D4AD35CAB42E5D85F48211C0BF070
:1099D00033F90020A8E0022900D0A0E00023119371
:1099E000109306A906938B60CB604B618B610B6271
:1099F00011AB4B6002230B7310AB0B6106230B768C
:109A00006B463F33CB610322FEF740FC80460138B2
:109A1000C0B2022800D984E01198FFF765FF002842
:109A200005DA4A48211C0BF007F949487CE001ABF4
:109A30001870119E8000414BC0580BF04FFE30183B
:109A400011900378002B44D00127122293466946D7
:109A50000331FFF76DFF8146002803D0119BC61A22
:109A6000F6B203E011980BF039FEC6B24B465A1E0F
:109A70009341DBB29946FB185A46D31A9E4205DD44
:109A80003448211C0BF0D8F809204DE001ABD8195F
:109A90001199321C0BF0D1FA119A92199246119237
:109AA000F619F6B24B46002B0DD0731CDFB26A4696
:109AB000D37801AA93559B00224A98580BF00EFECA
:109AC0005044119000E0371C11980378002BBED150
:109AD00000E001274346012B05D9109B012B22D81A
:109AE0004A2215498B544246022A05D96B463F3318
:109AF00019789F23104AD15401A8391C03F028F883
:109B0000041C002C10D10C4B0321492299549E2295
:109B10009D5405F0C1FA02F075F9201C04E00C48D0
:109B200002E00B4800E00A4813B03CBC904699465E
:109B3000A246AB46F0BDC0465C4C0020F87902005E
:109B4000F8290020F87A0200B87B02000C7A0200A3
:109B500062800000387A020008B50023FFF7FEFE9D
:109B600008BDC04608B50123FFF7F8FE08BDC04692
:109B700010B584B049231C4CE35C033B5C42634159
:109B8000DCB2012906D8101C1849221C0AF0BCFFBF
:109B9000002027E0022920D16A460023D3730F3228
:109BA00000930293082369460B7001920122FEF78D
:109BB0006DFB012813D16B460F331B78A34210D0E5
:109BC0000022002B00D0032249230749CA5405F084
:109BD00063FA02F017F9002004E0054802E00448A7
:109BE00000E0002004B010BD5C4C00202871020091
:109BF0006280000000B585B001290AD8194B1B7D91
:109C00001B07DB0F101C18491A1C0AF07DFF0020EF
:109C100026E06A460023D3730F3200930293082391
:109C200069460B7001920122FEF730FB012816D124
:109C30006B460F331B780B4A127D1207D20F0020A0
:109C40009A420DD0074A01210B40D900137D08200C
:109C500083430B43137505F01FFA002000E003480F
:109C600005B000BD5C4C002028710200628000003D
:109C700000B585B0174B1B7D1A0725D5002902D0EA
:109C8000022903D022E0B423039312E000230093BF
:109C9000029302236A46137003AB019369460122C3
:109CA000FEF7F4FA012802D1039B002B01DC0A48DD
:109CB0000DE0039802F06CFF03214923054AD154BB
:109CC00002F0A0F8002002E0044800E0024805B0DD
:109CD00000BDC0465C4C0020628000006380000034
:109CE00074DF704776DF70477CDF704730B583B034
:109CF000031C141C012902D9022909D030E01A489A
:109D0000111C0AF099FF1948211C0AF095FF25E063
:109D1000154D281C191C1F220BF022FD05F0BCF963
:109D200001AC23780F229343012213430F221340E7
:109D3000102213432370281C0BF0D0FC82B2201C8D
:109D4000291CFFF7D1FF83B2181E0AD102F0BCFA1A
:109D5000074B984202D1002001F096FF002000E05E
:109D6000044803B030BDC046A84C0020B87B0200B8
:109D7000FFFF00006280000010B5141C012910D8FC
:109D800002F0A2FA084A8318584243413120C01A0F
:109D9000211C0AF0F1FE0548211C0AF04DFF0020AD
:109DA00000E0034810BDC0460100FFFFB87B020081
:109DB0006280000008B500290DD102F085FA021C6E
:109DC0000020064B9A4207D002F07EFA1321FFF7DB
:109DD00089FF80B200E0024808BDC046FFFF0000D6
:109DE0006280000008B5002902D102F0FBFA00E011
:109DF000004808BD62800000F0B587B0061C0C1C4E
:109E0000151C02A8334910220BF017F9012C02D9B6
:109E1000022C1FD052E0012600242F4F02E0013413
:109E20000136F6B2E3B2002B4AD0381C291C0AF0E6
:109E300003FFFF2222401C325200284BD25A281C1A
:109E400027490AF061FE032EE9D92648291C0AF0A9
:109E5000F3FE31E0244C6D460A35271C0837301CD0
:109E600069460A220BF034FD009E0136002807D017
:109E7000AA1E1288904221DB2A8890421EDC208094
:109E800002340435BC42EAD105F006F9134C208FA8
:109E9000800005210AF006FD6A461080608F800070
:109EA00005210AF0FFFC6B46588000236A46938028
:109EB000D380684608F04CFE002008E00B4806E01E
:109EC000064B1A8F281C06490AF01EFEA7E707B0AA
:109ED000F0BDC046307B0200087102005C4C0020DF
:109EE0000C770200B87B0200944C002062800000D6
:109EF00008B5002901D0022903D1002001F0C4FED9
:109F000000E0014808BDC0466280000008B5002995
:109F100003D1FFF7E5FE80B200E0014808BDC0466E
:109F20006280000010B582B0141C012902D90229F8
:109F30000DD024E04823134AD05C3030211C0AF0B5
:109F40001BFE1148211C0AF077FE002018E00F4983
:109F500001AA0BF011FB012802D1019B012B01D9B1
:109F60000B480DE0482207498A5C934205D05A1EEF
:109F7000934148228B5405F08FF8002000E00448FC
:109F800002B010BD5C4C0020B87B02000C770200D0
:109F90006280000030B591B0022940D100230F93B8
:109FA00001A901938B60CB604B6101230B701F23D0
:109FB0004B7007AB4B6002230B730FAB0B6102229C
:109FC000FEF764F9041C0138C0B2012829D801AB9E
:109FD0005A78164D8B23EA54281C6C3007A90BF0D5
:109FE0002CF802224923EA54022C05D10F9B012BA5
:109FF00019D84A220D498B5405F04EF802F064F945
:10A000000B4B984206D002F05FF91321FFF76AFE6E
:10A01000002009E0002001F037FE002004E00548A0
:10A0200002E0044800E0034811B030BD5C4C002061
:10A03000FFFF00006280000010B584B001290ED837
:10A0400040231E49CB5CDB07DB0FDBB20121CB1ABF
:10A05000101C1B491A1C0AF057FD00202BE06A4611
:10A060000023D3730F3200930293082369460B70C9
:10A0700001920122FEF70AF901281BD16A46D17B21
:10A0800001234B40D37340220C498A5CD207D20F84
:10A09000D2B200209A420ED0402201200340885CB8
:10A0A0000124A04303438B5404F0F6FF01F0AAFE01
:10A0B000002000E0034804B010BDC0465C4C002006
:10A0C0002871020062800000A4DF7047A5DF70479E
:10A0D000A6DF7047F8B54F464646C0B4804689466D
:10A0E000171E15DD0026002463B29B004A469D58CA
:10A0F000281C0BF0F3FA021C4046291C0BF0F6FA60
:10A10000002807D00134E4B266B2BE42ECDB01E0C5
:10A1100000260024B7420BD063B29B004A469858F1
:10A120000BF0DCFA4246135C3D2B02D0FF2400E02A
:10A13000FF2460B20CBC90469946F8BDF0B5474686
:10A1400080B486B0061C0F1C90461D1C0CAB1C78FE
:10A15000032C20D002D8002C03D143E0042C2FD0B4
:10A1600040E001A9FDF7E8FF0024002811D03D4B95
:10A17000019A9A4203D1301C01A9FDF7F5FF2C1C6E
:10A18000042D00D90424E4B2381C01A9221C0AF0D1
:10A1900054FF201C61E00BF0A1FA041CC0B2A842DD
:10A1A00000D92C1CE4B2002C03D100233B70012009
:10A1B00053E0381C311C221C0AF03FFF201C4CE0ED
:10A1C00001A92A1CFEF71EF8041E444501D385424E
:10A1D00001D2002041E0381C01A9221C0AF02DFF09
:10A1E000201C3AE0301C6946FDF7A6FF002812D07B
:10A1F0001C4B009A9A4203D1301C6946FDF7B4FF0C
:10A200002C1C042D00D90424E4B2381C6946221CFD
:10A210000AF013FF20E0301C01A92A1CFDF7F2FF11
:10A22000021C041E0AD0804501D8854201D20020BC
:10A2300013E0381C01A90AF000FF0DE0301C0BF000
:10A240004DFA041CC0B2A84200D92C1CE4B2381C40
:10A25000311C221C0AF0F1FE201C06B004BC904602
:10A26000F0BDC046FFFFFF7F10B5141C002802D0D0
:10A27000012810D01EE0081C111C1022FDF7C2FF9F
:10A28000102819D100232375A3781B02E278134309
:10A290002382002015E0131C1033081C191CFDF745
:10A2A0009DFF00280AD0238A002B09D001232375A3
:10A2B000002006E0034804E0024802E0014800E014
:10A2C000004810BD62800000F0B583B0061C1C1E63
:10A2D000032C16D0032B02D8002B03D11AE0042B39
:10A2E00015D017E00023019301A80AF0A6FE012C67
:10A2F00001D1234900E02349301C019A0AF004FCF3
:10A300003CE0081C0121331C0AF002FE36E0FEF797
:10A31000B7F833E0022A1BD90B78002B18D0171E90
:10A3200027D019480068C3185B786824A3430FD06E
:10A33000002468239C4604E045196B786546AB43CE
:10A3400006D00134A74214D90D5D002DF4D110E0E0
:10A35000042A03D9301CFEF793F80FE00023019381
:10A3600001A80AF06AFE301C0549019A0AF0CCFBEC
:10A3700004E0081C0121331C0AF0CAFD03B0F0BD43
:10A38000347702008C7B0200F829002008B50448CD
:10A390000021044A0AF073FE04F07EFE002008BD8E
:10A3A000144D00200C070000F0B557464E464546B8
:10A3B000E0B486B0041C171C022972D1B8233D4AB0
:10A3C000D35C04200A2B6FD06846002118220AF0C3
:10A3D00056FE201C2C210BF063F9002803D0451CED
:10A3E0000023037000E0051C002C38D03248804662
:10A3F000814630E001342378202BFBD0201C4146DD
:10A400000222FFF767FE061E0EDB83004A469858BD
:10A410000BF064F9F6B2411C6118301C6A46FFF774
:10A4200023FF061E08D000E0244E381C2449221CBD
:10A430000AF06AFB301C37E0281C2C210BF030F9A5
:10A44000002803D0431C0022027000E0031C002DF2
:10A4500005D02C1C1D1C2378202BCBD0CEE76E46BC
:10A46000338A002B1FD0134CB825605D8246410013
:10A470005144C9006118BC316A4649CA49C149CA38
:10A4800049C150460130605504F006FE625D381C3B
:10A490000C490AF039FB0C48391C0AF0CDFB0020AE
:10A4A00002E0064800E0054806B01CBC904699460C
:10A4B000A246F0BD5C4C0020A07C0200628000003F
:10A4C000947B02000C770200B87B0200F0B55F4677
:10A4D00056464D464446F0B491B0071C141C022960
:10A4E00000D006E1B823904AD35C0420002B00D1B1
:10A4F00013E1B923D35C1E2B00D10EE103A8002188
:10A5000034220AF0BCFD381C2C210BF0C9F80028BD
:10A5100003D0451C0023037000E0051C002F00D170
:10A52000B3E0824A90469146AAE001373B78202B5F
:10A53000FBD0381C41460722FFF7CCFD061E00DA8F
:10A5400090E083004A4698580BF0C8F8431CDB198A
:10A550009A46F3B2062B00D984E09E00744A9359C0
:10A560009F46504669460E31FDF738FE002879D0E7
:10A5700003AB5B88002B75D003AB197D1F22914381
:10A5800001220A431A75C1E0504604A91022FDF7C2
:10A5900039FE102866D103AB1A7D1F218A431A7534
:10A5A0009A791202D9790A435A80AFE05046694637
:10A5B0000B31FDF7F1FD002854D06B460B331B78AF
:10A5C000002B4FD068460D3069460B3101220AF04E
:10A5D00034FD9BE0504669462131FDF7DDFD002842
:10A5E00040D003AB5B7D013B132B3BD88EE0504644
:10A5F00069462231FDF7D0FD002833D003AB9B7DA7
:10A60000013B132B2ED881E000264A4B9B46F7B224
:10A61000B3005A46995850460BF024F8002807D149
:10A6200003AB79011A7D1F2002400A431A756DE0C1
:10A630000136052EEBD169E003AB5A7D002A60D1CB
:10A640009B7D0122002B02D1142300E0131C03AEDA
:10A65000317D49090091504609A9FFF76FFDF0755A
:10A66000002853D1201C34493A1C0AF04DFA3348D3
:10A6700053E0431C00220270002D06D02F1C1D1C2D
:10A680003B78202B00D150E753E703AB9B7D002B99
:10A6900002D103AB5A7D9A7503AB5B7D002B2AD0A8
:10A6A00003AA927D9A4228D303AB5B88002B26D065
:10A6B0001D4DB823EB5C013BDBB29846B926AF5D7C
:10A6C00034225743E819AD30FF3003A90AF0B5FC36
:10A6D000EF19AD37FF3743463B70AB5D0133AB55E8
:10A6E00004F0DAFCAA5D201C15490AF00DFA0020DE
:10A6F00013E0124811E011480FE010480DE00F4838
:10A700000BE003AB9B7D002BA1D19FE7281C2C21E4
:10A710000AF0C6FF031EAFD0ABE711B03CBC9046B9
:10A720009946A246AB46F0BD5C4C00205C7B020023
:10A73000407B0200787B0200A87B02006280000060
:10A740002871020000000000F0B5574680B48EB0BA
:10A75000041C151C022900D0EDE0894909AA0AF061
:10A760000BFF002800D1E8E0099B002B00DCE6E0AD
:10A77000B92284498A5C934200DDE2E0013B342245
:10A780005343CB18D62040001F18201C2C210AF060
:10A7900087FF00280DD1391C1831FA7D3B7D5B09FC
:10A7A000281CFFF791FD7848291C0AF045FA002083
:10A7B000DCE00378002B00D1C5E03C1C18340130EC
:10A7C0007A7DBB7D397D49090091211CFFF7B6FCDC
:10A7D0007A7D824200D9B8E0BA7D824200D2B6E0EA
:10A7E000F87504F059FC01F06FFD061CBB8D0020CC
:10A7F000834200D1BAE0654B9E4200D18BE07A786B
:10A8000030231A4200D186E004AB1880398E0CAA9E
:10A810000225158050805360301CFFF757FC7D786F
:10A82000ED06ED0F04D004AB1B88DA0700D590E0ED
:10A830007B7898066FD504AB1B889A076BD5FA7D99
:10A840006B465A8205AB9A46181C002110220AF06A
:10A8500016FCBB8D504603806B425D41013505AB54
:10A860009D706A4612320792089401F0DFFD0028BD
:10A8700040D1474B18685968404B3F4A0AF0C2F82C
:10A880004B04C40B1C43CD0B0122924602E0504600
:10A8900009F0B0FF01F0CAFD002817D13C4B186841
:10A8A0005968364B344A0AF0ADF84B04C00B1843D4
:10A8B0000290C90B0391029A039B121BAB41002B20
:10A8C00002D1E4D1C72AE2D904204FE0304B186806
:10A8D00059682A4B284A0AF095F84A049446C20B54
:10A8E00060460243CB0B121BAB41002B11D101D1AF
:10A8F000C72A0ED8301C05A9FFF7EAFB83B2181E41
:10A9000034D17B780020DA0630D501F097FD0020A5
:10A910002CE004202AE07A7DBB7D00209A4225D0DD
:10A92000B98D0AAAFB7D138050805060301CFFF760
:10A93000CBFB80B21AE0174818E0164816E015481D
:10A9400014E0144812E0134810E012480EE01148D9
:10A950000CE0FA7D6B465A8205AD281C00211022BE
:10A960000AF08DFBBB8D2B80012578E70EB004BC6F
:10A970009246F0BDC046C046E880000000000000DE
:10A98000347702005C4C0020B87B0200FFFF00001F
:10A99000485400206280000010B582B0141C0229C7
:10A9A00013D16946073100230B70FDF7F5FB002832
:10A9B0000DD06B4607331B78B9220F498A5C002BF8
:10A9C00007D0934207D90D4814E00C4812E00B4819
:10A9D00010E00A480EE0013B34205843F030064BAB
:10A9E000C018031CBC33D430DA7D0121231C0AF0CB
:10A9F0008FFA002002B010BD5C4C00206280000085
:10AA0000F0B55F4656464D464446F0B483B0171C39
:10AA1000002979D1434B1B689A4277D0B823424A28
:10AA2000D35C002B74D000269246404B9946404997
:10AA30008B467400A419E4005444BC34721C238A6D
:10AA4000381C49460AF060F8237D012B08D058468F
:10AA5000391C0AF0F1F8381C211C1022FDF710FDFA
:10AA60003448391C0AF0E8F8B9232F4AD35C002B8C
:10AA700042D000249046342565434544AD35FF352A
:10AA80002B78B34231D1621C6B88381C2A490AF0FA
:10AA90003BF82B7DDB06DB0E012B0CD02748391C45
:10AAA0000AF0CAF8291D381C1022FDF7E9FC2448D9
:10AAB000391C0AF0C1F86A786B7DA97D0091287D68
:10AAC000400980001F4940580190381C1E490AF077
:10AAD0001BF8291C1831EA7D2B7D5B09381CFFF718
:10AAE000F3FB1448391C0AF0A7F80134E4B2B92387
:10AAF0000D4AD35CA342BED80136F6B2B8230A4A47
:10AB0000D35CB34295D805E0104804E0104802E059
:10AB1000002000E0002003B03CBC90469946A246CD
:10AB2000AB46F0BD584000205C4C0020BC7B0200CE
:10AB3000D07B0200B87B0200DC7B0200F47B0200C9
:10AB400008710200787B0200007C02006280000035
:10AB500063800000F8B54F464646C0B4051C038824
:10AB6000502B2DD1B923184AD35C002B28D00024B8
:10AB700034239846171C161C43466343FB18AD3319
:10AB8000FF33E9889A8D914206D1EA8B987D597DF1
:10AB9000914201D8824206D90134E4B2B923F35C70
:10ABA000A342E9D80CE0DA75181C1830291C2031B2
:10ABB000EA8B0AF042FA0120A04003F037FEEBE7EF
:10ABC0000CBC90469946F8BD5C4C0020000000008B
:10ABD000F8B54F464646C0B480462D4841460AF077
:10ABE0002BF82C4B18685968284B274A09F00AFFA4
:10ABF0004B04C60B1E43CF0B274B1B68984505D053
:10AC0000244B98462C23FF33994610E0A020C00522
:10AC100022498022920443581342FCD0A020C00550
:10AC20001E498022920443581342FCD1E8E704F005
:10AC300023FA002813D0434618685968134B124A68
:10AC400009F0E0FE4B04C40B1C43CD0B221C2B1C53
:10AC5000921BBB41002B02D1E9D14A45E7D90D4BEC
:10AC600018685968094B084A09F0CCFE4904C00B22
:10AC70000843861B312E03D83220801B09F0BAFD11
:10AC80000CBC90469946F8BDE8800000000000002A
:10AC90001071020048540020E43200200405000036
:10ACA000F0B5474680B494B080460F1C151C802335
:10ACB0005B055A6E1B6E0FAC201C26490AF03AFC4D
:10ACC00005F000F8021C0AAE301C23490AF032FCE1
:10ACD00000230293214B039304960594204B069383
:10ACE0000793204B089305F007F80990002F02D036
:10ACF000022F0ED026E003AC0AAF1B4E01CC291C5C
:10AD000009F09AFF301C291C09F096FFBC42F5D1CE
:10AD10001AE04046154901AA0AF02EFC002803D08B
:10AD2000019B5A1E062A01D911480EE09B0002AA77
:10AD30009858291C09F080FF0B48291C09F07CFF5A
:10AD4000002002E00A4800E0002014B004BC904655
:10AD5000F0BDC046A87C0200B47C0200C07C0200AA
:10AD6000D07C0200D87C0200B87B02000C77020085
:10AD70006280000038B5051C141C012902D9022983
:10AD80000CD01FE0124B187A3030111C09F0F4FE81
:10AD90001048211C09F050FF002018E00AF09EFC2A
:10ADA000012811D12B78303BDBB2012B0ED8084A99
:10ADB000127A00209A420AD0054A137204F06CF904
:10ADC000002004E0044802E0034800E0024838BDE7
:10ADD0005C4C0020B87B02006280000008B50029AE
:10ADE0000AD1101CFFF7F4FEBFF34F8F034A044B48
:10ADF000DA60BFF34F8FFEE7024808BD0400FA0592
:10AE000000ED00E06280000010B5141C00290ED196
:10AE100004F0B6F901F0E6FA201CFFF7D9FEBFF303
:10AE20004F8F044A044BDA60BFF34F8FFEE70348AD
:10AE300010BDC0460400FA0500ED00E0628000008D
:10AE400008B5002906D1101CFFF7C2FE01F072FB05
:10AE5000002000E0004808BD6280000010B5002915
:10AE600023D1134B1B689A420CD102F0E1FA104B2C
:10AE70001C6802F0D7FA021C201C0E4909F044FE9F
:10AE8000002013E000F0A8FC0123181AC0B200F063
:10AE9000A9FC094B1B689C6800F09EFC021C201C4E
:10AEA000044909F031FE002000E0044810BDC0460E
:10AEB00058400020287102005C2A002062800000B7
:10AEC00010B582B0141C022918D1114901AA0AF048
:10AED00053FB002814D00199072913D8022913D055
:10AEE000C9B20220002203F01FF803F057F8021C39
:10AEF000201C084909F008FE002006E0064804E08E
:10AF0000054802E0044800E0034802B010BDC04616
:10AF10000C770200E47C02006280000010B5141C73
:10AF200000290AD103F028F803F04CF8021C201C79
:10AF3000034909F0E9FD002000E0024810BDC046C9
:10AF4000E47C02006280000039DF70473ADF70471E
:10AF500052DF704710B582B0141C012918D801A81F
:10AF6000FFF7F6FF002811D1019BD917890FCB18E5
:10AF70009A10032003405B1A9900CB1899005B18C4
:10AF8000201C054909F0C0FD002002E080B200E06D
:10AF9000024802B010BDC046107D02006280000071
:10AFA00010B582B0141C02292AD101235B420193FF
:10AFB000174901AA0AF0E0FA002823D0019B1F2BB1
:10AFC00022D8C133FF339B0080218902A022D20501
:10AFD00099501048211C09F02FFE322009F00AFC7C
:10AFE0000020002100F004FC0120002100F000FC02
:10AFF0000121A023DB008022D205D150002004E0F3
:10B00000054802E0044800E0034802B010BDC04615
:10B010000C7702001071020062800000F0B5474614
:10B0200080B486B09046002902D0022904D056E0B0
:10B0300004226B46DA750BE069461731FDF7ACF870
:10B0400000284ED06B4617331B78013B0F2B4AD894
:10B0500000256C46033400276E4617362770201CE7
:10B06000FFF772FF83B2002B19D12378002B12D087
:10B070003178491B0A1CC9B2994200D91A1CD1B2B5
:10B08000227001AB5819FFF761FF80B200282BD165
:10B090002378ED18EDB23378AB42DFD801E0181C0D
:10B0A00022E01348414609F0C7FD6B4617331B7871
:10B0B000002B0ED000240F4E6D46173501AB1A5DE4
:10B0C0004046311C09F020FD0134E4B22B78A34244
:10B0D000F4D80948414609F0AFFD002004E00748D4
:10B0E00002E0064800E0054806B004BC9046F0BD0A
:10B0F0001C7D0200F0700200B87B0200628000003C
:10B1000010B582B0002902D0022909D034E01C4BCE
:10B110009B7A101C1B491A1C09F0F6FC00202CE03D
:10B1200069460731FDF738F8002804D06B4607332D
:10B130001B78012B01D914481FE0114A927A9A42D8
:10B1400018D0002B03D10120002100F051FB6C46E8
:10B15000E2790B4B9A7203F09FFFE379012B09D13F
:10B1600001F0B2F8094BC1184B1E9941C9B2012038
:10B1700000F03EFB002000E0034802B010BDC046D6
:10B180005C4C002028710200628000000100FFFF7B
:10B19000F0B5474680B492B094460CAA354B141CC7
:10B1A0001D1CC4CDC4C4C4CDC4C409AC1833C4CBA5
:10B1B000C4C4002902D002290CD056E02E4B597A83
:10B1C00089000CABCB5860462C491A1C09F09CFC3A
:10B1D00000204BE0012301930023029303A90723DE
:10B1E0000B7006224A7001AA4A600CAA8A600B738F
:10B1F00003234B7302AB0B6109AB4B610222FDF7DA
:10B2000045F800282FD0012803D9019B052B2AD10E
:10B2100002E0019B052B26DC174A527ADBB29A42E8
:10B2200008D00020002100F0E3FA134B019E5E726B
:10B2300003F032FF019F052F13D1029B022B0AD18D
:10B24000002000F0F5FB0123011C5940C9B2002089
:10B2500000F0CEFA05E05A1E9341D9B2002000F06A
:10B26000C7FA002002E0064800E0054812B004BC1E
:10B270009046F0BDEC7C02005C4C0020207D02007A
:10B2800062800000F0B54F464646C0B483B0161C3D
:10B29000002902D0022924D038E003240125224BC2
:10B2A00098460027214B9946E0B202F0D3FD0028D2
:10B2B0000BD0002D03D14846311C09F0BDFC301CD9
:10B2C0004146221C09F020FC3D1C0134782CEBD1B6
:10B2D0000020002D22D11648311C09F0ADFC0020C1
:10B2E0001CE000230193134901AA0AF045F9002844
:10B2F00003D00198C31E742B0AD90F480EE0301CEE
:10B300000E49019A09F000FC002007E00A4805E018
:10B31000C0B202F09FFD0028F6D0F0E703B00CBCED
:10B3200090469946F0BDC0465C7D0200087102005F
:10B33000B87B0200647D020062800000687D02002C
:10B34000011C00201F2919D80D4B1878002810D097
:10B350000C4B1B788B420ED00B4B0138C0B2181827
:10B3600003E01A7801338A4207D08342F9D10120E1
:10B3700004E0012002E0002000E000207047C04609
:10B38000847D0200747D0200757D020030B583B0BB
:10B39000141C022941D1264901AA6B460AF0ECF897
:10B3A000012805D002283AD1009D012D39D812E09C
:10B3B000A223DB00A022D205D358019AD34001205A
:10B3C00018403030211C09F0D7FB1A48211C09F025
:10B3D00033FC00202AE0184BA022D205D358019C50
:10B3E000E340DA071FD5201CFFF7AAFF00281CD076
:10B3F000002D08D10123A3401C1C104BA022D20514
:10B40000D450002012E00123A3401C1CA123DB0028
:10B41000A022D205D450002008E0094806E00848E0
:10B4200004E0074802E0064800E0054803B030BDEC
:10B43000D4790200B87B0200140500000C0500005E
:10B440006280000030B583B0141C022964D13849F1
:10B4500001AA6B460AF090F8012805D002285DD1B8
:10B46000009D032D5CD823E0324BA022D205D25898
:10B47000019BDA400120D1070FD49B00A022D20506
:10B480009B18E022D2009A580320510705D4E022ED
:10B49000D20098580007C00F400000903030211CA7
:10B4A00009F06AFB2448211C09F0C6FB00203CE09F
:10B4B000019C201CFFF744FF002833D0012D08D049
:10B4C00002DC002D0ED02FE0022D13D0032D1AD058
:10B4D0002AE0C134FF34A4000322A023DB05E2509C
:10B4E000002022E0C134FF34A4000020A023DB05AB
:10B4F000E0501AE0C134FF34A4000C22A023DB0585
:10B50000E250002011E0C134FF34A4000422A02343
:10B51000DB05E250002008E0084806E0074804E0A8
:10B52000064802E0054800E0002003B030BDC046F8
:10B53000D479020014050000B87B0200628000008C
:10B5400010B586B0022925D1174905AA04AB0AF027
:10B5500013F8022820D1059C201CFFF7F1FE0028DB
:10B560001CD0049A642A1BD8684600210E2209F0D8
:10B5700086FD01236A4613705470137102235371C0
:10B580009372684602F03EFD0020049902F02AFE04
:10B59000002006E0054804E0044802E0034800E01B
:10B5A000024806B010BDC046D47902006280000097
:10B5B00070B582B0141C012902D902290CD057E0C1
:10B5C0002D4B5A7D1207520E2C4BD258201C2C4961
:10B5D00009F09AFA00204CE001A9FCF7C5FD00280B
:10B5E00044D0019A254B1B689A420FD0254901236C
:10B5F0000868824204D1DDB26AB2002A08DA35E076
:10B600000133DBB20831102BF2D12FE000230025EB
:10B610006DB2194A527D1207120F954224D0164A74
:10B620000F210B40517D0F2081430B435375201C8C
:10B63000FDF7BCF9142009F0DDF8134C0126E66192
:10B64000052009F0D7F8ED000C4B5D196A680F4B27
:10B65000E250002384225200A3508E225200A350B5
:10B66000A660266003F018FD002002E0084800E014
:10B67000074802B070BDC0465C4C0020887D0200C7
:10B68000E47C0200907D02000020004024050000C0
:10B690006280000010B584B0141C012902D902296F
:10B6A0000DD06EE0384B5A7DD206D20F01235A409E
:10B6B000D2B2201C354909F027FA002062E06A4620
:10B6C0000023D370033201A901938B6008230B7010
:10B6D0004A600122FCF7DAFD012801D02C4851E034
:10B6E0006A46D17801234B40D370274A527DD20657
:10B6F000D20F9A4243D0244A01210B401901537DB5
:10B70000102083430B435375201CFDF74FF9142081
:10B7100009F070F81F4B0122DA61052009F06AF880
:10B720006B4603331B78002B0ED01A4B1A4A9958DC
:10B7300001208143995001225242A221C9005A504E
:10B74000A121C9005A500DE0124B134A985801210B
:10B75000014399500A21A222D20099500821A12226
:10B76000D20099500B4B0022842149005A508E215F
:10B7700049005A5001229A601A6003F08DFC0020A3
:10B7800000E0034804B010BD5C4C002028710200AA
:10B7900062800000002000406C05000048DF704718
:10B7A0007047C046830702D50122044B1A708B07ED
:10B7B00002D50022014B1A707047C046702B002042
:10B7C000014B18887047C0466E2B0020014B18882B
:10B7D0007047C04634300020014B18787047C0468F
:10B7E000702B0020014B18707047C046702B002052
:10B7F000012805D10E4B9B7A1320002B04D115E0B4
:10B80000434243411320C01A002908D0012383403A
:10B81000181CA123DB00A022D205D05006E0012392
:10B820008340181C034BA022D205D0507047C0465D
:10B830005C4C00200C05000030B58DB0A823DB0067
:10B84000664AD1580023664A914204D8A823DB00F7
:10B85000624AD3589BB2634A1380A823DB00624A32
:10B86000D15800235E4A914204D8A823DB005E4AE7
:10B87000D3589BB25D4A13800023009320200821F7
:10B8800006225B4B05F06CF8002803D00021002253
:10B8900000F032FC0220574904F0EEFB002803D0F0
:10B8A0000021002200F028FC0920534948220023EF
:10B8B00005F0D0FC002803D00021002200F01CFC81
:10B8C0004E4805F0F7FC80B2002800D083E007F076
:10B8D000A7FB80B200287ED103F0F0FC00287AD1CB
:10B8E00009A80B23037009234370082383700A23DC
:10B8F000C370434B5B7DD906C90F01224A400271D8
:10B90000002242711B075B0E3E49CB185B688360C7
:10B910006B46DA810E333C4A0492802205923B4901
:10B9200006910792009304A9394A012305F0B8FA59
:10B9300080B200284FD1374B1B689868002109F06E
:10B9400069FDA023DB050C21E822D2009950A22238
:10B95000D2009B58DA030BD42F4808F04BFFA223E8
:10B96000DB00A022D205D358DA0301D403F008FC8F
:10B97000A024E4050C25294BE55002F093FA02F0CF
:10B98000DFFE274BE5506846233002210222254B7B
:10B9900004F0B0FB80B200281DD16B462333187829
:10B9A00004F0D4FBA222D200A1588907C90F1E4A75
:10B9B00011700322E921C90062501C496250012024
:10B9C0000021FFF715FF01246442201C02F026FF2E
:10B9D000201C02F037FF0DB030BDC0460090004083
:10B9E000FEFF00006E2B002000A00040343000203D
:10B9F0009C2B0020742B0020EC2F00208D2E0200A9
:10BA00005C4C0020887D0200EC2E00206C2F002072
:10BA1000A1B701005C2A0020DC0500001C07000023
:10BA200004070000A5B70100702B00204C070000A0
:10BA3000431E98411230044BA022D205D358C34074
:10BA4000181C01231840704704050000014B587A68
:10BA50007047C0465C4C0020031C0020002B08D11E
:10BA6000A223DB00A022D205D058C00901235840F0
:10BA70001840704708B5FFF791FE08BD00000000B0
:10BA8000F0B557464E464546E0B48046264B18680A
:10BA90005968244B224A08F0B5FF4B04C60B1E43DD
:10BAA000CF0B214B9946F423FF339A46404605F0CD
:10BAB00043FB002814D04B4618685968194B184AA4
:10BAC00008F0A0FF4B04C40B1C43CD0B221C2B1C05
:10BAD000921BBB41002B17D1E8D15245E6D913E0A8
:10BAE000114B186859680F4B0D4A08F08BFF4C0436
:10BAF000C20B2243CB0B921BBB41002B04D108D1BC
:10BB0000F423FF339A4204D905F022FB012040427E
:10BB100000E040461CBC90469946A246F0BDC04697
:10BB2000E88000000000000048540020C046C046E5
:10BB300000B583B06846073005F0EAFA002802D164
:10BB40006B46D87901E00120404203B000BDC046F9
:10BB500000B583B06946073105F00AFB002802D121
:10BB60006B46D87901E00120404203B000BDC046D9
:10BB700072DF704773DF704774DF704776DF70479E
:10BB8000A0DF704760DF704768DF704708B507F0D7
:10BB90007DF908BD38B50024064D2B19DA79002A45
:10BBA00003D01B69002B00D098471434642CF4D1C7
:10BBB000002038BD0029002030B58FB004282CD8D3
:10BBC00069463731164BDB7A0B700CAA154B840093
:10BBD0002518AD005D19AD8815802418A4001B1927
:10BBE0009B7993700023009302930493059306932B
:10BBF0000793089309930A930B9306236C46E3700B
:10BC00000191012323810392032800D1A370684688
:10BC1000002105F073FD80B200E003480FB030BD95
:10BC20005C4C0020002900206280000030B597B0F5
:10BC300010AC0223237015236370124D291C6C3144
:10BC400068464230152209F0F8F90DAA8223EB5A12
:10BC50001380172393800F9401A80023019343605E
:10BC60008360C360036143618361C3610362836274
:10BC7000C3620423C3704262002105F03FFD80B21D
:10BC800017B030BD5C4C002070B592B0061CFFF7B9
:10BC900073FF0CAC00230C930D930E930F93119331
:10BCA000524DA88FC000052108F04AFE2082EB8F7C
:10BCB00063824023EB5CDA0704D50CAB03221A70D5
:10BCC000A0221A82002E04D00CAB494A1A8200220C
:10BCD0005A82464A4923D15C052900D983E08B006A
:10BCE000444AD3589F46414B1B7D0020DA0704D5B8
:10BCF000042149233D4AD15403203C4B1B7D9A0724
:10BD000004D505214923394AD1540420FFF754FFB3
:10BD1000031C002B3BD067E03748C17F0022002383
:10BD2000FFF726FF83B2181E31D05DE04323334A6C
:10BD3000D35C0020002B00D00320FFF73DFF031C45
:10BD4000002B24D050E057232C4AD05C431E98414E
:10BD50008000FFF731FF031C002B18D044E00CAB30
:10BD6000A0221A8200225A82FFF760FF031C002BD8
:10BD70000DD039E000220CAB5A8200F031FF0028D0
:10BD800003D00220FFF718FF01E000F02FFF00238F
:10BD900000930193029303930493059306930793EF
:10BDA000089309930A930B93154809F097FC002315
:10BDB0001D2282425B4101336A461370104809F02C
:10BDC0008DFC00231D2800D91D236A4653700020D6
:10BDD000694605F093FC83B2181E05D10CA8FFF745
:10BDE000C9FE80B200E0072012B070BD5C4C00209C
:10BDF0006A030000087E0200C84C002000290020D1
:10BE0000A84C002008B500F05FFA064B984205D018
:10BE100000F05AFA1321FFF7B1FE02E00020FFF70D
:10BE200033FF08BDFFFF0000F0B55F4656464D46A4
:10BE30004446F0B48BB008A87E4B021C12CB12C251
:10BE4000FFF7A0FE83B2181E00D0ECE07A4805F0A0
:10BE500027FA83B2181E00D0E5E0784805F02AFAE8
:10BE600083B2181E00D0DEE080235B055B6B022BE3
:10BE700011D101AC201C0021082209F000F9227820
:10BE80000123134323700120211CFFF77DFE80B2A4
:10BE9000002800D0C7E000F073F900F0F7FA01F0D5
:10BEA0002BFC674B674A127DD007C00F43215854C3
:10BEB0009007C00F572158545107C90FD976120760
:10BEC000D20F2F215A541C1C1E1C64360127251C1E
:10BED000E379002B0FD02068002801D1A77105E07D
:10BEE00001F0C0FAA071012800D89BE0AA68002ADE
:10BEF00001D0A87990471434B442E8D1B823514A0C
:10BF0000D35C002B00D183E000269346914673005A
:10BF10009B19DB005B44BC339A461B7D012B06D08A
:10BF2000504601F09FFA53461875012870D95446BF
:10BF3000238A69460B80237D8B7001205246123282
:10BF4000FFF71EFE80B2002862D1B9233D4CE35CAE
:10BF5000002B55D000253427A0463C1C6C434C4494
:10BF6000AD34FF342378B34243D1237DDB06DB0EAF
:10BF7000012B0BD0201D01F075FA1F231840237DE3
:10BF80001F22934303432375012832DD01A80023B8
:10BF9000019343608360C3600361436183615246E0
:10BFA000538A03806378837063888380237DDB06F4
:10BFB000DB0E8371037A032293430222134303723D
:10BFC000231C1833C360637D0382A37D4382E37D1A
:10BFD0008382C3780F229343012213430F2213401D
:10BFE00010221343C370211C2C3101F065FA002884
:10BFF0000ED10135EDB2B9234446E35CAB42ACD877
:10C000000136F6B2B8230F4AD35CB34200D97EE7BB
:10C0100048230C4AD35C0020002B04D0FFF734FEE9
:10C02000002000E007200BB03CBC90469946A24699
:10C03000AB46F0BD207E020049C001008DBB01006F
:10C04000002900205C4C002070B586B0051C00F073
:10C0500069F9281C06F01CFD281C00F033FA2B8817
:10C06000112B1FD0192B25D0102B3AD101200121E3
:10C07000FFF7BEFB4A231D4AD35C002B31D00023BF
:10C0800000930193029303930493059303236A4659
:10C090001370A02313826846FFF76CFD80B200285E
:10C0A0001FD021E001200021FFF7A2FB0020FFF7B5
:10C0B000EBFD16E0AB79002B13D10120FFF7E4FD77
:10C0C0000FE03319DA79002A04D0DB68002B01D0A5
:10C0D000281C98471434642CF3D1281CFEF73AFD31
:10C0E00002E00024024EECE706B070BD5C4C00207C
:10C0F0000029002001207047BFF34F8F024A034BF5
:10C10000DA60BFF34F8FFEE70400FA0500ED00E0B0
:10C1100077DF704778DF70477ADF70477CDF7047E2
:10C1200084DF7047A7DF704762DF70477047C04603
:10C1300008B5021C0B78122B10D0D9B2122902D8E4
:10C14000112B05D016E0142B0FD0212B0DD011E0B0
:10C150000948111C042208F070FF0BE0064805F0A6
:10C1600097FF064805F094FF04E00448111C0422E0
:10C1700008F063FF002008BD403000203830002068
:10C1800070B58AB0464805F083FF464805F080FF49
:10C19000FFF7B0FF40080124204001AB187003AB4B
:10C1A00000220592404A039201221A710D225A710F
:10C1B00007229A711022DA71FFF79CFF044209D01E
:10C1C00001A805F0BFFD80B2002803D1374803A9BC
:10C1D00005F054FE364C201CFFF7A6FF2278354BA5
:10C1E0001A70354B0B201856FFF792FF83B2181EBA
:10C1F00054D1FFF77FFF031C0020D9074ED56A46B4
:10C2000013780F229343012213430F22134010226D
:10C2100013436C462370294C201C09F05FFA82B24C
:10C220006846211CFFF77AFF83B2181E36D14923D6
:10C23000214AD35C0020042B00D12148FFF76AFF7C
:10C2400083B2181E2AD11C4D2E8F01ACB0000521DF
:10C2500008F028FB2080688F8000052108F022FB71
:10C2600060800023A380E3802B7D9D0704D0142EE3
:10C2700002D1092201AB1A8001A8FFF74DFF83B25A
:10C28000181E0BD103A80F4A031C32CA32C332CA8C
:10C2900032C312681A6006F0B5FB80B20AB070BDF6
:10C2A000403000203830002031C101003C300020F7
:10C2B00045300020443000205C4C0020A84C002079
:10C2C000C1030000647E0200014B18887047C0461D
:10C2D00064290020014B002018567047363000209A
:10C2E000054B1B78FF2B05D0034B9878FF38431E76
:10C2F000984100E0002070473830002000B585B03C
:10C300000023009301930293039301236A46137061
:10C310000348694605F050FE80B205B000BDC04636
:10C320003830002010B5041CFFF7E4FEC30702D527
:10C33000201C05F0ADFF2388112B2ED004D8012B33
:10C3400009D0102B15D041E01A2B35D0522B37D005
:10C35000182B3BD134E01E4B1A78237AD3181D4A90
:10C3600011781A1CDBB28B4200D90A1C184B1A70C8
:10C370002CE0A288184B1A80FFF7BCFEC30705D536
:10C38000154B188801210022FFF7CAFE022002F097
:10C3900045FA012002F036FA18E0012252420E4B13
:10C3A0001A800C4B1A780A4B1A70012002F036FAE8
:10C3B000022002F027FA09E0A279084B1A7005E082
:10C3C000054B18880C21064AFFF7ACFE10BDC0468D
:10C3D0004430002045300020642900203630002001
:10C3E000FFFF000008B5FFF785FEC30704D503482B
:10C3F00005F088FD80B200E0014808BD3C30002017
:10C400006380000008B5011C054B1A880820054B05
:10C410009A4203D0044805F049FE80B208BDC046E8
:10C4200064290020FFFF000040300020024B1878F4
:10C43000431E9841C0B2704744300020024B1A7826
:10C44000013AD2B21A7070474430002044DF70477E
:10C4500011DF704713DF704774DF704776DF704776
:10C4600008B5FFF731FF084B984204D0FFF72CFFC7
:10C470001321FFF7F3FFFFF7EFFF01200021FFF784
:10C48000B7F906F0FDFA08BDFFFF000010B584B053
:10C49000FFF796F901A90880074B4B6000238B60DA
:10C4A000064807F0CDF884B2002C02D1044807F00A
:10C4B000B5F8201C04B010BDAD3402004830002097
:10C4C00061C4010008B5011C014807F031FA08BD3C
:10C4D00048300020064C064D061C064FF0B40024E0
:10C4E000002500260027F0B40348004770470000ED
:10C4F000FFFFFFFF00000021F9FFFFFF0A4B0B4A7F
:10C50000D22189005A50C22189005A50016881F312
:10C51000088840680022EFF305839A42DAD1044C80
:10C52000A64600477047C0460010014001000100C8
:10C53000FFFFFFFF10B5FFF793FFB120FFF786FF66
:10C5400083B2181E19D1FFF783FF83B2181E14D1CE
:10C550000A4B5869FFF77EFF84B2201E0DD1084BAD
:10C560008021C903C0225200995019688022995035
:10C57000024B5869FFF7C2FF201C10BD00100010CD
:10C5800000E100E072DF704777DF7047A0DF70479F
:10C59000A4DF7047A8DF704730B589B0051C854C13
:10C5A000201C00214E2208F06AFD00232371824ADC
:10C5B000928F6280814A137007A982239B010B80AE
:10C5C0008D700120221CFFF7E1FF83B2181E00D0FE
:10C5D000EEE0019302930593069376490B88684633
:10C5E000038007AB9B78837101231122C270744AC8
:10C5F000828006220272022282700A1D03928382C6
:10C6000043820382063100F057FF031C002B00D049
:10C61000CEE06C4B68468380037A03229343022268
:10C620001343037208238370674B03930123038230
:10C6300010234382002383825E490E3100F03CFFC9
:10C64000031C002B00D0B3E0604B69468B800B7A53
:10C6500003229343012213430B72002308228A70A2
:10C660000393012268460A8210224A828B82514932
:10C67000163100F021FF031C002B00D098E0544B32
:10C6800068468380027A03239A4302231A43027284
:10C690000822134383704F4B03930122028212221C
:10C6A0004282A63BA5229B5C838242491E3100F058
:10C6B00003FF031C002B7BD1474B6A469380127A01
:10C6C00003239A4302231A43684602720822134343
:10C6D0008370424B03930123838243820382354953
:10C6E000263100F0E9FE031C002B61D13C4B69466A
:10C6F0008B800A7A03239A4302231A430A72082280
:10C7000013438B70374B039304238B8268464B8211
:10C710000B8228492E3100F0CFFE031C002B47D19D
:10C72000314B6A469380127A03239A4302231A43B9
:10C73000684602720822134383702C4B0393012333
:10C740008382438203821B49363100F0B5FE031C0D
:10C75000002B2DD1264B69468B800A7A03239A43FE
:10C7600002231A430A7208221A438A701149CA180E
:10C7700003926A4693826846538213823E3100F0E8
:10C780009BFE031C002B13D11A4B68468380027A50
:10C7900003239A4301231A43027208228270002263
:10C7A00003928382438203820249463100F084FE71
:10C7B00009B030BD783000205C4C0020D83000201B
:10C7C0008120000082200000E84C0020832000002F
:10C7D00084200000024D002085200000F94C00203C
:10C7E00086200000FC4C002087200000004D002027
:10C7F0008820000089200000F0B54F464646C0B4AE
:10C8000085B0041C0388512B00D054E18379022B9E
:10C8100000D050E1028BAA4B1B889A4200D04AE11B
:10C82000837A012B00D046E1038AA6495A1892B2B6
:10C83000012A25D8A24A1279002A15D09C23A24A9F
:10C84000D25C038C934200D02DE122309F4908F046
:10C85000E5FB002800D026E1228A9A4BD2185342E9
:10C860005A41974B1A7114E1994A934200D01AE148
:10C87000038C013B9BB200220E2B00D8EFE012E1AB
:10C880008F4B1B79002B00D00DE102E1218CA523F9
:10C890008D4AD15402F000FC00228E4B1A70DEE06B
:10C8A00002F0FAFB0022DAE0238C042B00D0C4E073
:10C8B0000023271C08372025A9461026B04604214E
:10C8C000FA18907EC2B2151C4E46B5436DB228359B
:10C8D0000CD0161C4546AE4376B2143606D08A43B9
:10C8E00052B2103202D0884300D0A9E00133042BA9
:10C8F000E6D1754BA4229A5CA218203295780B21C0
:10C9000059566BB20022994200D1A8E0181CFFF7DB
:10C910003BFE6D4BDD7202F0BFFB00229FE0238CDB
:10C92000012B00D08FE02223E35C032B00D98DE0A4
:10C93000A42265498A5C9A4200D18AE00A1CCB187D
:10C9400098331D7A0B2151566BB20022994200D1C7
:10C9500085E0181CFFF718FE5B4BDD7202F09CFBB4
:10C9600000227CE0238C022B02D00E22FF3276E0E4
:10C970006846211C2231022208F05FFB69460A88C2
:10C98000002A06D1002149234F4AD15402F084FBEA
:10C990001DE0131C132A00D814239AB2A021890188
:10C9A0008A4201D9A0239B019AB26D462B80444B49
:10C9B0005B88002B00D079E0434B03204921585479
:10C9C0009B8F934201D0404B9A8702F065FB002277
:10C9D00045E0238C012B3ED12223E35C00229342CD
:10C9E0003DD0394D281C8C30111C2C2208F047FBFF
:10C9F00010229C23EA54EE229F23EA540422A0230F
:10CA0000EA54FC22A223EA54F422A323EA5401228A
:10CA1000A423EA540A22A523EA54281CA6302E494E
:10CA20000B2208F00AFB281CB1300021072208F075
:10CA300026FB02F031FB002211E00E22FF320EE055
:10CA40000422FF320BE00E22FF3208E00422FF3204
:10CA500005E0002203E00E22FF3200E00022002366
:10CA6000009301930293039302236E463370694649
:10CA7000B280A088FFF78EFD228A184B9A421AD105
:10CA80000F4B5B88002B16D00F4B9A8F0C4B5A80A4
:10CA900011E0238A124A9B189AB2052ADED8930025
:10CAA000104AD3589F4684225200D8E7064B9B8FEA
:10CAB000934288D18BE705B00CBC90469946F0BDF7
:10CAC000783000207EDFFFFF5C4C0020E84C002027
:10CAD00082200000D8300020987E020088200000CC
:10CAE0007CDFFFFF807E020070B5154B1B78002BAA
:10CAF0001FD0144CA568144B186859680F4B0E4A88
:10CB000007F080FF4E04C20B3243CB0B20686168F4
:10CB1000121A8B41002B01D195420AD80022084BF2
:10CB20001A70FFF7D1FB094B984202D10020FFF7A2
:10CB3000ABF8002070BDC046E88000000000000097
:10CB4000D8300020C830002048540020FFFF0000EB
:10CB500030B583B0031C0C1C0B4D281C191C221C67
:10CB600008F06BFAA63DA523EC54FFF7ADFB074B8D
:10CB7000D98B0023009301936B461C806A46FFF714
:10CB800007FD80B203B030BD024D00207830002098
:10CB900010B5002814D001220D4B1A700D4CFA2349
:10CBA0009B005843A0600C4B18685968074B064A15
:10CBB00007F028FF4B04C00B18432060C90B6160CD
:10CBC00010BDC046C046C046E8800000000000001E
:10CBD000D8300020C830002048540020C046C0464D
:10CBE000014B18787047C046D830002030B589B066
:10CBF00001AB00220392049205920692079203224F
:10CC00001A705A7018495980184AA520105C0530CE
:10CC1000187116205871D980102119729F21515C0A
:10CC200059729E23D35C002B05D001AB104ADA80E9
:10CC30005A8000221A7201AC0E4D68460E30291C33
:10CC4000122208F0FAF9A63DAA8F0B4B5A802178E0
:10CC50002379C9180231C9B2201C00220023FFF732
:10CC600091FC09B030BDC046AAFEFFFF5C4C00201D
:10CC7000D8FEFFFF024D002078300020A0DF704773
:10CC8000A5DF7047A6DF7047F0B5474680B48AB08D
:10CC9000FFF71AFB204B984239D0204B1B78002B12
:10CCA00035D1FFF711FB80461D4D2E1C1D4F2AE08C
:10CCB000281C6946013101F057FE002827D06B4639
:10CCC0005C78301C05A9221C01F092FE84421ED122
:10CCD0006A466B4601331B785380023201A9002358
:10CCE00001934B608B60CB607B880B8001238B7042
:10CCF0008A6005ABCB604046FFF7C4FF80B20028D6
:10CD000005D1FFF79BFBFFF791FB0028D0D10AB0BC
:10CD100004BC9046F0BDC046FFFF0000E03000209C
:10CD200078290020E430002030B589B0051C1F4C64
:10CD3000201C00210A2208F0A2F907A91C4B0B8035
:10CD40008D700120221CFFF799FF83B2181E2BD192
:10CD5000184800F087FB0023019302930393059387
:10CD6000069312490B886A4613801E239370212371
:10CD7000D370114B9380907101231372138214238B
:10CD800053820231684600F097FB031C002B0BD145
:10CD90000A4801F0DBFE0A4801F0D8FE09480121EB
:10CDA000094A03F071FE80B209B030BDE4300020C2
:10CDB0005A0E0000AC7E0200DBE5FFFF7829002060
:10CDC00068290020DC30002089CC0100F0B583B058
:10CDD000041C0388112B0AD0502B13D0102B4AD1DE
:10CDE000264B18680B21002203F086FE43E02448FE
:10CDF00001F0ACFE234801F0A9FE204B186803F0B7
:10CE0000D1FE38E0C388204A52889A4226D1C38B8B
:10CE1000042B30D9861DB17EF27E6F468906C90C7F
:10CE20005206520E0A43FA800637694605310B70E6
:10CE3000144D281C01F022FE281C391C022201F08E
:10CE40006BFE211C2231E28B023A92B2281C01F0C7
:10CE500063FE8020C00001F0D5FC0CE00A4AD288B5
:10CE60009A4208D1C38B022B05D1FFF739FA00286B
:10CE700001D0FFF743FA03B0F0BDC046DC3000201C
:10CE80007829002068290020E430002030B585B0E2
:10CE90006C460025E5800634FFF716FA064BD98864
:10CEA00002AA0223138055805460FFF7E9FE23880D
:10CEB0000120184005B030BDE43000200000000023
:10CEC000F0B5474680B48AB0071C6B46D97307207B
:10CED000002900D19EE0FFF7F7F9021C0020524B19
:10CEE0009A4200D196E0FFF7D1FF031C0820002BE7
:10CEF00000D18FE0FFF79AFA002821D04B4B1B8915
:10CF00009BB2002B1CD16B466A460F321278DA8234
:10CF1000163306AC002206920792454A52882280B8
:10CF20000122A27008930997FFF7CEF9211CFFF7A1
:10CF3000A9FE80B200286DD1FFF780FA002069E0D9
:10CF40003C4B18685968374B354A07F05BFD4E0477
:10CF5000C00B031C33430093C90B0191334B1A8957
:10CF60009B889A1A92B26B460F331B7801339A4210
:10CF70003ADA2E4E2F488046052007F03BFC3389D5
:10CF8000B288D21A92B26B460F331B7801339A42A1
:10CF900016DA424610685168224B214A07F032FDEA
:10CFA0004B04C40B1C43CD0B221C2B1C0098019975
:10CFB000121A8B41002B2AD1DED1C72ADCD926E0F8
:10CFC0001C4B18685968174B154A07F01BFD4C0499
:10CFD000C20B2243CB0B00980199121A8B41002BF4
:10CFE00017D101D1C72A14D8134C012323700F4D38
:10CFF0006E460F36281C311C01F040FD3278281C8B
:10D00000391C01F089FD00232370002002E0042078
:10D0100000E004200AB004BC9046F0BDC046C04603
:10D02000E880000000000000FFFF000078290020D9
:10D03000E430002048540020E0300020C046C046C4
:10D04000A0DF7047A6DF7047F0B58BB0324B1B787E
:10D05000002B5ED1FFF738F9304B98420BD13048A6
:10D0600001F074FDFEF7F2FC022852D100200021ED
:10D07000FEF7BEFB4DE0FEF7E9FC022845D1284B48
:10D080001B899BB2002B04D0264B1B899BB2002B23
:10D090003BD1FEF7DBFC022837D100200021FEF750
:10D0A000A7FB32E0301C291C142201F0A1FC6B46C6
:10D0B000588000282DD0FEF7C9FC022803D100209B
:10D0C0000121FEF795FB01AC00230193029303932A
:10D0D0000493154A938823800123A3706B4602337F
:10D0E00003930495FFF7F0F8211CFFF7ABFF80B224
:10D0F00000280ED1FFF7A2F97B1EDFB2002F08D067
:10D10000FFF794F90028CDD103E00727044E05ADC1
:10D11000F6E70BB0F0BDC0460C310020FFFF000069
:10D120008829002098290020F430002030B589B0EB
:10D13000051C344C201C0021142207F0A0FFA57010
:10D1400007A901230B808D700120221CFFF778FFB7
:10D1500083B2181E54D10193029303930593294976
:10D160000B886A46138007AB9B7893710123138267
:10D17000142353822123D3700323938010239370AD
:10D1800001231372204B06930431684600F094F992
:10D19000031C002B34D102236A469380082393702A
:10D1A000137A03229343022213436A461372002325
:10D1B0000393164B0693684612490C3100F07CF934
:10D1C000031C002B1CD11248124907F091FC031CD0
:10D1D000114A10600520002B12D0181C002108F005
:10D1E00019F90E4801F0B2FC0D4801F0AFFC002225
:10D1F0000C4B1A700C4801210C4A03F045FC80B21C
:10D2000009B030BDF4300020C07E0200C47E0200B0
:10D21000C87E0200D07E02005840002088290020ED
:10D2200098290020F03000200831002049D001006A
:10D2300000B583B006486946073101F095FB002828
:10D2400002D06B46D87901E00120404203B000BD16
:10D250009829002000B583B0011C07486A460732B0
:10D2600001F0E0FB002802D06B46D87901E00120F4
:10D27000404203B000BDC04698290020014B1889E8
:10D2800080B2704798290020014B188980B27047FE
:10D290008829002000000000F0B54F464646C0B483
:10D2A00083B06B46D871FFF70FF8334B984251D0DB
:10D2B000324B186859682F4B2D4A07F0A3FB4B04DB
:10D2C000C60B1E43CF0B2E4B1A8992B29B889342FA
:10D2D00033D12B498846294A9146052007F08AFA1E
:10D2E00041460B899BB28A889A4214D14A461068FB
:10D2F0005168204B1E4A07F085FB4B04C40B1C43AE
:10D30000CD0B221C2B1C921BBB41002B25D1E4D141
:10D31000C72AE2D921E0194B18685968154B144AFD
:10D3200007F070FB4C04C20B2243CB0B921BBB419A
:10D33000002B15D101D1C72A12D8124D01232B7011
:10D340006C4607340E48211C01F098FB00232B701B
:10D35000207807E00120404204E00120404201E043
:10D360000120404203B00CBC90469946F0BDC04637
:10D37000E880000000000000FFFF0000485400208B
:10D38000882900200C31002008B50388102B08D014
:10D3900002D8012B34D03BE0112B09D0502B17D0F1
:10D3A00036E01C4B18680D21002203F0A5FB2FE08E
:10D3B000184B186803F0F6FB174801F0C7FBFEF79F
:10D3C00045FB022824D100200021FEF711FA1FE0BE
:10D3D000C288124B9B899A421AD1011C2031C28B00
:10D3E0000F4801F099FBFEF731FB022803D1002022
:10D3F0000121FEF7FDF98020400001F003FA07E06B
:10D40000FEF724FB022803D100200021FEF7F0F9EB
:10D4100008BDC0460831002088290020F4300020D3
:10D4200098290020014B18787047C046F030002042
:10D4300008B5064B1A7801218A1A1A70044801F0BF
:10D4400085FB044801F082FB08BDC046F030002097
:10D450008829002098290020A2DF704763DF7047E9
:10D4600064DF704710B586B000226B46DA71002386
:10D470005942C218D47B02AA8C54013B1A1C1032A8
:10D48000F6D102A800234373037369460731FFF7FF
:10D49000E5FF83B20F2B08D1102002A96A46FFF7DF
:10D4A000DFFF6B469A78DA7102E00020002B01D191
:10D4B0006B46D87906B010BDF0B5474680B490B041
:10D4C000041C0D1CC378002B08D10F2293430122AA
:10D4D00013430F22134010221343C370484B5B7B4E
:10D4E000002B09D1E3780F229343012213430F222B
:10D4F000134010221343E370A37830221A4217D04E
:10D500000FAE301C0021032207F0B9FDB3780622CC
:10D51000934302221343B37033780F2293430122C3
:10D5200013430F221340102213433370E3787370B8
:10D5300008AA0020089009900A900B900C900E9079
:10D54000A378137000223021194200D00FAA0D9247
:10D5500007AA002313801123137002239370A0697C
:10D5600000280BD00378002B08D008AE099008F0F3
:10D57000B5F880B23081708107AB336106AB002211
:10D580001A80618A268A761A771EBE4101221640C9
:10D59000207A032707407F00F6B2B446C60816403B
:10D5A000F600B04666463743800802401001424606
:10D5B0003A4302439A70A37832221A4202D0E078AA
:10D5C00006AA10700C221A4202D0E27806AB5A70FA
:10D5D00001AA00239360D360231D019306AB53601F
:10D5E000A38A13819181E3681361208808A92B1C09
:10D5F000FFF732FF80B210B004BC9046F0BDC046C9
:10D600005C4C0020A0DF7047A4DF7047A6DF7047A6
:10D6100000B58BB008A81749042207F00EFD0120C1
:10D6200008A96A462632FFF7EDFF83B2181E1ED105
:10D630006A466423D3771F32002301930293059334
:10D6400006936B4626331B8868460380122383703B
:10D6500001231121C1700849818083710121017268
:10D6600003920382438283820449FFF725FF0BB0B4
:10D6700000BDC046D47E02001B2A000010310020ED
:10D6800000B58BB0031C6A46D0710720642B2AD8E2
:10D69000FEF71AFE154B98420ED1154B198808AAB1
:10D6A00000230893012313806B46073353600F4810
:10D6B000FFF7AAFF80B216E06B460122DA810E3333
:10D6C00004A9002204924A60094A12880A800122B1
:10D6D0008A708B60073BCB60FFF798FF002801D171
:10D6E000FEF7ACFE00200BB000BDC046FFFF0000FF
:10D6F00010310020A0DF704710B594B012A83C494B
:10D70000042207F09AFC012012A96A464E32FFF764
:10D71000F1FF83B2181E68D10BAC0C930D930F93DD
:10D72000109311936B464E331B8823800223A37002
:10D730000122A27123721123E3702E4BA3802E4885
:10D740000E9007F0CBFF80B2A08260822082201C66
:10D7500009A9FFF7B1FE031C002B46D10BAC274BE8
:10D76000A38027480E9007F0B9FF80B2A0826082A4
:10D770002082201C07A9FFF79FFE031C002B34D139
:10D780000BAC204BA38020480E9007F0A7FF80B27F
:10D79000A08260822082201C05A9FFF78DFE031C59
:10D7A000002B22D10BAC194BA38002F0A5FAE0604C
:10D7B00007F094FF80B2A08260822082201C03A91F
:10D7C000FFF77AFE031C002B0FD10BAC104BA3808C
:10D7D00002F078FAE06007F081FF80B2A0826082F8
:10D7E0002082201C01A9FFF767FE14B010BDC046BF
:10D7F000D87E0200292A0000DC7E0200242A0000D4
:10D80000047F0200282A0000F07E0200262A000081
:10D81000272A000010B50C1C0B78022B0DD1FEF747
:10D820005FFD002801D0FEF769FDE379022B04D1EA
:10D8300002480021052207F022FC10BD183100200B
:10D84000F0B54F464646C0B49BB014AC00226260AF
:10D85000E2606261082323800123A370E370212129
:10D860002171617102212181A172E3722121217351
:10D8700061730521218203218946A174E37421216A
:10D880002175617512AF13923B80BB700223FB7050
:10D8900021237B7101250F2290462026BB7168460B
:10D8A0000021482207F0EBFB304B0093304B1B7DEF
:10D8B000DB07DB0F69460B724B724A468A72039490
:10D8C0000D7405972B4B0893A9238B8442462A405D
:10D8D00032432C23CA540223FF336A460B86332378
:10D8E0004946D15442462A40324334236946CA54F9
:10D8F00042462A4032433C23CA5442462A403243DD
:10D900003D23CA5442462A4032433F23CA5442462A
:10D910002A4032434023CA5442462A4032434123DC
:10D92000CA5442462A4032434323CA5442462A40FC
:10D9300032434423CA5442462A4032434623CA54FF
:10D94000424615402E434723CE540B4806F0CCFBED
:10D9500084B2002C04D109480021052207F08FFB76
:10D96000201C1BB00CBC90469946F0BD15D8010098
:10D970005C4C0020147F0200203100201831002070
:10D9800008B5011C014806F0A5FA08BD20310020A9
:10D99000F0B5474680B482B0061C0F1CFEF794FC1D
:10D9A0000823354A90425ED068460021082207F0DD
:10D9B00066FB6A46177073B2002B02DB2F4B9B5D30
:10D9C00000E000236A469370FEF730FD00283CD14A
:10D9D0002B4B18685968274B254A07F013F84B045E
:10D9E000C60B1E43CF0B264B984602E0192006F0CB
:10D9F00001FFFEF71BFD002815D142461068516853
:10DA00001C4B1B4A06F0FEFF4B04C40B1C43CD0B02
:10DA1000221C2B1C921BBB41002B02D1E6D1C72A32
:10DA2000E4D904231FE0164B18685968114B104ABB
:10DA300006F0E8FF4C04C20B2243CB0B921BBB4108
:10DA4000002B0FD101D1C72A0CD80E480021082283
:10DA50006B4606F091FE84B2231E04D1FEF7EEFC65
:10DA6000231C00E00423181C02B004BC9046F0BD47
:10DA7000E880000000000000FFFF0000C07F0200FF
:10DA80004854002020310020F8B54F464646C0B427
:10DA90008146FEF719FC08232D4A90424ED0FEF72E
:10DAA000C5FC00283CD12B4B18685968274B264AE7
:10DAB00006F0A8FF4B04C60B1E43CF0B254B984620
:10DAC00002E0192006F096FEFEF7B0FC002815D102
:10DAD0004346186859681D4B1B4A06F093FF4B04D8
