:020000021000EC
:10800000008000201D4402008144020083440200DD
:108010000000000000000000000000000000000060
:108020000000000000000000000000008544020085
:1080300000000000000000008744020089440200A4
:108040008B4402008B440200410A02008B44020070
:108050000DE1010000000000F5FB01008B4402006F
:108060008B4402008B4402008DDE01008B44020031
:108070008B4402008B4402008B4402008B440200BC
:108080008B440200CDFF01008B4402008B440200B0
:1080900005010200F5360200290F02008B440200A0
:1080A0008B4402008B44020000000000000000002E
:1080B00000000000000000000000000000000000C0
:1080C000164B002B00D1144B9D46402292029A1A67
:1080D000924600218B460F461348144A121A0CF0A0
:1080E000C2FD0F4B002B00D098470E4B002B00D049
:1080F00098470020002104000D000D48002802D000
:108100000C4800E000BF0CF007FD2000290006F03D
:1081100017FD0CF08DFAC04600000800008000201A
:108120000000000000000000482A00203C5400200D
:10813000000000000000000030B583B0041C0D1CDE
:10814000019001A900220DF0B7F9019BA34206D0CE
:108150001A780023002A03D12860012300E00023BD
:10816000181C03B030BDC04630B583B0041C0D1CD4
:10817000019001A900220DF029FA019BA34206D02B
:108180001A780023002A03D12860012300E000238D
:10819000181C03B030BDC04610B582B00C1C01A93C
:1081A000FFF7CAFF002805D0019BFF2B01D82370E1
:1081B00000E0002002B010BD10B582B00C1C01A977
:1081C000FFF7BAFF002807D0019B1A1C8032FF2A54
:1081D00001D8237000E0002002B010BD10B582B0BD
:1081E0000C1C01A9FFF7A8FF002806D0019B044A38
:1081F000934201D8238000E0002002B010BDC046A9
:10820000FFFF0000F0B583B0041C0D1C171C0378A1
:10821000202B03D101342378202BFBD0201C01A973
:1082200010220DF049F9019BA34221D91C1B022CFD
:1082300020DC6E1C28701A782D2A1DD1012F22D91E
:10824000012508E030700135EDB21A782D2A14D1DD
:108250000136BD4217D05C1C201C01A910220DF074
:108260002BF9019BA34208D91C1B022CEADD04E078
:10827000002502E0002500E001251878434258411E
:108280004042284000E0002003B0F0BDF0B55F465A
:1082900056464D464446F0B487B0041C9046002A2A
:1082A00000D1D3E0002800D1D2E00D1C00266F4899
:1082B0008146201C2C210CF0E7FF002803D0471C2E
:1082C0000023037000E0071C2378002B00D1B4E0EA
:1082D000AA462A78092A00D9BCE0920049468A5861
:1082E0009746202B03D101342378202BFBD0524614
:1082F00053681C60A1E06A78201C6968FFF782FF60
:10830000031C6B7000D098E0A9E0201C04A9FFF7C3
:1083100013FF002800D1A2E0554B049A9A4203D1E2
:10832000201C04A9FFF720FF5346586804A9042223
:108330000CF077FC81E0201C04A9FFF715FF002852
:1083400000D18CE0686804A904220CF06AFC74E097
:108350006968201CFFF742FF00286ED17FE0696842
:10836000201CFFF719FF002867D178E06968201CFE
:10837000FFF722FF002860D171E0201C6968FFF739
:10838000DBFE002859D12378202B03D10134237838
:10839000202BFBD053465A78201C996807F068FBC5
:1083A0000490002801DA002059E05146486804A9E9
:1083B00004220CF036FC40E0201C6968FFF7ECFE5C
:1083C00000283AD104AB2B4905C905C32378202BDB
:1083D00003D101342378202BFBD0201C04A90222D6
:1083E00007F046FB0390002801DA002037E05346EF
:1083F000586803A901220CF014FC1EE01E48006816
:10840000C3185B78590716D4201C07F01BFBAA6819
:108410009346201C0CF056FF021C5846211C07F006
:108420005BFA0490154B984205D068686A7804A9F5
:108430000CF0F7FB01E0002011E00136F6B24645F2
:108440000AD00C35002F09D03C1C32E7002006E092
:10845000002004E0002002E0301C00E0301C07B0E7
:108460003CBC90469946A246AB46F0BDA86C0200C3
:10847000FFFFFF7FD06C0200E0290020DFFDEF7ED0
:10848000F8B5051C0E1C171C0A7808490CF030F9C9
:10849000012F0AD9741CF719054E2278281C311CAB
:1084A0000CF026F90134BC42F7D1F8BDD86C0200BB
:1084B000E06C0200F0B5474680B4141C002922D1BC
:1084C000144B1B689A4220D01348111C0CF0A8F9D9
:1084D000124B1D1D0933FF339846114F114E381CA6
:1084E000211C0CF09DF9301C211C0CF099F901CDD8
:1084F000211C0CF095F94545F1D10B48211C0CF0DD
:108500008FF9002002E0094800E0094804BC9046C9
:10851000F0BDC04640400020EC6C020088700200B4
:10852000F06C0200F46C02004C77020062800000E4
:108530006380000010B5054C201C002180225200F1
:108540000CF091FB024B1C6010BDC0464C2A002071
:10855000482A0020F0B5474680B4071C88464C499D
:108560000CF09EFE002831D03B78002B13D03D2B21
:1085700011D03A1C474D03242868C1184878204080
:10858000191C022800D12039117001321378002BF8
:1085900001D03D2BF0D1381C0CF094FE012805D9F8
:1085A0003B78412B02D17B78542B05D03A48414689
:1085B0000CF036F9394868E0BB780237002B05D15A
:1085C000374841460CF02CF900205EE0354E00247F
:1085D0003568281C0CF076FE021C381C291C0CF097
:1085E0009DFE002805D00134E4B20436422CEFD1C0
:1085F00001E0422C05D1284841460CF011F92A48E7
:1086000043E0251CA400274BE0580CF05BFEFF2341
:1086100018403F18381C25490CF042FE002805D1AF
:108620001F4841460CF0FCF800202EE0381C204981
:108630000CF036FE002802D1013701210EE03B7814
:108640003D2B02D10137022108E00021002B05D08B
:10865000114841460CF0E4F8134816E0AD00154B04
:10866000EB58381C42469847041C134B1B78002BD0
:1086700007D1002801D10A4800E0074841460CF024
:10868000CFF800220C4B1A70201C04BC9046F0BDA1
:10869000EC6C0200E0290020006D02006080000008
:1086A000F86C02008870020061800000086D020012
:1086B0000C6D0200907102004C2B0020F8B54F4663
:1086C0004646C0B4041C514B1B68C31A5A4253415E
:1086D000DBB298469B004E4FFF18381C0CF0F2FDA1
:1086E0008146C6B2201C311C06F0DAFC051C431C76
:1086F00003D1731E9E41F0B284E00D2801D00A28F8
:1087000061D1381C43490CF0CBFD00285BD1042516
:108710006368013B6360002B05DA3F4A1068211C47
:108720000CF02AFC02E0236801332360013DEDB226
:10873000002DEDD101200BF051FE201C002106F090
:10874000AFFC0D2801D00A280DD16368013B63609E
:10875000002B05DA304B1868211C0CF00DFC02E0F0
:108760002368013323604346002B0FD004F008FD3B
:10877000264C256804F0FEFC021C281C27490BF03F
:10878000B7FF216826480CF04BF815E002F018FFFF
:108790000123181AC0B202F019FF1F4C23689D680C
:1087A00002F00EFF021C281C1C490BF0A1FF2368DD
:1087B00099681B480CF034F8381C002104220CF096
:1087C00052FA01201EE02B2D13D1002E0AD0022ECA
:1087D00012D8FF224B461A40381C12490CF012FAEC
:1087E000002809D1FF234A4613402B22FA540120C6
:1087F00008E00020002E05D0381C002104220CF0D7
:1088000032FA00200CBC90469946F8BD404000204A
:10881000502B0020EC6C0200442A0020106D020056
:10882000F86C0200186D0200F0B54F4680B4051CCC
:108830000F1C574E0136FF3692E00A2C04D00D2C47
:1088400002D0082C58D140E0524B1A68504B9A4243
:1088500000D885E0504B1B689B689F4207D14F4B67
:108860001B7A002B03D04E48391C0BF0D9FF494B23
:10887000002219680A70464C1C60201C391CFFF746
:1088800069FE8146201C47490CF00AFD002867D18B
:108890004A46002A64D101200BF0A0FD281C0021CB
:1088A00006F0FEFB0D2801D00A2859D16B68013B68
:1088B0006B60002B05DA384B1868291C0CF05CFB48
:1088C0004EE02B6801332B604AE0324B1A68304B84
:1088D0009A4245D9304B1B689B689F4207D12F4B6A
:1088E0001B7A002B03D03048391C0BF099FF294B21
:1088F0001A68013A1A6033E0264B1B68B3422FD244
:10890000254B186883689F4225D1244B1B7A002B86
:1089100021D0BB68013BBB60002B17DAB9698B42E1
:108920000FDB3A6814703B681A780A2A02D00133C8
:108930003B6010E0184B18680A213A1C0DF0B2FD9C
:1089400009E0211C3A1C0DF0ADFD04E03B681C70F1
:108950003B6801333B600F4A1368591C11601C705F
:108960006B68013B6B60002B06DA0B490868291C19
:108970000CF002FB041C03E02B68581C28601C78D8
:10898000621C00D059E7002004BC9146F0BDC046EF
:108990004C2A0020482A0020442A0020444C002071
:1089A0004C770200EC6C02001C6D020008B5011C43
:1089B0000122034B1A7003480BF032FF08BDC0467A
:1089C0004C2B0020F86C020071DF704776DF704797
:1089D00077DF704700B583B0012902D902290AD098
:1089E00040E0224BDB7A5BB2101C21491A1C0BF0D1
:1089F0007FFE002037E001235B4201931D4901AA5D
:108A00000CF0AEFB002829D001982023021C9A43C9
:108A1000131C28330DD01023021C9A43131C14334B
:108A200007D00423021C9A43131C103201D0002BE0
:108A300016D140B2FFF7CCFF83B2181E13D10B4BF7
:108A4000019ADA7206F058F903F006FB0A4B9842D5
:108A500002D1002003F00AF8002004E0074802E0F9
:108A6000064800E0054803B000BDC046444C002065
:108A7000106D020098720200FFFF0000628000008B
:108A800030B587B0151C012913D804AC201CFFF7A2
:108A90009BFFA279637921790091E1780191A17816
:108AA000029161780391281C03490BF021FE0020FC
:108AB00000E0024807B030BD9C72020062800000F6
:108AC00010B5141C01290FD8A02380225205D358B9
:108AD00001221A40201C05490BF00AFE0448211C03
:108AE0000BF09EFE002000E0024810BDBC720200A8
:108AF0004C7702006280000030B587B0141C012959
:108B000016D804A803F046FB051C002D11D104A9BA
:108B10008A794B7908790090C8780190887802901A
:108B200049780391201C04490BF0E2FD281C00E069
:108B3000024807B030BDC0469C720200628000004F
:108B400070B58AB0041C022900D09CE004A8002162
:108B500015220CF088F8201C2C210CF095FB002825
:108B600003D0451C0023037000E0051C201C69464F
:108B70000E31FFF733FB002800D186E06B46D98920
:108B80008223474AD152281C2C210CF07DFB00285F
:108B900003D0441C0023037000E0041C281C04A91B
:108BA0001022FFF72FFB102871D1201C2C210CF074
:108BB0006BFB061E02D0002303700136201C08A99F
:108BC000FFF70CFB002864D004AB1A8A52BA04AB3E
:108BD0001A82301C2C210CF057FB051E02D00023FA
:108BE00003700135301C69462231FFF7F7FA00287F
:108BF00051D004AB5A8A52BA04AB5A82281C2C2199
:108C00000CF042FB041E02D0002303700134281C28
:108C1000244902AA0CF0A4FA00283ED004AB029822
:108C20001875002C0FD000230193201C01A9FFF719
:108C300083FA002802D0019B012B01D91A482DE0AC
:108C40004A2217498B54164904AA0B1C6C3331CAAB
:108C500031C330CA30C312781A7001224923CA5472
:108C600006F04AF803F0F8F9104B984206D003F0EA
:108C7000F3F91321FFF7AAFE00200FE0002002F015
:108C8000F5FE00200AE0084808E0074806E006482C
:108C900004E0054802E0044800E003480AB070BD63
:108CA000444C0020C072020062800000FFFF000000
:108CB00010B5141C012913D803F0CEF90022094B7A
:108CC000984202D003F0CEF9021C52B2201C064991
:108CD0000BF00EFD0548211C0BF0A2FD002000E06A
:108CE000034810BDFFFF0000987202004C7702009D
:108CF0006280000010B584B0012902D902290CD08D
:108D00003EE0214B1B7DDB07DB0FDBB2101C1F4954
:108D10001A1C0BF0EDFC002033E06A460023D370F0
:108D2000033201A901938B6008230B704A60012272
:108D3000FFF7ACFA012801D0154822E06B46033357
:108D40001B78114A127DD207D20FD2B29A4215D0A7
:108D50000D4A01201840117D0124A14301431175E2
:108D6000002B03D004214923D15405E000214923DD
:108D7000054AD15403F0FEF905F0BEFF002000E0E3
:108D8000034804B010BDC046444C0020106D0200E2
:108D90006280000010B582B0041C02291CD1124B65
:108DA0001B7DDA071AD503F057F9031C08200F4A78
:108DB000934216D06846002108220BF054FF201C75
:108DC00069460822FFF71EFA431EDBB2072B07D8BD
:108DD000684604F089FC04E0054802E0054800E02C
:108DE000034802B010BDC046444C0020FFFF000005
:108DF0006280000063800000F0B557464E4645464D
:108E0000E0B48AB0041C022968D13A4B1B7DD80714
:108E100066D52378002B65D0101CFFF7C7FD04A989
:108E2000354A0B1C61CA61C322CA22C312881A8048
:108E3000324B1E6802969A8802AB9A80304B1868B3
:108E400000909B8869468B80201C2E490CF028FAE4
:108E500043424341E41802AA92462B4B994603250C
:108E6000A84635E066785C2D0BD15046311C0CF0DD
:108E70000BFA002805D05646801B69460D5CA71CDE
:108E8000A6784A46126853195B784046034002218F
:108E9000012B07D004A8291C0CF0F6F9011C481E70
:108EA00081414900281C04F0A3FB00281BD10F209E
:108EB0000BF094FAAE4201D0002E08D10020002120
:108EC00004F096FB00280ED10F200BF087FA3C1C13
:108ED000671C2578002DC5D1002004E00B4802E076
:108EE0000B4800E009480AB01CBC90469946A246CF
:108EF000F0BDC046444C0020EC7202000473020036
:108F00000C730200E8720200E02900206280000079
:108F10006380000010B588B0041C02293CD1224BAC
:108F20001B7DDA073AD503F097F8021C08201F4B87
:108F30009A4236D007A900230B800F230693201CEA
:108F4000FFF74CF9002819D10023009303930593F0
:108F500009236A4613700223537007AA0192144A28
:108F600002926A46137306AB0493201C69460222E0
:108F7000FFF78CF9431EDBB2012B11D807AC201C84
:108F800004F09AFC06980BF029FA00232380201C99
:108F900004F092FC002004E0064802E0064800E0ED
:108FA000044808B010BDC046444C0020FFFF00003C
:108FB00030750200628000006380000000B58FB051
:108FC000022925D10CAA00230C931371FF211170E3
:108FD00000930293039305930693089309930B93CD
:108FE000062369460B70013201920B730132049221
:108FF0000B760132079224228B540DAB0A93042284
:10900000FFF744F90138C0B2032803D9044804E04B
:10901000034802E00CA804F0D3FB0FB000BDC0462B
:1090200062800000F0B5474680B492B0022900D0BB
:10903000EFE00EA97E4B0A1C70CB70C21B68136058
:109040000CAD00220C922A710B926C460F236385A3
:109050002A3401AB019203920492079209920522ED
:109060001A70029507221A7304225A730BAD0595E4
:1090700006911A76089403786E4A1268D3185B78C2
:10908000590774D40023009301A90B7000AA4A6009
:109090000322FFF7FBF8031C0138C0B2022800D8F6
:1090A000BBE062E00B9B032B5FD1009800286CD0E3
:1090B0000CF008F9052858D800245E4E03275E4DB1
:1090C000A84614E00098021913783068C11848784F
:1090D0003840191C022800D120391170009A515DC6
:1090E00040460CF0D1F800283FD00134E4B2251CF2
:1090F00000980CF0E7F88442E4D300984C210CF07F
:10910000C3F8002804D00CAB197801220A431A7066
:10911000009852210CF0B8F8002804D00CAB197854
:1091200002220A431A7000984D210CF0ADF8002875
:1091300004D00CAB197804220A431A70009842211B
:109140000CF0A2F8002804D00CAB197808220A43CE
:109150001A70009846210CF097F8002815D00CAB37
:10916000197810220A431A700FE034485CE001A914
:109170000322FFF78BF8031C0138C0B2022850D934
:109180002E4851E00B9B032B45D10CA804F018FB93
:10919000031C002B48D10CAB1C780020002C43D0C2
:1091A0000B9B022B0DD0032B29D00020012B3BD190
:1091B0000F200BF013F90CA80023037004F000FB40
:1091C00032E00F200BF00AF90CA80023037004F022
:1091D000F7FA031C002B27D10F200BF0FFF80CA887
:1091E000047004F0EDFA031C002B1DD10F200BF0CE
:1091F000F5F80CA80023037004F0E2FA14E06B46C3
:10920000588D0BF0EBF80CA80023037004F0D8FA8B
:109210000AE00A4808E0094806E0032B00D044E7CA
:1092200040E7032BB1D1ADE712B004BC9046F0BDCE
:10923000D8720200E029002014730200628000004E
:1092400010B584B0012902D902290BD03DE0204B92
:109250001B7D9B07DB0F101C1E491A1C0BF048FAE4
:10926000002033E06A460023D370033201A9019342
:109270008B6008230B704A600122FFF707F8012872
:1092800001D0154822E06B4603331B78104A127D4B
:109290009207D20F9A4216D00D4A01201840400082
:1092A000117D0224A14301431175002B03D0052138
:1092B0004923D15405E000214923054AD15402F045
:1092C00059FF05F019FD002000E0034804B010BD6F
:1092D000444C0020106D020062800000000000007D
:1092E00010B586B0041C022933D102F0D1FD031C55
:1092F0000820DA0734D502F0AFFE021C08201C4B10
:109300009A422DD0201C694606311422FEF77AFFBE
:10931000041CC31EDBB20F2B1FD9164820E0164BCE
:1093200018685968114B104A0BF060F94904C00BDA
:109330000843C204920E80235B421A437F210840F7
:10934000034301A802704370A11CC9B203F060FC82
:1093500006E0084804E0074802E0C307FBD5DEE763
:1093600006B010BDC046C046E88000000000000006
:10937000FFFF00006280000030540020C046C0465D
:1093800070B582B0141C002926D102F081FD031CA7
:109390000820DA0721D5124801A905F015F9031CA8
:1093A0000020002B19D0201C0E49019A0BF0A0F9C7
:1093B0000B4D0D4E04E0201C311C019A0BF098F966
:1093C000281C01A905F000F90028F4D10748211C48
:1093D0000BF026FA002000E0054802B070BDC04640
:1093E0005429002038750200407502004C770200B5
:1093F0006280000030B583B0141C002912D102F045
:1094000047FD031C0820DA070DD5084D03E001983D
:10941000211C0BF0A5F9281C01A905F0D5F800289E
:10942000F5D100E0024803B030BDC0465429002009
:109430006280000010B5041C02291DD102F028FD35
:10944000031C0820DA0718D502F006FE031C0820CA
:109450000A4A934211D0201C09490BF021FF4342D4
:109460004341E418201C06F0A7FA064B1968201C9B
:109470000BF0D6F9002000E0034810BDFFFF00000C
:10948000E8720200404000206280000070B5141CA9
:10949000002933D102F0FCFC031C0820DA0730D588
:1094A000184B19684B68013B4B60002B04DA164BD4
:1094B00018680BF061FD03E00B685A1C0A6018780D
:1094C000431C1DD00F4E104D211C0BF049F9336881
:1094D0005A68013A5A60002A04DA2868191C0BF00D
:1094E0004BFD03E01A68511C19601078421CEBD147
:1094F0000648211C0BF094F9002002E0044800E02B
:10950000002070BD40400020442A00204C7702001B
:1095100062800000F8B5071C0D1C161C02F0B8FC98
:10952000041C0820E30741D5002D2FD0022D16D1B1
:109530001BE0381C1E490BF089FE002811D1802247
:10954000D200521B92B2002A0DDB301C19490BF0DD
:10955000CFF81948311C0BF063F9002026E01748BA
:1095600024E0164822E0154820E003F035FD802471
:10957000E400241AA4B203F029FD051C381C10498C
:109580000BF064FE221C0028DDD0D2E703F024FD9E
:10959000041C03F01BFD8023DB001C1BA2B21B1A62
:1095A0009BB2301C07490BF0A3F8D2E7F8BDC046C8
:1095B00054700200C07202004C770200628000000A
:1095C0003870020060750200F0B557464E464546B9
:1095D000E0B484B0061C0D1C171C1C1C274B1B6818
:1095E000984203D1231C5343102B40DC02AA244988
:1095F0000B6802938B8893807B003033937010202C
:10960000391C0AF091FFA046002C2ADD0024FF231C
:10961000034099461B4B9A4600230193201C494660
:109620000AF0D8FF00290AD1002C03D01648311CBB
:109630000BF0F6F8301C51462A1C0BF059F801A823
:10964000291C3A1C0BF0EDFAED192020311C0BF00F
:1096500087F8301C02A9019A0BF04AF801344445FE
:10966000DADB0948311C0BF0DBF8002000E007488A
:1096700004B01CBC90469946A246F0BD4040002074
:1096800054750200487502004C77020063800000A8
:10969000F0B587B0141C022932D10023059304933E
:1096A000039303AB00931D4905AA04AB0BF058FDCF
:1096B000032827D1059D002D26D0049A002A25DDF8
:1096C000039E002E24DD531E012B01D9042A21D133
:1096D000D7B2391C042F00D90421C9B2281C0AF0C2
:1096E00019FF002905D00E48211C0BF099F80D48F0
:1096F00011E0B3B2201C291C3A1CFFF765FF0AE0F9
:10970000084808E0074806E0064804E0054802E08B
:10971000044800E0034807B0F0BDC0465C75020095
:10972000687502006280000008B5022907D0101C8D
:1097300004490122FD23DB00FFF746FF00E0024859
:1097400008BDC046444C00206280000038B50129A5
:109750001DD8114B1968114B994209D104230F4CA4
:1097600080252D010C4819180968A1420BD000E092
:10977000002380210901CB1A101C09491A1C0AF088
:10978000B7FF002006E00433AB42EBD101E005480F
:1097900000E0032038BDC046007800200DF0FECA6E
:1097A0007C7502006280000008B5002907D1101CFA
:1097B0000449042280239B00FFF706FF00E00248D3
:1097C00008BDC046007800206280000076DF704748
:1097D00008B502F041FC064B984205D002F03CFC73
:1097E0001321FFF7F3FF02E0002002F03FF908BD6C
:1097F000FFFF0000F0B5474680B4071C00240D4E63
:10980000A3B29846A3009D59281C0BF05BFD021CD7
:10981000281C391C0BF0F6F9002803D00134052C64
:10982000EED101E0404600E0034800B204BC90469F
:10983000F0BDC04684750200FFFF0000F8B5061CAD
:109840000F1C084D0024301C29680BF091FD0028E6
:1098500001D03C7005E00134E4B204350E2CF2D1A5
:109860000020F8BD8C760200F0B55F4656464D46A6
:109870004446F0B493B0141C1D1C012931D8714D1D
:10988000A623EA5C9200704BD058211C0AF0C8FF56
:10989000A523EB5C012B1ED901256A4F6B4E6C4A48
:1098A00090467B19A0339879326813185B78682248
:1098B000934303D0211C0AF053FF05E08000434688
:1098C000C058211C0AF0ACFF0135EDB2A5235D4A5A
:1098D000D35CAB42E5D85F48211C0AF0A1FF002011
:1098E000A8E0022900D0A0E000231193109306A95C
:1098F00006938B60CB604B618B610B6211AB4B604D
:1099000002230B7310AB0B6106230B766B463F33C0
:10991000CB610322FEF7BAFC80460138C0B20228B0
:1099200000D984E01198FFF765FF002805DA4A485E
:10993000211C0AF075FF49487CE001AB1870119EAC
:109940008000414BC0580BF0BDFC301811900378DB
:10995000002B44D001271222934669460331FFF7BA
:109960006DFF8146002803D0119BC61AF6B203E0B2
:1099700011980BF0A7FCC6B24B465A1E9341DBB2BE
:109980009946FB185A46D31A9E4205DD3448211CDD
:109990000AF046FF09204DE001ABD8191199321C9D
:1099A0000BF03FF9119A921992461192F619F6B2FC
:1099B0004B46002B0DD0731CDFB26A46D37801AA48
:1099C00093559B00224A98580BF07CFC5044119010
:1099D00000E0371C11980378002BBED100E001276E
:1099E0004346012B05D9109B012B22D84A22154949
:1099F0008B544246022A05D96B463F3319789F2380
:109A0000104AD15401A8391C02F06AFF041C002C32
:109A100010D10C4B0321492299549E229D5405F0EC
:109A20006BF9FFF7D5FE201C04E00C4802E00B4860
:109A300000E00A4813B03CBC90469946A246AB46AB
:109A4000F0BDC046444C002084750200E02900208F
:109A50008C7602004C77020098750200628000004C
:109A6000C475020008B50023FFF7FEFE08BDC0461E
:109A700008B50123FFF7F8FE08BDC04638B5051C40
:109A80004923204CE35C033B58424341DCB20129AB
:109A900006D8101C1C49221C0AF02AFE00202FE0C8
:109AA000022922D1281C19490BF0FAFB002823D0E7
:109AB000281C17490BF0CAFB00281DD0281C15498B
:109AC0000BF0EEFB002812D0281C13490BF0BEFB54
:109AD00000280CD0114813E049230A4AD15405F05C
:109AE0000BF9FFF775FE00200AE00C4808E00021A2
:109AF000081C8C4204D0EFE70321012CECD100209C
:109B000038BDC046444C0020106D0200D8750200DC
:109B1000606E020068780200DC750200628000005E
:109B200000B585B0002902D0022903D020E0B4237B
:109B3000039312E000230093029302236A461370FA
:109B400003AB019369460122FEF7A0FB012802D175
:109B5000039B002B01DC08480BE0039802F0E0FEB9
:109B600003214923054AD154FFF732FE002000E0CB
:109B7000014805B000BDC04662800000444C002092
:109B800074DF704776DF70477CDF704730B583B095
:109B9000031C141C012902D9022909D030E01A48FB
:109BA000111C0AF03DFE1948211C0AF039FE25E07F
:109BB000154D281C191C1F220BF0C6FB05F09CF844
:109BC00001AC23780F229343012213430F22134049
:109BD000102213432370281C0BF074FB82B2201C4C
:109BE000291CFFF7D1FF83B2181E0AD102F034FA04
:109BF000074B984202D1002001F038FF002000E01E
:109C0000044803B030BDC046904C00204C770200A1
:109C1000FFFF00006280000010B5141C012910D85D
:109C200002F01AFA084A8318584243413120C01AF8
:109C3000211C0AF095FD0548211C0AF0F1FD0020C9
:109C400000E0034810BDC0460100FFFF4C77020052
:109C50006280000008B500290DD102F0FDF9021C58
:109C60000020064B9A4207D002F0F6F91321FFF7C5
:109C700089FF80B200E0024808BDC046FFFF000037
:109C80006280000008B5002902D102F073FA00E0FA
:109C9000004808BD62800000F0B587B0061C0C1CAF
:109CA000151C02A8294910220AF0BBFF012C02D979
:109CB000022C20D03EE001260024254F02E0013492
:109CC0000136F6B2E3B2002B36D0381C291C0AF05C
:109CD000A7FDFF2222401C3252001E4BD25A281CE4
:109CE0001D490AF005FD032EE9D91C48291C0AF07C
:109CF00097FD002027E01A4C6D460A35271C0837CF
:109D0000301C01A90A220BF0D7FB019E0136002866
:109D100009D0AA1E1288904202DB2A88904201DDF7
:109D2000104810E0208002340435BC42E8D104F031
:109D3000E3FF08E00B4806E0064B1A8F281C064993
:109D40000AF0D6FCBBE707B0F0BDC046C4760200FF
:109D5000F06C0200444C0020987202004C77020024
:109D60007C4C00206280000008B5002901D0022947
:109D700003D1002001F07AFE00E0014808BDC04692
:109D80006280000008B5002903D1FFF7F9FE80B218
:109D900000E0014808BDC0466280000010B582B0F6
:109DA000141C012902D902290DD024E04823134AAA
:109DB000D05C3030211C0AF0D3FC1148211C0AF081
:109DC0002FFD002018E00F4901AA0BF0C9F9012866
:109DD00002D1019B012B01D90B480DE04822074914
:109DE0008A5C934205D05A1E934148228B5404F05A
:109DF00083FF002000E0044802B010BD444C002066
:109E00004C770200987202006280000030B591B079
:109E1000022940D100230F9301A901938B60CB60ED
:109E20004B6101230B701F234B7007AB4B60022368
:109E30000B730FAB0B610222FEF728FA041C0138EA
:109E4000C0B2012829D801AB5A78164D8B23EA54A9
:109E5000281C6C3007A90AF0E4FE02224923EA54C8
:109E6000022C05D10F9B012B19D84A220D498B5486
:109E700004F042FF02F0F0F80B4B984206D002F0DB
:109E8000EBF81321FFF77EFE002009E0002001F02F
:109E9000EDFD002004E0054802E0044800E003482E
:109EA00011B030BD444C0020FFFF00006280000074
:109EB000A4DF7047A5DF7047A6DF7047F8B54F46AF
:109EC0004646C0B480468946171E15DD002600248C
:109ED00063B29B004A469D58281C0BF0F3F9021C04
:109EE0004046291C0BF0F6F9002807D00134E4B2F3
:109EF00066B2BE42ECDB01E000260024B7420BD084
:109F000063B29B004A4698580BF0DCF94246135C5A
:109F10003D2B02D0FF2400E0FF2460B20CBC904631
:109F20009946F8BDF0B5474680B486B0061C0F1CB4
:109F300090461D1C0CAB1C78032C20D002D8002CA2
:109F400003D143E0042C2FD040E001A9FEF7F4F840
:109F50000024002811D03D4B019A9A4203D1301CB5
:109F600001A9FEF701F92C1C042D00D90424E4B248
:109F7000381C01A9221C0AF054FE201C61E00BF0E1
:109F8000A1F9041CC0B2A84200D92C1CE4B2002CD8
:109F900003D100233B70012053E0381C311C221CEC
:109FA0000AF03FFE201C4CE001A92A1CFEF72AF90A
:109FB000041E444501D3854201D2002041E0381CF3
:109FC00001A9221C0AF02DFE201C3AE0301C694633
:109FD000FEF7B2F8002812D01C4B009A9A4203D127
:109FE000301C6946FEF7C0F82C1C042D00D904244F
:109FF000E4B2381C6946221C0AF013FE20E0301C33
:10A0000001A92A1CFEF7FEF8021C041E0AD0804596
:10A0100001D8854201D2002013E0381C01A90AF0C2
:10A0200000FE0DE0301C0BF04DF9041CC0B2A8423C
:10A0300000D92C1CE4B2381C311C221C0AF0F1FDA2
:10A04000201C06B004BC9046F0BDC046FFFFFF7F59
:10A0500010B5141C002802D0012810D01EE0081CE6
:10A06000111C1022FEF7CEF8102819D100232375F9
:10A07000A3781B02E27813432382002015E0131C0F
:10A080001033081C191CFEF7A9F800280AD0238AEF
:10A09000002B09D001232375002006E0034804E0CB
:10A0A000024802E0014800E0004810BD6280000064
:10A0B000F0B583B0061C1C1E032C16D0032B02D84F
:10A0C000002B03D11AE0042B15D017E000230193D5
:10A0D00001A80AF0A6FD012C01D1234900E0234983
:10A0E000301C019A0AF004FB3CE0081C0121331CDF
:10A0F0000AF002FD36E0FEF7C3F933E0022A1BD96D
:10A100000B78002B18D0171E27D019480068C318E9
:10A110005B786824A3430FD0002468239C4604E0A6
:10A1200045196B786546AB4306D00134A74214D974
:10A130000D5D002DF4D110E0042A03D9301CFEF788
:10A140009FF90FE00023019301A80AF06AFD301C7B
:10A150000549019A0AF0CCFA04E0081C0121331CDD
:10A160000AF0CAFC03B0F0BDC07202002077020002
:10A17000E029002008B504480021044A0AF073FDD4
:10A1800004F0BAFD002008BDFC4C00200C070000C4
:10A19000F0B557464E464546E0B486B0041C171C41
:10A1A000022972D1B8233D4AD35C04200A2B6FD018
:10A1B0006846002118220AF056FD201C2C210BF0C5
:10A1C00063F8002803D0451C0023037000E0051C41
:10A1D000002C38D032488046814630E00134237864
:10A1E000202BFBD0201C41460222FFF767FE061EF3
:10A1F0000EDB83004A4698580BF064F8F6B2411C17
:10A200006118301C6A46FFF723FF061E08D000E0E5
:10A21000244E381C2449221C0AF06AFA301C37E00C
:10A22000281C2C210BF030F8002803D0431C0022FE
:10A23000027000E0031C002D05D02C1C1D1C23788F
:10A24000202BCBD0CEE76E46338A002B1FD0134C89
:10A25000B825605D824641005144C9006118BC3197
:10A260006A4649CA49C149CA49C150460130605588
:10A2700004F042FD625D381C0C490AF039FA0C48C2
:10A28000391C0AF0CDFA002002E0064800E005483B
:10A2900006B01CBC90469946A246F0BD444C002036
:10A2A0003478020062800000287702009872020071
:10A2B0004C770200F0B55F4656464D464446F0B432
:10A2C00091B0071C141C022900D006E1B823904A63
:10A2D000D35C0420002B00D113E1B923D35C1E2BE7
:10A2E00000D10EE103A8002134220AF0BCFC381C86
:10A2F0002C210AF0C9FF002803D0451C002303705D
:10A3000000E0051C002F00D1B3E0824A9046914640
:10A31000AAE001373B78202BFBD0381C41460722AE
:10A32000FFF7CCFD061E00DA90E083004A469858FD
:10A330000AF0C8FF431CDB199A46F3B2062B00D97A
:10A3400084E09E00744A93599F46504669460E31F8
:10A35000FDF744FF002879D003AB5B88002B75D054
:10A3600003AB197D1F22914301220A431A75C1E0F4
:10A37000504604A91022FDF745FF102866D103AB13
:10A380001A7D1F218A431A759A791202D9790A43D4
:10A390005A80AFE0504669460B31FDF7FDFE0028BC
:10A3A00054D06B460B331B78002B4FD068460D30D2
:10A3B00069460B3101220AF034FC9BE050466946A5
:10A3C0002131FDF7E9FE002840D003AB5B7D013B66
:10A3D000132B3BD88EE0504669462231FDF7DCFE58
:10A3E000002833D003AB9B7D013B132B2ED881E09B
:10A3F00000264A4B9B46F7B2B3005A46995850463E
:10A400000AF024FF002807D103AB79011A7D1F2031
:10A4100002400A431A756DE00136052EEBD169E062
:10A4200003AB5A7D002A60D19B7D0122002B02D113
:10A43000142300E0131C03AE317D490900915046FE
:10A4400009A9FFF76FFDF075002853D1201C34498E
:10A450003A1C0AF04DF9334853E0431C00220270C5
:10A46000002D06D02F1C1D1C3B78202B00D150E75F
:10A4700053E703AB9B7D002B02D103AB5A7D9A754A
:10A4800003AB5B7D002B2AD003AA927D9A4228D38E
:10A4900003AB5B88002B26D01D4DB823EB5C013B42
:10A4A000DBB29846B926AF5D34225743E819AD3088
:10A4B000FF3003A90AF0B5FBEF19AD37FF3743466C
:10A4C0003B70AB5D0133AB5504F016FCAA5D201C5C
:10A4D00015490AF00DF9002013E0124811E0114867
:10A4E0000FE010480DE00F480BE003AB9B7D002B05
:10A4F000A1D19FE7281C2C210AF0C6FE031EAFD075
:10A50000ABE711B03CBC90469946A246AB46F0BDC5
:10A51000444C0020F0760200D47602000C77020052
:10A520003C77020062800000106D02000000000015
:10A53000F0B5574680B48EB0041C151C022900D01B
:10A54000EDE0894909AA0AF00BFE002800D1E8E0F5
:10A55000099B002B00DCE6E0B92284498A5C934227
:10A5600000DDE2E0013B34225343CB18D62040000B
:10A570001F18201C2C210AF087FE00280DD1391C41
:10A580001831FA7D3B7D5B09281CFFF791FD784867
:10A59000291C0AF045F90020DCE00378002B00D1EB
:10A5A000C5E03C1C183401307A7DBB7D397D4909FA
:10A5B0000091211CFFF7B6FC7A7D824200D9B8E0F9
:10A5C000BA7D824200D2B6E0F87504F095FB01F046
:10A5D00043FD061CBB8D0020834200D1BAE0654BD1
:10A5E0009E4200D18BE07A7830231A4200D186E077
:10A5F00004AB1880398E0CAA022515805080536058
:10A60000301CFFF757FC7D78ED06ED0F04D004AB4E
:10A610001B88DA0700D590E07B7898066FD504ABED
:10A620001B889A076BD5FA7D6B465A8205AB9A4612
:10A63000181C002110220AF016FBBB8D5046038027
:10A640006B425D41013505AB9D706A46123207923F
:10A65000089401F0B3FD002840D1474B18685968B1
:10A66000404B3F4A09F0C2FF4B04C40B1C43CD0BC7
:10A670000122924602E0504609F0B0FE01F09EFD34
:10A68000002817D13C4B18685968364B344A09F0FA
:10A69000ADFF4B04C00B18430290C90B0391029A03
:10A6A000039B121BAB41002B02D1E4D1C72AE2D994
:10A6B00004204FE0304B186859682A4B284A09F0AB
:10A6C00095FF4A049446C20B60460243CB0B121B13
:10A6D000AB41002B11D101D1C72A0ED8301C05A9DE
:10A6E000FFF7EAFB83B2181E34D17B780020DA062C
:10A6F00030D501F06BFD00202CE004202AE07A7DAB
:10A70000BB7D00209A4225D0B98D0AAAFB7D13801B
:10A7100050805060301CFFF7CBFB80B21AE0174826
:10A7200018E0164816E0154814E0144812E01348E3
:10A7300010E012480EE011480CE0FA7D6B465A8298
:10A7400005AD281C002110220AF08DFABB8D2B804C
:10A75000012578E70EB004BC9246F0BDC046C04665
:10A76000E880000000000000C0720200444C00209D
:10A770004C770200FFFF0000305400206280000090
:10A7800010B582B0141C022913D169460731002389
:10A790000B70FDF701FD00280DD06B4607331B78C9
:10A7A000B9220F498A5C002B07D0934207D90D4884
:10A7B00014E00C4812E00B4810E00A480EE0013BA0
:10A7C00034205843F030064BC018031CBC33D4303F
:10A7D000DA7D0121231C0AF08FF9002002B010BDA0
:10A7E000444C002062800000F0B55F4656464D465E
:10A7F0004446F0B483B0171C002979D1434B1B6841
:10A800009A4277D0B823424AD35C002B74D00026FA
:10A810009246404B994640498B467400A419E40087
:10A820005444BC34721C238A381C494609F060FF2A
:10A83000237D012B08D05846391C09F0F1FF381C44
:10A84000211C1022FDF71CFE3448391C09F0E8FFDA
:10A85000B9232F4AD35C002B42D0002490463425E4
:10A8600065434544AD35FF352B78B34231D1621C89
:10A870006B88381C2A4909F03BFF2B7DDB06DB0E79
:10A88000012B0CD02748391C09F0CAFF291D381CA0
:10A890001022FDF7F5FD2448391C09F0C1FF6A7844
:10A8A0006B7DA97D0091287D400980001F4940589B
:10A8B0000190381C1E4909F01BFF291C1831EA7D44
:10A8C0002B7D5B09381CFFF7F3FB1448391C09F09A
:10A8D000A7FF0134E4B2B9230D4AD35CA342BED82A
:10A8E0000136F6B2B8230A4AD35CB34295D805E0E4
:10A8F000104804E0104802E0002000E0002003B00F
:10A900003CBC90469946A246AB46F0BD4040002074
:10A91000444C002050770200647702004C7702001C
:10A920007077020088770200F06C02000C7702005A
:10A93000947702006280000063800000F8B54F4603
:10A940004646C0B4051C0388502B2DD1B923184AA4
:10A95000D35C002B28D0002434239846171C161CE7
:10A9600043466343FB18AD33FF33E9889A8D914228
:10A9700006D1EA8B987D597D914201D8824206D951
:10A980000134E4B2B923F35CA342E9D80CE0DA75F0
:10A99000181C1830291C2031EA8B0AF042F90120DA
:10A9A000A04003F073FDEBE70CBC90469946F8BD60
:10A9B000444C002000000000F8B54F464646C0B4A5
:10A9C00080462D48414609F02BFF2C4B18685968EA
:10A9D000284B274A09F00AFE4B04C60B1E43CF0B37
:10A9E000274B1B68984505D0244B98462C23FF33F2
:10A9F000994610E0A020C0052249802292044358C5
:10AA00001342FCD0A020C0051E4980229204435866
:10AA10001342FCD1E8E704F05FF9002813D0434665
:10AA200018685968134B124A09F0E0FD4B04C40B37
:10AA30001C43CD0B221C2B1C921BBB41002B02D1B3
:10AA4000E9D14A45E7D90D4B18685968094B084ABE
:10AA500009F0CCFD4904C00B0843861B312E03D8F6
:10AA60003220801B09F0BAFC0CBC90469946F8BD18
:10AA7000E880000000000000F86C02003054002064
:10AA8000CC32002004050000F0B5474680B494B0F5
:10AA900080460F1C151C80235B055A6E1B6E0FAC85
:10AAA000201C26490AF03AFB04F03CFF021C0AAEC7
:10AAB000301C23490AF032FB00230293214B0393FD
:10AAC00004960594204B06930793204B089304F0BB
:10AAD00043FF0990002F02D0022F0ED026E003ACD6
:10AAE0000AAF1B4E01CC291C09F09AFE301C291C10
:10AAF00009F096FEBC42F5D11AE04046154901AA7C
:10AB00000AF02EFB002803D0019B5A1E062A01D909
:10AB100011480EE09B0002AA9858291C09F080FEFB
:10AB20000B48291C09F07CFE002002E00A4800E0E6
:10AB3000002014B004BC9046F0BDC0463C78020032
:10AB40004878020054780200647802006C780200B1
:10AB50004C770200987202006280000038B5051C34
:10AB6000141C012902D902290CD01FE0124B187ABB
:10AB70003030111C09F0F4FD1048211C09F050FE82
:10AB8000002018E00AF09EFB012811D12B78303B01
:10AB9000DBB2012B0ED8084A127A00209A420AD062
:10ABA000054A137204F0A8F8002004E0044802E00B
:10ABB000034800E0024838BD444C00204C770200B6
:10ABC0006280000008B500290AD1101CFFF7F4FECE
:10ABD000BFF34F8F034A044BDA60BFF34F8FFEE79A
:10ABE000024808BD0400FA0500ED00E062800000A4
:10ABF00010B5141C00290ED104F0F2F801F0BAFAD5
:10AC0000201CFFF7D9FEBFF34F8F044A044BDA60D4
:10AC1000BFF34F8FFEE7034810BDC0460400FA059E
:10AC200000ED00E06280000008B5002906D1101C8C
:10AC3000FFF7C2FE01F046FB002000E0004808BD1F
:10AC40006280000010B5002923D1134B1B689A4283
:10AC50000CD102F095FA104B1C6802F08BFA021C22
:10AC6000201C0E4909F044FD002013E000F0A8FC70
:10AC70000123181AC0B200F0A9FC094B1B689C689C
:10AC800000F09EFC021C201C044909F031FD00204C
:10AC900000E0044810BDC04640400020106D020096
:10ACA000442A00206280000010B582B0141C0229E2
:10ACB00018D1114901AA0AF053FA002814D00199B9
:10ACC000072913D8022913D0C9B20220002202F0AA
:10ACD0005BFF02F093FF021C201C084909F008FDED
:10ACE000002006E0064804E0054802E0044800E0D1
:10ACF000034802B010BDC046987202007878020086
:10AD00006280000010B5141C00290AD102F064FF13
:10AD100002F088FF021C201C034909F0E9FC002016
:10AD200000E0024810BDC046787802006280000052
:10AD300039DF70473ADF704752DF704710B582B095
:10AD4000141C012918D801A8FFF7F6FF002811D11B
:10AD5000019BD917890FCB189A10032003405B1A67
:10AD60009900CB1899005B18201C054909F0C0FC1C
:10AD7000002002E080B200E0024802B010BDC046F0
:10AD8000A47802006280000010B582B0141C022971
:10AD90002AD101235B420193174901AA0AF0E0F985
:10ADA000002823D0019B1F2B22D8C133FF339B00E7
:10ADB00080218902A022D20599501048211C09F057
:10ADC0002FFD322009F00AFB0020002100F004FCD6
:10ADD0000120002100F000FC0121A023DB008022E3
:10ADE000D205D150002004E0054802E0044800E00C
:10ADF000034802B010BDC04698720200F86C020011
:10AE000062800000F0B5474680B486B090460029C5
:10AE100002D0022904D056E004226B46DA750BE01A
:10AE200069461731FDF7B8F900284ED06B46173345
:10AE30001B78013B0F2B4AD800256C4603340027B2
:10AE40006E4617362770201CFFF772FF83B2002B67
:10AE500019D12378002B12D03178491B0A1CC9B2B2
:10AE6000994200D91A1CD1B2227001AB5819FFF7D0
:10AE700061FF80B200282BD12378ED18EDB2337832
:10AE8000AB42DFD801E0181C22E01348414609F02C
:10AE9000C7FC6B4617331B78002B0ED000240F4ED7
:10AEA0006D46173501AB1A5D4046311C09F020FC98
:10AEB0000134E4B22B78A342F4D80948414609F0A2
:10AEC000AFFC002004E0074802E0064800E0054827
:10AED00006B004BC9046F0BDB0780200D86C020009
:10AEE0004C7702006280000010B582B0002902D0C9
:10AEF000022909D034E01C4B9B7A101C1B491A1CF8
:10AF000009F0F6FB00202CE069460731FDF744F913
:10AF1000002804D06B4607331B78012B01D9144855
:10AF20001FE0114A927A9A4218D0002B03D10120D7
:10AF3000002100F051FB6C46E2790B4B9A7203F052
:10AF4000DBFEE379012B09D101F086F8094BC1182A
:10AF50004B1E9941C9B2012000F03EFB002000E0E9
:10AF6000034802B010BDC046444C0020106D0200E2
:10AF7000628000000100FFFFF0B5474680B492B048
:10AF800094460CAA354B141C1D1CC4CDC4C4C4CD9E
:10AF9000C4C409AC1833C4CBC4C4002902D00229EC
:10AFA0000CD056E02E4B597A89000CABCB5860463A
:10AFB0002C491A1C09F09CFB00204BE00123019353
:10AFC0000023029303A907230B7006224A7001AAEB
:10AFD0004A600CAA8A600B7303234B7302AB0B61AC
:10AFE00009AB4B610222FDF751F900282FD001284F
:10AFF00003D9019B052B2AD102E0019B052B26DCFE
:10B00000174A527ADBB29A4208D00020002100F0A1
:10B01000E3FA134B019E5E7203F06EFE019F052F53
:10B0200013D1029B022B0AD1002000F0F5FB012373
:10B03000011C5940C9B2002000F0CEFA05E05A1EAA
:10B040009341D9B2002000F0C7FA002002E0064880
:10B0500000E0054812B004BC9046F0BD80780200C4
:10B06000444C0020B478020062800000F0B54F46E6
:10B070004646C0B483B0161C002902D0022924D051
:10B0800038E003240125224B98460027214B99469E
:10B09000E0B202F00FFD00280BD0002D03D148468E
:10B0A000311C09F0BDFB301C4146221C09F020FB7D
:10B0B0003D1C0134782CEBD10020002D22D1164804
:10B0C000311C09F0ADFB00201CE000230193134963
:10B0D00001AA0AF045F8002803D00198C31E742B7A
:10B0E0000AD90F480EE0301C0E49019A09F000FB06
:10B0F000002007E00A4805E0C0B202F0DBFC0028AF
:10B10000F6D0F0E703B00CBC90469946F0BDC046BF
:10B11000F0780200F06C02004C770200F878020030
:10B1200062800000FC780200011C00201F2919D851
:10B130000D4B1878002810D00C4B1B788B420ED08A
:10B140000B4B0138C0B2181803E01A7801338A4259
:10B1500007D08342F9D1012004E0012002E0002061
:10B1600000E000207047C04618790200087902000C
:10B170000979020030B583B0141C022941D1264957
:10B1800001AA6B4609F0ECFF012805D002283AD14C
:10B19000009D012D39D812E0A223DB00A022D205A8
:10B1A000D358019AD340012018403030211C09F0B7
:10B1B000D7FA1A48211C09F033FB00202AE0184B6B
:10B1C000A022D205D358019CE340DA071FD5201CEA
:10B1D000FFF7AAFF00281CD0002D08D10123A340AF
:10B1E0001C1C104BA022D205D450002012E00123D9
:10B1F000A3401C1CA123DB00A022D205D4500020B8
:10B2000008E0094806E0084804E0074802E006486C
:10B2100000E0054803B030BD607502004C770200C5
:10B22000140500000C0500006280000030B583B0FA
:10B23000141C022964D1384901AA6B4609F090FF19
:10B24000012805D002285DD1009D032D5CD823E0A4
:10B25000324BA022D205D258019BDA400120D107FF
:10B260000FD49B00A022D2059B18E022D2009A584E
:10B270000320510705D4E022D20098580007C00FE0
:10B28000400000903030211C09F06AFA2448211C4B
:10B2900009F0C6FA00203CE0019C201CFFF744FFA7
:10B2A000002833D0012D08D002DC002D0ED02FE075
:10B2B000022D13D0032D1AD02AE0C134FF34A4008C
:10B2C0000322A023DB05E250002022E0C134FF343A
:10B2D000A4000020A023DB05E0501AE0C134FF34B5
:10B2E000A4000C22A023DB05E250002011E0C134B1
:10B2F000FF34A4000422A023DB05E250002008E074
:10B30000084806E0074804E0064802E0054800E077
:10B31000002003B030BDC046607502001405000077
:10B320004C7702006280000010B586B0022925D15A
:10B33000174905AA04AB09F013FF022820D1059C88
:10B34000201CFFF7F1FE00281CD0049A642A1BD8A9
:10B35000684600210E2209F086FC01236A4613701C
:10B3600054701371022353719372684602F07AFC91
:10B370000020049902F066FD002006E0054804E084
:10B38000044802E0034800E0024806B010BDC04691
:10B39000607502006280000070B582B0141C012943
:10B3A00002D902290CD057E02D4B5A7D1207520EBC
:10B3B0002C4BD258201C2C4909F09AF900204CE063
:10B3C00001A9FCF7D1FE002844D0019A254B1B6847
:10B3D0009A420FD0254901230868824204D1DDB288
:10B3E0006AB2002A08DA35E00133DBB20831102BEB
:10B3F000F2D12FE0002300256DB2194A527D1207C9
:10B40000120F954224D0164A0F210B40517D0F2078
:10B4100081430B435375201CFDF7C8FA142008F034
:10B42000DDFF134C0126E661052008F0D7FFED0093
:10B430000C4B5D196A680F4BE250002384225200C6
:10B44000A3508E225200A350A660266003F054FC45
:10B45000002002E0084800E0074802B070BDC04686
:10B46000444C00201C790200787802002479020004
:10B4700000200040240500006280000010B584B068
:10B48000141C012902D902290DD06EE0384B5A7DD7
:10B49000D206D20F01235A40D2B2201C354909F0FE
:10B4A00027F9002062E06A460023D370033201A925
:10B4B00001938B6008230B704A600122FCF7E6FEC3
:10B4C000012801D02C4851E06A46D17801234B4035
:10B4D000D370274A527DD206D20F9A4243D0244AD3
:10B4E00001210B401901537D102083430B435375F9
:10B4F000201CFDF75BFA142008F070FF1F4B01229F
:10B50000DA61052008F06AFF6B4603331B78002BD5
:10B510000ED01A4B1A4A99580120814399500122A2
:10B520005242A221C9005A50A121C9005A500DE02F
:10B53000124B134A98580121014399500A21A22223
:10B54000D20099500821A122D20099500B4B002221
:10B55000842149005A508E2149005A5001229A6094
:10B560001A6003F0C9FB002000E0034804B010BDDE
:10B57000444C0020106D020062800000002000405A
:10B580006C05000048DF70477047C046830702D54E
:10B590000122044B1A708B0702D50022014B1A704E
:10B5A0007047C0465A2B0020014B18887047C04690
:10B5B000582B0020014B18887047C046242C0020CF
:10B5C000014B18787047C0465A2B0020014B187069
:10B5D0007047C0465A2B0020012805D10E4B9B7A9C
:10B5E0001320002B04D115E0434243411320C01A1D
:10B5F000002908D001238340181CA123DB00A022CE
:10B60000D205D05006E001238340181C034BA02232
:10B61000D205D0507047C046444C00200C050000B5
:10B6200030B58DB0A823DB00664AD1580023664AA6
:10B63000914204D8A823DB00624AD3589BB2634AE4
:10B640001380A823DB00624AD15800235E4A91424E
:10B6500004D8A823DB005E4AD3589BB25D4A13800E
:10B66000002300932020082106225B4B04F0A8FF52
:10B67000002803D00021002200F00CFC02205749D2
:10B6800004F02AFB002803D00021002200F002FC75
:10B69000092053494822002305F00CFC002803D060
:10B6A0000021002200F0F6FB4E4805F033FC80B28A
:10B6B000002800D083E007F0A7FA80B200287ED1EE
:10B6C00003F02CFC00287AD109A80B23037009236E
:10B6D0004370082383700A23C370434B5B7DD906F4
:10B6E000C90F01224A400271002242711B075B0E02
:10B6F0003E49CB185B6883606B46DA810E333C4A67
:10B700000492802205923B4906910792009304A976
:10B71000394A012305F0F4F980B200284FD1374BA4
:10B720001B689868002109F069FCA023DB050C2147
:10B73000E822D2009950A222D2009B58DA030BD4FF
:10B740002F4808F04BFEA223DB00A022D205D358DD
:10B75000DA0301D403F044FBA024E4050C25294BB3
:10B76000E55002F0CFF902F01BFE274BE55068468A
:10B77000233002210222254B04F0ECFA80B200288B
:10B780001DD16B462333187804F010FBA222D2009F
:10B79000A1588907C90F1E4A11700322E921C90067
:10B7A00062501C49625001200021FFF715FF01245F
:10B7B0006442201C02F062FE201C02F073FE0DB0F9
:10B7C00030BDC04600900040FEFF0000582B002016
:10B7D00000A00040242C0020A82C0020F82F0020DE
:10B7E0005C2B0020752A0200444C00201C790200CA
:10B7F000A42B0020282C002089B50100442A002019
:10B80000DC0500001C070000040700008DB50100E6
:10B810005A2B00204C070000431E98411230044B65
:10B82000A022D205D358C340181C012318407047EA
:10B8300004050000014B587A7047C046444C002074
:10B84000031C0020002B08D1A223DB00A022D2057C
:10B85000D058C009012358401840704708B5FFF779
:10B8600091FE08BD00000000F0B557464E46454623
:10B87000E0B48046264B18685968244B224A08F0E9
:10B88000B5FE4B04C60B1E43CF0B214B9946F42348
:10B89000FF339A46404605F07FFA002814D04B4605
:10B8A00018685968194B184A08F0A0FE4B04C40BDD
:10B8B0001C43CD0B221C2B1C921BBB41002B17D110
:10B8C000E8D15245E6D913E0114B186859680F4B7F
:10B8D0000D4A08F08BFE4C04C20B2243CB0B921B8B
:10B8E000BB41002B04D108D1F423FF339A4204D981
:10B8F00005F05EFA0120404200E040461CBC904644
:10B900009946A246F0BDC046E88000000000000055
:10B9100030540020C046C04600B583B068460730AA
:10B9200005F026FA002802D16B46D87901E0012003
:10B93000404203B000BDC04600B583B06946073140
:10B9400005F046FA002802D16B46D87901E00120C3
:10B95000404203B000BDC04672DF704773DF7047DE
:10B9600074DF7047A0DF704760DF704768DF7047A3
:10B9700008B507F07FF808BD38B50024064D2B192F
:10B98000DA79002A03D01B69002B00D098471434C1
:10B99000502CF4D1002038BD0029002030B58FB0E4
:10B9A00003282CD869463731164BDB7A0B700CAA6A
:10B9B000154B84002518AD005D19AD88158024183D
:10B9C000A4001B199B7993700023009302930493A6
:10B9D000059306930793089309930A930B93062301
:10B9E0006C46E3700191012323810392022800D168
:10B9F000A3706846002105F0B1FC80B200E0034866
:10BA00000FB030BD444C00200029002062800000AF
:10BA100030B597B010AC0223237015236370124D1C
:10BA2000291C6C3168464230152209F0FAF80DAA3B
:10BA30008223EB5A1380172393800F9401A80023CD
:10BA4000019343608360C360036143618361C361A9
:10BA500003628362C3620423C3704262002105F063
:10BA60007DFC80B217B030BD444C002070B592B060
:10BA7000061CFFF775FF0CAC00230C930D930E937F
:10BA80000F9311934C4DA88FC000052108F04CFD79
:10BA90002082EB8F6382002E04D00CAB474A1A82BF
:10BAA00000225A82444A4923D15C052900D980E00A
:10BAB0008B00434AD3589F463F4B1B7D0020DA073B
:10BAC00004D5042149233C4AD15402203A4B1B7D22
:10BAD0009A0704D505214923374AD1540320FFF79B
:10BAE0005DFF031C002B38D064E03648C17F002284
:10BAF0000023FFF731FF83B2181E2ED05AE02F2308
:10BB0000314AD05C431E98414000FFF747FF031CB9
:10BB1000002B22D04EE043232B4AD35C0020002B85
:10BB200000D00320FFF73AFF031C002B15D041E0A3
:10BB30000CABA0221A8200225A82FFF769FF031C75
:10BB4000002B0AD036E000F013FF002803D00120BC
:10BB5000FFF724FF01E000F011FF002300930193A1
:10BB60000293039304930593069307930893099311
:10BB70000A930B93154809F0A5FB00231D2282426E
:10BB80005B4101336A461370104809F09BFB0023A8
:10BB90001D2800D91D236A4653700020694605F010
:10BBA000DDFB83B2181E05D10CA8FFF7D7FE80B2CB
:10BBB00000E0072012B070BD444C00206A03000072
:10BBC0009C790200B04C002000290020904C0020FD
:10BBD000F0B55F4656464D464446F0B48BB008A8D3
:10BBE0007B4B021C12CB12C2FFF7BEFE83B2181EA3
:10BBF00000D0E5E0774805F083F983B2181E00D045
:10BC0000DEE0754805F086F983B2181E00D0D7E053
:10BC100080235B055B6B022B11D101AC201C002142
:10BC2000082209F020F82278012313432370012011
:10BC3000211CFFF79BFE80B2002800D0C0E000F07E
:10BC40006DF900F0EBFA01F087FB644B644A127D5A
:10BC5000D007C00F2F2158549207D20F43215A54B6
:10BC60001C1C1E1C50360127251CE379002B0FD00D
:10BC70002068002801D1A77105E001F09BFAA071AE
:10BC8000012800D89BE0AB68002B01D0A879984729
:10BC90001434B442E8D1B823514AD35C002B00D10C
:10BCA00083E000269346914673009B19DB005B44BA
:10BCB000BC339A461B7D012B06D0504601F07AFA20
:10BCC00053461875012870D95446238A69460B805B
:10BCD000237D8B70012052461232FFF743FE80B263
:10BCE000002862D1B9233E4CE35C002B55D00025DF
:10BCF0003427A0463C1C6C434C44AD34FF342378BD
:10BD0000B34243D1237DDB06DB0E012B0BD0201D7C
:10BD100001F050FA1F231840237D1F229343034351
:10BD20002375012832DD01A800230193436083605D
:10BD3000C3600361436183615246538A0380637821
:10BD4000837063888380237DDB06DB0E8371037A37
:10BD500003229343022213430372231C1833C3604C
:10BD6000637D0382A37D4382E37D8382C3780F22B8
:10BD70009343012213430F22134010221343C37035
:10BD8000211C2C3101F040FA00280ED10135EDB212
:10BD9000B9234446E35CAB42ACD80136F6B2B823D3
:10BDA0000F4AD35CB34200D97EE748230C4AD35CE8
:10BDB0000020002B04D0FFF759FE002000E00720F0
:10BDC0000BB03CBC90469946A246AB46F0BDC0467F
:10BDD000B4790200E5BD010071B90100002900201D
:10BDE000444C002070B586B0051C00F063F9281C97
:10BDF00006F07EFC281C00F02DFA2B88112B1FD09A
:10BE0000192B25D0102B3AD101200121FFF7E4FB9B
:10BE10004A231D4AD35C002B31D0002300930193A9
:10BE2000029303930493059303236A461370A0239C
:10BE300013826846FFF792FD80B200281FD021E0F0
:10BE400001200021FFF7C8FB0020FFF70FFE16E0DE
:10BE5000AB79002B13D10120FFF708FE0FE0331957
:10BE6000DA79002A04D0DB68002B01D0281C98471F
:10BE70001434502CF3D1281CFEF760FD02E000249E
:10BE8000024EECE706B070BD444C002000290020B3
:10BE900001207047BFF34F8F024A034BDA60BFF3B4
:10BEA0004F8FFEE70400FA0500ED00E077DF7047F2
:10BEB00078DF70477ADF70477CDF704784DF704738
:10BEC000A7DF704762DF70477047C04608B5021CA5
:10BED0000B78122B10D0D9B2122902D8112B05D011
:10BEE00016E0142B0FD0212B0DD011E00948111CA6
:10BEF000042208F096FE0BE0064805F0F9FE06481D
:10BF000005F0F6FE04E00448111C042208F089FE46
:10BF1000002008BD2C3000202430002030B58BB02C
:10BF2000434805F0E5FE434805F0E2FEFFF7B0FFA9
:10BF300040080124204001AB187003AB0022059299
:10BF40003D4A039201221A710D225A7107229A71F9
:10BF50001022DA71FFF79CFF044209D001A805F016
:10BF600021FD80B2002803D1344803A905F0B6FDB5
:10BF7000334C201CFFF7A6FF2278324B1A70324B4D
:10BF80000B201856FFF792FF83B2181E4ED1FFF711
:10BF90007FFF031C0020D90748D56A4613780F227B
:10BFA0009343012213430F221340102213436C4684
:10BFB0002370264C201C09F085F982B26846211CAA
:10BFC000FFF77AFF83B2181E30D149231E4AD35C93
:10BFD0000020042B00D11E48FFF76AFF83B2181E11
:10BFE00024D101AC184D288F8000052108F04EFAAD
:10BFF0002080688F8000052108F048FA60800023C7
:10C00000A38096235B00E380201CFFF753FF83B2DD
:10C01000181E0BD103A80F4A031C32CA32C332CAFE
:10C0200032C312681A6006F01DFB80B20BB030BD3F
:10C030002C30002024300020CDBE0100283000200C
:10C040003130002030300020444C0020904C002043
:10C05000C1030000F8790200014B18887047C04600
:10C0600050290020014B0020185670472030002036
:10C07000054B1B78FF2B05D0034B9878FF38431EE8
:10C08000984100E0002070472430002000B585B0C2
:10C090000023009301930293039301236A461370D4
:10C0A0000348694605F0B8FD80B205B000BDC04642
:10C0B0002430002010B5041CFFF7EAFEC30702D5A8
:10C0C000201C05F015FF2388112B2ED004D8012B3E
:10C0D00009D0102B15D041E01A2B35D0522B37D078
:10C0E000182B3BD134E01E4B1A78237AD3181D4A03
:10C0F00011781A1CDBB28B4200D90A1C184B1A703B
:10C100002CE0A288184B1A80FFF7C2FEC30705D5A2
:10C11000154B188801210022FFF7D0FE022002F003
:10C12000ADF9012002F09EF918E0012252420E4BB7
:10C130001A800C4B1A780A4B1A70012002F09EF9F3
:10C14000022002F08FF909E0A279084B1A7005E08D
:10C15000054B18880C21064AFFF7B2FE10BDC046F9
:10C1600030300020313000205029002020300020C5
:10C17000FFFF000008B5FFF78BFEC30704D5034897
:10C1800005F0F0FC80B200E0014808BD2830002036
:10C190006380000008B5011C054B1A880820054B78
:10C1A0009A4203D0044805F0B1FD80B208BDC046F4
:10C1B00050290020FFFF00002C300020024B18788F
:10C1C000431E9841C0B2704730300020024B1A78AD
:10C1D000013AD2B21A7070473030002044DF704705
:10C1E00011DF704713DF704774DF704776DF7047E9
:10C1F00008B5FFF731FF084B984204D0FFF72CFF3A
:10C200001321FFF7F3FFFFF7EFFF01200021FFF7F6
:10C21000E3F906F065FA08BDFFFF000010B584B031
:10C22000FFF7C2F901A90880074B4B6000238B6020
:10C23000064806F0F9FF84B2002C02D1044806F04B
:10C24000E1FF201C04B010BD953002003430002006
:10C25000F1C1010008B5011C014807F05DF908BDF6
:10C2600034300020064C064D061C064FF0B4002466
:10C27000002500260027F0B403480047704700005F
:10C28000FFFFFFFF00000021F9FFFFFF0A4B0B4AF1
:10C29000D22189005A50C22189005A50016881F385
:10C2A000088840680022EFF305839A42DAD1044CF3
:10C2B000A64600477047C04600100140010001003B
:10C2C000FFFFFFFF10B5FFF793FFB120FFF786FFD9
:10C2D00083B2181E19D1FFF783FF83B2181E14D141
:10C2E0000A4B5869FFF77EFF84B2201E0DD1084B20
:10C2F0008021C903C02252009950196880229950A8
:10C30000024B5869FFF7C2FF201C10BD001000103F
:10C3100000E100E072DF704777DF7047A0DF704711
:10C32000A4DF7047A8DF704730B589B0051C854C85
:10C33000201C00214E2208F096FC00232371824A23
:10C34000928F6280814A137007A982239B010B8020
:10C350008D700120221CFFF7E1FF83B2181E00D070
:10C36000EEE0019302930593069376490B886846A5
:10C37000038007AB9B78837101231122C270744A3A
:10C38000828006220272022282700A1D0392838238
:10C3900043820382063100F037FF031C002B00D0DC
:10C3A000CEE06C4B68468380037A032293430222DB
:10C3B0001343037208238370674B039301230382A3
:10C3C00010234382002383825E490E3100F01CFF5C
:10C3D000031C002B00D0B3E0604B69468B800B7AC6
:10C3E00003229343012213430B72002308228A7015
:10C3F0000393012268460A8210224A828B825149A5
:10C40000163100F001FF031C002B00D098E0544BC4
:10C4100068468380027A03239A4302231A430272F6
:10C420000822134383704F4B03930122028212228E
:10C430004282A63BA5229B5C838242491E3100F0CA
:10C44000E3FE031C002B7BD1474B6A469380127A94
:10C4500003239A4302231A436846027208221343B5
:10C460008370424B039301238382438203823549C5
:10C47000263100F0C9FE031C002B61D13C4B6946FC
:10C480008B800A7A03239A4302231A430A720822F2
:10C4900013438B70374B039304238B8268464B8284
:10C4A0000B8228492E3100F0AFFE031C002B47D130
:10C4B000314B6A469380127A03239A4302231A432C
:10C4C000684602720822134383702C4B03930123A6
:10C4D0008382438203821B49363100F095FE031CA0
:10C4E000002B2DD1264B69468B800A7A03239A4371
:10C4F00002231A430A7208221A438A701149CA1881
:10C5000003926A4693826846538213823E3100F05A
:10C510007BFE031C002B13D11A4B68468380027AE2
:10C5200003239A4301231A430272082282700022D5
:10C5300003928382438203820249463100F064FE03
:10C5400009B030BD64300020444C0020C8300020C9
:10C550008120000082200000D04C002083200000B9
:10C5600084200000EA4C002085200000E14C0020DF
:10C5700086200000E44C002087200000E84C0020CA
:10C580008820000089200000F0B54F464646C0B420
:10C5900085B0041C0388512B00D054E18379022B11
:10C5A00000D050E1028BAA4B1B889A4200D04AE18E
:10C5B000837A012B00D046E1038AA6495A1892B229
:10C5C000012A25D8A24A1279002A15D09C23A24A12
:10C5D000D25C038C934200D02DE122309F4908F0B9
:10C5E00011FB002800D026E1228A9A4BD218534230
:10C5F0005A41974B1A7114E1994A934200D01AE1BB
:10C60000038C013B9BB200220E2B00D8EFE012E11D
:10C610008F4B1B79002B00D00DE102E1218CA5236B
:10C620008D4AD15402F068FB00228E4B1A70DEE076
:10C6300002F062FB0022DAE0238C042B00D0C4E07D
:10C640000023271C08372025A9461026B0460421C0
:10C65000FA18907EC2B2151C4E46B5436DB228350D
:10C660000CD0161C4546AE4376B2143606D08A432B
:10C6700052B2103202D0884300D0A9E00133042B1B
:10C68000E6D1754BA4229A5CA218203295780B2132
:10C6900059566BB20022994200D1A8E0181CFFF74E
:10C6A0003BFE6D4BDD7202F027FB00229FE0238CE6
:10C6B000012B00D08FE02223E35C032B00D98DE017
:10C6C000A42265498A5C9A4200D18AE00A1CCB18F0
:10C6D00098331D7A0B2151566BB20022994200D13A
:10C6E00085E0181CFFF718FE5B4BDD7202F004FBBF
:10C6F00000227CE0238C022B02D00E22FF3276E057
:10C700006846211C2231022208F08BFA69460A8809
:10C71000002A06D1002149234F4AD15402F0ECFAF5
:10C720001DE0131C132A00D814239AB2A0218901FA
:10C730008A4201D9A0239B019AB26D462B80444BBB
:10C740005B88002B00D079E0434B032049215854EB
:10C750009B8F934201D0404B9A8702F0CDFA002282
:10C7600045E0238C012B3ED12223E35C002293423F
:10C770003DD0394D281C8C30111C2C2208F073FA46
:10C7800010229C23EA54EE229F23EA540422A02381
:10C79000EA54FC22A223EA54F422A323EA540122FD
:10C7A000A423EA540A22A523EA54281CA6302E49C1
:10C7B0000B2208F036FA281CB1300021072208F0BD
:10C7C00052FA02F099FA002211E00E22FF320EE036
:10C7D0000422FF320BE00E22FF3208E00422FF3277
:10C7E00005E0002203E00E22FF3200E000220023D9
:10C7F000009301930293039302236E4633706946BC
:10C80000B280A088FFF78EFD228A184B9A421AD177
:10C810000F4B5B88002B16D00F4B9A8F0C4B5A8016
:10C8200011E0238A124A9B189AB2052ADED8930097
:10C83000104AD3589F4684225200D8E7064B9B8F5C
:10C84000934288D18BE705B00CBC90469946F0BD69
:10C85000643000207EDFFFFF444C0020D04C0020DD
:10C8600082200000C83000202C7A020088200000BE
:10C870007CDFFFFF147A020070B5154B1B78002B8C
:10C880001FD0144CA568144B186859680F4B0E4AFA
:10C8900007F0ACFE4E04C20B3243CB0B206861683C
:10C8A000121A8B41002B01D195420AD80022084B65
:10C8B0001A70FFF7D1FB094B984202D10020FFF715
:10C8C000D5F8002070BDC046E880000000000000E0
:10C8D000C8300020B830002030540020FFFF000096
:10C8E00030B583B0031C0C1C0B4D281C191C221CDA
:10C8F00008F097F9A63DA523EC54FFF7ADFB074BD5
:10C90000D98B0023009301936B461C806A46FFF786
:10C9100007FD80B203B030BDEA4C00206430002037
:10C9200010B5002814D001220D4B1A700D4CFA23BB
:10C930009B005843A0600C4B18685968074B064A87
:10C9400007F054FE4B04C00B18432060C90B616014
:10C9500010BDC046C046C046E88000000000000090
:10C96000C8300020B830002030540020C046C046F7
:10C97000014B18787047C046C830002030B589B0E8
:10C9800001AB0022039204920592069207920322C1
:10C990001A705A7018495980184AA520105C053041
:10C9A000187116205871D980102119729F21515C7D
:10C9B00059729E23D35C002B05D001AB104ADA805C
:10C9C0005A8000221A7201AC0E4D68460E30291CA6
:10C9D000122208F026F9A63DAA8F0B4B5A80217827
:10C9E0002379C9180231C9B2201C00220023FFF7A5
:10C9F00091FC09B030BDC046AAFEFFFF444C0020A8
:10CA0000D8FEFFFFEA4C002064300020A0DF704712
:10CA1000A5DF7047A6DF7047F0B5474680B48AB0FF
:10CA2000FFF71AFB204B984239D0204B1B78002B84
:10CA300035D1FFF711FB80461D4D2E1C1D4F2AE0FE
:10CA4000281C6946013101F0BFFD002827D06B4644
:10CA50005C78301C05A9221C01F0FAFD84421ED12D
:10CA60006A466B4601331B785380023201A90023CA
:10CA700001934B608B60CB607B880B8001238B70B4
:10CA80008A6005ABCB604046FFF7C4FF80B2002848
:10CA900005D1FFF79BFBFFF791FB0028D0D10AB02F
:10CAA00004BC9046F0BDC046FFFF0000D03000201F
:10CAB00064290020D430002030B589B0051C1F4CFB
:10CAC000201C00210A2208F0CEF807A91C4B0B807D
:10CAD0008D700120221CFFF799FF83B2181E2BD105
:10CAE000184800F067FB002301930293039305931A
:10CAF000069312490B886A461380162393702123EC
:10CB0000D370114B938090710123137213821423FD
:10CB100053820231684600F077FB031C002B0BD1D7
:10CB20000A4801F043FE0A4801F040FE094801218D
:10CB3000094A03F0D9FD80B209B030BDD4300020DD
:10CB40005A0E0000407A0200DBE5FFFF6429002056
:10CB500054290020CC30002019CA010008B50388F0
:10CB6000112B0AD0502B13D0102B2ED1174B186835
:10CB70000B21002203F0F0FD27E0154801F016FE1E
:10CB8000144801F013FE114B186803F03BFE1CE043
:10CB9000C388114A52889A420AD1011C2031C28BA3
:10CBA0000C4801F0E9FD8020C00001F05BFC0CE0C6
:10CBB000094AD2889A4208D1C38B022B05D1FFF7CC
:10CBC00057FA002801D0FFF761FA08BDCC300020E9
:10CBD0006429002054290020D430002030B585B0CD
:10CBE0006C460025E5800634FFF736FA064BD988F7
:10CBF00002AA0223138055805460FFF709FF23889F
:10CC00000120184005B030BDD430002000000000E5
:10CC1000F0B5474680B48AB0071C6B46D97307202D
:10CC2000002900D19EE0FFF717FA021C0020524BAA
:10CC30009A4200D196E0FFF7D1FF031C0820002B99
:10CC400000D18FE0FFF7BAFA002821D04B4B1B89A7
:10CC50009BB2002B1CD16B466A460F321278DA82E7
:10CC6000163306AC002206920792454A528822806B
:10CC70000122A27008930997FFF7EEF9211CFFF734
:10CC8000C9FE80B200286DD1FFF7A0FA002069E04C
:10CC90003C4B18685968374B354A07F0A7FC4E04DF
:10CCA000C00B031C33430093C90B0191334B1A890A
:10CCB0009B889A1A92B26B460F331B7801339A42C3
:10CCC0003ADA2E4E2F488046052007F087FB33893D
:10CCD000B288D21A92B26B460F331B7801339A4254
:10CCE00016DA424610685168224B214A07F07EFC52
:10CCF0004B04C40B1C43CD0B221C2B1C0098019928
:10CD0000121A8B41002B2AD1DED1C72ADCD926E0AA
:10CD10001C4B18685968174B154A07F067FC4C0400
:10CD2000C20B2243CB0B00980199121A8B41002BA6
:10CD300017D101D1C72A14D8134C012323700F4DEA
:10CD40006E460F36281C311C01F0C8FC3278281CB6
:10CD5000391C01F011FD00232370002002E00420A3
:10CD600000E004200AB004BC9046F0BDC046C046B6
:10CD7000E880000000000000FFFF000064290020A0
:10CD8000D430002030540020D0300020C046C046AF
:10CD9000A0DF7047A6DF7047F0B58BB0324B1B7831
:10CDA000002B5ED1FFF758F9304B98420BD1304839
:10CDB00001F0FCFCFEF73EFD022852D100200021CC
:10CDC000FEF70AFC4DE0FEF735FD022845D1284B61
:10CDD0001B899BB2002B04D0264B1B899BB2002BD6
:10CDE0003BD1FEF727FD022837D100200021FEF7B6
:10CDF000F3FB32E0301C291C142201F029FC6B46A5
:10CE0000588000282DD0FEF715FD022803D1002000
:10CE10000121FEF7E1FB01AC002301930293039390
:10CE20000493154A938823800123A3706B46023331
:10CE300003930495FFF710F9211CFFF7ABFF80B2B5
:10CE400000280ED1FFF7C2F97B1EDFB2002F08D0F9
:10CE5000FFF7B4F90028CDD103E00727044E05AD54
:10CE6000F6E70BB0F0BDC046FC300020FFFF00002D
:10CE70007429002084290020E430002030B589B0D6
:10CE8000051C344C201C0021142207F0ECFEA57078
:10CE900007A901230B808D700120221CFFF778FF6A
:10CEA00083B2181E54D10193029303930593294929
:10CEB0000B886A46138007AB9B789371012313821A
:10CEC000142353822123D370032393801023937060
:10CED00001231372204B06930431684600F094F945
:10CEE000031C002B34D102236A46938008239370DD
:10CEF000137A03229343022213436A4613720023D8
:10CF00000393164B0693684612490C3100F07CF9E6
:10CF1000031C002B1CD11248124907F0DDFB031C37
:10CF2000114A10600520002B12D0181C002108F0B7
:10CF300065F80E4801F03AFC0D4801F037FC00227C
:10CF40000C4B1A700C4801210C4A03F0CDFB80B247
:10CF500009B030BDE4300020547A0200587A020053
:10CF60005C7A0200647A02004040002074290020AC
:10CF700084290020E0300020F830002099CD010005
:10CF800000B583B006486946073101F01DFB002853
:10CF900002D06B46D87901E00120404203B000BDC9
:10CFA0008429002000B583B0011C07486A46073277
:10CFB00001F068FB002802D06B46D87901E001201F
:10CFC000404203B000BDC04684290020014B1889AF
:10CFD00080B2704784290020014B188980B27047C5
:10CFE0007429002000000000F0B54F464646C0B44A
:10CFF00083B06B46D871FFF72FF8334B984251D06E
:10D00000324B186859682F4B2D4A07F0EFFA4B0442
:10D01000C60B1E43CF0B2E4B1A8992B29B889342AC
:10D0200033D12B498846294A9146052007F0D6F985
:10D0300041460B899BB28A889A4214D14A461068AD
:10D040005168204B1E4A07F0D1FA4B04C40B1C4315
:10D05000CD0B221C2B1C921BBB41002B25D1E4D1F4
:10D06000C72AE2D921E0194B18685968154B144AB0
:10D0700007F0BCFA4C04C20B2243CB0B921BBB4102
:10D08000002B15D101D1C72A12D8124D01232B70C4
:10D090006C4607340E48211C01F020FB00232B7046
:10D0A000207807E00120404204E00120404201E0F6
:10D0B0000120404203B00CBC90469946F0BDC046EA
:10D0C000E880000000000000FFFF00003054002056
:10D0D00074290020FC30002008B50388102B08D0EC
:10D0E00002D8012B34D03BE0112B09D0502B17D0A4
:10D0F00036E01C4B18680D21002203F02DFB2FE0B9
:10D10000184B186803F07EFB174801F04FFBFEF741
:10D1100091FB022824D100200021FEF75DFA1FE0D8
:10D12000C288124B9B899A421AD1011C2031C28BB2
:10D130000F4801F021FBFEF77DFB022803D1002000
:10D140000121FEF749FA8020400001F08BF907E049
:10D15000FEF770FB022803D100200021FEF73CFA05
:10D1600008BDC046F830002074290020E4300020BB
:10D1700084290020014B18787047C046E030002019
:10D1800008B5064B1A7801218A1A1A70044801F072
:10D190000DFB044801F00AFB08BDC046E03000204A
:10D1A0007429002084290020A2DF704763DF7047C4
:10D1B00064DF704710B586B000226B46DA71002339
:10D1C0005942C218D47B02AA8C54013B1A1C10325B
:10D1D000F6D102A800234373037369460731FFF7B2
:10D1E000E5FF83B20F2B08D1102002A96A46FFF792
:10D1F000DFFF6B469A78DA7102E00020002B01D144
:10D200006B46D87906B010BDF0B5474680B490B0F3
:10D21000041C0D1CC378002B08D10F22934301225C
:10D2200013430F22134010221343C370484B5B7B00
:10D23000002B09D1E3780F229343012213430F22DD
:10D24000134010221343E370A37830221A4217D000
:10D250000FAE301C0021032207F005FDB378062233
:10D26000934302221343B37033780F229343012276
:10D2700013430F221340102213433370E37873706B
:10D2800008AA0020089009900A900B900C900E902C
:10D29000A378137000223021194200D00FAA0D92FA
:10D2A00007AA002313801123137002239370A0692F
:10D2B00000280BD00378002B08D008AE099008F0A6
:10D2C00001F880B23081708107AB336106AB002278
:10D2D0001A80618A268A761A771EBE41012216407C
:10D2E000207A032707407F00F6B2B446C6081640EE
:10D2F000F600B046664637438008024010014246B9
:10D300003A4302439A70A37832221A4202D0E0785C
:10D3100006AA10700C221A4202D0E27806AB5A70AC
:10D3200001AA00239360D360231D019306AB5360D1
:10D33000A38A13819181E3681361208808A92B1CBB
:10D34000FFF732FF80B210B004BC9046F0BDC0467B
:10D35000444C0020A0DF704710B594B012A83C499F
:10D36000042207F05EFC012012A96A464E32FFF744
:10D37000F1FF83B2181E68D10BAC0C930D930F9381
:10D38000109311936B464E331B8823800223A370A6
:10D390000122A27123721123E3702E4BA3802E4829
:10D3A0000E9007F08FFF80B2A08260822082201C46
:10D3B00009A9FFF729FF031C002B46D10BAC274B13
:10D3C000A38027480E9007F07DFF80B2A082608284
:10D3D0002082201C07A9FFF717FF031C002B34D164
:10D3E0000BAC204BA38020480E9007F06BFF80B25F
:10D3F000A08260822082201C05A9FFF705FF031C84
:10D40000002B22D10BAC194BA38002F0A5FAE060EF
:10D4100007F058FF80B2A08260822082201C03A9FE
:10D42000FFF7F2FE031C002B0FD10BAC104BA380B7
:10D4300002F078FAE06007F045FF80B2A0826082D7
:10D440002082201C01A9FFF7DFFE14B010BDC046EA
:10D45000687A0200292A00006C7A0200242A00005F
:10D46000947A0200282A0000807A0200262A00000E
:10D47000272A000010B50C1C0B78022B0DD1FEF7EB
:10D48000F7FD002801D0FEF701FEE379022B04D15D
:10D4900002480021052207F0E6FB10BD0031002004
:10D4A000F0B54F464646C0B49BB014AC0022626053
:10D4B000E2606261082323800123A370E3702121CD
:10D4C0002171617102212181A172E37221212173F5
:10D4D00061730521218203218946A174E37421210E
:10D4E0002175617512AF13923B80BB700223FB70F4
:10D4F00021237B7101250F2290462026BB716846AF
:10D500000021482207F0AFFB304B0093304B1B7DCE
:10D51000DB07DB0F69460B724B724A468A72039433
:10D520000D7405972B4B0893A9238B8442462A4000
:10D5300032432C23CA540223FF336A460B8633231B
:10D540004946D15442462A40324334236946CA549C
:10D5500042462A4032433C23CA5442462A40324380
:10D560003D23CA5442462A4032433F23CA544246CE
:10D570002A4032434023CA5442462A403243412380
:10D58000CA5442462A4032434323CA5442462A40A0
:10D5900032434423CA5442462A4032434623CA54A3
:10D5A000424615402E434723CE540B4806F090FBCD
:10D5B00084B2002C04D109480021052207F053FB56
:10D5C000201C1BB00CBC90469946F0BD75D40100E0
:10D5D000444C0020A47A02000831002000310020D1
:10D5E00008B5011C014806F069FA08BD08310020A1
:10D5F000F0B5474680B482B0061C0F1CFEF72CFD28
:10D600000823354A90425ED068460021082207F080
:10D610002AFB6A46177073B2002B02DB2F4B9B5D0F
:10D6200000E000236A469370FEF7C8FD00283CD155
:10D630002B4B18685968274B254A06F0D7FF4B0437
:10D64000C60B1E43CF0B264B984602E0192006F06E
:10D65000C5FEFEF7B3FD002815D14246106851689B
:10D660001C4B1B4A06F0C2FF4B04C40B1C43CD0BE2
:10D67000221C2B1C921BBB41002B02D1E6D1C72AD6
:10D68000E4D904231FE0164B18685968114B104A5F
:10D6900006F0ACFF4C04C20B2243CB0B921BBB41E8
:10D6A000002B0FD101D1C72A0CD80E480021082227
:10D6B0006B4606F055FE84B2231E04D1FEF786FDAC
:10D6C000231C00E00423181C02B004BC9046F0BDEB
:10D6D000E880000000000000FFFF0000507B020017
:10D6E0003054002008310020F8B54F464646C0B4FB
:10D6F0008146FEF7B1FC08232D4A90424ED0FEF73A
:10D700005DFD00283CD12B4B18685968274B264AF1
:10D7100006F06CFF4B04C60B1E43CF0B254B9846FF
:10D7200002E0192006F05AFEFEF748FD002815D148
:10D730004346186859681D4B1B4A06F057FF4B04B7
:10D74000C40B1C43CD0B221C2B1C921BBB41002B7A
:10D7500002D1E6D1C72AE4D904231FE0154B18688B
:10D760005968124B104A06F041FF4C04C20B224389
:10D77000CB0B921BBB41002B0FD101D1C72A0CD878
:10D780000D48002108224B4606F0EAFD84B2231E14
:10D7900004D1FEF71BFD231C00E00423181C0CBC65
:10D7A00090469946F8BDC046E880000000000000A1
:10D7B000FFFF00003054002008310020C046C04662
:10D7C000F0B5474680B4061CFEF746FC0823364AEF
:10D7D000904261D03378FF2B0AD1344F3B78984682
:10D7E000381C311C052207F01CFA43463B7004E04C
:10D7F0002E48311C052207F014FAFEF7DFFC002842
:10D800003CD12B4B18685968264B254A06F0EEFE92
:10D810004B04C60B1E43CF0B254B984602E0192044
:10D8200006F0DCFDFEF7CAFC002815D14346186857
:10D8300059681C4B1A4A06F0D9FE4B04C40B1C4312
:10D84000CD0B221C2B1C921BBB41002B02D1E6D11D
:10D85000C72AE4D904231FE0154B18685968114BF7
:10D860000F4A06F0C3FE4C04C20B2243CB0B921BA3
:10D87000BB41002B0FD101D1C72A0CD80D48022182
:10D8800005220A4B06F06CFD84B2231E04D1FEF77C
:10D890009DFC231C00E00423181C04BC9046F0BD32
:10D8A000E880000000000000FFFF000000310020C1
:10D8B0003054002008310020F8B54F464646C0B429
:10D8C0008146FEF7C9FB08232D4A90424ED0FEF751
:10D8D00075FC00283CD12B4B18685968274B264A09
:10D8E00006F084FE4B04C60B1E43CF0B254B984617
:10D8F00002E0192006F072FDFEF760FC002815D149
:10D900004346186859681D4B1B4A06F06FFE4B04CE
:10D91000C40B1C43CD0B221C2B1C921BBB41002BA8
:10D9200002D1E6D1C72AE4D904231FE0154B1868B9
:10D930005968124B104A06F059FE4C04C20B2243A0
:10D94000CB0B921BBB41002B0FD101D1C72A0CD8A6
:10D950000D48012102224B4606F002FD84B2231E2F
:10D9600004D1FEF733FC231C00E00423181C0CBC7C
:10D9700090469946F8BDC046E880000000000000CF
:10D98000FFFF00003054002008310020C046C04690
:10D9900022DF704723DF7047F0B54F464646C0B4DC
:10D9A000404AA023DB00D05884460021D150A02358
:10D9B000DB05E622D200995889463B4999503B4AFB
:10D9C000985880469950A122D2008021890199500F
:10D9D00080214901995004200138C046C046C04604
:10D9E000C046C046C046C046C046C046C046C04607
:10D9F000C046F1D1A223DB00A022D205D35899045E
:10DA000007D5A223DB00A022D205D3580120DA04D7
:10DA100035D41222A023DB05254F80214901A12600
:10DA2000F600A225ED008024A401D951042001387C
:10DA3000C046C046C046C046C046C046C046C046B6
:10DA4000C046C046C046C046F1D1995104200138B5
:10DA5000C046C046C046C046C046C046C046C04696
:10DA6000C046C046C046C046F1D15859204203D1F5
:10DA7000013A002AD9D101E0012000E00020A023D2
:10DA8000DB05E622D20049469950084A41469950A2
:10DA9000A023DB00034A6146D1500CBC9046994656
:10DAA000F0BDC046003000400D0600003407000005
:10DAB0000C05000010B5114BB122D2009850012284
:10DAC0009A6000208221490058505A61191C822214
:10DAD00052008B58002BFCD0084B002282214900B9
