:020000021000EC
:1080000000800020F54C0200594D02005B4D02003B
:108010000000000000000000000000000000000060
:108020000000000000000000000000005D4D0200A4
:1080300000000000000000005F4D0200614D0200E2
:10804000634D0200634D0200A1120200634D020065
:108050006DE901000000000055040200634D0200BC
:10806000634D0200634D0200EDE60100634D020026
:10807000634D0200634D0200634D0200634D020038
:10808000634D02002D080200634D0200634D0200A3
:1080900065090200CD3F020089170200634D02000E
:1080A000634D0200634D020000000000000000006C
:1080B00000000000000000000000000000000000C0
:1080C000164B002B00D1144B9D46402292029A1A67
:1080D000924600218B460F461348144A121A0DF09F
:1080E0002EFA0F4B002B00D098470E4B002B00D0E0
:1080F00098470020002104000D000D48002802D000
:108100000C4800E000BF0DF073F92000290007F0D3
:1081100047F90CF0F9FEC04600000800008000207E
:108120000000000000000000602A0020AC54002085
:10813000000000000000000010B582B00C1C0023FD
:10814000019301A900220DF023FE019B002B06D014
:108150001A780023002A03D12060012300E00023C5
:10816000181C02B010BDC04610B582B00C1C002314
:10817000019301A900220DF095FE019B002B06D072
:108180001A780023002A03D12060012300E0002395
:10819000181C02B010BDC046F0B583B0061C0F1C01
:1081A000151C01A9FFF7C8FF0024002811D00A4BB5
:1081B000019A9A4203D1301C01A9FFF7D5FF2C1C6C
:1081C000042D00D90424A4B2381C01A9221C0DF0EE
:1081D00094F9201C03B0F0BDFFFFFF7F10B582B003
:1081E0000C1C01A9FFF7A8FF002805D0019BFF2B5D
:1081F00001D8237000E0002002B010BD10B582B09D
:108200000C1C01A9FFF798FF002807D0019B1A1C3E
:108210008032FF2A01D8237000E0002002B010BD98
:1082200010B582B00C1C01A9FFF786FF002806D00C
:10823000019B044A934201D8238000E0002002B051
:1082400010BDC046FFFF000010B50378002B23D0FF
:10825000184A1268D3185B78442119421FD043781A
:10826000D3185B7819421CD00021442408E0D318AD
:108270005B781C4217D04378D3185B781C4214D02B
:108280000131C9B28378002B07D02D2B0FD10330D9
:108290000378002BEBD100E00021081C08E000204F
:1082A00006E0002004E0002002E0002000E00020C2
:1082B00010BDC046F8290020F0B583B0041C0F1C87
:1082C000151C0378202B03D101342378202BFBD0FD
:1082D000201CFFF7B9FF86B2002F27D00004030C43
:1082E0000020002B2DD0AB4222D92AE01C1B022CEF
:1082F00016DC7D1C38701A782D2A11D104E0287004
:1083000001351A782D2A0BD15C1C201C01A91022E2
:108310000DF03EFD019BA34202D91C1B022CEEDD99
:10832000187843425841404230400AE0301C08E08F
:10833000201C01A910220DF02BFD019BA342D5D8D2
:10834000EEE703B0F0BDC046F0B55F4656464D4679
:108350004446F0B48BB0041C9246002A00D1EDE0F4
:10836000002800D1ECE00E1C0025201C2C210DF073
:10837000F7FB002804D0471C00970023037000E09F
:1083800000902378002B00D1CEE0B14630788446AF
:108390000A2800D9C6E081006F4F79588F46202BFC
:1083A0006BD06EE0202B03D101342378202BFBD03F
:1083B000484643681C60B7E07278201C7168FFF77C
:1083C0007BFFC0B27070002800D0ADE0AAE0201C96
:1083D00006A9FFF7B1FE002800D1A3E05F4B069F7E
:1083E0009F4203D1201C06A9FFF7BEFE49464868FC
:1083F00006A904220DF081F896E0201C06A9FFF7DB
:10840000B3FE002800D18DE0706806A904220DF0AB
:1084100074F889E07168201CFFF702FF002800D083
:1084200082E07FE07168201CFFF7D8FE00287BD136
:1084300078E07168201CFFF7E1FE002874D171E03C
:10844000201C7168FFF778FE00286DD12378202B5F
:1084500003D101342378202BFBD04B465A78201CC3
:10846000996807F035FF069000285BDB4F46786877
:1084700006A904220DF041F856E001342378202BA0
:10848000FBD004AB364806C806C3804606AB181CB2
:1084900047460ECF0EC03F6807606046082804D1EB
:1084A00002218B4604AA904603E004239B4606AFB4
:1084B000B846201C69460F31FFF7A0FE002806D100
:1084C000201C41465A4607F003FF6B46D8736B46A3
:1084D0000F331B785BB25B4524D849464868694630
:1084E0000F3101220DF009F81EE01E4A1268D31860
:1084F0005B785F0716D4201C07F0D4FEB068834673
:10850000201C0DF04BFB021C5846211C07F014FEEA
:108510000690154B984205D07068727806A90CF049
:10852000ECFF01E0002010E00135EDB2554509D027
:108530000C36009F002F07D03C1C16E7002004E0FB
:10854000002002E0281C00E0281C0BB03CBC904638
:108550009946A246AB46F0BD80750200FFFFFF7F43
:10856000AC750200F8290020DFFDEF7EF8B5051C90
:108570000E1C171C0A7808490CF026FD012F0AD999
:10858000741CF719054E2278281C311C0CF01CFDB8
:108590000134BC42F7D1F8BDC4750200CC750200AD
:1085A000F0B583B0061C022918D0032902D0012996
:1085B00019D10CE00021019101A8111C1A1C0CF02A
:1085C0009CFF301C2649019A0CF0FEFC45E0101C73
:1085D00001211A1C331C0CF0FBFE3EE0111C1A1C7E
:1085E000FFF7C4FF39E0022B1CD91178002919D0FC
:1085F000002B2CD01B480068411849786824A143FF
:1086000010D0541CD71868218C4605E00134451958
:1086100069786546A94305D0BC4218D02578002D5D
:10862000F4D114E0042B05D9301C111C1A1CFFF7DF
:108630009DFF12E00021019101A8111C1A1C0CF0F1
:108640005CFF301C0649019A0CF0BEFC05E0101CD2
:1086500001211A1C331C0CF0BBFE03B0F0BDC04658
:10866000D4750200F8290020F8B5061C171C1D1C43
:1086700002291ED0032902D0012920D105E0111CB6
:108680001A1CFFF789FD041C3AE00DF087FA041C60
:1086900080B2A84200D92C1CA4B2002C03D1002324
:1086A0003B7001242CE0381C311C221C0CF025FFEF
:1086B00026E0111C1A1CFFF7FFFD041C20E0111C12
:1086C0001A1CFFF769FD041E1AD1301C391C2A1C24
:1086D000FFF7F2FD041E13D1301C0DF05FFA041CED
:1086E00080B2A84200D92C1CA4B2002C03D10023D4
:1086F0003B70012404E0381C311C221C0CF0FDFEF0
:10870000201CF8BDF0B5474680B4141C002922D1C6
:10871000144B1B689A4220D01348111C0CF0ECFC3F
:10872000124B1D1D2933FF339846114F114E381C33
:10873000211C0CF0E1FC301C211C0CF0DDFC01CDF7
:10874000211C0CF0D9FC4545F1D10B48211C0CF043
:10875000D3FC002002E0094800E0094804BC904630
:10876000F0BDC0465841002000760200147A020095
:108770000476020008760200088102006280000090
:108780006380000010B5054C201C0021802252009F
:108790000CF0D5FE024B1C6010BDC046642A0020C0
:1087A000602A0020F0B5474680B4071C88464C4933
:1087B0000DF0E2F9002831D03B78002B13D03D2B8F
:1087C00011D03A1C474D03242868C118487820402E
:1087D000191C022800D12039117001321378002BA6
:1087E00001D03D2BF0D1381C0DF0D8F9012805D966
:1087F0003B78412B02D17B78542B05D03A48414637
:108800000CF07AFC394868E0BB780237002B05D1C0
:10881000374841460CF070FC00205EE0354E0024E5
:108820003568281C0DF0BAF9021C381C291C0DF003
:10883000E1F9002805D00134E4B204364A2CEFD126
:1088400001E04A2C05D1284841460CF055FC2A4845
:1088500043E0251CA400274BE0580DF09FF9FF23AF
:1088600018403F18381C25490DF086F9002805D11D
:108870001F4841460CF040FC00202EE0381C2049E7
:108880000DF07AF9002802D1013701210EE03B7882
:108890003D2B02D10137022108E00021002B05D039
:1088A000114841460CF028FC134816E0AD00154B6A
:1088B000EB58381C42469847041C134B1B78002B7E
:1088C00007D1002801D10A4800E0074841460CF0D2
:1088D00013FC00220C4B1A70201C04BC9046F0BD07
:1088E00000760200F8290020147602006080000063
:1088F0000C760200147A0200618000001C760200EF
:10890000207602003C7B02006C2B0020F8B54F461D
:108910004646C0B4041C514B1B68C31A5A4253410B
:10892000DBB298469B004E4FFF18381C0DF036F90D
:108930008146C6B2201C311C06F0E2FF051C431C18
:1089400003D1731E9E41F0B284E00D2801D00A28A5
:1089500061D1381C43490DF00FF900285BD1042583
:108960006368013B6360002B05DA3F4A1068211CF5
:108970000CF06EFF02E0236801332360013DEDB28D
:10898000002DEDD101200CF095F9201C002106F0FE
:10899000B7FF0D2801D00A280DD16368013B636041
:1089A000002B05DA304B1868211C0CF051FF02E057
:1089B0002368013323604346002B0FD004F08CFF63
:1089C000264C256804F082FF021C281C27490CF065
:1089D000FBFA216826480CF08FFB15E003F0EAF95A
:1089E0000123181AC0B203F0EBF91F4C23689D68ED
:1089F00003F0E0F9021C281C1C490CF0E5FA23687E
:108A000099681B480CF078FB381C002104220CF0FC
:108A100096FD01201EE02B2D13D1002E0AD0022E30
:108A200012D8FF224B461A40381C12490CF056FD52
:108A3000002809D1FF234A4613402B22FA54012073
:108A400008E00020002E05D0381C002104220CF084
:108A500076FD00200CBC90469946F8BD5841002098
:108A6000642B0020007602005C2A0020247602009D
:108A70000C7602002C760200F0B54F4680B4051C3F
:108A80000F1C574E0136FF3692E00A2C04D00D2CF5
:108A900002D0082C58D140E0524B1A68504B9A42F1
:108AA00000D885E0504B1B689B689F4207D14F4B15
:108AB0001B7A002B03D04E48391C0CF01DFB494B90
:108AC000002219680A70464C1C60201C391CFFF7F4
:108AD00069FE8146201C47490DF04EF8002867D1F9
:108AE0004A46002A64D101200CF0E4F8281C002139
:108AF00006F006FF0D2801D00A2859D16B68013B0A
:108B00006B60002B05DA384B1868291C0CF0A0FEAE
:108B10004EE02B6801332B604AE0324B1A68304B31
:108B20009A4245D9304B1B689B689F4207D12F4B17
:108B30001B7A002B03D03048391C0CF0DDFA294B8E
:108B40001A68013A1A6033E0264B1B68B3422FD2F1
:108B5000254B186883689F4225D1244B1B7A002B34
:108B600021D0BB68013BBB60002B17DAB9698B428F
:108B70000FDB3A6814703B681A780A2A02D0013376
:108B80003B6010E0184B18680A213A1C0EF0F6F80A
:108B900009E0211C3A1C0EF0F1F804E03B681C705F
:108BA0003B6801333B600F4A1368591C11601C700D
:108BB0006B68013B6B60002B06DA0B490868291CC7
:108BC0000CF046FE041C03E02B68581C28601C783F
:108BD000621C00D059E7002004BC9146F0BDC0469D
:108BE000642A0020602A00205C2A00205C4D0020BE
:108BF00008810200007602003076020008B5011CF0
:108C00000122034B1A7003480CF076FA08BDC046E7
:108C10006C2B00200C76020000B585B001290AD823
:108C2000194B1B7D5B07DB0F101C18491A1C0CF03D
:108C3000CBF9002026E06A460023D3730F3200935D
:108C40000293082369460B7001920122FFF77CFB17
:108C5000012816D16B460F331B780B4A127D520741
:108C6000D20F00209A420DD0074A01210B409900F3
:108C7000137D042083430B43137506F06DFC002025
:108C800000E0034805B000BD5C4D002024760200E2
:108C90006280000000B585B0022913D10023009343
:108CA000029305236A4613706B460F33019369469E
:108CB0000122FFF749FB012806D16B46D87B04F05F
:108CC0003BFF02E0024800E0014805B000BDC0469D
:108CD0006280000071DF704776DF704777DF704792
:108CE00000B583B0012902D902290AD040E0224B05
:108CF000DB7A5BB2101C21491A1C0CF065F90020CC
:108D000037E001235B4201931D4901AA0CF094FE58
:108D1000002829D001982023021C9A43131C2833D1
:108D20000DD01023021C9A43131C143307D00423C4
:108D3000021C9A43131C103201D0002B16D140B2F2
:108D4000FFF7CCFF83B2181E13D10B4B019ADA72D6
:108D500006F002FC03F00AFD0A4B984202D1002003
:108D600003F07CFA002004E0074802E0064800E037
:108D7000054803B000BDC0465C4D002024760200CB
:108D8000647C0200FFFF00006280000030B587B005
:108D9000151C012913D804AC201CFFF79BFFA279F6
:108DA000637921790091E1780191A178029161784C
:108DB0000391281C03490CF007F9002000E0024849
:108DC00007B030BD687C02006280000010B5141C42
:108DD00001290FD8A02380225205D35801221A401E
:108DE000201C05490CF0F0F80448211C0CF084F913
:108DF000002000E0024810BD887C020008810200CB
:108E00006280000030B587B0141C012916D804A870
:108E100003F04AFD051C002D11D104A98A794B7974
:108E200008790090C8780190887802904978039179
:108E3000201C04490CF0C8F8281C00E0024807B0C8
:108E400030BDC046687C02006280000070B58AB008
:108E5000041C022900D09CE004A8002115220CF07B
:108E60006EFB201C2C210CF07BFE002803D0451C3F
:108E70000023037000E0051C201C69460E31FFF73B
:108E8000CFF9002800D186E06B46D9898223474A72
:108E9000D152281C2C210CF063FE002803D0441C66
:108EA0000023037000E0041C281C04A91022FFF713
:108EB00003FA102871D1201C2C210CF051FE061E43
:108EC00002D0002303700136201C08A9FFF7A8F97F
:108ED000002864D004AB1A8A52BA04AB1A82301C40
:108EE0002C210CF03DFE051E02D00023037001353D
:108EF000301C69462231FFF793F9002851D004ABAA
:108F00005A8A52BA04AB5A82281C2C210CF028FE33
:108F1000041E02D0002303700134281C244902AA35
:108F20000CF08AFD00283ED004AB02981875002C86
:108F30000FD000230193201C01A9FFF7FDF80028A2
:108F400002D0019B012B01D91A482DE04A22174972
:108F50008B54164904AA0B1C6C3331CA31C330CA76
:108F600030C312781A7001224923CA5406F0F4FA69
:108F700003F0FCFB104B984206D003F0F7FB1321E3
:108F8000FFF7AAFE00200FE0002003F067F90020A1
:108F90000AE0084808E0074806E0064804E00548FB
:108FA00002E0044800E003480AB070BD5C4D0020B8
:108FB000D475020062800000FFFF000010B5141C91
:108FC000012913D803F0D2FB0022094B984202D0AA
:108FD00003F0D2FB021C52B2201C06490BF0F4FF36
:108FE0000548211C0CF088F8002000E0034810BD63
:108FF000FFFF0000647C0200088102006280000024
:1090000010B584B0012902D902290CD03EE0214BD1
:109010001B7DDB07DB0FDBB2101C1F491A1C0BF09A
:10902000D3FF002033E06A460023D370033201A946
:1090300001938B6008230B704A600122FFF784F9CB
:10904000012801D0154822E06B4603331B78114AF2
:10905000127DD207D20FD2B29A4215D00D4A01200A
:109060001840117D0124A14301431175002B03D049
:1090700004214923D15405E000214923054AD15454
:1090800003F002FC06F068FA002000E0034804B098
:1090900010BDC0465C4D00202476020062800000B6
:1090A00010B582B0041C02291CD1124B1B7DDA07BB
:1090B0001AD503F05BFB031C08200F4A934216D01D
:1090C0006846002108220CF03AFA201C6946082262
:1090D000FFF7F2F8431EDBB2072B07D8684604F00F
:1090E00033FF04E0054802E0054800E0034802B011
:1090F00010BDC0465C4D0020FFFF000062800000F4
:1091000063800000F0B557464E464546E0B48AB04D
:10911000041C022968D13A4B1B7DD80766D52378F9
:10912000002B65D0101CFFF769FD04A9354A0B1C04
:1091300061CA61C322CA22C312881A80324B1E68D8
:1091400002969A8802AB9A80304B186800909B88F0
:1091500069468B80201C2E490CF00EFD4342434192
:10916000E41802AA92462B4B99460325A84635E0FF
:1091700066785C2D0BD15046311C0CF0F1FC0028B8
:1091800005D05646801B69460D5CA71CA6784A464A
:10919000126853195B78404603400221012B07D027
:1091A00004A8291C0CF0DCFC011C481E814149006C
:1091B000281C04F04DFE00281BD10F200BF07AFD77
:1091C000AE4201D0002E08D10020002104F040FE64
:1091D00000280ED10F200BF06DFD3C1C671C25787C
:1091E000002DC5D1002004E00B4802E00B4800E050
:1091F00009480AB01CBC90469946A246F0BDC0463C
:109200005C4D0020B47C0200CC7C0200D47C0200C7
:10921000B07C0200F829002062800000638000001A
:1092200010B588B0041C02293CD1224B1B7DDA0703
:109230003AD503F09BFA021C08201F4B9A4236D005
:1092400007A900230B800F230693201CFEF7E8FFDD
:10925000002819D1002300930393059309236A463C
:1092600013700223537007AA0192144A02926A46AD
:10927000137306AB0493201C69460222FFF764F8BF
:10928000431EDBB2012B11D807AC201C04F044FFB5
:1092900006980BF00FFD00232380201C04F03CFFF8
:1092A000002004E0064802E0064800E0044808B058
:1092B00010BDC0465C4D0020FFFF0000F87E02009C
:1092C000628000006380000000B58FB0022925D1C4
:1092D0000CAA00230C931371FF21117000930293C9
:1092E000039305930693089309930B93062369460A
:1092F0000B70013201920B73013204920B76013232
:10930000079224228B540DAB0A930422FFF71CF81A
:109310000138C0B2032803D9044804E0034802E03E
:109320000CA804F07DFE0FB000BDC04662800000B6
:10933000F0B5474680B492B0022900D0EFE00EA904
:109340007E4B0A1C70CB70C21B6813600CAD0022F0
:109350000C922A710B926C460F2363852A3401AB61
:109360000192039204920792099205221A700295C3
:1093700007221A7304225A730BAD059506911A76CB
:10938000089403786E4A1268D3185B78590774D42E
:109390000023009301A90B7000AA4A600322FEF784
:1093A000D3FF031C0138C0B2022800D8BBE062E042
:1093B0000B9B032B5FD1009800286CD00CF0EEFBC8
:1093C000052858D800245E4E03275E4DA84614E0B9
:1093D0000098021913783068C11848783840191C71
:1093E000022800D120391170009A515D40460CF0DE
:1093F000B7FB00283FD00134E4B2251C00980CF0E4
:10940000CDFB8442E4D300984C210CF0A9FB00284A
:1094100004D00CAB197801220A431A70009852212B
:109420000CF09EFB002804D00CAB197802220A43F2
:109430001A7000984D210CF093FB002804D00CAB5F
:10944000197804220A431A70009842210CF088FB14
:10945000002804D00CAB197808220A431A7000982F
:1094600046210CF07DFB002815D00CAB197810229A
:109470000A431A700FE034485CE001A90322FEF7AA
:1094800063FF031C0138C0B2022850D92E4851E0B6
:109490000B9B032B45D10CA804F0C2FD031C002B31
:1094A00048D10CAB1C780020002C43D00B9B022B26
:1094B0000DD0032B29D00020012B3BD10F200BF026
:1094C000F9FB0CA80023037004F0AAFD32E00F2082
:1094D0000BF0F0FB0CA80023037004F0A1FD031CAB
:1094E000002B27D10F200BF0E5FB0CA8047004F033
:1094F00097FD031C002B1DD10F200BF0DBFB0CA8EC
:109500000023037004F08CFD14E06B46588D0BF0C3
:10951000D1FB0CA80023037004F082FD0AE00A4886
:1095200008E0094806E0032B00D044E740E7032B9E
:10953000B1D1ADE712B004BC9046F0BDA07C0200F2
:10954000F8290020DC7C02006280000010B584B0A5
:10955000012902D902290BD03DE0204B1B7D9B073E
:10956000DB0F101C1E491A1C0BF02EFD002033E0EF
:109570006A460023D370033201A901938B6008234C
:109580000B704A600122FEF7DFFE012801D015486A
:1095900022E06B4603331B78104A127D9207D20FEC
:1095A0009A4216D00D4A012018404000117D022435
:1095B000A14301431175002B03D005214923D15448
:1095C00005E000214923054AD15403F05DF905F077
:1095D000C3FF002000E0034804B010BD5C4D002034
:1095E000247602006280000010B586B0041C0229B7
:1095F00032D102F0D1FF031C0820DA0733D503F083
:10960000B5F8021C08201C4B9A422CD0201C69463D
:1096100006311422FEF750FEC4B2E31E0F2B1FD9F1
:10962000164820E0164B18685968124B104A0BF088
:1096300049FC4904C00B0843C204920E80235B42DC
:109640001A437F210840034301A802704370A11C04
:10965000C9B203F089FE06E0084804E0074802E0CA
:10966000E307FBD5DEE706B010BDC046C046C046E6
:10967000E880000000000000FFFF000062800000A2
:10968000A0540020C046C04670B582B0141C00290A
:109690003ED102F081FF031C0820DA0739D5694664
:1096A000073100230B701C4805F0BEFB031C002093
:1096B000002B2ED06B4607331B78002B29D0164881
:1096C000694605F0B1FB002823D0201C1349009AFD
:1096D0000BF07AFC6B46DA79013ADA7107331D1C1C
:1096E0000D4E0AE0301C694605F09EFB002804D0B0
:1096F000201C0B49009A0BF067FC2B785A1E2A702D
:10970000002BEFD10748211C0BF0F6FC002000E0F5
:10971000054802B070BDC04668290020007F0200E5
:10972000087F0200088102006280000070B582B0EC
:10973000141C00292BD102F02FFF031C0820DA078C
:1097400028D56946073100230B70134805F06CFBE0
:10975000031C0020002B1DD06B4607331B78002B09
:1097600018D0013B6A46D37107320B4E151C301CD2
:10977000694605F059FB002803D00098211C0BF026
:109780005BFC2B785A1E2A70002BF0D101E00348B5
:1097900000E0002002B070BD682900206280000057
:1097A00010B5041C02291DD102F0F6FE031C08208E
:1097B000DA0718D502F0DAFF031C08200A4A9342A0
:1097C00011D0201C09490CF0D7F943424341E41859
:1097D000201C06F021FD064B1968201C0BF08CFCA8
:1097E000002000E0034810BDFFFF0000B07C020035
:1097F000584100206280000070B5141C002933D14C
:1098000002F0CAFE031C0820DA0730D5184B19688D
:109810004B68013B4B60002B04DA164B18680CF0C8
:1098200017F803E00B685A1C0A601878431C1DD017
:109830000F4E104D211C0BF0FFFB33685A68013AA4
:109840005A60002A04DA2868191C0CF001F803E0B9
:109850001A68511C19601078421CEBD10648211C73
:109860000BF04AFC002002E0044800E0002070BD3C
:10987000584100205C2A002008810200628000001C
:10988000F8B5071C0D1C161C02F086FE041C0820EF
:10989000E30741D5002D2FD0022D16D11BE0381C37
:1098A0001E490CF03FF9002811D18022D200521B32
:1098B00092B2002A0DDB301C19490BF085FB1948C8
:1098C000311C0BF019FC002026E0174824E0164854
:1098D00022E0154820E003F02DFF8024E400241A44
:1098E000A4B203F021FF051C381C10490CF01AF932
:1098F000221C0028DDD0D2E703F01CFF041C03F07B
:1099000013FF8023DB001C1BA2B21B1A9BB2301C6E
:1099100007490BF059FBD2E7F8BDC046E0790200D9
:10992000D47502000881020062800000C479020040
:10993000307F020000B585B001290CD81D4B5B7D3E
:109940009B06DB0F0121CB1A101C1B491A1C0BF0C4
:109950003BFB00202CE0022927D16A460023D37369
:109960000F3200930293082369460B700192012283
:10997000FEF7EAFC01281AD16A46D17B01234B404D
:10998000D3730C4A527D9206D20F00209A420FD018
:10999000084A01210B405901537D202083430B438A
:1099A000537505F0D9FD002002E0044800E00348AB
:1099B00005B000BD5C4D00202476020062800000EE
:1099C000F0B55F4656464546E0B484B0061C0D1C13
:1099D00090461C1C0CAB1B789B462D4B1B68984279
:1099E00003D1131C6343102B4BDC02AA29490B68DB
:1099F00002938B88938041464B0030339370102044
:109A00000BF0FEF9A246002C35DD0024FF231F1CBD
:109A1000074000230193201C391C0BF047FA002952
:109A200017D1002C03D01C48311C0BF065FB5B46A2
:109A3000002B09D02001391C0BF0E2F9021C301C6C
:109A400016490BF0C1FA04E0301C15492A1C0BF032
:109A5000BBFA01A8291C42460BF04FFD45442020CB
:109A6000311C0BF0E9FA301C02A9019A0BF0ACFA98
:109A700001345445CDDB0848311C0BF03DFB002080
:109A800000E0084804B01CBC90469A46A346F0BDCE
:109A900058410020247F020008810200107F02004C
:109AA000187F020063800000F0B587B0141C022903
:109AB00034D1002305930493039303AB00931E4911
:109AC00005AA04AB0BF0B8FF032829D1059D002D92
:109AD00028D0049A002A27DD039E002E26DD531E7F
:109AE000012B01D9042A23D1D7B2391C042F00D964
:109AF0000421C9B2281C0BF079F9002905D00F48C0
:109B0000211C0BF0F9FA0E4813E0B3B200220092C8
:109B1000201C291C3A1CFFF753FF0AE0084808E004
:109B2000074806E0064804E0054802E0044800E073
:109B3000034807B0F0BDC0462C7F0200387F02000A
:109B40006280000000B583B0022908D00123009391
:109B5000101C04490122044BFFF732FF00E00348C8
:109B600003B000BD5C4D002044070000628000008F
:109B700038B501291DD8114B1968114B994209D1EB
:109B800004230F4C80252D010C4819180968A142A7
:109B90000BD000E0002380210901CB1A101C0949D9
:109BA0001A1C0BF011FA002006E00433AB42EBD193
:109BB00001E0054800E0032038BDC04600780020E1
:109BC0000DF0FECA4C7F02006280000000B583B039
:109BD000002909D100230093101C05490422802389
:109BE0009B00FFF7EDFE00E0024803B000BDC04659
:109BF0000078002062800000F0B5474680B4071C62
:109C000000240D4EA3B29846A3009D59281C0BF0CA
:109C1000C5FF021C281C391C0BF060FC002803D077
:109C20000134052CEED101E0404600E0034800B2CB
:109C300004BC9046F0BDC046547F0200FFFF000008
:109C4000F8B5061C0F1C084D0024301C29680BF0C9
:109C5000FBFF002801D03C7005E00134E4B204357C
:109C60000E2CF2D10020F8BD54800200F0B55F4602
:109C700056464D464446F0B493B0141C1D1C0129B1
:109C800031D8714DA623EA5C9200704BD058211C4C
:109C90000BF032FAA523EB5C012B1ED901256A4F8C
:109CA0006B4E6C4A90467B19A03398793268131832
:109CB0005B786822934303D0211C0BF0BDF905E0CB
:109CC00080004346C058211C0BF016FA0135EDB256
:109CD000A5235D4AD35CAB42E5D85F48211C0BF05D
:109CE0000BFA0020A8E0022900D0A0E00023119385
:109CF000109306A906938B60CB604B618B610B625E
:109D000011AB4B6002230B7310AB0B6106230B7678
:109D10006B463F33CB610322FEF716FB80460138CA
:109D2000C0B2022800D984E01198FFF765FF00282F
:109D300005DA4A48211C0BF0DFF949487CE001AB09
:109D40001870119E8000414BC0580BF027FF30184F
:109D500011900378002B44D00127122293466946C4
:109D60000331FFF76DFF8146002803D0119BC61A0F
:109D7000F6B203E011980BF011FFC6B24B465A1E23
:109D80009341DBB29946FB185A46D31A9E4205DD31
:109D90003448211C0BF0B0F909204DE001ABD81973
:109DA0001199321C0BF0A9FB119A9219924611924B
:109DB000F619F6B24B46002B0DD0731CDFB26A4683
:109DC000D37801AA93559B00224A98580BF0E6FEDF
:109DD0005044119000E0371C11980378002BBED13D
:109DE00000E001274346012B05D9109B012B22D807
:109DF0004A2215498B544246022A05D96B463F3305
:109E000019789F23104AD15401A8391C03F0F4F8A3
:109E1000041C002C10D10C4B0321492299549E2282
:109E20009D5405F099FB02F0D7FA201C04E00C4881
:109E300002E00B4800E00A4813B03CBC904699464B
:109E4000A246AB46F0BDC0465C4D0020547F0200E8
:109E5000F82900205480020008810200687F020077
:109E600062800000947F020008B50023FFF7FEFE29
:109E700008BDC04608B50123FFF7F8FE08BDC0467F
:109E800010B584B049231C4CE35C033B5C42634146
:109E9000DCB2012906D8101C1849221C0BF094F8DA
:109EA000002027E0022920D16A460023D3730F3215
:109EB00000930293082369460B7001920122FEF77A
:109EC00043FA012813D16B460F331B78A34210D0FD
:109ED0000022002B00D0032249230749CA5405F071
:109EE0003BFB02F079FA002004E0054802E0044858
:109EF00000E0002004B010BD5C4D0020247602007C
:109F00006280000000B585B001290AD8194B1B7D7D
:109F10001B07DB0F101C18491A1C0BF055F800200A
:109F200026E06A460023D3730F320093029308237E
:109F300069460B7001920122FEF706FA012816D13C
:109F40006B460F331B780B4A127D1207D20F00208D
:109F50009A420DD0074A01210B40D900137D0820F9
:109F600083430B43137505F0F7FA002000E0034824
:109F700005B000BD5C4D0020247602006280000028
:109F800000B585B0174B1B7D1A0725D5002902D0D7
:109F9000022903D022E0B423039312E000230093AC
:109FA000029302236A46137003AB019369460122B0
:109FB000FEF7CAF9012802D1039B002B01DC0A48F5
:109FC0000DE0039803F038F803214923054AD154E2
:109FD00002F002FA002002E0044800E0024805B066
:109FE00000BDC0465C4D0020628000006380000020
:109FF00074DF704776DF70477CDF704730B583B021
:10A00000031C141C012902D9022909D030E01A4886
:10A01000111C0BF071F81948211C0BF06DF825E0AC
:10A02000154D281C191C1F220BF0FAFD05F094FA9F
:10A0300001AC23780F229343012213430F221340D4
:10A04000102213432370281C0BF0A8FD82B2201CA1
:10A05000291CFFF7D1FF83B2181E0AD102F086FB3C
:10A06000074B984202D1002002F0F8F8002000E0EF
:10A07000044803B030BDC046A84D0020088102004E
:10A08000FFFF00006280000010B5141C012910D8E9
:10A0900002F06CFB084A8318584243413120C01A31
:10A0A000211C0AF0C9FF0548211C0BF025F80020EF
:10A0B00000E0034810BDC0460100FFFF0881020018
:10A0C0006280000008B500290DD102F04FFB021C90
:10A0D0000020064B9A4207D002F048FB1321FFF7FD
:10A0E00089FF80B200E0024808BDC046FFFF0000C3
:10A0F0006280000008B5002902D102F0C5FB00E033
:10A10000004808BD62800000F0B587B0061C0C1C3A
:10A11000151C02A8334910220BF0EFF9012C02D9CB
:10A12000022C1FD052E0012600242F4F02E0013400
:10A130000136F6B2E3B2002B4AD0381C291C0AF0D3
:10A14000DBFFFF2222401C325200284BD25A281C2F
:10A1500027490AF039FF032EE9D92648291C0AF0BD
:10A16000CBFF31E0244C6D460A35271C0837301CE4
:10A1700069460A220BF00CFE009E0136002807D02B
:10A18000AA1E1288904221DB2A8890421EDC208081
:10A1900002340435BC42EAD105F0DEF9134C208FBD
:10A1A000800005210AF0DEFD6A461080608F800085
:10A1B00005210AF0D7FD6B46588000236A4693803C
:10A1C000D380684608F024FF002008E00B4806E032
:10A1D000064B1A8F281C06490AF0F6FEA7E707B0BF
:10A1E000F0BDC0468C800200047602005C4D002069
:10A1F000647C020008810200944D0020628000000F
:10A2000008B5002901D0022903D1002002F026F868
:10A2100000E0014808BDC0466280000008B5002982
:10A2200003D1FFF7E5FE80B200E0014808BDC0465B
:10A230006280000010B582B0141C012902D90229E5
:10A240000DD024E04823134AD05C3030211C0AF0A2
:10A25000F3FE1148211C0AF04FFF002018E00F49BF
:10A2600001AA0BF0E9FB012802D1019B012B01D9C6
:10A270000B480DE0482207498A5C934205D05A1EDC
:10A28000934148228B5405F067F9002000E0044810
:10A2900002B010BD5C4D002008810200647C020009
:10A2A0006280000030B591B0022940D100230F93A5
:10A2B00001A901938B60CB604B6101230B701F23BD
:10A2C0004B7007AB4B6002230B730FAB0B61022289
:10A2D000FEF73AF8041C0138C0B2012829D801ABB6
:10A2E0005A78164D8B23EA54281C6C3007A90BF0C2
:10A2F00004F902224923EA54022C05D10F9B012BB9
:10A3000019D84A220D498B5405F026F902F02EFA8D
:10A310000B4B984206D002F029FA1321FFF76AFE90
:10A32000002009E0002001F099FF002004E005482A
:10A3300002E0044800E0034811B030BD5C4D00204D
:10A34000FFFF00006280000010B584B001290ED824
:10A3500040231E49CB5CDB07DB0FDBB20121CB1AAC
:10A36000101C1B491A1C0AF02FFE00202BE06A4625
:10A370000023D3730F3200930293082369460B70B6
:10A3800001920122FDF7E0FF01281BD16A46D17B33
:10A3900001234B40D37340220C498A5CD207D20F71
:10A3A000D2B200209A420ED0402201200340885CA5
:10A3B0000124A04303438B5405F0CEF802F00CF8BF
:10A3C000002000E0034804B010BDC0465C4D0020F2
:10A3D0002476020062800000A0DF7047A4DF70478F
:10A3E000A5DF7047A6DF7047BA23094AD35A191868
:10A3F00098229200914208DC054A081CBA2150526A
:10A40000F82189005B18981800E000207047C046CA
:10A410005C4D0020F8B54F464646C0B4804689469C
:10A42000171E15DD0026002463B29B004A469D5886
:10A43000281C0BF0B3FB021C4046291C0BF0B6FB9A
:10A44000002807D00134E4B266B2BE42ECDB01E082
:10A4500000260024B7420BD063B29B004A469858AE
:10A460000BF09CFB4246135C3D2B02D0FF2400E026
:10A47000FF2460B20CBC90469946F8BD10B5141C80
:10A48000002802D0012811D01EE0081C11681022FB
:10A49000FDF712FF102819D10023A37123689A78C1
:10A4A0001202DB781343A380002014E0131D081C64
:10A4B000191CFDF7B5FE00280AD0A388002B09D08F
:10A4C0000123A371002006E0034804E0024802E0F3
:10A4D000014800E0004810BD62800000F8B54F461A
:10A4E0004646C0B4071C0D1C9046994608A90E7834
:10A4F00002212C1C8C4309D10021321CFDF7DCFE0B
:10A50000002803D0814508D8B04206D8381C291C41
:10A510004246331CFEF7A8F8C4B2201C0CBC90467F
:10A520009946F8BD08B505480021B122D2000BF0CC
:10A5300006F805F011F8002008BDC046144E0020B2
:10A54000F0B54F464646C0B487B0041C171C02291C
:10A5500000D084E0B823464AD35C04200A2B00D103
:10A5600080E004A8002108220AF0E9FF68460021E3
:10A5700010220AF0E4FF00A80490201C2C210BF00C
:10A58000EFFA002803D0451C0023037000E0051CEF
:10A59000002C38D037498846894630E0013423788A
:10A5A000202BFBD0201C41460222FFF733FF061E62
:10A5B0000EDB8300494658580BF0F0FAF6B2411C06
:10A5C0006118301C04AAFFF759FF061E08D000E0EE
:10A5D000294E381C2949221C0AF0F6FC301C41E0A7
:10A5E000281C2C210BF0BCFA002803D0431C0022AD
:10A5F000027000E0031C002D05D02C1C1D1C2378CC
:10A60000202BCBD0CEE704AB9B88002B29D0184B56
:10A61000B8229C5C0134E400E3181C1CB83404AB81
:10A62000221C03CB03C2A379012B02D10023236098
:10A6300007E01020FFF7D8FE2060049910220AF0EE
:10A640005CFF0B4DB8242B5D01332B5504F084FFC8
:10A650002A5D381C0A490AF0B7FC002002E00648CF
:10A6600000E0054807B00CBC90469946F0BDC046D6
:10A670005C4D00200C82020062800000E480020039
:10A6800024760200F0B557464E464546E0B49AB0EF
:10A69000041C151C022900D05EE1B823BC4AD35C1F
:10A6A0000420002B00D16DE1B923D35C1E2B00D117
:10A6B00068E114A8002118220AF041FF0CAF381CF1
:10A6C000002120220AF03BFF08A88046002110222A
:10A6D0000AF035FF06AE301C002108220AF02FFFD9
:10A6E0004146159117971996201C2C210BF038FA2A
:10A6F000002803D0461C0023037000E0061C002C39
:10A7000000D1B8E0A34A90469146A34FBA46ADE0C7
:10A7100001342378202BFBD0201C41460922FFF76F
:10A7200079FE071E00DA93E08300494658580BF083
:10A7300035FA01302018FBB2082B00D988E09F00C1
:10A740005246D3599F4669465231FDF769FD0028AC
:10A750007ED014AB5B88002B7AD014AB197A1F2201
:10A76000914301220A431A7204E115991022FDF760
:10A77000A3FD10286CD114AB1A7A1F218A431A72D8
:10A78000159A91780902D2780A435A80F2E003A917
:10A79000FDF724FD00285BD003AB1B78002B57D0BE
:10A7A0006846513003A901220AF0A7FEE2E069469B
:10A7B0005931FDF713FD00284AD014AB5B7A013BF9
:10A7C0001F2B45D8D6E069465A31FDF707FD002812
:10A7D0003ED014AB9B7A013B1F2B39D8CAE003A9AA
:10A7E000002303938B600A230B706B460B334B6083
:10A7F0000122FDF7A9FD01282AD114AB6A46D17ABE
:10A8000049011A7A1F2002400A431A72B2E014ABBF
:10A810005B7A002B00D0A7E014AB9A7A0123002AC0
:10A8200002D1202200E01A1C14AF397A49090092A3
:10A83000179AFFF753FEF872002809D09AE0189093
:10A8400098E019990722FDF737FD072800D191E01C
:10A85000281C5249221C0AF0B7FB514892E0431CC5
:10A8600000220270002E06D0341C1E1C2378202BE0
:10A8700000D14DE750E714AB9B7A002B02D114AB0B
:10A880005A7A9A7214ABDB7A002B02D114AB5A7A43
:10A89000DA7214AB5B7A002B60D014AA927A9A42D7
:10A8A0005ED314AB5B88002B5CD0394BB822985C2C
:10A8B00001388446B9229A5C18214A439C18113405
:10A8C000FF3414AA231C111CC1C9C1C3C1C9C1C30F
:10A8D00061462170137ADB06DB0E012B02D10023C7
:10A8E000636007E01020FFF77FFD6060159910227C
:10A8F0000AF003FE1898002809D00BF04FF9013038
:10A90000C0B2FFF771FD206118990BF03FF9199A59
:10A910001378002B08D00820FFF766FD60611999B5
:10A9200007220AF0EAFD01E000236361A07AFFF745
:10A930005BFDE060E27A17990AF0DFFD144EB9245E
:10A94000335D0133335504F007FE325D281C154991
:10A950000AF03AFB002015E0114813E0104811E01E
:10A960000F480FE00E480DE014AA927A002A00D09A
:10A970005AE758E7301C2C210BF0F2F8031E00D1E7
:10A9800070E76CE71AB01CBC90469946A246F0BD31
:10A990005C4D0020C08002009C800200F880020014
:10A9A0006280000024760200F0B557464E464546C8
:10A9B000E0B48CB0041C151C022900D002E19449BB
:10A9C00007AA0BF039F8002800D1FDE0079B002B07
:10A9D00000DCFBE0B9228F498A5C934200DDF7E09E
:10A9E000013B5A00D318DB00CB181133FF339846D4
:10A9F000201C2C210BF0B4F800280DD14046017A20
:10AA00004909C268C37A281CFDF7CAFD8248291C7F
:10AA10000AF072FB0020F0E00378002B00D1D9E0AF
:10AA200001304246117A4909D2684446637AA47AD1
:10AA30000094FFF753FD45466A7A824200D9CBE085
:10AA4000AA7A824200D2C9E0E87204F085FD079C30
:10AA5000013CE4B2182262431132FF326D4BD2182E
:10AA60009046E4006D4B1C1901F080FE8146021CEB
:10AA700023880020834200D1BFE0694B9A4200D175
:10AA80008EE04046427830231A4200D188E002AB83
:10AA900000201880A1880AAA0225158050805360E2
:10AAA0004846FFF79DFC41464D78ED06ED0F04D07A
:10AAB00002AB1B88DA0700D592E04046437899063E
:10AAC0006ED502AB1B889A076AD5C27A6B465A814B
:10AAD00003AB9A46181C002110220AF030FD23888F
:10AAE000544623806B425D41013503AB9D706A463D
:10AAF0000A3205924546ED68069501F0E9FE002808
:10AB00003CD1484B18685968404B3F4A0AF0DAF983
:10AB10004B04C40B1C43CD0B0120824602E050467F
:10AB20000AF0C8F801F0D4FE002815D13D4A10689B
:10AB30005168364B344A0AF0C5F94B04C60B1E4324
:10AB4000CF0B321C3B1C121BAB41002B02D1E6D1B8
:10AB5000C72AE4D9042050E0324B186859682B4BBF
:10AB6000294A0AF0AFF94E04C20B3243CB0B121B39
:10AB7000AB41002B12D101D1C72A0FD8484603A9F7
:10AB8000FFF730FC83B2181E37D1444663780020AB
:10AB9000DD0632D501F0A4FE00202EE004202CE0DA
:10ABA0004046427A837A00209A4226D0218808AA19
:10ABB0004446E37A1380508050604846FFF70EFC0D
:10ABC00080B21AE0184818E0174816E0164814E05A
:10ABD000154812E0144810E013480EE012480CE04B
:10ABE000CA7A6B465A8103AD281C002110220AF054
:10ABF000A6FC23882B80012577E70CB01CBC90466F
:10AC00009946A246F0BDC046E88000000000000062
:10AC1000D47502005C4D002008810200842B0020C6
:10AC2000FFFF0000A054002062800000C046C04624
:10AC300010B582B0141C022913D1694607310023D4
:10AC40000B70FDF7CBFA00280DD06B4607331B784D
:10AC5000B9220F498A5C002B07D0934207D90D48CF
:10AC600014E00C4812E00B4810E00A480EE0013BEB
:10AC70005A00D318DB00064AD3181133FF33D868C3
:10AC8000DA7A0121231C0AF0A3FB002002B010BDD8
:10AC90005C4D002062800000F0B55F4656464D4690
:10ACA0004446F0B483B0161C002900D095E0524B06
:10ACB0001B689A4200D192E0B823504AD35C002B23
:10ACC00000D18EE0002792464D4B99464D4B9B4656
:10ACD0007A1CD4005444B834A388301C49460AF086
:10ACE00073F9A379012B08D05846311C0AF004FAF5
:10ACF0002168301C1022FDF739FC4348311C0AF052
:10AD0000FBF9B9233D4AD35C002B5DD0002490466B
:10AD100065002D19ED0045441135FF352B78BB42F8
:10AD20004BD1621C6B88301C38490AF04DF92B7AE4
:10AD3000DB06DB0E012B0CD03548311C0AF0DCF9A8
:10AD4000301C69681022FDF711FC3248311C0AF0F2
:10AD5000D3F96A786B7AA97A0091297A4909019125
:10AD6000301C2D490AF030F92A69002A03D0301C22
:10AD70002A490AF029F96B69002B0FD01B78002BA8
:10AD80000CD02748311C0AF0B7F9301C696907223A
:10AD9000FDF7ECFB1F48311C0AF0AEF92148311CCD
:10ADA0000AF0AAF9297A4909EA68EB7A301CFDF71A
:10ADB000F7FB1548311C0AF09FF90134E4B2B923BE
:10ADC0000E4AD35CA342A3D80137FFB2B8230B4A83
:10ADD000D35CBB4200D97BE705E0134804E013488D
:10ADE00002E0002000E0002003B03CBC9046994601
:10ADF000A246AB46F0BDC046584100205C4D002045
:10AE00000C81020020810200088102002C810200D6
:10AE10004481020004760200508102008881020011
:10AE200098810200A8810200628000006380000017
:10AE3000F0B54F4680B4061C0388502B2DD1B923A2
:10AE4000174AD35C002B28D00024164D171CE300B2
:10AE5000F288EB5A9A420DD163001B19DB00104AAD
:10AE6000D3181133FF33F28B987A597A914201D873
:10AE7000824206D90134E4B2B923FB5CA342E6D88E
:10AE80000BE0DA72D868311C2031F28B0AF035FB06
:10AE90000120A04003F02AFFECE704BC9146F0BD7E
:10AEA0005C4D0020842B0020F0B55F4656464D4691
:10AEB0004446F0B48BB05E48002114220AF03FFBF8
:10AEC0005C480021F0220AF03AFBB8235A4AD35CCE
:10AED000002B00D1A1E0002655498A46741CE400ED
:10AEE000554AA418B83473009B46D344A379012B68
:10AEF00006D0206802F00AFDA071012800D88AE07F
:10AF0000A3886A461380A3799370012069465A4644
:10AF1000FFF762FA80B2002800D081E0B9234649E9
:10AF2000CB5C002B6ED0002489460F1CB046261C3B
:10AF300065002D19ED004D441135FF352B78434543
:10AF400059D12B7ADB06DB0E012B0BD0686802F09F
:10AF5000DDFC1F2318402B7A1F22934303432B72DF
:10AF6000012848DD01AB002201925A609A60DA6044
:10AF70001A615A619A61DA611A6259460A881A801E
:10AF80006A789A70DA780F218A4301210A430F21E7
:10AF90000A4010210A43DA706A889A802A7AD20617
:10AFA000D20E9A711A7A03218A4302210A431A7235
:10AFB000EA68DA606A7A1A82AA7A5A82EA7A9A8205
:10AFC00029699961696900290DD00B78002B0AD095
:10AFD00008A805220AF091FA696905316846263009
:10AFE00002220AF08AFAF600124A911901A802F028
:10AFF000B7FC002814D10134E4B2B923FB5CA342AE
:10B0000095D846460136F6B2B8230B4AD35CB34214
:10B0100000D963E703E0072002E0002000E0002001
:10B020000BB03CBC90469946A246AB46F0BDC0462C
:10B03000702B0020842B00205C4D002000000000BD
:10B04000F8B54F464646C0B480462D4841460AF002
:10B0500053F82C4B18685968284B274A09F032FFDF
:10B060004B04C60B1E43CF0B274B1B68984505D0DE
:10B07000244B98462C23FF33994610E0A020C005AE
:10B0800022498022920443581342FCD0A020C005DC
:10B090001E498022920443581342FCD1E8E704F091
:10B0A0004BFA002813D0434618685968134B124ACC
:10B0B00009F008FF4B04C40B1C43CD0B221C2B1CB6
:10B0C000921BBB41002B02D1E9D14A45E7D90D4B78
:10B0D00018685968094B084A09F0F4FE4904C00B86
:10B0E0000843861B312E03D83220801B09F0E2FD75
:10B0F0000CBC90469946F8BDE880000000000000B6
:10B100000C760200A0540020EC330020040500005F
:10B11000F0B5474680B494B080460F1C151C8023C0
:10B120005B055A6E1B6E0FAC201C26490AF062FCB0
:10B1300005F028F8021C0AAE301C23490AF05AFC1C
:10B1400000230293214B039304960594204B06930E
:10B150000793204B089305F02FF80990002F02D099
:10B16000022F0ED026E003AC0AAF1B4E01CC291CE7
:10B1700009F0C2FF301C291C09F0BEFFBC42F5D10A
:10B180001AE04046154901AA0AF056FC002803D0EF
:10B19000019B5A1E062A01D911480EE09B0002AA03
:10B1A0009858291C09F0A8FF0B48291C09F0A4FF96
:10B1B000002002E00A4800E0002014B004BC9046E1
:10B1C000F0BDC04614820200208202002C820200E0
:10B1D0003C8202004482020008810200647C02007A
:10B1E0006280000038B5051C141C012902D902290F
:10B1F0000CD01FE0124B187A3030111C09F01CFFE4
:10B200001048211C09F078FF002018E00AF0C6FC65
:10B21000012811D12B78303BDBB2012B0ED8084A24
:10B22000127A00209A420AD0054A137204F094F967
:10B23000002004E0044802E0034800E0024838BD72
:10B240005C4D0020088102006280000008B50029E2
:10B250000AD1101CFFF7F4FEBFF34F8F034A044BD3
:10B26000DA60BFF34F8FFEE7024808BD0400FA051D
:10B2700000ED00E06280000010B5141C00290ED122
:10B2800004F0DEF901F000FB201CFFF7D9FEBFF34C
:10B290004F8F044A044BDA60BFF34F8FFEE7034839
:10B2A00010BDC0460400FA0500ED00E06280000019
:10B2B00008B5002906D1101CFFF7C2FE01F08CFB77
:10B2C000002000E0004808BD6280000010B50029A1
:10B2D00023D1134B1B689A420CD102F0FDFA104B9C
:10B2E0001C6802F0F3FA021C201C0E4909F06CFEE7
:10B2F000002013E000F05EFD0123181AC0B200F038
:10B300005FFD094B1B689C6800F054FD021C201C6B
:10B31000044909F059FE002000E0044810BDC04671
:10B3200058410020247602005C2A00206280000040
:10B3300010B582B0141C022918D1114901AA0AF0D3
:10B340007BFB002814D00199072913D8022913D0B8
:10B35000C9B20220002203F047F803F07FF8021C74
:10B36000201C084909F030FE002006E0064804E0F1
:10B37000054802E0044800E0034802B010BDC046A2
:10B38000647C0200508202006280000010B5141C30
:10B3900000290AD103F050F803F074F8021C201CB5
:10B3A000034909F011FE002000E0024810BDC0462C
:10B3B000508202006280000039DF70473ADF704738
:10B3C00052DF704710B582B0141C012918D801A8AB
:10B3D000FFF7F6FF002811D1019BD917890FCB1871
:10B3E0009A10032003405B1A9900CB1899005B1850
:10B3F000201C054909F0E8FD002002E080B200E0D1
:10B40000024802B010BDC0467C820200628000008B
:10B4100010B582B0141C02292AD101235B4201938A
:10B42000174901AA0AF008FB002823D0019B1F2B13
:10B4300022D8C133FF339B0080218902A022D2058C
:10B4400099501048211C09F057FE322009F032FCB7
:10B450000020002100F0BAFC0120002100F0B6FC21
:10B460000121A023DB008022D205D150002004E07E
:10B47000054802E0044800E0034802B010BDC046A1
:10B48000647C02000C76020062800000F0B5474642
:10B4900080B486B09046002902D0022904D056E03C
:10B4A00004226B46DA750BE069461731FCF796FE0D
:10B4B00000284ED06B4617331B78013B0F2B4AD820
:10B4C00000256C46033400276E4617362770201C73
:10B4D000FFF772FF83B2002B19D12378002B12D013
:10B4E0003178491B0A1CC9B2994200D91A1CD1B241
:10B4F000227001AB5819FFF761FF80B200282BD1F1
:10B500002378ED18EDB23378AB42DFD801E0181C98
:10B5100022E01348414609F0EFFD6B4617331B78D4
:10B52000002B0ED000240F4E6D46173501AB1A5D6F
:10B530004046311C09F048FD0134E4B22B78A342A7
:10B54000F4D80948414609F0D7FD002004E0074837
:10B5500002E0064800E0054806B004BC9046F0BD95
:10B5600088820200C4750200088102006280000027
:10B5700010B582B0002902D0022909D034E01C4B5A
:10B580009B7A101C1B491A1C09F01EFD00202CE0A0
:10B5900069460731FCF722FE002804D06B460733CA
:10B5A0001B78012B01D914481FE0114A927A9A4264
:10B5B00018D0002B03D10120002100F007FC6C46BD
:10B5C000E2790B4B9A7203F0C7FFE379012B09D1A3
:10B5D00001F0CCF8094BC1184B1E9941C9B20120AA
:10B5E00000F0F4FB002000E0034802B010BDC046AC
:10B5F0005C4D002024760200628000000100FFFF05
:10B60000F0B5474680B492B094460CAA354B141C52
:10B610001D1CC4CDC4C4C4CDC4C409AC1833C4CB30
:10B62000C4C4002902D002290CD056E02E4B597A0E
:10B6300089000CABCB5860462C491A1C09F0C4FC9D
:10B6400000204BE0012301930023029303A9072369
:10B650000B7006224A7001AA4A600CAA8A600B731A
:10B6600003234B7302AB0B6109AB4B610222FCF766
:10B670006BFE00282FD0012803D9019B052B2AD16E
:10B6800002E0019B052B26DC174A527ADBB29A4274
:10B6900008D00020002100F099FB134B019E5E7240
:10B6A00003F05AFF019F052F13D1029B022B0AD1F1
:10B6B000002000F0ABFC0123011C5940C9B200205E
:10B6C00000F084FB05E05A1E9341D9B2002000F03F
:10B6D0007DFB002002E0064800E0054812B004BCF3
:10B6E0009046F0BD588202005C4D00208C82020022
:10B6F00062800000F0B54F464646C0B483B0161CC9
:10B70000002902D0022924D038E003240125224B4D
:10B7100098460027214B9946E0B202F0FBFD002835
:10B720000BD0002D03D14846311C09F0E5FC301C3C
:10B730004146221C09F048FC3D1C0134782CEBD119
:10B740000020002D22D11648311C09F0D5FC002024
:10B750001CE000230193134901AA0AF06DF90028A7
:10B7600003D00198C31E742B0AD90F480EE0301C79
:10B770000E49019A09F028FC002007E00A4805E07C
:10B78000C0B202F0C7FD0028F6D0F0E703B00CBC51
:10B7900090469946F0BDC046C88202000476020079
:10B7A00008810200D082020062800000D482020080
:10B7B000011C00201F2919D80D4B1878002810D023
:10B7C0000C4B1B788B420ED00B4B0138C0B21818B3
:10B7D00003E01A7801338A4207D08342F9D101206D
:10B7E00004E0012002E0002000E000207047C04695
:10B7F000DD820200E0820200E182020030B583B007
:10B80000141C022941D1264901AA6B460AF014F9F9
:10B81000012805D002283AD1009D012D39D812E027
:10B82000A223DB00A022D205D358019AD3400120E5
:10B8300018403030211C09F0FFFB1A48211C09F088
:10B840005BFC00202AE0184BA022D205D358019CB3
:10B85000E340DA071FD5201CFFF7AAFF00281CD001
:10B86000002D08D10123A3401C1C104BA022D2059F
:10B87000D450002012E00123A3401C1CA123DB00B4
:10B88000A022D205D450002008E0094806E008486C
:10B8900004E0074802E0064800E0054803B030BD78
:10B8A000307F020008810200140500000C05000032
:10B8B0006280000030B583B0141C022964D138497D
:10B8C00001AA6B460AF0B8F8012805D002285DD11C
:10B8D000009D032D5CD823E0324BA022D205D25824
:10B8E000019BDA400120D1070FD49B00A022D20592
:10B8F0009B18E022D2009A580320510705D4E02279
:10B90000D20098580007C00F400000903030211C32
:10B9100009F092FB2448211C09F0EEFB00203CE0DA
:10B92000019C201CFFF744FF002833D0012D08D0D4
:10B9300002DC002D0ED02FE0022D13D0032D1AD0E3
:10B940002AE0C134FF34A4000322A023DB05E25027
:10B95000002022E0C134FF34A4000020A023DB0536
:10B96000E0501AE0C134FF34A4000C22A023DB0510
:10B97000E250002011E0C134FF34A4000422A023CF
:10B98000DB05E250002008E0084806E0074804E034
:10B99000064802E0054800E0002003B030BDC04684
:10B9A000307F020014050000088102006280000060
:10B9B00010B586B0022925D1174905AA04AB0AF0B3
:10B9C0003BF8022820D1059C201CFFF7F1FE00283F
:10B9D0001CD0049A642A1BD8684600210E2209F064
:10B9E000AEFD01236A461370547013710223537124
:10B9F0009372684602F066FD0020049902F052FE40
:10BA0000002006E0054804E0044802E0034800E0A6
:10BA1000024806B010BDC046307F020062800000C0
:10BA200070B582B0141C012902D902290CD057E04C
:10BA30002D4B5A7D1207520E2C4BD258201C2C49EC
:10BA400009F0C2FA00204CE001A9FCF78DFB0028A8
:10BA500044D0019A254B1B689A420FD025490123F7
:10BA60000868824204D1DDB26AB2002A08DA35E001
:10BA70000133DBB20831102BF2D12FE00023002577
:10BA80006DB2194A527D1207120F954224D0164A00
:10BA90000F210B40517D0F2081430B435375201C18
:10BAA000FDF7ACF8142009F005F9134C0126E66106
:10BAB000052009F0FFF8ED000C4B5D196A680F4B8B
:10BAC000E250002384225200A3508E225200A35041
:10BAD000A660266003F040FD002002E0084800E078
:10BAE000074802B070BDC0465C4D0020F0820200E5
:10BAF00050820200F882020000200040240500006D
:10BB00006280000010B584B0141C012902D90229FA
:10BB10000DD06EE0384B5A7DD206D20F01235A4029
:10BB2000D2B2201C354909F04FFA002062E06A4683
:10BB30000023D370033201A901938B6008230B709B
:10BB40004A600122FCF700FC012801D02C4851E09A
:10BB50006A46D17801234B40D370274A527DD206E2
:10BB6000D20F9A4243D0244A01210B401901537D40
:10BB7000102083430B435375201CFDF73FF814201E
:10BB800009F098F81F4B0122DA61052009F092F8BC
:10BB90006B4603331B78002B0ED01A4B1A4A995868
:10BBA00001208143995001225242A221C9005A50DA
:10BBB000A121C9005A500DE0124B134A9858012197
:10BBC000014399500A21A222D20099500821A122B2
:10BBD000D20099500B4B0022842149005A508E21EB
:10BBE00049005A5001229A601A6003F0B5FC002007
:10BBF00000E0034804B010BD5C4D00202476020034
:10BC000062800000002000406C05000000B58DB08F
:10BC1000022931D101A9002301938B60CB604B61D4
:10BC20008B610B6205230B706B462F334B600A232D
:10BC30000B736B462E330B610AABCB610322FCF70F
:10BC400083FB03281AD16B462E331978002917D0AD
:10BC500001331B78C822D20098180C4A8218802021
:10BC60004000C31A9BB20A98FCF7FEFC002809D0DA
:10BC700003F072FC002006E0054804E0044802E0FE
:10BC8000034800E002480DB000BDC0465C4D0020F6
:10BC90006280000010B58AB0141C022933D1002341
:10BCA00000930293039305930693089305236A4632
:10BCB0001370273201926A4613736B46263304933E
:10BCC0000A2313766B462533079369460322FCF754
:10BCD0003BFB032819D16B4625331978002916D070
:10BCE00002331A78C823DB00D2180A4BD2186B46ED
:10BCF00026331B78201CFCF753FC0748211C09F055
:10BD0000FBF9002004E0054802E0044800E0034895
:10BD10000AB010BD5C4D0020088102006280000066
:10BD200070B588B0141C02291ED101A9002301930B
:10BD30008B60CB604B6105230B706E461F364E60E7
:10BD40000B736D461E350D610222FCF7FDFA30784B
:10BD5000C823DB00C018064BC0182A780121231C19
:10BD600009F036FB002000E0024808B070BDC04674
:10BD70005C4D00206280000048DF70477047C0467D
:10BD8000830702D50122044B1A708B0702D50022CB
:10BD9000014B1A707047C046762C0020014B188862
:10BDA0007047C046742C0020014B18887047C0466D
:10BDB000402D0020014B18787047C046762C00209B
:10BDC000014B18707047C046762C0020012805D121
:10BDD0000E4B9B7A1320002B04D115E043424341C4
:10BDE0001320C01A002908D001238340181CA12366
:10BDF000DB00A022D205D05006E001238340181CAE
:10BE0000034BA022D205D0507047C0465C4D0020A5
:10BE10000C05000030B58DB0A823DB00664AD15870
:10BE20000023664A914204D8A823DB00624AD35813
:10BE30009BB2634A1380A823DB00624AD1580023D7
:10BE40005E4A914204D8A823DB005E4AD3589BB2D5
:10BE50005D4A1380002300932020082106225B4BBB
:10BE600004F0DEFF002803D00021002200F096FB42
:10BE70000220574904F060FB002803D00021002273
:10BE800000F08CFB092053494822002305F042FCB6
:10BE9000002803D00021002200F080FB4E4805F06E
:10BEA00069FC80B2002800D083E007F019FB80B263
:10BEB00000287ED103F062FC00287AD109A80B2368
:10BEC000037009234370082383700A23C370434B14
:10BED0005B7DD906C90F01224A40027100224271DE
:10BEE0001B075B0E3E49CB185B6883606B46DA81AB
:10BEF0000E333C4A0492802205923B4906910792F8
:10BF0000009304A9394A012305F02AFA80B20028D7
:10BF10004FD1374B1B689868002109F0DBFCA02348
:10BF2000DB050C21E822D2009950A222D2009B58B6
:10BF3000DA030BD42F4808F0BDFEA223DB00A022B9
:10BF4000D205D358DA0301D403F07AFBA024E40528
:10BF50000C25294BE55002F005FA02F051FE274B63
:10BF6000E5506846233002210222254B04F022FBD3
:10BF700080B200281DD16B462333187804F046FBAD
:10BF8000A222D200A1588907C90F1E4A11700322AC
:10BF9000E921C90062501C49625001200021FFF7CD
:10BFA00015FF01246442201C02F098FE201C02F0C0
:10BFB000A9FE0DB030BDC04600900040FEFF00005D
:10BFC000742C002000A00040402D0020442D0020B3
:10BFD00014310020782C00204D3302005C4D0020ED
:10BFE000F0820200C02C0020943000207DBD0100B2
:10BFF0005C2A0020DC0500001C070000040700008C
:10C0000081BD0100762C00204C070000431E9841A2
:10C010001230044BA022D205D358C340181C012370
:10C020001840704704050000014B587A7047C0461D
:10C030005C4D0020031C0020002B08D1A223DB0054
:10C04000A022D205D058C00901235840184070479B
:10C0500008B5FFF791FE08BDF0B557464E46454678
:10C06000E0B48046264B18685968244B224A08F0F1
:10C0700029FF4B04C60B1E43CF0B214B9946F423DB
:10C08000FF339A46404605F0B7FA002814D04B46D5
:10C0900018685968194B184A08F014FF4B04C40B70
:10C0A0001C43CD0B221C2B1C921BBB41002B17D118
:10C0B000E8D15245E6D913E0114B186859680F4B87
:10C0C0000D4A08F0FFFE4C04C20B2243CB0B921B1F
:10C0D000BB41002B04D108D1F423FF339A4204D989
:10C0E00005F096FA0120404200E040461CBC904614
:10C0F0009946A246F0BDC046E8800000000000005E
:10C10000A0540020C046C04600B583B06846073042
:10C1100005F05EFA002802D16B46D87901E00120D3
:10C12000404203B000BDC04600B583B06946073148
:10C1300005F07EFA002802D16B46D87901E0012093
:10C14000404203B000BDC04672DF704773DF7047E6
:10C1500074DF704776DF704760DF704768DF7047D5
:10C1600008B507F0F3F808BD38B50024064D2B19C3
:10C17000DA79002A03D01B69002B00D098471434C9
:10C18000642CF4D1002038BD0029002030B58FB0D8
:10C1900004282CD869463731164BDB7A0B700CAA71
:10C1A000154B84002518AD005D19AD881580241845
:10C1B000A4001B199B7993700023009302930493AE
:10C1C000059306930793089309930A930B93062309
:10C1D0006C46E3700191012323810392032800D16F
:10C1E000A3706846002105F0E9FC80B200E0034836
:10C1F0000FB030BD5C4D002000290020628000009F
:10C2000030B597B010AC0223237015236370124D24
:10C21000291C6C3168464230152209F06EF90DAACE
:10C220008223EB5A1380172393800F9401A80023D5
:10C23000019343608360C360036143618361C361B1
:10C2400003628362C3620423C3704262002105F06B
:10C25000B5FC80B217B030BD5C4D002070B592B017
:10C26000061CFFF775FF0CAC00230C930D930E9387
:10C270000F931193524DA88FC000052108F0C0FD07
:10C280002082EB8F63824023EB5CDA0704D50CAB92
:10C2900003221A70A0221A82002E04D00CAB494A45
:10C2A0001A8200225A82464A4923D15C052900D9C4
:10C2B00083E08B00444AD3589F46414B1B7D0020AE
:10C2C000DA0704D5042149233D4AD15403203C4BCD
:10C2D0001B7D9A0704D505214923394AD1540420EE
:10C2E000FFF754FF031C002B3BD067E03748C17FAA
:10C2F00000220023FFF728FF83B2181E31D05DE033
:10C300004323334AD35C0020002B00D00320FFF7E7
:10C310003DFF031C002B24D050E057232C4AD05C57
:10C32000431E98418000FFF731FF031C002B18D0FB
:10C3300044E00CABA0221A8200225A82FFF760FF71
:10C34000031C002B0DD039E000220CAB5A8200F008
:10C350009BFE002803D00220FFF718FF01E000F049
:10C3600099FE002300930193029303930493059392
:10C3700006930793089309930A930B93154809F0C2
:10C380000DFC00231D2282425B4101336A4613707B
:10C39000104809F003FC00231D2800D91D236A461C
:10C3A00053700020694605F009FC83B2181E05D1C0
:10C3B0000CA8FFF7CBFE80B200E0072012B070BDE2
:10C3C0005C4D00206A03000070830200C84D00200D
:10C3D00000290020A84D002008B500F0C7F9064B41
:10C3E000984205D000F0C2F91321FFF7B3FE02E036
:10C3F0000020FFF733FF08BDFFFF0000F0B585B058
:10C4000002A8354B021C12CB12C2FFF7A5FE83B265
:10C41000181E5FD1314805F0A3F983B2181E59D117
:10C420002F4805F0A7F983B2181E53D180235B056E
:10C430005B6B022B0FD168460021082209F07FF8C0
:10C4400069460A78012313430B700120FFF786FE2B
:10C4500080B200283ED100F0E5F800F069FA01F062
:10C46000A7FB204B204A127DD007C00F4321585410
:10C470009007C00F572158545107C90FD97612079A
:10C48000D20F2F215A541C1C1E1C64360127251C58
:10C49000E379002B0ED02068002801D1A77104E0B9
:10C4A00001F034FAA071012813D9AA68002A01D03A
:10C4B000A87990471434B442E9D1FEF7F5FC48233B
:10C4C000094AD35C0020002B04D0FFF7C7FE0020F0
:10C4D00000E0072005B0F0BD88830200EDC4010034
:10C4E00061C10100002900205C4D002070B586B0BC
:10C4F000051C00F069F9281C06F02AFD281C00F034
:10C5000033FA2B88112B1FD0192B25D0102B3AD1A1
:10C5100001200121FFF75AFC4A231D4AD35C002B5E
:10C5200031D0002300930193029303930493059366
:10C5300003236A461370A02313826846FFF706FEA2
:10C5400080B200281FD021E001200021FFF73EFC2F
:10C550000020FFF783FE16E0AB79002B13D10120FA
:10C56000FFF77CFE0FE03319DA79002A04D0DB688C
:10C57000002B01D0281C98471434642CF3D1281CBC
:10C58000FEF756FC02E00024024EECE706B070BD58
:10C590005C4D00200029002001207047BFF34F8F21
:10C5A000024A034BDA60BFF34F8FFEE70400FA053F
:10C5B00000ED00E077DF704778DF70477ADF704783
:10C5C0007CDF704784DF7047A7DF704762DF70470A
:10C5D0007047C04608B5021C0B78122B10D0D9B298
:10C5E000122902D8112B05D016E0142B0FD0212BC5
:10C5F0000DD011E00948111C042208F07EFF0BE069
:10C60000064805F0A5FF064805F0A2FF04E004482F
:10C61000111C042208F071FF002008BD48310020E1
:10C620004031002070B58AB0464805F091FF464879
:10C6300005F08EFFFFF7B0FF40080124204001AB5A
:10C64000187003AB00220592404A039201221A712E
:10C650000D225A7107229A711022DA71FFF79CFF9E
:10C66000044209D001A805F0CDFD80B2002803D115
:10C67000374803A905F062FE364C201CFFF7A6FFE1
:10C680002278354B1A70354B0B201856FFF792FF66
:10C6900083B2181E54D1FFF77FFF031C0020D90777
:10C6A0004ED56A4613780F229343012213430F227B
:10C6B0001340102213436C462370294C201C09F0B0
:10C6C0006DFA82B26846211CFFF77AFF83B2181E0A
:10C6D00036D14923214AD35C0020042B00D12148C4
:10C6E000FFF76AFF83B2181E2AD11C4D2E8F01ACB2
:10C6F000B000052108F036FB2080688F80000521FE
:10C7000008F030FB60800023A380E3802B7D9D0731
:10C7100004D0142E02D1092201AB1A8001A8FFF720
:10C720004DFF83B2181E0BD103A80F4A031C32CA57
:10C7300032C332CA32C312681A6006F0C3FB80B239
:10C740000AB070BD4831002040310020D5C501003D
:10C75000443100204D3100204C3100205C4D002040
:10C76000A84D0020C1030000CC830200014B1888B3
:10C770007047C04664290020014B002018567047BE
:10C780003C310020054B1B78FF2B05D0034B9878DC
:10C79000FF38431E984100E00020704740310020E0
:10C7A00000B585B000230093019302930393012306
:10C7B0006A4613700348694605F05EFE80B205B014
:10C7C00000BDC0464031002010B5041CFFF7E4FE58
:10C7D000C30702D5201C05F0BBFF2388112B2ED0E8
:10C7E00004D8012B09D0102B15D041E01A2B35D0DD
:10C7F000522B37D0182B3BD134E01E4B1A78237ABA
:10C80000D3181D4A11781A1CDBB28B4200D90A1CBE
:10C81000184B1A702CE0A288184B1A80FFF7BCFE48
:10C82000C30705D5154B188801210022FFF7CAFE62
:10C83000022002F053FA012002F044FA18E001222B
:10C8400052420E4B1A800C4B1A780A4B1A70012078
:10C8500002F044FA022002F035FA09E0A279084B0E
:10C860001A7005E0054B18880C21064AFFF7ACFE4C
:10C8700010BDC0464C3100204D31002064290020FD
:10C880003C310020FFFF000008B5FFF785FEC3071D
:10C8900004D5034805F096FD80B200E0014808BDCC
:10C8A000443100206380000008B5011C054B1A8844
:10C8B0000820054B9A4203D0044805F057FE80B289
:10C8C00008BDC04664290020FFFF00004831002059
:10C8D000024B1878431E9841C0B270474C3100207B
:10C8E000024B1A78013AD2B21A7070474C310020CC
:10C8F00044DF704711DF704713DF704774DF704704
:10C9000076DF704708B5FFF731FF084B984204D037
:10C91000FFF72CFF1321FFF7F3FFFFF7EFFF0120D5
:10C920000021FFF753FA06F00BFB08BDFFFF0000E4
:10C9300010B584B0FFF732FA01A90880074B4B60AD
:10C9400000238B60064807F0DBF884B2002C02D18C
:10C95000044807F0C3F8201C04B010BD6D39020074
:10C960005031002005C9010008B5011C014807F03D
:10C970003FFA08BD50310020064C064D061C064FFC
:10C98000F0B40024002500260027F0B40348004737
:10C9900070470000FFFFFFFF00000021F9FFFFFFCD
:10C9A0000A4B0B4AD22189005A50C22189005A50A1
:10C9B000016881F3088840680022EFF305839A42FA
:10C9C000DAD1044CA64600477047C046001001402B
:10C9D00001000100FFFFFFFF10B5FFF793FFB1203B
:10C9E000FFF786FF83B2181E19D1FFF783FF83B2CA
:10C9F000181E14D10A4B5869FFF77EFF84B2201E1F
:10CA00000DD1084B8021C903C022520099501968EA
:10CA100080229950024B5869FFF7C2FF201C10BDBD
:10CA20000010001000E100E072DF704777DF704710
:10CA3000A0DF7047A4DF7047A8DF704730B58BB028
:10CA4000051C864C201C00214E2208F078FD002396
:10CA50002371834A928F6280824A137009A98223CC
:10CA60009B010B808D700120221CFFF7E1FF83B238
:10CA7000181E00D0F0E001930293059306930793EC
:10CA8000089376490B886846038009AB9B788371CD
:10CA900001231122C270744A82800622027202228D
:10CAA00082700A1D0392838243820382063100F062
:10CAB00057FF031C002B00D0CEE06C4B68468380F0
:10CAC000037A0322934302221343037208238370E1
:10CAD000674B039301230382102343820023838245
:10CAE0005E490E3100F03CFF031C002B00D0B3E088
:10CAF000604B69468B800B7A0322934301221343D8
:10CB00000B72002308228A700393012268460A826E
:10CB100010224A828B825149163100F021FF031CFA
:10CB2000002B00D098E0544B68468380027A0323A0
:10CB30009A4302231A4302720822134383704F4B15
:10CB400003930122028212224282A63BA5229B5C11
:10CB5000838242491E3100F003FF031C002B7BD16E
:10CB6000474B6A469380127A03239A4302231A435F
:10CB700068460272082213438370424B03930123D9
:10CB80008382438203823549263100F0E9FE031C8B
:10CB9000002B61D13C4B69468B800A7A03239A4370
:10CBA00002231A430A72082213438B70374B0393F4
:10CBB00004238B8268464B820B8228492E3100F079
:10CBC000CFFE031C002B47D1314B6A469380127A6B
:10CBD00003239A4302231A4368460272082213432E
:10CBE00083702C4B039301238382438203821B496E
:10CBF000363100F0B5FE031C002B2DD1264B6946C3
:10CC00008B800A7A03239A4302231A430A7208226A
:10CC10001A438A701149CA1803926A469382684679
:10CC2000538213823E3100F09BFE031C002B13D174
:10CC30001A4B68468380027A03239A4301231A43DE
:10CC4000027208228270002203928382438203824E
:10CC50000249463100F084FE0BB030BD8031002027
:10CC60005C4D0020E0310020812000008220000087
:10CC7000E84D00208320000084200000024E0020A8
:10CC800085200000F94D002086200000FC4D00208A
:10CC900087200000004E002088200000892000002E
:10CCA000F0B54F464646C0B485B0041C0388512BEE
:10CCB00000D054E18379022B00D050E1028BAA4BC3
:10CCC0001B889A4200D04AE1837A012B00D046E1CA
:10CCD000038AA6495A1892B2012A25D8A24A127983
:10CCE000002A15D09C23A24AD25C038C934200D028
:10CCF0002DE122309F4908F0F1FB002800D026E109
:10CD0000228A9A4BD21853425A41974B1A7114E116
:10CD1000994A934200D01AE1038C013B9BB2002256
:10CD20000E2B00D8EFE012E18F4B1B79002B00D0C7
:10CD30000DE102E1218CA5238D4AD15402F00CFCB7
:10CD400000228E4B1A70DEE002F006FC0022DAE0D0
:10CD5000238C042B00D0C4E00023271C0837202597
:10CD6000A9461026B0460421FA18907EC2B2151CBE
:10CD70004E46B5436DB228350CD0161C4546AE4321
:10CD800076B2143606D08A4352B2103202D08843AB
:10CD900000D0A9E00133042BE6D1754BA4229A5CA4
:10CDA000A218203295780B2159566BB20022994275
:10CDB00000D1A8E0181CFFF739FE6D4BDD7202F0C0
:10CDC000CBFB00229FE0238C012B00D08FE022239D
:10CDD000E35C032B00D98DE0A42265498A5C9A426A
:10CDE00000D18AE00A1CCB1898331D7A0B215156CA
:10CDF0006BB20022994200D185E0181CFFF716FEA5
:10CE00005B4BDD7202F0A8FB00227CE0238C022B3E
:10CE100002D00E22FF3276E06846211C2231022227
:10CE200008F06BFB69460A88002A06D100214923D5
:10CE30004F4AD15402F090FB1DE0131C132A00D876
:10CE400014239AB2A02189018A4201D9A0239B010F
:10CE50009AB26D462B80444B5B88002B00D079E062
:10CE6000434B0320492158549B8F934201D0404BA0
:10CE70009A8702F071FB002245E0238C012B3ED102
:10CE80002223E35C002293423DD0394D281C8C3094
:10CE9000111C2C2208F053FB10229C23EA54EE2292
:10CEA0009F23EA540422A023EA54FC22A223EA543A
:10CEB000F422A323EA540122A423EA540A22A5233C
:10CEC000EA54281CA6302E490B2208F016FB281C19
:10CED000B1300021072208F032FB02F03DFB0022B6
:10CEE00011E00E22FF320EE00422FF320BE00E2290
:10CEF000FF3208E00422FF3205E0002203E00E22A8
:10CF0000FF3200E000220023009301930293039379
:10CF100002236E4633706946B280A088FFF78CFD0D
:10CF2000228A184B9A421AD10F4B5B88002B16D0DD
:10CF30000F4B9A8F0C4B5A8011E0238A124A9B1890
:10CF40009AB2052ADED89300104AD3589F4684220D
:10CF50005200D8E7064B9B8F934288D18BE705B0F0
:10CF60000CBC90469946F0BD803100207EDFFFFF6B
:10CF70005C4D0020E84D002082200000E0310020C0
:10CF800000840200882000007CDFFFFFE8830200AD
:10CF900070B5154B1B78002B1FD0144CA568144B93
:10CFA000186859680F4B0E4A07F08CFF4E04C20BED
:10CFB0003243CB0B20686168121A8B41002B01D1E0
:10CFC00095420AD80022084B1A70FFF7CFFB094B95
:10CFD000984202D10020FFF741F9002070BDC04601
:10CFE000E880000000000000E0310020D031002087
:10CFF000A0540020FFFF000030B583B0031C0C1CC0
:10D000000B4D281C191C221C08F077FAA63DA523FD
:10D01000EC54FFF7ABFB074BD98B00230093019334
:10D020006B461C806A46FFF705FD80B203B030BD39
:10D03000024E00208031002010B5002814D00122BB
:10D040000D4B1A700D4CFA239B005843A0600C4BFB
:10D0500018685968074B064A07F034FF4B04C00BA9
:10D0600018432060C90B616010BDC046C046C04671
:10D07000E880000000000000E0310020D0310020F6
:10D08000A0540020C046C046014B18787047C046E7
:10D09000E031002030B589B001AB00220392049248
:10D0A00005920692079203221A705A701849598005
:10D0B000184AA520105C0530187116205871D980C7
:10D0C000102119729F21515C59729E23D35C002B51
:10D0D00005D001AB104ADA805A8000221A7201ACE6
:10D0E0000E4D68460E30291C122208F006FAA63DA5
:10D0F000AA8F0B4B5A8021782379C9180231C9B203
:10D10000201C00220023FFF78FFC09B030BDC04671
:10D11000AAFEFFFF5C4D0020D8FEFFFF024E00205C
:10D1200080310020A0DF7047A5DF7047A6DF704781
:10D13000F0B5474680B48AB0FFF718FB204B984201
:10D1400039D0204B1B78002B35D1FFF70FFB8046E1
:10D150001D4D2E1C1D4F2AE0281C6946013101F08F
:10D1600063FE002827D06B465C78301C05A9221C82
:10D1700001F09EFE84421ED16A466B4601331B7845
:10D180005380023201A9002301934B608B60CB6076
:10D190007B880B8001238B708A6005ABCB60404697
:10D1A000FFF7C4FF80B2002805D1FFF799FBFFF716
:10D1B0008FFB0028D0D10AB004BC9046F0BDC04619
:10D1C000FFFF0000E831002078290020EC3100202A
:10D1D00030B58BB0051C204C201C00210A2208F021
:10D1E000AEF909A91D4B0B808D700120221CFFF7A1
:10D1F00099FF83B2181E2DD1194800F087FB002338
:10D20000019302930393059306930793089312499E
:10D210000B886A4613801E2393702123D370114B11
:10D22000938090710123137213821423538202316D
:10D23000684600F095FB031C002B0BD10A4801F057
:10D24000E5FE0A4801F0E2FE09480121094A03F01F
:10D250007BFE80B20BB030BDEC3100205A0E0000D6
:10D2600014840200DBE5FFFF7829002068290020F4
:10D27000E431002031D10100F0B583B0041C0388F3
:10D28000112B0AD0502B13D0102B4AD1264B1868E3
:10D290000B21002203F090FE43E0244801F0B6FE8B
:10D2A000234801F0B3FE204B186803F0DBFE38E0A2
:10D2B000C388204A52889A4226D1C38B042B30D986
:10D2C000861DB17EF27E6F468906C90C5206520E4B
:10D2D0000A43FA800637694605310B70144D281C45
:10D2E00001F02CFE281C391C022201F075FE211CC5
:10D2F0002231E28B023A92B2281C01F06DFE8020AE
:10D30000C00001F0DFFC0CE00A4AD2889A4208D142
:10D31000C38B022B05D1FFF735FA002801D0FFF7A8
:10D320003FFA03B0F0BDC046E43100207829002068
:10D3300068290020EC31002030B585B06C4600250E
:10D34000E5800634FFF712FA064BD98802AA0223B9
:10D35000138055805460FFF7E7FE238801201840B2
:10D3600005B030BDEC310020F0B5474680B48AB03E
:10D37000071C6B46D9730720002900D19EE0FFF7F8
:10D38000F5F9021C0020524B9A4200D196E0FFF7BB
:10D39000D3FF031C0820002B00D18FE0FFF798FA81
:10D3A000002821D04B4B1B899BB2002B1CD16B4614
:10D3B0006A460F321278DA82163306AC00220692E1
:10D3C0000792454A528822800122A2700893099749
:10D3D000FFF7CCF9211CFFF7A9FE80B200286DD120
:10D3E000FFF77EFA002069E03C4B18685968374B1C
:10D3F000354A07F067FD4E04C00B031C334300930E
:10D40000C90B0191334B1A899B889A1A92B26B46C9
:10D410000F331B7801339A423ADA2E4E2F4880465A
:10D42000052007F047FC3389B288D21A92B26B46C6
:10D430000F331B7801339A4216DA4246106851685E
:10D44000224B214A07F03EFD4B04C40B1C43CD0B7D
:10D45000221C2B1C00980199121A8B41002B2AD1F7
:10D46000DED1C72ADCD926E01C4B18685968174B57
:10D47000154A07F027FD4C04C20B2243CB0B009842
:10D480000199121A8B41002B17D101D1C72A14D848
:10D49000134C012323700F4D6E460F36281C311C90
:10D4A00001F04CFD3278281C391C01F095FD002359
:10D4B0002370002002E0042000E004200AB004BC35
:10D4C0009046F0BDC046C046E88000000000000065
:10D4D000FFFF000078290020EC310020A05400203C
:10D4E000E8310020C046C046A0DF7047A6DF704785
:10D4F000F0B58BB0324B1B78002B5ED1FFF736F9BD
:10D50000304B98420BD1304801F080FDFEF78CFD86
:10D51000022852D100200021FEF758FC4DE0FEF712
:10D5200083FD022845D1284B1B899BB2002B04D0D8
:10D53000264B1B899BB2002B3BD1FEF775FD0228C1
:10D5400037D100200021FEF741FC32E0301C291CBD
:10D55000142201F0ADFC6B46588000282DD0FEF758
:10D5600063FD022803D100200121FEF72FFC01AC4E
:10D5700000230193029303930493154A9388238015
:10D580000123A3706B46023303930495FFF7EEF873
:10D59000211CFFF7ABFF80B200280ED1FFF7A0F9E6
:10D5A0007B1EDFB2002F08D0FFF792F90028CDD103
:10D5B00003E00727044E05ADF6E70BB0F0BDC0460B
:10D5C00014320020FFFF0000882900209829002045
:10D5D000FC31002030B58BB0051C354C201C0021DF
:10D5E000142207F0ACFFA57009A901230B808D70F0
:10D5F0000120221CFFF778FF83B2181E56D1019339
:10D600000293039305930793089329490B886A466D
:10D61000138009AB9B7893710123138214235382E7
:10D620002123D3700323938010239370012313725B
:10D63000204B06930431684600F092F9031C002B3E
:10D6400034D102236A4693800C239370137A032209
:10D650009343022213436A46137200230393164B2B
:10D660000693684612490C3100F07AF9031C002B2E
:10D670001CD11248124907F09BFC031C114A106090
:10D680000520002B12D0181C002108F023F90E48A9
:10D6900001F0BCFC0D4801F0B9FC00220C4B1A70E3
:10D6A0000C4801210C4A03F04FFC80B20BB030BD96
:10D6B000FC310020288402002C8402003084020007
:10D6C0003884020058410020882900209829002031
:10D6D000F831002010320020F1D4010000B583B0F1
:10D6E00006486946073101F09FFB002802D06B46CF
:10D6F000D87901E00120404203B000BD9829002004
:10D7000000B583B0011C07486A46073201F0EAFB06
:10D71000002802D06B46D87901E00120404203B0D6
:10D7200000BDC04698290020014B188980B270477F
:10D7300098290020014B188980B270478829002061
:10D74000F0B54F464646C0B483B06B46D871FFF77C
:10D750000DF8334B984251D0324B186859682F4B13
:10D760002D4A07F0AFFB4B04C60B1E43CF0B2E4BCD
:10D770001A8992B29B88934233D12B498846294A11
:10D780009146052007F096FA41460B899BB28A889C
:10D790009A4214D14A4610685168204B1E4A07F03D
:10D7A00091FB4B04C40B1C43CD0B221C2B1C921B66
:10D7B000BB41002B25D1E4D1C72AE2D921E0194B86
:10D7C00018685968154B144A07F07CFB4C04C20BCF
:10D7D0002243CB0B921BBB41002B15D101D1C72A91
:10D7E00012D8124D01232B706C4607340E48211CB1
:10D7F00001F0A4FB00232B70207807E001204042B9
:10D8000004E00120404201E00120404203B00CBC92
:10D8100090469946F0BDC046E88000000000000038
:10D82000FFFF0000A05400208829002014320020AF
:10D8300008B50388102B08D002D8012B34D03BE068
:10D84000112B09D0502B17D036E01C4B18680D2136
:10D85000002203F0B1FB2FE0184B186803F002FC24
:10D86000174801F0D3FBFEF7DFFB022824D100208C
:10D870000021FEF7ABFA1FE0C288124B9B899A4247
:10D880001AD1011C2031C28B0F4801F0A5FBFEF715
:10D89000CBFB022803D100200121FEF797FA80205C
:10D8A000400001F00FFA07E0FEF7BEFB022803D1AB
:10D8B00000200021FEF78AFA08BDC0461032002081
:10D8C00088290020FC31002098290020014B18787D
:10D8D0007047C046F831002008B5064B1A78012180
:10D8E0008A1A1A70044801F091FB044801F08EFB7B
:10D8F00008BDC046F8310020882900209829002062
:10D90000A2DF704763DF704764DF704710B586B0F1
:10D9100000226B46DA7100235942C218D47B02AA56
:10D920008C54013B1A1C1032F6D102A80023437319
:10D93000037369460731FFF7E5FF83B20F2B08D168
:10D94000102002A96A46FFF7DFFF6B469A78DA716A
:10D9500002E00020002B01D16B46D87906B010BD43
:10D96000F0B5474680B490B0041C0D1CC378002B62
:10D9700008D10F229343012213430F221340102298
:10D980001343C3704B4B5B7B002B09D1E3780F2211
:10D990009343012213430F22134010221343E370D9
:10D9A000A37830221A4217D00FAE301C0021032278
:10D9B00007F0C5FDB3780622934302221343B370E8
:10D9C00033780F229343012213430F221340102276
:10D9D00013433370E378737008AA0020089009900D
:10D9E0000A900B900C900E90A378137000223021B7
:10D9F000194200D00FAA0D9207AA00231380112309
:10DA0000137002239370A06900280BD00378002BB9
:10DA100008D008AE099008F0C1F880B2308170815A
:10DA200007AB3361237F002B02D0231C1C330B93E5
:10DA300006AB00221A80618A268A761A771EBE41BA
:10DA400001221640207A032707407F00F6B2B44631
:10DA5000C6081640F600B0466646374380080240C6
:10DA6000100142463A4302439A70A37832221A4286
:10DA700002D0E07806AA10700C221A4202D0E27896
:10DA800006AB5A7001AA00239360D360231D019353
:10DA900006AB5360A38A13819181E36813612088E8
:10DAA00008A92B1CFFF72CFF80B210B004BC9046D5
:10DAB000F0BDC0465C4D0020A0DF7047A4DF70477A
:10DAC000A6DF704700B58DB00AA81849042207F0F8
:10DAD00014FD01200AA96A462E32FFF7EDFF83B23A
