:020000021000EC
:108000000080002025300200893002008B30020001
:108010000000000000000000000000000000000060
:108020000000000000000000000000008D30020091
:1080300000000000000000008F30020091300200BC
:1080400093300200933002003101020093300200AD
:1080500085F00100000000002DF5010093300200C2
:10806000933002009330020015EE010093300200BD
:1080700093300200933002009330020093300200EC
:108080009330020075F80100933002009330020033
:1080900055F901002D250200C505020093300200AC
:1080A0009330020093300200000000000000000046
:1080B00000000000000000000000000000000000C0
:1080C000402292029A1A92467047C046154B002BE6
:1080D00000D1114B9D46FFF7F3FF00218B460F4661
:1080E0001148124A121A0CF09BFA0C4B002B00D0CC
:1080F00098470B4B002B00D098470020002104002C
:108100000D000B480BF09EFA0CF084FB20002900B8
:1081100006F08AFC0BF09EFA000008000000000048
:108120000000000000800020582A0020A05F0020EE
:108130005D48020048DF7047704700000123800758
:1081400001D5044A13704908194202D00022014B9C
:108150001A7070471C300020014B18887047C046C9
:108160001A300020014B18887047C0461830002094
:10817000014B18787047C0461C300020014B187026
:108180007047C0461C30002001280ED1094B9B7A55
:10819000002B09D00123A02212308340D2050029F0
:1081A00006D0A121C90053507047431E9841F1E702
:1081B0000149F8E7743100200C050000A822F0B551
:1081C0005A49D2008C585A4800238DB0844201D8B5
:1081D0008B589BB257490B80574900238C588442D7
:1081E00001D88B589BB20024544A082113802020C8
:1081F0000622534B009407F0B3FDA04203D02200A7
:10820000210004F033FE02204E4907F0EBF900286C
:1082100003D00022110004F029FE00234822092087
:10822000494908F097F9002803D00022110004F012
:108230001DFE464808F0BCF909F0D0FC01F014F826
:10824000434B05A80593434B002503935A7D012317
:10825000D106C90F5940017112073F49520E8918C2
:108260004A680A21826002AA89183C4A3C4E089258
:10827000802208AC52000D8045716260E260A66009
:10828000384A0091210007F0B5FF374B29001B68E1
:10829000A02598680BF00BFFE8230C22A22780266C
:1082A000ED05DB00EA50FF00EB597602334207D1BF
:1082B0002E480AF09BFEEB59334201D100F084FFB7
:1082C000A025039BED05DA7D294B002A2CD0032243
:1082D000EA5006F083FC06F0E1FF0C22254B20005B
:1082E000EA500A3A1100244B07F0BCF9207807F055
:1082F000E3F9A223DB00EB58204A9B07DB0F137046
:10830000E9220323D200AB501D4A0021AB500120CB
:10831000FFF73AFF0120404200F072FD0120404289
:1083200000F096FD0DB0F0BD0C22D1E700900040AA
:10833000FEFF00001A30002000A00040183000208E
:10834000C82C0020A02C0020582C0020C51A0200A8
:108350000B09080A74310020EC5F0200582B002042
:10836000582A002039810100042A0020DC05000081
:108370001C070000040700003D8101001C300020A4
:108380004C0700000300A0215A1E9341034AC9056F
:1083900088581233D8400123184070470405000064
:1083A000014B587A7047C0467431002010B5FFF772
:1083B000C1FE10BDF0B5204985B0002303901F4ACF
:1083C000086849680BF01AF84B04C40B1C43CD0B2A
:1083D000194F002338687968184A0BF00FF84B04DE
:1083E000C20B1A43CB0B00920193009A019B121B04
:1083F000AB41002B19D1FA267600B24215D2039870
:1084000008F01EF80028E3D10023386879680B4A89
:108410000AF0F4FF4F04C20B3A43CB0B121BAB41E3
:10842000002B02D10398B24203D308F01DF80120BB
:10843000404205B0F0BDC04600590020E880000071
:1084400013B56B46DC1D200007F0E6FF002801D1C4
:10845000207816BD01204042FBE713B56B46DC1DBA
:10846000210008F00FF8002801D1207816BD012066
:108470004042FBE7002330B504889AB2944201D809
:10848000002007E04268DD005219156801338D4273
:10849000F3D1506830BD0000F7B505001600002488
:1084A00001912B88A34201D808480BE06B68E700D4
:1084B000DB193200019958680CF092F8002802D1BB
:1084C0006B68D859FEBD0134A4B2EAE7DFFDEF7E48
:1084D00080235B0510B5DC6D0748A4B22100FFF7CF
:1084E000C9FF002806D105482200040004490BF00A
:1084F0009DFE200010BDC046E8680200313000201B
:10850000EB64020010B5FFF72DFE0400FFF72AFE12
:10851000220A044CC3B20449200092B20BF086FE3A
:10852000200010BD1D3000207C600200F0B504006A
:1085300087B00622144902A80CF0BAF906221349A2
:1085400004A80CF0B5F9270000252678631C0193D8
:10855000002E03D128003E7007B0F0BD5C2E0ED176
:10856000617802A80CF080F8002808D0082202AB3D
:10857000C01A9B181E5C0135A31C0193EDB23E701E
:10858000019C0137E1E7C0468E6002009460020062
:1085900010B5032406490378002B00D110BDCA5C36
:1085A0002240022A00D1203B03700130F3E7C0468D
:1085B0005D700200F8B506000F0015000024AC4203
:1085C00002D10120404207E0A3003000F9580CF02E
:1085D0002FF8002801D12000F8BD0134EFE700009A
:1085E000124B10B51B680C00834215D1C9782000CE
:1085F0004906490E043106F0EFFC00280CD0E37860
:108600007F2B0AD801220A4B80215A62A022A12383
:10861000D205DB008904D15010BD06F0F3FC8023A5
:10862000DB001B1A232BEDD9F6E7C046EC500020E7
:1086300000400040802210B55200002103480BF09A
:10864000EFFF0022024B1A8010BDC0465A300020B6
:10865000583000205822F0B5BB4B93B00A911988CE
:108660000590FF32002905D0914204D00020B64B7E
:10867000188099E01A80B54D2C889C2C00D124E1FB
:1086800022D8002C79D08F2C00D185E00021AF4B6F
:10869000AF4A19801378102B00D0DFE1937850781F
:1086A0001B020343AB48834200D03BE1A022802160
:1086B000A94BD2058904D150BFF34F8FA74BA84ACD
:1086C000DA60BFF34F8FFEE7AF2C00D1A4E0C02CDF
:1086D000DCD17F259E4BA34F0B93DC78A24A00236D
:1086E000386879680AF08AFE4B04C20B1A439F4E21
:1086F000CB0B089209930898099932687368801A1D
:108700009941020020000B002840B1682C4200D1A2
:10871000C6E00020984200D0F8E0914200D8F5E091
:108720006206934C934B2088520EC0180121059B82
:108730000BF024FB2388C0B2C31823800B9BDA788C
:1087400053065B0E1B1A2B40AA431A430B9BDA708D
:1087500000280BD0386879680023834A0AF04EFE5F
:108760004B04C00B1843C90B30607160784BDB7849
:108770002B42AFD0C022754B1DE00422210074486B
:108780000BF04EFF802221007A4852000BF048FF88
:10879000774B1C808F232B800021059804F05AF919
:1087A000013000D083E0744813B0F0BD013400D034
:1087B0008BE09C22654B1A80F5E700230868496826
:1087C000694A0AF01BFE4B04C20B1A43CB0B019300
:1087D000664B009218685968009C019D241A8D41CF
:1087E0009A68002D00D091E0A24200D88EE0009956
:1087F000019A19605A60614B059A1B689A4205D12B
:108800005B4B1B88002B01D106F0EEFB1022504B76
:108810001A705B4B0F3A1A70524900230868496876
:10882000514A0AF0EBFD4B04C20B1A43CB0B4F49E4
:1088300002920393029E039F0A684B68B61A9F41F7
:108840004F4D3B002C78320000208F68032C14D849
:1088500098425BD1974259D904233D481A1B012104
:10886000059B20180BF08AFA2B781818C0B22870D4
:108870000328D1D8AF22354B9DE7984246D1974285
:1088800044D9334BDB785B065B0E102B03D92F4B9F
:1088900018803C4B40E0029B039C0B604C6018E747
:1088A000984233D1914231D9002C00D1EEE62D49C6
:1088B0000023086849682C4A0AF0A0FD2B4C4B04A1
:1088C000C00B1843C90B2060616005980BF0DEFAFD
:1088D00024490400102800D16FE708684968002384
:1088E000214A0AF08BFD4B04C20B1A431F4DCB0BE0
:1088F00006920793069807992A686B68801A99412F
:10890000AE68002902D1864200D94FE700220F4B02
:108910001A8006F0C3FC1C4B80220DA90A704B7014
:108920004A800DE01948834236D1194B104A012183
:108930001B6812880F480BF09DFA164B0DA90D937A
:108940000A98FFF74DFE91E652300020503000208B
:1089500054300020EFBE00000C05000000ED00E0E8
:108960000400FA0500590020E880000000290020DA
:10897000583000205A300020A0800000EC50002029
:108980004F30002024800000A1800000010A000078
:108990001442002020010A00324883423CD10CAB33
:1089A0001122D81D0BF03CFE20230DAC23701E3B82
:1089B00063700833A3700CAB9F1C40233B802A4B91
:1089C0001A88022A03D1380028490BF071FF0026CB
:1089D0007F2510210EA804F0E9FAE3782840AB4384
:1089E00003433618E3700020B6B22B40102B06D19B
:1089F0003B88B34203D904F0F5FA431E9841E3786B
:108A0000C0012B400343E37021000A98FFF7E8FD03
:108A1000E3787F2BDDD829E6A02109018B421FD105
:108A2000114912480B885C1E055D0D2D10D10023E5
:108A30000355A3B20B80013BC45C0D2C0BD1002469
:108A40000B80C45420230A99137000F0A7FC0DE694
:108A50000A2DF0D1EBE70A2CF4D1F0E7044B5BE7E9
:108A6000044B59E7020A0000583000205A30002019
:108A70002180000022800000F0B517003F4A8BB033
:108A800003905078A0223E4B12015B781B020343F7
:108A9000934203D10191013F7B1C01D10BB0F0BD8A
:108AA000384A05AD13785C1CE4B21470019A117851
:108AB000354AD1542A00354B43CB43C21B6813605F
:108AC0006B682A780293944247D32F4BA01A0299DD
:108AD000C0180BF0FBFD00283DD0083509AB9D42C6
:108AE000EED10025052C05D929490622294861180F
:108AF0000BF0DEFE234B1E78102E03D0002D26D067
:108B0000002F24D104AB00211122D81D0BF088FDC9
:108B1000202305AC2370194B06A85A7862709B7805
:108B20000122A3703B00591E8B416A4013437F22F0
:108B3000DB0132401343E370320013490BF0B8FEFF
:108B400021000398FFF74CFD00220E4B1A70019B89
:108B5000013301939FE70125C4E70623121BD6B218
:108B6000981B0C4B32000299C0180BF0AFFD002887
:108B7000B3D1029B220004489919AAE7543000207F
:108B8000553000204E3000203E30002000690200A9
:108B900038300020383000201B4910B50B68DBB29C
:108BA000012B03D1194803681B0700D010BDE02436
:108BB000174A1368234222D1164B1C68F0231C422B
:108BC0000DD1154B154C1C608024154B24021C60E4
:108BD0000B68DBB2012BE9D103681B07E6D11368F0
:108BE000F0221340402BE1D10A4B1B681342DDD128
:108BF0008022C1230121D205DB00D150D6E7F02429
:108C00002340302BD8D0EAE7E00F00F0E40F00F06B
:108C1000E80F00F0EC0F00F004050040DFFF07C094
:108C2000186C0040036870B504000D00181E26D0B3
:108C3000A388181E23D00020E38883421FD02389F5
:108C400083421CD02369834200D09847E288A389DD
:108C5000216853432800C9180BF02AFEA089A18877
:108C600001300AF0A5FB89B2A1812389013B9BB2A7
:108C700023812369002B01D001209847012070BD7A
:108C8000F8B507000E0014000025002A07D12000C7
:108C9000F8BDFB880135ADB2F618AC42F7D0310013
:108CA0003800FFF7BFFF0028F3D12C00EFE7F8B53D
:108CB000046803000F001500201E17D09988081EB5
:108CC00014D00020DE88864210D01A8982420DD04E
:108CD0001A89BA420AD99889C0190AF069FB714306
:108CE0003200280061180BF0E3FD0120F8BD036895
:108CF00070B504000D00181E2DD0A388181E2AD0B0
:108D00000020E288824226D02289934202D1A07BB1
:108D1000002820D02369002B01D000209847E2884A
:108D20006389206853432900C0180BF0C1FD608996
:108D3000A588013029000AF03BFB89B261812389B3
:108D40009D4209D163899BB2A3812369002B01D085
:108D500001209847012070BD238901339BB22381F4
:108D6000F3E7F8B507000E0014000025002A07D12C
:108D70002000F8BDFB880135ADB2F618AC42F7D043
:108D800031003800FFF7B3FF0028F3D12C00EFE7E4
:108D9000036910B50400002B01D000209847002380
:108DA00023816381A3812369002B01D0012098478F
:108DB00010BD0000054BDB7D002B05D0A022A123B8
:108DC0008021D205DB00D1507047C04674310020AD
:108DD000084A0949936918400B6803430B6000284F
:108DE00007D0D37D002B04D0A0228021034BD205D5
:108DF000D150704774310020603100200C05000014
:108E0000054A10B5136883431360044A126813437C
:108E100001D1FFF7CFFF10BD603100205C31002091
:108E2000084A0949D36918400B6803430B600028BE
:108E300007D0D37D002B04D0A0228021034BD20584
:108E4000D1507047743100205C3100200C050000C7
:108E5000054A10B5136883431360044A126813432C
:108E600001D1FFF7A7FF10BD5C3100206031002069
:108E700030B505000C00100089B0012904D9022981
:108E80000AD0174809B030BD164C1749E369A269EA
:108E90000AF076FE0020F5E70021182202A80091D2
:108EA00001910BF0BDFB6A46032303921372137505
:108EB000280001AB220002A9069302F051FF0138FD
:108EC000C0B20128DDD8074B00999A690A439A611C
:108ED0000199DA690A43DA6100F0E8F8DAE7C04696
:108EE0006280000074310020B760020070B5060097
:108EF0000D0088B0022902D0134808B070BD0024CC
:108F00001822210002A8009401940BF089FB6A4604
:108F10000323039213721375300001AB2A0002A9D8
:108F2000069302F01DFF0138C0B20128E4D8074BB8
:108F300000999A698A439A610199DA698A43DA61E8
:108F400000F0B4F82000D8E76280000074310020FF
:108F5000100070B501290DD80024074E074D0849AF
:108F600033682A680AF00CFE34602C60FFF722FF99
:108F7000200070BD0348FCE75C3100206031002018
:108F8000C9600200628000002BDF70472CDF704751
:108F90002DDF7047F0B52B4F85B03B78002B4FD0BD
:108FA000294E3378DAB2002B4AD103A8039208F095
:108FB000DBFF1E23039A9B1A032B41D9234B180076
:108FC0000093FFF7E3FF041E3AD1214D02006988A8
:108FD0002800043908F0DAFFE823DB00E8501D4BD5
:108FE000290018001C4A01930BF062FC80211B4DE4
:108FF000C90028003C7008F085FF80B200281FD10E
:109000008021174CC900200008F07CFF83B2002BA0
:1090100016D1802228000199D20008F0B1FE83B257
:10902000002B0DD1D12220000E49920008F0A8FE9D
:1090300080B2002804D1012300983370FFF7A8FF05
:1090400005B0F0BDFD3F0020FE3F0020FC3F0020AA
:1090500074310020B838002044070000643100203B
:109060006C310020B83C0020074B10B59A680468AA
:10907000944208D14268DB689A4204D1022902D1A5
:109080000022024B1A7010BD64310020FE3F002008
:10909000044B1B78D8B2002B02D1034B1878C0B216
:1090A0007047C046FD3F0020FE3F0020214BF7B532
:1090B0001B78002B3CD120490023086849681F4ACF
:1090C0000AF09CF94B04C40B1C43CD0B1C4B18003D
:1090D0000093FFF75BFF18490023184A01900868C6
:1090E00049680AF08BF94B04C60B1E43CF0B3200C4
:1090F0003B00121BAB4111001A00019B002B0BD04F
:10910000002A03D1FA239B00994201D30D2010E0DD
:109110000A2009F06BFFD9E7002AF7D1FA239B0058
:109120009942F3D2034B013200981A70FFF730FFD7
:109130000020FEBDFD3F002000590020E880000017
:10914000FC3F002073B5194C194E0021320020005D
:109150000BF066FA8022002320001649D20008F0A6
:1091600083FE031E01D0002076BDD1221249134890
:10917000920008F079FE051EF5D12288104B9A4224
:10918000F1D16388B342EED104220E4901A80BF05D
:109190008FFB61882A002000043908F0F7FE019B4C
:1091A000181A42425041C0B2DEE7C0467431002076
:1091B00044070000643100206C3100207435002029
:1091C000AFAD0000B438002070B51F4C0021200066
:1091D0001E4A0BF025FA1E4B200023609023012528
:1091E0001B0163601B4B06221B490E30A3602573D5
:1091F0000BF05EFBD122194B5200A363184B2000E9
:10920000E363A31CDA87230048331D70154D8D3AA4
:109210002900FF3A4C300BF04BFB20000A220021C2
:1092200062300BF0FDF923002900102220009C334E
:109230001A70203109329F300BF03AFBFFF736FFEE
:1092400043425841C0B270BD743100204407000051
:10925000AFAD440701010100D760020014002800EF
:1092600014001E0010690200002210B51F4B86B0CA
:109270001A701F4B1F481A70FFF786FE02A80200E3
:109280001D4B12CB12C2110008F0DEFC84B2002C80
:1092900029D12100194A04A808F048FD84B2002C05
:1092A00021D10121164A04A808F040FD84B2002C07
:1092B00019D10121134A01A806F0D2FD84B2002C75
:1092C00011D122006221019806F0F0FD84B2002C39
:1092D00009D1FFF737FF002801D1FFF775FF902272
:1092E000094B12015A60200006B010BDFE3F00205D
:1092F000FD3F0020FC3F00204C690200643100204B
:109300006C310020958F01007431002070B514007D
:1093100000291FD1114B1B6893421DD0110010482A
:109320000AF0C0FC012521000E480AF0BBFC210018
:109330000D480AF0B7FC0D4BAA00210098580135E2
:109340000AF0B0FC4E2DEED1210009480AF0AAFC2B
:10935000002070BD0748FCE70748FAE714420020E8
:10936000DE60020011650200DB6102008C6A02000F
:10937000AC6002006280000063800000802210B5B3
:10938000044C0021200052000BF04AF9024B1C60F3
:1093900010BDC0460C40002008400020F7B50D006D
:1093A0003E4904000BF072FA270000282BD022005F
:1093B00003263B4808E03D2B09D0C15C314002291F
:1093C00000D1203B137001321378002BF3D1200021
:1093D0000BF077FA012806D8290032480AF062FC1F
:1093E000314C2000FEBD2378412BF5D16378542BFE
:1093F000F2D1A378A71C002B05D129002B480AF035
:1094000051FC0024EDE70024294E33681800019335
:109410000BF057FA0199020038000BF057F90028B9
:1094200013D00134E4B204364E2CEED129001D488D
:109430000AF038FC1F4CD4E731783D2902D10136BF
:109440003B3917E0002915D0F0E7194BA400185953
:109450000BF037FAC6B2BE19300017490BF016FAF6
:109460000028CAD0300015490BF010FA0028E3D1CB
:1094700001210136124B30001B592A009847114E2A
:1094800004003378002B06D10648002C00D1074891
:1094900029000AF007FC00233370A2E7DE60020017
:1094A0005D700200AF60020060800000AA600200F0
:1094B0008C6A020061800000E2600200E36002004A
:1094C000546902000C410020F7B54D4B0600009393
:1094D0001B681C1A019363425C414A4BA400E418C8
:1094E00020000BF0EEF9C5B207002900300003F0B0
:1094F000B1FA431C03D16B1E9D41E8B2FEBD0D289D
:1095000001D00A2850D120003F490BF0BFF9071EB7
:1095100071D130000AF0BAFC30000AF0B7FC30001C
:109520000AF0B4FC30000AF0B1FC012009F05EFD45
:109530003900300003F08EFA0D2801D00A2802D13C
:1095400030000AF0A3FC019B304F314DB34216D1DD
:1095500003F00EFE009B1E6803F004FE39000200BB
:1095600030000AF00DFB009B196828000AF09AFBF6
:109570000422002120000BF053F80120BEE7FEF783
:10958000F7FD0123181AC0B2FEF7F8FD214E33682B
:109590009B680093FEF7ECFD3900020000980AF08A
:1095A000EFFA33689968E0E75C2804D1002D0CD10C
:1095B000FFB2E055E1E72B281DD1012D0BD1237817
:1095C0005C2B10D130000AF061FC04220021200045
:1095D0000BF026F811E0002D03D12B22FFB2E2554B
:1095E000CBE7022DF1D120000B49FAB20AF0F8FFC7
:1095F0000028EAD1F1E7002DE7D100207EE7C04640
:1096000014420020FF3F0020DE600200E5600200FF
:10961000AA600200042A0020DF600200F8B50700FB
:109620000C0038000AF032FC0500431C01D1002078
:10963000F8BD304E33680A2D18D00D2D16D0082DE8
:1096400044D02D4A9342ECD22C4B1B689B689C4221
:1096500007D12B4B1B7A002B03D0210028000AF0E6
:109660007DFC33685A1C32601D70DAE7254DAB4231
:10967000D7D9224B1B689B689C4207D1204B1B7A91
:10968000002B03D0210020480AF00CFB0022336895
:10969000210028001A703560FFF780FE1B49060084
:1096A00028000BF0F3F80028BBD1002EB9D101300F
:1096B00009F09CFC3100380003F0CCF90D2801D0F2
:1096C0000A28AED138000AF0E1FBAAE70D4A93421E
:1096D000A7D90A4B1B689B689C4207D1084B1B7A91
:1096E000002B03D021000A480AF0DCFA3368013B62
:1096F000336096E7084000200C410020042A002037
:10970000743100200C400020AC600200DE600200DA
:10971000EA600200012210B5034B01001A70034BEE
:1097200018000AF0BFFA10BD0C410020AA60020028
:1097300071DF704776DF704777DF7047030007B54A
:109740001000012903D9022909D01B4806E00B2289
:109750001A4B1B499A560AF013FA00200EBD01223B
:10976000524201921800174901AA0AF081FD00280F
:10977000EBD001980300283307D002001432102ADE
:1097800014D8114BD340DB07DFD540B2FFF7D4FF2D
:109790000A4B019ADA72FFF789FC04F07BFF0B4B4E
:1097A0009842DAD1002003F0EBF9D6E70423020057
:1097B0009A43EAD0C9E7C0466280000074310020B5
:1097C000E56002008567020011110100FFFF000043
:1097D00030B5150087B0012914D804AC2000FFF77C
:1097E000A7FF60786379A2790390A0780649029078
:1097F000E07801902079009028000AF0C1F900205B
:1098000007B030BD0148FBE79064020062800000B1
:1098100010B5140001290DD8074B08491A68012317
:1098200020001A400AF0ACF9210005480AF03AFA83
:10983000002010BD0348FCE7A0000010B064020047
:10984000AC6002006280000030B5150087B00129CD
:1098500014D804AC200004F08FFF60786379A279FB
:109860000390A07806490290E0780190207900905A
:1098700028000AF085F9002007B030BD0148FBE759
:109880009064020062800000F0B505008BB00229F0
:1098900000D091E004AC1522002120000AF0C0FEA7
:1098A0002C2128000AF0E0FE061E02D0002301361B
:1098B00003706B469F1D3900280002F0F3F9002861
:1098C00000D179E03A883D4B2C2130003C4D1A8084
:1098D0000AF0CAFE071E02D00023013703701022CF
:1098E0002100300002F010FA102800D064E02C2192
:1098F00038000AF0B9FE061E02D0002301360370BC
:10990000380008A902F0CEF9002855D0238A5BBAA6
:109910002C21300023820AF0A7FE071E02D000236C
:109920000137037022213000694402F0BBF900289E
:1099300042D0638A5BBA2C21380063820AF094FE1D
:10994000061E02D000230136037038001D4902AA0A
:109950000AF08EFC00282FD0029B2375002E0DD01C
:109960000023300003A9039302F036F9002823D026
:10997000039B012B20D82A004A3213702B006C3332
:1099800007CC07C306CC06C3227849351A700123D9
:109990002B70FFF78BFB04F07DFE0B4B984207D03A
:1099A00004F078FE1321FFF7C5FE00200BB0F0BDD8
:1099B000002003F0E5F8F8E70448F7E7F631002067
:1099C00074310020B4640200FFFF000062800000D8
:1099D00010B51400012912D804F05CFE094B0022D6
:1099E000984202D004F05CFE0200074920000AF011
:1099F000C7F8210005480AF055F9002010BD0448B9
:109A0000FCE7C046FFFF000085670200AC60020073
:109A100062800000A0DF7047A4DF7047A5DF7047B9
:109A2000A6DF704710B598240549A4000A881318CA
:109A30000020A34202DC03480B80101810BDC04672
:109A40002E32002054350020F7B500240D001600FA
:109A500027000190A3005B59180000930AF031FF22
:109A60000099020001980AF00DFE002804D001348C
:109A700064B22700B442EDDBBE4203D1012464424C
:109A80002000FEBDA30058590AF01BFF019B1B5C80
:109A90003D2BF5D0F2E7000070B50500140008007A
:109AA000002D03D0012D11D00D480EE010222168A9
:109AB00002F02AF91028F7D12368A5719A78DB788B
:109AC0001B0213435BBAA380002070BD111D02F07E
:109AD000E9F80028E8D0A388002BE5D0A571F3E7CA
:109AE00062800000F7B5019308AB0C001F780223D9
:109AF00005000E0000929C4308D03B003100280076
:109B0000009A02F04BFAC4B22000FEBD3A002100D8
:109B100002F0FAF80028F0D0019B8342F4D8B84252
:109B2000EBD9F1E7B12210B50021D20003480AF0C9
:109B300077FDFFF7BBFA002010BDC0462C32002095
:109B4000F0B58BB00400029202294FD1394B0420AA
:109B50000193394B1B780A2B49D004AE06AD08227D
:109B6000002130000AF05CFD1022002128000AF0DC
:109B700057FD2C21200004950AF076FD051E02D029
:109B8000002301350370002C1FD1B388002B2DD08A
:109B9000019FB8373D780135ED007B1906CE06C32D
:109BA000019BBE33EB5C012B3BD1EC51019CB834E3
:109BB000237801332370FFF779FA22781F4902983E
:109BC00009F0DEFF002012E001342378202BFBD0C7
:109BD0001B4B0222190020000393FFF735FF071EDD
:109BE00007DA22001749029809F0CAFF16480BB09D
:109BF000F0BD039A830098580AF063FE01302118E3
:109C00003200F8B2FFF748FF071EEAD12C212800E6
:109C10000AF02AFD002801D0077001302C00050051
:109C2000B1E71020FFF7FEFE10220499E8510AF078
:109C30003FFEBBE7743100202C320020E5600200BB
:109C4000E86B0200B864020062800000F0B59FB0CB
:109C500003900492022900D026E1C04A0420127821
:109C6000BF4B002A00D120E1B9331B781E2B00D155
:109C70001BE110AC16AE1822002120000AF0D0FC27
:109C80000CAF2022002130000AF0CAFC07AD1022E0
:109C9000002138000AF0C4FC0822002128000AF044
:109CA000BFFC2C210398E660676065610AF0DCFC6C
:109CB000061E02D0002301360370039B002B00D048
:109CC00082E0A27A637A002A00D1A372E27A002AA3
:109CD00000D1E372002B00D1E6E0A27A9A4200D2D2
:109CE000E2E06388002B00D1DEE09C4B9C4D0593A5
:109CF0001B782100013B9C462B00B9331F781823A9
:109D00007B430393EB181133FF3345C945C31A0056
:109D100049C949C2059A039B2E00D318624658339D
:109D20001A701F22237ABC361340012B00D003E1A6
:109D3000039BF6180023B365149810AC00280ED0CE
:109D40000AF0BFFD0130C0B2FFF76CFE18222B00F5
:109D50007A43B8339B18216998660AF0A1FD6669B9
:109D60003178002900D1F2E00820FFF75BFE1822CD
:109D70002B007A43BC339B183100072298660AF007
:109D800097FD18267E43AB191B33FF331878FFF776
:109D900049FE2B00BC339B19AE191C361866FF36E2
:109DA0003278E168B9350AF083FD2B7801332B70E6
:109DB000FFF77CF92A786B49049809F0E1FE00204E
:109DC00073E0039B01330393039B1B78202BF8D094
:109DD000654D092229000398FFF736FE071E5EDB5A
:109DE000830058590AF06DFD039B01301D18082FA0
:109DF00055D8380009F058F9170535475B7D65954A
:109E00009700322104AB2800C91801F04BFF00284D
:109E100045D06388002B42D01F23227A9A431E3BF1
:109E20001343237211E010222800616801F06CFFD7
:109E3000102834D11F22237A9343237263689A78BF
:109E4000DB781B0213435BBA63802C2130000AF0DD
:109E50000BFC002802D0002303700130039606009B
:109E60002BE709AF3900280001F0FEFE002816D0CC
:109E70003B78002B13D0312004AB01223900C018ED
:109E80000AF016FDE1E7392104AB2800C91801F0FA
:109E9000EBFE002803D0637A013B1F2BD5D9334951
:109EA000039A049809F06CFE31481FB0F0BD3A21C6
:109EB00004AB2800C91801F0D7FE0028EFD0A37A20
:109EC000EAE70C22002109A80AF0AAFB0B270A23C3
:109ED00004AA1375BF182800012209A90A9701F0E6
:109EE0003FFF0128DBD11F213A78237A52010B4032
:109EF00096E7617A0B1C002900D10123A27ADBB21C
:109F0000002A02D10A1E00D12032217A00922800B4
:109F1000E2684909FFF7E6FDE072002800D094E707
:109F2000BDE7256191E707222800616901F0ECFE99
:109F3000072800D189E7B2E71020FFF773FD039BE4
:109F40001022F6186168B0650AF0B2FCF4E6182237
:109F50002B007A43BC339B18996612E72C32002001
:109F600074310020E5600200C46B0200CB64020083
:109F700062800000F0B591B01600049005910229AE
:109F800003D0884D280011B0F0BD8749049809AA74
:109F90000AF06EF90028F4D0099D002DF1DD834C04
:109FA000834F23789D42ECDC2C210498013D0AF07C
:109FB0005BFB002817D1182238006A43BC30801898
:109FC000BB18BA181932FF3211781C33FF33026EF6
:109FD000490930001B7801F0A7FF3100754809F0EE
:109FE00061FE0025CEE70378002BCAD018233A0083
:109FF0005D43641960347E19237879191B36193151
:10A00000FF360493FF3133780978BC32009352193C
:10A01000049B126E49090130FFF764FD23788342E7
:10A02000AFD833788342ACD37B191C33FF33099C00
:10A03000187004F02FFB013C5F4FE4B2E300DB5BE0
:10A040000490002BCDD05D4B984200D194E01823B2
:10A050006343574DED182B001133FF335A783023EB
:10A060001A4200D188E0002308AE3380E300FB18D9
:10A07000998802230AAAFF350A930B96FFF7CEFCB4
:10A08000AB7C1022190011400791134202D0328894
:10A09000D20704D49B066FD533889B076CD50A265C
:10A0A00006ABF618424B1B20069318236343069A0F
:10A0B0000021D318FF331B7F0522338006ABC01865
:10A0C0000AF0AEFAE300FB5A0CAD2B80079B002B85
:10A0D00001D001230593059B069AAB7018236343B7
:10A0E000D318FC331B6AAE60EB6004F059FB002808
:10A0F00012D004980CA9FFF793FC85B2002D00D074
:10A1000040E7182363432E4A9B189B7CDB0600D450
:10A1100038E704F04DFB35E72A4900230868496811
:10A12000294A09F06BF94B04C60B1E43CF0B04F010
:10A1300037FB24490023244A05000868496809F0D0
:10A140005DF94B04C20B1A43CB0B02920393029AA4
:10A15000039B921BBB41002D09D1002B01D1C72AC3
:10A1600001D904250EE7012008F040FFDFE7002BAE
:10A17000F7D1C72ABDD9F4E718236343104A9B18C7
:10A18000997EDA7E914200D12BE71B7F0CAA1380C7
:10A190000023E400395B049853805360FFF73CFCD4
:10A1A00085B2EFE662800000B46402002D32002028
:10A1B00074310020AC6002000E410020FFFF00005F
:10A1C0007332002000590020E880000073B51600AB
:10A1D000022901D0114876BD6B460025DC1D210007
:10A1E000DD7101F041FDA842F4D02378AB42F1D0FB
:10A1F0000B4A0C4912789342ECD81822013B534386
:10A20000CA181C32BC31CC18FF323300012112783D
:10A21000206E09F02FFE2800DDE7C04662800000B6
:10A220002D32002074310020F0B5140085B00029D3
:10A2300000D0B3E05B4B1B68934200D1B0E00291C9
:10A24000594F029A3B78594D934202D8002005B0ED
:10A25000F0BD029B20005A1C2B00D600BC33F35AE1
:10A260005349BE3509F08CFC735D012B08D02100E9
:10A27000504809F017FD10222000F15901F03CFE72
:10A2800021004D4809F00EFD00254C4B474E1B7830
:10A29000AB4204D8029B0133DBB20293D0E718270C
:10A2A00033006F43B833DB19039358331B78029A9A
:10A2B000934270D1F3191333FF331B886A1C2000BB
:10A2C0003F4909F05DFC1F22039B60331B7813405C
:10A2D000012B0ED0BC3621003A48F61909F0E2FCF9
:10A2E0002000B16D102201F007FE2100364809F070
:10A2F000D9FC18276F432D4E344BF0191930FF301D
:10A300000078334A4009FB5CD25D0190F0191B30A4
:10A31000FF3000782F490090200009F031FC330015
:10A32000B833DB199A6E002A03D020002A4909F0BD
:10A3300027FC182337006B43BC37FF18BB6E002B7C
:10A340000FD01B78002B0CD02100244809F0AAFC68
:10A350002000B96E072201F0CFFD21001A4809F054
:10A36000A1FC21001E4809F09DFC18213200694320
:10A37000731876181936BC32FF3652181C333178F0
:10A38000FF33200049091B78126E01F0CDFD21003A
:10A39000094809F087FC0135EDB276E7114856E728
:10A3A000114854E7144200202C3200207431002060
:10A3B000DE640200F2640200AC6002002D32002074
:10A3C000FC640200F3640200116502008D3200207B
:10A3D00085320020136502004865020058650200BE
:10A3E000666502006280000063800000F8B50388A3
:10A3F0000500502B2DD1002426E0E700BC46664620
:10A40000144AEF88B25A97421CD1182060430918A9
:10A410006031EA8B0978914214D819181B31FF3149
:10A4200009788A420ED819181C31FF310A702900A8
:10A43000BC331B18186E20310AF03AFA0120A040F4
:10A44000FEF7EEFC0134E4B20349044B0A78A24261
:10A45000D3D8F8BD0E4100202D32002074310020E9
:10A46000F0B500278FB0142200215C480AF0D8F81C
:10A47000F02200215A480AF0D3F85A4B02935A4B63
:10A480000393029BB8331A78BA4201D800200DE03A
:10A49000029E7C1CBE36E500A85D012808D0E85865
:10A4A00003F038FAA855012802D807200FB0F0BDF4
:10A4B000039BE400E35A04A90B80484B7A008870A0
:10A4C000D2180120FFF7A6FA00230093474B009A09
:10A4D0001B78444D934202D80137FFB2D1E71824CC
:10A4E0002B00009AB83354431B191A0058321278C3
:10A4F000BA426FD11F2660331B783340012B10D036
:10A500002B00BC331B19986D03F004FA33002C198F
:10A510001934FF3403402078B04318432070012BD6
:10A5200058D918252D4B7A00D35A009A05AC5543BB
:10A5300023802E4B2B4E5B19019358331B7821221D
:10A54000A37004AB0021D81D0AF06AF83200112371
:10A55000BA32521911000320E370330058310988D0
:10A560006032A18071191931FF310978BC36C906F2
:10A57000C90EA171217A76198143013801432172F4
:10A58000316E1278E1600199628260315A1909785E
:10A590001C32B833FF325B1912789B6E2182B16E88
:10A5A000A282A36100290ED00B78002B0BD00522CC
:10A5B0000CA80AF07DF92620B16E04AB0222053109
:10A5C000C0180AF075F9009B2000D900044BC91887
:10A5D00003F0C9F9009B0133DBB276E7FE410020AE
:10A5E0000E41002074310020303200202D32002036
:10A5F00073B51400002903D002291FD01B481CE0AA
:10A6000003250126E8B204F0C9FA00280BD0002E79
:10A6100003D12100164809F045FB2A002000154906
:10A6200009F0AEFA00260135782DEBD1002E03D1CA
:10A630002100114809F036FB002076BD00230F49A8
:10A6400001AA019309F014FE0028D7D00198C31E77
:10A65000742BD3D8C0B204F0A1FA0028ECD02000AB
:10A660000749019A09F08CFAE6E7C04662800000CB
:10A6700011650200BD650200AC600200C465020005
:10A68000C7650200020010B500201F2A07D8074B3B
:10A69000074C19780300D8B2884201D3012010BDBD
:10A6A000E05C01338242F6D10020F8E76C600200E2
:10A6B0006D600200F7B51400022901D01B48FEBDF1
:10A6C00001AB6A461A4909F0D3FD0300012818D0EE
:10A6D0000228F3D1019E012EF0D8A025154BED05DF
:10A6E000EB58009F0124FB402342E7D03800FFF7DE
:10A6F000C9FF0028E2D0BC40002E14D10E4BEC5014
:10A700000FE0A021A222C905D2008858009A21009A
:10A71000D0401840303009F069FA2100074809F0AC
:10A72000C1FA0020CBE7A123DB00E8E7628000004C
:10A7300082670200140500000C050000AC600200F6
:10A7400037B51400022901D025483EBD6A46254987
:10A7500001AB09F08DFD012819D00228F4D1019D2B
:10A76000032DF1D8009C2000FFF78CFF0028EBD0D0
:10A77000A023C134DB05FF34022D29D0032D2AD0BC
:10A780000322A400012D00D000221A511EE0A022B5
:10A79000154BD205D258009BDA4002420DD1A022BF
:10A7A0009B00D2059B18E022D2009958032049074C
:10A7B00003D498580007C00F4000210001903030AA
:10A7C00009F014FA2100094809F06CFA0020BCE7EE
:10A7D0000C22A400D9E70422A0001A50F6E7C046D4
:10A7E000628000008267020014050000AC60020075
:10A7F00030B587B0022902D0154807B030BD6A468F
:10A80000144901AB09F034FD0228F5D1009D280060
:10A81000FFF738FF0028EFD0019B642BECD80A200B
:10A820000C220021684409F0FBFE012309220A4999
:10A8300002AC03A8237065700AF03AF8200004F017
:10A8400023FA0020019904F0C5FA0020D5E7C0469C
:10A850006280000082670200F06B020070B50400A5
:10A860008CB0022902D016480CB070BD2422002101
:10A8700003A809F0D5FE6A46052313730A23951D24
:10A880001376D61D02AB0322200003A90495079678
:10A890000A9301F065FA0328E5D131780029E2D066
:10A8A00080232A7807485B009B1A9BB212180298F3
:10A8B00001F074FB0028D6D0FEF7F8FB0020D3E7A8
:10A8C00062800000B4370020F0B58DB01400019014
:10A8D000022902D015480DB0F0BD2422002103A8A2
:10A8E00009F09EFE052302AA137113740A23551C56
:10A8F000961CD71C13770198032203A90495079689
:10A900000A9701F02DFA0328E4D139780029E1D023
:10A9100007482A7833781218200001F005FB21003F
:10A92000044809F0BFF90020D5E7C0466280000066
:10A93000B4370020AC600200F0B58BB005000C000D
:10A94000019202291CD11822002104A809F068FEF6
:10A95000052302AA1372961D1375D71D04A92200A0
:10A9600028000596089701F0FBF9064B3078012185
:10A97000C0183A78019B09F07DFA00200BB0F0BDB9
:10A980000148FBE7B43700206280000030B50500C5
:10A9900085B01000012903D902290BD01B4807E01C
:10A9A0001B4B1C491B7DDB07DA0F09F0E9F800207F
:10A9B00005B030BD6B4600210C2201A8DC1CD9700B
:10A9C00009F02EFE6A4608232800137101A901220E
:10A9D000029401F0C5F90128E0D10D4B21781A7DD0
:10A9E000D407E40F8C42E2D00C008243044022439F
:10A9F0001A754933002904D004221A70FEF756FB59
:10AA0000D5E7197003F0B0FEF8E7C0466280000099
:10AA100074310020E560020013B50400022901D062
:10AA2000104816BD104B1B7DDB0718D503F032FE16
:10AA30000E4B020008209A42F3D002000021684623
:10AA400009F0EEFD08226946200001F05DF90138A9
:10AA5000C0B20728E4D8684603F014FCE1E70448D4
:10AA6000DFE7C0466280000074310020FFFF000075
:10AA700063800000F0B505000E0010008DB00229C3
:10AA80005AD12E4B1B7DDB0754D52B78002B53D08E
:10AA9000FEF740FE16222A4906A809F009FF062201
:10AAA000284902A809F004FF0622274904A809F052
:10AAB000FFFE2800254909F0E9FE434258412D18C0
:10AAC0002C786B1C0193002C02D120000DB0F0BD3E
:10AAD0006F785C2C0DD1390002A809F0C5FD002863
:10AAE00007D0082202ABC01A9B181C5CAF78AB1CC5
:10AAF00001930322164B31001B5D1340012B06D03E
:10AB0000210006A809F0B0FD431E98414100200035
:10AB100003F054FB0F2008F069FABC4201D0002F6B
:10AB200006D10021080003F049FB0F2008F05EFA6F
:10AB3000019DC5E70748C9E70748C7E7743100200A
:10AB4000D36502008E60020094600200D0650200AE
:10AB50005D7002006380000062800000F0B50600B6
:10AB60000C0089B002292CD11F4B1B7DDB0739D586
:10AB700003F090FD1D4A0823904223D000236D4628
:10AB800069462B8030000F33019301F08BF8011ED2
:10AB90001BD10A201622684409F042FD092302AFA6
:10ABA0003B70134B22000493390001AB30007C70E2
:10ABB00003953C73069301F0D3F80138C0B2012825
:10ABC00003D90C4B180009B0F0BD0024280003F095
:10ABD0000FFC019808F00AFA28002C8003F008FC0A
:10ABE0002300EFE7044BEDE774310020FFFF000086
:10ABF000FC6B0200628000006380000030B504003E
:10AC00008FB0022902D019480FB030BD6B465D1CD1
:10AC100004220021280009F003FDFF236A460021D9
:10AC2000137002A8302209F0FBFC06236A46137257
:10AC300013750232202106926A46521813706A4632
:10AC4000033209926A460C3152181370200001AB8E
:10AC5000042202A903950C9301F082F80138C0B2D6
:10AC60000328D0D8684603F05DFBCDE76280000082
:10AC7000F0B595B00190022946D107AE3200052704
:10AC8000664B0BAD13CB13C21B6805AC13600021E0
:10AC90003A00200009F0C4FC0F23002102AA5380CF
:10ACA00028002422039109F0BBFC02AA0232EA61C7
:10ACB000019A2F7012785A4F5A4BBA5CAB8103AB92
:10ACC0002B616E61042316006C602B761E401A42C5
:10ACD00000D06DE004AB0322290001986B6004965C
:10ACE0002E7001F03DF8431EDBB2022B0CD8032876
:10ACF00002D1039B032B07D1049800284FD009F001
:10AD0000E0FD0325052812D947484FE099199B5DBE
:10AD1000FA5C2A40022A00D1203B0B70049B434876
:10AD2000995D09F0A1FC0028EED00136F6B2049836
:10AD300009F0C7FD049B8642E8D34C21180009F0B6
:10AD400093FC002803D0012322781343237052215F
:10AD5000049809F089FC002803D0022322781343C9
:10AD600023704D21049809F07FFC002803D00423B0
:10AD70002278134323704221049809F075FC0028BF
:10AD800003D008232278134323704621049809F046
:10AD90006BFC002803D0102322781343237020007B
:10ADA00003F0C0FA2578002D11D1002015B0F0BDB8
:10ADB00003222900019800F0D3FF431EDBB2022BCF
:10ADC000A2D80328EBD1039B032BE8D09CE7039B7D
:10ADD000022B09D0032B1ED00F20012BE5D108F048
:10ADE00005F90023237012E000260F2008F0FEF87A
:10ADF0002000267003F096FA0F2008F0F7F82000E4
:10AE0000257003F08FFA0F2008F0F0F8267020006C
:10AE100003F088FAC9E702AB5888E0E7E46C020067
:10AE20005D7002000704000062800000E965020016
:10AE300030B5050085B01000012903D902290BD0D7
:10AE4000174807E0174B18491B7DDB06DA0F08F09F
:10AE500097FE002005B030BD6B4600210C2201A8F2
:10AE6000DC1CD97009F0DCFB6A460823280013714A
:10AE700001A90122029400F073FF0128E0D1227899
:10AE8000084C237DD906C90F9142E2D0102102401F
:10AE900012018B4313432375FEF708F9D9E7C04627
:10AEA0006280000074310020E5600200F0B5060009
:10AEB0000D008DB0022902D023480DB0F0BD112243
:10AEC000224B1B7D134093423BD103F0E3FB204B0D
:10AED000020008209A42F0D002AC2A000021200093
:10AEE00009F09EFB6B460021242203A8DF1DD971C7
:10AEF0009D1D997109F094FB06236A462421137362
:10AF000013765218013B137004336B440322300054
:10AF100003A9049507970A9300F022FF0328CBD8D2
:10AF20000C2203213B7820009B0013402A780A4022
:10AF3000134322780C318A431343237003F0A8FA99
:10AF4000BBE70448B9E7C0466280000074310020C6
:10AF5000FFFF00006380000039DF70473ADF704771
:10AF600052DF704713B5140001291BD801A8FFF761
:10AF7000F7FF030080B2002B13D101980A4901406A
:10AF800003D50139043B1943013119234B430321F4
:10AF9000C2170A40121805492000921008F0F0FD6F
:10AFA000002016BD0248FCE703000080ED660200A9
:10AFB0006280000013B51400022901D0164816BDA6
:10AFC000012316495B4201AA019309F051F90028B7
:10AFD000F4D0019B1F2BF1D8A0228021C133FF3375
:10AFE0009B00D205890299500D48210008F05AFEB5
:10AFF000322007F0FBFF00210800FDF7C5F8002113
:10B000000120FDF7C1F88022A0230121D205DB0039
:10B010000020D150D3E7C04662800000856702005F
:10B02000AA600200F0B5150087B0002904D00229FB
:10B0300033D0244807B0F0BD04236A46937100243E
:10B040006B46DF1D002338003B70FFF785FF6B4622
:10B0500039789E1D00290FD033781B1B1A1CDBB2D8
:10B060008B4200D90A1C02A80019D1B23A70FFF72E
:10B0700075FF3B78E418E4B23378A342E0D82900A6
:10B08000114808F00FFE00243378A34211D829009C
:10B090000E4808F007FE0020CCE76B469C1D2100FF
:10B0A00000F0E2FD0028C4D02378013B0F2BC6D965
:10B0B000BFE702AB1A5D28000549013408F060FDC6
:10B0C000E4B2E1E762800000F7660200AC600200D3
:10B0D000A3670200130037B5002903D0022909D065
:10B0E000174806E0174A1800927A174908F048FDF9
:10B0F00000203EBD6B46DC1D210000F0B5FD0028A0
:10B10000EED021780129EBD80E4DAB7A8B42EFD0EF
:10B11000002902D10120FDF737F82378AB72FDF743
:10B12000C5FF2478012CE3D103F0B4FA074BC11812
:10B130004B1E99412000C9B2FDF726F8D8E7C0465A
:10B140006280000074310020E56002000100FFFF12
:10B15000F0B52F4B95B008AC019225001A0084463B
:10B16000C1CAC1C5C1CAC1C505AD2A001833C1CB0A
:10B17000C1C2002904D002290CD0264815B0F0BD68
:10B18000254B26495B7A01989B001A5908F0F8FC78
:10B190000020F3E70123039300230493204B02AA2A
:10B1A000138603AB0F931F4B604693870A0004ABD3
:10B1B0000EA910941293139500F0D2FD0028DCD054
:10B1C000039B01281ED0052BD7D1134CDBB2627A2A
:10B1D0009A4207D000210800FCF7D6FF039B637258
:10B1E000FDF764FF039B052BD2D1049902290CD1F2
:10B1F0000020FDF7C7F8012141400020C9B2FCF74B
:10B20000C3FFC5E7052BE0DDB7E74B1E9941F4E727
:10B21000F46C02006280000074310020D9640200E6
:10B2200007060000070300007FB506000C001000B1
:10B23000012903D902290BD01B4807E01B4B1C49ED
:10B240001B7D9B07DA0F08F09BFC002004B070BD4B
:10B250006B4600210C2201A8DD1CD97009F0E0F931
:10B260006A4608233000137101A90122029500F0FB
:10B2700077FD0128E0D10D4B29781A7D9507ED0F58
:10B280008D42E2D008404000A24302431A75493380
:10B29000002904D005221A70FDF708FFD5E71970C0
:10B2A00003F062FAF8E7C0466280000074310020C3
:10B2B000E560020030B5040087B0022902D01948C9
:10B2C00007B030BD03F0E6F9174B020008209A42A0
:10B2D000F6D06B4614222000991D00F015FDC4B273
:10B2E000E31EDAB201AD0F2AE9D8DB07E7D40F4934
:10B2F0000023086849680E4A08F080F84904C00B2A
:10B30000084380227F21C3045242084002349B0E2E
:10B310001343E1B2024328002B706A7002F038FD3B
:10B32000CEE7C04662800000FFFF00000059002009
:10B33000E880000073B51500002932D16B461A4E23
:10B34000DC1C217030002100FDF76CFC002801D1CD
:10B35000002076BD2378002BFAD0300001A9FDF73C
:10B3600061FC0028F4D028001049019A08F008FC7C
:10B370002378013B237023785A1E2270002B04D1BE
:10B3800029000B4808F08EFCE2E7300001A9FDF728
:10B3900049FC0028EFD028000649019A08F0F0FB8C
:10B3A000E9E70548D5E7C0469C2900202067020050
:10B3B000AC6002001F6702006280000073B51500D8
:10B3C00000291ED16B46104EDC1C2170300021007C
:10B3D000FDF728FC002801D1002076BD2378002B42
:10B3E000FAD023785A1E2270002BF5D0300001A924
:10B3F000FDF718FC0028F4D02900019808F0F6FBAE
:10B40000EFE70248E9E7C0469C290020628000007F
:10B4100073B51500012903D902290DD0204876BD46
:10B42000204B214A5B7D28001B075B0E1F499A5861
:10B4300008F0A6FB0020F2E701A900F0E1FB0028DC
:10B44000ECD00023019A1849DC006418206882427D
:10B4500022D11448427D1107090F9942EAD00F21E9
:10B4600001260B408A431A4342752800104DFEF70F
:10B4700051F9142007F0BAFDEE61052007F0B6FD82
:10B4800062680C4BEA5000220B4BDA601A62AE6025
:10B490002E60FDF70BFECDE70133102BD4D1BDE7B5
:10B4A0006280000074310020EC5F0200256702001A
:10B4B0000020004024050000FC200040F0B50500FD
:10B4C000140085B0012903D902290ED02E480AE0C4
:10B4D00001222E4B20005B7D2D49DB06DB0F5A40FD
:10B4E00008F04EFB002005B0F0BD6B4600210C2299
:10B4F00001A8DE1CD970082709F092F86B462800D5
:10B50000012201A91F71029600F02AFC0500012802
:10B51000DCD11E4933784A7D4340DBB2D00633701C
:10B52000C00F9842DED010202B401B0182431A43EB
:10B530002000184C4A75FEF7EDF8142007F056FD70
:10B540000520E56107F052FDA220A1213278124BBF
:10B55000C000C900002A10D0E258AA43E2500123DB
:10B560005B422350635000220C4BDA601A620123C5
:10B57000A3602360FDF79AFDB4E7E2581543E55058
:10B580000A2323506750EEE76280000074310020E8
:10B59000E5600200002000406C050000FC20004037
:10B5A00037B50C001500022901D00D483EBD0D49EC
:10B5B00001AA08F05DFE0028F7D001990729F4D808
:10B5C0000229F2D00022C9B2200003F0C3FE03F02A
:10B5D000F9FE05490200280008F0D2FA0020E5E74C
:10B5E00062800000856702002567020070B50C00CC
:10B5F000150000290AD103F0D3FE03F0F5FE04493B
:10B600000200280008F0BCFA200070BD0148FCE7E9
:10B610002567020062800000F7B5031E019003D089
:10B620001900224808F03EFB2149002308684968B8
:10B63000204A07F0E3FE4B04C40B1C431E4B019A47
:10B640001B68CD0B93420CD1A02280211B4BD2054D
:10B650008904D0580842FCD080218904D05808427F
:10B66000FCD1FDF715FD124900230190114A08682D
:10B67000496807F0C3FE4B04C60B1E43019BCF0B6A
:10B68000002B0AD032003B00121BAB411100002BF3
:10B6900003D1FA235B009942E3D3331B632B03D816
:10B6A0006434A01B07F0A2FCF7BDC046AA600200EC
:10B6B00000590020E8800000EC5000200405000044
:10B6C0008023F0B55B0597B001900E00150024496A
:10B6D0005A6E04A81B6E08F0A9FDFCF7F9FE09AF2D
:10B6E00002002049380008F0A1FD00230E931E4BF4
:10B6F00010970F9304AB11931C4B0EAC2361636145
:10B700001B4BA361FCF7FEFEE061002E03D0022E6E
:10B7100011D018480DE00126B3002900E05808F0C8
:10B72000C1FA01362900144808F0BCFA082EF3D1FA
:10B73000002017B0F0BD1149019803AA08F098FD48
:10B740000028E6D0039B5A1E062AE2D89B00290057
:10B75000185908F0A7FA2900074808F0A3FAE7E704
:10B760002B67020036670200426702004F67020043
:10B770005567020062800000AC600200856702002D
:10B7800070B504001500012903D902290DD00F4816
:10B790000AE00F4B1100187A303008F027FA290020
:10B7A0000C4808F07FFA002070BD09F08AF80128E3
:10B7B000EDD12378303BDBB2012BE8D8044A117A73
:10B7C0009942F0D01372FDF771FCECE76280000043
:10B7D00074310020AC600200100010B5002909D1BE
:10B7E000FFF71AFFBFF34F8F034B044ADA60BFF332
:10B7F0004F8FFEE7024810BD00ED00E00400FA059F
:10B800006280000010B5140000290ED1FDF7DCFCA9
:10B8100002F0AAFF2000FFF7FFFEBFF34F8F044B9B
:10B82000044ADA60BFF34F8FFEE7034810BDC046FD
:10B8300000ED00E00400FA056280000010B5100081
:10B840000C1E05D1FFF7E8FE02F086F9200010BDBE
:10B850000048FCE7628000007FB505001000012968
:10B8600004D9022908D0002004B070BD164B174936
:10B87000DA7D08F085F9F6E76B460C2600213200E8
:10B8800001A8DC1C217008F0CBFE6A4608232800C2
:10B89000137101A90122029400F062FA012801D07B
:10B8A0000B48E1E7084A2378D17D8B42DBD0A02109
:10B8B000D375C905074A002B04D003238B50FDF72D
:10B8C000F5FBD0E78E50FAE774310020E560020006
:10B8D000628000001C07000070B500291DD1104DCA
:10B8E000104C2B6893420BD101F042FC2D6801F003
:10B8F00039FC02002100280008F042F9002070BD48
:10B90000FCF736FC0123181AC0B2FCF737FC064BD3
:10B910001B689D68FCF72CFCEBE70448EFE7C0468A
:10B9200014420020E5600200042A0020628000002A
:10B93000F0B58DB00D0001900092022902D02B4885
:10B940000DB0F0BD2A4B009A1B6893424CD00021E9
:10B9500004AE320002ABDF1C264B0391397011CBD1
:10B9600011C2122002AB1400C018162208F058FEB3
:10B970000723237003AB636008232A00210001988A
:10B9800023736570A660276100F0EAF9431EDBB2FD
:10B99000012BD4D8184B03995A7D00290AD1D243E0
:10B9A000D2B2D209012808D11449009808F0E8F869
:10B9B0000020C5E75206D20FF4E738789042F7D05E
:10B9C0000122002909D142407F20597DD201014046
:10B9D0000A435A75FDF76AFBEAE7402110405A7D99
:10B9E00080018A430243F4E70548A9E7628000002A
:10B9F00014420020186D020074310020E56002003E
:10BA000063800000F0B589B002930EAB1B78040090
:10BA10000393294B0F001B681500834203D1029B3F
:10BA20005343102B46DC06AE06223000234908F0B3
:10BA30003FFF6B003033B3702900102007F0D2FBBA
:10BA400000260190029B9E4206DB21001C4808F064
:10BA500029F9002009B0F0BD0023300001990593B9
:10BA600007F0A6FC002911D1002E03D021001448B4
:10BA700008F018F9039B002B19D00199300107F049
:10BA8000B1FB02000F49200008F07AF82A003900C3
:10BA900005A808F00DFF2100202008F0A7F82000DD
:10BAA000059A06A908F06CF87F190136CAE73A0032
:10BAB0000549E8E70548CDE7144200207867020011
:10BAC000AC600200676702006F67020063800000DD
:10BAD000F0B5140087B0022924D100230393049306
:10BAE000059305AB0093154904AB03AA08F0C0FB0E
:10BAF000032817D1039E002E14D00499002911DDCC
:10BB0000059D002D0EDD4B1E012B01D9042909D105
:10BB10003000CFB207F062FB002906D021000848B0
:10BB200008F0C0F8074807B0F0BD00913A003100B6
:10BB30002000ABB2FFF766FFF5E7C0467E67020064
:10BB4000886702006280000007B51000022906D055
:10BB500001220449044B0092FFF754FF0EBD034835
:10BB6000FCE7C046743100204407000062800000FA
:10BB7000100070B5012912D880210023094A0A4C0F
:10BB800009019D58A54205D0CA1A084907F0F8FFD7
:10BB9000002070BD04338B42F3D10320F9E7044841
:10BBA000F7E7C046007800200DF0FECA9C6702004F
:10BBB0006280000007B51000002907D180230091A2
:10BBC000042203499B00FFF71DFF0EBD0148FCE75F
:10BBD000007800206280000037B500250C002A00A4
:10BBE00001A9019507F0D8FD019A03001000AA42AF
:10BBF00005D012782800AA4201D1236001303EBD51
:10BC000037B500250C002A0001A9019507F054FE64
:10BC1000019A03001000AA4205D012782800AA4217
:10BC200001D1236001303EBDF7B50E0001A9070028
:10BC300015000024FFF7D0FFA04211D0094B019A54
:10BC40009A4203D1380001A9FFF7DAFF2C1C042D1A
:10BC500000D90424A4B22200300001A908F028FE73
:10BC60002000FEBDFFFFFF7F13B50C0001A9FFF709
:10BC7000B3FF002803D0019BFF2B01D8237016BD12
:10BC80000020FCE713B50C0001A9FFF7A5FF002871
:10BC900005D0019B1A008032FF2A01D8237016BDFF
:10BCA0000020FCE713B50C0001A9FFF795FF002861
:10BCB00005D08022019B5202934201D2238016BDFF
:10BCC0000020FCE703000022442130B50D4C187819
:10BCD000002801D1100030BD255C280008400D422D
:10BCE000F9D05878255C280008400D42F3D09878A8
:10BCF0000132D2B20028EDD02D2801D10333E6E77E
:10BD00000020E8E75D700200F7B504000E001700A0
:10BD10002378202B1ED02000FFF7D4FF0500002E33
:10BD20001CD0002814D0B84212D81022200001A93B
:10BD300007F032FD019BA34207D91C1B022C04DC37
:10BD400030701A7801362D2A06D01B78002B05D0CA
:10BD50000020FEBD0134DBE75C1CE6E7A8B2F8E793
:10BD60000023F0B504000D008FB0059201936B46DF
:10BD7000059A1879019B934247D0002C45D02C217D
:10BD8000200008F071FC071E02D000230137037069
:10BD90002378002B12D02A7802920A2A34D8100075
:10BDA00007F082F907121B2C353A3F44598A590093
:10BDB00001342378202BFBD06B681C60019B3C0076
:10BDC000013301930C35D2E720006A786968FFF7E8
:10BDD0009BFF68700028F1D116E020000AA9FFF748
:10BDE000FBFE002810D0404B0A9A9A4203D1200053
:10BDF0000AA9FFF705FF04220AA959E020000AA9B1
:10BE0000FFF7FEFE0028F6D100200FB0F0BD2000A5
:10BE10006968FFF747FFDDE720006968FFF724FF47
:10BE2000D8E720006968FFF72DFFD3E72000696895
:10BE3000FFF7D2FE0028C1D12378202B08D02000A4
:10BE40006A78A968FCF7B6FB0A900028D3DADBE72A
:10BE50000134F1E701342378202BFBD008AB9C465A
:10BE60006246224B42CB42C243CB43C21B681360A3
:10BE7000042303930AAB0493029B082B03D1063BD4
:10BE800003936346049306ABDE1D31002000FFF7E9
:10BE9000F9FE002805D12000039A0499FCF78AFBDB
:10BEA00030700023039AF3569342ADD8012231003B
:10BEB000686808F0FDFC81E70D4AD35C5B07A3D4FA
:10BEC0002000FCF765FB2000AE6808F0FAFC2100BA
:10BED00002003000FCF7E0FA064B0A90984200D1CD
:10BEE00092E76A7888E7C046FFFFFF7F206D020077
:10BEF0005D700200DFFDEF7EF8B50E0017000A78D6
:10BF000007490500012407F03BFEBC4200D3F8BD01
:10BF1000325D2800034907F033FE0134F5E7C046DF
:10BF2000A3670200A2670200F7B5040010001A0020
:10BF300002291ED0032921D0012914D0022B1DD99A
:10BF40000378002B13D003006827124E15181978B8
:10BF5000002905D0715CB94309D00133AB42F6D159
:10BF60002300012100E0230007F084FF05E0042AFC
:10BF700004D901002000FFF7BFFFF7BD0023010037
:10BF800001A8019308F094FC20000349019A07F0EE
:10BF9000F7FDF2E75D700200B4640200F8B5050039
:10BFA00017001E00022926D003291ED001290CD01B
:10BFB0001A003900FFF738FE041E14D13200390090
:10BFC0002800FFF7A1FE041E0DD1280008F079FC1F
:10BFD000041C80B2B04200D9341CA4B2002C0FD192
:10BFE000002301243B702000F8BD1A003900FFF740
:10BFF0001BFE0400F7E71A003900FFF785FEF8E79B
:10C0000022002900380008F053FCECE7F8B50600E0
:10C0100000240B4D2F68380008F053FC310002005B
:10C02000380008F0DDFA002807D00134A3B2043547
:10C0300024B2052BEED1012464422000F8BDC04695
:10C04000706D0200F8B506000F000024074D3000A7
:10C05000296808F060FB002801D03C70F8BD01346D
:10C06000E4B204350E2CF2D1F8E7C046386D020078
:10C07000F0B595B007000D001600019301292BD8EB
:10C08000604A614B127831009200D0585F4D012414
:10C0900007F008FE68272B00A5331B78A34207D8BA
:10C0A00031005B4807F0FEFD0024200015B0F0BD14
:10C0B0002B19A6331878574B1B5CBB4305D03100B6
:10C0C00007F094FD0134E4B2E5E7534B8000310002
:10C0D000C05807F0E7FDF5E7022901D04F4CE4E72F
:10C0E00000210BAC242220000491059108F098FA5D
:10C0F00004AB0C9305AB0F930623237602AB0633F8
:10C1000003222100380012932573FFF729FE030054
:10C11000013BDBB20090022BE0D80498FFF776FFDA
:10C12000431C04D131003E4807F0BCFDD6E706AB06
:10C130001870354B8000C05808F0C3FB0125049BE4
:10C140001B18049304980378002B21D1009B012B2A
:10C150000DD0059A012AC1D832492C4B0A70009A99
:10C16000032A04D102AA063212789F331A702900DA
:10C1700006A801F033FB041E97D103222A4B1A7044
:10C180002A4B019A1A70FCF791FF00F05DFE8CE7D4
:10C1900002ABD91DFFF756FF071E04980FD0381ABF
:10C1A0003B005A1E934112225B19C4B2D31A9C421F
:10C1B00008DD31001E4807F075FD092475E708F019
:10C1C00080FBEDE706AB58192200049908F070FBDC
:10C1D000049B2D191B190493EDB2002FB2D010212E
:10C1E00002ABDB7902AA521853550B4A9B009858B0
:10C1F00008F067FB049B6C1CE4B21B182500049339
:10C20000A0E7C0461A320020706D02007431002091
:10C21000AC6002005D700200386D020062800000B8
:10C22000C6670200BE310020BD310020123200205E
:10C23000EF67020010B50023FFF71AFF10BD10B51D
:10C240000123FFF715FF10BDF0B51C4B87B001901F
:10C250001C781000033C63425C41194FE4B2012991
:10C2600005D82200174907F08BFC002002E00229C4
:10C2700002D0154807B0F0BD002502AB0C22290002
:10C2800003A8DE1CDD7008F0CBF9082302AA1371A5
:10C290000198012203A90496FFF762FD0128E8D165
:10C2A0003378A342E1D0AB4200D003353B004933A1
:10C2B0001D70FCF7FBFE00F0C7FDD6E7BD31002086
:10C2C00074310020E5600200628000007FB5060046
:10C2D0001000012909D8174B17491B7D1B07DA0FDE
:10C2E00007F04EFC002004B070BD6B4600210C220C
:10C2F00001A8DD1CD970082408F092F96B460122D0
:10C30000300001A91C710295FFF72AFD01280ED10A
:10C3100008492A780B7D1D07ED0F9542E2D00240B7
:10C32000D200A34313430B75FCF7C0FEDAE70348C2
:10C33000D9E7C04674310020E56002006280000049
:10C34000F0B5174D07002B7D0C0085B01B0725D5D8
:10C35000002904D002290DD0124805B0F0BDB42048
:10C36000009001F05FFA032349352B7000F06CFD5B
:10C370000020F2E701AE0C220021300008F050F955
:10C380006B4601223100380034700293FFF7E8FC5D
:10C390000128E1D100980028E3DCDDE70248DCE772
:10C3A00074310020628000006380000074DF7047F9
:10C3B00076DF70477CDF704713B51400012903D97D
:10C3C00002290BD0134816BD1100134807F06AFC70
:10C3D0002100124807F066FC0020F4E70E4C010033
:10C3E0001F22200008F083F9FCF760FE11236A4643
:10C3F0002000137108F065FA210082B201A8FFF74E
:10C40000D9FF02F047F9064B9842E5D1002000F031
:10C41000B7FBE1E762800000C0310020AC600200A1
:10C42000FFFF000010B5140001290FD802F032F907
:10C43000074B2100C018431E9841303007F0D6FB4F
:10C440002100044807F02EFC002010BD0248FCE744
:10C450000100FFFFAC6002006280000010B50C1EFE
:10C460000CD102F017F9064B984205D002F012F9F0
:10C470001321FFF79DFF84B2200010BD014CFBE7A4
:10C48000FFFF00006280000010B5002902D102F019
:10C490006BF910BD0048FCE762800000F0B59BB06E
:10C4A0000D00070014003849142206A808F000FA0D
:10C4B000012D16D80025354E0135328F2000344924
:10C4C000EDB207F05DFB0236052D04D021003148A6
:10C4D00007F0E8FBF0E721002F4807F0E3FB00201E
:10C4E00018E003AA0025140004212C4E0BAB705B4E
:10C4F00002355A601080197002320C330A2DF6D1C1
:10C50000052238000BA9FFF72BFC0138C0B2042824
:10C5100002D923481BB0F0BD2A003100200008F0EA
:10C520005FF8002206AB9042D9D05100615A1888BA
:10C530008842EED858888842EBD301320433052A6A
:10C54000F3D1124B20881A8F6588824202D15B8F0B
:10C55000AB4210D00521800006F0BAFD01AF388053
:10C560000521A80006F0B4FD962378805B0438000E
:10C57000029305F033F90A222100300008F098F9FF
:10C58000FCF794FDABE7C046846D020074310020D7
:10C590008567020011650200AC600200AC3100202A
:10C5A0006280000002239943080010B5002902D1DF
:10C5B00000F0E6FA10BD0148FCE7C04662800000CA
:10C5C00010B5002903D1FFF7F1FE80B210BD01487C
:10C5D000FCE7C0466280000013B51400012903D9AE
:10C5E00002290DD00F480AE00F4B110018783030A7
:10C5F00007F0FCFA21000D4807F054FB002016BD9F
:10C600000B4901AA07F034FE0128EBD1019B012B55
:10C61000E8D8054A11788B42F0D003401370FCF73C
:10C6200045FDEBE762800000BC310020AC600200F9
:10C6300085670200F0B506000D0091B0022902D016
:10C64000204811B0F0BD0A20002116226844019153
:10C6500007F0E6FF012302AC23701E333000637045
:10C660002A0001AB210008AF069303972573FFF75B
:10C6700077FB431EDBB20600012BE1D86278124B38
:10C68000124C390012481A7008F012F9230049338D
:10C690001D70022E04D1019B012BD1D84A34237086
:10C6A000FCF704FD01F0F6FF0A4B984206D001F0BA
:10C6B000F1FF1321FFF77CFE0020C2E7002000F00D
:10C6C0005FFAF9E762800000FF310020743100203A
:10C6D000E0310020FFFF000030B5050085B01000FC
:10C6E00001290BD8194B1A491A780123D207D20F06
:10C6F0005A4007F045FA002005B030BD6B460021D6
:10C700000C2201A8DC1CD97007F08AFF6A460823B6
:10C710002800137101A901220294FFF721FB0128CF
:10C7200012D123784340DBB22370084C2278D10722
:10C73000C90F9942DFD0034082431A432270FCF7AD
:10C74000B5FC00F081FBD6E70248D5E7BA310020FE
:10C75000E56002006280000010B50400022917D1D4
:10C7600001F098FF0B4A082390420FD00A4920009D
:10C7700008F08CF84342584124182000FBF7D6FEFD
:10C78000064B2000196807F08DFA0023180010BD31
:10C79000034BFBE7FFFF0000D065020014420020BE
:10C7A0006280000070B51400002914D10B4D286878
:10C7B00007F06CFB431C01D1002070BD210007F085
:10C7C00015FA286807F062FB431CF7D121000448E2
:10C7D00007F068FAF0E70348EFE7C046144200208C
:10C7E000AC60020062800000F7B5022314000A006A
:10C7F0000E0001909A4301D01648FEBD802700F03C
:10C80000F7FBFF00381A85B200F0ECFB3F1ABFB20D
:10C81000002E0BD13B002A0020000F4907F0B0F991
:10C8200021000E4807F03EFA0020E6E70C49019887
:10C8300007F0FEFE2A00002806D00A49019807F0FA
:10C84000F7FE0028D8D13A002000074907F098F9F0
:10C85000E6E7C0466280000082670200AC6002002A
:10C860004C64020065640200B464020070B5040008
:10C87000022929D101F00EFF144B0825984221D03E
:10C880002000134908F002F84342584124182000C0
:10C89000FBF74CFEFBF784FD022803D101210020A9
:10C8A000FBF772FC200008F00CF881B2200000F0C9
:10C8B00073FC0500FBF774FD022803D1002108007A
:10C8C000FBF762FC280070BD024DFBE7FFFF000094
:10C8D000D06502006280000030B5050085B0100010
:10C8E000012909D8174B18491B7D5B07DA0F07F0A0
:10C8F00047F9002005B030BD6B4600210C2201A88D
:10C90000DC1CD97007F08CFE6A46082328001371DE
:10C9100001A901220294FFF723FA01280FD12278FE
:10C92000084C237D5907C90F9142E2D004210240EF
:10C9300092008B4313432375FCF7B8FBD9E70348F8
:10C94000D8E7C04674310020E56002006280000034
:10C9500030B5040085B0022902D00C4805B030BDC6
:10C960000C22002101A807F05BFE6A460523D51CB6
:10C9700013712000012201A90295FFF7F1F90128A6
:10C98000EBD1287801F0D2FAE8E7C04662800000D7
:10C99000F8B503000E0015000024042811DC0C215A
:10C9A00041430D4A8F583C1E0BD00C4A002410689E
:10C9B0000E21425E9A420BD12A003100FCF75CF84E
:10C9C0002C002000F8BD305DB8470130F9D00134AB
:10C9D000AC42F8DBF4E7C046986D0200EC50002052
:10C9E000F8B50E001500042803DD01246442200080
:10C9F000F8BD0C2242430A4B9B185F68002FF4D00D
:10CA0000002DF2D00029F0D00024B847431C04D0F8
:10CA100030550134A542F8DCE9E7002CE7D1E4E722
:10CA2000986D020010B50949040007F02FFF032399
:10CA3000002808D02000064907F028FF01235B42A8
:10CA4000002800D10533180010BDC04684680200DC
:10CA50008C68020010B50E23C05E042809DC0C228D
:10CA60004243054B9B189B68002B02D00800984757
:10CA700010BD01204042FBE7986D020072DF704755
:10CA800073DF704774DF704776DF704760DF704791
:10CA900068DF704710B505F015F810BD70B5074C8C
:10CAA000074DE379002B03D02369002B00D0984772
:10CAB0001434AC42F5D1002070BDC04610290020CE
:10CAC0007429002070B504008EB0042823D86B466A
:10CAD0001422DE1C114B4243DB7A01AD3370104B44
:10CAE00000219B189A889B792A8002A83022AB707B
:10CAF00007F096FD06236A46D372053B0396138220
:10CB00000595032C00D19372002102A803F02CFF9D
:10CB100080B20EB070BD0348FBE7C0467431002000
:10CB20001029002062800000122070B5114C96B0D0
:10CB3000114B04AE1522114968448234338007F04A
:10CB4000B7FE238801AD2B801723302200210AA8CD
:10CB5000AB80039607F064FD6A462B21042352182C
:10CB60000AA800211370139503F0FEFE80B216B0E0
:10CB700070BDC0467431002002150000E031002075
:10CB8000F0B593B00600FFF77DFF1822002168463C
:10CB900007F046FD444C0521A78F6D46F80006F0CE
:10CBA00021FB2882E38F6B82230046331B78DB074F
:10CBB0000BD50323381C2B70642F00D2642080B265
:10CBC0000521C00006F00EFB2882002E08D0A31C11
:10CBD000D88F0521C00006F005FB002328826B8258
:10CBE000230049331B780720052B3FD8180006F097
:10CBF0005BFA034B17503F46237D0122180010407B
:10CC0000134204D0220004210320493211709B07F3
:10CC100003D50523042049342370FFF753FF06E0B2
:10CC200000238B341A0021782048FFF727FF06AC39
:10CC300030220021200007F0F3FC1D4E300007F0E9
:10CC400040FE02231D2800D9013B3000237007F06D
:10CC500038FE00231D2800D91D33210000206370F9
:10CC600003F082FE2800FFF70BFF80B213B0F0BD87
:10CC70000020104B1B788342CFD00330CDE70E4B02
:10CC800018788000C0B2C8E7A0230493FFF74CFFD8
:10CC9000CDE700236B8200F0E7FD002801D00220E1
:10CCA000BBE700F0E7FDC2E774310020E03100206F
:10CCB000C03100205329002067290020F0B585B03D
:10CCC0006A462F4B684612CB12C2FFF7DFFE2D4893
:10CCD00003F064FC2C4803F06BFC80235B055B6B6A
:10CCE000022B0CD102AC00210822200007F098FC96
:10CCF00001202378210003432370FFF7C9FE01F0D0
:10CD00004BFC00F0E1FE01F04DF9204D204C2B7D55
:10CD10002049DA07D20F0A7021009A07D20F573143
:10CD20000A705A07D20FE2762200260001271B075D
:10CD3000DB0F2F3213706436E379002B08D02068A4
:10CD4000002811D1A771A368002B01D0A0799847C2
:10CD50001434B442F0D14835FDF782FB2B78002B18
:10CD600009D1002005B0F0BD00F0D4FDA07101286C
:10CD7000E9D80720F6E70020FFF702FFF1E7C046F9
:10CD8000D46D020099CD010095CA010074310020D4
:10CD9000102900205329002070B5040086B001F04E
:10CDA0009FFC200004F0C4FC200000F0A5FE2388B6
:10CDB000112B34D0192B3AD0102B1ED10121080091
:10CDC000FBF7E2F91C4B1D4E1B78002B15D01822E7
:10CDD0000021684607F024FC6D4603232B70B38FB7
:10CDE000181C632B00D8642080B20521C00006F017
:10CDF000F9F928822800FFF743FE114D114EEB7917
:10CE0000002B04D0EB68002B01D02000984714358C
:10CE1000B542F4D12000FDF7E9FA06B070BD01205B
:10CE20000021FBF7B1F90020FFF7AAFEE5E7A3799F
:10CE30000120002BE1D1F7E7BE3100207431002042
:10CE4000102900207429002010B501F023FC064BA6
:10CE5000984205D001F01EFC1321FFF715FE10BD0E
:10CE60000020FFF78DFEFAE7FFFF0000704736DF76
:10CE7000704737DF7047A0DF7047A6DF70470000BC
:10CE800010B5064C002803D12000FFF7F0FF10BDBD
:10CE90002078FFF7EEFF00232370F8E7124200200E
:10CEA000F0B501268BB004006F462A4D14220021F4
:10CEB000280007F0B5FB2A0069463000AC70BC7052
:10CEC0003E80FFF7D8FF21220021F81D07F0A8FBC4
:10CED0002B8801AC2380BB780325A3711E4B1F490F
:10CEE00005932123E370113BA3701D4B2000A58007
:10CEF0000793267200F037FD0C220223A270227ADB
:10CF0000A380AA43002513432372164B1649200021
:10CF10000793049500F027FD1449154806F026FEF6
:10CF2000144B18600523A84210D0290007F0BFF861
:10CF30001148FBF72DFF1148FBF72AFF104B31007A
:10CF4000104A11481D7002F08BFF2B0018000BB027
:10CF5000F0BDC04620420020010014002442002001
:10CF600091680200956802002C4200209968020036
:10CF700084680200144200208829002074290020BF
:10CF80001942002055D201001C42002013B56B4607
:10CF9000DC1D21000448FBF745FE002801D0207865
:10CFA00016BD01204042FBE77429002010B5034B59
:10CFB0000A0001001800FBF763FE10BD7429002071
:10CFC00013B56B46DC1D064B010022001800FBF771
:10CFD0006EFE002801D0207816BD01204042FBE7FC
:10CFE00074290020014B188980B2704774290020F1
:10CFF000014B188980B2704788290020F0B589B0AC
:10D0000006ABD87101F046FB264B984203D10120B4
:10D01000404209B0F0BD2449002308684968234A0A
:10D0200006F0ECF94B04C60B1E43CF0B204B1E49F8
:10D0300005931B891D4A9BB2069308684968002323
:10D0400006F0DCF94B04C20B1A43CB0B029203939C
:10D05000029C039DA41BBD4100940195059B069A6B
:10D060009B88934209D1019B002BD0D1009BC72BF9
:10D07000CDD8052005F0BAFFD8E7019B002BC6D11B
:10D08000009BC72BC3D801230A4C0598237006AB1D
:10D09000DF1D3900FBF72BFE6B461B7938782370B8
:10D0A000B7E7C046FFFF000000590020E8800000FD
:10D0B00088290020184200200388010010B5112B98
:10D0C00031D004D8012B35D0102B19D010BD502BE6
:10D0D000FCD11D4BC0889B899842F7D1CA8B1B4855
:10D0E0002031FBF73EFEFBF75BF9022803D101215B
:10D0F0000020FBF749F880204000FBF769FEE5E7D8
:10D10000134B00211B8F134AD80300238018594169
:10D110000023114A06F052F9104B01000022186852
:10D1200002F0C4FED2E70D4B186802F011FF0C4864
:10D13000FBF72EFEFBF734F90228C7D100210800C7
:10D14000FBF722F8C2E7C0462042002074290020E5
:10D150007431002074400000E88000001C42002070
:10D1600088290020014B18787047C04619420020DA
:10D17000012310B5054A064811785B1A1370FBF7B6
:10D1800007FE0448FBF704FE10BDC046194200200C
:10D190008829002074290020F0B589B002AB0190E5
:10D1A000D98014294BD82749002308684968264AA2
:10D1B00006F024F94B04C40B1C43CD0B01F0F0FA2C
:10D1C000204900230290204A0868496806F016F9B1
:10D1D0004B04C60B1E43CF0B30003900029B001BD3
:10D1E000A941002B09D1002901D1C72801D9042464
:10D1F00022E0012005F0FAFEE0E70029F7D1C72878
:10D20000F5D80B2002AB0522C01807F009FA0F4B26
:10D2100004AC9B8823800123A37002AB06330693E2
:10D22000019B079301F036FA2100FFF726FE84B236
:10D23000002C01D101F0BCFA200009B0F0BD044C73
:10D24000FAE7C04600590020E88000002042002094
:10D250006280000030B5254B87B01B78DCB2002B14
:10D260000FD101F017FA224B98420CD12148FBF75D
:10D270008FFDFBF795F8022803D121002000FAF773
:10D2800083FF07B030BDFBF78BF802280FD1194B95
:10D290001B89002B03D0184B1B89002B07D1FBF7F0
:10D2A0007FF8022803D100210800FAF76DFF072458
:10D2B00001F076FA0028E4D014220E4801A9FBF709
:10D2C000DFFC051EDDD0FBF76BF8022803D101213E
:10D2D0000020FAF759FF290001A8FFF75DFF002899
:10D2E000CFD1013CE4B2002CE2D1CAE718420020C1
:10D2F000FFFF0000882900207429002072DF70479A
:10D3000077DF7047A0DF7047A4DF7047A8DF704762
:10D31000F0B5634E8DB004004E220021300007F0BE
:10D320007FF900225F4B327101939B8F02AF7380B4
:10D330005D4B39001A70822332009B010120BC70C2
:10D340003B80FFF7DFFF21220021F81D07F068F97D
:10D35000338803AC2380BB780226A3711123E370CA
:10D36000524B0325A38006232372514B2000E36018
:10D37000504B514907930123A670A38200F0F3FAA2
:10D38000082000224D4B4E4FA380237AA070AB4360
:10D39000334323724B4B20004B49E3600797A28233
:10D3A00000F0E1FA01210820002207970A27474BE5
:10D3B000A070A380237A2000AB430B434449E26072
:10D3C000A282237200F0CFFA424BA770A380237A87
:10D3D0002000AB43334323723F4B4049E360404B53
:10D3E0000793019BA5331B78A38200F0BCFA0121AF
:10D3F0003C4BA182A380237A2000AB4333432372AA
:10D40000394B3A49E3602B4BA770079300F0ABFA16
:10D41000374B2000A380237A3649AB433343237232
:10D42000354BA770E360354B07930423A38200F0CC
:10D430009AFA0121324BA182A380237A2000AB43C8
:10D44000334323722F4B3049E3601A4BA770079385
:10D4500000F089FA2D4B2000A380237A2C49AB439E
:10D46000334323722B4BA770E3602B4BA6820793A9
:10D4700000F079FA012108200022284BA070A38037
:10D48000237AA182AB430B4323720A4B2000244929
:10D49000E260079300F067FA00200DB0F0BDC046CF
:10D4A000484A002074310020344A002081200000C6
:10D4B0004C4A0020010001004E4A0020822000005A
:10D4C0000100100000320020564A00208320000096
:10D4D0005E4A0020842000001A320020664A0020A4
:10D4E0000100120085200000113200206E4A002049
:10D4F00086200000764A0020143200200400040038
:10D5000087200000183200207E4A0020882000007A
:10D51000864A00204A4A00200200020089200000BA
:10D520008E4A0020F0B50388040085B0512B4CD101
:10D530008379022B49D1804E028B33889A4244D1A1
:10D54000837A012B41D1008A7C4A33798218012ADF
:10D550003DD8002B1AD07A4B228C1B789A4238D1B6
:10D5600020007849223007F03BF8002831D1208A8A
:10D57000724BC3185A4253413371734BC01805287C
:10D580000BD805F091FD2963326677A56F4B984261
:10D590001FD1238C013B0E2B1BD80025102200210C
:10D5A000684607F03DF86F460223BD803B70694630
:10D5B000A088FFF7ABFE664B228A9A4205D173889A
:10D5C000002B02D0634B9B8F738005B0F0BD002B06
:10D5D000D3D084256D00E1E7228C5F4B1A70FBF7F6
:10D5E00065FD00225D4B1A70D7E7238C042B00D019
:10D5F0009CE05B4A2300210094460125223326311A
:10D600000027DF571A78380028300DD03800143042
:10D6100000DA8EE0042F00DD8BE067461432D2B2D0
:10D62000D7402F4200D184E001339942E8D11F272F
:10D630004C4B484D1B78E3180333DF570B23EB5655
:10D64000BB42AAD03800FFF75BFEEF72FBF72EFD5E
:10D65000A3E7238C012B69D1E31CDB7F032B68D864
:10D66000404A3C4D12789A4200D196E7EB180027C9
:10D67000A033E2E7228C022A58D121006D462231E4
:10D68000684607F015F92988324B002902D1493341
:10D690001970DBE70A1C142900D21422A02190B2D1
:10D6A0008901884200D90A1C2A8091B20022708820
:10D6B000904204D11A000320493210700122988F41
:10D6C000884201D09987C1E7002A00D165E7BDE70C
:10D6D000238C012B2AD1E31CDB7F002B00D15CE7DC
:10D6E00000271C4D174B204A1F602B0090331F60F2
:10D6F0002B0094331F602B0098331F602B009C334A
:10D700001A602B00194AA0331A602B002800184A0F
:10D71000A4331A8017490B22A63007F0C9F8280055
:10D7200007223900B13006F07BFF8FE70E25FF3569
:10D7300034E70425FBE7C046484A00207EDFFFFFB0
:10D7400010320020003200207CDFFFFF822000002A
:10D75000882000007431002019320020344A002053
:10D760001111110118320020100000EE0400FCF429
:10D77000010A00000F6E0200F8B5134B1B78002B56
:10D780001FD01249002308684968114A05F036FE87
:10D79000104D4F04C20BCB0B3A4328686968002434
:10D7A000121A8B41AE689C4201D1964209D8064BB1
:10D7B0001C7000F06FFF084B984202D10020FFF769
:10D7C000DFF90020F8BDC046344A0020005900208F
:10D7D000E8800000384A0020FFFF0000F7B50C0089
:10D7E0000D4B0A000100180007F062F80B4B6E4663
:10D7F0001C7000F04FFF0500094BB01CDF8B0622A8
:10D80000002106F00DFF390028006A463480FFF73A
:10D810007BFD80B2FEBDC0461A32002019320020C6
:10D82000484A002010B5002814D001220A4B0B4CA6
:10D830001A70FA239B0043430949A360094A002355
:10D840000868496805F0DAFD4B04C00B1843C90BA2
:10D850002060616010BDC046344A0020384A002074
:10D8600000590020E8800000014B18787047C0463E
:10D87000344A00200E2330B589B06B4418001222C0
:10D88000002106F0CDFE194B01AC0193184B194D48
:10D890001B780533237116236371174BE3806733BD
:10D8A000FF3323722B009F331B7863722B009E3350
:10D8B0001B78002B04D0114BE3806380002323727C
:10D8C0000E236B44122218000D4906F0F1FFAA8FB7
:10D8D0000C4B21785A8023792000C918002302318B
:10D8E0001A00C9B2FFF70AFD09B030BD0303AAFE52
:10D8F0001932002074310020AAFEFFFFD8FEFFFF7E
:10D900001A320020484A0020A2DF704763DF7047C8
:10D9100064DF704730B587B06B460200DD1C002322
:10D920000F322B7002AB1178197011000133013ADC
:10D930008842F8D16B460024290002A89C82FFF798
:10D94000E5FF83B20F2B09D101AC2200102002A900
:10D95000FFF7DEFFA3782B70287802E02000002B71
:10D96000FAD007B030BDF0B530231126827893B0DD
:10D9700004000191C6701A420ED003AD03220021AB
:10D98000280006F04DFE0623AA782E709A43043B29
:10D990001343AB70E3786B700BAD1C2200212800A1
:10D9A00006F03EFE3021A27800232A700A4200D001
:10D9B00003AB6B61112304AEA06933800F3BB370DE
:10D9C000002809D00378002B06D0686006F079FFA4
:10D9D00080B2288168812E61237F002B02D0230032
:10D9E0001C33EB6005AF03220021380006F018FE5F
:10D9F000638A227A0093238A009891071B1A581E83
:10DA00008341490F0B431107C90F5207C900D20FB9
:10DA100012010B4313433222BB70A378134201D08F
:10DA2000E2783A700C22134201D0E3787B701A201E
:10DA300002AB06220021C01806F0F2FD231D06935A
:10DA40000797A38A06AE3381009B3200B381E36857
:10DA500029000A932088019BFFF756FF80B213B07C
:10DA6000F0BD44DF704711DF704713DF704774DF8C
:10DA7000704776DF7047000010B500F00BFE084BD2
:10DA8000984204D000F006FE1321FFF7F2FFFFF7E3
:10DA9000EEFF00210120FAF777FB03F041FE10BDF5
:10DAA000FFFF0000016881F308884068044AEFF333
:10DAB00005839A422AD1034CA646004770470000CE
:10DAC00000000000FFFFFFFF1FB5FAF745FB002431
:10DAD00001A9064B088006484B608C6004F050FB9F
