:020000040003F7
:10C00000E83800207DC1030097C1030099C10300F7
:10C010000000000000000000000000000000000020
:10C02000000000000000000000000000D5C0030078
:10C0300000000000000000009DC103009FC103003C
:10C04000A1C10300A1C10300A1C10300A1C103005C
:10C05000A1C1030000000000A1C10300A1C10300B1
:10C06000A1C10300A1C10300A1C10300A1C103003C
:10C07000A1C10300A1C10300A1C10300A1C103002C
:10C08000A1C10300ADC30300A1C10300A1C103000E
:10C09000CDC30300A1C1030021C40300A1C103005B
:10C0A000A1C10300A1C103000000000000000000C6
:10C0B0000000000000000000000000000000000080
:10C0C0000348854600F0E4F8004800470DE8030007
:10C0D000E83800200648704502D1EFF3098101E0FD
:10C0E000EFF30881886902380078024A104700009F
:10C0F000FDFFFFFF0DC30300401E00BF00BF00BFD8
:10C1000000BF00BF00BF00BF00BF00BF00BF00BF37
:10C1100000BFF1D170470000401E00BF00BF00BF4C
:10C1200000BF00BF00BF00BF00BF00BF00BF00BF17
:10C1300000BFF1D170470000056885F308884668A4
:10C140000A4AEFF305839A42304602D1084CA646CC
:10C150003047074C064D0646064FF0B4034C034DDE
:10C16000024E024FF0B404480047000000000000F7
:10C17000FFFFFFFF00000021F9FFFFFF0321094837
:10C1800002680A430260084802680A4302600748DE
:10C19000804707480047FEE7FEE7FEE7FEE7FEE7C9
:10C1A000FEE70000240500405405004045C403009C
:10C1B000C1C0030030B50B460146002020220124F7
:10C1C00009E00D46D5409D4205D31D469540491BCB
:10C1D0002546954040191546521E002DF1DC30BD14
:10C1E00003460B439B0703D009E008C9121F08C090
:10C1F000042AFAD203E00B78491C0370401C521E3B
:10C20000F9D27047D2B201E00270401C491EFBD245
:10C2100070470022F6E710B513460A460446194651
:10C22000FFF7F0FF204610BD421E521C1378002B72
:10C23000FBD10B781370491C521C002BF9D17047AD
:10C24000421C0178401C0029FBD1801A704730B590
:10C2500004460020034600E05B1C934203D2E05CEE
:10C26000CD5C401BF8D030BD03460A780270491CF3
:10C27000401C002AF9D118467047001D0321401EBA
:10C28000037812021A43491EF9D510467047000080
:10C29000064C0125064E05E02046E36807C82B43FF
:10C2A00098471034B442F7D3FFF70EFF48FB030062
:10C2B00068FB030070B58C180578401C6B075B0F9A
:10C2C00001D10378401C2A1106D10278401C03E0FA
:10C2D0000678401C0E70491C5B1EF9D12B0705D453
:10C2E0000023521E0DD40B70491CFAE70378401C42
:10C2F000CB1A921C03E01D785B1C0D70491C521E6A
:10C30000F9D5A142D8D3002070BD000010B50C466D
:10C31000002802D00120086010BD2168002911D03A
:10C320001048421A814212D03C2A0DD23C303C3196
:10C3300001220B7803701346491E401E521C3C2BF1
:10C34000F7D904E00E200BE03C22FFF749FF002262
:10C350003C21044801F0F8F90249891E08800020B8
:10C36000206010BD823F00208307FF22DB0E9A4031
:10C370008907090E994000280BDA0007000F0838DA
:10C38000830808489B001B18D86990430843D8616C
:10C390007047830804489B001B18186890430843A3
:10C3A0001860704700ED00E000E400E010B50649B9
:10C3B0000020086048608860C86003494039086010
:10C3C000486003F007FA10BD40110140FEB500209F
:10C3D000C043124D02906869019068462E6901F0D1
:10C3E0005DFF074602F03EF90446002F08D002AA7E
:10C3F0000199009801F072FF029802F07DF906E0C1
:10C40000029802F079F9002801D1002C02D03046C0
:10C4100001F0D0F800206871FEBD0000B4280020B3
:10C4200010B507484068002807D08047002803D08F
:10C430000022114600F0D6F910BD02F09BF810BDA5
:10C440004029002010B502F0E3F8002805D00E497D
:10C450000C484860C8130D4988610D48018CC9B269
:10C4600001290ED1818C09070BD1018D0906090F15
:10C47000042906D1808D0006000F02D10549012054
:10C48000886010BDDFFF07C000050040006C004061
:10C49000C00F00F00006004030B47446641E2578DA
:10C4A000641CAB4200D21D46635D5B00E31830BCE8
:10C4B000184702E008C8121F08C1002AFAD17047C5
:10C4C0007047002001E001C1121F002AFBD1704714
:10C4D000F7B582B00026054616700068144600289D
:10C4E00005D02846039902F077FA060008D168794A
:10C4F00000281ED02078039F001D1F2802D90C2081
:10C5000005B0F0BD684679DF0028F9D12178032213
:10C51000481C20707A5421781922481C20707A54C3
:10C520002078C1196846008803F094F921784018F2
:10C530002070A8790223002810D02078039A411C8B
:10C540002170135420780399471C012227700A5444
:10C550002078AA79471C039927700A54A8680028F4
:10C5600015D00021415620788C460246C01C039904
:10C570001F28C4D8501C20708B5422780A23501CCA
:10C5800020708B5420786246431C23700A54A8897B
:10C59000002809D028460094062202210C30039B73
:10C5A00003F0DCF90600ABD1A88A002809D02846A0
:10C5B0000094072203211430039B03F0CFF90600F7
:10C5C0009ED1A88B002809D028460094152214215A
:10C5D0001C30039B03F0C2F9060091D1686A002861
:10C5E00005D02246039901F037F8060088D1A86AE1
:10C5F000002805D02246039902F0BCF9060084D138
:10C600003020405D002806D022462846039902F0DB
:10C6100017FF0600C7D1304672E7000010B5044688
:10C620000F488EB08179684681700E4901803421AF
:10C6300001A8FFF7EEFD022001900021684641723B
:10C640008472012101820590002101A800F0BCFA4A
:10C65000002803D00022114600F0C4F80EB010BD2F
:10C66000402F002030150000F0B5274C8BB0A0788B
:10C67000002837D118212548FFF7CBFD2046C07888
:10C68000224C00250126002836D027464837009541
:10C690000195029510226946F81D0395FFF7D7FD15
:10C6A000002821D0F81D089009976846067509A84A
:10C6B00004906846067708A806900420FFF7AEFFAE
:10C6C00025700220207204A8E06028202082658264
:10C6D0000E4873DF002803D00022114600F082F8D4
:10C6E000094886700BB0F0BD0520FFF797FF267054
:10C6F000676025722582EAE70620FFF78FFF257025
:10C7000065602572E1E7000014290020282F002031
:10C71000F0B5054608790E4685B081070CD0032296
:10C720001146284600F0F6FB002803D000221146EF
:10C7300000F058F805B0F0BD2949009001F0C0FEA6
:10C74000010011D1264CB168183C009AA069FFF78E
:10C7500047FD009801F082FE010005D1694620489E
:10C7600001F08AFE010003D0284601F0B3F9E1E7A9
:10C7700004200190009880080290A069039001A80D
:10C7800001F072F907000BD0092F10D0A06901F059
:10C790002FFE010002D0284601F09CF93946E3E75C
:10C7A0003079616940186061A069E061C2E7307961
:10C7B00061694118616160780028BBD06089401EC2
:10C7C0000004000C6081B5D1284600F06BFB002806
:10C7D00003D00022114600F005F820896081A9E706
:10C7E0002C290020BFF34F8F03490248C860BFF3D4
:10C7F0004F8FFEE70400FA0500ED00E038B50C4667
:10C80000E2680978022A0BD014235A43064B9D583C
:10C8100062680092024620460C306369A84738BD22
:10C82000024A1568F4E700008C2E00209C280020A6
:10C8300070B50F4B05241D785E78AE4215D01D787B
:10C840001C789E88B44201DA641C00E000241C704D
:10C850005C88DE686C43A41904609B68E800C41817
:10C86000A4880C80185800241060204670BD000079
:10C87000A4280020F7B53A4C82B060880F46814268
:10C880006CD80020694608703749364E4868C005A4
:10C89000C00D16D0103807D50207120F083A9208BB
:10C8A00092005118C96904E08108304A890089184A
:10C8B00009688007C00EC1400806850F012D01D10F
:10C8C0000AE00425684636DF02280CD0002803D091
:10C8D00000221146FFF786FF22786078A1888842FF
:10C8E00003DA401C02E072B6F6E70020C0B29042C4
:10C8F00007D066786078884201DA401C00E00020AA
:10C900006070012D0BD062B66846007837DF0228D0
:10C9100005D0002803D000221146FFF763FF11481D
:10C92000864219D0A068F500049941510299002966
:10C930000CD0002F0AD060883A464643E068301891
:10C94000FFF74EFCA0682818878002E00021281815
:10C950008180002005B0F0BD0420FBE70920F9E745
:10C96000A4280020FFFF000000ED00E000E400E04C
:10C970000EB504E068468188029A0098904702AAA2
:10C9800001A96846FFF754FF0028F3D00EBD000050
:10C9900030B5CB0008339DB293070024002B01D0A3
:10C9A000072030BD044B9A605219DA605C701C702D
:10C9B00058809980002030BDA428002070B5114C0B
:10C9C000A568002D06D0002A06D0002804D0002338
:10C9D000247809E0082070BD072070BD28265E433A
:10C9E000AE59002E04D05B1CA342F7DB042070BDBF
:10C9F000282401265C432E516419E26161600360C2
:10CA0000002070BDB428002010B50446082904D0C9
:10CA1000002211461046FFF7E5FE2168606888474E
:10CA200010BD00001CB501910090034A0821684622
:10CA3000FFF720FF1CBD000009CA0300FFB59807DF
:10CA4000002481B01E4615460F4600280BD1002E4B
:10CA500009D002F097FC22490A9888610F7032468B
:10CA600000208E6008E0072005B0F0BD2823434376
:10CA7000D4509B181C76401CB842F7DB2820474353
:10CA8000BB19032048700F461846CB601946183072
:10CA9000002218232E465E43D3005B181C705C7086
:10CAA0009D7058603018521C032AF5DB0020C043EB
:10CAB0003861BC70FC7001240A482405046003211D
:10CAC0001420FFF751FC08480460084C0198A0604E
:10CAD00003211120FFF748FC606878610020C3E75C
:10CAE000B428002080E200E000E100E000150140F1
:10CAF000FEB504461D48174682680D46002A0CD034
:10CB000001788C4201D2052D01D20720FEBD2146BD
:10CB1000282359435358012B01D00820FEBD881803
:10CB2000406801281DD0002602F0DEFEC0000F493B
:10CB30000190C9684018694602F0FEFE002812D034
:10CB40000121446001600A4949680830E2C0074990
:10CB50000198C96841180098487002F0C9FD00208A
:10CB6000FEBD2E46E0E70420FEBD0000B4280020F4
:10CB700000150140F8B5134D0446A868002809D0F7
:10CB800029788C4201D30720F8BD28216143405801
:10CB9000012801D00820F8BD02F0A6FEC600E86812
:10CBA0006946301802F0C8FE002809D0022112C0E0
:10CBB000E86831180098487002F09AFD0020F8BD2E
:10CBC0000420F8BDB428002070B50C4692B00021B6
:10CBD0006A46117007251171002809D0817949072B
:10CBE0000CD502A9FFF774FC002808D102AE00E0C2
:10CBF0000026002C0ED0A079002802D0284612B0C2
:10CC000070BD01AA0AA92046FFF762FC0028F6D1F0
:10CC10000AAA00E00022684603790178304672DFF4
:10CC2000EDE7000070B5054601461C220F48FFF7EE
:10CC3000D7FA0F4C002626702968002907D0082251
:10CC4000A018FFF7CDFA204608307ADF02E0084846
:10CC500008307BDF002808D1401E608004486670E1
:10CC6000044A0021001DFFF7A9FE70BD682D0020B9
:10CC70005428002085F80300F8B5224C02880027CC
:10CC80001F4DE689102A16D029464968112A21D05D
:10CC9000122A2DD0502A1CD1801D0288B24218D1F0
:10CCA000028B022A15D1C27E837E10021843C00770
:10CCB000C00F0CD112E0818869800146104808221B
:10CCC00016311030FFF78CFA6F70002E01D100F092
:10CCD0000BFDF8BD0020C04368806F700846FFF769
:10CCE00049FF0028F5D0A1690029F2D08847F8BD96
:10CCF000811D034808221030FFF772FAE7E70000B1
:10CD000054280020682D002010B502484068FFF725
:10CD100031FF10BD54280020F0B585B00A4605004B
:10CD20002DD02888184988422BD018480078002830
:10CD300027D0164C1020641C20700720607001273B
:10CD4000A7700321684601820026E11C104602F00C
:10CD500090FD01466846008A0918684601820096DF
:10CD6000019602960396298A01808770868004A81E
:10CD70000394029028886946A6DF05B0F0BD0E2016
:10CD8000FBE70820F9E70000FFFF00006C28002007
:10CD900030B585B00D46040039D0002D37D0686815
:10CDA000002834D00020C0431A4B20800FCB0493BE
:10CDB00001AB07C3184869460880891C01A863DFD6
:10CDC000002822D1221D69460120A0DF00281CD1A5
:10CDD00068468078A071204600F0A8FF002814D192
:10CDE000204600F0FDFD00280FD12946204601F025
:10CDF00019F8002809D16868A062A868002800D046
:10CE0000E062064901200870002005B030BD0E2008
:10CE1000FBE7000060FA0300301500006C280020DA
:10CE20003EB5002828D0002926D0826A002A23D0C7
:10CE30000A88102A21D0112A30D0502A1FD0512A16
:10CE40001AD104460846891D0A78022A14D14A8854
:10CE5000238A9A4210D1807A04280DD006280BD05C
:10CE6000052809D0891C204601F0D6FE002803D0F1
:10CE7000E16A002900D088473EBD898810E0CA8851
:10CE800003899A42F8D1082200928A7F6B461A7170
:10CE900020310291826A694690473EBD0021C94314
:10CEA00001803EBDF0B585B00A46050029D028882E
:10CEB0001649884227D016480078002823D0144C01
:10CEC0001120641C20700127684607820026611C1F
:10CED000104602F0CEFC01466846008A09186846F2
:10CEE00001820096019602960396298A0180877036
:10CEF000868004A80394029028886946A6DF05B0BE
:10CF0000F0BD0E20FBE70820F9E70000FFFF00005E
:10CF10006C28002030B585B0002822D00388134C3F
:10CF2000A34220D0124B1B78002B1CD0104B102595
:10CF30005B1C1D705970002401259A7003226946FC
:10CF40000A820094019402940394028A0A808D70EC
:10CF50008C8004A90291039300886946A6DF05B07E
:10CF600030BD0E20FBE70820F9E70000FFFF0000BE
:10CF70006C28002010B50446FFF77EFE21460348CA
:10CF8000FFF74EFF204601F087FD10BD402F002027
:10CF900010B51F4C86B01ECC03946C460EC40028FE
:10CFA00007D0684618DF002803D000221146FFF79B
:10CFB00019FC0F20800313DF002803D00022114644
:10CFC000FFF710FC134B48221349092002F0A2FA84
:10CFD000002803D000221146FFF704FC0020049033
:10CFE000059001206946087404A860DF002803D07A
:10CFF00000221146FFF7F6FB084802F0A3FA0028CA
:10D0000003D000221146FFF7EDFB06B010BD000073
:10D0100050FA030001F50300BC2B0020E9F60300E1
:10D020000149087070470000002800200D48416841
:10D03000491C41600278002A01D1C90710D141780A
:10D040000122514041700848084A01D0906000E038
:10D05000D06007480068002802D0074905480860EA
:10D060007047000000280020000004000005005068
:10D07000000401403546526E0006014038B5006894
:10D08000401C19D00024684600F060F9009801683F
:10D09000012910D1416800290AD0C168032000038A
:10D0A0008068002200F050FB00994968814201D15C
:10D0B000012400E00024204638BD000070B511DFD7
:10D0C000002803D000221146FFF78CFB0F490020F7
:10D0D0000B680E4C012180340A4682401A4204D06B
:10D0E000C506ED0E0A46AA402260401C2028F3D354
:10D0F00003242403A06813DF002803D00022114674
:10D10000FFF770FBA06800F01DF970BD00E100E0C2
:10D1100008B5684600F01AF900980168A52904D0FE
:10D120008068AA2801D0002008BD012008BD10B5E4
:10D1300000F0F8FE002803D100F0B2FB00281BD05D
:10D14000642001F07FFC00F0B3FE002803D0002231
:10D150001146FFF747FB00F0E5FE002803D0002250
:10D160001146FFF73FFB00F07BFB040003D00022D9
:10D170001146FFF737FB204610BD000000B589B00F
:10D180001822084902A8FFF72BF806980799009083
:10D19000019102A80FC800F013F802F043FC002030
:10D1A00009B000BD98FA030010B500F0DDFC0028BE
:10D1B00005D100F0C3FF044602F034FC204610BD48
:10D1C0000FB4F8B5684600F0C1F86846818B069D3B
:10D1D0000122334CFF233348002D13D0012D17D0EB
:10D1E000032D2BD00021022D37D02A46052D46D005
:10D1F000042D4ED0062A01D104202060F8BC08BCC2
:10D2000004B0184741600A9983600260C16010E071
:10D210004160099D089949190A9D4919C160A521D4
:10D2200083600160089901610999856141610B99E9
:10D23000C16122601B4800F069F8DFE700990B68C4
:10D2400003604B684360C968C160AA218160089986
:10D250000161099941610A990BE0009D2E68A52E94
:10D2600009D006606E684660ED68C5600161836044
:10D2700041618161DDE741600360C160F6E700F074
:10D2800031FF002803D000221146FFF7ABFA03203C
:10D29000B3E741600360C160009989688160C9E7B4
:10D2A000D8280020A02E00200EB50748009020208E
:10D2B00001900120029001F029FE002803D10349CA
:10D2C000684601F015FF0EBD15EE0300DC280020B6
:10D2D00010B588B00446002320220B49684601F0AF
:10D2E00043FE00982060019860600398E060029817
:10D2F000A06004982061059860610698A061079875
:10D30000E06108B010BD0000DC28002010B5044624
:10D3100020210B4801F0BCFD002803D0002211465B
:10D32000FFF760FA002320222146054801F04EFF56
:10D33000002803D000221146FFF754FA10BD000068
:10D34000DC28002010B5FEF7F7FE10BD0149016092
:10D350007047000000FC0300F0B5064691B00D4692
:10D3600014461046FEF76CFF07461C220E4905A81E
:10D37000FEF736FF0C480C3801680D9140680C90A0
:10D38000684605861421FEF744FF0CA800900DA8FE
:10D3900001906846078187810EAB6A4605A9304631
:10D3A0000494A2DF11B0F0BD7CFA03001CB51A484A
:10D3B0006A468068019001A90120A0DF6846174AEB
:10D3C00017490088FFF7C8FF164C616A0822164803
:10D3D00001F006FD216A14480822083001F000FD22
:10D3E0000F496846104A091F0088FFF7B5FF00F093
:10D3F000BFFF02460A496846C91E0088FFF7ACFF16
:10D4000000F098FF024606496846891E0088FFF72B
:10D41000A3FF00201CBD000070FA03007428002048
:10D42000292A000040000010842D0020F8B538495A
:10D4300018230A780F205A435418241D354922789E
:10D440002669CF68022A1BD001252D07042A2AD07D
:10D45000052A5BD1286981B23046FEF7ABFE014652
:10D46000A36828699A1980B24843101A8208606834
:10D470001818861928694B1C80B25843801B34E069
:10D48000B80262686169121A0918A368301818187E
:10D4900001239B029A4202D2920829DF31E0FF2247
:10D4A000013229DF2DE0E268194914205043F4319C
:10D4B0004018001D0BC8B04203D160685943814237
:10D4C00018D0022A16D0286981B23046FEF772FEC3
:10D4D0000146286980B24843301A820828694B1CEB
:10D4E00080B2584363689B19C01A8308204602F033
:10D4F00073F806E0286981B23046FEF75BFEC0197A
:10D5000028DF002802D1024901228A70F8BD0000FC
:10D51000982D00208828002010B5084900204A785E
:10D52000002A09D08978002906D1FFF77FFF00285B
:10D5300002D0112800D1002010BD0000982D00203D
:10D5400018225043054A0021801801718160416111
:10D55000012281610261C16070470000982D0020A6
:10D56000F8B5134C069E65780A2D1FD027787D19D3
:10D57000EDB20A2D01D30A3DEDB218277D432D19D6
:10D58000287100206871AA6103C9EE60AB6069610F
:10D590002861A1780020002904D1FFF747FF112856
:10D5A00000D100206178491C6170F8BD0420F8BDED
:10D5B000982D0020F8B5224801694A1C3DD0282248
:10D5C0005143826889188E681E494C684769007902
:10D5D000E11B0D022D0AED1C002814D101201A4A6E
:10D5E00000045060184A403A5060184940000860F2
:10D5F000174908601749012008602F20FEF78CFDAD
:10D600000F4901200871B54200D23546E8190002E1
:10D610000C49000A403108600A494968001B091B8F
:10D620000902090A0002C91C000A814204D901202A
:10D630000649400480390860F8BD01F0A3FEF8BD3A
:10D64000B4280020001501404013014080E200E0B2
:10D6500000E100E000100140F8B50D4611780646E3
:10D66000881D14461F2801D90C20F8BD33880720D7
:10D67000062BFAD31927FF01BB4202D9164A93425F
:10D68000F3D17288062AF0D3BA4202D9124FBA42B5
:10D69000EBD1114FBB4203D0BA4201D09342E4D840
:10D6A000481C052220706A5420781222411C2170E7
:10D6B0002A5420784119308802F0CCF8217840189B
:10D6C000C0B220704119708802F0C4F82178401867
:10D6D00020700020F8BD0000FFFF000010B5002200
:10D6E0001146FFF77FF810BDF8B5154800F082FF2E
:10D6F000134D0026103D134C002806D06169002907
:10D7000019D001200090684614E02878002804D041
:10D71000616900290FD00096F5E7687800280CD0E1
:10D72000A16800226868FFF7E3F9002803D0A16927
:10D73000002900D088472E70F8BD6168F1E700002D
:10D7400064280020682D002010B50446002A02D06D
:10D750001088002210E00A48FBE7030A0002034396
:10D76000A05C584003061B0F43401803584083B287
:10D770001806C00C5840521C8A42EED310BD00005F
:10D78000FFFF000030B5164C89B01648E16801F083
:10D790003FFC002803D000221146FFF723F8114870
:10D7A000E268083841680023083001F06FFC05008A
:10D7B00013D1182102A8FEF72CFD0A4900202439B4
:10D7C000029049886A469181E1680691079A009122
:10D7D000019203A90EC9FFF7F3FC284609B030BD3A
:10D7E000C02E00200829002000B50B4987B04988C9
:10D7F0006A461181094903204A6803928A680492A3
:10D80000C9680591069A0091019202A90EC9FFF715
:10D81000D7FC002007B000BDE4280020C02E002067
:10D8200000B50D4987B049886A4611810321090373
:10D8300089680691094901204A6803928A6804921E
:10D84000C9680591069A0091019202A90EC9FFF7D5
:10D85000B7FC002007B000BDE4280020C02E002047
:10D8600000B58DB004A8FFF733FD099800280DD04E
:10D87000089800280CD008990B98401801900021B6
:10D880000998009180080290684618DF0DB000BD2D
:10D890000320000380683B210903091A4908ECE7CB
:10D8A00000B58DB004A8FFF713FD0998002810D02B
:10D8B000089800280FD008990B9840180321009170
:10D8C0000F2102908903099801918008039068460E
:10D8D00018DF0DB000BD0320000380683B21090361
:10D8E000091A4908E9E7000070B5054600223C2105
:10D8F0000948FFF729FF084CA41E2188884201D05F
:10D900000B2070BD3C2204492846FEF769FC2088A4
:10D91000401C2080002070BD823F002070B515465D
:10D920000A46032823D0042820D1144C002906D00D
:10D93000E0881349884219D0132176DF10E0284689
:10D9400000F056FD002803D000221146FEF74AFFE2
:10D95000E069A8420AD1012203210A48FFF7DAFA56
:10D96000002803D000221146FEF73CFF70BD0121C4
:10D97000104601F075F802460121EEE71429002057
:10D98000FFFF0000402F002000B589B01822074992
:10D9900002A8FEF725FC069807990090019102A8BD
:10D9A0000FC8FFF70DFC09B000BD0000B0FA03007E
:10D9B00070471FB5032301909008039000930291D4
:10D9C000684618DF04B010BD1FB501230190900810
:10D9D000039000930291684618DF04B010BD000068
:10D9E00030B58FB005461C216846FEF712FC69462B
:10D9F0000878082108431022104369460870002463
:10DA000001940394049405940694A87908A9887055
:10DA1000144869460884601C00070794000F0C77BF
:10DA200010304877887FF9210840801CF721084092
:10DA300010430121084369468877142109A8FEF79D
:10DA4000E8FB08A8099007A80A9069468C8517206A
:10DA5000CC8508860D942B46A888103309AAA2DF2E
:10DA60000FB030BD3115000070B5050004D0287A24
:10DA7000800703D0102070BD0E2070BD144CA0682C
:10DA8000032803D0042801D0052801D0082070BD48
:10DA90006868E168860060688019884204D90020BF
:10DAA000C04360600C2070BD00F0FCFA0028FAD181
:10DAB000A96832466368606901F0E8FA0028F2D18B
:10DAC000616889196160E2689142ECD0092070BDFB
:10DAD000E428002010B50A4604460321104600F051
:10DAE000BFFF024603212046FFF714FA002803D0A7
:10DAF00000221146FEF776FE10BD000010B5094861
:10DB00008168072901D0082010BD0069FFF732F8AD
:10DB1000002803D000221146FEF764FE0248806808
:10DB2000804710BDE4280020102F002010B50D4CB8
:10DB3000A068052813D1E168606888420FD10620EB
:10DB4000A06000F0AFFA002808D16069E168406881
:10DB500000F098F8002801D10721A16010BD08202D
:10DB600010BD0000E42800203EB5204A6B46183264
:10DB700007CA07C31E4D00246C7029466C802431EF
:10DB8000684601F065FA002801D0AC603EBD032074
:10DB90001749000380682431486024390A46526AD4
:10DBA000CA613B210903091A490840181049114A62
:10DBB0001C3148600E4800211030FEF7FFFE00289F
:10DBC00003D000221146FEF70DFE4B21002249042E
:10DBD0002869FEF78DFF002803D000221146FEF7CA
:10DBE00001FE01206C60A86000203EBDB0FA030079
:10DBF000E42800208DE0030010B50A4C082061687D
:10DC0000002900D010BDA1680429FBD16178064825
:10DC100000F04AF8002802D00021617010BD0521F3
:10DC2000A16010BDE4280020D02E0020F8B5134CD0
:10DC30000746A068032804D0042804D008252846F5
:10DC4000F8BD0420A0606068002801D00820F8BD5D
:10DC500000F028FA0500FAD178688600607881190A
:10DC6000402901D90920F8BD054AB9681018324683
:10DC7000FEF7B6FA607880196070E0E7E4280020CB
:10DC8000D02E002010B50022FFF75EFD054A517826
:10DC9000127809021143884201D00B2010BD0020E8
:10DCA00010BD00001C2F002070B500250C290ED3DC
:10DCB00004464318008941000919581A0A38C2B2AB
:10DCC0001648022A027002D30A318B4201D209207F
:10DCD00070BD1348FEF784FA124913480A8882423D
:10DCE00002D02388934217D14988814202D06088AC
:10DCF000884211D10C4A0323521E20891B03A842DB
:10DD00000AD9690009194989914203D09E896D1C7D
:10DD1000B142F4D1002070BD0B2070BD102900204D
:10DD20001C2F002080100010FFFF000030B58FB0C6
:10DD300005461C216846FEF76CFA694608780421FE
:10DD400008436946087000240194039404940594E0
:10DD50000694A87908A98870134869460884601C4D
:10DD600000070794000F0C77103048778A7FF9205E
:10DD70000240921CE7200240012002438A771421CE
:10DD800009A8FEF746FA08A8099007A80A9069466C
:10DD90008C851420CC8508860D942B46A8880833E2
:10DDA00009AAA2DF0FB030BD32150000084910B536
:10DDB00008462438416102218160C168243001F0A5
:10DDC00027F9002803D000221146FEF70BFD10BDF5
:10DDD000082900200B4910B508461C384161022172
:10DDE00081600320000380683B210903081A410871
:10DDF000044801F00DF9002803D000221146FEF777
:10DE0000F1FC10BD00290020014988617047000025
:10DE1000E42800201CB5062001950094FFF7D0F9F6
:10DE20001CBD0000F0B58FB00F4605461C216846AA
:10DE3000FEF7EFF9684601780226314301700024AD
:10DE400001940394049405940694A97908A8817018
:10DE5000164968460184601C0107090F10316846A5
:10DE6000079401770020014668464177817FF920B9
:10DE70000140891CE7200140012001436846817769
:10DE8000142109A8FEF7C5F908A8099007A80A9067
:10DE900068468685C48506860D972B46A88820335C
:10DEA00009AA6946A2DF0FB0F0BD000034150000DA
:10DEB000F0B589B06846FFF70BFA049800282AD01D
:10DEC00001210903079A4018904226D9501A4508A3
:10DED0001046049A0C468718024668001618001966
:10DEE0000890032000038068049988420DD26119CC
:10DEF00008460422FFF768FD00280CD121460422C1
:10DF00000846FFF761FD002805D1BA1B2B463046B5
:10DF1000089900F033F809B0F0BD049A0798FFF7AC
:10DF200053FDF8E730B591B06846FFF7D1F9049892
:10DF3000002814D001210903079A4018904214D9EF
:10DF4000501A43081046049A5C00821800196118A0
:10DF500003242403A468049DAC4202D20E2011B015
:10DF600030BD121A00F00AF8F9E703200CAB07C322
:10DF7000049880080F900CA818DFF0E7F8B51C464D
:10DF800017460D460646FFF714FD002817D001205E
:10DF90000003854207D92346291B301B1A46FFF789
:10DFA000EDFF00280BD13A4629463046FFF70CFD1D
:10DFB000002804D13A4629463046FFF7FAFCF8BD5E
:10DFC00070B542682548146853689168D268046047
:10DFD0004360C26081600078440701D5840705D1A1
:10DFE0009C0703D18C0701D1940701D0062070BD96
:10DFF0005B189A181A4D0F239B02EA60994213D8B6
:10E000001849194B194CC60709D08868181A90424C
:10E010000AD3174820601748606017480FE08968E6
:10E02000591A4908914201D20C2070BD1349216050
:10E0300013496160800701D5124800E01248A060D2
:10E04000A868012802D00826304670BD00F02AF8E2
:10E050000600FAD12168E8688847F5E7C02E00205D
:10E06000E42800200030000000B00300102F002042
:10E07000ADDD030089D9030021D80300D5DD0300FD
:10E08000B1D90300E9D7030085D703004CB5044E8E
:10E0900001203070052001950094FFF791F84CBDE8
:10E0A000E428002010B50E4C2078002801D008206C
:10E0B00010BD2069FEF75EFD002803D00022114646
:10E0C000FEF790FB4B21002249042069FEF710FD6A
:10E0D000040003D000221146FEF784FB204610BD49
:10E0E000E428002010B5134C01202070E08812496C
:10E0F000884208D0132176DF002810D00022114674
:10E10000FEF770FB0BE0A078002808D074DF002831
:10E1100003D000221146FEF765FB0020A070FEF739
:10E12000F3FD002803D000221146FEF75BFB002020
:10E1300010BD000014290020FFFF0000F0B50024EE
:10E140004A4E87B034704A48032534610560012780
:10E150004849F804C860484801F0BCF900287CD15F
:10E160004648FFF751FE00F02DF900287AD14448C7
:10E17000FFF7BAFB002877D0684671DF002803D08C
:10E1800000221146FEF72EFB69464878401C487075
:10E19000002070DF002803D000221146FEF722FB8A
:10E1A000112069460872072236A102A87CDF0028E8
:10E1B00003D000221146FEF715FB00940C2168469F
:10E1C0000194018018214180FF2184809131C18018
:10E1D0007ADF002803D000221146FEF703FB062059
:10E1E00069460094088029480190294802902448F3
:10E1F0003038FEF7CDFD002803D000221146FEF78F
:10E20000F1FAFFF7D3F81C216846FEF702F821481F
:10E210000190012080030290009468460573C48138
:10E2200004741D48069005946846FEF7FBFC002820
:10E2300003D000221146FEF7D5FA0C49E122203125
:10E2400008784008400010400C30DF221040087071
:10E25000072048701020887001E003E004E0FEF71A
:10E2600003FA002007B0F0BDF77099E714290020E9
:10E270004C0700500005005075CF03001DD9030066
:10E28000702F00204466755461726700F9EC03003A
:10E29000BDF40300CD0C0000DDD6030010B50E491F
:10E2A00000238A78CC78A24212D0521CD2B28A7053
:10E2B000022A00D18B708A78074B92001C339A583F
:10E2C0000260486910180002000A4861012010BD70
:10E2D0000360002010BD0000B4280020F7B5144CE6
:10E2E0000025A76823691EE028215943C9198E68B3
:10E2F000864202D9301A886017E0801B7519002603
:10E300008E600E764E699C464B6AB646002E0AD049
:10E31000019E76193602360ACE6076460E61166880
:10E320004E6261461160591CDED12361FEBD0000C2
:10E33000B428002010B50C48C069042184B22246DC
:10E340000A4800F051FA00280CD10848302108385A
:10E3500001707821417004222146801C00F040FDAC
:10E360000248083810BD00004000001010280020AE
:10E3700070B5032000038489042122460D4800F073
:10E3800033FA0D4D01000BD02846FDF76DFF0A480A
:10E39000FDF756FF401909A1FDF746FF064870BD7D
:10E3A000302129707821697004222146A81C00F0D0
:10E3B00017FDECE730280020542D00202C20302EB3
:10E3C000320000000748002101700848064A026038
:10E3D0008160C1600161082241614260816108463B
:10E3E0007047000039290020AC2F0020CC300020DD
:10E3F000F0B5194A0646916800292BD057691020BC
:10E40000791A4907490F14680B4624254D436519AD
:10E41000B54206D1012495698C4065400020956184
:10E4200004E0491C4907490F8F42EED1491C4E07B1
:10E43000760F956901210C469C402B4623420AD158
:10E440009368002B07D05B1E936053685B1C53607E
:10E450003346F0E70420F0BDCC300020054A2423E9
:10E46000117C1268491E4907490F59432031505009
:10E4700000207047CC30002070B500281AD0002949
:10E4800018D00E4AD368002B16D05B1ED360936859
:10E4900024265B1C9360536915681C467343EE1871
:10E4A00020330660E858641C08606007400F506124
:10E4B000002070BD0E2070BD042070BDCC30002047
:10E4C00010B500291DD000220A60114A5368002BA4
:10E4D0001BD0202817D85B1E5360D0682423401C13
:10E4E000D060106914684343E3180B600123834034
:10E4F0009169401C19434007400F91611061002051
:10E5000010BD0E2010BD0C2010BD042010BD000059
:10E51000CC300020FEB50446087982070ED0820771
:10E52000920F04239B1A0022154604E08E6835548E
:10E53000401CC0B2521C9A42F8D3087101200090CE
:10E54000886802900879800801906846FFF76EFBA2
:10E5500000280DD0022100F083FA02460221204655
:10E56000FEF7D8FC002803D000221146FEF73AF946
:10E57000FEBD0000F8B51E4C2078002837D0206979
:10E58000002807D00026E068002805D00025002ECE
:10E5900004D013E00126F6E70125F8E7684651DFCD
:10E5A000052806D0002806D000221146FEF71AF9E9
:10E5B00004E0012602E0216900988847002D12D16D
:10E5C000608869460880A06861DF052806D00028B9
:10E5D00006D000221146FEF705F904E0012502E00D
:10E5E000E168A0688847002ED8D0002DCFD0F8BDB4
:10E5F00040290020418805480288914204D3408880
:10E60000814201D801207047002070475C2800201B
:10E610001048018CC9B2012917D1818C090714D186
:10E62000018D09060A0F03D1828D1206120F0ED03A
:10E63000090F012903D1828D1206120F07D0032979
:10E6400003D1808D0006000F01D00020704701200B
:10E6500070470000C00F00F0800701D00020704715
:10E6600001207047F8B5234801690091457833E0EF
:10E670002048E900C0680E1834782AE0182060436A
:10E680007168641C0818B178E4B2A14200D100247A
:10E690000168022902D003291BD113E0154A406802
:10E6A0002821926841438F18397E002911D001F04A
:10E6B00059F8002038760CE028277843C0180276F5
:10E6C000406A03E00B4900228B680869471CF3D1BC
:10E6D00008617078A042D1D128466D1EEDB20028A5
:10E6E000C6D1044801690098814201D00120F8BDDB
:10E6F0000020F8BDB4280020F8B5044638480027AB
:10E700000169009146785CE03548F100C2688D18D7
:10E7100051E0601C07D0324A2820926860432146AD
:10E720008018446A24E02878182141436A68401C14
:10E73000C0B252182870A978884200D12F70284B97
:10E74000516828209B684843C0181368012B34D1B6
:10E75000037E002B31D19368C360D36803611369D2
:10E760004361526902621E4A5279002A00D0C76092
:10E770001B4BC2685B6996469C46D31A1A02194B1A
:10E78000120A9A4202D20369D21808E0724663461E
:10E790009A1A12020369120A934202D99A1A8260E3
:10E7A00000E08760C760012207610276921E426224
:10E7B000084600F0A5FF601CABD128786978884234
:10E7C000A7D13046761EF6B200289DD104480169D3
:10E7D0000098814201D00120F8BD0020F8BD000062
:10E7E000B4280020FFFF7F0010B5002309E0DC0003
:10E7F000045B944203D1D9000818406810BD5B1C2B
:10E800009BB28B42F3D3002010BD00001CB54C48D6
:10E81000C169B1295CD000244A4903200860091D60
:10E82000086049480F2140698903884204D00022CA
:10E8300011461046FDF7D6FF0120000700690121AF
:10E840008902884204D0002211461046FDF7CAFF13
:10E850003E4800903E4B052204210020FEF7EEF8D2
:10E86000002803D000221146FDF7BCFF394A0121E0
:10E8700001A8FEF7A3F80121002209030198FEF781
:10E8800037F9304934482C3908603448012505608F
:10E89000334902200860FEF707FDFEF739FC002827
:10E8A0001AD0FEF744FC002803D000221146FDF7E1
:10E8B00099FF20466840FEF76BFB00F085FDFEF7F0
:10E8C0005DFC00280ED000221146FDF78BFF09E009
:10E8D00001240021C1619FE720466840FEF758FBF4
:10E8E00000F072FD1F4800690006C00F04D0002030
:10E8F00020431D4C07D101E00120F9E7A068FEF795
:10E90000BDFB002807D1FEF74FFC002803D00022F2
:10E910001146FDF767FFA068FEF7B0FB002806D0A0
:10E92000FEF7F6FB002802D1A068FEF7C7FBBFF395
:10E930004F8F0F490D48C860BFF34F8FFEE70000AF
:10E9400000050040480700500010001025CA0300D1
:10E95000542900202DD003000C00030040950040F6
:10E9600040A5004000050050003000000400FA05FA
:10E9700000ED00E070B5054600790E46801C144697
:10E98000C0B21178821C8A181F2A01D90C2070BDD0
:10E990000A46491C401C2170B0542078FF22411CBB
:10E9A0002170325420788119288800F053FF217893
:10E9B0004018C0B22070AA88002A09D0A96800298E
:10E9C00008D08019FDF70CFC2078297940182070B8
:10E9D000002070BD072070BDF8B514780746A01C54
:10E9E00015460E461F2803D83879801C1F2801D9E8
:10E9F0000C20F8BD1D20001B80B2694686460880A9
:10EA00003019801C7DDF0028F3D13868022805D139
:10EA100068460088704501D8092107E03879082147
:10EA2000002801D0704501D968460088421C325543
:10EA3000641CE2B2B1542978801C081828700020A8
:10EA4000F8BD000031B5054C04E0401E00902046A2
:10EA5000FDF752FB00980028F7D138BDE70300000E
:10EA600008280CD004DC002807D006280FD108E0C5
:10EA70000B280AD00C280AD105E00120704702209B
:10EA800070470320704704207047042901D00620F6
:10EA9000704705207047000070B55A4C0188002669
:10EAA0000122E588A6B017290DD020DC564A574B25
:10EAB00011293FD009DC022973D0102903D19A60B3
:10EAC0008088E080A67026B070BD514C264618366E
:10EAD00013294CD01429F6D1C289638D00219A42A2
:10EAE00000D1314600238088E21D82DF1BE05129DE
:10EAF0006AD00EDC18297DD01929E4D1807900284C
:10EB0000E1D1A670E068401EE0604BD0FDF7ACFD9F
:10EB1000D9E7522973D05529D5D180790028D2D18F
:10EB20001321284676DF0028CDD000221146FDF7BC
:10EB300059FEC8E78020694688803220E060DA60AC
:10EB40000020FEF76DFA012301AA06A9E088AADFDA
:10EB5000002803D000221146FDF744FE207800284B
:10EB600001D1FDF781FD0020C043E080ABE7072223
:10EB7000274910A8FDF734FB1022E11D0CA8FDF772
:10EB80002FFB1C22314612A8FDF72AFB0CA80A9085
:10EB90001C4A12A82032099006AB852128467FDF47
:10EBA000C1E70DE018221B4906A8FDF719FB0A98DA
:10EBB0000B990090019106A80FC8FEF701FB82E7B0
:10EBC0000021284667DFAEE781790029A0D0807A4E
:10EBD000042803D0062801D0052899D102290AD09B
:10EBE00068460272FF2083306946888102A9284660
:10EBF000A8DF98E703E0022069460872F2E700F018
:10EC0000F3FB90E7142900200000080000050050E5
:10EC1000702F0020E0FA0300F0B58BB00446022705
:10EC200068460773002609968784C68408A80A9058
:10EC30000D46A18A208809AAA5DF002804D0E16A30
:10EC400000291AD0884718E06846008CC007C00F1A
:10EC500013D068460682208803A9A8DF002813D1B4
:10EC6000A97E28461B3001220B00FDF715FC094345
:10EC70000F1B202224263E284300FF20FE30694639
:10EC80000882208803A9A8DF0BB0F0BD00960AE037
:10EC9000062219E069460A71029022E02046904758
:10ECA0000020F1E700922B8B022BF3D2F0E70097C4
:10ECB0001DE003201AE0042018E0052016E0298B4F
:10ECC000032905D2032208212046FEF723F9DBE7BA
:10ECD00041780278080210436946888003D00620F4
:10ECE0000090A26ADAE70720FAE709200090694657
:10ECF000A26AD3E70322E7E770B50D460968064626
:10ED00000120364C0B00FDF7C7FB0A2B30430613DE
:10ED1000205B60466412FEF709FF0421FFF7A0FEA6
:10ED2000024604212EE000221146FDF75BFD70BD76
:10ED3000FFF7D8F9002803D000221146FDF752FD55
:10ED4000FEF7DCFE002808D170BDFFF7CBF90028E4
:10ED500003D000221146FDF745FDFFF75BF870BDBB
:10ED60002061A8680078207170BD02202061A86829
:10ED700000780128F8D1FEF73FFF0221FFF770FE6F
:10ED8000024602213046FEF7C5F80028CBD170BDFF
:10ED90000320206170BD0120FEF742F92269304650
:10EDA0002946012A06D0022A07D0032AF2D1FDF70C
:10EDB000AFFC70BD00F0D0FB70BDFFF7ABFB70BDCA
:10EDC0006070A8882081608170BD00206070208103
:10EDD00070BD30466169FDF79FFFD6E7142900201A
:10EDE00010B50023302402E0C4545B1CDBB2934214
:10EDF000FAD300238218537008E00807000F0A288E
:10EE000000D3C01D3030521E107009090029F4D102
:10EE100010BD000010B507480368012B02D102297C
:10EE200000D10160100003D000221146FDF7DAFC8A
:10EE300010BD0000D828002070B5134C1E46A068F5
:10EE40001546022902D0042916D108E0052813D15D
:10EE5000A369002B10D03246294604200BE002287B
:10EE60000AD10A48406880470320A060A369002BAC
:10EE700002D0324629469847280003D00022114686
:10EE8000FDF7B0FC70BD0000E4280020102F00202A
:10EE9000F8B505461B480F460078002805D0002D20
:10EEA00005D02868002821D103E00820F8BD0E20F5
:10EEB000F8BD154C00262068002817D0A168E0682E
:10EEC000484361684118686881420FD9FFF7C4FB65
:10EED00000280DD0296814225143091968684A682E
:10EEE0008968801AFDF766F9002903D00720F8BD6C
:10EEF0001020F8BD3B460022294604200096FEF76C
:10EF00002FFBF8BD882800208C2E002070B500252E
:10EF1000134C1448E56025610570457085702E46D8
:10EF20003046FEF70DFB761C0A2EF9D3012212079C
:10EF30006560516928461269491E92B25143E560E5
:10EF4000A1600849F4310D608D600D61CD60044908
:10EF500014310D60888001212170206170BD000096
:10EF600088280020982D0020FFB5274881B0007820
:10EF70001F4616460D46002808D0002D09D00198DE
:10EF8000002806D02868002818D104E0082005B021
:10EF9000F0BD0E20FBE71D4C206800280ED0E16874
:10EFA000A0686268414389186A68914206D9002EB8
:10EFB00004D0B04202D3F119814201D90720E6E71B
:10EFC0000198FFF749FB00281BD03846FFF744FBA8
:10EFD000002816D06868FFF73FFB002811D068684A
:10EFE0003246C1190198FDF7FBF8009628681421F4
:10EFF00048432458002203212846019BA0470020B3
:10F00000C5E71020C3E70000882800208C2E0020D0
:10F0100008B50E4A1278002A05D0002805D00268EB
:10F02000022A11D103E0082008BD0E2008BD074ABE
:10F0300014321268002A07D00B4600220146042031
:10F040000092FEF78DFA08BD072008BD8828002031
:10F050000D4A1278002A0DD000280DD000290BD0BF
:10F060000268002A08D0084A14321368002B05D021
:10F0700004207047082070470E20704702230B6061
:10F08000006810600020704788280020F8B504460A
:10F0900016481E46007817460D46002807D0002D5A
:10F0A00007D0002C05D0206802281BD103E00820DF
:10F0B000F8BD0E20F8BD0D4814300068002811D0AE
:10F0C0000846FFF7C9FA00280ED03046FFF7C4FA09
:10F0D000002809D03B462A46214602200096FEF72A
:10F0E0003FFAF8BD0720F8BD1020F8BD88280020A1
:10F0F000F8B5344A044610780E4600282BD0002C70
:10F100002BD0002E29D02068002826D00121090705
:10F110006768086980B2874223D8102F21D3A0687E
:10F1200000281ED0956878434B694219096989B255
:10F130004B439A4215D801210907096989B28842CF
:10F140000DD9012000070069394680B2FDF732F879
:10F15000002906D103E00820F8BD0E20F8BDB8074D
:10F1600001D00720F8BD1749486801281CD00F4678
:10F170001421154A21C641438E18756023685350E7
:10F180006168B160A168F160A368616800225943B9
:10F1900001231B07521C1C6992B2A4B28C4205D2F7
:10F1A0001C69A4B2091B02E00420F8BD00211C69FF
:10F1B000A4B265190029EDD1BD60401C32617860B0
:10F1C0000020F8BD882800208C2E0020F8B50446C9
:10F1D00020481E46007815460F46002807D0002F0D
:10F1E00007D0002C05D02068002817D103E00820A4
:10F1F000F8BD0E20F8BD1848016800290ED0C2687D
:10F20000816840684A4310186268904206D9002D10
:10F2100004D0A94202D3A819884201D90720F8BD19
:10F220003846FFF719FA002811D03046FFF714FAD4
:10F2300000280CD06068FFF70FFA002807D02B4693
:10F240003A46214602200096FEF78AF9F8BD1020C2
:10F25000F8BD0000882800208C2E0020F8B5074655
:10F260000020464E8646B07801281ED10020444B2F
:10F27000B0701A69082A19D03446257818216943D4
:10F280000C19022F20D0032F0FD1241D6078401CB1
:10F29000C0B2607003286AD0FEF7C8F8002804D016
:10F2A000112802D02146FDF7A9FAF8BD022F09D096
:10F2B0001870FEF731F90028F7D031781822514341
:10F2C000891950E01861F4E72D49241DCB685B1CB7
:10F2D000CB602678022E05D167689902B94201D326
:10F2E000012100E000218C46052E01D1072A03D020
:10F2F0000021042E02D003E00121FAE7072A03D0FF
:10F300000027042E02D007E00127FAE764689B0279
:10F31000A34201D3002A28D0002239431143624678
:10F32000114317D0164A15491061D0604878401E25
:10F330004870681CC0B208700A2801D30A380870E7
:10F34000182068434118091D7046FDF757FA2846F2
:10F35000FEF7F6F8FEF7E0F80028A6D007491823D4
:10F360000A785A435118091D9DE70122D5E73078E4
:10F37000182148438119091D0D2094E7982D00207C
:10F380008828002070B501240B49600408600B49EF
:10F3900040108860094940398860094D6C602F2011
:10F3A000FCF7BAFEAC60074D00242F206C61FCF71F
:10F3B000B3FE2C7170BD000080E100E040130140FD
:10F3C00000100140B428002010B5064A142108207E
:10F3D000FDF7DEFA002803D000221146FDF702FAFD
:10F3E00010BD0000042C002070B5114C114DE088B8
:10F3F000A84201D1082070BDE178002913D0012373
:10F4000008220D49A9DF0028F5D12A460C21E08801
:10F41000A7DF0A49884204D0082802D0891C884204
:10F42000E9D1002070BD00231A461946A9DF70BD3E
:10F4300014290020FFFF0000A42F0020023000004C
:10F44000F7B582B002981446C06A0F46002833D040
:10F45000029800252030009028E00298C16A0C2014
:10F4600068430E18217830794A1CC01C22707854E9
:10F4700021781622481C20707A542078C1193088CF
:10F4800000F0E8F921784018C0B22070B288002A54
:10F4900009D0B16800290FD0C019FCF7A1FE20786F
:10F4A0003179401820706D1C0098EDB2007CA842A4
:10F4B000D3D8002005B0F0BD0720FBE710B500222F
:10F4C0001146FDF78FF910BD10B508461146C0462C
:10F4D000C04610BD002803D00249C8600020704714
:10F4E0000E2070474029002010B5002904D00022CA
:10F4F00011461046FDF776F9FFF73CF810BD000005
:10F5000010B50021024A0846FDF7B4F910BD00000D
:10F51000E9F4030070B5002901D08C0701D0072061
:10F5200070BD064C0125A16062800549636010DF53
:10F530000028F5D1257016202EDF70BD402900204F
:10F54000C9F40300002803D0024908610020704775
:10F550000E2070474029002030B5054687B00020B6
:10F56000009001900290039019486A46007910704B
:10F57000184A1068926804906846069205900879C7
:10F580000C2807D003221CE000221146FDF72AF9BF
:10F5900007B030BD8C68204600F061F90190201D55
:10F5A00000F05DF902902046083000F058F9039011
:10F5B00004A8FEF705FD0028EAD00121FFF750FA64
:10F5C000024601212846FDF7A5FC0028DCD1DFE733
:10F5D00014290020D4FA0300FFB581B0414C049BEC
:10F5E000039A054626691A4303200092002E03D190
:10F5F000002A0ED0012222612769039A01263607CC
:10F6000092003B00FCF748FF07270716294052618C
:10F6100027000222EFE77069326992B250433269E3
:10F6200033691204920C9BB2594329DF002812D18E
:10F6300002210FE0084628DF00280CD10399002999
:10F6400001D0032106E00499002916D12978042964
:10F6500046D017E0216105B0F0BD7069326992B201
:10F660005043326993B24B4301461846039A29DF4F
:10F670000028F0D10499002901D00421EAE7297873
:10F68000042920D00521E5E773693069366980B225
:10F69000434368681B189B18B6B24E433018801855
:10F6A0001946049A29DF0028E9D0D4E7306980B2EE
:10F6B0004843696880188A08696929DF0028CAD127
:10F6C000009900290CD00621C4E77069316989B21C
:10F6D0004843316989B2FCF76DFD28DF0028BAD1B3
:10F6E0000721B7E78828002010B5FFF7B7FD10BD48
:10F6F00001200249000508607047000000E200E0B8
:10F70000F0B5174F2821BC6841430D1939694A1CCF
:10F7100009D028224A431619AB68B268934204D82C
:10F72000D21AB26069623861F0BD0A4602E00A4648
:10F73000796A9B1B4E1C0BD028264E433719BE6896
:10F740009E42F4D328264E433619B768FF1AB76095
:10F75000AB60696228214A4311194862F0BD00007C
:10F76000B428002070B5194C2269A56813461146CB
:10F7700006E0814207D00A46282671434919496AA2
:10F780004E1CF6D170BD002EFCD08A420CD1282030
:10F7900043435819406A2061401C05D10C4B01209D
:10F7A0009860002363616071282041434819282331
:10F7B00081685A43406A52195062421CE2D02822A2
:10F7C0005043401982685118816070BDB4280020F0
:10F7D00000100140F8B51D4C2569681C35D01C4847
:10F7E000002640686169401A07023F0A19E0282094
:10F7F0004543A0682A189068B84214D8A3693F1AF4
:10F800008619556A002B09D0116AD06998470028DB
:10F8100007D000221146FCF7E5FF02E0D169106A2B
:10F820008847681CE3D1A178E078814206D1401C6A
:10F83000C0B2E070022801D10020E0700349000648
:10F84000800D1C310E50FFF753FFF8BDB428002087
:10F85000001501400870000A48700220704710B57A
:10F860000446FCF70AFD0002E178000A0906084395
:10F8700010BD0870020A4A70020C8A70000EC8702F
:10F880000420704738B51549154A488890420FD072
:10F890004A78144C521CD2B24A70237B934208D34C
:10F8A000083175DF002803D0A169002900D08847FE
:10F8B00038BD00254D70217C002907D03B2176DF23
:10F8C000002803D0A169002900D088476169002978
:10F8D000EED068460095884738BD000054280020C7
:10F8E000FFFF0000682D002011494868C005C00DC9
:10F8F00017D0103807D50207120F083A9208920065
:10F900005118C96904E081080A4A89008918096800
:10F910008007C00EC1400806800F012803D00328CD
:10F9200003D002207047002070470120704700007C
:10F9300000ED00E000E400E042788378521C93423E
:10F9400000D100220378934201D1002070470A6061
:10F95000416840781822504308187047F8B515469A
:10F96000069C1E4607460222009400F00AF8002872
:10F9700006D13346102229463846009400F001F89B
:10F98000F8BDFFB583B0074600200C9C864626785C
:10F9900005463AE07868A90041180A8868468280DE
:10F9A0004988C1800022694601A865DF002810D17E
:10F9B000684601780598814226D17046002801D01A
:10F9C000002200E002222078891841181F2902D95C
:10F9D0000C2007B0F0BD7146002908D1401CC0B210
:10F9E000411C069B049A21701A54012086462178F6
:10F9F00006980A18694601A865DF0028E9D169461A
:10FA000020780978401820706D1C3888A842C1DC25
:10FA10007046002804D020780699801B401E885527
:10FA20000020D6E710B5094C48DF002803D000229B
:10FA30001146FCF7D7FEFCF79BFF2068022803D095
:10FA4000032801D00428EFD110BD0000D8280020E1
:10FA500002000000000000000000000000000000A4
:10FA600023D1BCEA5F782315DEEF121200000000FC
:10FA700011000200000001000A180100020000004D
:10FA80000000000000000000000000000000000076
:10FA90000000000000000000020000000000000064
:10FAA0000000000000000000000000000000000056
:10FAB0000400000000000000000000000000000042
:10FAC000000000000000000039EE0300000000000C
:10FAD0000000000003000000000000000000000023
:10FAE0000500000000000000000000000000000011
:10FAF00000000000000000005331323020322E3070
:10FB00002E30005331313020382E302E300053311A
:10FB1000313020372E312E300051464143413030B4
:10FB20000051464141473030005146414341313058
:10FB30000051464141474330005331333020302E8D
:10FB400039616C706861000068FB030000280020C8
:10FB500054010000B4C20300B4FB03005429002088
:10FB6000940F0000C2C403000110323C1421FB03B7
:10FB700032441A310832831A190832841A29083299
:10FB80005A1A0E0832641A0308325E1A39083260B3
:10FB900024F8FA03032124F400149341646166728B
:10FBA00075697420496E647573747269657343FF77
:04FBB000FF023332EB
:020000041000EA
:0410140000C0030015
:040000050003C0C173
:00000001FF
